{
  "contractName": "LnExchangeSystem",
  "abi": [
    {
      "inputs": [
        {
          "internalType": "address",
          "name": "_admin",
          "type": "address"
        },
        {
          "internalType": "contract LnAddressStorage",
          "name": "_addressStorage",
          "type": "address"
        }
      ],
      "stateMutability": "nonpayable",
      "type": "constructor"
    },
    {
      "anonymous": false,
      "inputs": [
        {
          "indexed": false,
          "internalType": "address",
          "name": "oldAdmin",
          "type": "address"
        },
        {
          "indexed": false,
          "internalType": "address",
          "name": "newAdmin",
          "type": "address"
        }
      ],
      "name": "AdminChanged",
      "type": "event"
    },
    {
      "anonymous": false,
      "inputs": [
        {
          "indexed": false,
          "internalType": "address",
          "name": "oldCandidate",
          "type": "address"
        },
        {
          "indexed": false,
          "internalType": "address",
          "name": "newCandidate",
          "type": "address"
        }
      ],
      "name": "candidateChanged",
      "type": "event"
    },
    {
      "anonymous": false,
      "inputs": [
        {
          "indexed": false,
          "internalType": "address",
          "name": "fromAddr",
          "type": "address"
        },
        {
          "indexed": false,
          "internalType": "bytes32",
          "name": "sourceKey",
          "type": "bytes32"
        },
        {
          "indexed": false,
          "internalType": "uint256",
          "name": "sourceAmount",
          "type": "uint256"
        },
        {
          "indexed": false,
          "internalType": "address",
          "name": "destAddr",
          "type": "address"
        },
        {
          "indexed": false,
          "internalType": "bytes32",
          "name": "destKey",
          "type": "bytes32"
        },
        {
          "indexed": false,
          "internalType": "uint256",
          "name": "destRecived",
          "type": "uint256"
        },
        {
          "indexed": false,
          "internalType": "uint256",
          "name": "fee",
          "type": "uint256"
        }
      ],
      "name": "exchangeAsset",
      "type": "event"
    },
    {
      "anonymous": false,
      "inputs": [
        {
          "indexed": false,
          "internalType": "bytes32",
          "name": "name",
          "type": "bytes32"
        },
        {
          "indexed": false,
          "internalType": "address",
          "name": "addr",
          "type": "address"
        }
      ],
      "name": "updateCachedAddress",
      "type": "event"
    },
    {
      "inputs": [],
      "name": "ASSETS_KEY",
      "outputs": [
        {
          "internalType": "bytes32",
          "name": "",
          "type": "bytes32"
        }
      ],
      "stateMutability": "view",
      "type": "function"
    },
    {
      "inputs": [],
      "name": "CONFIG_KEY",
      "outputs": [
        {
          "internalType": "bytes32",
          "name": "",
          "type": "bytes32"
        }
      ],
      "stateMutability": "view",
      "type": "function"
    },
    {
      "inputs": [],
      "name": "FEE_SYS_KEY",
      "outputs": [
        {
          "internalType": "bytes32",
          "name": "",
          "type": "bytes32"
        }
      ],
      "stateMutability": "view",
      "type": "function"
    },
    {
      "inputs": [],
      "name": "PRICES_KEY",
      "outputs": [
        {
          "internalType": "bytes32",
          "name": "",
          "type": "bytes32"
        }
      ],
      "stateMutability": "view",
      "type": "function"
    },
    {
      "inputs": [],
      "name": "admin",
      "outputs": [
        {
          "internalType": "address",
          "name": "",
          "type": "address"
        }
      ],
      "stateMutability": "view",
      "type": "function"
    },
    {
      "inputs": [],
      "name": "becomeAdmin",
      "outputs": [],
      "stateMutability": "nonpayable",
      "type": "function"
    },
    {
      "inputs": [],
      "name": "candidate",
      "outputs": [
        {
          "internalType": "address",
          "name": "",
          "type": "address"
        }
      ],
      "stateMutability": "view",
      "type": "function"
    },
    {
      "inputs": [
        {
          "internalType": "address",
          "name": "_candidate",
          "type": "address"
        }
      ],
      "name": "setCandidate",
      "outputs": [],
      "stateMutability": "nonpayable",
      "type": "function"
    },
    {
      "inputs": [
        {
          "internalType": "contract LnAddressStorage",
          "name": "_addressStorage",
          "type": "address"
        }
      ],
      "name": "updateAddressCache",
      "outputs": [],
      "stateMutability": "nonpayable",
      "type": "function"
    },
    {
      "inputs": [
        {
          "internalType": "bytes32",
          "name": "sourceKey",
          "type": "bytes32"
        },
        {
          "internalType": "uint256",
          "name": "sourceAmount",
          "type": "uint256"
        },
        {
          "internalType": "address",
          "name": "destAddr",
          "type": "address"
        },
        {
          "internalType": "bytes32",
          "name": "destKey",
          "type": "bytes32"
        }
      ],
      "name": "exchange",
      "outputs": [],
      "stateMutability": "nonpayable",
      "type": "function"
    }
  ],
  "bytecode": "0x60806040523480156200001157600080fd5b50604051620023a5380380620023a5833981810160405260408110156200003757600080fd5b81019080805190602001909291908051906020019092919050505081600073ffffffffffffffffffffffffffffffffffffffff168173ffffffffffffffffffffffffffffffffffffffff161415620000f7576040517f08c379a00000000000000000000000000000000000000000000000000000000081526004018080602001828103825260198152602001807f61646d696e20616464726573732063616e6e6f7420626520300000000000000081525060200191505060405180910390fd5b806000806101000a81548173ffffffffffffffffffffffffffffffffffffffff021916908373ffffffffffffffffffffffffffffffffffffffff1602179055507f7e644d79422f17c01e4894b5f4f588d331ebfa28653d42ae832dc59e38c9798f600082604051808373ffffffffffffffffffffffffffffffffffffffff1681526020018273ffffffffffffffffffffffffffffffffffffffff1681526020019250505060405180910390a150620001b581620001bd60201b60201c565b5050620008ce565b60008054906101000a900473ffffffffffffffffffffffffffffffffffffffff1673ffffffffffffffffffffffffffffffffffffffff163373ffffffffffffffffffffffffffffffffffffffff161462000263576040517f08c379a000000000000000000000000000000000000000000000000000000000815260040180806020018281038252602f81526020018062002376602f913960400191505060405180910390fd5b8073ffffffffffffffffffffffffffffffffffffffff1663768911da7f4c6e417373657453797374656d000000000000000000000000000000000000006040518263ffffffff1660e01b815260040180828152602001806020018281038252600081526020016020019250505060206040518083038186803b158015620002e957600080fd5b505afa158015620002fe573d6000803e3d6000fd5b505050506040513d60208110156200031557600080fd5b8101908080519060200190929190505050600260006101000a81548173ffffffffffffffffffffffffffffffffffffffff021916908373ffffffffffffffffffffffffffffffffffffffff1602179055508073ffffffffffffffffffffffffffffffffffffffff1663768911da7f4c6e5072696365730000000000000000000000000000000000000000000000006040518263ffffffff1660e01b815260040180828152602001806020018281038252600081526020016020019250505060206040518083038186803b158015620003ec57600080fd5b505afa15801562000401573d6000803e3d6000fd5b505050506040513d60208110156200041857600080fd5b8101908080519060200190929190505050600360006101000a81548173ffffffffffffffffffffffffffffffffffffffff021916908373ffffffffffffffffffffffffffffffffffffffff1602179055508073ffffffffffffffffffffffffffffffffffffffff1663768911da7f4c6e436f6e6669670000000000000000000000000000000000000000000000006040518263ffffffff1660e01b815260040180828152602001806020018281038252600081526020016020019250505060206040518083038186803b158015620004ef57600080fd5b505afa15801562000504573d6000803e3d6000fd5b505050506040513d60208110156200051b57600080fd5b8101908080519060200190929190505050600460006101000a81548173ffffffffffffffffffffffffffffffffffffffff021916908373ffffffffffffffffffffffffffffffffffffffff1602179055508073ffffffffffffffffffffffffffffffffffffffff1663768911da7f4c6e46656553797374656d0000000000000000000000000000000000000000006040518263ffffffff1660e01b815260040180828152602001806020018281038252600081526020016020019250505060206040518083038186803b158015620005f257600080fd5b505afa15801562000607573d6000803e3d6000fd5b505050506040513d60208110156200061e57600080fd5b8101908080519060200190929190505050600560006101000a81548173ffffffffffffffffffffffffffffffffffffffff021916908373ffffffffffffffffffffffffffffffffffffffff1602179055507f45a7f8d84f7ad724869d024abcaa743ae6aec455a969df76b5d1e9c5cac4d2ae7f4c6e417373657453797374656d00000000000000000000000000000000000000600260009054906101000a900473ffffffffffffffffffffffffffffffffffffffff16604051808381526020018273ffffffffffffffffffffffffffffffffffffffff1681526020019250505060405180910390a17f45a7f8d84f7ad724869d024abcaa743ae6aec455a969df76b5d1e9c5cac4d2ae7f4c6e507269636573000000000000000000000000000000000000000000000000600360009054906101000a900473ffffffffffffffffffffffffffffffffffffffff16604051808381526020018273ffffffffffffffffffffffffffffffffffffffff1681526020019250505060405180910390a17f45a7f8d84f7ad724869d024abcaa743ae6aec455a969df76b5d1e9c5cac4d2ae7f4c6e436f6e666967000000000000000000000000000000000000000000000000600460009054906101000a900473ffffffffffffffffffffffffffffffffffffffff16604051808381526020018273ffffffffffffffffffffffffffffffffffffffff1681526020019250505060405180910390a17f45a7f8d84f7ad724869d024abcaa743ae6aec455a969df76b5d1e9c5cac4d2ae7f4c6e46656553797374656d000000000000000000000000000000000000000000600560009054906101000a900473ffffffffffffffffffffffffffffffffffffffff16604051808381526020018273ffffffffffffffffffffffffffffffffffffffff1681526020019250505060405180910390a150565b611a9880620008de6000396000f3fe608060405234801561001057600080fd5b506004361061009e5760003560e01c80635a5f14c8116100665780635a5f14c81461014b5780636c8381f81461018f578063a742ca02146101c3578063eaf6525014610225578063f851a440146102435761009e565b806307880b7f146100a3578063140d9c9f146100e75780631be702381461010557806325971dff1461012357806352ae23a91461012d575b600080fd5b6100e5600480360360208110156100b957600080fd5b81019080803573ffffffffffffffffffffffffffffffffffffffff169060200190929190505050610277565b005b6100ef610414565b6040518082815260200191505060405180910390f35b61010d610438565b6040518082815260200191505060405180910390f35b61012b61045c565b005b610135610635565b6040518082815260200191505060405180910390f35b61018d6004803603602081101561016157600080fd5b81019080803573ffffffffffffffffffffffffffffffffffffffff169060200190929190505050610659565b005b610197610d5c565b604051808273ffffffffffffffffffffffffffffffffffffffff16815260200191505060405180910390f35b610223600480360360808110156101d957600080fd5b810190808035906020019092919080359060200190929190803573ffffffffffffffffffffffffffffffffffffffff16906020019092919080359060200190929190505050610d82565b005b61022d610d95565b6040518082815260200191505060405180910390f35b61024b610db9565b604051808273ffffffffffffffffffffffffffffffffffffffff16815260200191505060405180910390f35b60008054906101000a900473ffffffffffffffffffffffffffffffffffffffff1673ffffffffffffffffffffffffffffffffffffffff163373ffffffffffffffffffffffffffffffffffffffff161461031b576040517f08c379a000000000000000000000000000000000000000000000000000000000815260040180806020018281038252602f815260200180611a34602f913960400191505060405180910390fd5b6000600160009054906101000a900473ffffffffffffffffffffffffffffffffffffffff16905081600160006101000a81548173ffffffffffffffffffffffffffffffffffffffff021916908373ffffffffffffffffffffffffffffffffffffffff1602179055507f0faed18be9e8f4d4c05dfbcc80ea2c97a0be729614d766827778f60890c02cab81600160009054906101000a900473ffffffffffffffffffffffffffffffffffffffff16604051808373ffffffffffffffffffffffffffffffffffffffff1681526020018273ffffffffffffffffffffffffffffffffffffffff1681526020019250505060405180910390a15050565b7f4c6e417373657453797374656d0000000000000000000000000000000000000081565b7f4c6e436f6e66696700000000000000000000000000000000000000000000000081565b600160009054906101000a900473ffffffffffffffffffffffffffffffffffffffff1673ffffffffffffffffffffffffffffffffffffffff163373ffffffffffffffffffffffffffffffffffffffff161461051f576040517f08c379a000000000000000000000000000000000000000000000000000000000815260040180806020018281038252601f8152602001807f4f6e6c792063616e6469646174652063616e206265636f6d652061646d696e0081525060200191505060405180910390fd5b60008060009054906101000a900473ffffffffffffffffffffffffffffffffffffffff169050600160009054906101000a900473ffffffffffffffffffffffffffffffffffffffff166000806101000a81548173ffffffffffffffffffffffffffffffffffffffff021916908373ffffffffffffffffffffffffffffffffffffffff1602179055507f7e644d79422f17c01e4894b5f4f588d331ebfa28653d42ae832dc59e38c9798f8160008054906101000a900473ffffffffffffffffffffffffffffffffffffffff16604051808373ffffffffffffffffffffffffffffffffffffffff1681526020018273ffffffffffffffffffffffffffffffffffffffff1681526020019250505060405180910390a150565b7f4c6e46656553797374656d00000000000000000000000000000000000000000081565b60008054906101000a900473ffffffffffffffffffffffffffffffffffffffff1673ffffffffffffffffffffffffffffffffffffffff163373ffffffffffffffffffffffffffffffffffffffff16146106fd576040517f08c379a000000000000000000000000000000000000000000000000000000000815260040180806020018281038252602f815260200180611a34602f913960400191505060405180910390fd5b8073ffffffffffffffffffffffffffffffffffffffff1663768911da7f4c6e417373657453797374656d000000000000000000000000000000000000006040518263ffffffff1660e01b815260040180828152602001806020018281038252600081526020016020019250505060206040518083038186803b15801561078257600080fd5b505afa158015610796573d6000803e3d6000fd5b505050506040513d60208110156107ac57600080fd5b8101908080519060200190929190505050600260006101000a81548173ffffffffffffffffffffffffffffffffffffffff021916908373ffffffffffffffffffffffffffffffffffffffff1602179055508073ffffffffffffffffffffffffffffffffffffffff1663768911da7f4c6e5072696365730000000000000000000000000000000000000000000000006040518263ffffffff1660e01b815260040180828152602001806020018281038252600081526020016020019250505060206040518083038186803b15801561088257600080fd5b505afa158015610896573d6000803e3d6000fd5b505050506040513d60208110156108ac57600080fd5b8101908080519060200190929190505050600360006101000a81548173ffffffffffffffffffffffffffffffffffffffff021916908373ffffffffffffffffffffffffffffffffffffffff1602179055508073ffffffffffffffffffffffffffffffffffffffff1663768911da7f4c6e436f6e6669670000000000000000000000000000000000000000000000006040518263ffffffff1660e01b815260040180828152602001806020018281038252600081526020016020019250505060206040518083038186803b15801561098257600080fd5b505afa158015610996573d6000803e3d6000fd5b505050506040513d60208110156109ac57600080fd5b8101908080519060200190929190505050600460006101000a81548173ffffffffffffffffffffffffffffffffffffffff021916908373ffffffffffffffffffffffffffffffffffffffff1602179055508073ffffffffffffffffffffffffffffffffffffffff1663768911da7f4c6e46656553797374656d0000000000000000000000000000000000000000006040518263ffffffff1660e01b815260040180828152602001806020018281038252600081526020016020019250505060206040518083038186803b158015610a8257600080fd5b505afa158015610a96573d6000803e3d6000fd5b505050506040513d6020811015610aac57600080fd5b8101908080519060200190929190505050600560006101000a81548173ffffffffffffffffffffffffffffffffffffffff021916908373ffffffffffffffffffffffffffffffffffffffff1602179055507f45a7f8d84f7ad724869d024abcaa743ae6aec455a969df76b5d1e9c5cac4d2ae7f4c6e417373657453797374656d00000000000000000000000000000000000000600260009054906101000a900473ffffffffffffffffffffffffffffffffffffffff16604051808381526020018273ffffffffffffffffffffffffffffffffffffffff1681526020019250505060405180910390a17f45a7f8d84f7ad724869d024abcaa743ae6aec455a969df76b5d1e9c5cac4d2ae7f4c6e507269636573000000000000000000000000000000000000000000000000600360009054906101000a900473ffffffffffffffffffffffffffffffffffffffff16604051808381526020018273ffffffffffffffffffffffffffffffffffffffff1681526020019250505060405180910390a17f45a7f8d84f7ad724869d024abcaa743ae6aec455a969df76b5d1e9c5cac4d2ae7f4c6e436f6e666967000000000000000000000000000000000000000000000000600460009054906101000a900473ffffffffffffffffffffffffffffffffffffffff16604051808381526020018273ffffffffffffffffffffffffffffffffffffffff1681526020019250505060405180910390a17f45a7f8d84f7ad724869d024abcaa743ae6aec455a969df76b5d1e9c5cac4d2ae7f4c6e46656553797374656d000000000000000000000000000000000000000000600560009054906101000a900473ffffffffffffffffffffffffffffffffffffffff16604051808381526020018273ffffffffffffffffffffffffffffffffffffffff1681526020019250505060405180910390a150565b600160009054906101000a900473ffffffffffffffffffffffffffffffffffffffff1681565b610d8f3385858585610ddd565b50505050565b7f4c6e50726963657300000000000000000000000000000000000000000000000081565b60008054906101000a900473ffffffffffffffffffffffffffffffffffffffff1681565b6000600260009054906101000a900473ffffffffffffffffffffffffffffffffffffffff1673ffffffffffffffffffffffffffffffffffffffff1663768911da866040518263ffffffff1660e01b815260040180828152602001806020018281038252600081526020016020019250505060206040518083038186803b158015610e6657600080fd5b505afa158015610e7a573d6000803e3d6000fd5b505050506040513d6020811015610e9057600080fd5b810190808051906020019092919050505090506000600260009054906101000a900473ffffffffffffffffffffffffffffffffffffffff1673ffffffffffffffffffffffffffffffffffffffff1663768911da846040518263ffffffff1660e01b815260040180828152602001806020018281038252600081526020016020019250505060206040518083038186803b158015610f2c57600080fd5b505afa158015610f40573d6000803e3d6000fd5b505050506040513d6020811015610f5657600080fd5b810190808051906020019092919050505090506000600360009054906101000a900473ffffffffffffffffffffffffffffffffffffffff1673ffffffffffffffffffffffffffffffffffffffff1663ee52a2f38888876040518463ffffffff1660e01b815260040180848152602001838152602001828152602001935050505060206040518083038186803b158015610fee57600080fd5b505afa158015611002573d6000803e3d6000fd5b505050506040513d602081101561101857600080fd5b81019080805190602001909291905050509050600081116110a1576040517f08c379a00000000000000000000000000000000000000000000000000000000081526004018080602001828103825260148152602001807f6465737420616d6f756e74206d757374203e203000000000000000000000000081525060200191505060405180910390fd5b6000600460009054906101000a900473ffffffffffffffffffffffffffffffffffffffff1673ffffffffffffffffffffffffffffffffffffffff1663bd02d0f5866040518263ffffffff1660e01b81526004018082815260200191505060206040518083038186803b15801561111657600080fd5b505afa15801561112a573d6000803e3d6000fd5b505050506040513d602081101561114057600080fd5b8101908080519060200190929190505050905060006111f86111e98373__SafeDecimalMath_______________________63907af6c06040518163ffffffff1660e01b815260040160206040518083038186803b1580156111a057600080fd5b505af41580156111b4573d6000803e3d6000fd5b505050506040513d60208110156111ca57600080fd5b810190808051906020019092919050505061153190919063ffffffff16565b8461157b90919063ffffffff16565b9050600061120f828561153190919063ffffffff16565b90506000600360009054906101000a900473ffffffffffffffffffffffffffffffffffffffff1673ffffffffffffffffffffffffffffffffffffffff1663ee52a2f38984600360009054906101000a900473ffffffffffffffffffffffffffffffffffffffff1673ffffffffffffffffffffffffffffffffffffffff1663cf59d5636040518163ffffffff1660e01b815260040160206040518083038186803b1580156112bb57600080fd5b505afa1580156112cf573d6000803e3d6000fd5b505050506040513d60208110156112e557600080fd5b81019080805190602001909291905050506040518463ffffffff1660e01b815260040180848152602001838152602001828152602001935050505060206040518083038186803b15801561133857600080fd5b505afa15801561134c573d6000803e3d6000fd5b505050506040513d602081101561136257600080fd5b8101908080519060200190929190505050905061137e816115a8565b8673ffffffffffffffffffffffffffffffffffffffff16639dc29fac8d8c6040518363ffffffff1660e01b8152600401808373ffffffffffffffffffffffffffffffffffffffff16815260200182815260200192505050600060405180830381600087803b1580156113ef57600080fd5b505af1158015611403573d6000803e3d6000fd5b505050508573ffffffffffffffffffffffffffffffffffffffff166340c10f198a856040518363ffffffff1660e01b8152600401808373ffffffffffffffffffffffffffffffffffffffff16815260200182815260200192505050600060405180830381600087803b15801561147857600080fd5b505af115801561148c573d6000803e3d6000fd5b505050507f690844a7ff350dacb041c537f9499d864b94f1ee5b4fdead8c4bd9e1d82397338c8c8c8c8c8887604051808873ffffffffffffffffffffffffffffffffffffffff1681526020018781526020018681526020018573ffffffffffffffffffffffffffffffffffffffff16815260200184815260200183815260200182815260200197505050505050505060405180910390a1505050505050505050505050565b600061157383836040518060400160405280601e81526020017f536166654d6174683a207375627472616374696f6e206f766572666c6f7700008152506118cc565b905092915050565b6000601260ff16600a0a611598838561198c90919063ffffffff16565b8161159f57fe5b04905092915050565b6000600260009054906101000a900473ffffffffffffffffffffffffffffffffffffffff1673ffffffffffffffffffffffffffffffffffffffff1663768911da600360009054906101000a900473ffffffffffffffffffffffffffffffffffffffff1673ffffffffffffffffffffffffffffffffffffffff1663cf59d5636040518163ffffffff1660e01b815260040160206040518083038186803b15801561165057600080fd5b505afa158015611664573d6000803e3d6000fd5b505050506040513d602081101561167a57600080fd5b81019080805190602001909291905050506040518263ffffffff1660e01b815260040180828152602001806020018281038252600081526020016020019250505060206040518083038186803b1580156116d357600080fd5b505afa1580156116e7573d6000803e3d6000fd5b505050506040513d60208110156116fd57600080fd5b810190808051906020019092919050505090508073ffffffffffffffffffffffffffffffffffffffff166340c10f19600560009054906101000a900473ffffffffffffffffffffffffffffffffffffffff1673ffffffffffffffffffffffffffffffffffffffff1663bae747db6040518163ffffffff1660e01b815260040160206040518083038186803b15801561179457600080fd5b505afa1580156117a8573d6000803e3d6000fd5b505050506040513d60208110156117be57600080fd5b8101908080519060200190929190505050846040518363ffffffff1660e01b8152600401808373ffffffffffffffffffffffffffffffffffffffff16815260200182815260200192505050600060405180830381600087803b15801561182357600080fd5b505af1158015611837573d6000803e3d6000fd5b50505050600560009054906101000a900473ffffffffffffffffffffffffffffffffffffffff1673ffffffffffffffffffffffffffffffffffffffff166359ed6005836040518263ffffffff1660e01b815260040180828152602001915050600060405180830381600087803b1580156118b057600080fd5b505af11580156118c4573d6000803e3d6000fd5b505050505050565b6000838311158290611979576040517f08c379a00000000000000000000000000000000000000000000000000000000081526004018080602001828103825283818151815260200191508051906020019080838360005b8381101561193e578082015181840152602081019050611923565b50505050905090810190601f16801561196b5780820380516001836020036101000a031916815260200191505b509250505060405180910390fd5b5060008385039050809150509392505050565b60008083141561199f5760009050611a0c565b60008284029050828482816119b057fe5b0414611a07576040517f08c379a0000000000000000000000000000000000000000000000000000000008152600401808060200182810382526021815260200180611a136021913960400191505060405180910390fd5b809150505b9291505056fe536166654d6174683a206d756c7469706c69636174696f6e206f766572666c6f774f6e6c792074686520636f6e74726163742061646d696e2063616e20706572666f726d207468697320616374696f6ea2646970667358221220826a8671c5e5ba5334315cec83f87061876ee5b8b3e411a5cf5da65901ff2e1564736f6c634300060c00334f6e6c792074686520636f6e74726163742061646d696e2063616e20706572666f726d207468697320616374696f6e",
  "immutableReferences": {},
  "source": "// SPDX-License-Identifier: MIT\r\npragma solidity ^0.6.12;\r\n\r\nimport \"./LnAddressCache.sol\";\r\nimport \"./LnAsset.sol\";\r\nimport \"./LnAssetSystem.sol\";\r\nimport \"./LnPrices.sol\";\r\nimport \"./LnConfig.sol\";\r\nimport \"./LnFeeSystem.sol\";\r\n\r\ncontract LnExchangeSystem is LnAddressCache, LnAdmin {\r\n    using SafeMath for uint;\r\n    using SafeDecimalMath for uint;\r\n\r\n    bytes32 public constant ASSETS_KEY = (\"LnAssetSystem\");\r\n    bytes32 public constant PRICES_KEY = (\"LnPrices\");\r\n    bytes32 public constant CONFIG_KEY = (\"LnConfig\");\r\n    bytes32 public constant FEE_SYS_KEY = (\"LnFeeSystem\");\r\n\r\n\r\n    LnAssetSystem mAssets;\r\n    LnPrices mPrices;\r\n    LnConfig mConfig;\r\n    LnFeeSystem mFeeSys;\r\n\r\n    constructor(address _admin, LnAddressStorage _addressStorage ) public LnAdmin(_admin ) {\r\n        updateAddressCache( _addressStorage );\r\n    }\r\n\r\n\r\n    function updateAddressCache( LnAddressStorage _addressStorage ) onlyAdmin public override\r\n    {\r\n        mAssets = LnAssetSystem(_addressStorage.getAddressWithRequire( ASSETS_KEY,\"\" ));\r\n        mPrices = LnPrices(_addressStorage.getAddressWithRequire( PRICES_KEY,\"\" ));\r\n        mConfig = LnConfig(_addressStorage.getAddressWithRequire( CONFIG_KEY,\"\" ));\r\n        mFeeSys = LnFeeSystem(_addressStorage.getAddressWithRequire( FEE_SYS_KEY,\"\" ));\r\n\r\n\r\n        emit updateCachedAddress( ASSETS_KEY, address(mAssets) );\r\n        emit updateCachedAddress( PRICES_KEY, address(mPrices) );\r\n        emit updateCachedAddress( CONFIG_KEY, address(mConfig) );\r\n        emit updateCachedAddress( FEE_SYS_KEY, address(mFeeSys) );\r\n    }\r\n\r\n\r\n    function exchange( bytes32 sourceKey, uint sourceAmount, address destAddr, bytes32 destKey  ) external {\r\n        return _exchange( msg.sender, sourceKey, sourceAmount, destAddr, destKey );\r\n    }\r\n\r\n    function _exchange( address fromAddr, bytes32 sourceKey, uint sourceAmount, address destAddr, bytes32 destKey  ) internal {\r\n        \r\n        LnAsset source = LnAsset( mAssets.getAddressWithRequire( sourceKey, \"\"));\r\n        LnAsset dest = LnAsset( mAssets.getAddressWithRequire( destKey, \"\"));\r\n        uint destAmount=  mPrices.exchange( sourceKey, sourceAmount, destKey );\r\n        require( destAmount > 0, \"dest amount must > 0\" );\r\n\r\n        // \r\n        //uint feeRate = 1 ether / 100; // 0.01\r\n        //  JS:  await config.batchSet( [\"BTC\",\"CNY\"].map(toBytes32), [0.01, 0.01].map(toUnit));\r\n        uint feeRate = mConfig.getUint( destKey ); // fee rate\r\n        uint destRecived = destAmount.multiplyDecimal(SafeDecimalMath.unit().sub(feeRate));\r\n        uint fee = destAmount.sub( destRecived );\r\n\r\n        // USD\r\n        uint feeUsd = mPrices.exchange( destKey, fee, mPrices.LUSD() );\r\n        // \r\n        _addExchangeFee( feeUsd );        \r\n\r\n        // \r\n        source.burn( fromAddr, sourceAmount );\r\n\r\n        dest.mint( destAddr, destRecived );\r\n\r\n        emit exchangeAsset( fromAddr, sourceKey, sourceAmount, destAddr, destKey, destRecived, feeUsd );\r\n    }\r\n\r\n    function _addExchangeFee( uint feeUsd ) internal\r\n    {\r\n        LnAsset lusd = LnAsset( mAssets.getAddressWithRequire( mPrices.LUSD(), \"\"));\r\n        lusd.mint( mFeeSys.FEE_DUMMY_ADDRESS(), feeUsd );\r\n        mFeeSys.addExchangeFee( feeUsd );\r\n    }\r\n    \r\n    event exchangeAsset( address fromAddr, bytes32 sourceKey, uint sourceAmount, address destAddr, bytes32 destKey,  uint destRecived, uint fee );\r\n}\r\n\r\n",
  "sourcePath": "/mnt/d/working/linearFinance/smartcontracts/contracts/LnExchangeSystem.sol",
  "compiler": {
    "name": "solc",
    "version": "0.6.12+commit.27d51765.Emscripten.clang"
  },
  "schemaVersion": "3.2.3",
  "updatedAt": "2020-09-29T07:15:29.164Z",
  "devdoc": {
    "kind": "dev",
    "methods": {},
    "version": 1
  },
  "userdoc": {
    "kind": "user",
    "methods": {},
    "version": 1
  }
}