{
  "contractName": "LnAssetSystem",
  "abi": [
    {
      "inputs": [
        {
          "internalType": "address",
          "name": "_admin",
          "type": "address"
        }
      ],
      "stateMutability": "nonpayable",
      "type": "constructor"
    },
    {
      "anonymous": false,
      "inputs": [
        {
          "indexed": false,
          "internalType": "address",
          "name": "oldAdmin",
          "type": "address"
        },
        {
          "indexed": false,
          "internalType": "address",
          "name": "newAdmin",
          "type": "address"
        }
      ],
      "name": "AdminChanged",
      "type": "event"
    },
    {
      "anonymous": false,
      "inputs": [
        {
          "indexed": false,
          "internalType": "bytes32",
          "name": "name",
          "type": "bytes32"
        },
        {
          "indexed": false,
          "internalType": "address",
          "name": "asset",
          "type": "address"
        }
      ],
      "name": "AssetAdded",
      "type": "event"
    },
    {
      "anonymous": false,
      "inputs": [
        {
          "indexed": false,
          "internalType": "bytes32",
          "name": "name",
          "type": "bytes32"
        },
        {
          "indexed": false,
          "internalType": "address",
          "name": "asset",
          "type": "address"
        }
      ],
      "name": "AssetRemoved",
      "type": "event"
    },
    {
      "anonymous": false,
      "inputs": [
        {
          "indexed": false,
          "internalType": "address",
          "name": "oldCandidate",
          "type": "address"
        },
        {
          "indexed": false,
          "internalType": "address",
          "name": "newCandidate",
          "type": "address"
        }
      ],
      "name": "candidateChanged",
      "type": "event"
    },
    {
      "anonymous": false,
      "inputs": [
        {
          "indexed": false,
          "internalType": "bytes32",
          "name": "name",
          "type": "bytes32"
        },
        {
          "indexed": false,
          "internalType": "address",
          "name": "addr",
          "type": "address"
        }
      ],
      "name": "updateStorageAddress",
      "type": "event"
    },
    {
      "inputs": [],
      "name": "admin",
      "outputs": [
        {
          "internalType": "address",
          "name": "",
          "type": "address"
        }
      ],
      "stateMutability": "view",
      "type": "function"
    },
    {
      "inputs": [],
      "name": "becomeAdmin",
      "outputs": [],
      "stateMutability": "nonpayable",
      "type": "function"
    },
    {
      "inputs": [],
      "name": "candidate",
      "outputs": [
        {
          "internalType": "address",
          "name": "",
          "type": "address"
        }
      ],
      "stateMutability": "view",
      "type": "function"
    },
    {
      "inputs": [
        {
          "internalType": "bytes32",
          "name": "name",
          "type": "bytes32"
        }
      ],
      "name": "getAddress",
      "outputs": [
        {
          "internalType": "address",
          "name": "",
          "type": "address"
        }
      ],
      "stateMutability": "view",
      "type": "function"
    },
    {
      "inputs": [
        {
          "internalType": "bytes32",
          "name": "name",
          "type": "bytes32"
        },
        {
          "internalType": "string",
          "name": "reason",
          "type": "string"
        }
      ],
      "name": "getAddressWithRequire",
      "outputs": [
        {
          "internalType": "address",
          "name": "",
          "type": "address"
        }
      ],
      "stateMutability": "view",
      "type": "function"
    },
    {
      "inputs": [
        {
          "internalType": "address",
          "name": "",
          "type": "address"
        }
      ],
      "name": "mAddress2Names",
      "outputs": [
        {
          "internalType": "bytes32",
          "name": "",
          "type": "bytes32"
        }
      ],
      "stateMutability": "view",
      "type": "function"
    },
    {
      "inputs": [
        {
          "internalType": "bytes32",
          "name": "",
          "type": "bytes32"
        }
      ],
      "name": "mAddrs",
      "outputs": [
        {
          "internalType": "address",
          "name": "",
          "type": "address"
        }
      ],
      "stateMutability": "view",
      "type": "function"
    },
    {
      "inputs": [
        {
          "internalType": "uint256",
          "name": "",
          "type": "uint256"
        }
      ],
      "name": "mAssetList",
      "outputs": [
        {
          "internalType": "contract IAsset",
          "name": "",
          "type": "address"
        }
      ],
      "stateMutability": "view",
      "type": "function"
    },
    {
      "inputs": [
        {
          "internalType": "address",
          "name": "_candidate",
          "type": "address"
        }
      ],
      "name": "setCandidate",
      "outputs": [],
      "stateMutability": "nonpayable",
      "type": "function"
    },
    {
      "inputs": [
        {
          "internalType": "bytes32",
          "name": "name",
          "type": "bytes32"
        },
        {
          "internalType": "address",
          "name": "dest",
          "type": "address"
        }
      ],
      "name": "update",
      "outputs": [],
      "stateMutability": "nonpayable",
      "type": "function"
    },
    {
      "inputs": [
        {
          "internalType": "bytes32[]",
          "name": "names",
          "type": "bytes32[]"
        },
        {
          "internalType": "address[]",
          "name": "destinations",
          "type": "address[]"
        }
      ],
      "name": "updateAll",
      "outputs": [],
      "stateMutability": "nonpayable",
      "type": "function"
    },
    {
      "inputs": [
        {
          "internalType": "contract IAsset",
          "name": "asset",
          "type": "address"
        }
      ],
      "name": "addAsset",
      "outputs": [],
      "stateMutability": "nonpayable",
      "type": "function"
    },
    {
      "inputs": [
        {
          "internalType": "bytes32",
          "name": "name",
          "type": "bytes32"
        }
      ],
      "name": "removeAsset",
      "outputs": [],
      "stateMutability": "nonpayable",
      "type": "function"
    },
    {
      "inputs": [],
      "name": "assetNumber",
      "outputs": [
        {
          "internalType": "uint256",
          "name": "",
          "type": "uint256"
        }
      ],
      "stateMutability": "view",
      "type": "function"
    },
    {
      "inputs": [],
      "name": "totalAssetsInUsd",
      "outputs": [
        {
          "internalType": "uint256",
          "name": "rTotal",
          "type": "uint256"
        }
      ],
      "stateMutability": "view",
      "type": "function"
    },
    {
      "inputs": [],
      "name": "getAssetAddresses",
      "outputs": [
        {
          "internalType": "address[]",
          "name": "",
          "type": "address[]"
        }
      ],
      "stateMutability": "view",
      "type": "function"
    }
  ],
  "bytecode": "0x608060405234801561001057600080fd5b506040516120153803806120158339818101604052602081101561003357600080fd5b81019080805190602001909291905050508080600073ffffffffffffffffffffffffffffffffffffffff168173ffffffffffffffffffffffffffffffffffffffff1614156100e9576040517f08c379a00000000000000000000000000000000000000000000000000000000081526004018080602001828103825260198152602001807f61646d696e20616464726573732063616e6e6f7420626520300000000000000081525060200191505060405180910390fd5b806000806101000a81548173ffffffffffffffffffffffffffffffffffffffff021916908373ffffffffffffffffffffffffffffffffffffffff1602179055507f7e644d79422f17c01e4894b5f4f588d331ebfa28653d42ae832dc59e38c9798f600082604051808373ffffffffffffffffffffffffffffffffffffffff1681526020018273ffffffffffffffffffffffffffffffffffffffff1681526020019250505060405180910390a1505050611e6e806101a76000396000f3fe608060405234801561001057600080fd5b50600436106101005760003560e01c806370c076ba1161009757806387685fb91161006657806387685fb9146104e8578063d091dfc314610547578063f5d129891461059f578063f851a440146105bd57610100565b806370c076ba14610397578063768911da146103ef578063827c15671461049c578063837592db146104ba57610100565b8063298410e5116100d3578063298410e5146102795780634ae2ffc0146102bd5780634fb068c51461030b5780636c8381f81461036357610100565b8063046624271461010557806307880b7f146101d357806321f8a7211461021757806325971dff1461026f575b600080fd5b6101d16004803603604081101561011b57600080fd5b810190808035906020019064010000000081111561013857600080fd5b82018360208201111561014a57600080fd5b8035906020019184602083028401116401000000008311171561016c57600080fd5b90919293919293908035906020019064010000000081111561018d57600080fd5b82018360208201111561019f57600080fd5b803590602001918460208302840111640100000000831117156101c157600080fd5b90919293919293905050506105f1565b005b610215600480360360208110156101e957600080fd5b81019080803573ffffffffffffffffffffffffffffffffffffffff16906020019092919050505061084d565b005b6102436004803603602081101561022d57600080fd5b81019080803590602001909291905050506109ea565b604051808273ffffffffffffffffffffffffffffffffffffffff16815260200191505060405180910390f35b610277610a27565b005b6102bb6004803603602081101561028f57600080fd5b81019080803573ffffffffffffffffffffffffffffffffffffffff169060200190929190505050610c00565b005b610309600480360360408110156102d357600080fd5b8101908080359060200190929190803573ffffffffffffffffffffffffffffffffffffffff169060200190929190505050611007565b005b61034d6004803603602081101561032157600080fd5b81019080803573ffffffffffffffffffffffffffffffffffffffff169060200190929190505050611270565b6040518082815260200191505060405180910390f35b61036b611288565b604051808273ffffffffffffffffffffffffffffffffffffffff16815260200191505060405180910390f35b6103c3600480360360208110156103ad57600080fd5b81019080803590602001909291905050506112ae565b604051808273ffffffffffffffffffffffffffffffffffffffff16815260200191505060405180910390f35b6104706004803603604081101561040557600080fd5b81019080803590602001909291908035906020019064010000000081111561042c57600080fd5b82018360208201111561043e57600080fd5b8035906020019184600183028401116401000000008311171561046057600080fd5b90919293919293905050506112ea565b604051808273ffffffffffffffffffffffffffffffffffffffff16815260200191505060405180910390f35b6104a46113d0565b6040518082815260200191505060405180910390f35b6104e6600480360360208110156104d057600080fd5b81019080803590602001909291905050506113dd565b005b6104f06117cb565b6040518080602001828103825283818151815260200191508051906020019060200280838360005b83811015610533578082015181840152602081019050610518565b505050509050019250505060405180910390f35b6105736004803603602081101561055d57600080fd5b81019080803590602001909291905050506118bf565b604051808273ffffffffffffffffffffffffffffffffffffffff16815260200191505060405180910390f35b6105a76118f2565b6040518082815260200191505060405180910390f35b6105c5611c89565b604051808273ffffffffffffffffffffffffffffffffffffffff16815260200191505060405180910390f35b60008054906101000a900473ffffffffffffffffffffffffffffffffffffffff1673ffffffffffffffffffffffffffffffffffffffff163373ffffffffffffffffffffffffffffffffffffffff1614610695576040517f08c379a000000000000000000000000000000000000000000000000000000000815260040180806020018281038252602f815260200180611e0a602f913960400191505060405180910390fd5b818190508484905014610710576040517f08c379a00000000000000000000000000000000000000000000000000000000081526004018080602001828103825260188152602001807f496e707574206c656e67746873206d757374206d61746368000000000000000081525060200191505060405180910390fd5b60005b848490508110156108465782828281811061072a57fe5b9050602002013573ffffffffffffffffffffffffffffffffffffffff166002600087878581811061075757fe5b90506020020135815260200190815260200160002060006101000a81548173ffffffffffffffffffffffffffffffffffffffff021916908373ffffffffffffffffffffffffffffffffffffffff1602179055507f256a0ebdf27db05ec0aa6a0db78f9e4071e198ac05bf76f0ca2b505e58287e8a8585838181106107d757fe5b905060200201358484848181106107ea57fe5b9050602002013573ffffffffffffffffffffffffffffffffffffffff16604051808381526020018273ffffffffffffffffffffffffffffffffffffffff1681526020019250505060405180910390a18080600101915050610713565b5050505050565b60008054906101000a900473ffffffffffffffffffffffffffffffffffffffff1673ffffffffffffffffffffffffffffffffffffffff163373ffffffffffffffffffffffffffffffffffffffff16146108f1576040517f08c379a000000000000000000000000000000000000000000000000000000000815260040180806020018281038252602f815260200180611e0a602f913960400191505060405180910390fd5b6000600160009054906101000a900473ffffffffffffffffffffffffffffffffffffffff16905081600160006101000a81548173ffffffffffffffffffffffffffffffffffffffff021916908373ffffffffffffffffffffffffffffffffffffffff1602179055507f0faed18be9e8f4d4c05dfbcc80ea2c97a0be729614d766827778f60890c02cab81600160009054906101000a900473ffffffffffffffffffffffffffffffffffffffff16604051808373ffffffffffffffffffffffffffffffffffffffff1681526020018273ffffffffffffffffffffffffffffffffffffffff1681526020019250505060405180910390a15050565b60006002600083815260200190815260200160002060009054906101000a900473ffffffffffffffffffffffffffffffffffffffff169050919050565b600160009054906101000a900473ffffffffffffffffffffffffffffffffffffffff1673ffffffffffffffffffffffffffffffffffffffff163373ffffffffffffffffffffffffffffffffffffffff1614610aea576040517f08c379a000000000000000000000000000000000000000000000000000000000815260040180806020018281038252601f8152602001807f4f6e6c792063616e6469646174652063616e206265636f6d652061646d696e0081525060200191505060405180910390fd5b60008060009054906101000a900473ffffffffffffffffffffffffffffffffffffffff169050600160009054906101000a900473ffffffffffffffffffffffffffffffffffffffff166000806101000a81548173ffffffffffffffffffffffffffffffffffffffff021916908373ffffffffffffffffffffffffffffffffffffffff1602179055507f7e644d79422f17c01e4894b5f4f588d331ebfa28653d42ae832dc59e38c9798f8160008054906101000a900473ffffffffffffffffffffffffffffffffffffffff16604051808373ffffffffffffffffffffffffffffffffffffffff1681526020018273ffffffffffffffffffffffffffffffffffffffff1681526020019250505060405180910390a150565b60008054906101000a900473ffffffffffffffffffffffffffffffffffffffff1673ffffffffffffffffffffffffffffffffffffffff163373ffffffffffffffffffffffffffffffffffffffff1614610ca4576040517f08c379a000000000000000000000000000000000000000000000000000000000815260040180806020018281038252602f815260200180611e0a602f913960400191505060405180910390fd5b60008173ffffffffffffffffffffffffffffffffffffffff1663fa3caae06040518163ffffffff1660e01b815260040160206040518083038186803b158015610cec57600080fd5b505afa158015610d00573d6000803e3d6000fd5b505050506040513d6020811015610d1657600080fd5b81019080805190602001909291905050509050600073ffffffffffffffffffffffffffffffffffffffff166002600083815260200190815260200160002060009054906101000a900473ffffffffffffffffffffffffffffffffffffffff1673ffffffffffffffffffffffffffffffffffffffff1614610dfe576040517f08c379a00000000000000000000000000000000000000000000000000000000081526004018080602001828103825260148152602001807f417373657420616c72656164792065786973747300000000000000000000000081525060200191505060405180910390fd5b6000801b600460008473ffffffffffffffffffffffffffffffffffffffff1673ffffffffffffffffffffffffffffffffffffffff1681526020019081526020016000205414610eb5576040517f08c379a000000000000000000000000000000000000000000000000000000000815260040180806020018281038252601c8152602001807f4173736574206164647265737320616c7265616479206578697374730000000081525060200191505060405180910390fd5b6003829080600181540180825580915050600190039060005260206000200160009091909190916101000a81548173ffffffffffffffffffffffffffffffffffffffff021916908373ffffffffffffffffffffffffffffffffffffffff160217905550816002600083815260200190815260200160002060006101000a81548173ffffffffffffffffffffffffffffffffffffffff021916908373ffffffffffffffffffffffffffffffffffffffff16021790555080600460008473ffffffffffffffffffffffffffffffffffffffff1673ffffffffffffffffffffffffffffffffffffffff168152602001908152602001600020819055507f40f827e634613815ed6a93089e5fbbf24ed40bdb9390d7ae0f08dc64a03fe5758183604051808381526020018273ffffffffffffffffffffffffffffffffffffffff1681526020019250505060405180910390a15050565b60008054906101000a900473ffffffffffffffffffffffffffffffffffffffff1673ffffffffffffffffffffffffffffffffffffffff163373ffffffffffffffffffffffffffffffffffffffff16146110ab576040517f08c379a000000000000000000000000000000000000000000000000000000000815260040180806020018281038252602f815260200180611e0a602f913960400191505060405180910390fd5b6000821415611122576040517f08c379a00000000000000000000000000000000000000000000000000000000081526004018080602001828103825260158152602001807f6e616d652063616e206e6f7420626520656d707479000000000000000000000081525060200191505060405180910390fd5b600073ffffffffffffffffffffffffffffffffffffffff168173ffffffffffffffffffffffffffffffffffffffff1614156111c5576040517f08c379a00000000000000000000000000000000000000000000000000000000081526004018080602001828103825260138152602001807f616464726573732063616e6e6f7420626520300000000000000000000000000081525060200191505060405180910390fd5b806002600084815260200190815260200160002060006101000a81548173ffffffffffffffffffffffffffffffffffffffff021916908373ffffffffffffffffffffffffffffffffffffffff1602179055507f256a0ebdf27db05ec0aa6a0db78f9e4071e198ac05bf76f0ca2b505e58287e8a8282604051808381526020018273ffffffffffffffffffffffffffffffffffffffff1681526020019250505060405180910390a15050565b60046020528060005260406000206000915090505481565b600160009054906101000a900473ffffffffffffffffffffffffffffffffffffffff1681565b600381815481106112bb57fe5b906000526020600020016000915054906101000a900473ffffffffffffffffffffffffffffffffffffffff1681565b6000806002600086815260200190815260200160002060009054906101000a900473ffffffffffffffffffffffffffffffffffffffff169050600073ffffffffffffffffffffffffffffffffffffffff168173ffffffffffffffffffffffffffffffffffffffff161415848490916113c3576040517f08c379a000000000000000000000000000000000000000000000000000000000815260040180806020018281038252848482818152602001925080828437600081840152601f19601f820116905080830192505050935050505060405180910390fd5b5050809150509392505050565b6000600380549050905090565b60008054906101000a900473ffffffffffffffffffffffffffffffffffffffff1673ffffffffffffffffffffffffffffffffffffffff163373ffffffffffffffffffffffffffffffffffffffff1614611481576040517f08c379a000000000000000000000000000000000000000000000000000000000815260040180806020018281038252602f815260200180611e0a602f913960400191505060405180910390fd5b60006002600083815260200190815260200160002060009054906101000a900473ffffffffffffffffffffffffffffffffffffffff169050600073ffffffffffffffffffffffffffffffffffffffff168173ffffffffffffffffffffffffffffffffffffffff16141561155c576040517f08c379a00000000000000000000000000000000000000000000000000000000081526004018080602001828103825260148152602001807f617373657420646f6573206e6f7420657869737400000000000000000000000081525060200191505060405180910390fd5b60005b6003805490508110156116f8578173ffffffffffffffffffffffffffffffffffffffff166003828154811061159057fe5b9060005260206000200160009054906101000a900473ffffffffffffffffffffffffffffffffffffffff1673ffffffffffffffffffffffffffffffffffffffff1614156116eb57600381815481106115e457fe5b9060005260206000200160006101000a81549073ffffffffffffffffffffffffffffffffffffffff021916905560036001600380549050038154811061162657fe5b9060005260206000200160009054906101000a900473ffffffffffffffffffffffffffffffffffffffff166003828154811061165e57fe5b9060005260206000200160006101000a81548173ffffffffffffffffffffffffffffffffffffffff021916908373ffffffffffffffffffffffffffffffffffffffff16021790555060038054806116b157fe5b6001900381819060005260206000200160006101000a81549073ffffffffffffffffffffffffffffffffffffffff021916905590556116f8565b808060010191505061155f565b50600460008273ffffffffffffffffffffffffffffffffffffffff1673ffffffffffffffffffffffffffffffffffffffff168152602001908152602001600020600090556002600083815260200190815260200160002060006101000a81549073ffffffffffffffffffffffffffffffffffffffff02191690557f9d181adb70e733f5235f839c1eed929407ea8526e41d01f49b9fef703e78dddf8282604051808381526020018273ffffffffffffffffffffffffffffffffffffffff1681526020019250505060405180910390a15050565b60608060038054905067ffffffffffffffff811180156117ea57600080fd5b506040519080825280602002602001820160405280156118195781602001602082028036833780820191505090505b50905060005b6003805490508110156118b7576003818154811061183957fe5b9060005260206000200160009054906101000a900473ffffffffffffffffffffffffffffffffffffffff1682828151811061187057fe5b602002602001019073ffffffffffffffffffffffffffffffffffffffff16908173ffffffffffffffffffffffffffffffffffffffff1681525050808060010191505061181f565b508091505090565b60026020528060005260406000206000915054906101000a900473ffffffffffffffffffffffffffffffffffffffff1681565b60008073ffffffffffffffffffffffffffffffffffffffff16600260007f4c6e507269636573000000000000000000000000000000000000000000000000815260200190815260200160002060009054906101000a900473ffffffffffffffffffffffffffffffffffffffff1673ffffffffffffffffffffffffffffffffffffffff1614156119e9576040517f08c379a000000000000000000000000000000000000000000000000000000000815260040180806020018281038252601e8152602001807f4c6e50726963657320616464726573732063616e6e6f7420616363657373000081525060200191505060405180910390fd5b6000600260007f4c6e507269636573000000000000000000000000000000000000000000000000815260200190815260200160002060009054906101000a900473ffffffffffffffffffffffffffffffffffffffff16905060005b600380549050811015611c845760008273ffffffffffffffffffffffffffffffffffffffff166331d98b3f60038481548110611a7c57fe5b9060005260206000200160009054906101000a900473ffffffffffffffffffffffffffffffffffffffff1673ffffffffffffffffffffffffffffffffffffffff1663fa3caae06040518163ffffffff1660e01b815260040160206040518083038186803b158015611aec57600080fd5b505afa158015611b00573d6000803e3d6000fd5b505050506040513d6020811015611b1657600080fd5b81019080805190602001909291905050506040518263ffffffff1660e01b81526004018082815260200191505060206040518083038186803b158015611b5b57600080fd5b505afa158015611b6f573d6000803e3d6000fd5b505050506040513d6020811015611b8557600080fd5b81019080805190602001909291905050509050611c74611c658260038581548110611bac57fe5b9060005260206000200160009054906101000a900473ffffffffffffffffffffffffffffffffffffffff1673ffffffffffffffffffffffffffffffffffffffff166318160ddd6040518163ffffffff1660e01b815260040160206040518083038186803b158015611c1c57600080fd5b505afa158015611c30573d6000803e3d6000fd5b505050506040513d6020811015611c4657600080fd5b8101908080519060200190929190505050611cad90919063ffffffff16565b85611cda90919063ffffffff16565b9350508080600101915050611a44565b505090565b60008054906101000a900473ffffffffffffffffffffffffffffffffffffffff1681565b6000601260ff16600a0a611cca8385611d6290919063ffffffff16565b81611cd157fe5b04905092915050565b600080828401905083811015611d58576040517f08c379a000000000000000000000000000000000000000000000000000000000815260040180806020018281038252601b8152602001807f536166654d6174683a206164646974696f6e206f766572666c6f77000000000081525060200191505060405180910390fd5b8091505092915050565b600080831415611d755760009050611de2565b6000828402905082848281611d8657fe5b0414611ddd576040517f08c379a0000000000000000000000000000000000000000000000000000000008152600401808060200182810382526021815260200180611de96021913960400191505060405180910390fd5b809150505b9291505056fe536166654d6174683a206d756c7469706c69636174696f6e206f766572666c6f774f6e6c792074686520636f6e74726163742061646d696e2063616e20706572666f726d207468697320616374696f6ea2646970667358221220ddaf7642e7bb24c765f134016a67f1918a153d5950548fe3791b8da0093f365164736f6c634300060c0033",
  "immutableReferences": {},
  "source": "// SPDX-License-Identifier: MIT\npragma solidity ^0.6.12;\n\nimport \"./LnAddressCache.sol\";\nimport \"./IAsset.sol\";\nimport \"./LnAsset.sol\";\nimport \"./LnPrices.sol\";\nimport \"@openzeppelin/contracts/math/SafeMath.sol\";\nimport \"./SafeDecimalMath.sol\";\n\ncontract LnAssetSystem is LnAddressStorage {\n    using SafeMath for uint;\n    using SafeDecimalMath for uint;\n\n    IAsset[] public mAssetList; // \n    mapping(address => bytes32) public mAddress2Names; // \n\n    constructor(address _admin ) public LnAddressStorage(_admin ) {}\n\n    function addAsset( IAsset asset ) external onlyAdmin {\n        bytes32 name = asset.keyName();\n\n        require(mAddrs[name] == address(0), \"Asset already exists\");\n        require(mAddress2Names[address(asset)] == bytes32(0), \"Asset address already exists\");\n\n        mAssetList.push(asset);\n        mAddrs[name] = address(asset);\n        mAddress2Names[address(asset)] = name;\n\n        emit AssetAdded(name, address(asset));\n    }\n\n    function removeAsset(bytes32 name) external onlyAdmin {\n        address assetToRemove = address(mAddrs[name]);\n\n        require( assetToRemove != address(0), \"asset does not exist\");\n\n        // Remove from list\n        for (uint i = 0; i < mAssetList.length; i++) {\n            if (address(mAssetList[i]) == assetToRemove) {\n                delete mAssetList[i];\n                mAssetList[i] = mAssetList[mAssetList.length - 1];\n                mAssetList.pop();\n                break;\n            }\n        }\n\n        // And remove it from the assets mapping\n        delete mAddress2Names[ assetToRemove ];\n        delete mAddrs[name];\n\n        emit AssetRemoved(name, assetToRemove);\n    }\n\n    function assetNumber() external view returns (uint) {\n        return mAssetList.length;\n    }\n\n    // check exchange rate invalid condition ? invalid just fail.\n    function totalAssetsInUsd() public view returns (uint256 rTotal) {\n        require(mAddrs[\"LnPrices\"] != address(0), \"LnPrices address cannot access\");\n        LnPrices priceGetter = LnPrices( mAddrs[\"LnPrices\"] ); //getAddress\n        for (uint256 i=0; i< mAssetList.length; i++) {\n            uint256 exchangeRate = priceGetter.getPrice(mAssetList[i].keyName());\n            rTotal = rTotal.add( LnAsset(address(mAssetList[i])).totalSupply().multiplyDecimal(exchangeRate) );\n        }\n    }\n\n    function getAssetAddresses() external view returns(address[] memory) {\n        address[] memory addr = new address[](mAssetList.length);\n        for (uint256 i=0; i<mAssetList.length; i++) {\n            addr[i] = address(mAssetList[i]);\n        }\n        return addr;\n    }\n\n    event AssetAdded(bytes32 name, address asset);\n    event AssetRemoved(bytes32 name, address asset);\n}\n\n",
  "sourcePath": "/Users/michael/Linear-finance/Linear/contracts/LnAssetSystem.sol",
  "compiler": {
    "name": "solc",
    "version": "0.6.12+commit.27d51765.Emscripten.clang"
  },
  "schemaVersion": "3.3.2",
  "updatedAt": "2020-11-12T14:47:16.181Z",
  "devdoc": {
    "kind": "dev",
    "methods": {},
    "version": 1
  },
  "userdoc": {
    "kind": "user",
    "methods": {},
    "version": 1
  }
}