{
  "contractName": "LnBuildBurnSystem",
  "abi": [
    {
      "inputs": [
        {
          "internalType": "address",
          "name": "admin",
          "type": "address"
        },
        {
          "internalType": "address",
          "name": "_lUSDTokenAddr",
          "type": "address"
        }
      ],
      "stateMutability": "nonpayable",
      "type": "constructor"
    },
    {
      "anonymous": false,
      "inputs": [
        {
          "indexed": false,
          "internalType": "address",
          "name": "oldAdmin",
          "type": "address"
        },
        {
          "indexed": false,
          "internalType": "address",
          "name": "newAdmin",
          "type": "address"
        }
      ],
      "name": "AdminChanged",
      "type": "event"
    },
    {
      "anonymous": false,
      "inputs": [
        {
          "indexed": false,
          "internalType": "address",
          "name": "account",
          "type": "address"
        }
      ],
      "name": "Paused",
      "type": "event"
    },
    {
      "anonymous": false,
      "inputs": [
        {
          "indexed": false,
          "internalType": "address",
          "name": "account",
          "type": "address"
        }
      ],
      "name": "Unpaused",
      "type": "event"
    },
    {
      "anonymous": false,
      "inputs": [
        {
          "indexed": false,
          "internalType": "address",
          "name": "oldAddr",
          "type": "address"
        },
        {
          "indexed": false,
          "internalType": "address",
          "name": "newAddr",
          "type": "address"
        }
      ],
      "name": "UpdateLusdToken",
      "type": "event"
    },
    {
      "anonymous": false,
      "inputs": [
        {
          "indexed": false,
          "internalType": "address",
          "name": "oldCandidate",
          "type": "address"
        },
        {
          "indexed": false,
          "internalType": "address",
          "name": "newCandidate",
          "type": "address"
        }
      ],
      "name": "candidateChanged",
      "type": "event"
    },
    {
      "anonymous": false,
      "inputs": [
        {
          "indexed": false,
          "internalType": "bytes32",
          "name": "name",
          "type": "bytes32"
        },
        {
          "indexed": false,
          "internalType": "address",
          "name": "addr",
          "type": "address"
        }
      ],
      "name": "updateCachedAddress",
      "type": "event"
    },
    {
      "inputs": [],
      "name": "admin",
      "outputs": [
        {
          "internalType": "address",
          "name": "",
          "type": "address"
        }
      ],
      "stateMutability": "view",
      "type": "function",
      "constant": true
    },
    {
      "inputs": [],
      "name": "becomeAdmin",
      "outputs": [],
      "stateMutability": "nonpayable",
      "type": "function"
    },
    {
      "inputs": [],
      "name": "candidate",
      "outputs": [
        {
          "internalType": "address",
          "name": "",
          "type": "address"
        }
      ],
      "stateMutability": "view",
      "type": "function",
      "constant": true
    },
    {
      "inputs": [],
      "name": "paused",
      "outputs": [
        {
          "internalType": "bool",
          "name": "",
          "type": "bool"
        }
      ],
      "stateMutability": "view",
      "type": "function",
      "constant": true
    },
    {
      "inputs": [
        {
          "internalType": "address",
          "name": "_candidate",
          "type": "address"
        }
      ],
      "name": "setCandidate",
      "outputs": [],
      "stateMutability": "nonpayable",
      "type": "function"
    },
    {
      "inputs": [
        {
          "internalType": "bool",
          "name": "_paused",
          "type": "bool"
        }
      ],
      "name": "setPaused",
      "outputs": [],
      "stateMutability": "nonpayable",
      "type": "function"
    },
    {
      "inputs": [
        {
          "internalType": "contract LnAddressStorage",
          "name": "_addressStorage",
          "type": "address"
        }
      ],
      "name": "updateAddressCache",
      "outputs": [],
      "stateMutability": "nonpayable",
      "type": "function"
    },
    {
      "inputs": [
        {
          "internalType": "address",
          "name": "_address",
          "type": "address"
        }
      ],
      "name": "SetLusdTokenAddress",
      "outputs": [],
      "stateMutability": "nonpayable",
      "type": "function"
    },
    {
      "inputs": [
        {
          "internalType": "address",
          "name": "user",
          "type": "address"
        }
      ],
      "name": "MaxCanBuildAsset",
      "outputs": [
        {
          "internalType": "uint256",
          "name": "",
          "type": "uint256"
        }
      ],
      "stateMutability": "view",
      "type": "function",
      "constant": true
    },
    {
      "inputs": [
        {
          "internalType": "uint256",
          "name": "amount",
          "type": "uint256"
        }
      ],
      "name": "BuildAsset",
      "outputs": [
        {
          "internalType": "bool",
          "name": "",
          "type": "bool"
        }
      ],
      "stateMutability": "nonpayable",
      "type": "function"
    },
    {
      "inputs": [],
      "name": "BuildMaxAsset",
      "outputs": [],
      "stateMutability": "nonpayable",
      "type": "function"
    },
    {
      "inputs": [
        {
          "internalType": "uint256",
          "name": "amount",
          "type": "uint256"
        }
      ],
      "name": "BurnAsset",
      "outputs": [
        {
          "internalType": "bool",
          "name": "",
          "type": "bool"
        }
      ],
      "stateMutability": "nonpayable",
      "type": "function"
    },
    {
      "inputs": [],
      "name": "BurnAssetToTarget",
      "outputs": [
        {
          "internalType": "bool",
          "name": "",
          "type": "bool"
        }
      ],
      "stateMutability": "nonpayable",
      "type": "function"
    }
  ],
  "bytecode": "0x608060405234801561001057600080fd5b50604051612ef3380380612ef38339818101604052604081101561003357600080fd5b81019080805190602001909291908051906020019092919050505081600073ffffffffffffffffffffffffffffffffffffffff168173ffffffffffffffffffffffffffffffffffffffff1614156100f2576040517f08c379a00000000000000000000000000000000000000000000000000000000081526004018080602001828103825260198152602001807f61646d696e20616464726573732063616e6e6f7420626520300000000000000081525060200191505060405180910390fd5b806000806101000a81548173ffffffffffffffffffffffffffffffffffffffff021916908373ffffffffffffffffffffffffffffffffffffffff1602179055507f7e644d79422f17c01e4894b5f4f588d331ebfa28653d42ae832dc59e38c9798f600082604051808373ffffffffffffffffffffffffffffffffffffffff1681526020018273ffffffffffffffffffffffffffffffffffffffff1681526020019250505060405180910390a1506000600160146101000a81548160ff02191690831515021790555080600260006101000a81548173ffffffffffffffffffffffffffffffffffffffff021916908373ffffffffffffffffffffffffffffffffffffffff1602179055505050612ce78061020c6000396000f3fe608060405234801561001057600080fd5b50600436106100ce5760003560e01c80636c8381f81161008c578063c4d14e5611610066578063c4d14e561461027b578063f06f6bbd146102d3578063f22f9a44146102f3578063f851a44014610337576100ce565b80636c8381f8146101f9578063a42a06d31461022d578063b390bb5614610237576100ce565b806252e0b8146100d357806307880b7f1461011757806316c38b3c1461015b57806325971dff1461018b5780635a5f14c8146101955780635c975abb146101d9575b600080fd5b610115600480360360208110156100e957600080fd5b81019080803573ffffffffffffffffffffffffffffffffffffffff16906020019092919050505061036b565b005b6101596004803603602081101561012d57600080fd5b81019080803573ffffffffffffffffffffffffffffffffffffffff1690602001909291905050506104e0565b005b6101896004803603602081101561017157600080fd5b8101908080351515906020019092919050505061067d565b005b610193610740565b005b6101d7600480360360208110156101ab57600080fd5b81019080803573ffffffffffffffffffffffffffffffffffffffff169060200190929190505050610919565b005b6101e1611255565b60405180821515815260200191505060405180910390f35b61020161126c565b604051808273ffffffffffffffffffffffffffffffffffffffff16815260200191505060405180910390f35b610235611292565b005b6102636004803603602081101561024d57600080fd5b8101908080359060200190929190505050611335565b60405180821515815260200191505060405180910390f35b6102bd6004803603602081101561029157600080fd5b81019080803573ffffffffffffffffffffffffffffffffffffffff169060200190929190505050611983565b6040518082815260200191505060405180910390f35b6102db611c4c565b60405180821515815260200191505060405180910390f35b61031f6004803603602081101561030957600080fd5b8101908080359060200190929190505050612153565b60405180821515815260200191505060405180910390f35b61033f6121f1565b604051808273ffffffffffffffffffffffffffffffffffffffff16815260200191505060405180910390f35b60008054906101000a900473ffffffffffffffffffffffffffffffffffffffff1673ffffffffffffffffffffffffffffffffffffffff163373ffffffffffffffffffffffffffffffffffffffff161461040f576040517f08c379a000000000000000000000000000000000000000000000000000000000815260040180806020018281038252602f815260200180612c83602f913960400191505060405180910390fd5b7f1d874926a78c182b4824609bc4068a5db0de62896be4a392d42938c1a3100999600260009054906101000a900473ffffffffffffffffffffffffffffffffffffffff1682604051808373ffffffffffffffffffffffffffffffffffffffff1681526020018273ffffffffffffffffffffffffffffffffffffffff1681526020019250505060405180910390a180600260006101000a81548173ffffffffffffffffffffffffffffffffffffffff021916908373ffffffffffffffffffffffffffffffffffffffff16021790555050565b60008054906101000a900473ffffffffffffffffffffffffffffffffffffffff1673ffffffffffffffffffffffffffffffffffffffff163373ffffffffffffffffffffffffffffffffffffffff1614610584576040517f08c379a000000000000000000000000000000000000000000000000000000000815260040180806020018281038252602f815260200180612c83602f913960400191505060405180910390fd5b6000600160009054906101000a900473ffffffffffffffffffffffffffffffffffffffff16905081600160006101000a81548173ffffffffffffffffffffffffffffffffffffffff021916908373ffffffffffffffffffffffffffffffffffffffff1602179055507f0faed18be9e8f4d4c05dfbcc80ea2c97a0be729614d766827778f60890c02cab81600160009054906101000a900473ffffffffffffffffffffffffffffffffffffffff16604051808373ffffffffffffffffffffffffffffffffffffffff1681526020018273ffffffffffffffffffffffffffffffffffffffff1681526020019250505060405180910390a15050565b60008054906101000a900473ffffffffffffffffffffffffffffffffffffffff1673ffffffffffffffffffffffffffffffffffffffff163373ffffffffffffffffffffffffffffffffffffffff1614610721576040517f08c379a000000000000000000000000000000000000000000000000000000000815260040180806020018281038252602f815260200180612c83602f913960400191505060405180910390fd5b80156107345761072f612215565b61073d565b61073c612308565b5b50565b600160009054906101000a900473ffffffffffffffffffffffffffffffffffffffff1673ffffffffffffffffffffffffffffffffffffffff163373ffffffffffffffffffffffffffffffffffffffff1614610803576040517f08c379a000000000000000000000000000000000000000000000000000000000815260040180806020018281038252601f8152602001807f4f6e6c792063616e6469646174652063616e206265636f6d652061646d696e0081525060200191505060405180910390fd5b60008060009054906101000a900473ffffffffffffffffffffffffffffffffffffffff169050600160009054906101000a900473ffffffffffffffffffffffffffffffffffffffff166000806101000a81548173ffffffffffffffffffffffffffffffffffffffff021916908373ffffffffffffffffffffffffffffffffffffffff1602179055507f7e644d79422f17c01e4894b5f4f588d331ebfa28653d42ae832dc59e38c9798f8160008054906101000a900473ffffffffffffffffffffffffffffffffffffffff16604051808373ffffffffffffffffffffffffffffffffffffffff1681526020018273ffffffffffffffffffffffffffffffffffffffff1681526020019250505060405180910390a150565b60008054906101000a900473ffffffffffffffffffffffffffffffffffffffff1673ffffffffffffffffffffffffffffffffffffffff163373ffffffffffffffffffffffffffffffffffffffff16146109bd576040517f08c379a000000000000000000000000000000000000000000000000000000000815260040180806020018281038252602f815260200180612c83602f913960400191505060405180910390fd5b8073ffffffffffffffffffffffffffffffffffffffff1663768911da6040518163ffffffff1660e01b815260040180807f4c6e507269636573000000000000000000000000000000000000000000000000815250602001806020018281038252601a8152602001807f4c6e5072696365732061646472657373206e6f742076616c696400000000000081525060200191505060206040518083038186803b158015610a6757600080fd5b505afa158015610a7b573d6000803e3d6000fd5b505050506040513d6020811015610a9157600080fd5b8101908080519060200190929190505050600560006101000a81548173ffffffffffffffffffffffffffffffffffffffff021916908373ffffffffffffffffffffffffffffffffffffffff1602179055508073ffffffffffffffffffffffffffffffffffffffff1663768911da6040518163ffffffff1660e01b815260040180807f4c6e4465627453797374656d0000000000000000000000000000000000000000815250602001806020018281038252601e8152602001807f4c6e4465627453797374656d2061646472657373206e6f742076616c6964000081525060200191505060206040518083038186803b158015610b8c57600080fd5b505afa158015610ba0573d6000803e3d6000fd5b505050506040513d6020811015610bb657600080fd5b8101908080519060200190929190505050600360006101000a81548173ffffffffffffffffffffffffffffffffffffffff021916908373ffffffffffffffffffffffffffffffffffffffff1602179055508073ffffffffffffffffffffffffffffffffffffffff1663768911da6040518163ffffffff1660e01b815260040180807f4c6e417373657453797374656d00000000000000000000000000000000000000815250602001806020018281038252601f8152602001807f4c6e417373657453797374656d2061646472657373206e6f742076616c69640081525060200191505060206040518083038186803b158015610cb157600080fd5b505afa158015610cc5573d6000803e3d6000fd5b505050506040513d6020811015610cdb57600080fd5b8101908080519060200190929190505050600460006101000a81548173ffffffffffffffffffffffffffffffffffffffff021916908373ffffffffffffffffffffffffffffffffffffffff16021790555060008173ffffffffffffffffffffffffffffffffffffffff1663768911da6040518163ffffffff1660e01b815260040180807f4c6e436f6c6c61746572616c53797374656d00000000000000000000000000008152506020018060200182810382526024815260200180612c106024913960400191505060206040518083038186803b158015610dbb57600080fd5b505afa158015610dcf573d6000803e3d6000fd5b505050506040513d6020811015610de557600080fd5b8101908080519060200190929190505050905080600660006101000a81548173ffffffffffffffffffffffffffffffffffffffff021916908373ffffffffffffffffffffffffffffffffffffffff1602179055508173ffffffffffffffffffffffffffffffffffffffff1663768911da6040518163ffffffff1660e01b815260040180807f4c6e436f6e666967000000000000000000000000000000000000000000000000815250602001806020018281038252601a8152602001807f4c6e436f6e6669672061646472657373206e6f742076616c696400000000000081525060200191505060206040518083038186803b158015610ee357600080fd5b505afa158015610ef7573d6000803e3d6000fd5b505050506040513d6020811015610f0d57600080fd5b8101908080519060200190929190505050600760006101000a81548173ffffffffffffffffffffffffffffffffffffffff021916908373ffffffffffffffffffffffffffffffffffffffff1602179055507f45a7f8d84f7ad724869d024abcaa743ae6aec455a969df76b5d1e9c5cac4d2ae600560009054906101000a900473ffffffffffffffffffffffffffffffffffffffff1660405180807f4c6e5072696365730000000000000000000000000000000000000000000000008152506020018273ffffffffffffffffffffffffffffffffffffffff16815260200191505060405180910390a17f45a7f8d84f7ad724869d024abcaa743ae6aec455a969df76b5d1e9c5cac4d2ae600360009054906101000a900473ffffffffffffffffffffffffffffffffffffffff1660405180807f4c6e4465627453797374656d00000000000000000000000000000000000000008152506020018273ffffffffffffffffffffffffffffffffffffffff16815260200191505060405180910390a17f45a7f8d84f7ad724869d024abcaa743ae6aec455a969df76b5d1e9c5cac4d2ae600460009054906101000a900473ffffffffffffffffffffffffffffffffffffffff1660405180807f4c6e417373657453797374656d000000000000000000000000000000000000008152506020018273ffffffffffffffffffffffffffffffffffffffff16815260200191505060405180910390a17f45a7f8d84f7ad724869d024abcaa743ae6aec455a969df76b5d1e9c5cac4d2ae600660009054906101000a900473ffffffffffffffffffffffffffffffffffffffff1660405180807f4c6e436f6c6c61746572616c53797374656d00000000000000000000000000008152506020018273ffffffffffffffffffffffffffffffffffffffff16815260200191505060405180910390a17f45a7f8d84f7ad724869d024abcaa743ae6aec455a969df76b5d1e9c5cac4d2ae600760009054906101000a900473ffffffffffffffffffffffffffffffffffffffff1660405180807f4c6e436f6e6669670000000000000000000000000000000000000000000000008152506020018273ffffffffffffffffffffffffffffffffffffffff16815260200191505060405180910390a15050565b6000600160149054906101000a900460ff16905090565b600160009054906101000a900473ffffffffffffffffffffffffffffffffffffffff1681565b600160149054906101000a900460ff1615611315576040517f08c379a00000000000000000000000000000000000000000000000000000000081526004018080602001828103825260108152602001807f5061757361626c653a207061757365640000000000000000000000000000000081525060200191505060405180910390fd5b6000339050600061132582611983565b905061133081611335565b505050565b6000600160149054906101000a900460ff16156113ba576040517f08c379a00000000000000000000000000000000000000000000000000000000081526004018080602001828103825260108152602001807f5061757361626c653a207061757365640000000000000000000000000000000081525060200191505060405180910390fd5b60003390506000600760009054906101000a900473ffffffffffffffffffffffffffffffffffffffff1673ffffffffffffffffffffffffffffffffffffffff1663bd02d0f5600760009054906101000a900473ffffffffffffffffffffffffffffffffffffffff1673ffffffffffffffffffffffffffffffffffffffff16634d6daf046040518163ffffffff1660e01b815260040160206040518083038186803b15801561146757600080fd5b505afa15801561147b573d6000803e3d6000fd5b505050506040513d602081101561149157600080fd5b81019080805190602001909291905050506040518263ffffffff1660e01b81526004018082815260200191505060206040518083038186803b1580156114d657600080fd5b505afa1580156114ea573d6000803e3d6000fd5b505050506040513d602081101561150057600080fd5b8101908080519060200190929190505050905060006115eb82600660009054906101000a900473ffffffffffffffffffffffffffffffffffffffff1673ffffffffffffffffffffffffffffffffffffffff1663f563feec866040518263ffffffff1660e01b8152600401808273ffffffffffffffffffffffffffffffffffffffff16815260200191505060206040518083038186803b1580156115a257600080fd5b505afa1580156115b6573d6000803e3d6000fd5b505050506040513d60208110156115cc57600080fd5b81019080805190602001909291905050506123fb90919063ffffffff16565b905080851115611646576040517f08c379a000000000000000000000000000000000000000000000000000000000815260040180806020018281038252602e815260200180612c55602e913960400191505060405180910390fd5b600080600360009054906101000a900473ffffffffffffffffffffffffffffffffffffffff1673ffffffffffffffffffffffffffffffffffffffff16631882d090866040518263ffffffff1660e01b8152600401808273ffffffffffffffffffffffffffffffffffffffff168152602001915050604080518083038186803b1580156116d157600080fd5b505afa1580156116e5573d6000803e3d6000fd5b505050506040513d60408110156116fb57600080fd5b81019080805190602001909291908051906020019092919050505091509150600061172f888361242890919063ffffffff16565b90506000611746828a6124b090919063ffffffff16565b905060006117db8273__SafeDecimalMath_______________________63d5e5e6e66040518163ffffffff1660e01b815260040160206040518083038186803b15801561179257600080fd5b505af41580156117a6573d6000803e3d6000fd5b505050506040513d60208110156117bc57600080fd5b81019080805190602001909291905050506124cc90919063ffffffff16565b90506000829050600086111561181357611810846118028d8961242890919063ffffffff16565b6124b090919063ffffffff16565b90505b600360009054906101000a900473ffffffffffffffffffffffffffffffffffffffff1673ffffffffffffffffffffffffffffffffffffffff1663028667d38a83856040518463ffffffff1660e01b8152600401808473ffffffffffffffffffffffffffffffffffffffff1681526020018381526020018281526020019350505050600060405180830381600087803b1580156118ae57600080fd5b505af11580156118c2573d6000803e3d6000fd5b50505050600260009054906101000a900473ffffffffffffffffffffffffffffffffffffffff1673ffffffffffffffffffffffffffffffffffffffff166340c10f198a8d6040518363ffffffff1660e01b8152600401808373ffffffffffffffffffffffffffffffffffffffff16815260200182815260200192505050600060405180830381600087803b15801561195957600080fd5b505af115801561196d573d6000803e3d6000fd5b5050505060019950505050505050505050919050565b600080600760009054906101000a900473ffffffffffffffffffffffffffffffffffffffff1673ffffffffffffffffffffffffffffffffffffffff1663bd02d0f5600760009054906101000a900473ffffffffffffffffffffffffffffffffffffffff1673ffffffffffffffffffffffffffffffffffffffff16634d6daf046040518163ffffffff1660e01b815260040160206040518083038186803b158015611a2c57600080fd5b505afa158015611a40573d6000803e3d6000fd5b505050506040513d6020811015611a5657600080fd5b81019080805190602001909291905050506040518263ffffffff1660e01b81526004018082815260200191505060206040518083038186803b158015611a9b57600080fd5b505afa158015611aaf573d6000803e3d6000fd5b505050506040513d6020811015611ac557600080fd5b810190808051906020019092919050505090506000611c4073__SafeDecimalMath_______________________63907af6c06040518163ffffffff1660e01b815260040160206040518083038186803b158015611b2157600080fd5b505af4158015611b35573d6000803e3d6000fd5b505050506040513d6020811015611b4b57600080fd5b8101908080519060200190929190505050611c3284600660009054906101000a900473ffffffffffffffffffffffffffffffffffffffff1673ffffffffffffffffffffffffffffffffffffffff1663f563feec896040518263ffffffff1660e01b8152600401808273ffffffffffffffffffffffffffffffffffffffff16815260200191505060206040518083038186803b158015611be957600080fd5b505afa158015611bfd573d6000803e3d6000fd5b505050506040513d6020811015611c1357600080fd5b810190808051906020019092919050505061251690919063ffffffff16565b61259c90919063ffffffff16565b90508092505050919050565b6000600160149054906101000a900460ff1615611cd1576040517f08c379a00000000000000000000000000000000000000000000000000000000081526004018080602001828103825260108152602001807f5061757361626c653a207061757365640000000000000000000000000000000081525060200191505060405180910390fd5b60003390506000600760009054906101000a900473ffffffffffffffffffffffffffffffffffffffff1673ffffffffffffffffffffffffffffffffffffffff1663bd02d0f5600760009054906101000a900473ffffffffffffffffffffffffffffffffffffffff1673ffffffffffffffffffffffffffffffffffffffff16634d6daf046040518163ffffffff1660e01b815260040160206040518083038186803b158015611d7e57600080fd5b505afa158015611d92573d6000803e3d6000fd5b505050506040513d6020811015611da857600080fd5b81019080805190602001909291905050506040518263ffffffff1660e01b81526004018082815260200191505060206040518083038186803b158015611ded57600080fd5b505afa158015611e01573d6000803e3d6000fd5b505050506040513d6020811015611e1757600080fd5b810190808051906020019092919050505090506000600660009054906101000a900473ffffffffffffffffffffffffffffffffffffffff1673ffffffffffffffffffffffffffffffffffffffff166351260791846040518263ffffffff1660e01b8152600401808273ffffffffffffffffffffffffffffffffffffffff16815260200191505060206040518083038186803b158015611eb557600080fd5b505afa158015611ec9573d6000803e3d6000fd5b505050506040513d6020811015611edf57600080fd5b810190808051906020019092919050505090506000611f0783836123fb90919063ffffffff16565b90506000600360009054906101000a900473ffffffffffffffffffffffffffffffffffffffff1673ffffffffffffffffffffffffffffffffffffffff16631882d090866040518263ffffffff1660e01b8152600401808273ffffffffffffffffffffffffffffffffffffffff168152602001915050604080518083038186803b158015611f9357600080fd5b505afa158015611fa7573d6000803e3d6000fd5b505050506040513d6040811015611fbd57600080fd5b810190808051906020019092919080519060200190929190505050509050818111612050576040517f08c379a000000000000000000000000000000000000000000000000000000000815260040180806020018281038252601e8152602001807f596f75206d617962652077616e74206275696c6420746f20746172676574000081525060200191505060405180910390fd5b600061206583836124cc90919063ffffffff16565b90506000600260009054906101000a900473ffffffffffffffffffffffffffffffffffffffff1673ffffffffffffffffffffffffffffffffffffffff166370a08231886040518263ffffffff1660e01b8152600401808273ffffffffffffffffffffffffffffffffffffffff16815260200191505060206040518083038186803b1580156120f257600080fd5b505afa158015612106573d6000803e3d6000fd5b505050506040513d602081101561211c57600080fd5b810190808051906020019092919050505090508181101561213b578091505b61214587836125e6565b600197505050505050505090565b6000600160149054906101000a900460ff16156121d8576040517f08c379a00000000000000000000000000000000000000000000000000000000081526004018080602001828103825260108152602001807f5061757361626c653a207061757365640000000000000000000000000000000081525060200191505060405180910390fd5b60003390506121e781846125e6565b6001915050919050565b60008054906101000a900473ffffffffffffffffffffffffffffffffffffffff1681565b600160149054906101000a900460ff1615612298576040517f08c379a00000000000000000000000000000000000000000000000000000000081526004018080602001828103825260108152602001807f5061757361626c653a207061757365640000000000000000000000000000000081525060200191505060405180910390fd5b60018060146101000a81548160ff0219169083151502179055507f62e78cea01bee320cd4e420270b5ea74000d11b0c9f74754ebdbfc544b05a2586122db612a26565b604051808273ffffffffffffffffffffffffffffffffffffffff16815260200191505060405180910390a1565b600160149054906101000a900460ff1661238a576040517f08c379a00000000000000000000000000000000000000000000000000000000081526004018080602001828103825260148152602001807f5061757361626c653a206e6f742070617573656400000000000000000000000081525060200191505060405180910390fd5b6000600160146101000a81548160ff0219169083151502179055507f5db9ee0a495bf2e6ff9c91a7834c1ba4fdd244a5e8aa4e537bd38aeae4b073aa6123ce612a26565b604051808273ffffffffffffffffffffffffffffffffffffffff16815260200191505060405180910390a1565b6000601260ff16600a0a612418838561251690919063ffffffff16565b8161241f57fe5b04905092915050565b6000808284019050838110156124a6576040517f08c379a000000000000000000000000000000000000000000000000000000000815260040180806020018281038252601b8152602001807f536166654d6174683a206164646974696f6e206f766572666c6f77000000000081525060200191505060405180910390fd5b8091505092915050565b60006124c48383601b60ff16600a0a612a2e565b905092915050565b600061250e83836040518060400160405280601e81526020017f536166654d6174683a207375627472616374696f6e206f766572666c6f770000815250612a89565b905092915050565b6000808314156125295760009050612596565b600082840290508284828161253a57fe5b0414612591576040517f08c379a0000000000000000000000000000000000000000000000000000000008152600401808060200182810382526021815260200180612c346021913960400191505060405180910390fd5b809150505b92915050565b60006125de83836040518060400160405280601a81526020017f536166654d6174683a206469766973696f6e206279207a65726f000000000000815250612b49565b905092915050565b6000811161265c576040517f08c379a000000000000000000000000000000000000000000000000000000000815260040180806020018281038252600f8152602001807f616d6f756e74206e656564203e2030000000000000000000000000000000000081525060200191505060405180910390fd5b600080600360009054906101000a900473ffffffffffffffffffffffffffffffffffffffff1673ffffffffffffffffffffffffffffffffffffffff16631882d090856040518263ffffffff1660e01b8152600401808273ffffffffffffffffffffffffffffffffffffffff168152602001915050604080518083038186803b1580156126e757600080fd5b505afa1580156126fb573d6000803e3d6000fd5b505050506040513d604081101561271157600080fd5b81019080805190602001909291908051906020019092919050505091509150600082116127a6576040517f08c379a00000000000000000000000000000000000000000000000000000000081526004018080602001828103825260108152602001807f6e6f20646562742c206e6f206275726e0000000000000000000000000000000081525060200191505060405180910390fd5b60008383106127b557836127b7565b825b9050600260009054906101000a900473ffffffffffffffffffffffffffffffffffffffff1673ffffffffffffffffffffffffffffffffffffffff16639dc29fac86836040518363ffffffff1660e01b8152600401808373ffffffffffffffffffffffffffffffffffffffff16815260200182815260200192505050600060405180830381600087803b15801561284c57600080fd5b505af1158015612860573d6000803e3d6000fd5b50505050600061287982846124cc90919063ffffffff16565b905060008082111561293157600061289a83856124b090919063ffffffff16565b905061292d8173__SafeDecimalMath_______________________63d5e5e6e66040518163ffffffff1660e01b815260040160206040518083038186803b1580156128e457600080fd5b505af41580156128f8573d6000803e3d6000fd5b505050506040513d602081101561290e57600080fd5b810190808051906020019092919050505061242890919063ffffffff16565b9150505b60008386111561296957600061295085886124cc90919063ffffffff16565b905061296584826124b090919063ffffffff16565b9150505b600360009054906101000a900473ffffffffffffffffffffffffffffffffffffffff1673ffffffffffffffffffffffffffffffffffffffff1663028667d38983856040518463ffffffff1660e01b8152600401808473ffffffffffffffffffffffffffffffffffffffff1681526020018381526020018281526020019350505050600060405180830381600087803b158015612a0457600080fd5b505af1158015612a18573d6000803e3d6000fd5b505050505050505050505050565b600033905090565b600080612a5984612a4b600a86028861251690919063ffffffff16565b61259c90919063ffffffff16565b90506005600a8281612a6757fe5b0610612a7457600a810190505b600a8181612a7e57fe5b049150509392505050565b6000838311158290612b36576040517f08c379a00000000000000000000000000000000000000000000000000000000081526004018080602001828103825283818151815260200191508051906020019080838360005b83811015612afb578082015181840152602081019050612ae0565b50505050905090810190601f168015612b285780820380516001836020036101000a031916815260200191505b509250505060405180910390fd5b5060008385039050809150509392505050565b60008083118290612bf5576040517f08c379a00000000000000000000000000000000000000000000000000000000081526004018080602001828103825283818151815260200191508051906020019080838360005b83811015612bba578082015181840152602081019050612b9f565b50505050905090810190601f168015612be75780820380516001836020036101000a031916815260200191505b509250505060405180910390fd5b506000838581612c0157fe5b04905080915050939250505056fe4c6e436f6c6c61746572616c53797374656d2061646472657373206e6f742076616c6964536166654d6174683a206d756c7469706c69636174696f6e206f766572666c6f774275696c6420616d6f756e7420746f6f206269672c20796f75206e656564206d6f726520636f6c6c61746572616c4f6e6c792074686520636f6e74726163742061646d696e2063616e20706572666f726d207468697320616374696f6ea2646970667358221220bdac519c978a828800ea90fec09cd50cb4be6fed65fdbf8c6aef9883b4b7d3e664736f6c634300060c0033",
  "immutableReferences": {},
  "source": "// SPDX-License-Identifier: MIT\npragma solidity ^0.6.12;\n\nimport \"./IERC20.sol\";\nimport \"./LnAdmin.sol\";\nimport \"@openzeppelin/contracts/math/SafeMath.sol\";\nimport \"@openzeppelin/contracts/utils/Pausable.sol\";\nimport \"@openzeppelin/contracts/utils/Address.sol\";\nimport \"./SafeDecimalMath.sol\";\nimport \"./LnPrices.sol\";\nimport \"./LnAddressCache.sol\";\nimport \"./LnAsset.sol\";\nimport \"./LnAssetSystem.sol\";\nimport \"./LnDebtSystem.sol\";\nimport \"./LnCollateralSystem.sol\";\nimport \"./LnConfig.sol\";\n\n//  LnCollateralSystem buildable lusd\ncontract LnBuildBurnSystem is LnAdmin, Pausable, LnAddressCache {\n    using SafeMath for uint;\n    using SafeDecimalMath for uint;\n    using Address for address;\n\n    // -------------------------------------------------------\n    // need set before system running value.\n    LnAsset private lUSDToken; // this contract need \n\n    LnDebtSystem private debtSystem;\n    LnAssetSystem private assetSys;\n    LnPrices private priceGetter;\n    LnCollateralSystem private collaterSys;\n    LnConfig private mConfig;\n    // -------------------------------------------------------\n    constructor(address admin, address _lUSDTokenAddr) public LnAdmin(admin) {\n        lUSDToken = LnAsset(_lUSDTokenAddr);\n    }\n\n    function setPaused(bool _paused) external onlyAdmin {\n        if (_paused) {\n            _pause();\n        } else {\n            _unpause();\n        }\n    }\n\n    function updateAddressCache( LnAddressStorage _addressStorage ) onlyAdmin public override\n    {\n        priceGetter =    LnPrices( _addressStorage.getAddressWithRequire( \"LnPrices\",     \"LnPrices address not valid\" ) );\n        debtSystem = LnDebtSystem( _addressStorage.getAddressWithRequire( \"LnDebtSystem\", \"LnDebtSystem address not valid\" ) );\n        assetSys =  LnAssetSystem( _addressStorage.getAddressWithRequire( \"LnAssetSystem\",\"LnAssetSystem address not valid\" ) );\n        address payable collateralAddress = payable(_addressStorage.getAddressWithRequire( \"LnCollateralSystem\",\"LnCollateralSystem address not valid\" ));\n        collaterSys = LnCollateralSystem( collateralAddress );\n        mConfig =        LnConfig( _addressStorage.getAddressWithRequire( \"LnConfig\",     \"LnConfig address not valid\" ) );\n\n        emit updateCachedAddress( \"LnPrices\",           address(priceGetter) );\n        emit updateCachedAddress( \"LnDebtSystem\",       address(debtSystem) );\n        emit updateCachedAddress( \"LnAssetSystem\",      address(assetSys) );\n        emit updateCachedAddress( \"LnCollateralSystem\", address(collaterSys) );\n        emit updateCachedAddress( \"LnConfig\",           address(mConfig) );\n    }\n\n    function SetLusdTokenAddress(address _address) public onlyAdmin {\n        emit UpdateLusdToken(address(lUSDToken), _address);\n        lUSDToken = LnAsset(_address);\n    }\n\n    event UpdateLusdToken(address oldAddr, address newAddr);\n\n    function MaxCanBuildAsset(address user) public view returns(uint256) {\n        uint256 buildRatio = mConfig.getUint(mConfig.BUILD_RATIO());\n        uint256 maxCanBuild = collaterSys.MaxRedeemableInUsd(user).mul(buildRatio).div(SafeDecimalMath.unit());\n        return maxCanBuild;\n    }\n\n    // build lusd\n    function BuildAsset(uint256 amount) public whenNotPaused returns(bool) {\n        address user = msg.sender;\n        uint256 buildRatio = mConfig.getUint(mConfig.BUILD_RATIO());\n        uint256 maxCanBuild = collaterSys.MaxRedeemableInUsd(user).multiplyDecimal(buildRatio);\n        require(amount <= maxCanBuild, \"Build amount too big, you need more collateral\");\n\n        // calc debt\n        (uint256 oldUserDebtBalance, uint256 totalAssetSupplyInUsd) = debtSystem.GetUserDebtBalanceInUsd(user);\n\n        uint256 newTotalAssetSupply = totalAssetSupplyInUsd.add(amount);\n        // update debt data\n        uint256 buildDebtProportion = amount.divideDecimalRoundPrecise(newTotalAssetSupply);// debtPercentage\n        uint oldTotalProportion = SafeDecimalMath.preciseUnit().sub(buildDebtProportion);// \n\n        uint256 newUserDebtProportion = buildDebtProportion;\n        if (oldUserDebtBalance > 0) {\n            newUserDebtProportion = oldUserDebtBalance.add(amount).divideDecimalRoundPrecise(newTotalAssetSupply);\n        }\n\n        // update debt\n        debtSystem.UpdateDebt(user, newUserDebtProportion, oldTotalProportion);\n\n        // mint asset\n        lUSDToken.mint(user, amount);\n\n        return true;\n    }\n\n    function BuildMaxAsset() external whenNotPaused {\n        address user = msg.sender;\n        uint256 max = MaxCanBuildAsset(user);\n        BuildAsset(max);\n    }\n\n    function _burnAsset(address user, uint256 amount) internal {\n        //uint256 buildRatio = mConfig.getUint(mConfig.BUILD_RATIO());\n        require(amount > 0, \"amount need > 0\");\n        // calc debt\n        (uint256 oldUserDebtBalance, uint256 totalAssetSupplyInUsd) = debtSystem.GetUserDebtBalanceInUsd(user);\n        require(oldUserDebtBalance > 0, \"no debt, no burn\");\n        uint256 burnAmount = oldUserDebtBalance < amount ? oldUserDebtBalance : amount;\n        // burn asset\n        lUSDToken.burn(user, burnAmount);\n\n        uint newTotalDebtIssued = totalAssetSupplyInUsd.sub(burnAmount);\n\n        uint oldTotalProportion = 0;\n        if (newTotalDebtIssued > 0) {\n            uint debtPercentage = burnAmount.divideDecimalRoundPrecise(newTotalDebtIssued);\n            oldTotalProportion = SafeDecimalMath.preciseUnit().add(debtPercentage);\n        }\n\n        uint256 newUserDebtProportion = 0;\n        if (oldUserDebtBalance > burnAmount) {\n            uint newDebt = oldUserDebtBalance.sub(burnAmount);\n            newUserDebtProportion = newDebt.divideDecimalRoundPrecise(newTotalDebtIssued);\n        }\n\n        // update debt\n        debtSystem.UpdateDebt(user, newUserDebtProportion, oldTotalProportion);\n    }\n\n    // burn\n    function BurnAsset(uint256 amount) external whenNotPaused returns(bool) {\n        address user = msg.sender;\n        _burnAsset(user, amount);\n        return true;\n    }\n\n    //\n    // function MaxAssetToTarget(address user) external view returns(uint256) {\n    //     uint256 buildRatio = mConfig.getUint(mConfig.BUILD_RATIO());\n    //     uint256 totalCollateral = collaterSys.GetUserTotalCollateralInUsd(user);\n    // }\n\n    // burn to target ratio\n    function BurnAssetToTarget() external whenNotPaused returns(bool) {\n        address user = msg.sender;\n\n        uint256 buildRatio = mConfig.getUint(mConfig.BUILD_RATIO());\n        uint256 totalCollateral = collaterSys.GetUserTotalCollateralInUsd(user);\n        uint256 maxBuildAssetToTarget = totalCollateral.multiplyDecimal(buildRatio);\n        (uint256 debtAsset,) = debtSystem.GetUserDebtBalanceInUsd(user);\n        require(debtAsset > maxBuildAssetToTarget, \"You maybe want build to target\");\n\n        uint256 needBurn = debtAsset.sub(maxBuildAssetToTarget);\n        uint balance = lUSDToken.balanceOf(user); // burn as many as possible\n        if (balance < needBurn) {\n            needBurn = balance;\n        }\n        _burnAsset(user, needBurn);\n        return true;\n    }\n}\n",
  "sourcePath": "/Users/michael/Linear-finance/Linear/contracts/LnBuildBurnSystem.sol",
  "compiler": {
    "name": "solc",
    "version": "0.6.12+commit.27d51765.Emscripten.clang"
  },
  "schemaVersion": "3.3.1",
  "updatedAt": "2020-11-07T09:09:48.868Z",
  "networkType": "ethereum",
  "devdoc": {
    "kind": "dev",
    "methods": {
      "paused()": {
        "details": "Returns true if the contract is paused, and false otherwise."
      }
    },
    "version": 1
  },
  "userdoc": {
    "kind": "user",
    "methods": {},
    "version": 1
  }
}