{
  "contractName": "LnCollateralSystem",
  "abi": [
    {
      "inputs": [
        {
          "internalType": "address",
          "name": "admin",
          "type": "address"
        }
      ],
      "stateMutability": "nonpayable",
      "type": "constructor"
    },
    {
      "anonymous": false,
      "inputs": [
        {
          "indexed": false,
          "internalType": "address",
          "name": "oldAdmin",
          "type": "address"
        },
        {
          "indexed": false,
          "internalType": "address",
          "name": "newAdmin",
          "type": "address"
        }
      ],
      "name": "AdminChanged",
      "type": "event"
    },
    {
      "anonymous": false,
      "inputs": [
        {
          "indexed": false,
          "internalType": "address",
          "name": "user",
          "type": "address"
        },
        {
          "indexed": false,
          "internalType": "bytes32",
          "name": "_currency",
          "type": "bytes32"
        },
        {
          "indexed": false,
          "internalType": "uint256",
          "name": "_amount",
          "type": "uint256"
        },
        {
          "indexed": false,
          "internalType": "uint256",
          "name": "_userTotal",
          "type": "uint256"
        }
      ],
      "name": "CollateralLog",
      "type": "event"
    },
    {
      "anonymous": false,
      "inputs": [
        {
          "indexed": false,
          "internalType": "address",
          "name": "account",
          "type": "address"
        }
      ],
      "name": "Paused",
      "type": "event"
    },
    {
      "anonymous": false,
      "inputs": [
        {
          "indexed": false,
          "internalType": "address",
          "name": "user",
          "type": "address"
        },
        {
          "indexed": false,
          "internalType": "bytes32",
          "name": "_currency",
          "type": "bytes32"
        },
        {
          "indexed": false,
          "internalType": "uint256",
          "name": "_amount",
          "type": "uint256"
        },
        {
          "indexed": false,
          "internalType": "uint256",
          "name": "_userTotal",
          "type": "uint256"
        }
      ],
      "name": "RedeemCollateral",
      "type": "event"
    },
    {
      "anonymous": false,
      "inputs": [
        {
          "indexed": false,
          "internalType": "address",
          "name": "account",
          "type": "address"
        }
      ],
      "name": "Unpaused",
      "type": "event"
    },
    {
      "anonymous": false,
      "inputs": [
        {
          "indexed": false,
          "internalType": "bytes32",
          "name": "symbol",
          "type": "bytes32"
        },
        {
          "indexed": false,
          "internalType": "address",
          "name": "tokenAddr",
          "type": "address"
        },
        {
          "indexed": false,
          "internalType": "uint256",
          "name": "minCollateral",
          "type": "uint256"
        },
        {
          "indexed": false,
          "internalType": "bool",
          "name": "close",
          "type": "bool"
        }
      ],
      "name": "UpdateTokenSetting",
      "type": "event"
    },
    {
      "anonymous": false,
      "inputs": [
        {
          "indexed": false,
          "internalType": "address",
          "name": "oldCandidate",
          "type": "address"
        },
        {
          "indexed": false,
          "internalType": "address",
          "name": "newCandidate",
          "type": "address"
        }
      ],
      "name": "candidateChanged",
      "type": "event"
    },
    {
      "anonymous": false,
      "inputs": [
        {
          "indexed": false,
          "internalType": "bytes32",
          "name": "name",
          "type": "bytes32"
        },
        {
          "indexed": false,
          "internalType": "address",
          "name": "addr",
          "type": "address"
        }
      ],
      "name": "updateCachedAddress",
      "type": "event"
    },
    {
      "inputs": [],
      "name": "Currency_ETH",
      "outputs": [
        {
          "internalType": "bytes32",
          "name": "",
          "type": "bytes32"
        }
      ],
      "stateMutability": "view",
      "type": "function",
      "constant": true
    },
    {
      "inputs": [],
      "name": "Currency_LINA",
      "outputs": [
        {
          "internalType": "bytes32",
          "name": "",
          "type": "bytes32"
        }
      ],
      "stateMutability": "view",
      "type": "function",
      "constant": true
    },
    {
      "inputs": [],
      "name": "admin",
      "outputs": [
        {
          "internalType": "address",
          "name": "",
          "type": "address"
        }
      ],
      "stateMutability": "view",
      "type": "function",
      "constant": true
    },
    {
      "inputs": [],
      "name": "becomeAdmin",
      "outputs": [],
      "stateMutability": "nonpayable",
      "type": "function"
    },
    {
      "inputs": [],
      "name": "buildBurnSystem",
      "outputs": [
        {
          "internalType": "contract LnBuildBurnSystem",
          "name": "",
          "type": "address"
        }
      ],
      "stateMutability": "view",
      "type": "function",
      "constant": true
    },
    {
      "inputs": [],
      "name": "candidate",
      "outputs": [
        {
          "internalType": "address",
          "name": "",
          "type": "address"
        }
      ],
      "stateMutability": "view",
      "type": "function",
      "constant": true
    },
    {
      "inputs": [],
      "name": "debtSystem",
      "outputs": [
        {
          "internalType": "contract LnDebtSystem",
          "name": "",
          "type": "address"
        }
      ],
      "stateMutability": "view",
      "type": "function",
      "constant": true
    },
    {
      "inputs": [],
      "name": "mConfig",
      "outputs": [
        {
          "internalType": "contract LnConfig",
          "name": "",
          "type": "address"
        }
      ],
      "stateMutability": "view",
      "type": "function",
      "constant": true
    },
    {
      "inputs": [],
      "name": "mRewardLocker",
      "outputs": [
        {
          "internalType": "contract LnRewardLocker",
          "name": "",
          "type": "address"
        }
      ],
      "stateMutability": "view",
      "type": "function",
      "constant": true
    },
    {
      "inputs": [],
      "name": "paused",
      "outputs": [
        {
          "internalType": "bool",
          "name": "",
          "type": "bool"
        }
      ],
      "stateMutability": "view",
      "type": "function",
      "constant": true
    },
    {
      "inputs": [],
      "name": "priceGetter",
      "outputs": [
        {
          "internalType": "contract LnPrices",
          "name": "",
          "type": "address"
        }
      ],
      "stateMutability": "view",
      "type": "function",
      "constant": true
    },
    {
      "inputs": [
        {
          "internalType": "address",
          "name": "_candidate",
          "type": "address"
        }
      ],
      "name": "setCandidate",
      "outputs": [],
      "stateMutability": "nonpayable",
      "type": "function"
    },
    {
      "inputs": [
        {
          "internalType": "bytes32",
          "name": "",
          "type": "bytes32"
        }
      ],
      "name": "tokenInfos",
      "outputs": [
        {
          "internalType": "address",
          "name": "tokenAddr",
          "type": "address"
        },
        {
          "internalType": "uint256",
          "name": "minCollateral",
          "type": "uint256"
        },
        {
          "internalType": "uint256",
          "name": "totalCollateral",
          "type": "uint256"
        },
        {
          "internalType": "bool",
          "name": "bClose",
          "type": "bool"
        }
      ],
      "stateMutability": "view",
      "type": "function",
      "constant": true
    },
    {
      "inputs": [
        {
          "internalType": "uint256",
          "name": "",
          "type": "uint256"
        }
      ],
      "name": "tokenSymbol",
      "outputs": [
        {
          "internalType": "bytes32",
          "name": "",
          "type": "bytes32"
        }
      ],
      "stateMutability": "view",
      "type": "function",
      "constant": true
    },
    {
      "inputs": [],
      "name": "uniqueId",
      "outputs": [
        {
          "internalType": "uint256",
          "name": "",
          "type": "uint256"
        }
      ],
      "stateMutability": "view",
      "type": "function",
      "constant": true
    },
    {
      "inputs": [
        {
          "internalType": "address",
          "name": "",
          "type": "address"
        },
        {
          "internalType": "bytes32",
          "name": "",
          "type": "bytes32"
        }
      ],
      "name": "userCollateralData",
      "outputs": [
        {
          "internalType": "uint256",
          "name": "collateral",
          "type": "uint256"
        }
      ],
      "stateMutability": "view",
      "type": "function",
      "constant": true
    },
    {
      "stateMutability": "payable",
      "type": "receive",
      "payable": true
    },
    {
      "inputs": [
        {
          "internalType": "bool",
          "name": "_paused",
          "type": "bool"
        }
      ],
      "name": "setPaused",
      "outputs": [],
      "stateMutability": "nonpayable",
      "type": "function"
    },
    {
      "inputs": [
        {
          "internalType": "contract LnAddressStorage",
          "name": "_addressStorage",
          "type": "address"
        }
      ],
      "name": "updateAddressCache",
      "outputs": [],
      "stateMutability": "nonpayable",
      "type": "function"
    },
    {
      "inputs": [
        {
          "internalType": "bytes32",
          "name": "_currency",
          "type": "bytes32"
        },
        {
          "internalType": "address",
          "name": "_tokenAddr",
          "type": "address"
        },
        {
          "internalType": "uint256",
          "name": "_minCollateral",
          "type": "uint256"
        },
        {
          "internalType": "bool",
          "name": "_close",
          "type": "bool"
        }
      ],
      "name": "UpdateTokenInfo",
      "outputs": [
        {
          "internalType": "bool",
          "name": "",
          "type": "bool"
        }
      ],
      "stateMutability": "nonpayable",
      "type": "function"
    },
    {
      "inputs": [
        {
          "internalType": "bytes32[]",
          "name": "_symbols",
          "type": "bytes32[]"
        },
        {
          "internalType": "address[]",
          "name": "_tokenAddrs",
          "type": "address[]"
        },
        {
          "internalType": "uint256[]",
          "name": "_minCollateral",
          "type": "uint256[]"
        },
        {
          "internalType": "bool[]",
          "name": "_closes",
          "type": "bool[]"
        }
      ],
      "name": "UpdateTokenInfos",
      "outputs": [
        {
          "internalType": "bool",
          "name": "",
          "type": "bool"
        }
      ],
      "stateMutability": "nonpayable",
      "type": "function"
    },
    {
      "inputs": [],
      "name": "GetSystemTotalCollateralInUsd",
      "outputs": [
        {
          "internalType": "uint256",
          "name": "rTotal",
          "type": "uint256"
        }
      ],
      "stateMutability": "view",
      "type": "function",
      "constant": true
    },
    {
      "inputs": [
        {
          "internalType": "address",
          "name": "_user",
          "type": "address"
        }
      ],
      "name": "GetUserTotalCollateralInUsd",
      "outputs": [
        {
          "internalType": "uint256",
          "name": "rTotal",
          "type": "uint256"
        }
      ],
      "stateMutability": "view",
      "type": "function",
      "constant": true
    },
    {
      "inputs": [
        {
          "internalType": "address",
          "name": "_user",
          "type": "address"
        },
        {
          "internalType": "bytes32",
          "name": "_currency",
          "type": "bytes32"
        }
      ],
      "name": "GetUserCollateral",
      "outputs": [
        {
          "internalType": "uint256",
          "name": "",
          "type": "uint256"
        }
      ],
      "stateMutability": "view",
      "type": "function",
      "constant": true
    },
    {
      "inputs": [
        {
          "internalType": "address",
          "name": "_user",
          "type": "address"
        }
      ],
      "name": "GetUserCollaterals",
      "outputs": [
        {
          "internalType": "bytes32[]",
          "name": "",
          "type": "bytes32[]"
        },
        {
          "internalType": "uint256[]",
          "name": "",
          "type": "uint256[]"
        }
      ],
      "stateMutability": "view",
      "type": "function",
      "constant": true
    },
    {
      "inputs": [
        {
          "internalType": "bytes32",
          "name": "_currency",
          "type": "bytes32"
        },
        {
          "internalType": "uint256",
          "name": "_amount",
          "type": "uint256"
        }
      ],
      "name": "Collateral",
      "outputs": [
        {
          "internalType": "bool",
          "name": "",
          "type": "bool"
        }
      ],
      "stateMutability": "nonpayable",
      "type": "function"
    },
    {
      "inputs": [
        {
          "internalType": "address",
          "name": "_user",
          "type": "address"
        }
      ],
      "name": "IsSatisfyTargetRatio",
      "outputs": [
        {
          "internalType": "bool",
          "name": "",
          "type": "bool"
        }
      ],
      "stateMutability": "view",
      "type": "function",
      "constant": true
    },
    {
      "inputs": [
        {
          "internalType": "address",
          "name": "_user",
          "type": "address"
        }
      ],
      "name": "MaxRedeemableInUsd",
      "outputs": [
        {
          "internalType": "uint256",
          "name": "",
          "type": "uint256"
        }
      ],
      "stateMutability": "view",
      "type": "function",
      "constant": true
    },
    {
      "inputs": [
        {
          "internalType": "address",
          "name": "user",
          "type": "address"
        },
        {
          "internalType": "bytes32",
          "name": "_currency",
          "type": "bytes32"
        }
      ],
      "name": "MaxRedeemable",
      "outputs": [
        {
          "internalType": "uint256",
          "name": "",
          "type": "uint256"
        }
      ],
      "stateMutability": "view",
      "type": "function",
      "constant": true
    },
    {
      "inputs": [
        {
          "internalType": "bytes32",
          "name": "_currency",
          "type": "bytes32"
        }
      ],
      "name": "RedeemMax",
      "outputs": [],
      "stateMutability": "nonpayable",
      "type": "function"
    },
    {
      "inputs": [
        {
          "internalType": "bytes32",
          "name": "_currency",
          "type": "bytes32"
        },
        {
          "internalType": "uint256",
          "name": "_amount",
          "type": "uint256"
        }
      ],
      "name": "Redeem",
      "outputs": [
        {
          "internalType": "bool",
          "name": "",
          "type": "bool"
        }
      ],
      "stateMutability": "nonpayable",
      "type": "function"
    },
    {
      "inputs": [],
      "name": "CollateralEth",
      "outputs": [
        {
          "internalType": "bool",
          "name": "",
          "type": "bool"
        }
      ],
      "stateMutability": "payable",
      "type": "function",
      "payable": true
    },
    {
      "inputs": [
        {
          "internalType": "uint256",
          "name": "_amount",
          "type": "uint256"
        }
      ],
      "name": "RedeemETH",
      "outputs": [
        {
          "internalType": "bool",
          "name": "",
          "type": "bool"
        }
      ],
      "stateMutability": "nonpayable",
      "type": "function"
    }
  ],
  "bytecode": "0x60806040523480156200001157600080fd5b5060405162005a1738038062005a17833981810160405260208110156200003757600080fd5b810190808051906020019092919050505080600073ffffffffffffffffffffffffffffffffffffffff168173ffffffffffffffffffffffffffffffffffffffff161415620000ed576040517f08c379a00000000000000000000000000000000000000000000000000000000081526004018080602001828103825260198152602001807f61646d696e20616464726573732063616e6e6f7420626520300000000000000081525060200191505060405180910390fd5b806000806101000a81548173ffffffffffffffffffffffffffffffffffffffff021916908373ffffffffffffffffffffffffffffffffffffffff1602179055507f7e644d79422f17c01e4894b5f4f588d331ebfa28653d42ae832dc59e38c9798f600082604051808373ffffffffffffffffffffffffffffffffffffffff1681526020018273ffffffffffffffffffffffffffffffffffffffff1681526020019250505060405180910390a1506000600160146101000a81548160ff0219169083151502179055505061585180620001c66000396000f3fe6080604052600436106101e75760003560e01c806375f93fa811610102578063c91facaf11610095578063f72d542611610064578063f72d542614610b67578063f851a44014610d02578063f867831314610d43578063ff06a5d414610d6e57610287565b8063c91facaf14610a17578063ceed1b9014610a86578063e05b0cc214610ac7578063f563feec14610b0257610287565b8063acb0c604116100d1578063acb0c6041461088b578063bc65d434146108fa578063c08f73b614610961578063c19bff31146109bc57610287565b806375f93fa8146106b55780637e2748f6146106e057806390f1f17b146107ce5780639235f45f1461084a57610287565b8063512607911161017a5780635c975abb116101495780635c975abb146105f15780635d521a341461061e578063629c52a9146106495780636c8381f81461067457610287565b8063512607911461047357806352adb889146104d8578063592315d1146105195780635a5f14c8146105a057610287565b806325971dff116101b657806325971dff146103ba57806342fc00f4146103d157806346a00af9146103f15780634b86f75f1461043257610287565b806307880b7f1461028c578063169e02fc146102dd57806316c38b3c1461032e57806317fd1d801461036b57610287565b3661028757600160149054906101000a900460ff161561026f576040517f08c379a00000000000000000000000000000000000000000000000000000000081526004018080602001828103825260108152602001807f5061757361626c653a207061757365640000000000000000000000000000000081525060200191505060405180910390fd5b600033905060003490506102838282610ddd565b5050005b600080fd5b34801561029857600080fd5b506102db600480360360208110156102af57600080fd5b81019080803573ffffffffffffffffffffffffffffffffffffffff16906020019092919050505061104c565b005b3480156102e957600080fd5b506103166004803603602081101561030057600080fd5b81019080803590602001909291905050506111e9565b60405180821515815260200191505060405180910390f35b34801561033a57600080fd5b506103696004803603602081101561035157600080fd5b8101908080351515906020019092919050505061172a565b005b34801561037757600080fd5b506103a46004803603602081101561038e57600080fd5b81019080803590602001909291905050506117ed565b6040518082815260200191505060405180910390f35b3480156103c657600080fd5b506103cf61180e565b005b6103d96119e7565b60405180821515815260200191505060405180910390f35b3480156103fd57600080fd5b50610406611a89565b604051808273ffffffffffffffffffffffffffffffffffffffff16815260200191505060405180910390f35b34801561043e57600080fd5b50610447611aaf565b604051808273ffffffffffffffffffffffffffffffffffffffff16815260200191505060405180910390f35b34801561047f57600080fd5b506104c26004803603602081101561049657600080fd5b81019080803573ffffffffffffffffffffffffffffffffffffffff169060200190929190505050611ad5565b6040518082815260200191505060405180910390f35b3480156104e457600080fd5b506104ed6120b2565b604051808273ffffffffffffffffffffffffffffffffffffffff16815260200191505060405180910390f35b34801561052557600080fd5b506105886004803603608081101561053c57600080fd5b8101908080359060200190929190803573ffffffffffffffffffffffffffffffffffffffff169060200190929190803590602001909291908035151590602001909291905050506120d8565b60405180821515815260200191505060405180910390f35b3480156105ac57600080fd5b506105ef600480360360208110156105c357600080fd5b81019080803573ffffffffffffffffffffffffffffffffffffffff169060200190929190505050612195565b005b3480156105fd57600080fd5b50610606612acb565b60405180821515815260200191505060405180910390f35b34801561062a57600080fd5b50610633612ae2565b6040518082815260200191505060405180910390f35b34801561065557600080fd5b5061065e612b06565b6040518082815260200191505060405180910390f35b34801561068057600080fd5b50610689612b0c565b604051808273ffffffffffffffffffffffffffffffffffffffff16815260200191505060405180910390f35b3480156106c157600080fd5b506106ca612b32565b6040518082815260200191505060405180910390f35b3480156106ec57600080fd5b5061072f6004803603602081101561070357600080fd5b81019080803573ffffffffffffffffffffffffffffffffffffffff169060200190929190505050612f4f565b604051808060200180602001838103835285818151815260200191508051906020019060200280838360005b8381101561077657808201518184015260208101905061075b565b50505050905001838103825284818151815260200191508051906020019060200280838360005b838110156107b857808201518184015260208101905061079d565b5050505090500194505050505060405180910390f35b3480156107da57600080fd5b50610807600480360360208110156107f157600080fd5b8101908080359060200190929190505050613276565b604051808573ffffffffffffffffffffffffffffffffffffffff168152602001848152602001838152602001821515815260200194505050505060405180910390f35b34801561085657600080fd5b5061085f6132d3565b604051808273ffffffffffffffffffffffffffffffffffffffff16815260200191505060405180910390f35b34801561089757600080fd5b506108e4600480360360408110156108ae57600080fd5b81019080803573ffffffffffffffffffffffffffffffffffffffff169060200190929190803590602001909291905050506132f9565b6040518082815260200191505060405180910390f35b34801561090657600080fd5b506109496004803603602081101561091d57600080fd5b81019080803573ffffffffffffffffffffffffffffffffffffffff169060200190929190505050613324565b60405180821515815260200191505060405180910390f35b34801561096d57600080fd5b506109a46004803603604081101561098457600080fd5b8101908080359060200190929190803590602001909291905050506135a7565b60405180821515815260200191505060405180910390f35b3480156109c857600080fd5b506109ff600480360360408110156109df57600080fd5b810190808035906020019092919080359060200190929190505050613ce9565b60405180821515815260200191505060405180910390f35b348015610a2357600080fd5b50610a7060048036036040811015610a3a57600080fd5b81019080803573ffffffffffffffffffffffffffffffffffffffff16906020019092919080359060200190929190505050613d89565b6040518082815260200191505060405180910390f35b348015610a9257600080fd5b50610a9b614038565b604051808273ffffffffffffffffffffffffffffffffffffffff16815260200191505060405180910390f35b348015610ad357600080fd5b50610b0060048036036020811015610aea57600080fd5b810190808035906020019092919050505061405e565b005b348015610b0e57600080fd5b50610b5160048036036020811015610b2557600080fd5b81019080803573ffffffffffffffffffffffffffffffffffffffff169060200190929190505050614104565b6040518082815260200191505060405180910390f35b348015610b7357600080fd5b50610cea60048036036080811015610b8a57600080fd5b8101908080359060200190640100000000811115610ba757600080fd5b820183602082011115610bb957600080fd5b80359060200191846020830284011164010000000083111715610bdb57600080fd5b909192939192939080359060200190640100000000811115610bfc57600080fd5b820183602082011115610c0e57600080fd5b80359060200191846020830284011164010000000083111715610c3057600080fd5b909192939192939080359060200190640100000000811115610c5157600080fd5b820183602082011115610c6357600080fd5b80359060200191846020830284011164010000000083111715610c8557600080fd5b909192939192939080359060200190640100000000811115610ca657600080fd5b820183602082011115610cb857600080fd5b80359060200191846020830284011164010000000083111715610cda57600080fd5b9091929391929390505050614396565b60405180821515815260200191505060405180910390f35b348015610d0e57600080fd5b50610d17614647565b604051808273ffffffffffffffffffffffffffffffffffffffff16815260200191505060405180910390f35b348015610d4f57600080fd5b50610d5861466b565b6040518082815260200191505060405180910390f35b348015610d7a57600080fd5b50610dc760048036036040811015610d9157600080fd5b81019080803573ffffffffffffffffffffffffffffffffffffffff1690602001909291908035906020019092919050505061468f565b6040518082815260200191505060405180910390f35b60008111610e53576040517f08c379a000000000000000000000000000000000000000000000000000000000815260040180806020018281038252601e8152602001807f45544820616d6f756e74206e656564206d6f7265207468616e207a65726f000081525060200191505060405180910390fd5b610ed981600a60008573ffffffffffffffffffffffffffffffffffffffff1673ffffffffffffffffffffffffffffffffffffffff16815260200190815260200160002060007f455448000000000000000000000000000000000000000000000000000000000081526020019081526020016000206000015461484590919063ffffffff16565b600a60008473ffffffffffffffffffffffffffffffffffffffff1673ffffffffffffffffffffffffffffffffffffffff16815260200190815260200160002060007f45544800000000000000000000000000000000000000000000000000000000008152602001908152602001600020600001819055507fe25398ee94a2ec2dde5992b338a76ddd3a7af4d596cf2d00feba7770b31de299827f455448000000000000000000000000000000000000000000000000000000000083600a60008773ffffffffffffffffffffffffffffffffffffffff1673ffffffffffffffffffffffffffffffffffffffff16815260200190815260200160002060007f4554480000000000000000000000000000000000000000000000000000000000815260200190815260200160002060000154604051808573ffffffffffffffffffffffffffffffffffffffff16815260200184815260200183815260200182815260200194505050505060405180910390a15050565b60008054906101000a900473ffffffffffffffffffffffffffffffffffffffff1673ffffffffffffffffffffffffffffffffffffffff163373ffffffffffffffffffffffffffffffffffffffff16146110f0576040517f08c379a000000000000000000000000000000000000000000000000000000000815260040180806020018281038252602f815260200180615770602f913960400191505060405180910390fd5b6000600160009054906101000a900473ffffffffffffffffffffffffffffffffffffffff16905081600160006101000a81548173ffffffffffffffffffffffffffffffffffffffff021916908373ffffffffffffffffffffffffffffffffffffffff1602179055507f0faed18be9e8f4d4c05dfbcc80ea2c97a0be729614d766827778f60890c02cab81600160009054906101000a900473ffffffffffffffffffffffffffffffffffffffff16604051808373ffffffffffffffffffffffffffffffffffffffff1681526020018273ffffffffffffffffffffffffffffffffffffffff1681526020019250505060405180910390a15050565b6000600160149054906101000a900460ff161561126e576040517f08c379a00000000000000000000000000000000000000000000000000000000081526004018080602001828103825260108152602001807f5061757361626c653a207061757365640000000000000000000000000000000081525060200191505060405180910390fd5b6000339050600a60008273ffffffffffffffffffffffffffffffffffffffff1673ffffffffffffffffffffffffffffffffffffffff16815260200190815260200160002060007f455448000000000000000000000000000000000000000000000000000000000081526020019081526020016000206000015483111561133f576040517f08c379a00000000000000000000000000000000000000000000000000000000081526004018080602001828103825260238152602001806157c26023913960400191505060405180910390fd5b60008311611398576040517f08c379a000000000000000000000000000000000000000000000000000000000815260040180806020018281038252602381526020018061579f6023913960400191505060405180910390fd5b60006113a382614104565b90506000611487600260009054906101000a900473ffffffffffffffffffffffffffffffffffffffff1673ffffffffffffffffffffffffffffffffffffffff166331d98b3f7f45544800000000000000000000000000000000000000000000000000000000006040518263ffffffff1660e01b81526004018082815260200191505060206040518083038186803b15801561143d57600080fd5b505afa158015611451573d6000803e3d6000fd5b505050506040513d602081101561146757600080fd5b8101908080519060200190929190505050836148cd90919063ffffffff16565b9050808511156114e2576040517f08c379a00000000000000000000000000000000000000000000000000000000081526004018080602001828103825260378152602001806157e56037913960400191505060405180910390fd5b61156885600a60008673ffffffffffffffffffffffffffffffffffffffff1673ffffffffffffffffffffffffffffffffffffffff16815260200190815260200160002060007f455448000000000000000000000000000000000000000000000000000000000081526020019081526020016000206000015461490390919063ffffffff16565b600a60008573ffffffffffffffffffffffffffffffffffffffff1673ffffffffffffffffffffffffffffffffffffffff16815260200190815260200160002060007f45544800000000000000000000000000000000000000000000000000000000008152602001908152602001600020600001819055508273ffffffffffffffffffffffffffffffffffffffff166108fc869081150290604051600060405180830381858888f19350505050158015611625573d6000803e3d6000fd5b507ffa659da0063f4e5cf39c3b6dae863e789ab69f82e82925c28cae633a81b2b65d837f455448000000000000000000000000000000000000000000000000000000000087600a60008873ffffffffffffffffffffffffffffffffffffffff1673ffffffffffffffffffffffffffffffffffffffff16815260200190815260200160002060007f4554480000000000000000000000000000000000000000000000000000000000815260200190815260200160002060000154604051808573ffffffffffffffffffffffffffffffffffffffff16815260200184815260200183815260200182815260200194505050505060405180910390a160019350505050919050565b60008054906101000a900473ffffffffffffffffffffffffffffffffffffffff1673ffffffffffffffffffffffffffffffffffffffff163373ffffffffffffffffffffffffffffffffffffffff16146117ce576040517f08c379a000000000000000000000000000000000000000000000000000000000815260040180806020018281038252602f815260200180615770602f913960400191505060405180910390fd5b80156117e1576117dc61494d565b6117ea565b6117e9614a40565b5b50565b600981815481106117fa57fe5b906000526020600020016000915090505481565b600160009054906101000a900473ffffffffffffffffffffffffffffffffffffffff1673ffffffffffffffffffffffffffffffffffffffff163373ffffffffffffffffffffffffffffffffffffffff16146118d1576040517f08c379a000000000000000000000000000000000000000000000000000000000815260040180806020018281038252601f8152602001807f4f6e6c792063616e6469646174652063616e206265636f6d652061646d696e0081525060200191505060405180910390fd5b60008060009054906101000a900473ffffffffffffffffffffffffffffffffffffffff169050600160009054906101000a900473ffffffffffffffffffffffffffffffffffffffff166000806101000a81548173ffffffffffffffffffffffffffffffffffffffff021916908373ffffffffffffffffffffffffffffffffffffffff1602179055507f7e644d79422f17c01e4894b5f4f588d331ebfa28653d42ae832dc59e38c9798f8160008054906101000a900473ffffffffffffffffffffffffffffffffffffffff16604051808373ffffffffffffffffffffffffffffffffffffffff1681526020018273ffffffffffffffffffffffffffffffffffffffff1681526020019250505060405180910390a150565b6000600160149054906101000a900460ff1615611a6c576040517f08c379a00000000000000000000000000000000000000000000000000000000081526004018080602001828103825260108152602001807f5061757361626c653a207061757365640000000000000000000000000000000081525060200191505060405180910390fd5b60003390506000349050611a808282610ddd565b60019250505090565b600560009054906101000a900473ffffffffffffffffffffffffffffffffffffffff1681565b600360009054906101000a900473ffffffffffffffffffffffffffffffffffffffff1681565b600080600090505b600980549050811015611ec857600060098281548110611af957fe5b906000526020600020015490506000600a60008673ffffffffffffffffffffffffffffffffffffffff1673ffffffffffffffffffffffffffffffffffffffff1681526020019081526020016000206000838152602001908152602001600020600001541115611eba57807f4c494e41000000000000000000000000000000000000000000000000000000001415611d91576000611cb5600660009054906101000a900473ffffffffffffffffffffffffffffffffffffffff1673ffffffffffffffffffffffffffffffffffffffff166370a08231876040518263ffffffff1660e01b8152600401808273ffffffffffffffffffffffffffffffffffffffff16815260200191505060206040518083038186803b158015611c1857600080fd5b505afa158015611c2c573d6000803e3d6000fd5b505050506040513d6020811015611c4257600080fd5b8101908080519060200190929190505050600a60008873ffffffffffffffffffffffffffffffffffffffff1673ffffffffffffffffffffffffffffffffffffffff16815260200190815260200160002060008581526020019081526020016000206000015461484590919063ffffffff16565b9050611d89611d7a600260009054906101000a900473ffffffffffffffffffffffffffffffffffffffff1673ffffffffffffffffffffffffffffffffffffffff166331d98b3f856040518263ffffffff1660e01b81526004018082815260200191505060206040518083038186803b158015611d3057600080fd5b505afa158015611d44573d6000803e3d6000fd5b505050506040513d6020811015611d5a57600080fd5b810190808051906020019092919050505083614b3390919063ffffffff16565b8561484590919063ffffffff16565b935050611eb9565b611eb6611ea7600260009054906101000a900473ffffffffffffffffffffffffffffffffffffffff1673ffffffffffffffffffffffffffffffffffffffff166331d98b3f846040518263ffffffff1660e01b81526004018082815260200191505060206040518083038186803b158015611e0a57600080fd5b505afa158015611e1e573d6000803e3d6000fd5b505050506040513d6020811015611e3457600080fd5b8101908080519060200190929190505050600a60008873ffffffffffffffffffffffffffffffffffffffff1673ffffffffffffffffffffffffffffffffffffffff168152602001908152602001600020600085815260200190815260200160002060000154614b3390919063ffffffff16565b8461484590919063ffffffff16565b92505b5b508080600101915050611add565b506000600a60008473ffffffffffffffffffffffffffffffffffffffff1673ffffffffffffffffffffffffffffffffffffffff16815260200190815260200160002060007f455448000000000000000000000000000000000000000000000000000000000081526020019081526020016000206000015411156120ad576120aa61209b600260009054906101000a900473ffffffffffffffffffffffffffffffffffffffff1673ffffffffffffffffffffffffffffffffffffffff166331d98b3f7f45544800000000000000000000000000000000000000000000000000000000006040518263ffffffff1660e01b81526004018082815260200191505060206040518083038186803b158015611fde57600080fd5b505afa158015611ff2573d6000803e3d6000fd5b505050506040513d602081101561200857600080fd5b8101908080519060200190929190505050600a60008673ffffffffffffffffffffffffffffffffffffffff1673ffffffffffffffffffffffffffffffffffffffff16815260200190815260200160002060007f4554480000000000000000000000000000000000000000000000000000000000815260200190815260200160002060000154614b3390919063ffffffff16565b8261484590919063ffffffff16565b90505b919050565b600460009054906101000a900473ffffffffffffffffffffffffffffffffffffffff1681565b60008060009054906101000a900473ffffffffffffffffffffffffffffffffffffffff1673ffffffffffffffffffffffffffffffffffffffff163373ffffffffffffffffffffffffffffffffffffffff161461217f576040517f08c379a000000000000000000000000000000000000000000000000000000000815260040180806020018281038252602f815260200180615770602f913960400191505060405180910390fd5b61218b85858585614b60565b9050949350505050565b60008054906101000a900473ffffffffffffffffffffffffffffffffffffffff1673ffffffffffffffffffffffffffffffffffffffff163373ffffffffffffffffffffffffffffffffffffffff1614612239576040517f08c379a000000000000000000000000000000000000000000000000000000000815260040180806020018281038252602f815260200180615770602f913960400191505060405180910390fd5b8073ffffffffffffffffffffffffffffffffffffffff1663768911da6040518163ffffffff1660e01b815260040180807f4c6e507269636573000000000000000000000000000000000000000000000000815250602001806020018281038252601a8152602001807f4c6e5072696365732061646472657373206e6f742076616c696400000000000081525060200191505060206040518083038186803b1580156122e357600080fd5b505afa1580156122f7573d6000803e3d6000fd5b505050506040513d602081101561230d57600080fd5b8101908080519060200190929190505050600260006101000a81548173ffffffffffffffffffffffffffffffffffffffff021916908373ffffffffffffffffffffffffffffffffffffffff1602179055508073ffffffffffffffffffffffffffffffffffffffff1663768911da6040518163ffffffff1660e01b815260040180807f4c6e4465627453797374656d0000000000000000000000000000000000000000815250602001806020018281038252601e8152602001807f4c6e4465627453797374656d2061646472657373206e6f742076616c6964000081525060200191505060206040518083038186803b15801561240857600080fd5b505afa15801561241c573d6000803e3d6000fd5b505050506040513d602081101561243257600080fd5b8101908080519060200190929190505050600360006101000a81548173ffffffffffffffffffffffffffffffffffffffff021916908373ffffffffffffffffffffffffffffffffffffffff1602179055508073ffffffffffffffffffffffffffffffffffffffff1663768911da6040518163ffffffff1660e01b815260040180807f4c6e4275696c644275726e53797374656d000000000000000000000000000000815250602001806020018281038252602381526020018061574d6023913960400191505060206040518083038186803b15801561251057600080fd5b505afa158015612524573d6000803e3d6000fd5b505050506040513d602081101561253a57600080fd5b8101908080519060200190929190505050600460006101000a81548173ffffffffffffffffffffffffffffffffffffffff021916908373ffffffffffffffffffffffffffffffffffffffff1602179055508073ffffffffffffffffffffffffffffffffffffffff1663768911da6040518163ffffffff1660e01b815260040180807f4c6e436f6e666967000000000000000000000000000000000000000000000000815250602001806020018281038252601a8152602001807f4c6e436f6e6669672061646472657373206e6f742076616c696400000000000081525060200191505060206040518083038186803b15801561263557600080fd5b505afa158015612649573d6000803e3d6000fd5b505050506040513d602081101561265f57600080fd5b8101908080519060200190929190505050600560006101000a81548173ffffffffffffffffffffffffffffffffffffffff021916908373ffffffffffffffffffffffffffffffffffffffff1602179055508073ffffffffffffffffffffffffffffffffffffffff1663768911da6040518163ffffffff1660e01b815260040180807f4c6e5265776172644c6f636b657200000000000000000000000000000000000081525060200180602001828103825260208152602001807f4c6e5265776172644c6f636b65722061646472657373206e6f742076616c696481525060200191505060206040518083038186803b15801561275a57600080fd5b505afa15801561276e573d6000803e3d6000fd5b505050506040513d602081101561278457600080fd5b8101908080519060200190929190505050600660006101000a81548173ffffffffffffffffffffffffffffffffffffffff021916908373ffffffffffffffffffffffffffffffffffffffff1602179055507f45a7f8d84f7ad724869d024abcaa743ae6aec455a969df76b5d1e9c5cac4d2ae600260009054906101000a900473ffffffffffffffffffffffffffffffffffffffff1660405180807f4c6e5072696365730000000000000000000000000000000000000000000000008152506020018273ffffffffffffffffffffffffffffffffffffffff16815260200191505060405180910390a17f45a7f8d84f7ad724869d024abcaa743ae6aec455a969df76b5d1e9c5cac4d2ae600360009054906101000a900473ffffffffffffffffffffffffffffffffffffffff1660405180807f4c6e4465627453797374656d00000000000000000000000000000000000000008152506020018273ffffffffffffffffffffffffffffffffffffffff16815260200191505060405180910390a17f45a7f8d84f7ad724869d024abcaa743ae6aec455a969df76b5d1e9c5cac4d2ae600460009054906101000a900473ffffffffffffffffffffffffffffffffffffffff1660405180807f4c6e4275696c644275726e53797374656d0000000000000000000000000000008152506020018273ffffffffffffffffffffffffffffffffffffffff16815260200191505060405180910390a17f45a7f8d84f7ad724869d024abcaa743ae6aec455a969df76b5d1e9c5cac4d2ae600560009054906101000a900473ffffffffffffffffffffffffffffffffffffffff1660405180807f4c6e436f6e6669670000000000000000000000000000000000000000000000008152506020018273ffffffffffffffffffffffffffffffffffffffff16815260200191505060405180910390a17f45a7f8d84f7ad724869d024abcaa743ae6aec455a969df76b5d1e9c5cac4d2ae600660009054906101000a900473ffffffffffffffffffffffffffffffffffffffff1660405180807f4c6e5265776172644c6f636b65720000000000000000000000000000000000008152506020018273ffffffffffffffffffffffffffffffffffffffff16815260200191505060405180910390a150565b6000600160149054906101000a900460ff16905090565b7f455448000000000000000000000000000000000000000000000000000000000081565b60075481565b600160009054906101000a900473ffffffffffffffffffffffffffffffffffffffff1681565b600080600090505b600980549050811015612e4d57600060098281548110612b5657fe5b90600052602060002001549050600060086000838152602001908152602001600020600201541115612e3f57807f4c494e41000000000000000000000000000000000000000000000000000000001415612d53576000612c77600660009054906101000a900473ffffffffffffffffffffffffffffffffffffffff1673ffffffffffffffffffffffffffffffffffffffff16634bcdd1746040518163ffffffff1660e01b815260040160206040518083038186803b158015612c1757600080fd5b505afa158015612c2b573d6000803e3d6000fd5b505050506040513d6020811015612c4157600080fd5b8101908080519060200190929190505050600860008581526020019081526020016000206002015461484590919063ffffffff16565b9050612d4b612d3c600260009054906101000a900473ffffffffffffffffffffffffffffffffffffffff1673ffffffffffffffffffffffffffffffffffffffff166331d98b3f856040518263ffffffff1660e01b81526004018082815260200191505060206040518083038186803b158015612cf257600080fd5b505afa158015612d06573d6000803e3d6000fd5b505050506040513d6020811015612d1c57600080fd5b810190808051906020019092919050505083614b3390919063ffffffff16565b8561484590919063ffffffff16565b935050612e3e565b612e3b612e2c600260009054906101000a900473ffffffffffffffffffffffffffffffffffffffff1673ffffffffffffffffffffffffffffffffffffffff166331d98b3f846040518263ffffffff1660e01b81526004018082815260200191505060206040518083038186803b158015612dcc57600080fd5b505afa158015612de0573d6000803e3d6000fd5b505050506040513d6020811015612df657600080fd5b81019080805190602001909291905050506008600085815260200190815260200160002060020154614b3390919063ffffffff16565b8461484590919063ffffffff16565b92505b5b508080600101915050612b3a565b506000471115612f4c57612f49612f3a600260009054906101000a900473ffffffffffffffffffffffffffffffffffffffff1673ffffffffffffffffffffffffffffffffffffffff166331d98b3f7f45544800000000000000000000000000000000000000000000000000000000006040518263ffffffff1660e01b81526004018082815260200191505060206040518083038186803b158015612ef057600080fd5b505afa158015612f04573d6000803e3d6000fd5b505050506040513d6020811015612f1a57600080fd5b810190808051906020019092919050505047614b3390919063ffffffff16565b8261484590919063ffffffff16565b90505b90565b606080606060016009805490500167ffffffffffffffff81118015612f7357600080fd5b50604051908082528060200260200182016040528015612fa25781602001602082028036833780820191505090505b509050606060016009805490500167ffffffffffffffff81118015612fc657600080fd5b50604051908082528060200260200182016040528015612ff55781602001602082028036833780820191505090505b5090506000805b60098054905081101561311d5760006009828154811061301857fe5b906000526020600020015490506000600a60008a73ffffffffffffffffffffffffffffffffffffffff1673ffffffffffffffffffffffffffffffffffffffff168152602001908152602001600020600083815260200190815260200160002060000154111561310f578085848151811061308e57fe5b602002602001018181525050600a60008973ffffffffffffffffffffffffffffffffffffffff1673ffffffffffffffffffffffffffffffffffffffff1681526020019081526020016000206000828152602001908152602001600020600001548484815181106130fa57fe5b60200260200101818152505082806001019350505b508080600101915050612ffc565b506000600a60008873ffffffffffffffffffffffffffffffffffffffff1673ffffffffffffffffffffffffffffffffffffffff16815260200190815260200160002060007f45544800000000000000000000000000000000000000000000000000000000008152602001908152602001600020600001541115613268577f45544800000000000000000000000000000000000000000000000000000000008382815181106131c757fe5b602002602001018181525050600a60008773ffffffffffffffffffffffffffffffffffffffff1673ffffffffffffffffffffffffffffffffffffffff16815260200190815260200160002060007f455448000000000000000000000000000000000000000000000000000000000081526020019081526020016000206000015482828151811061325357fe5b60200260200101818152505080806001019150505b828294509450505050915091565b60086020528060005260406000206000915090508060000160009054906101000a900473ffffffffffffffffffffffffffffffffffffffff16908060010154908060020154908060030160009054906101000a900460ff16905084565b600660009054906101000a900473ffffffffffffffffffffffffffffffffffffffff1681565b600a602052816000526040600020602052806000526040600020600091509150508060000154905081565b600080600360009054906101000a900473ffffffffffffffffffffffffffffffffffffffff1673ffffffffffffffffffffffffffffffffffffffff16631882d090846040518263ffffffff1660e01b8152600401808273ffffffffffffffffffffffffffffffffffffffff168152602001915050604080518083038186803b1580156133af57600080fd5b505afa1580156133c3573d6000803e3d6000fd5b505050506040513d60408110156133d957600080fd5b810190808051906020019092919080519060200190929190505050509050600081141561340a5760019150506135a2565b6000600560009054906101000a900473ffffffffffffffffffffffffffffffffffffffff1673ffffffffffffffffffffffffffffffffffffffff1663bd02d0f5600560009054906101000a900473ffffffffffffffffffffffffffffffffffffffff1673ffffffffffffffffffffffffffffffffffffffff16634d6daf046040518163ffffffff1660e01b815260040160206040518083038186803b1580156134b257600080fd5b505afa1580156134c6573d6000803e3d6000fd5b505050506040513d60208110156134dc57600080fd5b81019080805190602001909291905050506040518263ffffffff1660e01b81526004018082815260200191505060206040518083038186803b15801561352157600080fd5b505afa158015613535573d6000803e3d6000fd5b505050506040513d602081101561354b57600080fd5b81019080805190602001909291905050509050600061356985611ad5565b9050600081141561358057600093505050506135a2565b600061359582856148cd90919063ffffffff16565b9050828111159450505050505b919050565b6000600160149054906101000a900460ff161561362c576040517f08c379a00000000000000000000000000000000000000000000000000000000081526004018080602001828103825260108152602001807f5061757361626c653a207061757365640000000000000000000000000000000081525060200191505060405180910390fd5b6136816008600085815260200190815260200160002060000160009054906101000a900473ffffffffffffffffffffffffffffffffffffffff1673ffffffffffffffffffffffffffffffffffffffff16614fc5565b6136f3576040517f08c379a00000000000000000000000000000000000000000000000000000000081526004018080602001828103825260148152602001807f496e76616c696420746f6b656e2073796d626f6c00000000000000000000000081525060200191505060405180910390fd5b600060086000858152602001908152602001600020905080600101548311613783576040517f08c379a000000000000000000000000000000000000000000000000000000000815260040180806020018281038252601b8152602001807f436f6c6c61746572616c20616d6f756e7420746f6f20736d616c6c000000000081525060200191505060405180910390fd5b600015158160030160009054906101000a900460ff1615151461380e576040517f08c379a00000000000000000000000000000000000000000000000000000000081526004018080602001828103825260148152602001807f5468697320746f6b656e20697320636c6f73656400000000000000000000000081525060200191505060405180910390fd5b600033905060006008600087815260200190815260200160002060000160009054906101000a900473ffffffffffffffffffffffffffffffffffffffff169050848173ffffffffffffffffffffffffffffffffffffffff166370a08231846040518263ffffffff1660e01b8152600401808273ffffffffffffffffffffffffffffffffffffffff16815260200191505060206040518083038186803b1580156138b657600080fd5b505afa1580156138ca573d6000803e3d6000fd5b505050506040513d60208110156138e057600080fd5b81019080805190602001909291905050501015613965576040517f08c379a00000000000000000000000000000000000000000000000000000000081526004018080602001828103825260148152602001807f696e73756666696369656e742062616c616e636500000000000000000000000081525060200191505060405180910390fd5b848173ffffffffffffffffffffffffffffffffffffffff1663dd62ed3e84306040518363ffffffff1660e01b8152600401808373ffffffffffffffffffffffffffffffffffffffff1681526020018273ffffffffffffffffffffffffffffffffffffffff1681526020019250505060206040518083038186803b1580156139eb57600080fd5b505afa1580156139ff573d6000803e3d6000fd5b505050506040513d6020811015613a1557600080fd5b81019080805190602001909291905050501015613a7d576040517f08c379a00000000000000000000000000000000000000000000000000000000081526004018080602001828103825260308152602001806156fc6030913960400191505060405180910390fd5b8073ffffffffffffffffffffffffffffffffffffffff166323b872dd8330886040518463ffffffff1660e01b8152600401808473ffffffffffffffffffffffffffffffffffffffff1681526020018373ffffffffffffffffffffffffffffffffffffffff1681526020018281526020019350505050602060405180830381600087803b158015613b0c57600080fd5b505af1158015613b20573d6000803e3d6000fd5b505050506040513d6020811015613b3657600080fd5b810190808051906020019092919050505050613bae85600a60008573ffffffffffffffffffffffffffffffffffffffff1673ffffffffffffffffffffffffffffffffffffffff16815260200190815260200160002060008981526020019081526020016000206000015461484590919063ffffffff16565b600a60008473ffffffffffffffffffffffffffffffffffffffff1673ffffffffffffffffffffffffffffffffffffffff168152602001908152602001600020600088815260200190815260200160002060000181905550613c1c85846002015461484590919063ffffffff16565b83600201819055507fe25398ee94a2ec2dde5992b338a76ddd3a7af4d596cf2d00feba7770b31de299828787600a60008773ffffffffffffffffffffffffffffffffffffffff1673ffffffffffffffffffffffffffffffffffffffff16815260200190815260200160002060008b815260200190815260200160002060000154604051808573ffffffffffffffffffffffffffffffffffffffff16815260200184815260200183815260200182815260200194505050505060405180910390a16001935050505092915050565b6000600160149054906101000a900460ff1615613d6e576040517f08c379a00000000000000000000000000000000000000000000000000000000081526004018080602001828103825260108152602001807f5061757361626c653a207061757365640000000000000000000000000000000081525060200191505060405180910390fd5b6000339050613d7e818585614fd8565b600191505092915050565b600080613d9584614104565b90506000613e59600260009054906101000a900473ffffffffffffffffffffffffffffffffffffffff1673ffffffffffffffffffffffffffffffffffffffff166331d98b3f866040518263ffffffff1660e01b81526004018082815260200191505060206040518083038186803b158015613e0f57600080fd5b505afa158015613e23573d6000803e3d6000fd5b505050506040513d6020811015613e3957600080fd5b8101908080519060200190929190505050836148cd90919063ffffffff16565b9050600a60008673ffffffffffffffffffffffffffffffffffffffff1673ffffffffffffffffffffffffffffffffffffffff168152602001908152602001600020600085815260200190815260200160002060000154811115613f0d57600a60008673ffffffffffffffffffffffffffffffffffffffff1673ffffffffffffffffffffffffffffffffffffffff16815260200190815260200160002060008581526020019081526020016000206000015490505b837f4c494e410000000000000000000000000000000000000000000000000000000014613f3e578092505050614032565b6000600660009054906101000a900473ffffffffffffffffffffffffffffffffffffffff1673ffffffffffffffffffffffffffffffffffffffff166370a08231876040518263ffffffff1660e01b8152600401808273ffffffffffffffffffffffffffffffffffffffff16815260200191505060206040518083038186803b158015613fc957600080fd5b505afa158015613fdd573d6000803e3d6000fd5b505050506040513d6020811015613ff357600080fd5b810190808051906020019092919050505090508082116140195760009350505050614032565b61402c818361490390919063ffffffff16565b93505050505b92915050565b600260009054906101000a900473ffffffffffffffffffffffffffffffffffffffff1681565b600160149054906101000a900460ff16156140e1576040517f08c379a00000000000000000000000000000000000000000000000000000000081526004018080602001828103825260108152602001807f5061757361626c653a207061757365640000000000000000000000000000000081525060200191505060405180910390fd5b600033905060006140f28284613d89565b90506140ff828483614fd8565b505050565b60008061411083611ad5565b90506000600360009054906101000a900473ffffffffffffffffffffffffffffffffffffffff1673ffffffffffffffffffffffffffffffffffffffff16631882d090856040518263ffffffff1660e01b8152600401808273ffffffffffffffffffffffffffffffffffffffff168152602001915050604080518083038186803b15801561419c57600080fd5b505afa1580156141b0573d6000803e3d6000fd5b505050506040513d60408110156141c657600080fd5b81019080805190602001909291908051906020019092919050505050905060008114156141f7578192505050614391565b6000600560009054906101000a900473ffffffffffffffffffffffffffffffffffffffff1673ffffffffffffffffffffffffffffffffffffffff1663bd02d0f5600560009054906101000a900473ffffffffffffffffffffffffffffffffffffffff1673ffffffffffffffffffffffffffffffffffffffff16634d6daf046040518163ffffffff1660e01b815260040160206040518083038186803b15801561429f57600080fd5b505afa1580156142b3573d6000803e3d6000fd5b505050506040513d60208110156142c957600080fd5b81019080805190602001909291905050506040518263ffffffff1660e01b81526004018082815260200191505060206040518083038186803b15801561430e57600080fd5b505afa158015614322573d6000803e3d6000fd5b505050506040513d602081101561433857600080fd5b81019080805190602001909291905050509050600061436082846148cd90919063ffffffff16565b905080841015614377576000945050505050614391565b61438a818561490390919063ffffffff16565b9450505050505b919050565b60008060009054906101000a900473ffffffffffffffffffffffffffffffffffffffff1673ffffffffffffffffffffffffffffffffffffffff163373ffffffffffffffffffffffffffffffffffffffff161461443d576040517f08c379a000000000000000000000000000000000000000000000000000000000815260040180806020018281038252602f815260200180615770602f913960400191505060405180910390fd5b8686905089899050146144b8576040517f08c379a00000000000000000000000000000000000000000000000000000000081526004018080602001828103825260168152602001807f6c656e677468206f66206172726179206e6f742065710000000000000000000081525060200191505060405180910390fd5b848490508989905014614533576040517f08c379a00000000000000000000000000000000000000000000000000000000081526004018080602001828103825260168152602001807f6c656e677468206f66206172726179206e6f742065710000000000000000000081525060200191505060405180910390fd5b8282905089899050146145ae576040517f08c379a00000000000000000000000000000000000000000000000000000000081526004018080602001828103825260168152602001807f6c656e677468206f66206172726179206e6f742065710000000000000000000081525060200191505060405180910390fd5b60005b89899050811015614636576146288a8a838181106145cb57fe5b905060200201358989848181106145de57fe5b9050602002013573ffffffffffffffffffffffffffffffffffffffff1688888581811061460757fe5b9050602002013587878681811061461a57fe5b905060200201351515614b60565b5080806001019150506145b1565b506001905098975050505050505050565b60008054906101000a900473ffffffffffffffffffffffffffffffffffffffff1681565b7f4c494e410000000000000000000000000000000000000000000000000000000081565b6000817f4c494e41000000000000000000000000000000000000000000000000000000001461471357600a60008473ffffffffffffffffffffffffffffffffffffffff1673ffffffffffffffffffffffffffffffffffffffff168152602001908152602001600020600083815260200190815260200160002060000154905061483f565b61483c600a60008573ffffffffffffffffffffffffffffffffffffffff1673ffffffffffffffffffffffffffffffffffffffff168152602001908152602001600020600084815260200190815260200160002060000154600660009054906101000a900473ffffffffffffffffffffffffffffffffffffffff1673ffffffffffffffffffffffffffffffffffffffff166370a08231866040518263ffffffff1660e01b8152600401808273ffffffffffffffffffffffffffffffffffffffff16815260200191505060206040518083038186803b1580156147f357600080fd5b505afa158015614807573d6000803e3d6000fd5b505050506040513d602081101561481d57600080fd5b810190808051906020019092919050505061484590919063ffffffff16565b90505b92915050565b6000808284019050838110156148c3576040517f08c379a000000000000000000000000000000000000000000000000000000000815260040180806020018281038252601b8152602001807f536166654d6174683a206164646974696f6e206f766572666c6f77000000000081525060200191505060405180910390fd5b8091505092915050565b60006148fb826148ed601260ff16600a0a8661549d90919063ffffffff16565b61552390919063ffffffff16565b905092915050565b600061494583836040518060400160405280601e81526020017f536166654d6174683a207375627472616374696f6e206f766572666c6f77000081525061556d565b905092915050565b600160149054906101000a900460ff16156149d0576040517f08c379a00000000000000000000000000000000000000000000000000000000081526004018080602001828103825260108152602001807f5061757361626c653a207061757365640000000000000000000000000000000081525060200191505060405180910390fd5b60018060146101000a81548160ff0219169083151502179055507f62e78cea01bee320cd4e420270b5ea74000d11b0c9f74754ebdbfc544b05a258614a1361562d565b604051808273ffffffffffffffffffffffffffffffffffffffff16815260200191505060405180910390a1565b600160149054906101000a900460ff16614ac2576040517f08c379a00000000000000000000000000000000000000000000000000000000081526004018080602001828103825260148152602001807f5061757361626c653a206e6f742070617573656400000000000000000000000081525060200191505060405180910390fd5b6000600160146101000a81548160ff0219169083151502179055507f5db9ee0a495bf2e6ff9c91a7834c1ba4fdd244a5e8aa4e537bd38aeae4b073aa614b0661562d565b604051808273ffffffffffffffffffffffffffffffffffffffff16815260200191505060405180910390a1565b6000601260ff16600a0a614b50838561549d90919063ffffffff16565b81614b5757fe5b04905092915050565b60008060f81b85600060208110614b7357fe5b1a60f81b7effffffffffffffffffffffffffffffffffffffffffffffffffffffffffffff19161415614c0d576040517f08c379a00000000000000000000000000000000000000000000000000000000081526004018080602001828103825260138152602001807f73796d626f6c2063616e6e6f7420656d7074790000000000000000000000000081525060200191505060405180910390fd5b7f4554480000000000000000000000000000000000000000000000000000000000851415614ca3576040517f08c379a00000000000000000000000000000000000000000000000000000000081526004018080602001828103825260158152602001807f45544820697320757365642062792073797374656d000000000000000000000081525060200191505060405180910390fd5b600073ffffffffffffffffffffffffffffffffffffffff168473ffffffffffffffffffffffffffffffffffffffff161415614d46576040517f08c379a00000000000000000000000000000000000000000000000000000000081526004018080602001828103825260198152602001807f746f6b656e20616464726573732063616e6e6f74207a65726f0000000000000081525060200191505060405180910390fd5b614d658473ffffffffffffffffffffffffffffffffffffffff16614fc5565b614dd7576040517f08c379a000000000000000000000000000000000000000000000000000000000815260040180806020018281038252601f8152602001807f746f6b656e2061646472657373206973206e6f74206120636f6e74726163740081525060200191505060405180910390fd5b600073ffffffffffffffffffffffffffffffffffffffff166008600087815260200190815260200160002060000160009054906101000a900473ffffffffffffffffffffffffffffffffffffffff1673ffffffffffffffffffffffffffffffffffffffff161415614e6c5760098590806001815401808255809150506001900390600052602060002001600090919091909150555b60006008600087815260200190815260200160002060020154905060405180608001604052808673ffffffffffffffffffffffffffffffffffffffff1681526020018581526020018281526020018415158152506008600088815260200190815260200160002060008201518160000160006101000a81548173ffffffffffffffffffffffffffffffffffffffff021916908373ffffffffffffffffffffffffffffffffffffffff160217905550602082015181600101556040820151816002015560608201518160030160006101000a81548160ff0219169083151502179055509050507fb8ccd92c8fb24731fb4c076a82ecc0f1ff41af213ec928f550aa42fa8e5aee8c86868686604051808581526020018473ffffffffffffffffffffffffffffffffffffffff168152602001838152602001821515815260200194505050505060405180910390a16001915050949350505050565b600080823b905060008111915050919050565b600a60008473ffffffffffffffffffffffffffffffffffffffff1673ffffffffffffffffffffffffffffffffffffffff168152602001908152602001600020600083815260200190815260200160002060000154811115615084576040517f08c379a00000000000000000000000000000000000000000000000000000000081526004018080602001828103825260238152602001806157c26023913960400191505060405180910390fd5b600081116150dd576040517f08c379a000000000000000000000000000000000000000000000000000000000815260040180806020018281038252602381526020018061579f6023913960400191505060405180910390fd5b60006150e884614104565b905060006151ac600260009054906101000a900473ffffffffffffffffffffffffffffffffffffffff1673ffffffffffffffffffffffffffffffffffffffff166331d98b3f866040518263ffffffff1660e01b81526004018082815260200191505060206040518083038186803b15801561516257600080fd5b505afa158015615176573d6000803e3d6000fd5b505050506040513d602081101561518c57600080fd5b8101908080519060200190929190505050836148cd90919063ffffffff16565b905080831115615207576040517f08c379a00000000000000000000000000000000000000000000000000000000081526004018080602001828103825260378152602001806157e56037913960400191505060405180910390fd5b61526d83600a60008873ffffffffffffffffffffffffffffffffffffffff1673ffffffffffffffffffffffffffffffffffffffff16815260200190815260200160002060008781526020019081526020016000206000015461490390919063ffffffff16565b600a60008773ffffffffffffffffffffffffffffffffffffffff1673ffffffffffffffffffffffffffffffffffffffff16815260200190815260200160002060008681526020019081526020016000206000018190555060006008600086815260200190815260200160002090506152f284826002015461490390919063ffffffff16565b81600201819055506008600086815260200190815260200160002060000160009054906101000a900473ffffffffffffffffffffffffffffffffffffffff1673ffffffffffffffffffffffffffffffffffffffff1663a9059cbb87866040518363ffffffff1660e01b8152600401808373ffffffffffffffffffffffffffffffffffffffff16815260200182815260200192505050602060405180830381600087803b1580156153a157600080fd5b505af11580156153b5573d6000803e3d6000fd5b505050506040513d60208110156153cb57600080fd5b8101908080519060200190929190505050507ffa659da0063f4e5cf39c3b6dae863e789ab69f82e82925c28cae633a81b2b65d868686600a60008b73ffffffffffffffffffffffffffffffffffffffff1673ffffffffffffffffffffffffffffffffffffffff16815260200190815260200160002060008a815260200190815260200160002060000154604051808573ffffffffffffffffffffffffffffffffffffffff16815260200184815260200183815260200182815260200194505050505060405180910390a1505050505050565b6000808314156154b0576000905061551d565b60008284029050828482816154c157fe5b0414615518576040517f08c379a000000000000000000000000000000000000000000000000000000000815260040180806020018281038252602181526020018061572c6021913960400191505060405180910390fd5b809150505b92915050565b600061556583836040518060400160405280601a81526020017f536166654d6174683a206469766973696f6e206279207a65726f000000000000815250615635565b905092915050565b600083831115829061561a576040517f08c379a00000000000000000000000000000000000000000000000000000000081526004018080602001828103825283818151815260200191508051906020019080838360005b838110156155df5780820151818401526020810190506155c4565b50505050905090810190601f16801561560c5780820380516001836020036101000a031916815260200191505b509250505060405180910390fd5b5060008385039050809150509392505050565b600033905090565b600080831182906156e1576040517f08c379a00000000000000000000000000000000000000000000000000000000081526004018080602001828103825283818151815260200191508051906020019080838360005b838110156156a657808201518184015260208101905061568b565b50505050905090810190601f1680156156d35780820380516001836020036101000a031916815260200191505b509250505060405180910390fd5b5060008385816156ed57fe5b04905080915050939250505056fe696e73756666696369656e7420616c6c6f77616e63652c206e65656420617070726f7665206d6f726520616d6f756e74536166654d6174683a206d756c7469706c69636174696f6e206f766572666c6f774c6e4275696c644275726e53797374656d2061646472657373206e6f742076616c69644f6e6c792074686520636f6e74726163742061646d696e2063616e20706572666f726d207468697320616374696f6e52656465656d20616d6f756e74206e656564206c6172676572207468616e207a65726f43616e206e6f742072656465656d206d6f7265207468616e20636f6c6c61746572616c42656361757365206c6f77657220636f6c6c61746572616c20726174696f2c2063616e206e6f742072656465656d20746f6f206d756368a26469706673582212203da23d3dd0be6a599fce40f532348775485cbf2ed0b10d52f612faaeebe832ef64736f6c634300060c0033",
  "immutableReferences": {},
  "source": "// SPDX-License-Identifier: MIT\npragma solidity ^0.6.12;\n\nimport \"./IERC20.sol\";\nimport \"./LnAdmin.sol\";\nimport \"@openzeppelin/contracts/math/SafeMath.sol\";\nimport \"@openzeppelin/contracts/utils/Pausable.sol\";\nimport \"@openzeppelin/contracts/utils/Address.sol\";\nimport \"./SafeDecimalMath.sol\";\nimport \"./LnPrices.sol\";\nimport \"./LnAddressCache.sol\";\nimport \"./LnDebtSystem.sol\";\nimport \"./LnBuildBurnSystem.sol\";\nimport \"./LnConfig.sol\";\nimport \"./LnRewardLocker.sol\";\n\n// \n//   \ncontract LnCollateralSystem is LnAdmin, Pausable, LnAddressCache {\n    using SafeMath for uint;\n    using SafeDecimalMath for uint;\n    using Address for address;\n\n    // -------------------------------------------------------\n    // need set before system running value.\n    LnPrices public priceGetter;\n    LnDebtSystem public debtSystem;\n    LnBuildBurnSystem public buildBurnSystem;\n    LnConfig public mConfig;\n    LnRewardLocker public mRewardLocker;\n\n    bytes32 constant public Currency_ETH = \"ETH\";\n    bytes32 constant public Currency_LINA = \"LINA\";\n    \n    // -------------------------------------------------------\n    uint256 public uniqueId; // use log\n\n    struct TokenInfo {\n        address tokenAddr;\n        uint256 minCollateral; // min collateral amount.\n        uint256 totalCollateral;\n        bool bClose; // TODO : ?\n    }\n\n    mapping (bytes32 => TokenInfo) public tokenInfos;\n    bytes32[] public tokenSymbol; // keys of tokenInfos, use to iteration\n\n    struct CollateralData {\n        uint256 collateral; // total collateral\n    }\n\n    // [user] => ([token=> collateraldata])\n    mapping (address => mapping(bytes32 => CollateralData)) public userCollateralData;\n\n    // -------------------------------------------------------\n    constructor(address admin) public LnAdmin(admin) {\n    }\n\n    function setPaused(bool _paused) external onlyAdmin {\n        if (_paused) {\n            _pause();\n        } else {\n            _unpause();\n        }\n    }\n    // ------------------ system config ----------------------\n    function updateAddressCache( LnAddressStorage _addressStorage ) onlyAdmin public override\n    {\n        priceGetter =     LnPrices(         _addressStorage.getAddressWithRequire( \"LnPrices\",          \"LnPrices address not valid\" ));\n        debtSystem =      LnDebtSystem(     _addressStorage.getAddressWithRequire( \"LnDebtSystem\",      \"LnDebtSystem address not valid\" ));\n        buildBurnSystem = LnBuildBurnSystem(_addressStorage.getAddressWithRequire( \"LnBuildBurnSystem\", \"LnBuildBurnSystem address not valid\" ));\n        mConfig =         LnConfig(         _addressStorage.getAddressWithRequire( \"LnConfig\",          \"LnConfig address not valid\" ) );\n        mRewardLocker =   LnRewardLocker(   _addressStorage.getAddressWithRequire( \"LnRewardLocker\",    \"LnRewardLocker address not valid\" ));\n\n        emit updateCachedAddress( \"LnPrices\",          address(priceGetter) );\n        emit updateCachedAddress( \"LnDebtSystem\",      address(debtSystem) );\n        emit updateCachedAddress( \"LnBuildBurnSystem\", address(buildBurnSystem) );\n        emit updateCachedAddress( \"LnConfig\",          address(mConfig) );\n        emit updateCachedAddress( \"LnRewardLocker\",    address(mRewardLocker) );\n    }\n\n    function updateTokenInfo(bytes32 _currency, address _tokenAddr, uint256 _minCollateral, bool _close) private returns (bool) {\n        require(_currency[0] != 0, \"symbol cannot empty\");\n        require(_currency != Currency_ETH, \"ETH is used by system\");\n        require(_tokenAddr != address(0), \"token address cannot zero\");\n        require(_tokenAddr.isContract(), \"token address is not a contract\");\n\n        if (tokenInfos[_currency].tokenAddr == address(0)) {// new token\n            tokenSymbol.push(_currency);\n        }\n\n        uint256 totalCollateral = tokenInfos[_currency].totalCollateral;\n        tokenInfos[_currency] = TokenInfo({tokenAddr:_tokenAddr, minCollateral:_minCollateral, totalCollateral:totalCollateral, bClose:_close});\n        emit UpdateTokenSetting(_currency, _tokenAddr, _minCollateral, _close);\n        return true;\n    }\n\n    // delete token info? need to handle it's staking data.\n\n    function UpdateTokenInfo(bytes32 _currency, address _tokenAddr, uint256 _minCollateral, bool _close) external onlyAdmin returns (bool) {\n        return updateTokenInfo(_currency, _tokenAddr, _minCollateral, _close);\n    }\n\n    function UpdateTokenInfos(bytes32[] calldata _symbols, address[] calldata _tokenAddrs, uint256[] calldata _minCollateral, bool[] calldata _closes) external onlyAdmin returns (bool) {\n        require(_symbols.length == _tokenAddrs.length, \"length of array not eq\");\n        require(_symbols.length == _minCollateral.length, \"length of array not eq\");\n        require(_symbols.length == _closes.length, \"length of array not eq\");\n\n        for (uint256 i=0; i < _symbols.length; i++) {\n            updateTokenInfo(_symbols[i], _tokenAddrs[i], _minCollateral[i], _closes[i]);\n        }\n\n        return true;\n    }\n\n    // ------------------------------------------------------------------------\n    function GetSystemTotalCollateralInUsd() public view returns (uint256 rTotal) {\n        for (uint256 i=0; i< tokenSymbol.length; i++) {\n            bytes32 currency = tokenSymbol[i];\n            if (tokenInfos[currency].totalCollateral > 0) { // this check for avoid calling getPrice when collateral is zero\n                if (Currency_LINA == currency) {\n                    uint256 totallina = tokenInfos[currency].totalCollateral.add(mRewardLocker.totalNeedToReward());\n                    rTotal = rTotal.add( totallina.multiplyDecimal(priceGetter.getPrice(currency)) );\n                } else {\n                    rTotal = rTotal.add( tokenInfos[currency].totalCollateral.multiplyDecimal(priceGetter.getPrice(currency)) );\n                }\n            }\n        }\n\n        if (address(this).balance > 0) {\n            rTotal = rTotal.add(address(this).balance.multiplyDecimal(priceGetter.getPrice(Currency_ETH)));\n        }\n    }\n\n    function GetUserTotalCollateralInUsd(address _user) public view returns (uint256 rTotal) {\n        for (uint256 i=0; i< tokenSymbol.length; i++) {\n            bytes32 currency = tokenSymbol[i];\n            if (userCollateralData[_user][currency].collateral > 0) {\n                if (Currency_LINA == currency) {\n                    uint256 totallina = userCollateralData[_user][currency].collateral.add(mRewardLocker.balanceOf(_user));\n                    rTotal = rTotal.add( totallina.multiplyDecimal(priceGetter.getPrice(currency)) );\n                } else {\n                    rTotal = rTotal.add( userCollateralData[_user][currency].collateral.multiplyDecimal(priceGetter.getPrice(currency)) );\n                }\n            }\n        }\n\n        if (userCollateralData[_user][Currency_ETH].collateral > 0) {\n            rTotal = rTotal.add( userCollateralData[_user][Currency_ETH].collateral.multiplyDecimal(priceGetter.getPrice(Currency_ETH)) );\n        }\n    }\n\n    function GetUserCollateral(address _user, bytes32 _currency) external view returns (uint256) {\n        if (Currency_LINA != _currency) {\n            return userCollateralData[_user][_currency].collateral;\n        }\n        return mRewardLocker.balanceOf(_user).add(userCollateralData[_user][_currency].collateral);\n    }\n\n    // NOTE: LINA collateral not include reward in locker\n    function GetUserCollaterals(address _user) external view returns (bytes32[] memory, uint256[] memory) {\n        bytes32[] memory rCurrency = new bytes32[](tokenSymbol.length + 1);\n        uint256[] memory rAmount = new uint256[](tokenSymbol.length + 1);\n        uint256 retSize = 0;\n        for (uint256 i=0; i < tokenSymbol.length; i++) {\n            bytes32 currency = tokenSymbol[i];\n            if (userCollateralData[_user][currency].collateral > 0) {\n                rCurrency[retSize] = currency;\n                rAmount[retSize] = userCollateralData[_user][currency].collateral;\n                retSize++;\n            }\n        }\n        if (userCollateralData[_user][Currency_ETH].collateral > 0) {\n            rCurrency[retSize] = Currency_ETH;\n            rAmount[retSize] = userCollateralData[_user][Currency_ETH].collateral;\n            retSize++;\n        }\n\n        return (rCurrency, rAmount); \n    }\n\n    // need approve\n    function Collateral(bytes32 _currency, uint256 _amount) external whenNotPaused returns (bool) {\n        require(tokenInfos[_currency].tokenAddr.isContract(), \"Invalid token symbol\");\n        TokenInfo storage tokeninfo = tokenInfos[_currency];\n        require(_amount > tokeninfo.minCollateral, \"Collateral amount too small\");\n        require(tokeninfo.bClose == false, \"This token is closed\");\n\n        address user = msg.sender;\n\n        IERC20 erc20 = IERC20(tokenInfos[_currency].tokenAddr);\n        require(erc20.balanceOf(user) >= _amount, \"insufficient balance\");\n        require(erc20.allowance(user, address(this)) >= _amount, \"insufficient allowance, need approve more amount\");\n\n        erc20.transferFrom(user, address(this), _amount);\n\n        userCollateralData[user][_currency].collateral = userCollateralData[user][_currency].collateral.add(_amount);\n        tokeninfo.totalCollateral = tokeninfo.totalCollateral.add(_amount);\n\n        emit CollateralLog(user, _currency, _amount, userCollateralData[user][_currency].collateral);\n        return true;\n    }\n\n    function IsSatisfyTargetRatio(address _user) public view returns(bool) {\n        (uint256 debtBalance, ) = debtSystem.GetUserDebtBalanceInUsd(_user);\n        if (debtBalance == 0) {\n            return true;\n        }\n\n        uint256 buildRatio = mConfig.getUint(mConfig.BUILD_RATIO());\n        uint256 totalCollateralInUsd = GetUserTotalCollateralInUsd(_user);\n        if (totalCollateralInUsd == 0) {\n            return false;\n        }\n        uint256 myratio = debtBalance.divideDecimal(totalCollateralInUsd);\n        return myratio <= buildRatio;\n    }\n\n    //  TODO: return multi value\n    function MaxRedeemableInUsd(address _user) public view returns (uint256) {\n        uint256 totalCollateralInUsd = GetUserTotalCollateralInUsd(_user);\n        \n        (uint256 debtBalance, ) = debtSystem.GetUserDebtBalanceInUsd(_user);\n        if (debtBalance == 0) {\n            return totalCollateralInUsd;\n        }\n\n        uint256 buildRatio = mConfig.getUint(mConfig.BUILD_RATIO());\n        uint256 minCollateral = debtBalance.divideDecimal(buildRatio);\n        if (totalCollateralInUsd < minCollateral) {\n            return 0;\n        }\n        \n        return totalCollateralInUsd.sub(minCollateral);\n    }\n\n    function MaxRedeemable(address user, bytes32 _currency) public view returns(uint256) {\n        uint256 maxRedeemableInUsd = MaxRedeemableInUsd(user);\n        uint256 maxRedeem = maxRedeemableInUsd.divideDecimal(priceGetter.getPrice(_currency));\n        if (maxRedeem > userCollateralData[user][_currency].collateral) {\n            maxRedeem = userCollateralData[user][_currency].collateral;\n        }\n        if (Currency_LINA != _currency) {\n            return maxRedeem;\n        }\n        uint256 lockedLina = mRewardLocker.balanceOf(user);\n        if (maxRedeem <= lockedLina) {\n            return 0;\n        }\n        return maxRedeem.sub(lockedLina);\n    }\n\n    function RedeemMax(bytes32 _currency) external whenNotPaused {\n        address user = msg.sender;\n        uint256 maxRedeem = MaxRedeemable(user, _currency);\n        _Redeem(user, _currency, maxRedeem);\n    }\n\n    function _Redeem(address user, bytes32 _currency, uint256 _amount) internal {\n        require(_amount <= userCollateralData[user][_currency].collateral, \"Can not redeem more than collateral\");\n        require(_amount > 0, \"Redeem amount need larger than zero\");\n\n        uint256 maxRedeemableInUsd = MaxRedeemableInUsd(user);\n        uint256 maxRedeem = maxRedeemableInUsd.divideDecimal(priceGetter.getPrice(_currency));\n        require(_amount <= maxRedeem, \"Because lower collateral ratio, can not redeem too much\");\n\n        userCollateralData[user][_currency].collateral = userCollateralData[user][_currency].collateral.sub(_amount);\n\n        TokenInfo storage tokeninfo = tokenInfos[_currency];\n        tokeninfo.totalCollateral = tokeninfo.totalCollateral.sub(_amount);\n\n        IERC20(tokenInfos[_currency].tokenAddr).transfer(user, _amount);\n\n        emit RedeemCollateral(user, _currency, _amount, userCollateralData[user][_currency].collateral);\n    }\n\n    // 1. After redeem, collateral ratio need bigger than target ratio.\n    // 2. Cannot redeem more than collateral.\n    function Redeem(bytes32 _currency, uint256 _amount) public whenNotPaused returns (bool) {\n        address user = msg.sender;\n        _Redeem(user, _currency, _amount);\n        return true;\n    }\n\n    receive() external whenNotPaused payable {\n        address user = msg.sender;\n        uint256 ethAmount = msg.value;\n        _CollateralEth(user, ethAmount);\n    }\n\n    function _CollateralEth(address user, uint256 ethAmount) internal {\n        require(ethAmount > 0, \"ETH amount need more than zero\");\n        \n        userCollateralData[user][Currency_ETH].collateral = userCollateralData[user][Currency_ETH].collateral.add(ethAmount);\n\n        emit CollateralLog(user, Currency_ETH, ethAmount, userCollateralData[user][Currency_ETH].collateral);\n    }\n\n    // payable eth receive, \n    function CollateralEth() external payable whenNotPaused returns (bool) {\n        address user = msg.sender;\n        uint256 ethAmount = msg.value;\n        _CollateralEth(user, ethAmount);\n        return true;\n    }\n\n    function RedeemETH(uint256 _amount) external whenNotPaused returns (bool) {\n        address payable user = msg.sender;\n        require(_amount <= userCollateralData[user][Currency_ETH].collateral, \"Can not redeem more than collateral\");\n        require(_amount > 0, \"Redeem amount need larger than zero\");\n\n        uint256 maxRedeemableInUsd = MaxRedeemableInUsd(user);\n        \n        uint256 maxRedeem = maxRedeemableInUsd.divideDecimal(priceGetter.getPrice(Currency_ETH));\n        require(_amount <= maxRedeem, \"Because lower collateral ratio, can not redeem too much\");\n\n        userCollateralData[user][Currency_ETH].collateral = userCollateralData[user][Currency_ETH].collateral.sub(_amount);\n        user.transfer(_amount);\n\n        emit RedeemCollateral(user, Currency_ETH, _amount, userCollateralData[user][Currency_ETH].collateral);\n        return true;\n    }\n\n    event UpdateTokenSetting(bytes32 symbol, address tokenAddr, uint256 minCollateral, bool close);\n    event CollateralLog(address user, bytes32 _currency, uint256 _amount, uint256 _userTotal);\n    event RedeemCollateral(address user, bytes32 _currency, uint256 _amount, uint256 _userTotal);\n}\n",
  "sourcePath": "/Users/michael/Linear-finance/Linear/contracts/LnCollateralSystem.sol",
  "compiler": {
    "name": "solc",
    "version": "0.6.12+commit.27d51765.Emscripten.clang"
  },
  "schemaVersion": "3.3.1",
  "updatedAt": "2020-11-07T09:09:48.744Z",
  "networkType": "ethereum",
  "devdoc": {
    "kind": "dev",
    "methods": {
      "paused()": {
        "details": "Returns true if the contract is paused, and false otherwise."
      }
    },
    "version": 1
  },
  "userdoc": {
    "kind": "user",
    "methods": {},
    "version": 1
  }
}