{
  "contractName": "LnFeeSystem",
  "abi": [
    {
      "inputs": [
        {
          "internalType": "address",
          "name": "_admin",
          "type": "address"
        }
      ],
      "stateMutability": "nonpayable",
      "type": "constructor"
    },
    {
      "anonymous": false,
      "inputs": [
        {
          "indexed": false,
          "internalType": "address",
          "name": "oldAdmin",
          "type": "address"
        },
        {
          "indexed": false,
          "internalType": "address",
          "name": "newAdmin",
          "type": "address"
        }
      ],
      "name": "AdminChanged",
      "type": "event"
    },
    {
      "anonymous": false,
      "inputs": [
        {
          "indexed": false,
          "internalType": "uint256",
          "name": "feeUsd",
          "type": "uint256"
        }
      ],
      "name": "ExchangeFee",
      "type": "event"
    },
    {
      "anonymous": false,
      "inputs": [
        {
          "indexed": false,
          "internalType": "address",
          "name": "user",
          "type": "address"
        },
        {
          "indexed": false,
          "internalType": "uint256",
          "name": "lUSDAmount",
          "type": "uint256"
        },
        {
          "indexed": false,
          "internalType": "uint256",
          "name": "linaRewards",
          "type": "uint256"
        }
      ],
      "name": "FeesClaimed",
      "type": "event"
    },
    {
      "anonymous": false,
      "inputs": [
        {
          "indexed": false,
          "internalType": "uint256",
          "name": "reward",
          "type": "uint256"
        }
      ],
      "name": "RewardCollateral",
      "type": "event"
    },
    {
      "anonymous": false,
      "inputs": [
        {
          "indexed": false,
          "internalType": "address",
          "name": "oldCandidate",
          "type": "address"
        },
        {
          "indexed": false,
          "internalType": "address",
          "name": "newCandidate",
          "type": "address"
        }
      ],
      "name": "candidateChanged",
      "type": "event"
    },
    {
      "anonymous": false,
      "inputs": [
        {
          "indexed": false,
          "internalType": "bytes32",
          "name": "name",
          "type": "bytes32"
        },
        {
          "indexed": false,
          "internalType": "address",
          "name": "addr",
          "type": "address"
        }
      ],
      "name": "updateCachedAddress",
      "type": "event"
    },
    {
      "inputs": [],
      "name": "FEE_DUMMY_ADDRESS",
      "outputs": [
        {
          "internalType": "address",
          "name": "",
          "type": "address"
        }
      ],
      "stateMutability": "view",
      "type": "function"
    },
    {
      "inputs": [],
      "name": "LockTime",
      "outputs": [
        {
          "internalType": "uint64",
          "name": "",
          "type": "uint64"
        }
      ],
      "stateMutability": "view",
      "type": "function"
    },
    {
      "inputs": [],
      "name": "OnePeriodSecs",
      "outputs": [
        {
          "internalType": "uint256",
          "name": "",
          "type": "uint256"
        }
      ],
      "stateMutability": "view",
      "type": "function"
    },
    {
      "inputs": [],
      "name": "admin",
      "outputs": [
        {
          "internalType": "address",
          "name": "",
          "type": "address"
        }
      ],
      "stateMutability": "view",
      "type": "function"
    },
    {
      "inputs": [],
      "name": "becomeAdmin",
      "outputs": [],
      "stateMutability": "nonpayable",
      "type": "function"
    },
    {
      "inputs": [],
      "name": "candidate",
      "outputs": [
        {
          "internalType": "address",
          "name": "",
          "type": "address"
        }
      ],
      "stateMutability": "view",
      "type": "function"
    },
    {
      "inputs": [],
      "name": "collateralSystem",
      "outputs": [
        {
          "internalType": "contract LnCollateralSystem",
          "name": "",
          "type": "address"
        }
      ],
      "stateMutability": "view",
      "type": "function"
    },
    {
      "inputs": [],
      "name": "curRewardPeriod",
      "outputs": [
        {
          "internalType": "uint256",
          "name": "id",
          "type": "uint256"
        },
        {
          "internalType": "uint256",
          "name": "startingDebtFactor",
          "type": "uint256"
        },
        {
          "internalType": "uint256",
          "name": "startTime",
          "type": "uint256"
        },
        {
          "internalType": "uint256",
          "name": "feesToDistribute",
          "type": "uint256"
        },
        {
          "internalType": "uint256",
          "name": "feesClaimed",
          "type": "uint256"
        },
        {
          "internalType": "uint256",
          "name": "rewardsToDistribute",
          "type": "uint256"
        },
        {
          "internalType": "uint256",
          "name": "rewardsClaimed",
          "type": "uint256"
        }
      ],
      "stateMutability": "view",
      "type": "function"
    },
    {
      "inputs": [],
      "name": "debtSystem",
      "outputs": [
        {
          "internalType": "contract LnDebtSystem",
          "name": "",
          "type": "address"
        }
      ],
      "stateMutability": "view",
      "type": "function"
    },
    {
      "inputs": [],
      "name": "exchangeSystemAddress",
      "outputs": [
        {
          "internalType": "address",
          "name": "",
          "type": "address"
        }
      ],
      "stateMutability": "view",
      "type": "function"
    },
    {
      "inputs": [],
      "name": "preRewardPeriod",
      "outputs": [
        {
          "internalType": "uint256",
          "name": "id",
          "type": "uint256"
        },
        {
          "internalType": "uint256",
          "name": "startingDebtFactor",
          "type": "uint256"
        },
        {
          "internalType": "uint256",
          "name": "startTime",
          "type": "uint256"
        },
        {
          "internalType": "uint256",
          "name": "feesToDistribute",
          "type": "uint256"
        },
        {
          "internalType": "uint256",
          "name": "feesClaimed",
          "type": "uint256"
        },
        {
          "internalType": "uint256",
          "name": "rewardsToDistribute",
          "type": "uint256"
        },
        {
          "internalType": "uint256",
          "name": "rewardsClaimed",
          "type": "uint256"
        }
      ],
      "stateMutability": "view",
      "type": "function"
    },
    {
      "inputs": [],
      "name": "rewardDistributer",
      "outputs": [
        {
          "internalType": "address",
          "name": "",
          "type": "address"
        }
      ],
      "stateMutability": "view",
      "type": "function"
    },
    {
      "inputs": [],
      "name": "rewardLocker",
      "outputs": [
        {
          "internalType": "contract LnRewardLocker",
          "name": "",
          "type": "address"
        }
      ],
      "stateMutability": "view",
      "type": "function"
    },
    {
      "inputs": [
        {
          "internalType": "address",
          "name": "_candidate",
          "type": "address"
        }
      ],
      "name": "setCandidate",
      "outputs": [],
      "stateMutability": "nonpayable",
      "type": "function"
    },
    {
      "inputs": [
        {
          "internalType": "address",
          "name": "",
          "type": "address"
        }
      ],
      "name": "userLastClaimedId",
      "outputs": [
        {
          "internalType": "uint256",
          "name": "",
          "type": "uint256"
        }
      ],
      "stateMutability": "view",
      "type": "function"
    },
    {
      "inputs": [
        {
          "internalType": "address",
          "name": "",
          "type": "address"
        },
        {
          "internalType": "uint256",
          "name": "",
          "type": "uint256"
        }
      ],
      "name": "userPeriodDebt",
      "outputs": [
        {
          "internalType": "uint256",
          "name": "PeriodID",
          "type": "uint256"
        },
        {
          "internalType": "uint256",
          "name": "debtProportion",
          "type": "uint256"
        },
        {
          "internalType": "uint256",
          "name": "debtFactor",
          "type": "uint256"
        }
      ],
      "stateMutability": "view",
      "type": "function"
    },
    {
      "inputs": [
        {
          "internalType": "address",
          "name": "_exchangeSystem",
          "type": "address"
        },
        {
          "internalType": "address",
          "name": "_rewardDistri",
          "type": "address"
        }
      ],
      "name": "Init",
      "outputs": [],
      "stateMutability": "nonpayable",
      "type": "function"
    },
    {
      "inputs": [
        {
          "internalType": "int16",
          "name": "index",
          "type": "int16"
        },
        {
          "internalType": "uint256",
          "name": "id",
          "type": "uint256"
        },
        {
          "internalType": "uint256",
          "name": "startingDebtFactor",
          "type": "uint256"
        },
        {
          "internalType": "uint256",
          "name": "startTime",
          "type": "uint256"
        },
        {
          "internalType": "uint256",
          "name": "feesToDistribute",
          "type": "uint256"
        },
        {
          "internalType": "uint256",
          "name": "feesClaimed",
          "type": "uint256"
        },
        {
          "internalType": "uint256",
          "name": "rewardsToDistribute",
          "type": "uint256"
        },
        {
          "internalType": "uint256",
          "name": "rewardsClaimed",
          "type": "uint256"
        }
      ],
      "name": "SetPeriodData",
      "outputs": [],
      "stateMutability": "nonpayable",
      "type": "function"
    },
    {
      "inputs": [
        {
          "internalType": "address",
          "name": "_address",
          "type": "address"
        }
      ],
      "name": "setExchangeSystemAddress",
      "outputs": [],
      "stateMutability": "nonpayable",
      "type": "function"
    },
    {
      "inputs": [
        {
          "internalType": "uint256",
          "name": "feeUsd",
          "type": "uint256"
        }
      ],
      "name": "addExchangeFee",
      "outputs": [],
      "stateMutability": "nonpayable",
      "type": "function"
    },
    {
      "inputs": [
        {
          "internalType": "uint256",
          "name": "reward",
          "type": "uint256"
        }
      ],
      "name": "addCollateralRewards",
      "outputs": [],
      "stateMutability": "nonpayable",
      "type": "function"
    },
    {
      "inputs": [
        {
          "internalType": "contract LnAddressStorage",
          "name": "_addressStorage",
          "type": "address"
        }
      ],
      "name": "updateAddressCache",
      "outputs": [],
      "stateMutability": "nonpayable",
      "type": "function"
    },
    {
      "inputs": [],
      "name": "switchPeriod",
      "outputs": [],
      "stateMutability": "nonpayable",
      "type": "function"
    },
    {
      "inputs": [],
      "name": "feePeriodDuration",
      "outputs": [
        {
          "internalType": "uint256",
          "name": "",
          "type": "uint256"
        }
      ],
      "stateMutability": "view",
      "type": "function"
    },
    {
      "inputs": [
        {
          "internalType": "uint256",
          "name": "index",
          "type": "uint256"
        }
      ],
      "name": "recentFeePeriods",
      "outputs": [
        {
          "internalType": "uint256",
          "name": "id",
          "type": "uint256"
        },
        {
          "internalType": "uint256",
          "name": "startingDebtFactor",
          "type": "uint256"
        },
        {
          "internalType": "uint256",
          "name": "startTime",
          "type": "uint256"
        },
        {
          "internalType": "uint256",
          "name": "feesToDistribute",
          "type": "uint256"
        },
        {
          "internalType": "uint256",
          "name": "feesClaimed",
          "type": "uint256"
        },
        {
          "internalType": "uint256",
          "name": "rewardsToDistribute",
          "type": "uint256"
        },
        {
          "internalType": "uint256",
          "name": "rewardsClaimed",
          "type": "uint256"
        }
      ],
      "stateMutability": "view",
      "type": "function"
    },
    {
      "inputs": [
        {
          "internalType": "address",
          "name": "user",
          "type": "address"
        },
        {
          "internalType": "uint256",
          "name": "debtProportion",
          "type": "uint256"
        },
        {
          "internalType": "uint256",
          "name": "debtFactor",
          "type": "uint256"
        }
      ],
      "name": "RecordUserDebt",
      "outputs": [],
      "stateMutability": "nonpayable",
      "type": "function"
    },
    {
      "inputs": [
        {
          "internalType": "address",
          "name": "account",
          "type": "address"
        }
      ],
      "name": "isFeesClaimable",
      "outputs": [
        {
          "internalType": "bool",
          "name": "feesClaimable",
          "type": "bool"
        }
      ],
      "stateMutability": "view",
      "type": "function"
    },
    {
      "inputs": [
        {
          "internalType": "address",
          "name": "user",
          "type": "address"
        }
      ],
      "name": "feesAvailable",
      "outputs": [
        {
          "internalType": "uint256",
          "name": "",
          "type": "uint256"
        },
        {
          "internalType": "uint256",
          "name": "",
          "type": "uint256"
        }
      ],
      "stateMutability": "view",
      "type": "function"
    },
    {
      "inputs": [],
      "name": "claimFees",
      "outputs": [
        {
          "internalType": "bool",
          "name": "",
          "type": "bool"
        }
      ],
      "stateMutability": "nonpayable",
      "type": "function"
    }
  ],
  "bytecode": "0x608060405262093a806010556301dfe200601160006101000a81548167ffffffffffffffff021916908367ffffffffffffffff16021790555034801561004457600080fd5b506040516133de3803806133de8339818101604052602081101561006757600080fd5b810190808051906020019092919050505080600073ffffffffffffffffffffffffffffffffffffffff168173ffffffffffffffffffffffffffffffffffffffff16141561011c576040517f08c379a00000000000000000000000000000000000000000000000000000000081526004018080602001828103825260198152602001807f61646d696e20616464726573732063616e6e6f7420626520300000000000000081525060200191505060405180910390fd5b806000806101000a81548173ffffffffffffffffffffffffffffffffffffffff021916908373ffffffffffffffffffffffffffffffffffffffff1602179055507f7e644d79422f17c01e4894b5f4f588d331ebfa28653d42ae832dc59e38c9798f600082604051808373ffffffffffffffffffffffffffffffffffffffff1681526020018273ffffffffffffffffffffffffffffffffffffffff1681526020019250505060405180910390a15050613205806101d96000396000f3fe608060405234801561001057600080fd5b50600436106101cf5760003560e01c806359a2f19f116101045780638b519fd9116100a2578063d294f09311610071578063d294f093146107d5578063e7d7701b146107f5578063f1335ca714610839578063f851a440146108b1576101cf565b80638b519fd9146106f9578063b3f3e67314610727578063bae747db14610731578063bc02909114610765576101cf565b80636c8381f8116100de5780636c8381f8146105dd578063704d351214610611578063708d5210146106695780637f86b71b146106b1576101cf565b806359a2f19f1461051157806359ed60051461056b5780635a5f14c814610599576101cf565b80633892601c116101715780634b86f75f1161014b5780634b86f75f146104635780634bcff4601461049757806353d2341d146104b557806354cf2d79146104e9576101cf565b80633892601c1461035f5780633fcd22401461039357806345acd56f146103ff576101cf565b806322425fa4116101ad57806322425fa4146102ab57806325971dff146102c957806335e4a171146102d357806336babe7a1461032b576101cf565b806307880b7f146101d45780630de586151461021857806321f4808e14610277575b600080fd5b610216600480360360208110156101ea57600080fd5b81019080803573ffffffffffffffffffffffffffffffffffffffff1690602001909291905050506108e5565b005b61025a6004803603602081101561022e57600080fd5b81019080803573ffffffffffffffffffffffffffffffffffffffff169060200190929190505050610a82565b604051808381526020018281526020019250505060405180910390f35b61027f610d61565b604051808273ffffffffffffffffffffffffffffffffffffffff16815260200191505060405180910390f35b6102b3610d87565b6040518082815260200191505060405180910390f35b6102d1610d91565b005b610329600480360360608110156102e957600080fd5b81019080803573ffffffffffffffffffffffffffffffffffffffff1690602001909291908035906020019092919080359060200190929190505050610f6a565b005b6103336112d2565b604051808273ffffffffffffffffffffffffffffffffffffffff16815260200191505060405180910390f35b6103676112f8565b604051808273ffffffffffffffffffffffffffffffffffffffff16815260200191505060405180910390f35b6103bf600480360360208110156103a957600080fd5b810190808035906020019092919050505061131e565b6040518088815260200187815260200186815260200185815260200184815260200183815260200182815260200197505050505050505060405180910390f35b6104616004803603604081101561041557600080fd5b81019080803573ffffffffffffffffffffffffffffffffffffffff169060200190929190803573ffffffffffffffffffffffffffffffffffffffff16906020019092919050505061144f565b005b61046b611579565b604051808273ffffffffffffffffffffffffffffffffffffffff16815260200191505060405180910390f35b61049f61159f565b6040518082815260200191505060405180910390f35b6104bd6115a5565b604051808273ffffffffffffffffffffffffffffffffffffffff16815260200191505060405180910390f35b6104f16115cb565b604051808267ffffffffffffffff16815260200191505060405180910390f35b6105536004803603602081101561052757600080fd5b81019080803573ffffffffffffffffffffffffffffffffffffffff1690602001909291905050506115e5565b60405180821515815260200191505060405180910390f35b6105976004803603602081101561058157600080fd5b810190808035906020019092919050505061171e565b005b6105db600480360360208110156105af57600080fd5b81019080803573ffffffffffffffffffffffffffffffffffffffff16906020019092919050505061183c565b005b6105e561215b565b604051808273ffffffffffffffffffffffffffffffffffffffff16815260200191505060405180910390f35b6106536004803603602081101561062757600080fd5b81019080803573ffffffffffffffffffffffffffffffffffffffff169060200190929190505050612181565b6040518082815260200191505060405180910390f35b610671612199565b6040518088815260200187815260200186815260200185815260200184815260200183815260200182815260200197505050505050505060405180910390f35b6106b96121c9565b6040518088815260200187815260200186815260200185815260200184815260200183815260200182815260200197505050505050505060405180910390f35b6107256004803603602081101561070f57600080fd5b81019080803590602001909291905050506121f9565b005b61072f612317565b005b610739612546565b604051808273ffffffffffffffffffffffffffffffffffffffff16815260200191505060405180910390f35b6107b16004803603604081101561077b57600080fd5b81019080803573ffffffffffffffffffffffffffffffffffffffff1690602001909291908035906020019092919050505061254c565b60405180848152602001838152602001828152602001935050505060405180910390f35b6107dd612586565b60405180821515815260200191505060405180910390f35b6108376004803603602081101561080b57600080fd5b81019080803573ffffffffffffffffffffffffffffffffffffffff169060200190929190505050612a61565b005b6108af600480360361010081101561085057600080fd5b81019080803560010b906020019092919080359060200190929190803590602001909291908035906020019092919080359060200190929190803590602001909291908035906020019092919080359060200190929190505050612b49565b005b6108b9612c4f565b604051808273ffffffffffffffffffffffffffffffffffffffff16815260200191505060405180910390f35b60008054906101000a900473ffffffffffffffffffffffffffffffffffffffff1673ffffffffffffffffffffffffffffffffffffffff163373ffffffffffffffffffffffffffffffffffffffff1614610989576040517f08c379a000000000000000000000000000000000000000000000000000000000815260040180806020018281038252602f8152602001806131a1602f913960400191505060405180910390fd5b6000600160009054906101000a900473ffffffffffffffffffffffffffffffffffffffff16905081600160006101000a81548173ffffffffffffffffffffffffffffffffffffffff021916908373ffffffffffffffffffffffffffffffffffffffff1602179055507f0faed18be9e8f4d4c05dfbcc80ea2c97a0be729614d766827778f60890c02cab81600160009054906101000a900473ffffffffffffffffffffffffffffffffffffffff16604051808373ffffffffffffffffffffffffffffffffffffffff1681526020018273ffffffffffffffffffffffffffffffffffffffff1681526020019250505060405180910390a15050565b6000806000600960030154148015610a9f57506000600960050154145b15610ab05760008091509150610d5c565b6000806000805b601360008873ffffffffffffffffffffffffffffffffffffffff1673ffffffffffffffffffffffffffffffffffffffff1681526020019081526020016000205060028167ffffffffffffffff161015610caa57600260000154601360008973ffffffffffffffffffffffffffffffffffffffff1673ffffffffffffffffffffffffffffffffffffffff1681526020019081526020016000208267ffffffffffffffff1660028110610b6457fe5b6003020160000154108015610bd3575081601360008973ffffffffffffffffffffffffffffffffffffffff1673ffffffffffffffffffffffffffffffffffffffff1681526020019081526020016000208267ffffffffffffffff1660028110610bc957fe5b6003020160000154115b15610c9d576002600001549150601360008873ffffffffffffffffffffffffffffffffffffffff1673ffffffffffffffffffffffffffffffffffffffff1681526020019081526020016000208167ffffffffffffffff1660028110610c3457fe5b60030201600201549350601360008873ffffffffffffffffffffffffffffffffffffffff1673ffffffffffffffffffffffffffffffffffffffff1681526020019081526020016000208167ffffffffffffffff1660028110610c9257fe5b600302016001015492505b8080600101915050610ab7565b506000821415610cc35760008094509450505050610d5c565b600060026001015490506000610cf484610ce68785612c7390919063ffffffff16565b612c8f90919063ffffffff16565b90506000610d20610d1b83610d0d600960030154612cab565b612c8f90919063ffffffff16565b612cd1565b90506000610d4c610d4784610d39600960050154612cab565b612c8f90919063ffffffff16565b612cd1565b9050818198509850505050505050505b915091565b601560009054906101000a900473ffffffffffffffffffffffffffffffffffffffff1681565b6000601054905090565b600160009054906101000a900473ffffffffffffffffffffffffffffffffffffffff1673ffffffffffffffffffffffffffffffffffffffff163373ffffffffffffffffffffffffffffffffffffffff1614610e54576040517f08c379a000000000000000000000000000000000000000000000000000000000815260040180806020018281038252601f8152602001807f4f6e6c792063616e6469646174652063616e206265636f6d652061646d696e0081525060200191505060405180910390fd5b60008060009054906101000a900473ffffffffffffffffffffffffffffffffffffffff169050600160009054906101000a900473ffffffffffffffffffffffffffffffffffffffff166000806101000a81548173ffffffffffffffffffffffffffffffffffffffff021916908373ffffffffffffffffffffffffffffffffffffffff1602179055507f7e644d79422f17c01e4894b5f4f588d331ebfa28653d42ae832dc59e38c9798f8160008054906101000a900473ffffffffffffffffffffffffffffffffffffffff16604051808373ffffffffffffffffffffffffffffffffffffffff1681526020018273ffffffffffffffffffffffffffffffffffffffff1681526020019250505060405180910390a150565b601460009054906101000a900473ffffffffffffffffffffffffffffffffffffffff1673ffffffffffffffffffffffffffffffffffffffff163373ffffffffffffffffffffffffffffffffffffffff161461102d576040517f08c379a00000000000000000000000000000000000000000000000000000000081526004018080602001828103825260158152602001807f4f6e6c7920446562742073797374656d2063616c6c000000000000000000000081525060200191505060405180910390fd5b600060026000015490506000601360008673ffffffffffffffffffffffffffffffffffffffff1673ffffffffffffffffffffffffffffffffffffffff16815260200190815260200160002060016002811061108457fe5b6003020160000154601360008773ffffffffffffffffffffffffffffffffffffffff1673ffffffffffffffffffffffffffffffffffffffff1681526020019081526020016000206000600281106110d757fe5b600302016000015411156110ea57600190505b600081905060005b601360008873ffffffffffffffffffffffffffffffffffffffff1673ffffffffffffffffffffffffffffffffffffffff1681526020019081526020016000205060028167ffffffffffffffff1610156111c75783601360008973ffffffffffffffffffffffffffffffffffffffff1673ffffffffffffffffffffffffffffffffffffffff1681526020019081526020016000208267ffffffffffffffff166002811061119a57fe5b600302016000015414156111ba578067ffffffffffffffff1691506111c7565b80806001019150506110f2565b5082601360008873ffffffffffffffffffffffffffffffffffffffff1673ffffffffffffffffffffffffffffffffffffffff168152602001908152602001600020826002811061121357fe5b600302016000018190555084601360008873ffffffffffffffffffffffffffffffffffffffff1673ffffffffffffffffffffffffffffffffffffffff168152602001908152602001600020826002811061126957fe5b600302016001018190555083601360008873ffffffffffffffffffffffffffffffffffffffff1673ffffffffffffffffffffffffffffffffffffffff16815260200190815260200160002082600281106112bf57fe5b6003020160020181905550505050505050565b601960009054906101000a900473ffffffffffffffffffffffffffffffffffffffff1681565b601660009054906101000a900473ffffffffffffffffffffffffffffffffffffffff1681565b600080600080600080600060018811156113505760008060008060008060009650965096509650965096509650611444565b6113586130fc565b60008914156113bb5760026040518060e00160405290816000820154815260200160018201548152602001600282015481526020016003820154815260200160048201548152602001600582015481526020016006820154815250509050611411565b60096040518060e001604052908160008201548152602001600182015481526020016002820154815260200160038201548152602001600482015481526020016005820154815260200160068201548152505090505b806000015181602001518260400151836060015184608001518560a001518660c001519750975097509750975097509750505b919395979092949650565b60008054906101000a900473ffffffffffffffffffffffffffffffffffffffff1673ffffffffffffffffffffffffffffffffffffffff163373ffffffffffffffffffffffffffffffffffffffff16146114f3576040517f08c379a000000000000000000000000000000000000000000000000000000000815260040180806020018281038252602f8152602001806131a1602f913960400191505060405180910390fd5b81601860006101000a81548173ffffffffffffffffffffffffffffffffffffffff021916908373ffffffffffffffffffffffffffffffffffffffff16021790555080601960006101000a81548173ffffffffffffffffffffffffffffffffffffffff021916908373ffffffffffffffffffffffffffffffffffffffff1602179055505050565b601460009054906101000a900473ffffffffffffffffffffffffffffffffffffffff1681565b60105481565b601860009054906101000a900473ffffffffffffffffffffffffffffffffffffffff1681565b601160009054906101000a900467ffffffffffffffff1681565b6000801515601560009054906101000a900473ffffffffffffffffffffffffffffffffffffffff1673ffffffffffffffffffffffffffffffffffffffff1663bc65d434846040518263ffffffff1660e01b8152600401808273ffffffffffffffffffffffffffffffffffffffff16815260200191505060206040518083038186803b15801561167357600080fd5b505afa158015611687573d6000803e3d6000fd5b505050506040513d602081101561169d57600080fd5b8101908080519060200190929190505050151514156116bf5760009050611719565b600960000154601260008473ffffffffffffffffffffffffffffffffffffffff1673ffffffffffffffffffffffffffffffffffffffff1681526020019081526020016000205414156117145760009050611719565b600190505b919050565b601860009054906101000a900473ffffffffffffffffffffffffffffffffffffffff1673ffffffffffffffffffffffffffffffffffffffff163373ffffffffffffffffffffffffffffffffffffffff16146117e1576040517f08c379a00000000000000000000000000000000000000000000000000000000081526004018080602001828103825260198152602001807f4f6e6c792045786368616e67652053797374656d2063616c6c0000000000000081525060200191505060405180910390fd5b6117f981600260030154612d2090919063ffffffff16565b6002600301819055507f2346b504ea081713647f1908441e88428ad81a40c85a6e4a664cf0bf20b6a31a816040518082815260200191505060405180910390a150565b60008054906101000a900473ffffffffffffffffffffffffffffffffffffffff1673ffffffffffffffffffffffffffffffffffffffff163373ffffffffffffffffffffffffffffffffffffffff16146118e0576040517f08c379a000000000000000000000000000000000000000000000000000000000815260040180806020018281038252602f8152602001806131a1602f913960400191505060405180910390fd5b8073ffffffffffffffffffffffffffffffffffffffff1663768911da6040518163ffffffff1660e01b815260040180807f4c6e4465627453797374656d0000000000000000000000000000000000000000815250602001806020018281038252601e8152602001807f4c6e4465627453797374656d2061646472657373206e6f742076616c6964000081525060200191505060206040518083038186803b15801561198a57600080fd5b505afa15801561199e573d6000803e3d6000fd5b505050506040513d60208110156119b457600080fd5b8101908080519060200190929190505050601460006101000a81548173ffffffffffffffffffffffffffffffffffffffff021916908373ffffffffffffffffffffffffffffffffffffffff16021790555060008173ffffffffffffffffffffffffffffffffffffffff1663768911da6040518163ffffffff1660e01b815260040180807f4c6e436f6c6c61746572616c53797374656d0000000000000000000000000000815250602001806020018281038252602481526020018061315c6024913960400191505060206040518083038186803b158015611a9457600080fd5b505afa158015611aa8573d6000803e3d6000fd5b505050506040513d6020811015611abe57600080fd5b8101908080519060200190929190505050905080601560006101000a81548173ffffffffffffffffffffffffffffffffffffffff021916908373ffffffffffffffffffffffffffffffffffffffff1602179055508173ffffffffffffffffffffffffffffffffffffffff1663768911da6040518163ffffffff1660e01b815260040180807f4c6e5265776172644c6f636b657200000000000000000000000000000000000081525060200180602001828103825260208152602001807f4c6e5265776172644c6f636b65722061646472657373206e6f742076616c696481525060200191505060206040518083038186803b158015611bbc57600080fd5b505afa158015611bd0573d6000803e3d6000fd5b505050506040513d6020811015611be657600080fd5b8101908080519060200190929190505050601660006101000a81548173ffffffffffffffffffffffffffffffffffffffff021916908373ffffffffffffffffffffffffffffffffffffffff1602179055508173ffffffffffffffffffffffffffffffffffffffff1663768911da6040518163ffffffff1660e01b815260040180807f4c6e417373657453797374656d00000000000000000000000000000000000000815250602001806020018281038252601f8152602001807f4c6e417373657453797374656d2061646472657373206e6f742076616c69640081525060200191505060206040518083038186803b158015611ce157600080fd5b505afa158015611cf5573d6000803e3d6000fd5b505050506040513d6020811015611d0b57600080fd5b8101908080519060200190929190505050601760006101000a81548173ffffffffffffffffffffffffffffffffffffffff021916908373ffffffffffffffffffffffffffffffffffffffff1602179055508173ffffffffffffffffffffffffffffffffffffffff1663768911da6040518163ffffffff1660e01b815260040180807f4c6e45786368616e676553797374656d00000000000000000000000000000000815250602001806020018281038252602281526020018061313a6022913960400191505060206040518083038186803b158015611de957600080fd5b505afa158015611dfd573d6000803e3d6000fd5b505050506040513d6020811015611e1357600080fd5b8101908080519060200190929190505050601860006101000a81548173ffffffffffffffffffffffffffffffffffffffff021916908373ffffffffffffffffffffffffffffffffffffffff1602179055507f45a7f8d84f7ad724869d024abcaa743ae6aec455a969df76b5d1e9c5cac4d2ae601460009054906101000a900473ffffffffffffffffffffffffffffffffffffffff1660405180807f4c6e4465627453797374656d00000000000000000000000000000000000000008152506020018273ffffffffffffffffffffffffffffffffffffffff16815260200191505060405180910390a17f45a7f8d84f7ad724869d024abcaa743ae6aec455a969df76b5d1e9c5cac4d2ae601560009054906101000a900473ffffffffffffffffffffffffffffffffffffffff1660405180807f4c6e436f6c6c61746572616c53797374656d00000000000000000000000000008152506020018273ffffffffffffffffffffffffffffffffffffffff16815260200191505060405180910390a17f45a7f8d84f7ad724869d024abcaa743ae6aec455a969df76b5d1e9c5cac4d2ae601660009054906101000a900473ffffffffffffffffffffffffffffffffffffffff1660405180807f4c6e5265776172644c6f636b65720000000000000000000000000000000000008152506020018273ffffffffffffffffffffffffffffffffffffffff16815260200191505060405180910390a17f45a7f8d84f7ad724869d024abcaa743ae6aec455a969df76b5d1e9c5cac4d2ae601760009054906101000a900473ffffffffffffffffffffffffffffffffffffffff1660405180807f4c6e417373657453797374656d000000000000000000000000000000000000008152506020018273ffffffffffffffffffffffffffffffffffffffff16815260200191505060405180910390a17f45a7f8d84f7ad724869d024abcaa743ae6aec455a969df76b5d1e9c5cac4d2ae601860009054906101000a900473ffffffffffffffffffffffffffffffffffffffff1660405180807f4c6e45786368616e676553797374656d000000000000000000000000000000008152506020018273ffffffffffffffffffffffffffffffffffffffff16815260200191505060405180910390a15050565b600160009054906101000a900473ffffffffffffffffffffffffffffffffffffffff1681565b60126020528060005260406000206000915090505481565b60028060000154908060010154908060020154908060030154908060040154908060050154908060060154905087565b60098060000154908060010154908060020154908060030154908060040154908060050154908060060154905087565b601960009054906101000a900473ffffffffffffffffffffffffffffffffffffffff1673ffffffffffffffffffffffffffffffffffffffff163373ffffffffffffffffffffffffffffffffffffffff16146122bc576040517f08c379a000000000000000000000000000000000000000000000000000000000815260040180806020018281038252601c8152602001807f4f6e6c79205265776172642044697374726962757465722063616c6c0000000081525060200191505060405180910390fd5b6122d481600260050154612d2090919063ffffffff16565b6002600501819055507f953cfafd534d5937356e70b7110370f0c59577ead2e8162eb4969201531c72c4816040518082815260200191505060405180910390a150565b601054600280015401421015612395576040517f08c379a00000000000000000000000000000000000000000000000000000000081526004018080602001828103825260178152602001807f49742773206e6f742074696d6520746f2073776974636800000000000000000081525060200191505060405180910390fd5b60026000015460096000018190555060026001015460096001018190555060028001546009600201819055506123f56123e1600960040154600960030154612da890919063ffffffff16565b600260030154612d2090919063ffffffff16565b600960030181905550600060096004018190555061243d612429600960060154600960050154612da890919063ffffffff16565b600260050154612d2090919063ffffffff16565b6009600501819055506000600960060181905550600160026000015401600260000181905550601460009054906101000a900473ffffffffffffffffffffffffffffffffffffffff1673ffffffffffffffffffffffffffffffffffffffff1663cb6a11056040518163ffffffff1660e01b815260040160206040518083038186803b1580156124cb57600080fd5b505afa1580156124df573d6000803e3d6000fd5b505050506040513d60208110156124f557600080fd5b81019080805190602001909291905050506002600101819055504260028001819055506000600260030181905550600060026004018190555060006002600501819055506000600260060181905550565b61204881565b6013602052816000526040600020816002811061256557fe5b60030201600091509150508060000154908060010154908060020154905083565b600080339050612595816115e5565b612607576040517f08c379a00000000000000000000000000000000000000000000000000000000081526004018080602001828103825260158152602001807f55736572206973206e6f7420636c61696d61626c65000000000000000000000081525060200191505060405180910390fd5b600960000154601260008373ffffffffffffffffffffffffffffffffffffffff1673ffffffffffffffffffffffffffffffffffffffff1681526020019081526020016000208190555060008061265c83610a82565b91509150600082118061266f5750600081115b6126e1576040517f08c379a00000000000000000000000000000000000000000000000000000000081526004018080602001828103825260108152602001807f4e6f7468696e6720746f20636c61696d0000000000000000000000000000000081525060200191505060405180910390fd5b600082111561290b576000601760009054906101000a900473ffffffffffffffffffffffffffffffffffffffff1673ffffffffffffffffffffffffffffffffffffffff1663768911da6040518163ffffffff1660e01b815260040180807f6c55534400000000000000000000000000000000000000000000000000000000815250602001806020018281038252601b8152602001807f676574206c5553442061737365742061646472657373206661696c000000000081525060200191505060206040518083038186803b1580156127b857600080fd5b505afa1580156127cc573d6000803e3d6000fd5b505050506040513d60208110156127e257600080fd5b810190808051906020019092919050505090508073ffffffffffffffffffffffffffffffffffffffff16639dc29fac612048856040518363ffffffff1660e01b8152600401808373ffffffffffffffffffffffffffffffffffffffff16815260200182815260200192505050600060405180830381600087803b15801561286857600080fd5b505af115801561287c573d6000803e3d6000fd5b505050508073ffffffffffffffffffffffffffffffffffffffff166340c10f1985856040518363ffffffff1660e01b8152600401808373ffffffffffffffffffffffffffffffffffffffff16815260200182815260200192505050600060405180830381600087803b1580156128f157600080fd5b505af1158015612905573d6000803e3d6000fd5b50505050505b60008111156129fa576000601160009054906101000a900467ffffffffffffffff1667ffffffffffffffff1642019050601660009054906101000a900473ffffffffffffffffffffffffffffffffffffffff1673ffffffffffffffffffffffffffffffffffffffff16639726065d8584846040518463ffffffff1660e01b8152600401808473ffffffffffffffffffffffffffffffffffffffff1681526020018381526020018267ffffffffffffffff1681526020019350505050600060405180830381600087803b1580156129e057600080fd5b505af11580156129f4573d6000803e3d6000fd5b50505050505b7f1ac537f0ad67b64ac68a04587ff3a4cb6977de22eb2c37ee560897a92c6d07c7838383604051808473ffffffffffffffffffffffffffffffffffffffff168152602001838152602001828152602001935050505060405180910390a16001935050505090565b60008054906101000a900473ffffffffffffffffffffffffffffffffffffffff1673ffffffffffffffffffffffffffffffffffffffff163373ffffffffffffffffffffffffffffffffffffffff1614612b05576040517f08c379a000000000000000000000000000000000000000000000000000000000815260040180806020018281038252602f8152602001806131a1602f913960400191505060405180910390fd5b80601860006101000a81548173ffffffffffffffffffffffffffffffffffffffff021916908373ffffffffffffffffffffffffffffffffffffffff16021790555050565b60008054906101000a900473ffffffffffffffffffffffffffffffffffffffff1673ffffffffffffffffffffffffffffffffffffffff163373ffffffffffffffffffffffffffffffffffffffff1614612bed576040517f08c379a000000000000000000000000000000000000000000000000000000000815260040180806020018281038252602f8152602001806131a1602f913960400191505060405180910390fd5b6000808960010b14612c00576009612c03565b60025b9050878160000181905550868160010181905550858160020181905550848160030181905550838160040181905550828160050181905550818160060181905550505050505050505050565b60008054906101000a900473ffffffffffffffffffffffffffffffffffffffff1681565b6000612c878383601b60ff16600a0a612df2565b905092915050565b6000612ca38383601b60ff16600a0a612e4d565b905092915050565b6000612cca6012601b0360ff16600a0a83612ea690919063ffffffff16565b9050919050565b600080600a6012601b0360ff16600a0a81612ce857fe5b048381612cf157fe5b0490506005600a8281612d0057fe5b0610612d0d57600a810190505b600a8181612d1757fe5b04915050919050565b600080828401905083811015612d9e576040517f08c379a000000000000000000000000000000000000000000000000000000000815260040180806020018281038252601b8152602001807f536166654d6174683a206164646974696f6e206f766572666c6f77000000000081525060200191505060405180910390fd5b8091505092915050565b6000612dea83836040518060400160405280601e81526020017f536166654d6174683a207375627472616374696f6e206f766572666c6f770000815250612f2c565b905092915050565b600080612e1d84612e0f600a860288612ea690919063ffffffff16565b612fec90919063ffffffff16565b90506005600a8281612e2b57fe5b0610612e3857600a810190505b600a8181612e4257fe5b049150509392505050565b600080600a8381612e5a57fe5b04612e6e8587612ea690919063ffffffff16565b81612e7557fe5b0490506005600a8281612e8457fe5b0610612e9157600a810190505b600a8181612e9b57fe5b049150509392505050565b600080831415612eb95760009050612f26565b6000828402905082848281612eca57fe5b0414612f21576040517f08c379a00000000000000000000000000000000000000000000000000000000081526004018080602001828103825260218152602001806131806021913960400191505060405180910390fd5b809150505b92915050565b6000838311158290612fd9576040517f08c379a00000000000000000000000000000000000000000000000000000000081526004018080602001828103825283818151815260200191508051906020019080838360005b83811015612f9e578082015181840152602081019050612f83565b50505050905090810190601f168015612fcb5780820380516001836020036101000a031916815260200191505b509250505060405180910390fd5b5060008385039050809150509392505050565b600061302e83836040518060400160405280601a81526020017f536166654d6174683a206469766973696f6e206279207a65726f000000000000815250613036565b905092915050565b600080831182906130e2576040517f08c379a00000000000000000000000000000000000000000000000000000000081526004018080602001828103825283818151815260200191508051906020019080838360005b838110156130a757808201518184015260208101905061308c565b50505050905090810190601f1680156130d45780820380516001836020036101000a031916815260200191505b509250505060405180910390fd5b5060008385816130ee57fe5b049050809150509392505050565b6040518060e0016040528060008152602001600081526020016000815260200160008152602001600081526020016000815260200160008152509056fe4c6e45786368616e676553797374656d2061646472657373206e6f742076616c69644c6e436f6c6c61746572616c53797374656d2061646472657373206e6f742076616c6964536166654d6174683a206d756c7469706c69636174696f6e206f766572666c6f774f6e6c792074686520636f6e74726163742061646d696e2063616e20706572666f726d207468697320616374696f6ea2646970667358221220766d3a53960087906a287716f5429cdc4d5bc54e6bb81ce58ecc910006903fbb64736f6c634300060c0033",
  "immutableReferences": {},
  "source": "// SPDX-License-Identifier: MIT\npragma solidity ^0.6.12;\n\nimport \"./LnAdmin.sol\";\nimport \"@openzeppelin/contracts/math/SafeMath.sol\";\nimport \"./SafeDecimalMath.sol\";\nimport \"./LnAddressCache.sol\";\nimport \"./LnDebtSystem.sol\";\nimport \"./LnCollateralSystem.sol\";\nimport \"./LnRewardLocker.sol\";\nimport \"./LnAssetSystem.sol\";\nimport \"./LnAsset.sol\";\n\ncontract LnFeeSystem is LnAdmin, LnAddressCache {\n    using SafeMath for uint256;\n    using SafeDecimalMath for uint256;\n\n    address public constant FEE_DUMMY_ADDRESS = address(0x2048); \n\n    struct UserDebtData {\n        uint256 PeriodID; // Period id\n        uint256 debtProportion;\n        uint256 debtFactor; // PRECISE_UNIT\n    }\n\n    struct RewardPeriod {\n        uint256 id; // Period id\n        uint256 startingDebtFactor;\n        uint256 startTime;\n        uint256 feesToDistribute; // \n        uint256 feesClaimed; // \n        uint256 rewardsToDistribute; // \n        uint256 rewardsClaimed; // \n    }\n\n    RewardPeriod public curRewardPeriod;\n    RewardPeriod public preRewardPeriod;\n    uint256 public OnePeriodSecs = 1 weeks;\n    uint64 public LockTime = uint64(52 weeks);\n\n    mapping (address => uint256) public userLastClaimedId;\n\n    mapping (address => UserDebtData[2]) public userPeriodDebt; // one for current period, one for pre period\n\n    //\n    LnDebtSystem public debtSystem;\n    LnCollateralSystem public collateralSystem;\n    LnRewardLocker public rewardLocker;\n    LnAssetSystem mAssets;\n\n    address public exchangeSystemAddress;\n    address public rewardDistributer;\n\n    constructor(address _admin ) public LnAdmin(_admin ) {\n    }\n\n    // Note: before start run need call this func to init.\n    function Init(address _exchangeSystem, address _rewardDistri) public onlyAdmin {\n        exchangeSystemAddress = _exchangeSystem;\n        rewardDistributer = _rewardDistri;\n    }\n\n    //set period data, maybe copy from old contract\n    function SetPeriodData(int16 index, // 0 current 1 pre\n            uint256 id,\n            uint256 startingDebtFactor,\n            uint256 startTime,\n            uint256 feesToDistribute,\n            uint256 feesClaimed,\n            uint256 rewardsToDistribute,\n            uint256 rewardsClaimed\n        ) public onlyAdmin {\n        RewardPeriod storage toset = index == 0? curRewardPeriod : preRewardPeriod;\n        toset.id = id;\n        toset.startingDebtFactor = startingDebtFactor;\n        toset.startTime = startTime;\n        toset.feesToDistribute = feesToDistribute;\n        toset.feesClaimed = feesClaimed;\n        toset.rewardsToDistribute = rewardsToDistribute;\n        toset.rewardsClaimed = rewardsClaimed;\n    }\n\n    function setExchangeSystemAddress(address _address) public onlyAdmin {\n        exchangeSystemAddress = _address;\n    }\n\n    modifier onlyExchanger {\n        require( (msg.sender == exchangeSystemAddress), \"Only Exchange System call\");\n        _;\n    }\n\n    modifier onlyDistributer {\n        require( (msg.sender == rewardDistributer), \"Only Reward Distributer call\");\n        _;\n    }\n\n    function addExchangeFee( uint feeUsd ) public onlyExchanger {\n        curRewardPeriod.feesToDistribute = curRewardPeriod.feesToDistribute.add(feeUsd);\n        emit ExchangeFee( feeUsd );\n    }\n\n    // TODO: call by contract or auto distribute?\n    function addCollateralRewards( uint reward) public onlyDistributer {\n        curRewardPeriod.rewardsToDistribute = curRewardPeriod.rewardsToDistribute.add(reward);\n        emit RewardCollateral(reward);\n    }\n\n    event ExchangeFee( uint feeUsd );\n    event RewardCollateral( uint reward );\n    event FeesClaimed(address user, uint lUSDAmount, uint linaRewards);\n\n    function updateAddressCache(LnAddressStorage _addressStorage ) onlyAdmin public override\n    {\n        debtSystem = LnDebtSystem(_addressStorage.getAddressWithRequire( \"LnDebtSystem\", \"LnDebtSystem address not valid\" ));\n        address payable collateralAddress = payable(_addressStorage.getAddressWithRequire( \"LnCollateralSystem\",\"LnCollateralSystem address not valid\" ));\n        collateralSystem = LnCollateralSystem( collateralAddress );\n        rewardLocker = LnRewardLocker(_addressStorage.getAddressWithRequire( \"LnRewardLocker\", \"LnRewardLocker address not valid\" ));\n        mAssets = LnAssetSystem(_addressStorage.getAddressWithRequire( \"LnAssetSystem\", \"LnAssetSystem address not valid\" ));\n        \n        // as Init func. record LnExchangeSystem address\n        exchangeSystemAddress = _addressStorage.getAddressWithRequire( \"LnExchangeSystem\",\"LnExchangeSystem address not valid\" );\n\n        emit updateCachedAddress( \"LnDebtSystem\", address(debtSystem) );\n        emit updateCachedAddress( \"LnCollateralSystem\", address(collateralSystem) );\n        emit updateCachedAddress( \"LnRewardLocker\", address(rewardLocker) );\n        emit updateCachedAddress( \"LnAssetSystem\", address(mAssets) );\n        emit updateCachedAddress( \"LnExchangeSystem\", address(exchangeSystemAddress) );\n     }\n\n    function switchPeriod() public {\n        require(now >= curRewardPeriod.startTime + OnePeriodSecs, \"It's not time to switch\");\n\n        preRewardPeriod.id = curRewardPeriod.id;\n        preRewardPeriod.startingDebtFactor = curRewardPeriod.startingDebtFactor;\n        preRewardPeriod.startTime = curRewardPeriod.startTime;\n        preRewardPeriod.feesToDistribute = curRewardPeriod.feesToDistribute.add( preRewardPeriod.feesToDistribute.sub(preRewardPeriod.feesClaimed) );\n        preRewardPeriod.feesClaimed = 0;\n        preRewardPeriod.rewardsToDistribute = curRewardPeriod.rewardsToDistribute.add( preRewardPeriod.rewardsToDistribute.sub(preRewardPeriod.rewardsClaimed) );\n        preRewardPeriod.rewardsClaimed = 0;\n        \n        curRewardPeriod.id = curRewardPeriod.id + 1;\n        curRewardPeriod.startingDebtFactor = debtSystem.LastSystemDebtFactor();\n        curRewardPeriod.startTime = now;\n        curRewardPeriod.feesToDistribute = 0;\n        curRewardPeriod.feesClaimed = 0;\n        curRewardPeriod.rewardsToDistribute = 0;\n        curRewardPeriod.rewardsClaimed = 0;\n    }\n\n    function feePeriodDuration() external view returns (uint) {\n        return OnePeriodSecs;\n    }\n\n    function recentFeePeriods(uint index) external view\n        returns (\n            uint256 id,\n            uint256 startingDebtFactor,\n            uint256 startTime,\n            uint256 feesToDistribute,\n            uint256 feesClaimed,\n            uint256 rewardsToDistribute,\n            uint256 rewardsClaimed\n        )\n    {\n        if (index > 1) {\n            return (0,0,0,0,0,0,0);\n        }\n        RewardPeriod memory rewardPd;\n        if (index == 0) {\n            rewardPd = curRewardPeriod;\n        } else {\n            rewardPd = preRewardPeriod;\n        }\n        return (\n            rewardPd.id,\n            rewardPd.startingDebtFactor,\n            rewardPd.startTime,\n            rewardPd.feesToDistribute,\n            rewardPd.feesClaimed,\n            rewardPd.rewardsToDistribute,\n            rewardPd.rewardsClaimed\n        );\n    }\n\n    modifier onlyDebtSystem() {\n        require(msg.sender == address(debtSystem), \"Only Debt system call\");\n        _;\n    }\n\n    // build record\n    function RecordUserDebt(address user, uint256 debtProportion, uint256 debtFactor) public onlyDebtSystem {\n        uint256 curId = curRewardPeriod.id;\n        uint256 minPos = 0;\n        if (userPeriodDebt[user][0].PeriodID > userPeriodDebt[user][1].PeriodID) {\n            minPos = 1;\n        }\n        uint256 pos = minPos;\n        for (uint64 i = 0; i < userPeriodDebt[user].length; i++) {\n            if (userPeriodDebt[user][i].PeriodID == curId) {\n                pos = i;\n                break;\n            }\n        }\n        userPeriodDebt[user][pos].PeriodID = curId;\n        userPeriodDebt[user][pos].debtProportion = debtProportion;\n        userPeriodDebt[user][pos].debtFactor = debtFactor;\n    }\n\n    function isFeesClaimable(address account) public view returns (bool feesClaimable) {\n        if (collateralSystem.IsSatisfyTargetRatio(account) == false) {\n            return false;\n        }\n\n        if (userLastClaimedId[account] == preRewardPeriod.id) {\n            return false;\n        }\n\n        // TODO: other condition?\n        return true;\n    }\n\n    // total fee and total reward\n    function feesAvailable(address user) public view returns (uint, uint) {\n        if (preRewardPeriod.feesToDistribute == 0 && preRewardPeriod.rewardsToDistribute == 0) {\n            return (0,0);\n        }\n        uint256 debtFactor = 0;\n        uint256 debtProportion = 0;\n        uint256 pid = 0; //get last period factor\n        for (uint64 i = 0; i < userPeriodDebt[user].length; i++) {\n            if (userPeriodDebt[user][i].PeriodID < curRewardPeriod.id\n            && userPeriodDebt[user][i].PeriodID > pid) {\n                pid = curRewardPeriod.id;\n                debtFactor = userPeriodDebt[user][i].debtFactor;\n                debtProportion = userPeriodDebt[user][i].debtProportion;\n            }\n        }\n        //\n        //if (debtProportion == 0) {\n        //    (debtProportion, debtFactor) = debtSystem.userDebtState(user);\n        //}\n\n        if (debtProportion == 0 ) {\n            return (0,0);\n        }\n\n        uint256 lastPeriodDebtFactor = curRewardPeriod.startingDebtFactor;\n        uint256 userDebtProportion = lastPeriodDebtFactor\n                .divideDecimalRoundPrecise(debtFactor)\n                .multiplyDecimalRoundPrecise(debtProportion);\n\n        uint256 fee = preRewardPeriod.feesToDistribute\n                .decimalToPreciseDecimal()\n                .multiplyDecimalRoundPrecise(userDebtProportion)\n                .preciseDecimalToDecimal();\n\n        uint256 reward = preRewardPeriod.rewardsToDistribute\n                .decimalToPreciseDecimal()\n                .multiplyDecimalRoundPrecise(userDebtProportion)\n                .preciseDecimalToDecimal();\n        return (fee, reward);\n    }\n\n    // claim fee and reward.\n    function claimFees() external returns (bool) {\n        address user = msg.sender;\n        require( isFeesClaimable(user), \"User is not claimable\" );\n\n        userLastClaimedId[user] = preRewardPeriod.id;\n        // fee reward: mint lusd\n        // : rewardLocker.appendReward(use, reward, now + 1 years);\n        (uint256 fee, uint256 reward) = feesAvailable(user);\n        require(fee > 0 || reward > 0, \"Nothing to claim\");\n\n        if (fee > 0) {\n            LnAsset lusd = LnAsset( mAssets.getAddressWithRequire( \"lUSD\", \"get lUSD asset address fail\" ));\n            lusd.burn( FEE_DUMMY_ADDRESS, fee );\n            lusd.mint(user, fee);\n        }\n\n        if (reward > 0) {\n            uint64 totime = uint64(now + LockTime);\n            rewardLocker.appendReward(user, reward, totime);\n        }\n        emit FeesClaimed(user, fee, reward);\n        return true;\n    }\n}\n\ncontract LnFeeSystemTest is LnFeeSystem {\n    constructor(address _admin ) public LnFeeSystem(_admin ) {\n        OnePeriodSecs = 6 hours;\n        LockTime = 1 hours;\n    }\n}\n",
  "sourcePath": "/Users/michael/Linear-finance/Linear/contracts/LnFeeSystem.sol",
  "compiler": {
    "name": "solc",
    "version": "0.6.12+commit.27d51765.Emscripten.clang"
  },
  "schemaVersion": "3.3.2",
  "updatedAt": "2020-11-12T14:47:16.853Z",
  "devdoc": {
    "kind": "dev",
    "methods": {},
    "version": 1
  },
  "userdoc": {
    "kind": "user",
    "methods": {},
    "version": 1
  }
}