{
  "contractName": "LnStakingRewardSystem",
  "abi": [
    {
      "inputs": [
        {
          "internalType": "address",
          "name": "_admin",
          "type": "address"
        },
        {
          "internalType": "address",
          "name": "_simpleStaking",
          "type": "address"
        },
        {
          "internalType": "uint256",
          "name": "_endBlock",
          "type": "uint256"
        }
      ],
      "stateMutability": "nonpayable",
      "type": "constructor"
    },
    {
      "anonymous": false,
      "inputs": [
        {
          "indexed": false,
          "internalType": "address",
          "name": "oldAdmin",
          "type": "address"
        },
        {
          "indexed": false,
          "internalType": "address",
          "name": "newAdmin",
          "type": "address"
        }
      ],
      "name": "AdminChanged",
      "type": "event"
    },
    {
      "anonymous": false,
      "inputs": [
        {
          "indexed": true,
          "internalType": "address",
          "name": "who",
          "type": "address"
        },
        {
          "indexed": false,
          "internalType": "uint256",
          "name": "value",
          "type": "uint256"
        }
      ],
      "name": "CancelStaking",
      "type": "event"
    },
    {
      "anonymous": false,
      "inputs": [
        {
          "indexed": true,
          "internalType": "address",
          "name": "who",
          "type": "address"
        },
        {
          "indexed": false,
          "internalType": "uint256",
          "name": "rewardval",
          "type": "uint256"
        },
        {
          "indexed": false,
          "internalType": "uint256",
          "name": "totalStaking",
          "type": "uint256"
        }
      ],
      "name": "Claim",
      "type": "event"
    },
    {
      "anonymous": false,
      "inputs": [
        {
          "indexed": false,
          "internalType": "address",
          "name": "account",
          "type": "address"
        }
      ],
      "name": "Paused",
      "type": "event"
    },
    {
      "anonymous": false,
      "inputs": [
        {
          "indexed": true,
          "internalType": "address",
          "name": "who",
          "type": "address"
        },
        {
          "indexed": false,
          "internalType": "uint256",
          "name": "value",
          "type": "uint256"
        },
        {
          "indexed": false,
          "internalType": "uint256",
          "name": "staketime",
          "type": "uint256"
        }
      ],
      "name": "Staking",
      "type": "event"
    },
    {
      "anonymous": false,
      "inputs": [
        {
          "indexed": false,
          "internalType": "address",
          "name": "target",
          "type": "address"
        },
        {
          "indexed": false,
          "internalType": "uint256",
          "name": "time",
          "type": "uint256"
        }
      ],
      "name": "TransLock",
      "type": "event"
    },
    {
      "anonymous": false,
      "inputs": [
        {
          "indexed": false,
          "internalType": "address",
          "name": "account",
          "type": "address"
        }
      ],
      "name": "Unpaused",
      "type": "event"
    },
    {
      "anonymous": false,
      "inputs": [
        {
          "indexed": false,
          "internalType": "address",
          "name": "oldCandidate",
          "type": "address"
        },
        {
          "indexed": false,
          "internalType": "address",
          "name": "newCandidate",
          "type": "address"
        }
      ],
      "name": "candidateChanged",
      "type": "event"
    },
    {
      "inputs": [],
      "name": "PRECISION_UINT",
      "outputs": [
        {
          "internalType": "uint256",
          "name": "",
          "type": "uint256"
        }
      ],
      "stateMutability": "view",
      "type": "function"
    },
    {
      "inputs": [],
      "name": "admin",
      "outputs": [
        {
          "internalType": "address",
          "name": "",
          "type": "address"
        }
      ],
      "stateMutability": "view",
      "type": "function"
    },
    {
      "inputs": [],
      "name": "becomeAdmin",
      "outputs": [],
      "stateMutability": "nonpayable",
      "type": "function"
    },
    {
      "inputs": [],
      "name": "candidate",
      "outputs": [
        {
          "internalType": "address",
          "name": "",
          "type": "address"
        }
      ],
      "stateMutability": "view",
      "type": "function"
    },
    {
      "inputs": [],
      "name": "claimRewardLockTime",
      "outputs": [
        {
          "internalType": "uint256",
          "name": "",
          "type": "uint256"
        }
      ],
      "stateMutability": "view",
      "type": "function"
    },
    {
      "inputs": [],
      "name": "mEndBlock",
      "outputs": [
        {
          "internalType": "uint256",
          "name": "",
          "type": "uint256"
        }
      ],
      "stateMutability": "view",
      "type": "function"
    },
    {
      "inputs": [],
      "name": "minStakingAmount",
      "outputs": [
        {
          "internalType": "uint256",
          "name": "",
          "type": "uint256"
        }
      ],
      "stateMutability": "view",
      "type": "function"
    },
    {
      "inputs": [],
      "name": "paused",
      "outputs": [
        {
          "internalType": "bool",
          "name": "",
          "type": "bool"
        }
      ],
      "stateMutability": "view",
      "type": "function"
    },
    {
      "inputs": [
        {
          "internalType": "address",
          "name": "_candidate",
          "type": "address"
        }
      ],
      "name": "setCandidate",
      "outputs": [],
      "stateMutability": "nonpayable",
      "type": "function"
    },
    {
      "inputs": [],
      "name": "simpleStaking",
      "outputs": [
        {
          "internalType": "contract LnSimpleStaking",
          "name": "",
          "type": "address"
        }
      ],
      "stateMutability": "view",
      "type": "function"
    },
    {
      "inputs": [
        {
          "internalType": "uint256",
          "name": "",
          "type": "uint256"
        }
      ],
      "name": "stakingRewardList",
      "outputs": [
        {
          "internalType": "address",
          "name": "",
          "type": "address"
        }
      ],
      "stateMutability": "view",
      "type": "function"
    },
    {
      "inputs": [
        {
          "internalType": "bool",
          "name": "_paused",
          "type": "bool"
        }
      ],
      "name": "setPaused",
      "outputs": [],
      "stateMutability": "nonpayable",
      "type": "function"
    },
    {
      "inputs": [
        {
          "internalType": "address[]",
          "name": "stakingRewardAddress",
          "type": "address[]"
        }
      ],
      "name": "setStakingPoolList",
      "outputs": [],
      "stateMutability": "nonpayable",
      "type": "function"
    },
    {
      "inputs": [
        {
          "internalType": "uint256",
          "name": "_newEndBlock",
          "type": "uint256"
        }
      ],
      "name": "setEndBlock",
      "outputs": [],
      "stateMutability": "nonpayable",
      "type": "function"
    },
    {
      "inputs": [
        {
          "internalType": "address",
          "name": "account",
          "type": "address"
        }
      ],
      "name": "stakingBalanceOf",
      "outputs": [
        {
          "internalType": "uint256",
          "name": "",
          "type": "uint256"
        }
      ],
      "stateMutability": "view",
      "type": "function"
    },
    {
      "inputs": [
        {
          "internalType": "uint256",
          "name": "amount",
          "type": "uint256"
        }
      ],
      "name": "staking",
      "outputs": [
        {
          "internalType": "bool",
          "name": "",
          "type": "bool"
        }
      ],
      "stateMutability": "nonpayable",
      "type": "function"
    },
    {
      "inputs": [
        {
          "internalType": "uint256",
          "name": "amount",
          "type": "uint256"
        }
      ],
      "name": "cancelStaking",
      "outputs": [
        {
          "internalType": "bool",
          "name": "",
          "type": "bool"
        }
      ],
      "stateMutability": "nonpayable",
      "type": "function"
    },
    {
      "inputs": [
        {
          "internalType": "uint256",
          "name": "blockNb",
          "type": "uint256"
        },
        {
          "internalType": "address",
          "name": "_user",
          "type": "address"
        }
      ],
      "name": "getTotalReward",
      "outputs": [
        {
          "internalType": "uint256",
          "name": "total",
          "type": "uint256"
        }
      ],
      "stateMutability": "view",
      "type": "function"
    },
    {
      "inputs": [
        {
          "internalType": "uint256",
          "name": "blockNb",
          "type": "uint256"
        },
        {
          "internalType": "address",
          "name": "_user",
          "type": "address"
        }
      ],
      "name": "getStakingTotalReward",
      "outputs": [
        {
          "internalType": "uint256",
          "name": "total",
          "type": "uint256"
        }
      ],
      "stateMutability": "view",
      "type": "function"
    },
    {
      "inputs": [],
      "name": "claim",
      "outputs": [
        {
          "internalType": "bool",
          "name": "",
          "type": "bool"
        }
      ],
      "stateMutability": "nonpayable",
      "type": "function"
    },
    {
      "inputs": [
        {
          "internalType": "uint256",
          "name": "newtime",
          "type": "uint256"
        }
      ],
      "name": "setRewardLockTime",
      "outputs": [],
      "stateMutability": "nonpayable",
      "type": "function"
    }
  ],
  "bytecode": "0x608060405263609b8b00600355670de0b6b3a764000060065534801561002457600080fd5b50604051612ee6380380612ee68339818101604052606081101561004757600080fd5b8101908080519060200190929190805190602001909291908051906020019092919050505082600073ffffffffffffffffffffffffffffffffffffffff168173ffffffffffffffffffffffffffffffffffffffff161415610110576040517f08c379a00000000000000000000000000000000000000000000000000000000081526004018080602001828103825260198152602001807f61646d696e20616464726573732063616e6e6f7420626520300000000000000081525060200191505060405180910390fd5b806000806101000a81548173ffffffffffffffffffffffffffffffffffffffff021916908373ffffffffffffffffffffffffffffffffffffffff1602179055507f7e644d79422f17c01e4894b5f4f588d331ebfa28653d42ae832dc59e38c9798f600082604051808373ffffffffffffffffffffffffffffffffffffffff1681526020018273ffffffffffffffffffffffffffffffffffffffff1681526020019250505060405180910390a1506000600160146101000a81548160ff0219169083151502179055508060028190555081600460006101000a81548173ffffffffffffffffffffffffffffffffffffffff021916908373ffffffffffffffffffffffffffffffffffffffff160217905550505050612cb4806102326000396000f3fe608060405234801561001057600080fd5b50600436106101375760003560e01c806362e3efdd116100b8578063bb4f19121161007c578063bb4f19121461049a578063c0e1f296146104c8578063c713aa94146104e6578063cf3e69ef14610514578063eb016e64146105cc578063f851a440146105ea57610137565b806362e3efdd146103785780636c8381f8146103d05780639ab0388b14610404578063a16bd31214610448578063a6b4db641461046657610137565b806325c065b1116100ff57806325c065b114610260578063372046011461027e5780634ba460ac146102e05780634e71d92d146103385780635c975abb1461035857610137565b806307880b7f1461013c57806316c38b3c146101805780631dbb2a22146101b057806324c20850146101f457806325971dff14610256575b600080fd5b61017e6004803603602081101561015257600080fd5b81019080803573ffffffffffffffffffffffffffffffffffffffff16906020019092919050505061061e565b005b6101ae6004803603602081101561019657600080fd5b810190808035151590602001909291905050506107bb565b005b6101dc600480360360208110156101c657600080fd5b810190808035906020019092919050505061087e565b60405180821515815260200191505060405180910390f35b6102406004803603604081101561020a57600080fd5b8101908080359060200190929190803573ffffffffffffffffffffffffffffffffffffffff169060200190929190505050610b09565b6040518082815260200191505060405180910390f35b61025e611223565b005b6102686113fc565b6040518082815260200191505060405180910390f35b6102ca6004803603604081101561029457600080fd5b8101908080359060200190929190803573ffffffffffffffffffffffffffffffffffffffff169060200190929190505050611402565b6040518082815260200191505060405180910390f35b61030c600480360360208110156102f657600080fd5b810190808035906020019092919050505061188b565b604051808273ffffffffffffffffffffffffffffffffffffffff16815260200191505060405180910390f35b6103406118c7565b60405180821515815260200191505060405180910390f35b610360611b4f565b60405180821515815260200191505060405180910390f35b6103ba6004803603602081101561038e57600080fd5b81019080803573ffffffffffffffffffffffffffffffffffffffff169060200190929190505050611b66565b6040518082815260200191505060405180910390f35b6103d8611d5f565b604051808273ffffffffffffffffffffffffffffffffffffffff16815260200191505060405180910390f35b6104306004803603602081101561041a57600080fd5b8101908080359060200190929190505050611d85565b60405180821515815260200191505060405180910390f35b610450612388565b6040518082815260200191505060405180910390f35b61046e61238e565b604051808273ffffffffffffffffffffffffffffffffffffffff16815260200191505060405180910390f35b6104c6600480360360208110156104b057600080fd5b81019080803590602001909291905050506123b4565b005b6104d0612462565b6040518082815260200191505060405180910390f35b610512600480360360208110156104fc57600080fd5b8101908080359060200190929190505050612470565b005b6105ca6004803603602081101561052a57600080fd5b810190808035906020019064010000000081111561054757600080fd5b82018360208201111561055957600080fd5b8035906020019184602083028401116401000000008311171561057b57600080fd5b919080806020026020016040519081016040528093929190818152602001838360200280828437600081840152601f19601f820116905080830192505050505050509192919290505050612578565b005b6105d46126af565b6040518082815260200191505060405180910390f35b6105f26126b5565b604051808273ffffffffffffffffffffffffffffffffffffffff16815260200191505060405180910390f35b60008054906101000a900473ffffffffffffffffffffffffffffffffffffffff1673ffffffffffffffffffffffffffffffffffffffff163373ffffffffffffffffffffffffffffffffffffffff16146106c2576040517f08c379a000000000000000000000000000000000000000000000000000000000815260040180806020018281038252602f815260200180612c50602f913960400191505060405180910390fd5b6000600160009054906101000a900473ffffffffffffffffffffffffffffffffffffffff16905081600160006101000a81548173ffffffffffffffffffffffffffffffffffffffff021916908373ffffffffffffffffffffffffffffffffffffffff1602179055507f0faed18be9e8f4d4c05dfbcc80ea2c97a0be729614d766827778f60890c02cab81600160009054906101000a900473ffffffffffffffffffffffffffffffffffffffff16604051808373ffffffffffffffffffffffffffffffffffffffff1681526020018273ffffffffffffffffffffffffffffffffffffffff1681526020019250505060405180910390a15050565b60008054906101000a900473ffffffffffffffffffffffffffffffffffffffff1673ffffffffffffffffffffffffffffffffffffffff163373ffffffffffffffffffffffffffffffffffffffff161461085f576040517f08c379a000000000000000000000000000000000000000000000000000000000815260040180806020018281038252602f815260200180612c50602f913960400191505060405180910390fd5b80156108725761086d6126d9565b61087b565b61087a6127cc565b5b50565b6000600160149054906101000a900460ff1615610903576040517f08c379a00000000000000000000000000000000000000000000000000000000081526004018080602001828103825260108152602001807f5061757361626c653a207061757365640000000000000000000000000000000081525060200191505060405180910390fd5b60065482101561097b576040517f08c379a00000000000000000000000000000000000000000000000000000000081526004018080602001828103825260198152602001807f5374616b696e6720616d6f756e7420746f6f20736d616c6c2e0000000000000081525060200191505060405180910390fd5b600043905060005b600580549050811015610afd5760006005828154811061099f57fe5b9060005260206000200160009054906101000a900473ffffffffffffffffffffffffffffffffffffffff169050828173ffffffffffffffffffffffffffffffffffffffff1663eb016e646040518163ffffffff1660e01b815260040160206040518083038186803b158015610a1357600080fd5b505afa158015610a27573d6000803e3d6000fd5b505050506040513d6020811015610a3d57600080fd5b81019080805190602001909291905050501115610aef578073ffffffffffffffffffffffffffffffffffffffff16631dbb2a22866040518263ffffffff1660e01b815260040180828152602001915050602060405180830381600087803b158015610aa757600080fd5b505af1158015610abb573d6000803e3d6000fd5b505050506040513d6020811015610ad157600080fd5b81019080805190602001909291905050505060019350505050610b04565b508080600101915050610983565b5060019150505b919050565b6000600254831115610b1b5760025492505b6000610b25612ba5565b610b2d612bc6565b600460009054906101000a900473ffffffffffffffffffffffffffffffffffffffff1673ffffffffffffffffffffffffffffffffffffffff166399fb7a8f6040518163ffffffff1660e01b815260040160606040518083038186803b158015610b9557600080fd5b505afa158015610ba9573d6000803e3d6000fd5b505050506040513d6060811015610bbf57600080fd5b81019080805190602001909291908051906020019092919080519060200190929190505050846000018560200186604001838152508381525083815250505050600460009054906101000a900473ffffffffffffffffffffffffffffffffffffffff1673ffffffffffffffffffffffffffffffffffffffff16636386c1c7866040518263ffffffff1660e01b8152600401808273ffffffffffffffffffffffffffffffffffffffff16815260200191505060606040518083038186803b158015610c8857600080fd5b505afa158015610c9c573d6000803e3d6000fd5b505050506040513d6060811015610cb257600080fd5b81019080805190602001909291908051906020019092919080519060200190929190505050836000018460200185604001838152508381525083815250505050600460009054906101000a900473ffffffffffffffffffffffffffffffffffffffff1673ffffffffffffffffffffffffffffffffffffffff166337834199866040518263ffffffff1660e01b8152600401808273ffffffffffffffffffffffffffffffffffffffff16815260200191505060206040518083038186803b158015610d7b57600080fd5b505afa158015610d8f573d6000803e3d6000fd5b505050506040513d6020811015610da557600080fd5b8101908080519060200190929190505050935060005b6005805490508110156110a457600060058281548110610dd757fe5b9060005260206000200160009054906101000a900473ffffffffffffffffffffffffffffffffffffffff1690506000806000806000808673ffffffffffffffffffffffffffffffffffffffff166399fb7a8f6040518163ffffffff1660e01b815260040160606040518083038186803b158015610e5357600080fd5b505afa158015610e67573d6000803e3d6000fd5b505050506040513d6060811015610e7d57600080fd5b810190808051906020019092919080519060200190929190805190602001909291905050508093508194508297505050508673ffffffffffffffffffffffffffffffffffffffff16636386c1c78e6040518263ffffffff1660e01b8152600401808273ffffffffffffffffffffffffffffffffffffffff16815260200191505060606040518083038186803b158015610f1557600080fd5b505afa158015610f29573d6000803e3d6000fd5b505050506040513d6060811015610f3f57600080fd5b81019080805190602001909291908051906020019092919080519060200190929190505050809650819550829850505050610f87858b600001516128bf90919063ffffffff16565b8a600001818152505060008214610fa357818a60200181815250505b808a6040018181525050610fc4868a600001516128bf90919063ffffffff16565b896000018181525050610fe4838a602001516128bf90919063ffffffff16565b896020018181525050611004848a604001516128bf90919063ffffffff16565b8960400181815250508673ffffffffffffffffffffffffffffffffffffffff16638ae39cac6040518163ffffffff1660e01b815260040160206040518083038186803b15801561105357600080fd5b505afa158015611067573d6000803e3d6000fd5b505050506040513d602081101561107d57600080fd5b81019080805190602001909291905050509a50505050505050508080600101915050610dbb565b506000826040015190506000836000015190508360200151881180156110cb575060008114155b1561117e57600061112085602001516040518060400160405280601881526020017f637220637572426c6f636b20737562206f766572666c6f7700000000000000008152508b6129479092919063ffffffff16565b905060006111378783612a0790919063ffffffff16565b905061117961116a8461115c68056bc75e2d6310000085612a0790919063ffffffff16565b612a8d90919063ffffffff16565b856128bf90919063ffffffff16565b935050505b6111fd83604001516040518060400160405280601981526020017f6372206e657752657761726420737562206f766572666c6f77000000000000008152506111ee68056bc75e2d631000006111e0878960200151612a0790919063ffffffff16565b612a8d90919063ffffffff16565b6129479092919063ffffffff16565b95506112168360000151876128bf90919063ffffffff16565b9550505050505092915050565b600160009054906101000a900473ffffffffffffffffffffffffffffffffffffffff1673ffffffffffffffffffffffffffffffffffffffff163373ffffffffffffffffffffffffffffffffffffffff16146112e6576040517f08c379a000000000000000000000000000000000000000000000000000000000815260040180806020018281038252601f8152602001807f4f6e6c792063616e6469646174652063616e206265636f6d652061646d696e0081525060200191505060405180910390fd5b60008060009054906101000a900473ffffffffffffffffffffffffffffffffffffffff169050600160009054906101000a900473ffffffffffffffffffffffffffffffffffffffff166000806101000a81548173ffffffffffffffffffffffffffffffffffffffff021916908373ffffffffffffffffffffffffffffffffffffffff1602179055507f7e644d79422f17c01e4894b5f4f588d331ebfa28653d42ae832dc59e38c9798f8160008054906101000a900473ffffffffffffffffffffffffffffffffffffffff16604051808373ffffffffffffffffffffffffffffffffffffffff1681526020018273ffffffffffffffffffffffffffffffffffffffff1681526020019250505060405180910390a150565b60065481565b60006002548311156114145760025492505b600090506000600460009054906101000a900473ffffffffffffffffffffffffffffffffffffffff1673ffffffffffffffffffffffffffffffffffffffff1663eb016e646040518163ffffffff1660e01b815260040160206040518083038186803b15801561148257600080fd5b505afa158015611496573d6000803e3d6000fd5b505050506040513d60208110156114ac57600080fd5b8101908080519060200190929190505050905061159d600460009054906101000a900473ffffffffffffffffffffffffffffffffffffffff1673ffffffffffffffffffffffffffffffffffffffff166324c2085083866040518363ffffffff1660e01b8152600401808381526020018273ffffffffffffffffffffffffffffffffffffffff1681526020019250505060206040518083038186803b15801561155357600080fd5b505afa158015611567573d6000803e3d6000fd5b505050506040513d602081101561157d57600080fd5b8101908080519060200190929190505050836128bf90919063ffffffff16565b915060005b600580549050811015611883576000600582815481106115be57fe5b9060005260206000200160009054906101000a900473ffffffffffffffffffffffffffffffffffffffff169050858173ffffffffffffffffffffffffffffffffffffffff1663eb016e646040518163ffffffff1660e01b815260040160206040518083038186803b15801561163257600080fd5b505afa158015611646573d6000803e3d6000fd5b505050506040513d602081101561165c57600080fd5b810190808051906020019092919050505010156117b6576117af8173ffffffffffffffffffffffffffffffffffffffff166324c208508373ffffffffffffffffffffffffffffffffffffffff1663eb016e646040518163ffffffff1660e01b815260040160206040518083038186803b1580156116d857600080fd5b505afa1580156116ec573d6000803e3d6000fd5b505050506040513d602081101561170257600080fd5b8101908080519060200190929190505050886040518363ffffffff1660e01b8152600401808381526020018273ffffffffffffffffffffffffffffffffffffffff1681526020019250505060206040518083038186803b15801561176557600080fd5b505afa158015611779573d6000803e3d6000fd5b505050506040513d602081101561178f57600080fd5b8101908080519060200190929190505050856128bf90919063ffffffff16565b9350611875565b6118728173ffffffffffffffffffffffffffffffffffffffff166324c2085088886040518363ffffffff1660e01b8152600401808381526020018273ffffffffffffffffffffffffffffffffffffffff1681526020019250505060206040518083038186803b15801561182857600080fd5b505afa15801561183c573d6000803e3d6000fd5b505050506040513d602081101561185257600080fd5b8101908080519060200190929190505050856128bf90919063ffffffff16565b93505b5080806001019150506115a2565b505092915050565b6005818154811061189857fe5b906000526020600020016000915054906101000a900473ffffffffffffffffffffffffffffffffffffffff1681565b6000600160149054906101000a900460ff161561194c576040517f08c379a00000000000000000000000000000000000000000000000000000000081526004018080602001828103825260108152602001807f5061757361626c653a207061757365640000000000000000000000000000000081525060200191505060405180910390fd5b60035442116119c3576040517f08c379a00000000000000000000000000000000000000000000000000000000081526004018080602001828103825260188152602001807f4e6f742074696d6520746f20636c61696d20726577617264000000000000000081525060200191505060405180910390fd5b600460009054906101000a900473ffffffffffffffffffffffffffffffffffffffff1673ffffffffffffffffffffffffffffffffffffffff16634e71d92d6040518163ffffffff1660e01b8152600401602060405180830381600087803b158015611a2d57600080fd5b505af1158015611a41573d6000803e3d6000fd5b505050506040513d6020811015611a5757600080fd5b81019080805190602001909291905050505060005b600580549050811015611b4757600060058281548110611a8857fe5b9060005260206000200160009054906101000a900473ffffffffffffffffffffffffffffffffffffffff1690508073ffffffffffffffffffffffffffffffffffffffff16634e71d92d6040518163ffffffff1660e01b8152600401602060405180830381600087803b158015611afd57600080fd5b505af1158015611b11573d6000803e3d6000fd5b505050506040513d6020811015611b2757600080fd5b810190808051906020019092919050505050508080600101915050611a6c565b506001905090565b6000600160149054906101000a900460ff16905090565b60008060009050611c43600460009054906101000a900473ffffffffffffffffffffffffffffffffffffffff1673ffffffffffffffffffffffffffffffffffffffff166362e3efdd856040518263ffffffff1660e01b8152600401808273ffffffffffffffffffffffffffffffffffffffff16815260200191505060206040518083038186803b158015611bf957600080fd5b505afa158015611c0d573d6000803e3d6000fd5b505050506040513d6020811015611c2357600080fd5b8101908080519060200190929190505050826128bf90919063ffffffff16565b905060005b600580549050811015611d5557600060058281548110611c6457fe5b9060005260206000200160009054906101000a900473ffffffffffffffffffffffffffffffffffffffff169050611d458173ffffffffffffffffffffffffffffffffffffffff166362e3efdd876040518263ffffffff1660e01b8152600401808273ffffffffffffffffffffffffffffffffffffffff16815260200191505060206040518083038186803b158015611cfb57600080fd5b505afa158015611d0f573d6000803e3d6000fd5b505050506040513d6020811015611d2557600080fd5b8101908080519060200190929190505050846128bf90919063ffffffff16565b9250508080600101915050611c48565b5080915050919050565b600160009054906101000a900473ffffffffffffffffffffffffffffffffffffffff1681565b6000600160149054906101000a900460ff1615611e0a576040517f08c379a00000000000000000000000000000000000000000000000000000000081526004018080602001828103825260108152602001807f5061757361626c653a207061757365640000000000000000000000000000000081525060200191505060405180910390fd5b60008211611e80576040517f08c379a000000000000000000000000000000000000000000000000000000000815260040180806020018281038252600f8152602001807f496e76616c696420616d6f756e742e000000000000000000000000000000000081525060200191505060405180910390fd5b6000600460009054906101000a900473ffffffffffffffffffffffffffffffffffffffff1673ffffffffffffffffffffffffffffffffffffffff16636386c1c7336040518263ffffffff1660e01b8152600401808273ffffffffffffffffffffffffffffffffffffffff16815260200191505060606040518083038186803b158015611f0b57600080fd5b505afa158015611f1f573d6000803e3d6000fd5b505050506040513d6060811015611f3557600080fd5b81019080805190602001909291908051906020019092919080519060200190929190505050905050809150508281111561202457600460009054906101000a900473ffffffffffffffffffffffffffffffffffffffff1673ffffffffffffffffffffffffffffffffffffffff16639ab0388b846040518263ffffffff1660e01b815260040180828152602001915050602060405180830381600087803b158015611fde57600080fd5b505af1158015611ff2573d6000803e3d6000fd5b505050506040513d602081101561200857600080fd5b8101908080519060200190929190505050506001915050612383565b600460009054906101000a900473ffffffffffffffffffffffffffffffffffffffff1673ffffffffffffffffffffffffffffffffffffffff16639ab0388b826040518263ffffffff1660e01b815260040180828152602001915050602060405180830381600087803b15801561209957600080fd5b505af11580156120ad573d6000803e3d6000fd5b505050506040513d60208110156120c357600080fd5b81019080805190602001909291905050505061210281604051806060016040528060238152602001612be860239139856129479092919063ffffffff16565b925060005b60058054905081101561237c5760006005828154811061212357fe5b9060005260206000200160009054906101000a900473ffffffffffffffffffffffffffffffffffffffff1690508073ffffffffffffffffffffffffffffffffffffffff16636386c1c7336040518263ffffffff1660e01b8152600401808273ffffffffffffffffffffffffffffffffffffffff16815260200191505060606040518083038186803b1580156121b757600080fd5b505afa1580156121cb573d6000803e3d6000fd5b505050506040513d60608110156121e157600080fd5b8101908080519060200190929190805190602001909291908051906020019092919050505090505080935050848311156122b0578073ffffffffffffffffffffffffffffffffffffffff16639ab0388b866040518263ffffffff1660e01b815260040180828152602001915050602060405180830381600087803b15801561226857600080fd5b505af115801561227c573d6000803e3d6000fd5b505050506040513d602081101561229257600080fd5b81019080805190602001909291905050505060019350505050612383565b8073ffffffffffffffffffffffffffffffffffffffff16639ab0388b846040518263ffffffff1660e01b815260040180828152602001915050602060405180830381600087803b15801561230357600080fd5b505af1158015612317573d6000803e3d6000fd5b505050506040513d602081101561232d57600080fd5b81019080805190602001909291905050505061236c83604051806060016040528060238152602001612be860239139876129479092919063ffffffff16565b9450508080600101915050612107565b5060019150505b919050565b60035481565b600460009054906101000a900473ffffffffffffffffffffffffffffffffffffffff1681565b60008054906101000a900473ffffffffffffffffffffffffffffffffffffffff1673ffffffffffffffffffffffffffffffffffffffff163373ffffffffffffffffffffffffffffffffffffffff1614612458576040517f08c379a000000000000000000000000000000000000000000000000000000000815260040180806020018281038252602f815260200180612c50602f913960400191505060405180910390fd5b8060038190555050565b69152d02c7e14af680000081565b60008054906101000a900473ffffffffffffffffffffffffffffffffffffffff1673ffffffffffffffffffffffffffffffffffffffff163373ffffffffffffffffffffffffffffffffffffffff1614612514576040517f08c379a000000000000000000000000000000000000000000000000000000000815260040180806020018281038252602f815260200180612c50602f913960400191505060405180910390fd5b600254811161256e576040517f08c379a0000000000000000000000000000000000000000000000000000000008152600401808060200182810382526024815260200180612c0b6024913960400191505060405180910390fd5b8060028190555050565b60008054906101000a900473ffffffffffffffffffffffffffffffffffffffff1673ffffffffffffffffffffffffffffffffffffffff163373ffffffffffffffffffffffffffffffffffffffff161461261c576040517f08c379a000000000000000000000000000000000000000000000000000000000815260040180806020018281038252602f815260200180612c50602f913960400191505060405180910390fd5b60005b81518110156126ab57600582828151811061263657fe5b60200260200101519080600181540180825580915050600190039060005260206000200160009091909190916101000a81548173ffffffffffffffffffffffffffffffffffffffff021916908373ffffffffffffffffffffffffffffffffffffffff160217905550808060010191505061261f565b5050565b60025481565b60008054906101000a900473ffffffffffffffffffffffffffffffffffffffff1681565b600160149054906101000a900460ff161561275c576040517f08c379a00000000000000000000000000000000000000000000000000000000081526004018080602001828103825260108152602001807f5061757361626c653a207061757365640000000000000000000000000000000081525060200191505060405180910390fd5b60018060146101000a81548160ff0219169083151502179055507f62e78cea01bee320cd4e420270b5ea74000d11b0c9f74754ebdbfc544b05a25861279f612ad7565b604051808273ffffffffffffffffffffffffffffffffffffffff16815260200191505060405180910390a1565b600160149054906101000a900460ff1661284e576040517f08c379a00000000000000000000000000000000000000000000000000000000081526004018080602001828103825260148152602001807f5061757361626c653a206e6f742070617573656400000000000000000000000081525060200191505060405180910390fd5b6000600160146101000a81548160ff0219169083151502179055507f5db9ee0a495bf2e6ff9c91a7834c1ba4fdd244a5e8aa4e537bd38aeae4b073aa612892612ad7565b604051808273ffffffffffffffffffffffffffffffffffffffff16815260200191505060405180910390a1565b60008082840190508381101561293d576040517f08c379a000000000000000000000000000000000000000000000000000000000815260040180806020018281038252601b8152602001807f536166654d6174683a206164646974696f6e206f766572666c6f77000000000081525060200191505060405180910390fd5b8091505092915050565b60008383111582906129f4576040517f08c379a00000000000000000000000000000000000000000000000000000000081526004018080602001828103825283818151815260200191508051906020019080838360005b838110156129b957808201518184015260208101905061299e565b50505050905090810190601f1680156129e65780820380516001836020036101000a031916815260200191505b509250505060405180910390fd5b5060008385039050809150509392505050565b600080831415612a1a5760009050612a87565b6000828402905082848281612a2b57fe5b0414612a82576040517f08c379a0000000000000000000000000000000000000000000000000000000008152600401808060200182810382526021815260200180612c2f6021913960400191505060405180910390fd5b809150505b92915050565b6000612acf83836040518060400160405280601a81526020017f536166654d6174683a206469766973696f6e206279207a65726f000000000000815250612adf565b905092915050565b600033905090565b60008083118290612b8b576040517f08c379a00000000000000000000000000000000000000000000000000000000081526004018080602001828103825283818151815260200191508051906020019080838360005b83811015612b50578082015181840152602081019050612b35565b50505050905090810190601f168015612b7d5780820380516001836020036101000a031916815260200191505b509250505060405180910390fd5b506000838581612b9757fe5b049050809150509392505050565b60405180606001604052806000815260200160008152602001600081525090565b6040518060600160405280600081526020016000815260200160008152509056fe63722075736572416d6f756e74496e5374616b696e6720737562206f766572666c6f776e657720656e64426c6f636b206c657373207468616e206f6c6420656e64426c6f636b2e536166654d6174683a206d756c7469706c69636174696f6e206f766572666c6f774f6e6c792074686520636f6e74726163742061646d696e2063616e20706572666f726d207468697320616374696f6ea2646970667358221220e57264d8502a2172e559a0a2e975281999f749a96a32df36cdb441744a1a4ff564736f6c634300060c0033",
  "immutableReferences": {},
  "source": "// SPDX-License-Identifier: MIT\npragma solidity ^0.6.12;\n\nimport \"./IERC20.sol\";\nimport \"./LnAdmin.sol\";\nimport \"./LnOperatorModifier.sol\";\nimport \"@openzeppelin/contracts/math/SafeMath.sol\";\nimport \"@openzeppelin/contracts/utils/Pausable.sol\";\nimport \"./LnAccessControl.sol\";\nimport \"./LnSimpleStaking.sol\";\nimport \"./SafeDecimalMath.sol\";\n\n//Manage all staking pools\n//Tow type staking 1:simpleStaking 2:simpleStakingExtension\ncontract LnStakingRewardSystem is LnAdmin, Pausable {\n    using SafeMath for uint256;\n    using SafeDecimalMath for uint256;\n\n    uint256 public mEndBlock;\n\n    uint256 public claimRewardLockTime = 1620806400; // 2021-5-12\n\n    LnSimpleStaking public simpleStaking;\n\n    address[] public stakingRewardList;\n\n    struct UserInfo {\n        uint256 reward;\n        uint256 amount;\n        uint256 rewardDebt;\n    }\n\n    struct PoolInfo {\n        uint256 amount;\n        uint256 lastRewardBlock;\n        uint256 accRewardPerShare;\n    }\n\n    constructor(\n        address _admin,\n        address _simpleStaking,\n        uint256 _endBlock\n    ) public LnAdmin(_admin) {\n        mEndBlock = _endBlock;\n        simpleStaking = LnSimpleStaking(_simpleStaking);\n    }\n\n    function setPaused(bool _paused) external onlyAdmin {\n        if (_paused) {\n            _pause();\n        } else {\n            _unpause();\n        }\n    }\n\n    //stakingPool\n    //deploy  staking pool\n    function setStakingPoolList(address[] memory stakingRewardAddress)\n        public\n        onlyAdmin\n    {\n        for (uint256 i; i < stakingRewardAddress.length; i++) {\n            stakingRewardList.push(stakingRewardAddress[i]);\n        }\n    }\n\n    //////////////////////////////////////////////////////\n    event Staking(address indexed who, uint256 value, uint256 staketime);\n    event CancelStaking(address indexed who, uint256 value);\n    event Claim(address indexed who, uint256 rewardval, uint256 totalStaking);\n    event TransLock(address target, uint256 time);\n\n    uint256 public minStakingAmount = 1e18; // 1 token\n    uint256 public constant PRECISION_UINT = 1e23;\n\n    function setEndBlock(uint256 _newEndBlock) external onlyAdmin {\n        require(\n            _newEndBlock > mEndBlock,\n            \"new endBlock less than old endBlock.\"\n        );\n        mEndBlock = _newEndBlock;\n    }\n\n    function stakingBalanceOf(address account) external view returns (uint256) {\n        uint256 totalStakingBalance = 0;\n\n        totalStakingBalance = totalStakingBalance.add(simpleStaking.stakingBalanceOf(account));\n\n        for (uint256 i; i < stakingRewardList.length; i++) {\n            LnStakingReward staking = LnStakingReward(stakingRewardList[i]);\n            totalStakingBalance = totalStakingBalance.add(staking.stakingBalanceOf(account));\n        }\n        return totalStakingBalance;\n    }\n\n    function staking(uint256 amount) public whenNotPaused returns (bool) {\n        require(amount >= minStakingAmount, \"Staking amount too small.\");\n        //require(stakingStorage.getStakesdataLength(msg.sender) < accountStakingListLimit, \"Staking list out of limit.\");\n        uint256 blockNb = block.number;\n        for (uint256 i; i < stakingRewardList.length; i++) {\n            LnStakingReward istaking = LnStakingReward(stakingRewardList[i]);\n            if (istaking.mEndBlock() > blockNb) {\n                istaking.staking(amount);\n                return true;\n            }\n        }\n\n        return true;\n    }\n\n    //staking  unstaking\n    function cancelStaking(uint256 amount) public whenNotPaused returns (bool) {\n        require(amount > 0, \"Invalid amount.\");\n        uint256 userAmountInStaking = 0;\n\n        (userAmountInStaking, , ) = simpleStaking.getUserInfo(msg.sender);\n        if (userAmountInStaking > amount) {\n            simpleStaking.cancelStaking(amount);\n            return true;\n        } else {\n            simpleStaking.cancelStaking(userAmountInStaking);\n            amount = amount.sub(\n                userAmountInStaking,\n                \"cr userAmountInStaking sub overflow\"\n            );\n        }\n\n        for (uint256 i; i < stakingRewardList.length; i++) {\n            LnStakingReward istaking = LnStakingReward(stakingRewardList[i]);\n            (userAmountInStaking, , ) = istaking.getUserInfo(msg.sender);\n            if (userAmountInStaking > amount) {\n                istaking.cancelStaking(amount);\n                return true;\n            } else {\n                istaking.cancelStaking(userAmountInStaking);\n                amount = amount.sub(\n                    userAmountInStaking,\n                    \"cr userAmountInStaking sub overflow\"\n                );\n            }\n        }\n\n        return true;\n    }\n\n    function getTotalReward(uint256 blockNb, address _user)\n        public\n        view\n        returns (uint256 total)\n    {\n        if (blockNb > mEndBlock) {\n            blockNb = mEndBlock;\n        }\n        uint256 rewardPerBlock;\n        PoolInfo memory pool;\n        UserInfo memory user;\n\n        (\n            pool.amount,\n            pool.lastRewardBlock,\n            pool.accRewardPerShare\n        ) = simpleStaking.mPoolInfo();\n        (user.reward, user.amount, user.rewardDebt) = simpleStaking.getUserInfo(\n            _user\n        );\n\n        total = simpleStaking.mOldReward(_user);\n\n        for (uint256 i; i < stakingRewardList.length; i++) {\n            LnStakingReward istaking = LnStakingReward(stakingRewardList[i]);\n            uint256 reward;\n            uint256 amount;\n            uint256 rewardDebt;\n            uint256 uamount;\n            uint256 lastRewardBlock;\n            uint256 accRewardPerShare;\n            (amount, lastRewardBlock, accRewardPerShare) = istaking.mPoolInfo();\n            (reward, uamount, rewardDebt) = istaking.getUserInfo(_user);\n\n            pool.amount = pool.amount.add(amount);\n            if (lastRewardBlock != 0) {\n                pool.lastRewardBlock = lastRewardBlock;\n            }\n            pool.accRewardPerShare = accRewardPerShare;\n            user.reward = user.reward.add(reward);\n            user.amount = user.amount.add(uamount);\n            user.rewardDebt = user.rewardDebt.add(rewardDebt);\n\n            rewardPerBlock = istaking.rewardPerBlock();\n        }\n\n        uint256 accRewardPerShare = pool.accRewardPerShare;\n        uint256 lpSupply = pool.amount;\n        if (blockNb > pool.lastRewardBlock && lpSupply != 0) {\n            uint256 multiplier = blockNb.sub(\n                pool.lastRewardBlock,\n                \"cr curBlock sub overflow\"\n            );\n            uint256 curReward = multiplier.mul(rewardPerBlock);\n            accRewardPerShare = accRewardPerShare.add(\n                curReward.mul(1e20).div(lpSupply)\n            );\n        }\n        total = user.amount.mul(accRewardPerShare).div(1e20).sub(\n            user.rewardDebt,\n            \"cr newReward sub overflow\"\n        );\n        total = total.add(user.reward);\n    }\n\n    function getStakingTotalReward(uint256 blockNb, address _user)\n        public\n        view\n        returns (uint256 total)\n    {\n        if (blockNb > mEndBlock) {\n            blockNb = mEndBlock;\n        }\n        total = 0;\n        uint256 sEndblock = 0;\n        sEndblock = simpleStaking.mEndBlock();\n        total = total.add(simpleStaking.getTotalReward(sEndblock, _user));\n\n        for (uint256 i; i < stakingRewardList.length; i++) {\n            LnStakingReward istaking = LnStakingReward(stakingRewardList[i]);\n            if (istaking.mEndBlock() < blockNb) {\n                total = total.add(istaking.getTotalReward(istaking.mEndBlock(), _user));\n            } else {\n                total = total.add(istaking.getTotalReward(blockNb, _user));\n            }\n        }\n    }\n\n    // claim reward\n    // Note: token\n    function claim() public whenNotPaused returns (bool) {\n        require(\n            block.timestamp > claimRewardLockTime,\n            \"Not time to claim reward\"\n        );\n\n        simpleStaking.claim();\n\n        for (uint256 i; i < stakingRewardList.length; i++) {\n            LnStakingReward istaking = LnStakingReward(stakingRewardList[i]);\n            istaking.claim();\n        }\n        return true;\n    }\n\n    function setRewardLockTime(uint256 newtime) public onlyAdmin {\n        claimRewardLockTime = newtime;\n    }\n\n}\n",
  "sourcePath": "/Users/michael/Linear-finance/Linear/contracts/LnStakingRewardSystem.sol",
  "compiler": {
    "name": "solc",
    "version": "0.6.12+commit.27d51765.Emscripten.clang"
  },
  "schemaVersion": "3.3.2",
  "updatedAt": "2020-11-12T14:47:19.197Z",
  "devdoc": {
    "kind": "dev",
    "methods": {
      "paused()": {
        "details": "Returns true if the contract is paused, and false otherwise."
      }
    },
    "version": 1
  },
  "userdoc": {
    "kind": "user",
    "methods": {},
    "version": 1
  }
}