{
  "contractName": "LnStakingReward",
  "abi": [
    {
      "inputs": [
        {
          "internalType": "address",
          "name": "_admin",
          "type": "address"
        },
        {
          "internalType": "address",
          "name": "_linaToken",
          "type": "address"
        },
        {
          "internalType": "uint256",
          "name": "_rewardPerBlock",
          "type": "uint256"
        },
        {
          "internalType": "uint256",
          "name": "_startBlock",
          "type": "uint256"
        },
        {
          "internalType": "uint256",
          "name": "_endBlock",
          "type": "uint256"
        }
      ],
      "stateMutability": "nonpayable",
      "type": "constructor"
    },
    {
      "anonymous": false,
      "inputs": [
        {
          "indexed": false,
          "internalType": "address",
          "name": "oldAdmin",
          "type": "address"
        },
        {
          "indexed": false,
          "internalType": "address",
          "name": "newAdmin",
          "type": "address"
        }
      ],
      "name": "AdminChanged",
      "type": "event"
    },
    {
      "anonymous": false,
      "inputs": [
        {
          "indexed": true,
          "internalType": "address",
          "name": "who",
          "type": "address"
        },
        {
          "indexed": false,
          "internalType": "uint256",
          "name": "value",
          "type": "uint256"
        }
      ],
      "name": "CancelStaking",
      "type": "event"
    },
    {
      "anonymous": false,
      "inputs": [
        {
          "indexed": true,
          "internalType": "address",
          "name": "who",
          "type": "address"
        },
        {
          "indexed": false,
          "internalType": "uint256",
          "name": "rewardval",
          "type": "uint256"
        },
        {
          "indexed": false,
          "internalType": "uint256",
          "name": "totalStaking",
          "type": "uint256"
        }
      ],
      "name": "Claim",
      "type": "event"
    },
    {
      "anonymous": false,
      "inputs": [
        {
          "indexed": false,
          "internalType": "address",
          "name": "account",
          "type": "address"
        }
      ],
      "name": "Paused",
      "type": "event"
    },
    {
      "anonymous": false,
      "inputs": [
        {
          "indexed": true,
          "internalType": "address",
          "name": "who",
          "type": "address"
        },
        {
          "indexed": false,
          "internalType": "uint256",
          "name": "value",
          "type": "uint256"
        },
        {
          "indexed": false,
          "internalType": "uint256",
          "name": "staketime",
          "type": "uint256"
        }
      ],
      "name": "Staking",
      "type": "event"
    },
    {
      "anonymous": false,
      "inputs": [
        {
          "indexed": false,
          "internalType": "address",
          "name": "target",
          "type": "address"
        },
        {
          "indexed": false,
          "internalType": "uint256",
          "name": "time",
          "type": "uint256"
        }
      ],
      "name": "TransLock",
      "type": "event"
    },
    {
      "anonymous": false,
      "inputs": [
        {
          "indexed": false,
          "internalType": "address",
          "name": "account",
          "type": "address"
        }
      ],
      "name": "Unpaused",
      "type": "event"
    },
    {
      "anonymous": false,
      "inputs": [
        {
          "indexed": false,
          "internalType": "address",
          "name": "oldCandidate",
          "type": "address"
        },
        {
          "indexed": false,
          "internalType": "address",
          "name": "newCandidate",
          "type": "address"
        }
      ],
      "name": "candidateChanged",
      "type": "event"
    },
    {
      "inputs": [],
      "name": "PRECISION_UINT",
      "outputs": [
        {
          "internalType": "uint256",
          "name": "",
          "type": "uint256"
        }
      ],
      "stateMutability": "view",
      "type": "function"
    },
    {
      "inputs": [],
      "name": "accReward",
      "outputs": [
        {
          "internalType": "uint256",
          "name": "",
          "type": "uint256"
        }
      ],
      "stateMutability": "view",
      "type": "function"
    },
    {
      "inputs": [],
      "name": "accountStakingListLimit",
      "outputs": [
        {
          "internalType": "uint256",
          "name": "",
          "type": "uint256"
        }
      ],
      "stateMutability": "view",
      "type": "function"
    },
    {
      "inputs": [],
      "name": "admin",
      "outputs": [
        {
          "internalType": "address",
          "name": "",
          "type": "address"
        }
      ],
      "stateMutability": "view",
      "type": "function"
    },
    {
      "inputs": [],
      "name": "amount",
      "outputs": [
        {
          "internalType": "uint256",
          "name": "",
          "type": "uint256"
        }
      ],
      "stateMutability": "view",
      "type": "function"
    },
    {
      "inputs": [
        {
          "internalType": "address",
          "name": "_user",
          "type": "address"
        }
      ],
      "name": "amountOf",
      "outputs": [
        {
          "internalType": "uint256",
          "name": "",
          "type": "uint256"
        }
      ],
      "stateMutability": "view",
      "type": "function"
    },
    {
      "inputs": [],
      "name": "becomeAdmin",
      "outputs": [],
      "stateMutability": "nonpayable",
      "type": "function"
    },
    {
      "inputs": [],
      "name": "candidate",
      "outputs": [
        {
          "internalType": "address",
          "name": "",
          "type": "address"
        }
      ],
      "stateMutability": "view",
      "type": "function"
    },
    {
      "inputs": [],
      "name": "claimRewardLockTime",
      "outputs": [
        {
          "internalType": "uint256",
          "name": "",
          "type": "uint256"
        }
      ],
      "stateMutability": "view",
      "type": "function"
    },
    {
      "inputs": [],
      "name": "getPoolInfo",
      "outputs": [
        {
          "internalType": "uint256",
          "name": "",
          "type": "uint256"
        },
        {
          "internalType": "uint256",
          "name": "",
          "type": "uint256"
        },
        {
          "internalType": "uint256",
          "name": "",
          "type": "uint256"
        }
      ],
      "stateMutability": "view",
      "type": "function"
    },
    {
      "inputs": [
        {
          "internalType": "address",
          "name": "_user",
          "type": "address"
        }
      ],
      "name": "getUserInfo",
      "outputs": [
        {
          "internalType": "uint256",
          "name": "",
          "type": "uint256"
        },
        {
          "internalType": "uint256",
          "name": "",
          "type": "uint256"
        },
        {
          "internalType": "uint256",
          "name": "",
          "type": "uint256"
        }
      ],
      "stateMutability": "view",
      "type": "function"
    },
    {
      "inputs": [],
      "name": "linaToken",
      "outputs": [
        {
          "internalType": "contract IERC20",
          "name": "",
          "type": "address"
        }
      ],
      "stateMutability": "view",
      "type": "function"
    },
    {
      "inputs": [],
      "name": "mEndBlock",
      "outputs": [
        {
          "internalType": "uint256",
          "name": "",
          "type": "uint256"
        }
      ],
      "stateMutability": "view",
      "type": "function"
    },
    {
      "inputs": [],
      "name": "mOldAmount",
      "outputs": [
        {
          "internalType": "uint256",
          "name": "",
          "type": "uint256"
        }
      ],
      "stateMutability": "view",
      "type": "function"
    },
    {
      "inputs": [
        {
          "internalType": "address",
          "name": "",
          "type": "address"
        }
      ],
      "name": "mOldReward",
      "outputs": [
        {
          "internalType": "uint256",
          "name": "",
          "type": "uint256"
        }
      ],
      "stateMutability": "view",
      "type": "function"
    },
    {
      "inputs": [],
      "name": "mOldStaking",
      "outputs": [
        {
          "internalType": "address",
          "name": "",
          "type": "address"
        }
      ],
      "stateMutability": "view",
      "type": "function"
    },
    {
      "inputs": [],
      "name": "mPoolInfo",
      "outputs": [
        {
          "internalType": "uint256",
          "name": "amount",
          "type": "uint256"
        },
        {
          "internalType": "uint256",
          "name": "lastRewardBlock",
          "type": "uint256"
        },
        {
          "internalType": "uint256",
          "name": "accRewardPerShare",
          "type": "uint256"
        }
      ],
      "stateMutability": "view",
      "type": "function"
    },
    {
      "inputs": [],
      "name": "mTargetAddress",
      "outputs": [
        {
          "internalType": "address",
          "name": "",
          "type": "address"
        }
      ],
      "stateMutability": "view",
      "type": "function"
    },
    {
      "inputs": [],
      "name": "mTransLockTime",
      "outputs": [
        {
          "internalType": "uint256",
          "name": "",
          "type": "uint256"
        }
      ],
      "stateMutability": "view",
      "type": "function"
    },
    {
      "inputs": [],
      "name": "mWidthdrawRewardFromOldStaking",
      "outputs": [
        {
          "internalType": "uint256",
          "name": "",
          "type": "uint256"
        }
      ],
      "stateMutability": "view",
      "type": "function"
    },
    {
      "inputs": [],
      "name": "minStakingAmount",
      "outputs": [
        {
          "internalType": "uint256",
          "name": "",
          "type": "uint256"
        }
      ],
      "stateMutability": "view",
      "type": "function"
    },
    {
      "inputs": [],
      "name": "paused",
      "outputs": [
        {
          "internalType": "bool",
          "name": "",
          "type": "bool"
        }
      ],
      "stateMutability": "view",
      "type": "function"
    },
    {
      "inputs": [],
      "name": "remainReward",
      "outputs": [
        {
          "internalType": "uint256",
          "name": "",
          "type": "uint256"
        }
      ],
      "stateMutability": "view",
      "type": "function"
    },
    {
      "inputs": [
        {
          "internalType": "address",
          "name": "_user",
          "type": "address"
        }
      ],
      "name": "rewardOf",
      "outputs": [
        {
          "internalType": "uint256",
          "name": "",
          "type": "uint256"
        }
      ],
      "stateMutability": "view",
      "type": "function"
    },
    {
      "inputs": [],
      "name": "rewardPerBlock",
      "outputs": [
        {
          "internalType": "uint256",
          "name": "",
          "type": "uint256"
        }
      ],
      "stateMutability": "view",
      "type": "function"
    },
    {
      "inputs": [
        {
          "internalType": "address",
          "name": "_candidate",
          "type": "address"
        }
      ],
      "name": "setCandidate",
      "outputs": [],
      "stateMutability": "nonpayable",
      "type": "function"
    },
    {
      "inputs": [],
      "name": "startBlock",
      "outputs": [
        {
          "internalType": "uint256",
          "name": "",
          "type": "uint256"
        }
      ],
      "stateMutability": "view",
      "type": "function"
    },
    {
      "inputs": [
        {
          "internalType": "address",
          "name": "",
          "type": "address"
        }
      ],
      "name": "userInfo",
      "outputs": [
        {
          "internalType": "uint256",
          "name": "reward",
          "type": "uint256"
        },
        {
          "internalType": "uint256",
          "name": "amount",
          "type": "uint256"
        },
        {
          "internalType": "uint256",
          "name": "rewardDebt",
          "type": "uint256"
        }
      ],
      "stateMutability": "view",
      "type": "function"
    },
    {
      "inputs": [
        {
          "internalType": "address",
          "name": "_linaToken",
          "type": "address"
        }
      ],
      "name": "setLinaToken",
      "outputs": [],
      "stateMutability": "nonpayable",
      "type": "function"
    },
    {
      "inputs": [
        {
          "internalType": "bool",
          "name": "_paused",
          "type": "bool"
        }
      ],
      "name": "setPaused",
      "outputs": [],
      "stateMutability": "nonpayable",
      "type": "function"
    },
    {
      "inputs": [
        {
          "internalType": "uint256",
          "name": "_limit",
          "type": "uint256"
        }
      ],
      "name": "setStakingListLimit",
      "outputs": [],
      "stateMutability": "nonpayable",
      "type": "function"
    },
    {
      "inputs": [
        {
          "internalType": "uint256",
          "name": "_minStakingAmount",
          "type": "uint256"
        }
      ],
      "name": "setMinStakingAmount",
      "outputs": [],
      "stateMutability": "nonpayable",
      "type": "function"
    },
    {
      "inputs": [
        {
          "internalType": "uint256",
          "name": "_newEndBlock",
          "type": "uint256"
        }
      ],
      "name": "setEndBlock",
      "outputs": [],
      "stateMutability": "nonpayable",
      "type": "function"
    },
    {
      "inputs": [
        {
          "internalType": "address",
          "name": "account",
          "type": "address"
        }
      ],
      "name": "stakingBalanceOf",
      "outputs": [
        {
          "internalType": "uint256",
          "name": "",
          "type": "uint256"
        }
      ],
      "stateMutability": "view",
      "type": "function"
    },
    {
      "inputs": [
        {
          "internalType": "uint256",
          "name": "amount",
          "type": "uint256"
        }
      ],
      "name": "staking",
      "outputs": [
        {
          "internalType": "bool",
          "name": "",
          "type": "bool"
        }
      ],
      "stateMutability": "nonpayable",
      "type": "function"
    },
    {
      "inputs": [
        {
          "internalType": "uint256",
          "name": "amount",
          "type": "uint256"
        }
      ],
      "name": "cancelStaking",
      "outputs": [
        {
          "internalType": "bool",
          "name": "",
          "type": "bool"
        }
      ],
      "stateMutability": "nonpayable",
      "type": "function"
    },
    {
      "inputs": [
        {
          "internalType": "uint256",
          "name": "blockNb",
          "type": "uint256"
        },
        {
          "internalType": "address",
          "name": "_user",
          "type": "address"
        }
      ],
      "name": "getTotalReward",
      "outputs": [
        {
          "internalType": "uint256",
          "name": "total",
          "type": "uint256"
        }
      ],
      "stateMutability": "view",
      "type": "function"
    },
    {
      "inputs": [],
      "name": "claim",
      "outputs": [
        {
          "internalType": "bool",
          "name": "",
          "type": "bool"
        }
      ],
      "stateMutability": "nonpayable",
      "type": "function"
    },
    {
      "inputs": [
        {
          "internalType": "uint256",
          "name": "newtime",
          "type": "uint256"
        }
      ],
      "name": "setRewardLockTime",
      "outputs": [],
      "stateMutability": "nonpayable",
      "type": "function"
    },
    {
      "inputs": [
        {
          "internalType": "uint256",
          "name": "curBlock",
          "type": "uint256"
        },
        {
          "internalType": "address",
          "name": "_user",
          "type": "address"
        }
      ],
      "name": "calcReward",
      "outputs": [
        {
          "internalType": "uint256",
          "name": "",
          "type": "uint256"
        }
      ],
      "stateMutability": "view",
      "type": "function"
    },
    {
      "inputs": [
        {
          "internalType": "address",
          "name": "target",
          "type": "address"
        },
        {
          "internalType": "uint256",
          "name": "locktime",
          "type": "uint256"
        }
      ],
      "name": "setTransLock",
      "outputs": [],
      "stateMutability": "nonpayable",
      "type": "function"
    },
    {
      "inputs": [
        {
          "internalType": "uint256",
          "name": "amount",
          "type": "uint256"
        }
      ],
      "name": "transTokens",
      "outputs": [],
      "stateMutability": "nonpayable",
      "type": "function"
    }
  ],
  "bytecode": "0x608060405263609b8b00600f556032601355670de0b6b3a764000060145534801561002957600080fd5b50604051613247380380613247833981810160405260a081101561004c57600080fd5b810190808051906020019092919080519060200190929190805190602001909291908051906020019092919080519060200190929190505050828286600073ffffffffffffffffffffffffffffffffffffffff168173ffffffffffffffffffffffffffffffffffffffff16141561012b576040517f08c379a00000000000000000000000000000000000000000000000000000000081526004018080602001828103825260198152602001807f61646d696e20616464726573732063616e6e6f7420626520300000000000000081525060200191505060405180910390fd5b806000806101000a81548173ffffffffffffffffffffffffffffffffffffffff021916908373ffffffffffffffffffffffffffffffffffffffff1602179055507f7e644d79422f17c01e4894b5f4f588d331ebfa28653d42ae832dc59e38c9798f600082604051808373ffffffffffffffffffffffffffffffffffffffff1681526020018273ffffffffffffffffffffffffffffffffffffffff1681526020019250505060405180910390a1506000600160146101000a81548160ff0219169083151502179055508160028190555080600781905550600754600360010181905550505083600a60006101000a81548173ffffffffffffffffffffffffffffffffffffffff021916908373ffffffffffffffffffffffffffffffffffffffff16021790555080600b819055505050505050612fdc8061026b6000396000f3fe608060405234801561001057600080fd5b506004361061025e5760003560e01c806369e0bb4211610146578063a16bd312116100c3578063d4d12d6411610087578063d4d12d64146109fd578063dd3bf57414610a31578063eb016e6414610a65578063f851a44014610a83578063f873ccb514610ab7578063fea8079314610ad55761025e565b8063a16bd31214610947578063aa8c217c14610965578063bb4f191214610983578063c0e1f296146109b1578063c713aa94146109cf5761025e565b806385461f691161010a57806385461f69146108395780638ae39cac1461089b57806392fe2d6d146108b957806399fb7a8f146108d75780639ab0388b146109035761025e565b806369e0bb421461073d5780636a8ab2961461078b5780636c8381f8146107b9578063758a9932146107ed578063804598271461080b5761025e565b806325c065b1116101df578063562975cb116101a3578063562975cb146105e75780635c975abb1461060557806360246c8814610625578063612d669e1461065157806362e3efdd1461067f5780636386c1c7146106d75761025e565b806325c065b1146104ef57806332eec36a1461050d578063378341991461055157806348cd4cb1146105a95780634e71d92d146105c75761025e565b80631d62ebd9116102265780631d62ebd9146103b35780631dbb2a221461040b578063222bebd91461044f57806324c208501461048357806325971dff146104e55761025e565b806301608f5f1461026357806307880b7f146102bb5780631485ff78146102ff57806316c38b3c1461031d5780631959a0021461034d575b600080fd5b6102a56004803603602081101561027957600080fd5b81019080803573ffffffffffffffffffffffffffffffffffffffff169060200190929190505050610af3565b6040518082815260200191505060405180910390f35b6102fd600480360360208110156102d157600080fd5b81019080803573ffffffffffffffffffffffffffffffffffffffff169060200190929190505050610b3f565b005b610307610cdc565b6040518082815260200191505060405180910390f35b61034b6004803603602081101561033357600080fd5b81019080803515159060200190929190505050610ce2565b005b61038f6004803603602081101561036357600080fd5b81019080803573ffffffffffffffffffffffffffffffffffffffff169060200190929190505050610da5565b60405180848152602001838152602001828152602001935050505060405180910390f35b6103f5600480360360208110156103c957600080fd5b81019080803573ffffffffffffffffffffffffffffffffffffffff169060200190929190505050610dcf565b6040518082815260200191505060405180910390f35b6104376004803603602081101561042157600080fd5b8101908080359060200190929190505050610e1b565b60405180821515815260200191505060405180910390f35b610457611085565b604051808273ffffffffffffffffffffffffffffffffffffffff16815260200191505060405180910390f35b6104cf6004803603604081101561049957600080fd5b8101908080359060200190929190803573ffffffffffffffffffffffffffffffffffffffff1690602001909291905050506110ab565b6040518082815260200191505060405180910390f35b6104ed6110d3565b005b6104f76112ac565b6040518082815260200191505060405180910390f35b61054f6004803603602081101561052357600080fd5b81019080803573ffffffffffffffffffffffffffffffffffffffff1690602001909291905050506112b2565b005b6105936004803603602081101561056757600080fd5b81019080803573ffffffffffffffffffffffffffffffffffffffff16906020019092919050505061139a565b6040518082815260200191505060405180910390f35b6105b16113b2565b6040518082815260200191505060405180910390f35b6105cf6113b8565b60405180821515815260200191505060405180910390f35b6105ef611612565b6040518082815260200191505060405180910390f35b61060d611618565b60405180821515815260200191505060405180910390f35b61062d61162f565b60405180848152602001838152602001828152602001935050505060405180910390f35b61067d6004803603602081101561066757600080fd5b8101908080359060200190929190505050611651565b005b6106c16004803603602081101561069557600080fd5b81019080803573ffffffffffffffffffffffffffffffffffffffff1690602001909291905050506116ff565b6040518082815260200191505060405180910390f35b610719600480360360208110156106ed57600080fd5b81019080803573ffffffffffffffffffffffffffffffffffffffff169060200190929190505050611716565b60405180848152602001838152602001828152602001935050505060405180910390f35b6107896004803603604081101561075357600080fd5b81019080803573ffffffffffffffffffffffffffffffffffffffff169060200190929190803590602001909291905050506117f1565b005b6107b7600480360360208110156107a157600080fd5b81019080803590602001909291905050506119b8565b005b6107c1611a66565b604051808273ffffffffffffffffffffffffffffffffffffffff16815260200191505060405180910390f35b6107f5611a8c565b6040518082815260200191505060405180910390f35b6108376004803603602081101561082157600080fd5b8101908080359060200190929190505050611a92565b005b6108856004803603604081101561084f57600080fd5b8101908080359060200190929190803573ffffffffffffffffffffffffffffffffffffffff169060200190929190505050611d19565b6040518082815260200191505060405180910390f35b6108a3611d2d565b6040518082815260200191505060405180910390f35b6108c1611d33565b6040518082815260200191505060405180910390f35b6108df611d39565b60405180848152602001838152602001828152602001935050505060405180910390f35b61092f6004803603602081101561091957600080fd5b8101908080359060200190929190505050611d51565b60405180821515815260200191505060405180910390f35b61094f611ead565b6040518082815260200191505060405180910390f35b61096d611eb3565b6040518082815260200191505060405180910390f35b6109af6004803603602081101561099957600080fd5b8101908080359060200190929190505050611ec0565b005b6109b9611f6e565b6040518082815260200191505060405180910390f35b6109fb600480360360208110156109e557600080fd5b8101908080359060200190929190505050611f7c565b005b610a05612084565b604051808273ffffffffffffffffffffffffffffffffffffffff16815260200191505060405180910390f35b610a396120aa565b604051808273ffffffffffffffffffffffffffffffffffffffff16815260200191505060405180910390f35b610a6d6120d0565b6040518082815260200191505060405180910390f35b610a8b6120d6565b604051808273ffffffffffffffffffffffffffffffffffffffff16815260200191505060405180910390f35b610abf6120fa565b6040518082815260200191505060405180910390f35b610add612100565b6040518082815260200191505060405180910390f35b6000600660008373ffffffffffffffffffffffffffffffffffffffff1673ffffffffffffffffffffffffffffffffffffffff168152602001908152602001600020600101549050919050565b60008054906101000a900473ffffffffffffffffffffffffffffffffffffffff1673ffffffffffffffffffffffffffffffffffffffff163373ffffffffffffffffffffffffffffffffffffffff1614610be3576040517f08c379a000000000000000000000000000000000000000000000000000000000815260040180806020018281038252602f815260200180612f56602f913960400191505060405180910390fd5b6000600160009054906101000a900473ffffffffffffffffffffffffffffffffffffffff16905081600160006101000a81548173ffffffffffffffffffffffffffffffffffffffff021916908373ffffffffffffffffffffffffffffffffffffffff1602179055507f0faed18be9e8f4d4c05dfbcc80ea2c97a0be729614d766827778f60890c02cab81600160009054906101000a900473ffffffffffffffffffffffffffffffffffffffff16604051808373ffffffffffffffffffffffffffffffffffffffff1681526020018273ffffffffffffffffffffffffffffffffffffffff1681526020019250505060405180910390a15050565b60085481565b60008054906101000a900473ffffffffffffffffffffffffffffffffffffffff1673ffffffffffffffffffffffffffffffffffffffff163373ffffffffffffffffffffffffffffffffffffffff1614610d86576040517f08c379a000000000000000000000000000000000000000000000000000000000815260040180806020018281038252602f815260200180612f56602f913960400191505060405180910390fd5b8015610d9957610d94612106565b610da2565b610da16121f9565b5b50565b60066020528060005260406000206000915090508060000154908060010154908060020154905083565b6000600660008373ffffffffffffffffffffffffffffffffffffffff1673ffffffffffffffffffffffffffffffffffffffff168152602001908152602001600020600001549050919050565b6000600160149054906101000a900460ff1615610ea0576040517f08c379a00000000000000000000000000000000000000000000000000000000081526004018080602001828103825260108152602001807f5061757361626c653a207061757365640000000000000000000000000000000081525060200191505060405180910390fd5b601454821015610f18576040517f08c379a00000000000000000000000000000000000000000000000000000000081526004018080602001828103825260198152602001807f5374616b696e6720616d6f756e7420746f6f20736d616c6c2e0000000000000081525060200191505060405180910390fd5b600a60009054906101000a900473ffffffffffffffffffffffffffffffffffffffff1673ffffffffffffffffffffffffffffffffffffffff166323b872dd3330856040518463ffffffff1660e01b8152600401808473ffffffffffffffffffffffffffffffffffffffff1681526020018373ffffffffffffffffffffffffffffffffffffffff1681526020018281526020019350505050602060405180830381600087803b158015610fc957600080fd5b505af1158015610fdd573d6000803e3d6000fd5b505050506040513d6020811015610ff357600080fd5b8101908080519060200190929190505050506000439050600b5481111561101a57600b5490505b6110258133856122ec565b3373ffffffffffffffffffffffffffffffffffffffff167fa7cce4e8ff59a515dccbee3a6382e94deb1db79bdb43cf35a51251d41ea395f08442604051808381526020018281526020019250505060405180910390a26001915050919050565b600a60009054906101000a900473ffffffffffffffffffffffffffffffffffffffff1681565b6000600b548311156110bd57600b5492505b600090506110cb8383612475565b905092915050565b600160009054906101000a900473ffffffffffffffffffffffffffffffffffffffff1673ffffffffffffffffffffffffffffffffffffffff163373ffffffffffffffffffffffffffffffffffffffff1614611196576040517f08c379a000000000000000000000000000000000000000000000000000000000815260040180806020018281038252601f8152602001807f4f6e6c792063616e6469646174652063616e206265636f6d652061646d696e0081525060200191505060405180910390fd5b60008060009054906101000a900473ffffffffffffffffffffffffffffffffffffffff169050600160009054906101000a900473ffffffffffffffffffffffffffffffffffffffff166000806101000a81548173ffffffffffffffffffffffffffffffffffffffff021916908373ffffffffffffffffffffffffffffffffffffffff1602179055507f7e644d79422f17c01e4894b5f4f588d331ebfa28653d42ae832dc59e38c9798f8160008054906101000a900473ffffffffffffffffffffffffffffffffffffffff16604051808373ffffffffffffffffffffffffffffffffffffffff1681526020018273ffffffffffffffffffffffffffffffffffffffff1681526020019250505060405180910390a150565b60145481565b60008054906101000a900473ffffffffffffffffffffffffffffffffffffffff1673ffffffffffffffffffffffffffffffffffffffff163373ffffffffffffffffffffffffffffffffffffffff1614611356576040517f08c379a000000000000000000000000000000000000000000000000000000000815260040180806020018281038252602f815260200180612f56602f913960400191505060405180910390fd5b80600a60006101000a81548173ffffffffffffffffffffffffffffffffffffffff021916908373ffffffffffffffffffffffffffffffffffffffff16021790555050565b60126020528060005260406000206000915090505481565b60075481565b6000600160149054906101000a900460ff161561143d576040517f08c379a00000000000000000000000000000000000000000000000000000000081526004018080602001828103825260108152602001807f5061757361626c653a207061757365640000000000000000000000000000000081525060200191505060405180910390fd5b600f5442116114b4576040517f08c379a00000000000000000000000000000000000000000000000000000000081526004018080602001828103825260188152602001807f4e6f742074696d6520746f20636c61696d20726577617264000000000000000081525060200191505060405180910390fd5b60006114bf33610af3565b90506114cb3382612641565b60006114d9600b54336110ab565b90506114e433612751565b600a60009054906101000a900473ffffffffffffffffffffffffffffffffffffffff1673ffffffffffffffffffffffffffffffffffffffff1663a9059cbb33836040518363ffffffff1660e01b8152600401808373ffffffffffffffffffffffffffffffffffffffff16815260200182815260200192505050602060405180830381600087803b15801561157757600080fd5b505af115801561158b573d6000803e3d6000fd5b505050506040513d60208110156115a157600080fd5b8101908080519060200190929190505050503373ffffffffffffffffffffffffffffffffffffffff167f34fcbac0073d7c3d388e51312faf357774904998eeb8fca628b9e6f65ee1cbf78284604051808381526020018281526020019250505060405180910390a260019250505090565b60095481565b6000600160149054906101000a900460ff16905090565b6000806000600360000154600360010154600360020154925092509250909192565b60008054906101000a900473ffffffffffffffffffffffffffffffffffffffff1673ffffffffffffffffffffffffffffffffffffffff163373ffffffffffffffffffffffffffffffffffffffff16146116f5576040517f08c379a000000000000000000000000000000000000000000000000000000000815260040180806020018281038252602f815260200180612f56602f913960400191505060405180910390fd5b8060148190555050565b60008061170b83610af3565b905080915050919050565b6000806000600660008573ffffffffffffffffffffffffffffffffffffffff1673ffffffffffffffffffffffffffffffffffffffff16815260200190815260200160002060000154600660008673ffffffffffffffffffffffffffffffffffffffff1673ffffffffffffffffffffffffffffffffffffffff16815260200190815260200160002060010154600660008773ffffffffffffffffffffffffffffffffffffffff1673ffffffffffffffffffffffffffffffffffffffff168152602001908152602001600020600201549250925092509193909250565b60008054906101000a900473ffffffffffffffffffffffffffffffffffffffff1673ffffffffffffffffffffffffffffffffffffffff163373ffffffffffffffffffffffffffffffffffffffff1614611895576040517f08c379a000000000000000000000000000000000000000000000000000000000815260040180806020018281038252602f815260200180612f56602f913960400191505060405180910390fd5b6202a30042018110156118f3576040517f08c379a0000000000000000000000000000000000000000000000000000000008152600401808060200182810382526029815260200180612f2d6029913960400191505060405180910390fd5b81601060006101000a81548173ffffffffffffffffffffffffffffffffffffffff021916908373ffffffffffffffffffffffffffffffffffffffff160217905550806011819055507f19d2731b142d93a696d42170ea6dc53aa87024a1f79e9628658547a2d6fad2e6601060009054906101000a900473ffffffffffffffffffffffffffffffffffffffff16601154604051808373ffffffffffffffffffffffffffffffffffffffff1681526020018281526020019250505060405180910390a15050565b60008054906101000a900473ffffffffffffffffffffffffffffffffffffffff1673ffffffffffffffffffffffffffffffffffffffff163373ffffffffffffffffffffffffffffffffffffffff1614611a5c576040517f08c379a000000000000000000000000000000000000000000000000000000000815260040180806020018281038252602f815260200180612f56602f913960400191505060405180910390fd5b8060138190555050565b600160009054906101000a900473ffffffffffffffffffffffffffffffffffffffff1681565b600e5481565b60008054906101000a900473ffffffffffffffffffffffffffffffffffffffff1673ffffffffffffffffffffffffffffffffffffffff163373ffffffffffffffffffffffffffffffffffffffff1614611b36576040517f08c379a000000000000000000000000000000000000000000000000000000000815260040180806020018281038252602f815260200180612f56602f913960400191505060405180910390fd5b600060115411611bae576040517f08c379a00000000000000000000000000000000000000000000000000000000081526004018080602001828103825260168152602001807f6d5472616e734c6f636b54696d65206e6f74207365740000000000000000000081525060200191505060405180910390fd5b6011544211611c25576040517f08c379a00000000000000000000000000000000000000000000000000000000081526004018080602001828103825260178152602001807f506c73207761697420746f20756e6c6f636b2074696d6500000000000000000081525060200191505060405180910390fd5b600a60009054906101000a900473ffffffffffffffffffffffffffffffffffffffff1673ffffffffffffffffffffffffffffffffffffffff1663a9059cbb601060009054906101000a900473ffffffffffffffffffffffffffffffffffffffff16836040518363ffffffff1660e01b8152600401808373ffffffffffffffffffffffffffffffffffffffff16815260200182815260200192505050602060405180830381600087803b158015611cda57600080fd5b505af1158015611cee573d6000803e3d6000fd5b505050506040513d6020811015611d0457600080fd5b81019080805190602001909291905050505050565b6000611d258383612475565b905092915050565b60025481565b600d5481565b60038060000154908060010154908060020154905083565b6000600160149054906101000a900460ff1615611dd6576040517f08c379a00000000000000000000000000000000000000000000000000000000081526004018080602001828103825260108152602001807f5061757361626c653a207061757365640000000000000000000000000000000081525060200191505060405180910390fd5b60008211611e4c576040517f08c379a000000000000000000000000000000000000000000000000000000000815260040180806020018281038252600f8152602001807f496e76616c696420616d6f756e742e000000000000000000000000000000000081525060200191505060405180910390fd5b611e563383612641565b3373ffffffffffffffffffffffffffffffffffffffff167fcac6a9d108b4882699e5afc7402d86f41e4bae2981b76023107009d1fc2b11a3836040518082815260200191505060405180910390a260019050919050565b600f5481565b6000600360000154905090565b60008054906101000a900473ffffffffffffffffffffffffffffffffffffffff1673ffffffffffffffffffffffffffffffffffffffff163373ffffffffffffffffffffffffffffffffffffffff1614611f64576040517f08c379a000000000000000000000000000000000000000000000000000000000815260040180806020018281038252602f815260200180612f56602f913960400191505060405180910390fd5b80600f8190555050565b69152d02c7e14af680000081565b60008054906101000a900473ffffffffffffffffffffffffffffffffffffffff1673ffffffffffffffffffffffffffffffffffffffff163373ffffffffffffffffffffffffffffffffffffffff1614612020576040517f08c379a000000000000000000000000000000000000000000000000000000000815260040180806020018281038252602f815260200180612f56602f913960400191505060405180910390fd5b600b54811161207a576040517f08c379a0000000000000000000000000000000000000000000000000000000008152600401808060200182810382526024815260200180612ee86024913960400191505060405180910390fd5b80600b8190555050565b600c60009054906101000a900473ffffffffffffffffffffffffffffffffffffffff1681565b601060009054906101000a900473ffffffffffffffffffffffffffffffffffffffff1681565b600b5481565b60008054906101000a900473ffffffffffffffffffffffffffffffffffffffff1681565b60135481565b60115481565b600160149054906101000a900460ff1615612189576040517f08c379a00000000000000000000000000000000000000000000000000000000081526004018080602001828103825260108152602001807f5061757361626c653a207061757365640000000000000000000000000000000081525060200191505060405180910390fd5b60018060146101000a81548160ff0219169083151502179055507f62e78cea01bee320cd4e420270b5ea74000d11b0c9f74754ebdbfc544b05a2586121cc6127b0565b604051808273ffffffffffffffffffffffffffffffffffffffff16815260200191505060405180910390a1565b600160149054906101000a900460ff1661227b576040517f08c379a00000000000000000000000000000000000000000000000000000000081526004018080602001828103825260148152602001807f5061757361626c653a206e6f742070617573656400000000000000000000000081525060200191505060405180910390fd5b6000600160146101000a81548160ff0219169083151502179055507f5db9ee0a495bf2e6ff9c91a7834c1ba4fdd244a5e8aa4e537bd38aeae4b073aa6122bf6127b0565b604051808273ffffffffffffffffffffffffffffffffffffffff16815260200191505060405180910390a1565b6000600390506000600660008573ffffffffffffffffffffffffffffffffffffffff1673ffffffffffffffffffffffffffffffffffffffff168152602001908152602001600020905061233e856127b8565b6000816001015411156123e85760006123d082600201546040518060400160405280601d81526020017f5f6465706f7369742070656e64696e6720737562206f766572666c6f770000008152506123c168056bc75e2d631000006123b3886002015488600101546128ef90919063ffffffff16565b61297590919063ffffffff16565b6129bf9092919063ffffffff16565b905060008111156123e6576123e58282612a7f565b5b505b600083111561243057612408838260010154612b0490919063ffffffff16565b8160010181905550612427838360000154612b0490919063ffffffff16565b82600001819055505b61246668056bc75e2d63100000612458846002015484600101546128ef90919063ffffffff16565b61297590919063ffffffff16565b81600201819055505050505050565b600080600390506000600660008573ffffffffffffffffffffffffffffffffffffffff1673ffffffffffffffffffffffffffffffffffffffff16815260200190815260200160002090506000826002015490506000836000015490508360010154871180156124e5575060008114155b1561259a57600061253a85600101546040518060400160405280601881526020017f637220637572426c6f636b20737562206f766572666c6f7700000000000000008152508a6129bf9092919063ffffffff16565b90506000612553600254836128ef90919063ffffffff16565b90506125956125868461257868056bc75e2d63100000856128ef90919063ffffffff16565b61297590919063ffffffff16565b85612b0490919063ffffffff16565b935050505b600061261b84600201546040518060400160405280601981526020017f6372206e657752657761726420737562206f766572666c6f770000000000000081525061260c68056bc75e2d631000006125fe888a600101546128ef90919063ffffffff16565b61297590919063ffffffff16565b6129bf9092919063ffffffff16565b9050612634846000015482612b0490919063ffffffff16565b9550505050505092915050565b6000439050600b5481111561265657600b5490505b6000829050612666828585612b8c565b60009250600a60009054906101000a900473ffffffffffffffffffffffffffffffffffffffff1673ffffffffffffffffffffffffffffffffffffffff1663a9059cbb336126bc8685612db590919063ffffffff16565b6040518363ffffffff1660e01b8152600401808373ffffffffffffffffffffffffffffffffffffffff16815260200182815260200192505050602060405180830381600087803b15801561270f57600080fd5b505af1158015612723573d6000803e3d6000fd5b505050506040513d602081101561273957600080fd5b81019080805190602001909291905050505050505050565b6000600660008373ffffffffffffffffffffffffffffffffffffffff1673ffffffffffffffffffffffffffffffffffffffff16815260200190815260200160002090506000816000015411156127ac57600081600001819055505b5050565b600033905090565b600060039050806001015482116127cf57506128ec565b60008160000154905060008114156127f15782826001018190555050506128ec565b600061284183600101546040518060400160405280601d81526020017f5f75706461746520637572426c6f636b20737562206f766572666c6f77000000815250866129bf9092919063ffffffff16565b9050600061285a600254836128ef90919063ffffffff16565b905061287181600854612b0490919063ffffffff16565b60088190555061288c81600954612b0490919063ffffffff16565b6009819055506128d66128c3846128b568056bc75e2d63100000856128ef90919063ffffffff16565b61297590919063ffffffff16565b8560020154612b0490919063ffffffff16565b8460020181905550848460010181905550505050505b50565b600080831415612902576000905061296f565b600082840290508284828161291357fe5b041461296a576040517f08c379a0000000000000000000000000000000000000000000000000000000008152600401808060200182810382526021815260200180612f0c6021913960400191505060405180910390fd5b809150505b92915050565b60006129b783836040518060400160405280601a81526020017f536166654d6174683a206469766973696f6e206279207a65726f000000000000815250612dff565b905092915050565b6000838311158290612a6c576040517f08c379a00000000000000000000000000000000000000000000000000000000081526004018080602001828103825283818151815260200191508051906020019080838360005b83811015612a31578082015181840152602081019050612a16565b50505050905090810190601f168015612a5e5780820380516001836020036101000a031916815260200191505b509250505060405180910390fd5b5060008385039050809150509392505050565b600854811115612a8f5760085490505b612adb816040518060400160405280602081526020017f7265776172642072656d61696e52657761726420737562206f766572666c6f778152506008546129bf9092919063ffffffff16565b600881905550612af8818360000154612b0490919063ffffffff16565b82600001819055505050565b600080828401905083811015612b82576040517f08c379a000000000000000000000000000000000000000000000000000000000815260040180806020018281038252601b8152602001807f536166654d6174683a206164646974696f6e206f766572666c6f77000000000081525060200191505060405180910390fd5b8091505092915050565b6000600390506000600660008573ffffffffffffffffffffffffffffffffffffffff1673ffffffffffffffffffffffffffffffffffffffff16815260200190815260200160002090508281600101541015612c4f576040517f08c379a00000000000000000000000000000000000000000000000000000000081526004018080602001828103825260138152602001807f5f77697468647261773a206e6f7420676f6f640000000000000000000000000081525060200191505060405180910390fd5b612c58856127b8565b6000612cdd82600201546040518060400160405280601e81526020017f5f77697468647261772070656e64696e6720737562206f766572666c6f770000815250612cce68056bc75e2d63100000612cc0886002015488600101546128ef90919063ffffffff16565b61297590919063ffffffff16565b6129bf9092919063ffffffff16565b90506000811115612cf357612cf28282612a7f565b5b6000841115612d6f57612d2d84604051806060016040528060228152602001612ec66022913984600101546129bf9092919063ffffffff16565b8260010181905550612d6684604051806060016040528060228152602001612f856022913985600001546129bf9092919063ffffffff16565b83600001819055505b612da568056bc75e2d63100000612d97856002015485600101546128ef90919063ffffffff16565b61297590919063ffffffff16565b8260020181905550505050505050565b6000612df783836040518060400160405280601e81526020017f536166654d6174683a207375627472616374696f6e206f766572666c6f7700008152506129bf565b905092915050565b60008083118290612eab576040517f08c379a00000000000000000000000000000000000000000000000000000000081526004018080602001828103825283818151815260200191508051906020019080838360005b83811015612e70578082015181840152602081019050612e55565b50505050905090810190601f168015612e9d5780820380516001836020036101000a031916815260200191505b509250505060405180910390fd5b506000838581612eb757fe5b04905080915050939250505056fe5f776974686472617720757365722e616d6f756e7420737562206f766572666c6f776e657720656e64426c6f636b206c657373207468616e206f6c6420656e64426c6f636b2e536166654d6174683a206d756c7469706c69636174696f6e206f766572666c6f776c6f636b74696d65206e656564206c6172676572207468616e206375722074696d65203220646179734f6e6c792074686520636f6e74726163742061646d696e2063616e20706572666f726d207468697320616374696f6e5f776974686472617720706f6f6c2e616d6f756e7420737562206f766572666c6f77a26469706673582212202f8e409c231337dc5c76c14dc5cb4f1caf0549088c1d81caf3960eb732d418d464736f6c634300060c0033",
  "immutableReferences": {},
  "source": "// SPDX-License-Identifier: MIT\npragma solidity ^0.6.12;\n\nimport \"./IERC20.sol\";\nimport \"./LnAdmin.sol\";\nimport \"./LnOperatorModifier.sol\";\nimport \"@openzeppelin/contracts/math/SafeMath.sol\";\nimport \"@openzeppelin/contracts/utils/Pausable.sol\";\nimport \"./LnAccessControl.sol\";\nimport \"./LnLinearStaking.sol\";\nimport \"./SafeDecimalMath.sol\";\n\ncontract LnRewardCalculator {\n    using SafeMath for uint256;\n\n    struct UserInfo {\n        uint256 reward;\n        uint256 amount;\n        uint256 rewardDebt;\n    }\n\n    struct PoolInfo {\n        uint256 amount;\n        uint256 lastRewardBlock;\n        uint256 accRewardPerShare;\n    }\n\n    uint256 public rewardPerBlock;\n\n    PoolInfo public mPoolInfo;\n    mapping(address => UserInfo) public userInfo;\n\n    uint256 public startBlock;\n    uint256 public remainReward;\n    uint256 public accReward;\n\n    constructor(uint256 _rewardPerBlock, uint256 _startBlock) public {\n        rewardPerBlock = _rewardPerBlock;\n        startBlock = _startBlock;\n        mPoolInfo.lastRewardBlock = startBlock;\n    }\n\n    function _calcReward(uint256 curBlock, address _user)\n        internal\n        view\n        returns (uint256)\n    {\n        PoolInfo storage pool = mPoolInfo;\n        UserInfo storage user = userInfo[_user];\n        uint256 accRewardPerShare = pool.accRewardPerShare;\n        uint256 lpSupply = pool.amount;\n        if (curBlock > pool.lastRewardBlock && lpSupply != 0) {\n            uint256 multiplier = curBlock.sub(\n                pool.lastRewardBlock,\n                \"cr curBlock sub overflow\"\n            );\n            uint256 curReward = multiplier.mul(rewardPerBlock);\n            accRewardPerShare = accRewardPerShare.add(\n                curReward.mul(1e20).div(lpSupply)\n            );\n        }\n        uint256 newReward = user.amount.mul(accRewardPerShare).div(1e20).sub(\n            user.rewardDebt,\n            \"cr newReward sub overflow\"\n        );\n        return newReward.add(user.reward);\n    }\n\n    function rewardOf(address _user) public view returns (uint256) {\n        return userInfo[_user].reward;\n    }\n\n    function amount() public view returns (uint256) {\n        return mPoolInfo.amount;\n    }\n\n    function amountOf(address _user) public view returns (uint256) {\n        return userInfo[_user].amount;\n    }\n\n    function getUserInfo(address _user)\n        public\n        view\n        returns (\n            uint256,\n            uint256,\n            uint256\n        )\n    {\n        return (\n            userInfo[_user].reward,\n            userInfo[_user].amount,\n            userInfo[_user].rewardDebt\n        );\n    }\n\n    function getPoolInfo()\n        public\n        view\n        returns (\n            uint256,\n            uint256,\n            uint256\n        )\n    {\n        return (\n            mPoolInfo.amount,\n            mPoolInfo.lastRewardBlock,\n            mPoolInfo.accRewardPerShare\n        );\n    }\n\n    function _update(uint256 curBlock) internal {\n        PoolInfo storage pool = mPoolInfo;\n        if (curBlock <= pool.lastRewardBlock) {\n            return;\n        }\n        uint256 lpSupply = pool.amount;\n        if (lpSupply == 0) {\n            pool.lastRewardBlock = curBlock;\n            return;\n        }\n        uint256 multiplier = curBlock.sub(\n            pool.lastRewardBlock,\n            \"_update curBlock sub overflow\"\n        );\n        uint256 curReward = multiplier.mul(rewardPerBlock);\n\n        remainReward = remainReward.add(curReward);\n        accReward = accReward.add(curReward);\n\n        pool.accRewardPerShare = pool.accRewardPerShare.add(\n            curReward.mul(1e20).div(lpSupply)\n        );\n        pool.lastRewardBlock = curBlock;\n    }\n\n    function _deposit(\n        uint256 curBlock,\n        address _addr,\n        uint256 _amount\n    ) internal {\n        PoolInfo storage pool = mPoolInfo;\n        UserInfo storage user = userInfo[_addr];\n        _update(curBlock);\n        if (user.amount > 0) {\n            uint256 pending = user\n                .amount\n                .mul(pool.accRewardPerShare)\n                .div(1e20)\n                .sub(user.rewardDebt, \"_deposit pending sub overflow\");\n            if (pending > 0) {\n                reward(user, pending);\n            }\n        }\n        if (_amount > 0) {\n            user.amount = user.amount.add(_amount);\n            pool.amount = pool.amount.add(_amount);\n        }\n        user.rewardDebt = user.amount.mul(pool.accRewardPerShare).div(1e20);\n    }\n\n    function _withdraw(\n        uint256 curBlock,\n        address _addr,\n        uint256 _amount\n    ) internal {\n        PoolInfo storage pool = mPoolInfo;\n        UserInfo storage user = userInfo[_addr];\n        require(user.amount >= _amount, \"_withdraw: not good\");\n        _update(curBlock);\n        uint256 pending = user.amount.mul(pool.accRewardPerShare).div(1e20).sub(\n            user.rewardDebt,\n            \"_withdraw pending sub overflow\"\n        );\n        if (pending > 0) {\n            reward(user, pending);\n        }\n        if (_amount > 0) {\n            user.amount = user.amount.sub(\n                _amount,\n                \"_withdraw user.amount sub overflow\"\n            );\n            pool.amount = pool.amount.sub(\n                _amount,\n                \"_withdraw pool.amount sub overflow\"\n            );\n        }\n        user.rewardDebt = user.amount.mul(pool.accRewardPerShare).div(1e20);\n    }\n\n    function reward(UserInfo storage user, uint256 _amount) internal {\n        if (_amount > remainReward) {\n            _amount = remainReward;\n        }\n        remainReward = remainReward.sub(\n            _amount,\n            \"reward remainReward sub overflow\"\n        );\n        user.reward = user.reward.add(_amount);\n    }\n\n    function _claim(address _addr) internal {\n        UserInfo storage user = userInfo[_addr];\n        if (user.reward > 0) {\n            user.reward = 0;\n        }\n    }\n}\n\ncontract LnRewardCalculatorTest is LnRewardCalculator {\n    constructor(uint256 _rewardPerBlock, uint256 _startBlock)\n        public\n        LnRewardCalculator(_rewardPerBlock, _startBlock)\n    {}\n\n    function deposit(\n        uint256 curBlock,\n        address _addr,\n        uint256 _amount\n    ) public {\n        _deposit(curBlock, _addr, _amount);\n    }\n\n    function withdraw(\n        uint256 curBlock,\n        address _addr,\n        uint256 _amount\n    ) public {\n        _withdraw(curBlock, _addr, _amount);\n    }\n\n    function calcReward(uint256 curBlock, address _user)\n        public\n        view\n        returns (uint256)\n    {\n        return _calcReward(curBlock, _user);\n    }\n}\n\ncontract LnSimpleStaking is\n    LnAdmin,\n    Pausable,\n    ILinearStaking,\n    LnRewardCalculator\n{\n    using SafeMath for uint256;\n    using SafeDecimalMath for uint256;\n\n    IERC20 public linaToken; // lina token proxy address\n    LnLinearStakingStorage public stakingStorage;\n    uint256 public mEndBlock;\n    address public mOldStaking;\n    uint256 public mOldAmount;\n    uint256 public mWidthdrawRewardFromOldStaking;\n\n    uint256 public claimRewardLockTime = 1620806400; // 2021-5-12\n\n    address public mTargetAddress;\n    uint256 public mTransLockTime;\n\n    mapping(address => uint256) public mOldReward;\n\n    constructor(\n        address _admin,\n        address _linaToken,\n        address _storage,\n        uint256 _rewardPerBlock,\n        uint256 _startBlock,\n        uint256 _endBlock\n    ) public LnAdmin(_admin) LnRewardCalculator(_rewardPerBlock, _startBlock) {\n        linaToken = IERC20(_linaToken);\n        stakingStorage = LnLinearStakingStorage(_storage);\n        mEndBlock = _endBlock;\n    }\n\n    function setLinaToken(address _linaToken) external onlyAdmin {\n        linaToken = IERC20(_linaToken);\n    }\n\n    function setPaused(bool _paused) external onlyAdmin {\n        if (_paused) {\n            _pause();\n        } else {\n            _unpause();\n        }\n    }\n\n    //////////////////////////////////////////////////////\n    event Staking(address indexed who, uint256 value, uint256 staketime);\n    event CancelStaking(address indexed who, uint256 value);\n    event Claim(address indexed who, uint256 rewardval, uint256 totalStaking);\n    event TransLock(address target, uint256 time);\n\n    uint256 public accountStakingListLimit = 50;\n    uint256 public minStakingAmount = 1e18; // 1 token\n    uint256 public constant PRECISION_UINT = 1e23;\n\n    function setStakingListLimit(uint256 _limit) external onlyAdmin {\n        accountStakingListLimit = _limit;\n    }\n\n    function setMinStakingAmount(uint256 _minStakingAmount) external onlyAdmin {\n        minStakingAmount = _minStakingAmount;\n    }\n\n    function stakingBalanceOf(address account)\n        external\n        override\n        view\n        returns (uint256)\n    {\n        uint256 stakingBalance = super.amountOf(account).add(\n            stakingStorage.stakingBalanceOf(account)\n        );\n        return stakingBalance;\n    }\n\n    function getStakesdataLength(address account)\n        external\n        view\n        returns (uint256)\n    {\n        return stakingStorage.getStakesdataLength(account);\n    }\n\n    //--------------------------------------------------------\n\n    function migrationsOldStaking(\n        address contractAddr,\n        uint256 amount,\n        uint256 blockNb\n    ) public onlyAdmin {\n        super._deposit(blockNb, contractAddr, amount);\n        mOldStaking = contractAddr;\n        mOldAmount = amount;\n    }\n\n    function staking(uint256 amount)\n        public\n        override\n        whenNotPaused\n        returns (bool)\n    {\n        stakingStorage.requireInStakingPeriod();\n\n        require(amount >= minStakingAmount, \"Staking amount too small.\");\n        //require(stakingStorage.getStakesdataLength(msg.sender) < accountStakingListLimit, \"Staking list out of limit.\");\n\n        linaToken.transferFrom(msg.sender, address(this), amount);\n\n        uint256 blockNb = block.number;\n        if (blockNb > mEndBlock) {\n            blockNb = mEndBlock;\n        }\n        super._deposit(blockNb, msg.sender, amount);\n\n        emit Staking(msg.sender, amount, block.timestamp);\n\n        return true;\n    }\n\n    function _widthdrawFromOldStaking(address _addr, uint256 amount) internal {\n        uint256 blockNb = block.number;\n        if (blockNb > mEndBlock) {\n            blockNb = mEndBlock;\n        }\n\n        uint256 oldStakingAmount = super.amountOf(mOldStaking);\n        super._withdraw(blockNb, mOldStaking, amount);\n        // sub already withraw reward, then cal portion\n        uint256 reward = super\n            .rewardOf(mOldStaking)\n            .sub(\n            mWidthdrawRewardFromOldStaking,\n            \"_widthdrawFromOldStaking reward sub overflow\"\n        )\n            .mul(amount)\n            .mul(1e20)\n            .div(oldStakingAmount)\n            .div(1e20);\n        mWidthdrawRewardFromOldStaking = mWidthdrawRewardFromOldStaking.add(\n            reward\n        );\n        mOldReward[_addr] = mOldReward[_addr].add(reward);\n    }\n\n    function _cancelStaking(address user, uint256 amount) internal {\n        uint256 blockNb = block.number;\n        if (blockNb > mEndBlock) {\n            blockNb = mEndBlock;\n        }\n\n        uint256 returnAmount = amount;\n        uint256 newAmount = super.amountOf(user);\n        if (newAmount >= amount) {\n            super._withdraw(blockNb, user, amount);\n            amount = 0;\n        } else {\n            if (newAmount > 0) {\n                super._withdraw(blockNb, user, newAmount);\n                amount = amount.sub(\n                    newAmount,\n                    \"_cancelStaking amount sub overflow\"\n                );\n            }\n\n            for (\n                uint256 i = stakingStorage.getStakesdataLength(user);\n                i >= 1;\n                i--\n            ) {\n                (uint256 stakingAmount, uint256 staketime) = stakingStorage\n                    .getStakesDataByIndex(user, i - 1);\n                if (amount >= stakingAmount) {\n                    amount = amount.sub(\n                        stakingAmount,\n                        \"_cancelStaking amount sub overflow\"\n                    );\n\n                    stakingStorage.PopStakesData(user);\n                    stakingStorage.SubWeeksTotal(staketime, stakingAmount);\n                    _widthdrawFromOldStaking(user, stakingAmount);\n                } else {\n                    stakingStorage.StakingDataSub(user, i - 1, amount);\n                    stakingStorage.SubWeeksTotal(staketime, amount);\n                    _widthdrawFromOldStaking(user, amount);\n\n                    amount = 0;\n                }\n                if (amount == 0) break;\n            }\n        }\n\n        // cancel as many as possible, not fail, that waste gas\n        //require(amount == 0, \"Cancel amount too big then staked.\");\n\n        linaToken.transfer(msg.sender, returnAmount.sub(amount));\n    }\n\n    function cancelStaking(uint256 amount)\n        public\n        override\n        whenNotPaused\n        returns (bool)\n    {\n        //stakingStorage.requireInStakingPeriod();\n\n        require(amount > 0, \"Invalid amount.\");\n\n        _cancelStaking(msg.sender, amount);\n\n        emit CancelStaking(msg.sender, amount);\n\n        return true;\n    }\n\n    function getTotalReward(uint256 blockNb, address _user)\n        public\n        view\n        returns (uint256 total)\n    {\n        if (blockNb > mEndBlock) {\n            blockNb = mEndBlock;\n        }\n\n        // \n        // 1,cancel\n        // 2,\n        // 3\n        total = mOldReward[_user];\n        uint256 iMyOldStaking = 0;\n        for (\n            uint256 i = 0;\n            i < stakingStorage.getStakesdataLength(_user);\n            i++\n        ) {\n            (uint256 stakingAmount, ) = stakingStorage.getStakesDataByIndex(\n                _user,\n                i\n            );\n            iMyOldStaking = iMyOldStaking.add(stakingAmount);\n        }\n        if (iMyOldStaking > 0) {\n            uint256 oldStakingAmount = super.amountOf(mOldStaking);\n            uint256 iReward2 = super\n                ._calcReward(blockNb, mOldStaking)\n                .sub(\n                mWidthdrawRewardFromOldStaking,\n                \"getTotalReward iReward2 sub overflow\"\n            )\n                .mul(iMyOldStaking)\n                .div(oldStakingAmount);\n            total = total.add(iReward2);\n        }\n\n        uint256 reward3 = super._calcReward(blockNb, _user);\n        total = total.add(reward3);\n    }\n\n    // claim reward\n    // Note: token\n    function claim() public override whenNotPaused returns (bool) {\n        //stakingStorage.requireStakingEnd();\n        require(\n            block.timestamp > claimRewardLockTime,\n            \"Not time to claim reward\"\n        );\n\n        uint256 iMyOldStaking = stakingStorage.stakingBalanceOf(msg.sender);\n        uint256 iAmount = super.amountOf(msg.sender);\n        _cancelStaking(msg.sender, iMyOldStaking.add(iAmount));\n\n        uint256 iReward = getTotalReward(mEndBlock, msg.sender);\n\n        _claim(msg.sender);\n        mOldReward[msg.sender] = 0;\n        linaToken.transfer(msg.sender, iReward);\n\n        emit Claim(msg.sender, iReward, iMyOldStaking.add(iAmount));\n        return true;\n    }\n\n    function setRewardLockTime(uint256 newtime) public onlyAdmin {\n        claimRewardLockTime = newtime;\n    }\n\n    function calcReward(uint256 curBlock, address _user)\n        public\n        view\n        returns (uint256)\n    {\n        return _calcReward(curBlock, _user);\n    }\n\n    function setTransLock(address target, uint256 locktime) public onlyAdmin {\n        require(\n            locktime >= now + 2 days,\n            \"locktime need larger than cur time 2 days\"\n        );\n        mTargetAddress = target;\n        mTransLockTime = locktime;\n\n        emit TransLock(mTargetAddress, mTransLockTime);\n    }\n\n    function transTokens(uint256 amount) public onlyAdmin {\n        require(mTransLockTime > 0, \"mTransLockTime not set\");\n        require(now > mTransLockTime, \"Pls wait to unlock time\");\n        linaToken.transfer(mTargetAddress, amount);\n    }\n}\n\ncontract HelperPushStakingData is LnAdmin {\n    constructor(address _admin) public LnAdmin(_admin) {}\n\n    function pushStakingData(\n        address _storage,\n        address[] calldata account,\n        uint256[] calldata amount,\n        uint256[] calldata staketime\n    ) external {\n        require(account.length > 0, \"array length zero\");\n        require(account.length == amount.length, \"array length not eq\");\n        require(account.length == staketime.length, \"array length not eq\");\n\n        LnLinearStakingStorage stakingStorage = LnLinearStakingStorage(\n            _storage\n        );\n        for (uint256 i = 0; i < account.length; i++) {\n            stakingStorage.PushStakingData(account[i], amount[i], staketime[i]);\n            stakingStorage.AddWeeksTotal(staketime[i], amount[i]);\n        }\n    }\n\n    //unstaking.\n}\n\ncontract MultiSigForTransferFunds {\n    mapping(address => uint256) public mAdmins;\n    uint256 public mConfirmNumb;\n    uint256 public mProposalNumb;\n    uint256 public mAmount;\n    LnSimpleStaking public mStaking;\n    address[] public mAdminArr;\n    uint256 public mTransLockTime;\n\n    constructor(\n        address[] memory _addr,\n        uint256 iConfirmNumb,\n        LnSimpleStaking _staking\n    ) public {\n        for (uint256 i = 0; i < _addr.length; ++i) {\n            mAdmins[_addr[i]] = 1;\n        }\n        mConfirmNumb = iConfirmNumb;\n        mProposalNumb = 0;\n        mStaking = _staking;\n        mAdminArr = _addr;\n    }\n\n    function becomeAdmin(address target) external {\n        LnAdmin(target).becomeAdmin();\n    }\n\n    function setTransLock(\n        address target,\n        uint256 locktime,\n        uint256 amount\n    ) public {\n        require(mAdmins[msg.sender] == 1, \"not in admin list or set state\");\n        _reset();\n        mStaking.setTransLock(target, locktime);\n        mAmount = amount;\n        mProposalNumb = 1;\n        mAdmins[msg.sender] = 2; //\n\n        mTransLockTime = locktime;\n    }\n\n    // call this when the locktime expired\n    function confirmTransfer() public {\n        require(mAdmins[msg.sender] == 1, \"not in admin list or set state\");\n        mProposalNumb = mProposalNumb + 1;\n        mAdmins[msg.sender] = 2;\n    }\n\n    function doTransfer() public {\n        require(mTransLockTime > 0, \"mTransLockTime not set\");\n        require(now > mTransLockTime, \"Pls wait to unlock time\");\n        require(mProposalNumb >= mConfirmNumb, \"need more confirm\");\n\n        _reset();\n        mStaking.transTokens(mAmount);\n    }\n\n    function _reset() internal {\n        mProposalNumb = 0;\n        mTransLockTime = 0;\n        // reset\n        for (uint256 i = 0; i < mAdminArr.length; ++i) {\n            mAdmins[mAdminArr[i]] = 1;\n        }\n    }\n}\n\n//use for simpleStaking extension without stakingStorage\ncontract LnStakingReward is\n    LnAdmin,\n    Pausable,\n    ILinearStaking,\n    LnRewardCalculator\n{\n    using SafeMath for uint256;\n    using SafeDecimalMath for uint256;\n\n    IERC20 public linaToken; // lina token proxy address\n    uint256 public mEndBlock;\n    address public mOldStaking;\n    uint256 public mOldAmount;\n    uint256 public mWidthdrawRewardFromOldStaking;\n\n    uint256 public claimRewardLockTime = 1620806400; // 2021-5-12\n\n    address public mTargetAddress;\n    uint256 public mTransLockTime;\n\n    mapping(address => uint256) public mOldReward;\n\n    constructor(\n        address _admin,\n        address _linaToken,\n        uint256 _rewardPerBlock,\n        uint256 _startBlock,\n        uint256 _endBlock\n    ) public LnAdmin(_admin) LnRewardCalculator(_rewardPerBlock, _startBlock) {\n        linaToken = IERC20(_linaToken);\n        mEndBlock = _endBlock;\n    }\n\n    function setLinaToken(address _linaToken) external onlyAdmin {\n        linaToken = IERC20(_linaToken);\n    }\n\n    function setPaused(bool _paused) external onlyAdmin {\n        if (_paused) {\n            _pause();\n        } else {\n            _unpause();\n        }\n    }\n\n    //////////////////////////////////////////////////////\n    event Staking(address indexed who, uint256 value, uint256 staketime);\n    event CancelStaking(address indexed who, uint256 value);\n    event Claim(address indexed who, uint256 rewardval, uint256 totalStaking);\n    event TransLock(address target, uint256 time);\n\n    uint256 public accountStakingListLimit = 50;\n    uint256 public minStakingAmount = 1e18; // 1 token\n    uint256 public constant PRECISION_UINT = 1e23;\n\n    function setStakingListLimit(uint256 _limit) external onlyAdmin {\n        accountStakingListLimit = _limit;\n    }\n\n    function setMinStakingAmount(uint256 _minStakingAmount) external onlyAdmin {\n        minStakingAmount = _minStakingAmount;\n    }\n\n    function setEndBlock(uint256 _newEndBlock) external onlyAdmin {\n        require(\n            _newEndBlock > mEndBlock,\n            \"new endBlock less than old endBlock.\"\n        );\n        mEndBlock = _newEndBlock;\n    }\n\n    function stakingBalanceOf(address account)\n        external\n        override\n        view\n        returns (uint256)\n    {\n        uint256 stakingBalance = super.amountOf(account);\n        return stakingBalance;\n    }\n\n    function staking(uint256 amount)\n        public\n        override\n        whenNotPaused\n        returns (bool)\n    {\n        require(amount >= minStakingAmount, \"Staking amount too small.\");\n        //require(stakingStorage.getStakesdataLength(msg.sender) < accountStakingListLimit, \"Staking list out of limit.\");\n\n        linaToken.transferFrom(msg.sender, address(this), amount);\n\n        uint256 blockNb = block.number;\n        if (blockNb > mEndBlock) {\n            blockNb = mEndBlock;\n        }\n        super._deposit(blockNb, msg.sender, amount);\n\n        emit Staking(msg.sender, amount, block.timestamp);\n\n        return true;\n    }\n\n    function _cancelStaking(address user, uint256 amount) internal {\n        uint256 blockNb = block.number;\n        if (blockNb > mEndBlock) {\n            blockNb = mEndBlock;\n        }\n\n        uint256 returnAmount = amount;\n        super._withdraw(blockNb, user, amount);\n        amount = 0;\n        linaToken.transfer(msg.sender, returnAmount.sub(amount));\n    }\n\n    function cancelStaking(uint256 amount)\n        public\n        override\n        whenNotPaused\n        returns (bool)\n    {\n        require(amount > 0, \"Invalid amount.\");\n\n        _cancelStaking(msg.sender, amount);\n\n        emit CancelStaking(msg.sender, amount);\n\n        return true;\n    }\n\n    function getTotalReward(uint256 blockNb, address _user)\n        public\n        view\n        returns (uint256 total)\n    {\n        if (blockNb > mEndBlock) {\n            blockNb = mEndBlock;\n        }\n        total = 0;\n        total = super._calcReward(blockNb, _user);\n    }\n\n    // claim reward\n    // Note: token\n    function claim() public override whenNotPaused returns (bool) {\n        require(\n            block.timestamp > claimRewardLockTime,\n            \"Not time to claim reward\"\n        );\n\n        uint256 iAmount = super.amountOf(msg.sender);\n        _cancelStaking(msg.sender, iAmount);\n\n        uint256 iReward = getTotalReward(mEndBlock, msg.sender);\n\n        _claim(msg.sender);\n        linaToken.transfer(msg.sender, iReward);\n\n        emit Claim(msg.sender, iReward, iAmount);\n        return true;\n    }\n\n    function setRewardLockTime(uint256 newtime) public onlyAdmin {\n        claimRewardLockTime = newtime;\n    }\n\n    function calcReward(uint256 curBlock, address _user)\n        public\n        view\n        returns (uint256)\n    {\n        return _calcReward(curBlock, _user);\n    }\n\n    function setTransLock(address target, uint256 locktime) public onlyAdmin {\n        require(\n            locktime >= now + 2 days,\n            \"locktime need larger than cur time 2 days\"\n        );\n        mTargetAddress = target;\n        mTransLockTime = locktime;\n\n        emit TransLock(mTargetAddress, mTransLockTime);\n    }\n\n    function transTokens(uint256 amount) public onlyAdmin {\n        require(mTransLockTime > 0, \"mTransLockTime not set\");\n        require(now > mTransLockTime, \"Pls wait to unlock time\");\n        linaToken.transfer(mTargetAddress, amount);\n    }\n}\n",
  "sourcePath": "/Users/michael/Linear-finance/Linear/contracts/LnSimpleStaking.sol",
  "compiler": {
    "name": "solc",
    "version": "0.6.12+commit.27d51765.Emscripten.clang"
  },
  "schemaVersion": "3.3.2",
  "updatedAt": "2020-11-12T14:47:18.813Z",
  "devdoc": {
    "kind": "dev",
    "methods": {
      "paused()": {
        "details": "Returns true if the contract is paused, and false otherwise."
      }
    },
    "version": 1
  },
  "userdoc": {
    "kind": "user",
    "methods": {},
    "version": 1
  }
}