{
  "contractName": "LnTokenCliffLocker",
  "abi": [
    {
      "inputs": [
        {
          "internalType": "address",
          "name": "_token",
          "type": "address"
        },
        {
          "internalType": "address",
          "name": "_admin",
          "type": "address"
        }
      ],
      "stateMutability": "nonpayable",
      "type": "constructor"
    },
    {
      "anonymous": false,
      "inputs": [
        {
          "indexed": false,
          "internalType": "address",
          "name": "oldAdmin",
          "type": "address"
        },
        {
          "indexed": false,
          "internalType": "address",
          "name": "newAdmin",
          "type": "address"
        }
      ],
      "name": "AdminChanged",
      "type": "event"
    },
    {
      "anonymous": false,
      "inputs": [
        {
          "indexed": false,
          "internalType": "address",
          "name": "account",
          "type": "address"
        }
      ],
      "name": "Paused",
      "type": "event"
    },
    {
      "anonymous": false,
      "inputs": [
        {
          "indexed": false,
          "internalType": "address",
          "name": "account",
          "type": "address"
        }
      ],
      "name": "Unpaused",
      "type": "event"
    },
    {
      "anonymous": false,
      "inputs": [
        {
          "indexed": false,
          "internalType": "address",
          "name": "oldCandidate",
          "type": "address"
        },
        {
          "indexed": false,
          "internalType": "address",
          "name": "newCandidate",
          "type": "address"
        }
      ],
      "name": "candidateChanged",
      "type": "event"
    },
    {
      "inputs": [],
      "name": "admin",
      "outputs": [
        {
          "internalType": "address",
          "name": "",
          "type": "address"
        }
      ],
      "stateMutability": "view",
      "type": "function"
    },
    {
      "inputs": [],
      "name": "becomeAdmin",
      "outputs": [],
      "stateMutability": "nonpayable",
      "type": "function"
    },
    {
      "inputs": [],
      "name": "candidate",
      "outputs": [
        {
          "internalType": "address",
          "name": "",
          "type": "address"
        }
      ],
      "stateMutability": "view",
      "type": "function"
    },
    {
      "inputs": [
        {
          "internalType": "address",
          "name": "",
          "type": "address"
        }
      ],
      "name": "lockData",
      "outputs": [
        {
          "internalType": "uint256",
          "name": "amount",
          "type": "uint256"
        },
        {
          "internalType": "uint256",
          "name": "lockTimestamp",
          "type": "uint256"
        },
        {
          "internalType": "uint256",
          "name": "claimedAmount",
          "type": "uint256"
        }
      ],
      "stateMutability": "view",
      "type": "function"
    },
    {
      "inputs": [],
      "name": "paused",
      "outputs": [
        {
          "internalType": "bool",
          "name": "",
          "type": "bool"
        }
      ],
      "stateMutability": "view",
      "type": "function"
    },
    {
      "inputs": [
        {
          "internalType": "address",
          "name": "_candidate",
          "type": "address"
        }
      ],
      "name": "setCandidate",
      "outputs": [],
      "stateMutability": "nonpayable",
      "type": "function"
    },
    {
      "inputs": [
        {
          "internalType": "address[]",
          "name": "_users",
          "type": "address[]"
        },
        {
          "internalType": "uint256[]",
          "name": "_amounts",
          "type": "uint256[]"
        },
        {
          "internalType": "uint256[]",
          "name": "_locktimes",
          "type": "uint256[]"
        }
      ],
      "name": "sendLockTokenMany",
      "outputs": [],
      "stateMutability": "nonpayable",
      "type": "function"
    },
    {
      "inputs": [
        {
          "internalType": "address",
          "name": "_user",
          "type": "address"
        }
      ],
      "name": "avaible",
      "outputs": [
        {
          "internalType": "uint256",
          "name": "",
          "type": "uint256"
        }
      ],
      "stateMutability": "view",
      "type": "function"
    },
    {
      "inputs": [
        {
          "internalType": "address",
          "name": "_user",
          "type": "address"
        },
        {
          "internalType": "uint256",
          "name": "_amount",
          "type": "uint256"
        },
        {
          "internalType": "uint256",
          "name": "_locktimes",
          "type": "uint256"
        }
      ],
      "name": "sendLockToken",
      "outputs": [
        {
          "internalType": "bool",
          "name": "",
          "type": "bool"
        }
      ],
      "stateMutability": "nonpayable",
      "type": "function"
    },
    {
      "inputs": [
        {
          "internalType": "uint256",
          "name": "_amount",
          "type": "uint256"
        }
      ],
      "name": "claimToken",
      "outputs": [
        {
          "internalType": "uint256",
          "name": "",
          "type": "uint256"
        }
      ],
      "stateMutability": "nonpayable",
      "type": "function"
    }
  ],
  "bytecode": "0x608060405234801561001057600080fd5b5060405161175d38038061175d8339818101604052604081101561003357600080fd5b81019080805190602001909291908051906020019092919050505080600073ffffffffffffffffffffffffffffffffffffffff168173ffffffffffffffffffffffffffffffffffffffff1614156100f2576040517f08c379a00000000000000000000000000000000000000000000000000000000081526004018080602001828103825260198152602001807f61646d696e20616464726573732063616e6e6f7420626520300000000000000081525060200191505060405180910390fd5b806000806101000a81548173ffffffffffffffffffffffffffffffffffffffff021916908373ffffffffffffffffffffffffffffffffffffffff1602179055507f7e644d79422f17c01e4894b5f4f588d331ebfa28653d42ae832dc59e38c9798f600082604051808373ffffffffffffffffffffffffffffffffffffffff1681526020018273ffffffffffffffffffffffffffffffffffffffff1681526020019250505060405180910390a1506000600160146101000a81548160ff02191690831515021790555081600260006101000a81548173ffffffffffffffffffffffffffffffffffffffff021916908373ffffffffffffffffffffffffffffffffffffffff16021790555050506115518061020c6000396000f3fe608060405234801561001057600080fd5b506004361061009e5760003560e01c8063a9e7c2e511610066578063a9e7c2e51461019d578063db722af8146101df578063e8345bd11461024d578063e8be97a6146102b3578063f851a440146103d65761009e565b806307880b7f146100a357806325971dff146100e75780635c975abb146100f1578063639e2eac146101115780636c8381f814610169575b600080fd5b6100e5600480360360208110156100b957600080fd5b81019080803573ffffffffffffffffffffffffffffffffffffffff16906020019092919050505061040a565b005b6100ef6105a7565b005b6100f9610780565b60405180821515815260200191505060405180910390f35b6101536004803603602081101561012757600080fd5b81019080803573ffffffffffffffffffffffffffffffffffffffff169060200190929190505050610797565b6040518082815260200191505060405180910390f35b61017161094b565b604051808273ffffffffffffffffffffffffffffffffffffffff16815260200191505060405180910390f35b6101c9600480360360208110156101b357600080fd5b8101908080359060200190929190505050610971565b6040518082815260200191505060405180910390f35b610235600480360360608110156101f557600080fd5b81019080803573ffffffffffffffffffffffffffffffffffffffff1690602001909291908035906020019092919080359060200190929190505050610df7565b60405180821515815260200191505060405180910390f35b61028f6004803603602081101561026357600080fd5b81019080803573ffffffffffffffffffffffffffffffffffffffff1690602001909291905050506110d5565b60405180848152602001838152602001828152602001935050505060405180910390f35b6103d4600480360360608110156102c957600080fd5b81019080803590602001906401000000008111156102e657600080fd5b8201836020820111156102f857600080fd5b8035906020019184602083028401116401000000008311171561031a57600080fd5b90919293919293908035906020019064010000000081111561033b57600080fd5b82018360208201111561034d57600080fd5b8035906020019184602083028401116401000000008311171561036f57600080fd5b90919293919293908035906020019064010000000081111561039057600080fd5b8201836020820111156103a257600080fd5b803590602001918460208302840111640100000000831117156103c457600080fd5b90919293919293905050506110ff565b005b6103de611315565b604051808273ffffffffffffffffffffffffffffffffffffffff16815260200191505060405180910390f35b60008054906101000a900473ffffffffffffffffffffffffffffffffffffffff1673ffffffffffffffffffffffffffffffffffffffff163373ffffffffffffffffffffffffffffffffffffffff16146104ae576040517f08c379a000000000000000000000000000000000000000000000000000000000815260040180806020018281038252602f8152602001806114ed602f913960400191505060405180910390fd5b6000600160009054906101000a900473ffffffffffffffffffffffffffffffffffffffff16905081600160006101000a81548173ffffffffffffffffffffffffffffffffffffffff021916908373ffffffffffffffffffffffffffffffffffffffff1602179055507f0faed18be9e8f4d4c05dfbcc80ea2c97a0be729614d766827778f60890c02cab81600160009054906101000a900473ffffffffffffffffffffffffffffffffffffffff16604051808373ffffffffffffffffffffffffffffffffffffffff1681526020018273ffffffffffffffffffffffffffffffffffffffff1681526020019250505060405180910390a15050565b600160009054906101000a900473ffffffffffffffffffffffffffffffffffffffff1673ffffffffffffffffffffffffffffffffffffffff163373ffffffffffffffffffffffffffffffffffffffff161461066a576040517f08c379a000000000000000000000000000000000000000000000000000000000815260040180806020018281038252601f8152602001807f4f6e6c792063616e6469646174652063616e206265636f6d652061646d696e0081525060200191505060405180910390fd5b60008060009054906101000a900473ffffffffffffffffffffffffffffffffffffffff169050600160009054906101000a900473ffffffffffffffffffffffffffffffffffffffff166000806101000a81548173ffffffffffffffffffffffffffffffffffffffff021916908373ffffffffffffffffffffffffffffffffffffffff1602179055507f7e644d79422f17c01e4894b5f4f588d331ebfa28653d42ae832dc59e38c9798f8160008054906101000a900473ffffffffffffffffffffffffffffffffffffffff16604051808373ffffffffffffffffffffffffffffffffffffffff1681526020018273ffffffffffffffffffffffffffffffffffffffff1681526020019250505060405180910390a150565b6000600160149054906101000a900460ff16905090565b600080600360008473ffffffffffffffffffffffffffffffffffffffff1673ffffffffffffffffffffffffffffffffffffffff1681526020019081526020016000206000015411610850576040517f08c379a00000000000000000000000000000000000000000000000000000000081526004018080602001828103825260168152602001807f4e6f206c6f636b20746f6b656e20746f20636c61696d0000000000000000000081525060200191505060405180910390fd5b600360008373ffffffffffffffffffffffffffffffffffffffff1673ffffffffffffffffffffffffffffffffffffffff168152602001908152602001600020600101544210156108a35760009050610946565b6000600360008473ffffffffffffffffffffffffffffffffffffffff1673ffffffffffffffffffffffffffffffffffffffff16815260200190815260200160002060000154905061093f600360008573ffffffffffffffffffffffffffffffffffffffff1673ffffffffffffffffffffffffffffffffffffffff168152602001908152602001600020600201548261133990919063ffffffff16565b9050809150505b919050565b600160009054906101000a900473ffffffffffffffffffffffffffffffffffffffff1681565b60008082116109e8576040517f08c379a00000000000000000000000000000000000000000000000000000000081526004018080602001828103825260188152602001807f496e76616c696420706172616d6574657220616d6f756e74000000000000000081525060200191505060405180910390fd5b60003390506000600360008373ffffffffffffffffffffffffffffffffffffffff1673ffffffffffffffffffffffffffffffffffffffff1681526020019081526020016000206000015411610aa5576040517f08c379a00000000000000000000000000000000000000000000000000000000081526004018080602001828103825260168152602001807f4e6f206c6f636b20746f6b656e20746f20636c61696d0000000000000000000081525060200191505060405180910390fd5b600360008273ffffffffffffffffffffffffffffffffffffffff1673ffffffffffffffffffffffffffffffffffffffff16815260200190815260200160002060010154421015610b5d576040517f08c379a00000000000000000000000000000000000000000000000000000000081526004018080602001828103825260118152602001807f4e6f742074696d6520746f20636c61696d00000000000000000000000000000081525060200191505060405180910390fd5b6000600360008373ffffffffffffffffffffffffffffffffffffffff1673ffffffffffffffffffffffffffffffffffffffff168152602001908152602001600020600001549050610bf9600360008473ffffffffffffffffffffffffffffffffffffffff1673ffffffffffffffffffffffffffffffffffffffff168152602001908152602001600020600201548261133990919063ffffffff16565b905060008111610c71576040517f08c379a00000000000000000000000000000000000000000000000000000000081526004018080602001828103825260138152602001807f6e6f7420617661696c61626c6520636c61696d0000000000000000000000000081525060200191505060405180910390fd5b600084905081851115610c82578190505b610cd781600360008673ffffffffffffffffffffffffffffffffffffffff1673ffffffffffffffffffffffffffffffffffffffff1681526020019081526020016000206002015461138390919063ffffffff16565b600360008573ffffffffffffffffffffffffffffffffffffffff1673ffffffffffffffffffffffffffffffffffffffff16815260200190815260200160002060020181905550600260009054906101000a900473ffffffffffffffffffffffffffffffffffffffff1673ffffffffffffffffffffffffffffffffffffffff1663a9059cbb84836040518363ffffffff1660e01b8152600401808373ffffffffffffffffffffffffffffffffffffffff16815260200182815260200192505050602060405180830381600087803b158015610db057600080fd5b505af1158015610dc4573d6000803e3d6000fd5b505050506040513d6020811015610dda57600080fd5b810190808051906020019092919050505050809350505050919050565b60008060009054906101000a900473ffffffffffffffffffffffffffffffffffffffff1673ffffffffffffffffffffffffffffffffffffffff163373ffffffffffffffffffffffffffffffffffffffff1614610e9e576040517f08c379a000000000000000000000000000000000000000000000000000000000815260040180806020018281038252602f8152602001806114ed602f913960400191505060405180910390fd5b60008311610f14576040517f08c379a00000000000000000000000000000000000000000000000000000000081526004018080602001828103825260138152602001807f616d6f756e742063616e206e6f74207a65726f0000000000000000000000000081525060200191505060405180910390fd5b6000600360008673ffffffffffffffffffffffffffffffffffffffff1673ffffffffffffffffffffffffffffffffffffffff1681526020019081526020016000206000015414610fcc576040517f08c379a00000000000000000000000000000000000000000000000000000000081526004018080602001828103825260178152602001807f74686973206164647265737320686173206c6f636b656400000000000000000081525060200191505060405180910390fd5b60008211611042576040517f08c379a000000000000000000000000000000000000000000000000000000000815260040180806020018281038252601d8152602001807f6c6f636b2064617973206e656564206d6f7265207468616e207a65726f00000081525060200191505060405180910390fd5b61104a6114cb565b60405180606001604052808581526020018481526020016000815250905080600360008773ffffffffffffffffffffffffffffffffffffffff1673ffffffffffffffffffffffffffffffffffffffff16815260200190815260200160002060008201518160000155602082015181600101556040820151816002015590505060019150509392505050565b60036020528060005260406000206000915090508060000154908060010154908060020154905083565b60008054906101000a900473ffffffffffffffffffffffffffffffffffffffff1673ffffffffffffffffffffffffffffffffffffffff163373ffffffffffffffffffffffffffffffffffffffff16146111a3576040517f08c379a000000000000000000000000000000000000000000000000000000000815260040180806020018281038252602f8152602001806114ed602f913960400191505060405180910390fd5b83839050868690501461121e576040517f08c379a00000000000000000000000000000000000000000000000000000000081526004018080602001828103825260138152602001807f6172726179206c656e677468206e6f742065710000000000000000000000000081525060200191505060405180910390fd5b818190508686905014611299576040517f08c379a00000000000000000000000000000000000000000000000000000000081526004018080602001828103825260138152602001807f6172726179206c656e677468206e6f742065710000000000000000000000000081525060200191505060405180910390fd5b60005b8686905081101561130c576112fe8787838181106112b657fe5b9050602002013573ffffffffffffffffffffffffffffffffffffffff168686848181106112df57fe5b905060200201358585858181106112f257fe5b90506020020135610df7565b50808060010191505061129c565b50505050505050565b60008054906101000a900473ffffffffffffffffffffffffffffffffffffffff1681565b600061137b83836040518060400160405280601e81526020017f536166654d6174683a207375627472616374696f6e206f766572666c6f77000081525061140b565b905092915050565b600080828401905083811015611401576040517f08c379a000000000000000000000000000000000000000000000000000000000815260040180806020018281038252601b8152602001807f536166654d6174683a206164646974696f6e206f766572666c6f77000000000081525060200191505060405180910390fd5b8091505092915050565b60008383111582906114b8576040517f08c379a00000000000000000000000000000000000000000000000000000000081526004018080602001828103825283818151815260200191508051906020019080838360005b8381101561147d578082015181840152602081019050611462565b50505050905090810190601f1680156114aa5780820380516001836020036101000a031916815260200191505b509250505060405180910390fd5b5060008385039050809150509392505050565b6040518060600160405280600081526020016000815260200160008152509056fe4f6e6c792074686520636f6e74726163742061646d696e2063616e20706572666f726d207468697320616374696f6ea2646970667358221220a0e610f771995527aed2010763bbe487e8d49c94a259953792aa3eb36df2f74164736f6c634300060c0033",
  "immutableReferences": {},
  "source": "// SPDX-License-Identifier: MIT\npragma solidity ^0.6.12;\n\nimport \"./IERC20.sol\";\nimport \"./LnAdmin.sol\";\nimport \"./SafeDecimalMath.sol\";\nimport \"@openzeppelin/contracts/math/SafeMath.sol\";\nimport \"@openzeppelin/contracts/utils/Pausable.sol\";\nimport \"@openzeppelin/contracts/utils/Address.sol\";\n\n// approve\ncontract LnTokenLocker is LnAdmin, Pausable {\n    using SafeMath for uint;\n\n    IERC20 private token;\n    struct LockInfo {\n        uint256 amount;\n        uint256 lockTimestamp; // lock time at block.timestamp\n        uint256 lockDays;\n        uint256 claimedAmount;\n    }\n    mapping (address => LockInfo) public lockData;\n    \n    constructor(address _token, address _admin) public LnAdmin(_admin) {\n        token = IERC20(_token);\n    }\n    \n    function sendLockTokenMany(address[] calldata _users, uint256[] calldata _amounts, uint256[] calldata _lockdays) external onlyAdmin {\n        require(_users.length == _amounts.length, \"array length not eq\");\n        require(_users.length == _lockdays.length, \"array length not eq\");\n        for (uint256 i=0; i < _users.length; i++) {\n            sendLockToken(_users[i], _amounts[i], _lockdays[i]);\n        }\n    }\n\n    // 1. msg.sender/admin approve many token to this contract\n    function sendLockToken(address _user, uint256 _amount, uint256 _lockdays) public onlyAdmin returns (bool) {\n        require(_amount > 0, \"amount can not zero\");\n        require(lockData[_user].amount == 0, \"this address has locked\");\n        require(_lockdays > 0, \"lock days need more than zero\");\n        \n        LockInfo memory lockinfo = LockInfo({\n            amount:_amount,\n            lockTimestamp:block.timestamp,\n            lockDays:_lockdays,\n            claimedAmount:0\n        });\n\n        lockData[_user] = lockinfo;\n        return true;\n    }\n    \n    function claimToken(uint256 _amount) external returns (uint256) {\n        require(_amount > 0, \"Invalid parameter amount\");\n        address _user = msg.sender;\n        require(lockData[_user].amount > 0, \"No lock token to claim\");\n\n        uint256 passdays = block.timestamp.sub(lockData[_user].lockTimestamp).div(1 days);\n        require(passdays > 0, \"need wait for one day at least\");\n\n        uint256 available = 0;\n        if (passdays >= lockData[_user].lockDays) {\n            available = lockData[_user].amount;\n        } else {\n            available = lockData[_user].amount.div(lockData[_user].lockDays).mul(passdays);\n        }\n        available = available.sub(lockData[_user].claimedAmount);\n        require(available > 0, \"not available claim\");\n        //require(_amount <= available, \"insufficient available\");\n        uint256 claim = _amount;\n        if (_amount > available) { // claim as much as possible\n            claim = available;\n        }\n\n        lockData[_user].claimedAmount = lockData[_user].claimedAmount.add(claim);\n\n        token.transfer(_user, claim);\n\n        return claim;\n    }\n}\n\n\n\ncontract LnTokenCliffLocker is LnAdmin, Pausable {\n    using SafeMath for uint;\n\n    IERC20 private token;\n    struct LockInfo {\n        uint256 amount;\n        uint256 lockTimestamp; // lock time at block.timestamp\n        uint256 claimedAmount;\n    }\n    mapping (address => LockInfo) public lockData;\n    \n    constructor(address _token, address _admin) public LnAdmin(_admin) {\n        token = IERC20(_token);\n    }\n    \n    function sendLockTokenMany(address[] calldata _users, uint256[] calldata _amounts, uint256[] calldata _locktimes) external onlyAdmin {\n        require(_users.length == _amounts.length, \"array length not eq\");\n        require(_users.length == _locktimes.length, \"array length not eq\");\n        for (uint256 i=0; i < _users.length; i++) {\n            sendLockToken(_users[i], _amounts[i], _locktimes[i]);\n        }\n    }\n\n    function avaible(address _user ) external view returns( uint256 ){\n        require(lockData[_user].amount > 0, \"No lock token to claim\");\n        if( now < lockData[_user].lockTimestamp ){\n            return 0;\n        }\n\n        uint256 available = 0;\n        available = lockData[_user].amount;\n        available = available.sub(lockData[_user].claimedAmount);\n        return available;\n    }\n\n    // 1. msg.sender/admin approve many token to this contract\n    function sendLockToken(address _user, uint256 _amount, uint256 _locktimes ) public onlyAdmin returns (bool) {\n        require(_amount > 0, \"amount can not zero\");\n        require(lockData[_user].amount == 0, \"this address has locked\");\n        require(_locktimes > 0, \"lock days need more than zero\");\n        \n        LockInfo memory lockinfo = LockInfo({\n            amount:_amount,\n            lockTimestamp:_locktimes,\n            claimedAmount:0\n        });\n\n        lockData[_user] = lockinfo;\n        return true;\n    }\n    \n    function claimToken(uint256 _amount) external returns (uint256) {\n        require(_amount > 0, \"Invalid parameter amount\");\n        address _user = msg.sender;\n        require(lockData[_user].amount > 0, \"No lock token to claim\");\n        require( now >= lockData[_user].lockTimestamp, \"Not time to claim\" );\n\n        uint256 available = 0;\n        available = lockData[_user].amount;\n        available = available.sub(lockData[_user].claimedAmount);\n        require(available > 0, \"not available claim\");\n\n        uint256 claim = _amount;\n        if (_amount > available) { // claim as much as possible\n            claim = available;\n        }\n\n        lockData[_user].claimedAmount = lockData[_user].claimedAmount.add(claim);\n\n        token.transfer(_user, claim);\n\n        return claim;\n    }\n}\n\n",
  "sourcePath": "/Users/michael/Linear-finance/Linear/contracts/LnTokenLocker.sol",
  "compiler": {
    "name": "solc",
    "version": "0.6.12+commit.27d51765.Emscripten.clang"
  },
  "schemaVersion": "3.3.1",
  "updatedAt": "2020-11-06T11:06:38.270Z",
  "devdoc": {
    "kind": "dev",
    "methods": {
      "paused()": {
        "details": "Returns true if the contract is paused, and false otherwise."
      }
    },
    "version": 1
  },
  "userdoc": {
    "kind": "user",
    "methods": {},
    "version": 1
  }
}