{
  "contractName": "MultiSigForTransferFunds",
  "abi": [
    {
      "inputs": [
        {
          "internalType": "address[]",
          "name": "_addr",
          "type": "address[]"
        },
        {
          "internalType": "uint256",
          "name": "iConfirmNumb",
          "type": "uint256"
        },
        {
          "internalType": "contract LnSimpleStaking",
          "name": "_staking",
          "type": "address"
        }
      ],
      "stateMutability": "nonpayable",
      "type": "constructor"
    },
    {
      "inputs": [
        {
          "internalType": "uint256",
          "name": "",
          "type": "uint256"
        }
      ],
      "name": "mAdminArr",
      "outputs": [
        {
          "internalType": "address",
          "name": "",
          "type": "address"
        }
      ],
      "stateMutability": "view",
      "type": "function"
    },
    {
      "inputs": [
        {
          "internalType": "address",
          "name": "",
          "type": "address"
        }
      ],
      "name": "mAdmins",
      "outputs": [
        {
          "internalType": "uint256",
          "name": "",
          "type": "uint256"
        }
      ],
      "stateMutability": "view",
      "type": "function"
    },
    {
      "inputs": [],
      "name": "mAmount",
      "outputs": [
        {
          "internalType": "uint256",
          "name": "",
          "type": "uint256"
        }
      ],
      "stateMutability": "view",
      "type": "function"
    },
    {
      "inputs": [],
      "name": "mConfirmNumb",
      "outputs": [
        {
          "internalType": "uint256",
          "name": "",
          "type": "uint256"
        }
      ],
      "stateMutability": "view",
      "type": "function"
    },
    {
      "inputs": [],
      "name": "mProposalNumb",
      "outputs": [
        {
          "internalType": "uint256",
          "name": "",
          "type": "uint256"
        }
      ],
      "stateMutability": "view",
      "type": "function"
    },
    {
      "inputs": [],
      "name": "mStaking",
      "outputs": [
        {
          "internalType": "contract LnSimpleStaking",
          "name": "",
          "type": "address"
        }
      ],
      "stateMutability": "view",
      "type": "function"
    },
    {
      "inputs": [],
      "name": "mTransLockTime",
      "outputs": [
        {
          "internalType": "uint256",
          "name": "",
          "type": "uint256"
        }
      ],
      "stateMutability": "view",
      "type": "function"
    },
    {
      "inputs": [
        {
          "internalType": "address",
          "name": "target",
          "type": "address"
        }
      ],
      "name": "becomeAdmin",
      "outputs": [],
      "stateMutability": "nonpayable",
      "type": "function"
    },
    {
      "inputs": [
        {
          "internalType": "address",
          "name": "target",
          "type": "address"
        },
        {
          "internalType": "uint256",
          "name": "locktime",
          "type": "uint256"
        },
        {
          "internalType": "uint256",
          "name": "amount",
          "type": "uint256"
        }
      ],
      "name": "setTransLock",
      "outputs": [],
      "stateMutability": "nonpayable",
      "type": "function"
    },
    {
      "inputs": [],
      "name": "confirmTransfer",
      "outputs": [],
      "stateMutability": "nonpayable",
      "type": "function"
    },
    {
      "inputs": [],
      "name": "doTransfer",
      "outputs": [],
      "stateMutability": "nonpayable",
      "type": "function"
    }
  ],
  "bytecode": "0x608060405234801561001057600080fd5b50604051610bef380380610bef8339818101604052606081101561003357600080fd5b810190808051604051939291908464010000000082111561005357600080fd5b8382019150602082018581111561006957600080fd5b825186602082028301116401000000008211171561008657600080fd5b8083526020830192505050908051906020019060200280838360005b838110156100bd5780820151818401526020810190506100a2565b50505050905001604052602001805190602001909291908051906020019092919050505060005b835181101561014f5760016000808684815181106100fe57fe5b602002602001015173ffffffffffffffffffffffffffffffffffffffff1673ffffffffffffffffffffffffffffffffffffffff168152602001908152602001600020819055508060010190506100e4565b5081600181905550600060028190555080600460006101000a81548173ffffffffffffffffffffffffffffffffffffffff021916908373ffffffffffffffffffffffffffffffffffffffff16021790555082600590805190602001906101b69291906101bf565b50505050610284565b828054828255906000526020600020908101928215610238579160200282015b828111156102375782518260006101000a81548173ffffffffffffffffffffffffffffffffffffffff021916908373ffffffffffffffffffffffffffffffffffffffff160217905550916020019190600101906101df565b5b5090506102459190610249565b5090565b5b8082111561028057600081816101000a81549073ffffffffffffffffffffffffffffffffffffffff02191690555060010161024a565b5090565b61095c806102936000396000f3fe608060405234801561001057600080fd5b50600436106100a95760003560e01c80637d966e7d116100715780637d966e7d14610180578063877f2ed91461019e578063baa49301146101f6578063e768c93c14610200578063fb24db8f14610244578063fea807931461029c576100a9565b8063295c8457146100ae5780632b1142c2146100cc57806333182e8f1461012457806356230fe61461012e57806358620a511461014c575b600080fd5b6100b66102ba565b6040518082815260200191505060405180910390f35b610122600480360360608110156100e257600080fd5b81019080803573ffffffffffffffffffffffffffffffffffffffff16906020019092919080359060200190929190803590602001909291905050506102c0565b005b61012c610486565b005b610136610688565b6040518082815260200191505060405180910390f35b61015461068e565b604051808273ffffffffffffffffffffffffffffffffffffffff16815260200191505060405180910390f35b6101886106b4565b6040518082815260200191505060405180910390f35b6101ca600480360360208110156101b457600080fd5b81019080803590602001909291905050506106ba565b604051808273ffffffffffffffffffffffffffffffffffffffff16815260200191505060405180910390f35b6101fe6106f6565b005b6102426004803603602081101561021657600080fd5b81019080803573ffffffffffffffffffffffffffffffffffffffff1690602001909291905050506107fc565b005b6102866004803603602081101561025a57600080fd5b81019080803573ffffffffffffffffffffffffffffffffffffffff16906020019092919050505061085f565b6040518082815260200191505060405180910390f35b6102a4610877565b6040518082815260200191505060405180910390f35b60025481565b60016000803373ffffffffffffffffffffffffffffffffffffffff1673ffffffffffffffffffffffffffffffffffffffff1681526020019081526020016000205414610374576040517f08c379a000000000000000000000000000000000000000000000000000000000815260040180806020018281038252601e8152602001807f6e6f7420696e2061646d696e206c697374206f7220736574207374617465000081525060200191505060405180910390fd5b61037c61087d565b600460009054906101000a900473ffffffffffffffffffffffffffffffffffffffff1673ffffffffffffffffffffffffffffffffffffffff166369e0bb4284846040518363ffffffff1660e01b8152600401808373ffffffffffffffffffffffffffffffffffffffff16815260200182815260200192505050600060405180830381600087803b15801561040f57600080fd5b505af1158015610423573d6000803e3d6000fd5b5050505080600381905550600160028190555060026000803373ffffffffffffffffffffffffffffffffffffffff1673ffffffffffffffffffffffffffffffffffffffff1681526020019081526020016000208190555081600681905550505050565b6000600654116104fe576040517f08c379a00000000000000000000000000000000000000000000000000000000081526004018080602001828103825260168152602001807f6d5472616e734c6f636b54696d65206e6f74207365740000000000000000000081525060200191505060405180910390fd5b6006544211610575576040517f08c379a00000000000000000000000000000000000000000000000000000000081526004018080602001828103825260178152602001807f506c73207761697420746f20756e6c6f636b2074696d6500000000000000000081525060200191505060405180910390fd5b60015460025410156105ef576040517f08c379a00000000000000000000000000000000000000000000000000000000081526004018080602001828103825260118152602001807f6e656564206d6f726520636f6e6669726d00000000000000000000000000000081525060200191505060405180910390fd5b6105f761087d565b600460009054906101000a900473ffffffffffffffffffffffffffffffffffffffff1673ffffffffffffffffffffffffffffffffffffffff1663804598276003546040518263ffffffff1660e01b815260040180828152602001915050600060405180830381600087803b15801561066e57600080fd5b505af1158015610682573d6000803e3d6000fd5b50505050565b60015481565b600460009054906101000a900473ffffffffffffffffffffffffffffffffffffffff1681565b60035481565b600581815481106106c757fe5b906000526020600020016000915054906101000a900473ffffffffffffffffffffffffffffffffffffffff1681565b60016000803373ffffffffffffffffffffffffffffffffffffffff1673ffffffffffffffffffffffffffffffffffffffff16815260200190815260200160002054146107aa576040517f08c379a000000000000000000000000000000000000000000000000000000000815260040180806020018281038252601e8152602001807f6e6f7420696e2061646d696e206c697374206f7220736574207374617465000081525060200191505060405180910390fd5b60016002540160028190555060026000803373ffffffffffffffffffffffffffffffffffffffff1673ffffffffffffffffffffffffffffffffffffffff16815260200190815260200160002081905550565b8073ffffffffffffffffffffffffffffffffffffffff166325971dff6040518163ffffffff1660e01b8152600401600060405180830381600087803b15801561084457600080fd5b505af1158015610858573d6000803e3d6000fd5b5050505050565b60006020528060005260406000206000915090505481565b60065481565b6000600281905550600060068190555060005b600580549050811015610923576001600080600584815481106108af57fe5b9060005260206000200160009054906101000a900473ffffffffffffffffffffffffffffffffffffffff1673ffffffffffffffffffffffffffffffffffffffff1673ffffffffffffffffffffffffffffffffffffffff16815260200190815260200160002081905550806001019050610890565b5056fea264697066735822122056a11070a0b48b7c725b42123c12311fa9ecfd84f44a2a3ce1e8a002d8cee32164736f6c634300060c0033",
  "immutableReferences": {},
  "source": "// SPDX-License-Identifier: MIT\npragma solidity ^0.6.12;\n\nimport \"./IERC20.sol\";\nimport \"./LnAdmin.sol\";\nimport \"./LnOperatorModifier.sol\";\nimport \"@openzeppelin/contracts/math/SafeMath.sol\";\nimport \"@openzeppelin/contracts/utils/Pausable.sol\";\nimport \"./LnAccessControl.sol\";\nimport \"./LnLinearStaking.sol\";\nimport \"./SafeDecimalMath.sol\";\n\n\ncontract LnRewardCalculator  {\n    using SafeMath for uint256;\n\n    struct UserInfo {\n        uint256 reward;\n        uint256 amount;     \n        uint256 rewardDebt; \n    }\n\n    struct PoolInfo {\n        uint256 amount;           \n        uint256 lastRewardBlock;  \n        uint256 accRewardPerShare;\n    }\n\n    uint256 public rewardPerBlock;\n\n    PoolInfo public mPoolInfo;\n    mapping (address => UserInfo) public userInfo;\n\n    uint256 public startBlock;\n    uint256 public remainReward;\n    uint256 public accReward;\n\n    constructor( uint256 _rewardPerBlock, uint256 _startBlock ) public {\n        rewardPerBlock = _rewardPerBlock;\n        startBlock = _startBlock;\n        mPoolInfo.lastRewardBlock = startBlock;\n    }\n\n\n    function _calcReward( uint256 curBlock, address _user) internal view returns (uint256) {\n        PoolInfo storage pool = mPoolInfo;\n        UserInfo storage user = userInfo[_user];\n        uint256 accRewardPerShare = pool.accRewardPerShare;\n        uint256 lpSupply = pool.amount;\n        if (curBlock > pool.lastRewardBlock && lpSupply != 0) {\n            uint256 multiplier = curBlock.sub( pool.lastRewardBlock, \"cr curBlock sub overflow\" );\n            uint256 curReward = multiplier.mul(rewardPerBlock);\n            accRewardPerShare = accRewardPerShare.add(curReward.mul(1e20).div(lpSupply));\n        }\n        uint newReward = user.amount.mul(accRewardPerShare).div(1e20).sub(user.rewardDebt, \"cr newReward sub overflow\");\n        return newReward.add( user.reward );\n    }\n\n\n    function rewardOf( address _user ) public view returns( uint256 ){\n        return userInfo[_user].reward;\n    }\n\n\n    function amount( ) public view returns( uint256 ){\n        return mPoolInfo.amount;\n    }\n\n    function amountOf( address _user ) public view returns( uint256 ){\n        return userInfo[_user].amount;\n    }\n\n    function getUserInfo(address _user) public view returns(uint256,uint256,uint256) {\n        return (userInfo[_user].reward, userInfo[_user].amount, userInfo[_user].rewardDebt);\n    }\n\n    function getPoolInfo() public view returns(uint256,uint256,uint256) {\n        return (mPoolInfo.amount, mPoolInfo.lastRewardBlock, mPoolInfo.accRewardPerShare);\n    }\n\n    function _update( uint256 curBlock ) internal {\n        PoolInfo storage pool = mPoolInfo;\n        if (curBlock <= pool.lastRewardBlock) {\n            return;\n        }\n        uint256 lpSupply = pool.amount;\n        if (lpSupply == 0) {\n            pool.lastRewardBlock = curBlock;\n            return;\n        }\n        uint256 multiplier = curBlock.sub( pool.lastRewardBlock, \"_update curBlock sub overflow\" );\n        uint256 curReward = multiplier.mul(rewardPerBlock);\n        \n        remainReward = remainReward.add( curReward );\n        accReward = accReward.add( curReward );\n\n        pool.accRewardPerShare = pool.accRewardPerShare.add(curReward.mul(1e20).div(lpSupply));\n        pool.lastRewardBlock = curBlock;\n    }\n\n    function _deposit( uint256 curBlock, address _addr, uint256 _amount) internal {\n        PoolInfo storage pool = mPoolInfo;\n        UserInfo storage user = userInfo[ _addr];\n        _update( curBlock );\n        if (user.amount > 0) {\n            uint256 pending = user.amount.mul(pool.accRewardPerShare).div(1e20).sub(user.rewardDebt, \"_deposit pending sub overflow\");\n            if(pending > 0) {\n                reward( user, pending );\n            }\n        }\n        if(_amount > 0) {\n            user.amount = user.amount.add(_amount);\n            pool.amount = pool.amount.add(_amount);\n        }\n        user.rewardDebt = user.amount.mul(pool.accRewardPerShare).div(1e20);\n    }\n\n    function _withdraw( uint256 curBlock, address _addr, uint256 _amount) internal {\n        PoolInfo storage pool = mPoolInfo;\n        UserInfo storage user = userInfo[_addr];\n        require(user.amount >= _amount, \"_withdraw: not good\");\n        _update( curBlock );\n        uint256 pending = user.amount.mul(pool.accRewardPerShare).div(1e20).sub(user.rewardDebt, \"_withdraw pending sub overflow\");\n        if(pending > 0) {\n            reward( user, pending );\n        }\n        if(_amount > 0) {\n            user.amount = user.amount.sub(_amount, \"_withdraw user.amount sub overflow\");\n            pool.amount = pool.amount.sub(_amount, \"_withdraw pool.amount sub overflow\");\n        }\n        user.rewardDebt = user.amount.mul(pool.accRewardPerShare).div(1e20);\n    }\n\n    function reward( UserInfo storage user, uint256 _amount) internal {\n        if (_amount > remainReward) {\n            _amount = remainReward;\n        }\n        remainReward = remainReward.sub( _amount, \"reward remainReward sub overflow\");\n        user.reward = user.reward.add( _amount );\n    }\n\n    function _claim( address _addr ) internal {\n        UserInfo storage user = userInfo[_addr];\n        if( user.reward > 0 )\n        {\n            user.reward = 0;\n        }\n    }\n\n}\n\ncontract LnRewardCalculatorTest is LnRewardCalculator{\n    constructor( uint256 _rewardPerBlock, uint256 _startBlock ) public \n        LnRewardCalculator( _rewardPerBlock, _startBlock ) {\n    }\n\n    function deposit( uint256 curBlock, address _addr, uint256 _amount) public {\n        _deposit( curBlock, _addr, _amount );\n    }\n\n    function withdraw( uint256 curBlock, address _addr, uint256 _amount) public {\n        _withdraw( curBlock, _addr, _amount );\n    }\n    function calcReward( uint256 curBlock, address _user) public view returns (uint256) {\n        return _calcReward( curBlock, _user);\n    }\n\n}\n\n\ncontract LnSimpleStaking is LnAdmin, Pausable, ILinearStaking, LnRewardCalculator {\n    using SafeMath for uint256;\n    using SafeDecimalMath for uint256;\n\n    IERC20 public linaToken; // lina token proxy address\n    LnLinearStakingStorage public stakingStorage;\n    uint256 public mEndBlock;\n    address public mOldStaking;\n    uint256 public mOldAmount;\n    uint256 public mWidthdrawRewardFromOldStaking;\n\n    uint256 public claimRewardLockTime = 1620806400; // 2021-5-12\n\n    address public mTargetAddress;\n    uint256 public mTransLockTime;\n\n    mapping (address => uint ) public mOldReward;\n\n    constructor(\n        address _admin,\n        address _linaToken,\n        address _storage, uint256 _rewardPerBlock, uint256 _startBlock, uint256 _endBlock ) \n            public LnAdmin(_admin) LnRewardCalculator(_rewardPerBlock, _startBlock ){\n        linaToken = IERC20(_linaToken);\n        stakingStorage = LnLinearStakingStorage(_storage);\n        mEndBlock = _endBlock;\n    }\n\n    function setLinaToken(address _linaToken) external onlyAdmin {\n        linaToken = IERC20(_linaToken);\n    }\n\n    function setPaused(bool _paused) external onlyAdmin {\n        if (_paused) {\n            _pause();\n        } else {\n            _unpause();\n        }\n    }\n\n    //////////////////////////////////////////////////////\n    event Staking(address indexed who, uint256 value, uint staketime);\n    event CancelStaking(address indexed who, uint256 value);\n    event Claim(address indexed who, uint256 rewardval, uint256 totalStaking);\n    event TransLock(address target, uint256 time);\n\n    uint256 public accountStakingListLimit = 50;\n    uint256 public minStakingAmount = 1e18; // 1 token\n    uint256 public constant PRECISION_UINT = 1e23;\n\n    function setStakingListLimit(uint256 _limit) external onlyAdmin {\n        accountStakingListLimit = _limit;\n    }\n\n    function setMinStakingAmount(uint256 _minStakingAmount) external onlyAdmin {\n        minStakingAmount = _minStakingAmount;\n    }\n\n    function stakingBalanceOf(address account) external override view returns(uint256) {\n        uint256 stakingBalance = super.amountOf(account).add( stakingStorage.stakingBalanceOf(account) );\n        return stakingBalance;\n    }\n\n    function getStakesdataLength(address account) external view returns(uint256) {\n        return stakingStorage.getStakesdataLength(account);\n    }\n    //--------------------------------------------------------\n\n    function migrationsOldStaking( address contractAddr, uint amount, uint blockNb ) public onlyAdmin {\n        super._deposit( blockNb, contractAddr, amount );\n        mOldStaking = contractAddr;\n        mOldAmount = amount;\n    }\n\n\n    function staking(uint256 amount) public whenNotPaused override returns (bool) {\n        stakingStorage.requireInStakingPeriod();\n\n        require(amount >= minStakingAmount, \"Staking amount too small.\");\n        //require(stakingStorage.getStakesdataLength(msg.sender) < accountStakingListLimit, \"Staking list out of limit.\");\n\n        linaToken.transferFrom(msg.sender, address(this), amount);\n     \n        uint256 blockNb = block.number;\n        if (blockNb > mEndBlock) {\n            blockNb = mEndBlock;\n        }\n        super._deposit( blockNb, msg.sender, amount );\n\n        emit Staking(msg.sender, amount, block.timestamp);\n\n        return true;\n    }\n\n    function _widthdrawFromOldStaking( address _addr, uint amount ) internal {\n        uint256 blockNb = block.number;\n        if (blockNb > mEndBlock) {\n            blockNb = mEndBlock;\n        }\n        \n        uint oldStakingAmount = super.amountOf( mOldStaking );\n        super._withdraw( blockNb, mOldStaking, amount );\n        // sub already withraw reward, then cal portion \n        uint reward = super.rewardOf( mOldStaking).sub( mWidthdrawRewardFromOldStaking, \"_widthdrawFromOldStaking reward sub overflow\" )\n            .mul( amount ).mul(1e20).div( oldStakingAmount ).div(1e20);\n        mWidthdrawRewardFromOldStaking = mWidthdrawRewardFromOldStaking.add( reward );\n        mOldReward[ _addr ] = mOldReward[_addr].add( reward );\n    }\n\n    function _cancelStaking(address user, uint256 amount) internal {\n        uint256 blockNb = block.number;\n        if (blockNb > mEndBlock) {\n            blockNb = mEndBlock;\n        }\n\n        uint256 returnAmount = amount;\n        uint256 newAmount = super.amountOf(user);\n        if (newAmount >= amount) {\n            super._withdraw( blockNb, user, amount );\n            amount = 0;\n        } else {\n            if (newAmount > 0) {\n                super._withdraw( blockNb, user, newAmount );\n                amount = amount.sub(newAmount, \"_cancelStaking amount sub overflow\");\n            }\n            \n            for (uint256 i = stakingStorage.getStakesdataLength(user); i >= 1 ; i--) {\n                (uint256 stakingAmount, uint256 staketime) = stakingStorage.getStakesDataByIndex(user, i-1);\n                if (amount >= stakingAmount) {\n                    amount = amount.sub(stakingAmount, \"_cancelStaking amount sub overflow\");\n                    \n                    stakingStorage.PopStakesData(user);\n                    stakingStorage.SubWeeksTotal(staketime, stakingAmount);\n                    _widthdrawFromOldStaking( user, stakingAmount );\n\n                } else {\n                    stakingStorage.StakingDataSub(user, i-1, amount);\n                    stakingStorage.SubWeeksTotal(staketime, amount);\n                    _widthdrawFromOldStaking( user, amount );\n\n                    amount = 0;\n                }\n                if (amount == 0) break;\n            }\n        }\n\n        // cancel as many as possible, not fail, that waste gas\n        //require(amount == 0, \"Cancel amount too big then staked.\");\n        \n        linaToken.transfer(msg.sender, returnAmount.sub(amount));\n    }\n\n    function cancelStaking(uint256 amount) public whenNotPaused override returns (bool) {\n        //stakingStorage.requireInStakingPeriod();\n\n        require(amount > 0, \"Invalid amount.\");\n\n        _cancelStaking(msg.sender, amount);\n\n        emit CancelStaking(msg.sender, amount);\n\n        return true;\n    }\n\n    function getTotalReward( uint blockNb, address _user ) public view returns ( uint256 total ){\n        if( blockNb > mEndBlock ){\n            blockNb = mEndBlock;\n        }\n        \n        // 这里奖励分成了三部分\n        // 1,已经从旧奖池中cancel了的\n        // 2,还在旧奖池中的\n        // 3，在新奖池中的\n        total = mOldReward[ _user ];\n        uint iMyOldStaking = 0;\n        for (uint256 i=0; i < stakingStorage.getStakesdataLength( _user ); i++) {\n            (uint256 stakingAmount, ) = stakingStorage.getStakesDataByIndex( _user, i);\n            iMyOldStaking = iMyOldStaking.add( stakingAmount );\n        }\n        if( iMyOldStaking > 0 ){\n            uint oldStakingAmount = super.amountOf( mOldStaking );\n            uint iReward2 = super._calcReward( blockNb, mOldStaking).sub( mWidthdrawRewardFromOldStaking, \"getTotalReward iReward2 sub overflow\" )\n                .mul( iMyOldStaking ).div( oldStakingAmount );\n            total = total.add( iReward2 );\n        }\n\n        uint256 reward3 = super._calcReward( blockNb, _user );\n        total = total.add( reward3 );\n    }\n\n\n    // claim reward\n    // Note: 需要提前提前把奖励token转进来\n    function claim() public whenNotPaused override returns (bool) {\n        //stakingStorage.requireStakingEnd();\n        require(block.timestamp > claimRewardLockTime, \"Not time to claim reward\");\n\n        uint iMyOldStaking = stakingStorage.stakingBalanceOf( msg.sender );\n        uint iAmount = super.amountOf( msg.sender );\n        _cancelStaking( msg.sender, iMyOldStaking.add( iAmount ));\n\n        uint iReward = getTotalReward( mEndBlock, msg.sender );\n\n        _claim( msg.sender );\n        mOldReward[ msg.sender ] = 0;\n        linaToken.transfer(msg.sender, iReward );\n\n        emit Claim(msg.sender, iReward, iMyOldStaking.add( iAmount ));\n        return true;\n    }\n\n    function setRewardLockTime(uint256 newtime) public onlyAdmin {\n        claimRewardLockTime = newtime;\n    }\n\n    function calcReward( uint256 curBlock, address _user) public view returns (uint256) {\n        return _calcReward( curBlock, _user);\n    }\n\n    function setTransLock(address target, uint256 locktime) public onlyAdmin {\n        require(locktime >= now + 2 days, \"locktime need larger than cur time 2 days\");\n        mTargetAddress = target;\n        mTransLockTime = locktime;\n\n        emit TransLock(mTargetAddress, mTransLockTime);\n    }\n\n    function transTokens(uint256 amount) public onlyAdmin {\n        require(mTransLockTime > 0, \"mTransLockTime not set\");\n        require(now > mTransLockTime, \"Pls wait to unlock time\");\n        linaToken.transfer(mTargetAddress, amount);\n    }\n}\n\ncontract HelperPushStakingData is LnAdmin {\n\n    constructor(address _admin) public LnAdmin(_admin) {\n\n    }\n\n    function pushStakingData(address _storage, address[] calldata account, uint256[] calldata amount, uint256[] calldata staketime) external {\n        require(account.length > 0, \"array length zero\");\n        require(account.length == amount.length, \"array length not eq\");\n        require(account.length == staketime.length, \"array length not eq\");\n\n        LnLinearStakingStorage stakingStorage = LnLinearStakingStorage(_storage);\n        for (uint256 i=0; i<account.length; i++) {\n            stakingStorage.PushStakingData(account[i], amount[i], staketime[i]);\n            stakingStorage.AddWeeksTotal(staketime[i], amount[i]);\n        }\n    }\n\n    //unstaking.\n}\n\n\n\ncontract MultiSigForTransferFunds {\n    mapping (address => uint ) public mAdmins;\n    uint public mConfirmNumb;\n    uint public mProposalNumb;\n    uint public mAmount;\n    LnSimpleStaking public mStaking;\n    address[] public mAdminArr;\n    uint public mTransLockTime;\n\n    constructor(address[] memory _addr, uint iConfirmNumb,  LnSimpleStaking _staking ) public {\n        for( uint i = 0; i < _addr.length; ++i ){\n            mAdmins[ _addr[i] ] = 1;\n        }\n        mConfirmNumb = iConfirmNumb;\n        mProposalNumb = 0;\n        mStaking = _staking;\n        mAdminArr = _addr;\n    }\n\n    function becomeAdmin(address target) external {\n        LnAdmin(target).becomeAdmin();\n    }\n\n    function setTransLock(address target, uint256 locktime, uint amount ) public {\n        require( mAdmins[ msg.sender] == 1, \"not in admin list or set state\" );\n        _reset();\n        mStaking.setTransLock( target, locktime );\n        mAmount = amount;\n        mProposalNumb = 1;\n        mAdmins[ msg.sender] = 2; // \n\n        mTransLockTime = locktime;\n    }\n\n    // call this when the locktime expired\n    function confirmTransfer() public {\n        require( mAdmins[ msg.sender] == 1, \"not in admin list or set state\" );\n        mProposalNumb = mProposalNumb + 1;\n        mAdmins[ msg.sender ] = 2;\n    }\n\n    function doTransfer() public {\n        require(mTransLockTime > 0, \"mTransLockTime not set\");\n        require(now > mTransLockTime, \"Pls wait to unlock time\");\n        require(mProposalNumb >= mConfirmNumb, \"need more confirm\");\n\n        _reset();\n        mStaking.transTokens( mAmount );\n    }\n\n\n    function _reset() internal {\n        mProposalNumb = 0; \n        mTransLockTime = 0;\n        // reset\n        for( uint i = 0; i < mAdminArr.length; ++i ){\n            mAdmins[ mAdminArr[i]] = 1;\n        }\n    }\n}\n",
  "sourcePath": "/Users/michael/Linear-finance/Linear/contracts/LnSimpleStaking.sol",
  "compiler": {
    "name": "solc",
    "version": "0.6.12+commit.27d51765.Emscripten.clang"
  },
  "schemaVersion": "3.3.1",
  "updatedAt": "2020-11-06T11:06:38.237Z",
  "devdoc": {
    "kind": "dev",
    "methods": {},
    "version": 1
  },
  "userdoc": {
    "kind": "user",
    "methods": {},
    "version": 1
  }
}