{
  "contractName": "TestOracle",
  "abi": [
    {
      "inputs": [],
      "stateMutability": "nonpayable",
      "type": "constructor"
    },
    {
      "inputs": [
        {
          "internalType": "uint256",
          "name": "",
          "type": "uint256"
        }
      ],
      "name": "entries",
      "outputs": [
        {
          "internalType": "int256",
          "name": "answer",
          "type": "int256"
        },
        {
          "internalType": "uint256",
          "name": "timestamp",
          "type": "uint256"
        }
      ],
      "stateMutability": "view",
      "type": "function"
    },
    {
      "inputs": [],
      "name": "roundId",
      "outputs": [
        {
          "internalType": "uint256",
          "name": "",
          "type": "uint256"
        }
      ],
      "stateMutability": "view",
      "type": "function"
    },
    {
      "inputs": [
        {
          "internalType": "int256",
          "name": "answer",
          "type": "int256"
        },
        {
          "internalType": "uint256",
          "name": "timestamp",
          "type": "uint256"
        }
      ],
      "name": "setLatestAnswer",
      "outputs": [],
      "stateMutability": "nonpayable",
      "type": "function"
    },
    {
      "inputs": [],
      "name": "latestAnswer",
      "outputs": [
        {
          "internalType": "int256",
          "name": "",
          "type": "int256"
        }
      ],
      "stateMutability": "view",
      "type": "function"
    },
    {
      "inputs": [],
      "name": "latestTimestamp",
      "outputs": [
        {
          "internalType": "uint256",
          "name": "",
          "type": "uint256"
        }
      ],
      "stateMutability": "view",
      "type": "function"
    },
    {
      "inputs": [],
      "name": "latestRound",
      "outputs": [
        {
          "internalType": "uint256",
          "name": "",
          "type": "uint256"
        }
      ],
      "stateMutability": "view",
      "type": "function"
    },
    {
      "inputs": [
        {
          "internalType": "uint256",
          "name": "_roundId",
          "type": "uint256"
        }
      ],
      "name": "getAnswer",
      "outputs": [
        {
          "internalType": "int256",
          "name": "",
          "type": "int256"
        }
      ],
      "stateMutability": "view",
      "type": "function"
    },
    {
      "inputs": [
        {
          "internalType": "uint256",
          "name": "_roundId",
          "type": "uint256"
        }
      ],
      "name": "getTimestamp",
      "outputs": [
        {
          "internalType": "uint256",
          "name": "",
          "type": "uint256"
        }
      ],
      "stateMutability": "view",
      "type": "function"
    }
  ],
  "bytecode": "0x60806040526000805534801561001457600080fd5b50610336806100246000396000f3fe608060405234801561001057600080fd5b50600436106100885760003560e01c8063b30906d41161005b578063b30906d414610105578063b5ab58dc1461014e578063b633620c14610190578063e9c58f85146101d257610088565b806350d25bcd1461008d578063668a0f02146100ab5780638205bf6a146100c95780638cd221c9146100e7575b600080fd5b61009561020a565b6040518082815260200191505060405180910390f35b6100b3610221565b6040518082815260200191505060405180910390f35b6100d161022a565b6040518082815260200191505060405180910390f35b6100ef610241565b6040518082815260200191505060405180910390f35b6101316004803603602081101561011b57600080fd5b8101908080359060200190929190505050610247565b604051808381526020018281526020019250505060405180910390f35b61017a6004803603602081101561016457600080fd5b810190808035906020019092919050505061026b565b6040518082815260200191505060405180910390f35b6101bc600480360360208110156101a657600080fd5b810190808035906020019092919050505061028b565b6040518082815260200191505060405180910390f35b610208600480360360408110156101e857600080fd5b8101908080359060200190929190803590602001909291905050506102ab565b005b600061021c610217610221565b61026b565b905090565b60008054905090565b600061023c610237610221565b61028b565b905090565b60005481565b60016020528060005260406000206000915090508060000154908060010154905082565b600060016000838152602001908152602001600020600001549050919050565b600060016000838152602001908152602001600020600101549050919050565b600080815480929190600101919050555060405180604001604052808381526020018281525060016000805481526020019081526020016000206000820151816000015560208201518160010155905050505056fea2646970667358221220f0b0021df0fcb9ea0ebe212a39d3f83904c8c0e62c84459c9507ca59cf6f481d64736f6c634300060c0033",
  "immutableReferences": {},
  "source": "// SPDX-License-Identifier: MIT\npragma solidity ^0.6.12;\n\nimport \"./LnDefaultPrices.sol\";\n\n// chain link Oracle interface\ninterface OracleInterface {\n    function latestAnswer() external view returns (int256);\n\n    function latestTimestamp() external view returns (uint256);\n\n    function latestRound() external view returns (uint256);\n\n    function getAnswer(uint256 roundId) external view returns (int256);\n\n    function getTimestamp(uint256 roundId) external view returns (uint256);\n}\n\n\n\n\n\ncontract LnChainLinkPrices is LnDefaultPrices {\n    mapping(bytes32 => OracleInterface) public mOracles;\n\n    bytes32[] public mOracleArray;\n\n    constructor( address _admin, address _oracle, bytes32[] memory _currencies, uint[] memory _prices ) public LnDefaultPrices( _admin, _oracle, _currencies,  _prices ) {\n    }\n\n    function addOracle(bytes32 currencyKey, address OracleAddress) external onlyAdmin {\n        OracleInterface Oracle = OracleInterface(OracleAddress);\n        require(Oracle.latestTimestamp() >= 0, \"time stamp error\");\n        if (address(mOracles[currencyKey]) == address(0)) {\n            mOracleArray.push(currencyKey);\n        }\n        mOracles[currencyKey] = Oracle;\n        emit OracleAdded(currencyKey, address(Oracle));\n    }\n\n    function removeOracle(bytes32 currencyKey) external onlyAdmin {\n        address Oracle = address(mOracles[currencyKey]);\n        require(Oracle != address(0), \"Oracle is not exists\");\n        delete mOracles[currencyKey];\n\n        bool wasRemoved = removeFromArray(currencyKey, mOracleArray);\n\n        if (wasRemoved) {\n            emit OracleRemoved(currencyKey, Oracle);\n        }\n    }\n\n    function _getPriceData(bytes32 currencyName) internal view override returns (PriceData memory) {\n        if (address(mOracles[currencyName]) != address(0)) {\n            OracleInterface Oracle = mOracles[currencyName];\n            PriceData memory priceAndTime;\n            priceAndTime.mPrice = uint216(Oracle.latestAnswer() * 1e10);\n            priceAndTime.mTime = uint40(Oracle.latestTimestamp());\n            return priceAndTime;\n        } else {\n            return super._getPriceData( currencyName );\n        }\n    }  \n\n    function removeFromArray(bytes32 entry, bytes32[] storage array) internal returns (bool) {\n        for (uint i = 0; i < array.length; i++) {\n            if (array[i] == entry) {\n                delete array[i];\n                array[i] = array[array.length - 1];\n                array.pop();\n                return true;\n            }\n        }\n        return false;\n    }\n\n\n    event OracleAdded(bytes32 currencyKey, address Oracle);\n    event OracleRemoved(bytes32 currencyKey, address Oracle);\n}\n\n\n// test Oracle, for test stub\ncontract TestOracle is OracleInterface {\n    uint public roundId = 0;\n\n    struct Entry {\n        int256 answer;\n        uint256 timestamp;\n    }\n\n    mapping(uint => Entry) public entries;\n\n    constructor() public {}\n\n    function setLatestAnswer(int256 answer, uint256 timestamp) external {\n        roundId++;\n        entries[roundId] = Entry({answer: answer, timestamp: timestamp});\n    }\n\n    function latestAnswer() external view override returns (int256) {\n        return getAnswer(latestRound());\n    }\n\n    function latestTimestamp() external view override returns (uint256) {\n        return getTimestamp(latestRound());\n    }\n\n    function latestRound() public view override returns (uint256) {\n        return roundId;\n    }\n\n    function getAnswer(uint256 _roundId) public view override returns (int256) {\n        return entries[_roundId].answer;\n    }\n\n    function getTimestamp(uint256 _roundId) public view override returns (uint256) {\n        return entries[_roundId].timestamp;\n    }\n}",
  "sourcePath": "/Users/michael/Linear-finance/Linear/contracts/LnChainLinkPrices.sol",
  "compiler": {
    "name": "solc",
    "version": "0.6.12+commit.27d51765.Emscripten.clang"
  },
  "schemaVersion": "3.3.1",
  "updatedAt": "2020-11-06T11:06:37.761Z",
  "devdoc": {
    "kind": "dev",
    "methods": {},
    "version": 1
  },
  "userdoc": {
    "kind": "user",
    "methods": {},
    "version": 1
  }
}