{
	"data": {
		"bytecode": {
			"linkReferences": {},
			"object": "608060405263609b8b006010556013805460ff60a01b191690556032601655670de0b6b3a76400006017553480156200003757600080fd5b5060405162002a4138038062002a41833981810160405260e08110156200005d57600080fd5b508051602082015160408301516060840151608085015160a086015160c09096015194959394929391929091908383886001600160a01b038116620000e9576040805162461bcd60e51b815260206004820152601960248201527f61646d696e20616464726573732063616e6e6f74206265203000000000000000604482015290519081900360640190fd5b600080546001600160a01b0319166001600160a01b038316908117825560408051928352602083019190915280517f7e644d79422f17c01e4894b5f4f588d331ebfa28653d42ae832dc59e38c9798f9281900390910190a1506001805460ff60a01b191690556002919091556007819055600455600a80546001600160a01b038089166001600160a01b031992831617909255600b80548884169216919091179055600c8390558116156200024457601380546001600160a01b0319166001600160a01b03838116919091179182905560408051630c048d9160e31b8152905192909116916360246c8891600480820192606092909190829003018186803b158015620001f557600080fd5b505afa1580156200020a573d6000803e3d6000fd5b505050506040513d60608110156200022157600080fd5b5080516040909101516005556003556013805460ff60a01b1916600160a01b1790555b505050505050506127e6806200025b6000396000f3fe608060405234801561001057600080fd5b50600436106102bb5760003560e01c80636a8ab29611610182578063aa8c217c116100e9578063dd3bf574116100a2578063f851a4401161007c578063f851a440146106ea578063f873ccb5146106f2578063fc139451146106fa578063fea8079314610720576102bb565b8063dd3bf574146106b4578063eb016e64146106bc578063ebcf4e9e146106c4576102bb565b8063aa8c217c1461065a578063b518a00e14610662578063bb4f19121461066a578063c0e1f29614610687578063c713aa941461068f578063d4d12d64146106ac576102bb565b806385461f691161013b57806385461f69146105f15780638ae39cac1461061d57806392fe2d6d1461062557806399fb7a8f1461062d5780639ab0388b14610635578063a16bd31214610652576102bb565b80636a8ab2961461055b5780636c8381f8146105785780636d736de2146105805780636eefcf75146105a6578063758a9932146105cc57806380459827146105d4576102bb565b806332eec36a1161022657806360246c88116101df57806360246c88146104b6578063612d669e146104be57806362e3efdd146104db5780636386c1c7146105015780636807a6371461052757806369e0bb421461052f576102bb565b806332eec36a1461044a578063378341991461047057806348cd4cb1146104965780634e71d92d1461049e578063562975cb146104a65780635c975abb146104ae576102bb565b80631dbb2a22116102785780631dbb2a22146103b1578063222bebd9146103e257806324c208501461040657806325971dff1461043257806325c065b11461043a5780632f7a384914610442576102bb565b806301608f5f146102c057806307880b7f146102f85780631485ff781461032057806316c38b3c146103285780631959a002146103475780631d62ebd91461038b575b600080fd5b6102e6600480360360208110156102d657600080fd5b50356001600160a01b0316610728565b60408051918252519081900360200190f35b61031e6004803603602081101561030e57600080fd5b50356001600160a01b0316610746565b005b6102e66107f1565b61031e6004803603602081101561033e57600080fd5b503515156107f7565b61036d6004803603602081101561035d57600080fd5b50356001600160a01b031661085e565b60408051938452602084019290925282820152519081900360600190f35b6102e6600480360360208110156103a157600080fd5b50356001600160a01b031661087f565b6103ce600480360360208110156103c757600080fd5b503561089a565b604080519115158252519081900360200190f35b6103ea610a2a565b604080516001600160a01b039092168252519081900360200190f35b6102e66004803603604081101561041c57600080fd5b50803590602001356001600160a01b0316610a39565b61031e610c24565b6102e6610ce7565b6103ea610ced565b61031e6004803603602081101561046057600080fd5b50356001600160a01b0316610cfc565b6102e66004803603602081101561048657600080fd5b50356001600160a01b0316610d67565b6102e6610d79565b6103ce610d7f565b6102e6610fbd565b6103ce610fc3565b61036d610fd3565b61031e600480360360208110156104d457600080fd5b5035610fe1565b6102e6600480360360208110156104f157600080fd5b50356001600160a01b031661102f565b61036d6004803603602081101561051757600080fd5b50356001600160a01b03166110c6565b6103ce6110ee565b61031e6004803603604081101561054557600080fd5b506001600160a01b0381351690602001356110fe565b61031e6004803603602081101561057157600080fd5b50356111f2565b6103ea611240565b6103ce6004803603602081101561059657600080fd5b50356001600160a01b031661124f565b6103ce600480360360208110156105bc57600080fd5b50356001600160a01b0316611291565b6102e66112a6565b61031e600480360360208110156105ea57600080fd5b50356112ac565b6102e66004803603604081101561060757600080fd5b50803590602001356001600160a01b0316611423565b6102e661142f565b6102e6611435565b61036d61143b565b6103ce6004803603602081101561064b57600080fd5b5035611447565b6102e661152b565b6102e6611531565b6103ea611537565b61031e6004803603602081101561068057600080fd5b5035611546565b6102e6611594565b61031e600480360360208110156106a557600080fd5b50356115a2565b6103ea611630565b6103ea61163f565b6102e661164e565b6103ce600480360360208110156106da57600080fd5b50356001600160a01b0316611654565b6103ea6117dc565b6102e66117eb565b6102e66004803603602081101561071057600080fd5b50356001600160a01b03166117f1565b6102e6611874565b6001600160a01b031660009081526006602052604090206001015490565b6000546001600160a01b0316331461078f5760405162461bcd60e51b815260040180806020018281038252602f815260200180612760602f913960400191505060405180910390fd5b600180546001600160a01b038381166001600160a01b0319831617928390556040805192821680845293909116602083015280517f0faed18be9e8f4d4c05dfbcc80ea2c97a0be729614d766827778f60890c02cab9281900390910190a15050565b60085481565b6000546001600160a01b031633146108405760405162461bcd60e51b815260040180806020018281038252602f815260200180612760602f913960400191505060405180910390fd5b80156108535761084e61187a565b61085b565b61085b611925565b50565b60066020526000908152604090208054600182015460029092015490919083565b6001600160a01b031660009081526006602052604090205490565b600154600090600160a01b900460ff16156108ef576040805162461bcd60e51b815260206004820152601060248201526f14185d5cd8589b194e881c185d5cd95960821b604482015290519081900360640190fd5b601754821015610946576040805162461bcd60e51b815260206004820152601960248201527f5374616b696e6720616d6f756e7420746f6f20736d616c6c2e00000000000000604482015290519081900360640190fd5b600a54604080516323b872dd60e01b81523360048201523060248201526044810185905290516001600160a01b03909216916323b872dd916064808201926020929091908290030181600087803b1580156109a057600080fd5b505af11580156109b4573d6000803e3d6000fd5b505050506040513d60208110156109ca57600080fd5b5050600c5443908111156109dd5750600c545b6109e88133856119b0565b60408051848152426020820152815133927fa7cce4e8ff59a515dccbee3a6382e94deb1db79bdb43cf35a51251d41ea395f0928290030190a250600192915050565b600a546001600160a01b031681565b6000600c54831115610a4b57600c5492505b506001600160a01b03811660009081526014602052604081205490805b600b546040805163fc13945160e01b81526001600160a01b0387811660048301529151919092169163fc139451916024808301926020929190829003018186803b158015610ab557600080fd5b505afa158015610ac9573d6000803e3d6000fd5b505050506040513d6020811015610adf57600080fd5b5051811015610b7e57600b5460408051633f73dab560e11b81526001600160a01b0387811660048301526024820185905282516000949190911692637ee7b56a9260448082019391829003018186803b158015610b3b57600080fd5b505afa158015610b4f573d6000803e3d6000fd5b505050506040513d6040811015610b6557600080fd5b50519050610b738382611ab7565b925050600101610a68565b508015610c0357600d54600090610b9d906001600160a01b0316610728565b90506000610bf282610bec85610be6600f546040518060600160405280602481526020016126ce60249139600d54610bdf908e906001600160a01b0316611b11565b9190611c5a565b90611cf1565b90611d4a565b9050610bfe8482611ab7565b935050505b6000610c0f8585611b11565b9050610c1b8382611ab7565b95945050505050565b6001546001600160a01b03163314610c83576040805162461bcd60e51b815260206004820152601f60248201527f4f6e6c792063616e6469646174652063616e206265636f6d652061646d696e00604482015290519081900360640190fd5b600080546001546001600160a01b031982166001600160a01b0391821617928390556040805192821680845293909116602083015280517f7e644d79422f17c01e4894b5f4f588d331ebfa28653d42ae832dc59e38c9798f9281900390910190a150565b60175481565b6013546001600160a01b031681565b6000546001600160a01b03163314610d455760405162461bcd60e51b815260040180806020018281038252602f815260200180612760602f913960400191505060405180910390fd5b600a80546001600160a01b0319166001600160a01b0392909216919091179055565b60146020526000908152604090205481565b60075481565b600154600090600160a01b900460ff1615610dd4576040805162461bcd60e51b815260206004820152601060248201526f14185d5cd8589b194e881c185d5cd95960821b604482015290519081900360640190fd5b6010544211610e2a576040805162461bcd60e51b815260206004820152601860248201527f4e6f742074696d6520746f20636c61696d207265776172640000000000000000604482015290519081900360640190fd5b600b54604080516362e3efdd60e01b815233600482015290516000926001600160a01b0316916362e3efdd916024808301926020929190829003018186803b158015610e7557600080fd5b505afa158015610e89573d6000803e3d6000fd5b505050506040513d6020811015610e9f57600080fd5b505190506000610eae33610728565b9050610ec333610ebe8484611ab7565b611d8c565b6000610ed1600c5433610a39565b9050610edc336121c5565b336000818152601460209081526040808320839055600a54815163a9059cbb60e01b815260048101959095526024850186905290516001600160a01b039091169363a9059cbb9360448083019493928390030190829087803b158015610f4157600080fd5b505af1158015610f55573d6000803e3d6000fd5b505050506040513d6020811015610f6b57600080fd5b503390507f34fcbac0073d7c3d388e51312faf357774904998eeb8fca628b9e6f65ee1cbf782610f9b8686611ab7565b6040805192835260208301919091528051918290030190a26001935050505090565b60095481565b600154600160a01b900460ff1690565b600354600454600554909192565b6000546001600160a01b0316331461102a5760405162461bcd60e51b815260040180806020018281038252602f815260200180612760602f913960400191505060405180910390fd5b601755565b600b54604080516362e3efdd60e01b81526001600160a01b038481166004830152915160009384936110bf939116916362e3efdd91602480820192602092909190829003018186803b15801561108457600080fd5b505afa158015611098573d6000803e3d6000fd5b505050506040513d60208110156110ae57600080fd5b50516110b985610728565b90611ab7565b9392505050565b6001600160a01b03166000908152600660205260409020805460018201546002909201549092565b601354600160a01b900460ff1681565b6000546001600160a01b031633146111475760405162461bcd60e51b815260040180806020018281038252602f815260200180612760602f913960400191505060405180910390fd5b426202a3000181101561118b5760405162461bcd60e51b81526004018080602001828103825260298152602001806127376029913960400191505060405180910390fd5b601180546001600160a01b0319166001600160a01b0384811691909117918290556012839055604080519290911682526020820183905280517f19d2731b142d93a696d42170ea6dc53aa87024a1f79e9628658547a2d6fad2e69281900390910190a15050565b6000546001600160a01b0316331461123b5760405162461bcd60e51b815260040180806020018281038252602f815260200180612760602f913960400191505060405180910390fd5b601655565b6001546001600160a01b031681565b6013546000908190600160a01b900460ff1661126d5750600161128b565b506001600160a01b03821660009081526015602052604090205460ff165b92915050565b60156020526000908152604090205460ff1681565b600f5481565b6000546001600160a01b031633146112f55760405162461bcd60e51b815260040180806020018281038252602f815260200180612760602f913960400191505060405180910390fd5b600060125411611345576040805162461bcd60e51b81526020600482015260166024820152751b551c985b9cd31bd8dad51a5b59481b9bdd081cd95d60521b604482015290519081900360640190fd5b601254421161139b576040805162461bcd60e51b815260206004820152601760248201527f506c73207761697420746f20756e6c6f636b2074696d65000000000000000000604482015290519081900360640190fd5b600a546011546040805163a9059cbb60e01b81526001600160a01b039283166004820152602481018590529051919092169163a9059cbb9160448083019260209291908290030181600087803b1580156113f457600080fd5b505af1158015611408573d6000803e3d6000fd5b505050506040513d602081101561141e57600080fd5b505050565b60006110bf8383611b11565b60025481565b600e5481565b60035460045460055483565b600154600090600160a01b900460ff161561149c576040805162461bcd60e51b815260206004820152601060248201526f14185d5cd8589b194e881c185d5cd95960821b604482015290519081900360640190fd5b600082116114e3576040805162461bcd60e51b815260206004820152600f60248201526e24b73b30b634b21030b6b7bab73a1760891b604482015290519081900360640190fd5b6114ed3383611d8c565b60408051838152905133917fcac6a9d108b4882699e5afc7402d86f41e4bae2981b76023107009d1fc2b11a3919081900360200190a2506001919050565b60105481565b60035490565b600b546001600160a01b031681565b6000546001600160a01b0316331461158f5760405162461bcd60e51b815260040180806020018281038252602f815260200180612760602f913960400191505060405180910390fd5b601055565b69152d02c7e14af680000081565b6000546001600160a01b031633146115eb5760405162461bcd60e51b815260040180806020018281038252602f815260200180612760602f913960400191505060405180910390fd5b600c54811161162b5760405162461bcd60e51b81526004018080602001828103825260248152602001806126f26024913960400191505060405180910390fd5b600c55565b600d546001600160a01b031681565b6011546001600160a01b031681565b600c5481565b601354600090600160a01b900460ff161515600114156116b3576040805162461bcd60e51b815260206004820152601560248201527439bcb7319034b9903737ba103932b8bab4b932b21760591b604482015290519081900360640190fd5b6001600160a01b03821660009081526015602052604090205460ff16151560011415611716576040805162461bcd60e51b815260206004820152600d60248201526c20b63932b0b23c9039bcb7319760991b604482015290519081900360640190fd5b60135460408051636386c1c760e01b81526001600160a01b03858116600483015291519190921691636386c1c7916024808301926060929190829003018186803b15801561176357600080fd5b505afa158015611777573d6000803e3d6000fd5b505050506040513d606081101561178d57600080fd5b5080516020808301516040938401516001600160a01b03969096166000908152600683528481206002810197909755600180880192909255929095556015905220805460ff1916831790555090565b6000546001600160a01b031681565b60165481565b600b546040805163fc13945160e01b81526001600160a01b0384811660048301529151600093929092169163fc13945191602480820192602092909190829003018186803b15801561184257600080fd5b505afa158015611856573d6000803e3d6000fd5b505050506040513d602081101561186c57600080fd5b505192915050565b60125481565b600154600160a01b900460ff16156118cc576040805162461bcd60e51b815260206004820152601060248201526f14185d5cd8589b194e881c185d5cd95960821b604482015290519081900360640190fd5b6001805460ff60a01b1916600160a01b1790557f62e78cea01bee320cd4e420270b5ea74000d11b0c9f74754ebdbfc544b05a2586119086121ed565b604080516001600160a01b039092168252519081900360200190a1565b600154600160a01b900460ff1661197a576040805162461bcd60e51b815260206004820152601460248201527314185d5cd8589b194e881b9bdd081c185d5cd95960621b604482015290519081900360640190fd5b6001805460ff60a01b191690557f5db9ee0a495bf2e6ff9c91a7834c1ba4fdd244a5e8aa4e537bd38aeae4b073aa6119086121ed565b6001600160a01b03821660009081526006602052604090206003906119d4856121f1565b600181015415611a5a576000611a4682600201546040518060400160405280601d81526020017f5f6465706f7369742070656e64696e6720737562206f766572666c6f77000000815250610bdf68056bc75e2d63100000610bec88600201548860010154611cf190919063ffffffff16565b90508015611a5857611a5882826122d5565b505b8215611a83576001810154611a6f9084611ab7565b60018201558154611a809084611ab7565b82555b611aab68056bc75e2d63100000610bec84600201548460010154611cf190919063ffffffff16565b60029091015550505050565b6000828201838110156110bf576040805162461bcd60e51b815260206004820152601b60248201527f536166654d6174683a206164646974696f6e206f766572666c6f770000000000604482015290519081900360640190fd5b6001600160a01b0381166000908152600660205260408120600554600380546004549193929187118015611b4457508015155b15611bda576000611b9985600101546040518060400160405280601881526020017f637220637572426c6f636b20737562206f766572666c6f7700000000000000008152508a611c5a9092919063ffffffff16565b90506000611bb260025483611cf190919063ffffffff16565b9050611bd5611bce84610bec8468056bc75e2d63100000611cf1565b8590611ab7565b935050505b6000611c3e84600201546040518060400160405280601981526020017f6372206e657752657761726420737562206f766572666c6f7700000000000000815250610bdf68056bc75e2d63100000610bec888a60010154611cf190919063ffffffff16565b8454909150611c4e908290611ab7565b98975050505050505050565b60008184841115611ce95760405162461bcd60e51b81526004018080602001828103825283818151815260200191508051906020019080838360005b83811015611cae578181015183820152602001611c96565b50505050905090810190601f168015611cdb5780820380516001836020036101000a031916815260200191505b509250505060405180910390fd5b505050900390565b600082611d005750600061128b565b82820282848281611d0d57fe5b04146110bf5760405162461bcd60e51b81526004018080602001828103825260218152602001806127166021913960400191505060405180910390fd5b60006110bf83836040518060400160405280601a81526020017f536166654d6174683a206469766973696f6e206279207a65726f00000000000081525061233b565b600c544390811115611d9d5750600c545b816000611da985610728565b9050838110611dc657611dbd8386866123a0565b60009350612130565b8015611dff57611dd78386836123a0565b611dfc8160405180606001604052806022815260200161265e60229139869190611c5a565b93505b600b546040805163fc13945160e01b81526001600160a01b0388811660048301529151600093929092169163fc13945191602480820192602092909190829003018186803b158015611e5057600080fd5b505afa158015611e64573d6000803e3d6000fd5b505050506040513d6020811015611e7a57600080fd5b505190505b6001811061212e57600b5460408051633f73dab560e11b81526001600160a01b0389811660048301526000198501602483015282516000948594921692637ee7b56a926044808301939192829003018186803b158015611ede57600080fd5b505afa158015611ef2573d6000803e3d6000fd5b505050506040513d6040811015611f0857600080fd5b508051602090910151909250905081871061202557611f428260405180606001604052806022815260200161265e60229139899190611c5a565b600b546040805163217085e360e11b81526001600160a01b038c811660048301529151939a509116916342e10bc69160248082019260009290919082900301818387803b158015611f9257600080fd5b505af1158015611fa6573d6000803e3d6000fd5b5050600b546040805163b331714160e01b8152600481018690526024810187905290516001600160a01b03909216935063b3317141925060448082019260009290919082900301818387803b158015611ffe57600080fd5b505af1158015612012573d6000803e3d6000fd5b505050506120208883612526565b612117565b600b5460408051630678893360e11b81526001600160a01b038b8116600483015260001987016024830152604482018b905291519190921691630cf1126691606480830192600092919082900301818387803b15801561208457600080fd5b505af1158015612098573d6000803e3d6000fd5b5050600b546040805163b331714160e01b815260048101869052602481018c905290516001600160a01b03909216935063b3317141925060448082019260009290919082900301818387803b1580156120f057600080fd5b505af1158015612104573d6000803e3d6000fd5b505050506121128888612526565b600096505b8661212357505061212e565b505060001901611e7f565b505b600a546001600160a01b031663a9059cbb3361214c858861261b565b6040518363ffffffff1660e01b815260040180836001600160a01b0316815260200182815260200192505050602060405180830381600087803b15801561219257600080fd5b505af11580156121a6573d6000803e3d6000fd5b505050506040513d60208110156121bc57600080fd5b50505050505050565b6001600160a01b03811660009081526006602052604090208054156121e957600081555b5050565b3390565b6004546003908211612203575061085b565b805480612216575060010181905561085b565b600061226683600101546040518060400160405280601d81526020017f5f75706461746520637572426c6f636b20737562206f766572666c6f7700000081525086611c5a9092919063ffffffff16565b9050600061227f60025483611cf190919063ffffffff16565b60085490915061228f9082611ab7565b60085560095461229f9082611ab7565b6009556122c76122bc84610bec8468056bc75e2d63100000611cf1565b600286015490611ab7565b600285015550505060010155565b6008548111156122e457506008545b6040805180820190915260208082527f7265776172642072656d61696e52657761726420737562206f766572666c6f7790820152600854612326918390611c5a565b60085581546123359082611ab7565b90915550565b6000818361238a5760405162461bcd60e51b8152602060048201818152835160248401528351909283926044909101919085019080838360008315611cae578181015183820152602001611c96565b50600083858161239657fe5b0495945050505050565b6001600160a01b038216600090815260066020526040902060018101546003919083111561240b576040805162461bcd60e51b815260206004820152601360248201527217ddda5d1a191c985dce881b9bdd0819dbdbd9606a1b604482015290519081900360640190fd5b612414856121f1565b600061247c82600201546040518060400160405280601e81526020017f5f77697468647261772070656e64696e6720737562206f766572666c6f770000815250610bdf68056bc75e2d63100000610bec88600201548860010154611cf190919063ffffffff16565b9050801561248e5761248e82826122d5565b83156124ee576124bd846040518060600160405280602281526020016126ac6022913960018501549190611c5a565b82600101819055506124eb8460405180606001604052806022815260200161278f6022913985549190611c5a565b83555b61251668056bc75e2d63100000610bec85600201548560010154611cf190919063ffffffff16565b8260020181905550505050505050565b600c5443908111156125375750600c545b600d5460009061254f906001600160a01b0316610728565b600d5490915061256a9083906001600160a01b0316856123a0565b60006125c268056bc75e2d63100000610bec84610bec68056bc75e2d63100000610be68a610be6600f546040518060600160405280602c8152602001612680602c9139600d54610bdf906001600160a01b031661087f565b600f549091506125d29082611ab7565b600f556001600160a01b0385166000908152601460205260409020546125f89082611ab7565b6001600160a01b0390951660009081526014602052604090209490945550505050565b60006110bf83836040518060400160405280601e81526020017f536166654d6174683a207375627472616374696f6e206f766572666c6f770000815250611c5a56fe5f63616e63656c5374616b696e6720616d6f756e7420737562206f766572666c6f775f77696474686472617746726f6d4f6c645374616b696e672072657761726420737562206f766572666c6f775f776974686472617720757365722e616d6f756e7420737562206f766572666c6f77676574546f74616c52657761726420695265776172643220737562206f766572666c6f776e657720656e64426c6f636b206c657373207468616e206f6c6420656e64426c6f636b2e536166654d6174683a206d756c7469706c69636174696f6e206f766572666c6f776c6f636b74696d65206e656564206c6172676572207468616e206375722074696d65203220646179734f6e6c792074686520636f6e74726163742061646d696e2063616e20706572666f726d207468697320616374696f6e5f776974686472617720706f6f6c2e616d6f756e7420737562206f766572666c6f77a2646970667358221220cad5d51e41bd03ebf7485d3bea9b7a1800e19b61b326cbe357e507f12691e97e64736f6c634300060c0033",
			"opcodes": "PUSH1 0x80 PUSH1 0x40 MSTORE PUSH4 0x609B8B00 PUSH1 0x10 SSTORE PUSH1 0x13 DUP1 SLOAD PUSH1 0xFF PUSH1 0xA0 SHL NOT AND SWAP1 SSTORE PUSH1 0x32 PUSH1 0x16 SSTORE PUSH8 0xDE0B6B3A7640000 PUSH1 0x17 SSTORE CALLVALUE DUP1 ISZERO PUSH3 0x37 JUMPI PUSH1 0x0 DUP1 REVERT JUMPDEST POP PUSH1 0x40 MLOAD PUSH3 0x2A41 CODESIZE SUB DUP1 PUSH3 0x2A41 DUP4 CODECOPY DUP2 DUP2 ADD PUSH1 0x40 MSTORE PUSH1 0xE0 DUP2 LT ISZERO PUSH3 0x5D JUMPI PUSH1 0x0 DUP1 REVERT JUMPDEST POP DUP1 MLOAD PUSH1 0x20 DUP3 ADD MLOAD PUSH1 0x40 DUP4 ADD MLOAD PUSH1 0x60 DUP5 ADD MLOAD PUSH1 0x80 DUP6 ADD MLOAD PUSH1 0xA0 DUP7 ADD MLOAD PUSH1 0xC0 SWAP1 SWAP7 ADD MLOAD SWAP5 SWAP6 SWAP4 SWAP5 SWAP3 SWAP4 SWAP2 SWAP3 SWAP1 SWAP2 SWAP1 DUP4 DUP4 DUP9 PUSH1 0x1 PUSH1 0x1 PUSH1 0xA0 SHL SUB DUP2 AND PUSH3 0xE9 JUMPI PUSH1 0x40 DUP1 MLOAD PUSH3 0x461BCD PUSH1 0xE5 SHL DUP2 MSTORE PUSH1 0x20 PUSH1 0x4 DUP3 ADD MSTORE PUSH1 0x19 PUSH1 0x24 DUP3 ADD MSTORE PUSH32 0x61646D696E20616464726573732063616E6E6F74206265203000000000000000 PUSH1 0x44 DUP3 ADD MSTORE SWAP1 MLOAD SWAP1 DUP2 SWAP1 SUB PUSH1 0x64 ADD SWAP1 REVERT JUMPDEST PUSH1 0x0 DUP1 SLOAD PUSH1 0x1 PUSH1 0x1 PUSH1 0xA0 SHL SUB NOT AND PUSH1 0x1 PUSH1 0x1 PUSH1 0xA0 SHL SUB DUP4 AND SWAP1 DUP2 OR DUP3 SSTORE PUSH1 0x40 DUP1 MLOAD SWAP3 DUP4 MSTORE PUSH1 0x20 DUP4 ADD SWAP2 SWAP1 SWAP2 MSTORE DUP1 MLOAD PUSH32 0x7E644D79422F17C01E4894B5F4F588D331EBFA28653D42AE832DC59E38C9798F SWAP3 DUP2 SWAP1 SUB SWAP1 SWAP2 ADD SWAP1 LOG1 POP PUSH1 0x1 DUP1 SLOAD PUSH1 0xFF PUSH1 0xA0 SHL NOT AND SWAP1 SSTORE PUSH1 0x2 SWAP2 SWAP1 SWAP2 SSTORE PUSH1 0x7 DUP2 SWAP1 SSTORE PUSH1 0x4 SSTORE PUSH1 0xA DUP1 SLOAD PUSH1 0x1 PUSH1 0x1 PUSH1 0xA0 SHL SUB DUP1 DUP10 AND PUSH1 0x1 PUSH1 0x1 PUSH1 0xA0 SHL SUB NOT SWAP3 DUP4 AND OR SWAP1 SWAP3 SSTORE PUSH1 0xB DUP1 SLOAD DUP9 DUP5 AND SWAP3 AND SWAP2 SWAP1 SWAP2 OR SWAP1 SSTORE PUSH1 0xC DUP4 SWAP1 SSTORE DUP2 AND ISZERO PUSH3 0x244 JUMPI PUSH1 0x13 DUP1 SLOAD PUSH1 0x1 PUSH1 0x1 PUSH1 0xA0 SHL SUB NOT AND PUSH1 0x1 PUSH1 0x1 PUSH1 0xA0 SHL SUB DUP4 DUP2 AND SWAP2 SWAP1 SWAP2 OR SWAP2 DUP3 SWAP1 SSTORE PUSH1 0x40 DUP1 MLOAD PUSH4 0xC048D91 PUSH1 0xE3 SHL DUP2 MSTORE SWAP1 MLOAD SWAP3 SWAP1 SWAP2 AND SWAP2 PUSH4 0x60246C88 SWAP2 PUSH1 0x4 DUP1 DUP3 ADD SWAP3 PUSH1 0x60 SWAP3 SWAP1 SWAP2 SWAP1 DUP3 SWAP1 SUB ADD DUP2 DUP7 DUP1 EXTCODESIZE ISZERO DUP1 ISZERO PUSH3 0x1F5 JUMPI PUSH1 0x0 DUP1 REVERT JUMPDEST POP GAS STATICCALL ISZERO DUP1 ISZERO PUSH3 0x20A JUMPI RETURNDATASIZE PUSH1 0x0 DUP1 RETURNDATACOPY RETURNDATASIZE PUSH1 0x0 REVERT JUMPDEST POP POP POP POP PUSH1 0x40 MLOAD RETURNDATASIZE PUSH1 0x60 DUP2 LT ISZERO PUSH3 0x221 JUMPI PUSH1 0x0 DUP1 REVERT JUMPDEST POP DUP1 MLOAD PUSH1 0x40 SWAP1 SWAP2 ADD MLOAD PUSH1 0x5 SSTORE PUSH1 0x3 SSTORE PUSH1 0x13 DUP1 SLOAD PUSH1 0xFF PUSH1 0xA0 SHL NOT AND PUSH1 0x1 PUSH1 0xA0 SHL OR SWAP1 SSTORE JUMPDEST POP POP POP POP POP POP POP PUSH2 0x27E6 DUP1 PUSH3 0x25B PUSH1 0x0 CODECOPY PUSH1 0x0 RETURN INVALID PUSH1 0x80 PUSH1 0x40 MSTORE CALLVALUE DUP1 ISZERO PUSH2 0x10 JUMPI PUSH1 0x0 DUP1 REVERT JUMPDEST POP PUSH1 0x4 CALLDATASIZE LT PUSH2 0x2BB JUMPI PUSH1 0x0 CALLDATALOAD PUSH1 0xE0 SHR DUP1 PUSH4 0x6A8AB296 GT PUSH2 0x182 JUMPI DUP1 PUSH4 0xAA8C217C GT PUSH2 0xE9 JUMPI DUP1 PUSH4 0xDD3BF574 GT PUSH2 0xA2 JUMPI DUP1 PUSH4 0xF851A440 GT PUSH2 0x7C JUMPI DUP1 PUSH4 0xF851A440 EQ PUSH2 0x6EA JUMPI DUP1 PUSH4 0xF873CCB5 EQ PUSH2 0x6F2 JUMPI DUP1 PUSH4 0xFC139451 EQ PUSH2 0x6FA JUMPI DUP1 PUSH4 0xFEA80793 EQ PUSH2 0x720 JUMPI PUSH2 0x2BB JUMP JUMPDEST DUP1 PUSH4 0xDD3BF574 EQ PUSH2 0x6B4 JUMPI DUP1 PUSH4 0xEB016E64 EQ PUSH2 0x6BC JUMPI DUP1 PUSH4 0xEBCF4E9E EQ PUSH2 0x6C4 JUMPI PUSH2 0x2BB JUMP JUMPDEST DUP1 PUSH4 0xAA8C217C EQ PUSH2 0x65A JUMPI DUP1 PUSH4 0xB518A00E EQ PUSH2 0x662 JUMPI DUP1 PUSH4 0xBB4F1912 EQ PUSH2 0x66A JUMPI DUP1 PUSH4 0xC0E1F296 EQ PUSH2 0x687 JUMPI DUP1 PUSH4 0xC713AA94 EQ PUSH2 0x68F JUMPI DUP1 PUSH4 0xD4D12D64 EQ PUSH2 0x6AC JUMPI PUSH2 0x2BB JUMP JUMPDEST DUP1 PUSH4 0x85461F69 GT PUSH2 0x13B JUMPI DUP1 PUSH4 0x85461F69 EQ PUSH2 0x5F1 JUMPI DUP1 PUSH4 0x8AE39CAC EQ PUSH2 0x61D JUMPI DUP1 PUSH4 0x92FE2D6D EQ PUSH2 0x625 JUMPI DUP1 PUSH4 0x99FB7A8F EQ PUSH2 0x62D JUMPI DUP1 PUSH4 0x9AB0388B EQ PUSH2 0x635 JUMPI DUP1 PUSH4 0xA16BD312 EQ PUSH2 0x652 JUMPI PUSH2 0x2BB JUMP JUMPDEST DUP1 PUSH4 0x6A8AB296 EQ PUSH2 0x55B JUMPI DUP1 PUSH4 0x6C8381F8 EQ PUSH2 0x578 JUMPI DUP1 PUSH4 0x6D736DE2 EQ PUSH2 0x580 JUMPI DUP1 PUSH4 0x6EEFCF75 EQ PUSH2 0x5A6 JUMPI DUP1 PUSH4 0x758A9932 EQ PUSH2 0x5CC JUMPI DUP1 PUSH4 0x80459827 EQ PUSH2 0x5D4 JUMPI PUSH2 0x2BB JUMP JUMPDEST DUP1 PUSH4 0x32EEC36A GT PUSH2 0x226 JUMPI DUP1 PUSH4 0x60246C88 GT PUSH2 0x1DF JUMPI DUP1 PUSH4 0x60246C88 EQ PUSH2 0x4B6 JUMPI DUP1 PUSH4 0x612D669E EQ PUSH2 0x4BE JUMPI DUP1 PUSH4 0x62E3EFDD EQ PUSH2 0x4DB JUMPI DUP1 PUSH4 0x6386C1C7 EQ PUSH2 0x501 JUMPI DUP1 PUSH4 0x6807A637 EQ PUSH2 0x527 JUMPI DUP1 PUSH4 0x69E0BB42 EQ PUSH2 0x52F JUMPI PUSH2 0x2BB JUMP JUMPDEST DUP1 PUSH4 0x32EEC36A EQ PUSH2 0x44A JUMPI DUP1 PUSH4 0x37834199 EQ PUSH2 0x470 JUMPI DUP1 PUSH4 0x48CD4CB1 EQ PUSH2 0x496 JUMPI DUP1 PUSH4 0x4E71D92D EQ PUSH2 0x49E JUMPI DUP1 PUSH4 0x562975CB EQ PUSH2 0x4A6 JUMPI DUP1 PUSH4 0x5C975ABB EQ PUSH2 0x4AE JUMPI PUSH2 0x2BB JUMP JUMPDEST DUP1 PUSH4 0x1DBB2A22 GT PUSH2 0x278 JUMPI DUP1 PUSH4 0x1DBB2A22 EQ PUSH2 0x3B1 JUMPI DUP1 PUSH4 0x222BEBD9 EQ PUSH2 0x3E2 JUMPI DUP1 PUSH4 0x24C20850 EQ PUSH2 0x406 JUMPI DUP1 PUSH4 0x25971DFF EQ PUSH2 0x432 JUMPI DUP1 PUSH4 0x25C065B1 EQ PUSH2 0x43A JUMPI DUP1 PUSH4 0x2F7A3849 EQ PUSH2 0x442 JUMPI PUSH2 0x2BB JUMP JUMPDEST DUP1 PUSH4 0x1608F5F EQ PUSH2 0x2C0 JUMPI DUP1 PUSH4 0x7880B7F EQ PUSH2 0x2F8 JUMPI DUP1 PUSH4 0x1485FF78 EQ PUSH2 0x320 JUMPI DUP1 PUSH4 0x16C38B3C EQ PUSH2 0x328 JUMPI DUP1 PUSH4 0x1959A002 EQ PUSH2 0x347 JUMPI DUP1 PUSH4 0x1D62EBD9 EQ PUSH2 0x38B JUMPI JUMPDEST PUSH1 0x0 DUP1 REVERT JUMPDEST PUSH2 0x2E6 PUSH1 0x4 DUP1 CALLDATASIZE SUB PUSH1 0x20 DUP2 LT ISZERO PUSH2 0x2D6 JUMPI PUSH1 0x0 DUP1 REVERT JUMPDEST POP CALLDATALOAD PUSH1 0x1 PUSH1 0x1 PUSH1 0xA0 SHL SUB AND PUSH2 0x728 JUMP JUMPDEST PUSH1 0x40 DUP1 MLOAD SWAP2 DUP3 MSTORE MLOAD SWAP1 DUP2 SWAP1 SUB PUSH1 0x20 ADD SWAP1 RETURN JUMPDEST PUSH2 0x31E PUSH1 0x4 DUP1 CALLDATASIZE SUB PUSH1 0x20 DUP2 LT ISZERO PUSH2 0x30E JUMPI PUSH1 0x0 DUP1 REVERT JUMPDEST POP CALLDATALOAD PUSH1 0x1 PUSH1 0x1 PUSH1 0xA0 SHL SUB AND PUSH2 0x746 JUMP JUMPDEST STOP JUMPDEST PUSH2 0x2E6 PUSH2 0x7F1 JUMP JUMPDEST PUSH2 0x31E PUSH1 0x4 DUP1 CALLDATASIZE SUB PUSH1 0x20 DUP2 LT ISZERO PUSH2 0x33E JUMPI PUSH1 0x0 DUP1 REVERT JUMPDEST POP CALLDATALOAD ISZERO ISZERO PUSH2 0x7F7 JUMP JUMPDEST PUSH2 0x36D PUSH1 0x4 DUP1 CALLDATASIZE SUB PUSH1 0x20 DUP2 LT ISZERO PUSH2 0x35D JUMPI PUSH1 0x0 DUP1 REVERT JUMPDEST POP CALLDATALOAD PUSH1 0x1 PUSH1 0x1 PUSH1 0xA0 SHL SUB AND PUSH2 0x85E JUMP JUMPDEST PUSH1 0x40 DUP1 MLOAD SWAP4 DUP5 MSTORE PUSH1 0x20 DUP5 ADD SWAP3 SWAP1 SWAP3 MSTORE DUP3 DUP3 ADD MSTORE MLOAD SWAP1 DUP2 SWAP1 SUB PUSH1 0x60 ADD SWAP1 RETURN JUMPDEST PUSH2 0x2E6 PUSH1 0x4 DUP1 CALLDATASIZE SUB PUSH1 0x20 DUP2 LT ISZERO PUSH2 0x3A1 JUMPI PUSH1 0x0 DUP1 REVERT JUMPDEST POP CALLDATALOAD PUSH1 0x1 PUSH1 0x1 PUSH1 0xA0 SHL SUB AND PUSH2 0x87F JUMP JUMPDEST PUSH2 0x3CE PUSH1 0x4 DUP1 CALLDATASIZE SUB PUSH1 0x20 DUP2 LT ISZERO PUSH2 0x3C7 JUMPI PUSH1 0x0 DUP1 REVERT JUMPDEST POP CALLDATALOAD PUSH2 0x89A JUMP JUMPDEST PUSH1 0x40 DUP1 MLOAD SWAP2 ISZERO ISZERO DUP3 MSTORE MLOAD SWAP1 DUP2 SWAP1 SUB PUSH1 0x20 ADD SWAP1 RETURN JUMPDEST PUSH2 0x3EA PUSH2 0xA2A JUMP JUMPDEST PUSH1 0x40 DUP1 MLOAD PUSH1 0x1 PUSH1 0x1 PUSH1 0xA0 SHL SUB SWAP1 SWAP3 AND DUP3 MSTORE MLOAD SWAP1 DUP2 SWAP1 SUB PUSH1 0x20 ADD SWAP1 RETURN JUMPDEST PUSH2 0x2E6 PUSH1 0x4 DUP1 CALLDATASIZE SUB PUSH1 0x40 DUP2 LT ISZERO PUSH2 0x41C JUMPI PUSH1 0x0 DUP1 REVERT JUMPDEST POP DUP1 CALLDATALOAD SWAP1 PUSH1 0x20 ADD CALLDATALOAD PUSH1 0x1 PUSH1 0x1 PUSH1 0xA0 SHL SUB AND PUSH2 0xA39 JUMP JUMPDEST PUSH2 0x31E PUSH2 0xC24 JUMP JUMPDEST PUSH2 0x2E6 PUSH2 0xCE7 JUMP JUMPDEST PUSH2 0x3EA PUSH2 0xCED JUMP JUMPDEST PUSH2 0x31E PUSH1 0x4 DUP1 CALLDATASIZE SUB PUSH1 0x20 DUP2 LT ISZERO PUSH2 0x460 JUMPI PUSH1 0x0 DUP1 REVERT JUMPDEST POP CALLDATALOAD PUSH1 0x1 PUSH1 0x1 PUSH1 0xA0 SHL SUB AND PUSH2 0xCFC JUMP JUMPDEST PUSH2 0x2E6 PUSH1 0x4 DUP1 CALLDATASIZE SUB PUSH1 0x20 DUP2 LT ISZERO PUSH2 0x486 JUMPI PUSH1 0x0 DUP1 REVERT JUMPDEST POP CALLDATALOAD PUSH1 0x1 PUSH1 0x1 PUSH1 0xA0 SHL SUB AND PUSH2 0xD67 JUMP JUMPDEST PUSH2 0x2E6 PUSH2 0xD79 JUMP JUMPDEST PUSH2 0x3CE PUSH2 0xD7F JUMP JUMPDEST PUSH2 0x2E6 PUSH2 0xFBD JUMP JUMPDEST PUSH2 0x3CE PUSH2 0xFC3 JUMP JUMPDEST PUSH2 0x36D PUSH2 0xFD3 JUMP JUMPDEST PUSH2 0x31E PUSH1 0x4 DUP1 CALLDATASIZE SUB PUSH1 0x20 DUP2 LT ISZERO PUSH2 0x4D4 JUMPI PUSH1 0x0 DUP1 REVERT JUMPDEST POP CALLDATALOAD PUSH2 0xFE1 JUMP JUMPDEST PUSH2 0x2E6 PUSH1 0x4 DUP1 CALLDATASIZE SUB PUSH1 0x20 DUP2 LT ISZERO PUSH2 0x4F1 JUMPI PUSH1 0x0 DUP1 REVERT JUMPDEST POP CALLDATALOAD PUSH1 0x1 PUSH1 0x1 PUSH1 0xA0 SHL SUB AND PUSH2 0x102F JUMP JUMPDEST PUSH2 0x36D PUSH1 0x4 DUP1 CALLDATASIZE SUB PUSH1 0x20 DUP2 LT ISZERO PUSH2 0x517 JUMPI PUSH1 0x0 DUP1 REVERT JUMPDEST POP CALLDATALOAD PUSH1 0x1 PUSH1 0x1 PUSH1 0xA0 SHL SUB AND PUSH2 0x10C6 JUMP JUMPDEST PUSH2 0x3CE PUSH2 0x10EE JUMP JUMPDEST PUSH2 0x31E PUSH1 0x4 DUP1 CALLDATASIZE SUB PUSH1 0x40 DUP2 LT ISZERO PUSH2 0x545 JUMPI PUSH1 0x0 DUP1 REVERT JUMPDEST POP PUSH1 0x1 PUSH1 0x1 PUSH1 0xA0 SHL SUB DUP2 CALLDATALOAD AND SWAP1 PUSH1 0x20 ADD CALLDATALOAD PUSH2 0x10FE JUMP JUMPDEST PUSH2 0x31E PUSH1 0x4 DUP1 CALLDATASIZE SUB PUSH1 0x20 DUP2 LT ISZERO PUSH2 0x571 JUMPI PUSH1 0x0 DUP1 REVERT JUMPDEST POP CALLDATALOAD PUSH2 0x11F2 JUMP JUMPDEST PUSH2 0x3EA PUSH2 0x1240 JUMP JUMPDEST PUSH2 0x3CE PUSH1 0x4 DUP1 CALLDATASIZE SUB PUSH1 0x20 DUP2 LT ISZERO PUSH2 0x596 JUMPI PUSH1 0x0 DUP1 REVERT JUMPDEST POP CALLDATALOAD PUSH1 0x1 PUSH1 0x1 PUSH1 0xA0 SHL SUB AND PUSH2 0x124F JUMP JUMPDEST PUSH2 0x3CE PUSH1 0x4 DUP1 CALLDATASIZE SUB PUSH1 0x20 DUP2 LT ISZERO PUSH2 0x5BC JUMPI PUSH1 0x0 DUP1 REVERT JUMPDEST POP CALLDATALOAD PUSH1 0x1 PUSH1 0x1 PUSH1 0xA0 SHL SUB AND PUSH2 0x1291 JUMP JUMPDEST PUSH2 0x2E6 PUSH2 0x12A6 JUMP JUMPDEST PUSH2 0x31E PUSH1 0x4 DUP1 CALLDATASIZE SUB PUSH1 0x20 DUP2 LT ISZERO PUSH2 0x5EA JUMPI PUSH1 0x0 DUP1 REVERT JUMPDEST POP CALLDATALOAD PUSH2 0x12AC JUMP JUMPDEST PUSH2 0x2E6 PUSH1 0x4 DUP1 CALLDATASIZE SUB PUSH1 0x40 DUP2 LT ISZERO PUSH2 0x607 JUMPI PUSH1 0x0 DUP1 REVERT JUMPDEST POP DUP1 CALLDATALOAD SWAP1 PUSH1 0x20 ADD CALLDATALOAD PUSH1 0x1 PUSH1 0x1 PUSH1 0xA0 SHL SUB AND PUSH2 0x1423 JUMP JUMPDEST PUSH2 0x2E6 PUSH2 0x142F JUMP JUMPDEST PUSH2 0x2E6 PUSH2 0x1435 JUMP JUMPDEST PUSH2 0x36D PUSH2 0x143B JUMP JUMPDEST PUSH2 0x3CE PUSH1 0x4 DUP1 CALLDATASIZE SUB PUSH1 0x20 DUP2 LT ISZERO PUSH2 0x64B JUMPI PUSH1 0x0 DUP1 REVERT JUMPDEST POP CALLDATALOAD PUSH2 0x1447 JUMP JUMPDEST PUSH2 0x2E6 PUSH2 0x152B JUMP JUMPDEST PUSH2 0x2E6 PUSH2 0x1531 JUMP JUMPDEST PUSH2 0x3EA PUSH2 0x1537 JUMP JUMPDEST PUSH2 0x31E PUSH1 0x4 DUP1 CALLDATASIZE SUB PUSH1 0x20 DUP2 LT ISZERO PUSH2 0x680 JUMPI PUSH1 0x0 DUP1 REVERT JUMPDEST POP CALLDATALOAD PUSH2 0x1546 JUMP JUMPDEST PUSH2 0x2E6 PUSH2 0x1594 JUMP JUMPDEST PUSH2 0x31E PUSH1 0x4 DUP1 CALLDATASIZE SUB PUSH1 0x20 DUP2 LT ISZERO PUSH2 0x6A5 JUMPI PUSH1 0x0 DUP1 REVERT JUMPDEST POP CALLDATALOAD PUSH2 0x15A2 JUMP JUMPDEST PUSH2 0x3EA PUSH2 0x1630 JUMP JUMPDEST PUSH2 0x3EA PUSH2 0x163F JUMP JUMPDEST PUSH2 0x2E6 PUSH2 0x164E JUMP JUMPDEST PUSH2 0x3CE PUSH1 0x4 DUP1 CALLDATASIZE SUB PUSH1 0x20 DUP2 LT ISZERO PUSH2 0x6DA JUMPI PUSH1 0x0 DUP1 REVERT JUMPDEST POP CALLDATALOAD PUSH1 0x1 PUSH1 0x1 PUSH1 0xA0 SHL SUB AND PUSH2 0x1654 JUMP JUMPDEST PUSH2 0x3EA PUSH2 0x17DC JUMP JUMPDEST PUSH2 0x2E6 PUSH2 0x17EB JUMP JUMPDEST PUSH2 0x2E6 PUSH1 0x4 DUP1 CALLDATASIZE SUB PUSH1 0x20 DUP2 LT ISZERO PUSH2 0x710 JUMPI PUSH1 0x0 DUP1 REVERT JUMPDEST POP CALLDATALOAD PUSH1 0x1 PUSH1 0x1 PUSH1 0xA0 SHL SUB AND PUSH2 0x17F1 JUMP JUMPDEST PUSH2 0x2E6 PUSH2 0x1874 JUMP JUMPDEST PUSH1 0x1 PUSH1 0x1 PUSH1 0xA0 SHL SUB AND PUSH1 0x0 SWAP1 DUP2 MSTORE PUSH1 0x6 PUSH1 0x20 MSTORE PUSH1 0x40 SWAP1 KECCAK256 PUSH1 0x1 ADD SLOAD SWAP1 JUMP JUMPDEST PUSH1 0x0 SLOAD PUSH1 0x1 PUSH1 0x1 PUSH1 0xA0 SHL SUB AND CALLER EQ PUSH2 0x78F JUMPI PUSH1 0x40 MLOAD PUSH3 0x461BCD PUSH1 0xE5 SHL DUP2 MSTORE PUSH1 0x4 ADD DUP1 DUP1 PUSH1 0x20 ADD DUP3 DUP2 SUB DUP3 MSTORE PUSH1 0x2F DUP2 MSTORE PUSH1 0x20 ADD DUP1 PUSH2 0x2760 PUSH1 0x2F SWAP2 CODECOPY PUSH1 0x40 ADD SWAP2 POP POP PUSH1 0x40 MLOAD DUP1 SWAP2 SUB SWAP1 REVERT JUMPDEST PUSH1 0x1 DUP1 SLOAD PUSH1 0x1 PUSH1 0x1 PUSH1 0xA0 SHL SUB DUP4 DUP2 AND PUSH1 0x1 PUSH1 0x1 PUSH1 0xA0 SHL SUB NOT DUP4 AND OR SWAP3 DUP4 SWAP1 SSTORE PUSH1 0x40 DUP1 MLOAD SWAP3 DUP3 AND DUP1 DUP5 MSTORE SWAP4 SWAP1 SWAP2 AND PUSH1 0x20 DUP4 ADD MSTORE DUP1 MLOAD PUSH32 0xFAED18BE9E8F4D4C05DFBCC80EA2C97A0BE729614D766827778F60890C02CAB SWAP3 DUP2 SWAP1 SUB SWAP1 SWAP2 ADD SWAP1 LOG1 POP POP JUMP JUMPDEST PUSH1 0x8 SLOAD DUP2 JUMP JUMPDEST PUSH1 0x0 SLOAD PUSH1 0x1 PUSH1 0x1 PUSH1 0xA0 SHL SUB AND CALLER EQ PUSH2 0x840 JUMPI PUSH1 0x40 MLOAD PUSH3 0x461BCD PUSH1 0xE5 SHL DUP2 MSTORE PUSH1 0x4 ADD DUP1 DUP1 PUSH1 0x20 ADD DUP3 DUP2 SUB DUP3 MSTORE PUSH1 0x2F DUP2 MSTORE PUSH1 0x20 ADD DUP1 PUSH2 0x2760 PUSH1 0x2F SWAP2 CODECOPY PUSH1 0x40 ADD SWAP2 POP POP PUSH1 0x40 MLOAD DUP1 SWAP2 SUB SWAP1 REVERT JUMPDEST DUP1 ISZERO PUSH2 0x853 JUMPI PUSH2 0x84E PUSH2 0x187A JUMP JUMPDEST PUSH2 0x85B JUMP JUMPDEST PUSH2 0x85B PUSH2 0x1925 JUMP JUMPDEST POP JUMP JUMPDEST PUSH1 0x6 PUSH1 0x20 MSTORE PUSH1 0x0 SWAP1 DUP2 MSTORE PUSH1 0x40 SWAP1 KECCAK256 DUP1 SLOAD PUSH1 0x1 DUP3 ADD SLOAD PUSH1 0x2 SWAP1 SWAP3 ADD SLOAD SWAP1 SWAP2 SWAP1 DUP4 JUMP JUMPDEST PUSH1 0x1 PUSH1 0x1 PUSH1 0xA0 SHL SUB AND PUSH1 0x0 SWAP1 DUP2 MSTORE PUSH1 0x6 PUSH1 0x20 MSTORE PUSH1 0x40 SWAP1 KECCAK256 SLOAD SWAP1 JUMP JUMPDEST PUSH1 0x1 SLOAD PUSH1 0x0 SWAP1 PUSH1 0x1 PUSH1 0xA0 SHL SWAP1 DIV PUSH1 0xFF AND ISZERO PUSH2 0x8EF JUMPI PUSH1 0x40 DUP1 MLOAD PUSH3 0x461BCD PUSH1 0xE5 SHL DUP2 MSTORE PUSH1 0x20 PUSH1 0x4 DUP3 ADD MSTORE PUSH1 0x10 PUSH1 0x24 DUP3 ADD MSTORE PUSH16 0x14185D5CD8589B194E881C185D5CD959 PUSH1 0x82 SHL PUSH1 0x44 DUP3 ADD MSTORE SWAP1 MLOAD SWAP1 DUP2 SWAP1 SUB PUSH1 0x64 ADD SWAP1 REVERT JUMPDEST PUSH1 0x17 SLOAD DUP3 LT ISZERO PUSH2 0x946 JUMPI PUSH1 0x40 DUP1 MLOAD PUSH3 0x461BCD PUSH1 0xE5 SHL DUP2 MSTORE PUSH1 0x20 PUSH1 0x4 DUP3 ADD MSTORE PUSH1 0x19 PUSH1 0x24 DUP3 ADD MSTORE PUSH32 0x5374616B696E6720616D6F756E7420746F6F20736D616C6C2E00000000000000 PUSH1 0x44 DUP3 ADD MSTORE SWAP1 MLOAD SWAP1 DUP2 SWAP1 SUB PUSH1 0x64 ADD SWAP1 REVERT JUMPDEST PUSH1 0xA SLOAD PUSH1 0x40 DUP1 MLOAD PUSH4 0x23B872DD PUSH1 0xE0 SHL DUP2 MSTORE CALLER PUSH1 0x4 DUP3 ADD MSTORE ADDRESS PUSH1 0x24 DUP3 ADD MSTORE PUSH1 0x44 DUP2 ADD DUP6 SWAP1 MSTORE SWAP1 MLOAD PUSH1 0x1 PUSH1 0x1 PUSH1 0xA0 SHL SUB SWAP1 SWAP3 AND SWAP2 PUSH4 0x23B872DD SWAP2 PUSH1 0x64 DUP1 DUP3 ADD SWAP3 PUSH1 0x20 SWAP3 SWAP1 SWAP2 SWAP1 DUP3 SWAP1 SUB ADD DUP2 PUSH1 0x0 DUP8 DUP1 EXTCODESIZE ISZERO DUP1 ISZERO PUSH2 0x9A0 JUMPI PUSH1 0x0 DUP1 REVERT JUMPDEST POP GAS CALL ISZERO DUP1 ISZERO PUSH2 0x9B4 JUMPI RETURNDATASIZE PUSH1 0x0 DUP1 RETURNDATACOPY RETURNDATASIZE PUSH1 0x0 REVERT JUMPDEST POP POP POP POP PUSH1 0x40 MLOAD RETURNDATASIZE PUSH1 0x20 DUP2 LT ISZERO PUSH2 0x9CA JUMPI PUSH1 0x0 DUP1 REVERT JUMPDEST POP POP PUSH1 0xC SLOAD NUMBER SWAP1 DUP2 GT ISZERO PUSH2 0x9DD JUMPI POP PUSH1 0xC SLOAD JUMPDEST PUSH2 0x9E8 DUP2 CALLER DUP6 PUSH2 0x19B0 JUMP JUMPDEST PUSH1 0x40 DUP1 MLOAD DUP5 DUP2 MSTORE TIMESTAMP PUSH1 0x20 DUP3 ADD MSTORE DUP2 MLOAD CALLER SWAP3 PUSH32 0xA7CCE4E8FF59A515DCCBEE3A6382E94DEB1DB79BDB43CF35A51251D41EA395F0 SWAP3 DUP3 SWAP1 SUB ADD SWAP1 LOG2 POP PUSH1 0x1 SWAP3 SWAP2 POP POP JUMP JUMPDEST PUSH1 0xA SLOAD PUSH1 0x1 PUSH1 0x1 PUSH1 0xA0 SHL SUB AND DUP2 JUMP JUMPDEST PUSH1 0x0 PUSH1 0xC SLOAD DUP4 GT ISZERO PUSH2 0xA4B JUMPI PUSH1 0xC SLOAD SWAP3 POP JUMPDEST POP PUSH1 0x1 PUSH1 0x1 PUSH1 0xA0 SHL SUB DUP2 AND PUSH1 0x0 SWAP1 DUP2 MSTORE PUSH1 0x14 PUSH1 0x20 MSTORE PUSH1 0x40 DUP2 KECCAK256 SLOAD SWAP1 DUP1 JUMPDEST PUSH1 0xB SLOAD PUSH1 0x40 DUP1 MLOAD PUSH4 0xFC139451 PUSH1 0xE0 SHL DUP2 MSTORE PUSH1 0x1 PUSH1 0x1 PUSH1 0xA0 SHL SUB DUP8 DUP2 AND PUSH1 0x4 DUP4 ADD MSTORE SWAP2 MLOAD SWAP2 SWAP1 SWAP3 AND SWAP2 PUSH4 0xFC139451 SWAP2 PUSH1 0x24 DUP1 DUP4 ADD SWAP3 PUSH1 0x20 SWAP3 SWAP2 SWAP1 DUP3 SWAP1 SUB ADD DUP2 DUP7 DUP1 EXTCODESIZE ISZERO DUP1 ISZERO PUSH2 0xAB5 JUMPI PUSH1 0x0 DUP1 REVERT JUMPDEST POP GAS STATICCALL ISZERO DUP1 ISZERO PUSH2 0xAC9 JUMPI RETURNDATASIZE PUSH1 0x0 DUP1 RETURNDATACOPY RETURNDATASIZE PUSH1 0x0 REVERT JUMPDEST POP POP POP POP PUSH1 0x40 MLOAD RETURNDATASIZE PUSH1 0x20 DUP2 LT ISZERO PUSH2 0xADF JUMPI PUSH1 0x0 DUP1 REVERT JUMPDEST POP MLOAD DUP2 LT ISZERO PUSH2 0xB7E JUMPI PUSH1 0xB SLOAD PUSH1 0x40 DUP1 MLOAD PUSH4 0x3F73DAB5 PUSH1 0xE1 SHL DUP2 MSTORE PUSH1 0x1 PUSH1 0x1 PUSH1 0xA0 SHL SUB DUP8 DUP2 AND PUSH1 0x4 DUP4 ADD MSTORE PUSH1 0x24 DUP3 ADD DUP6 SWAP1 MSTORE DUP3 MLOAD PUSH1 0x0 SWAP5 SWAP2 SWAP1 SWAP2 AND SWAP3 PUSH4 0x7EE7B56A SWAP3 PUSH1 0x44 DUP1 DUP3 ADD SWAP4 SWAP2 DUP3 SWAP1 SUB ADD DUP2 DUP7 DUP1 EXTCODESIZE ISZERO DUP1 ISZERO PUSH2 0xB3B JUMPI PUSH1 0x0 DUP1 REVERT JUMPDEST POP GAS STATICCALL ISZERO DUP1 ISZERO PUSH2 0xB4F JUMPI RETURNDATASIZE PUSH1 0x0 DUP1 RETURNDATACOPY RETURNDATASIZE PUSH1 0x0 REVERT JUMPDEST POP POP POP POP PUSH1 0x40 MLOAD RETURNDATASIZE PUSH1 0x40 DUP2 LT ISZERO PUSH2 0xB65 JUMPI PUSH1 0x0 DUP1 REVERT JUMPDEST POP MLOAD SWAP1 POP PUSH2 0xB73 DUP4 DUP3 PUSH2 0x1AB7 JUMP JUMPDEST SWAP3 POP POP PUSH1 0x1 ADD PUSH2 0xA68 JUMP JUMPDEST POP DUP1 ISZERO PUSH2 0xC03 JUMPI PUSH1 0xD SLOAD PUSH1 0x0 SWAP1 PUSH2 0xB9D SWAP1 PUSH1 0x1 PUSH1 0x1 PUSH1 0xA0 SHL SUB AND PUSH2 0x728 JUMP JUMPDEST SWAP1 POP PUSH1 0x0 PUSH2 0xBF2 DUP3 PUSH2 0xBEC DUP6 PUSH2 0xBE6 PUSH1 0xF SLOAD PUSH1 0x40 MLOAD DUP1 PUSH1 0x60 ADD PUSH1 0x40 MSTORE DUP1 PUSH1 0x24 DUP2 MSTORE PUSH1 0x20 ADD PUSH2 0x26CE PUSH1 0x24 SWAP2 CODECOPY PUSH1 0xD SLOAD PUSH2 0xBDF SWAP1 DUP15 SWAP1 PUSH1 0x1 PUSH1 0x1 PUSH1 0xA0 SHL SUB AND PUSH2 0x1B11 JUMP JUMPDEST SWAP2 SWAP1 PUSH2 0x1C5A JUMP JUMPDEST SWAP1 PUSH2 0x1CF1 JUMP JUMPDEST SWAP1 PUSH2 0x1D4A JUMP JUMPDEST SWAP1 POP PUSH2 0xBFE DUP5 DUP3 PUSH2 0x1AB7 JUMP JUMPDEST SWAP4 POP POP POP JUMPDEST PUSH1 0x0 PUSH2 0xC0F DUP6 DUP6 PUSH2 0x1B11 JUMP JUMPDEST SWAP1 POP PUSH2 0xC1B DUP4 DUP3 PUSH2 0x1AB7 JUMP JUMPDEST SWAP6 SWAP5 POP POP POP POP POP JUMP JUMPDEST PUSH1 0x1 SLOAD PUSH1 0x1 PUSH1 0x1 PUSH1 0xA0 SHL SUB AND CALLER EQ PUSH2 0xC83 JUMPI PUSH1 0x40 DUP1 MLOAD PUSH3 0x461BCD PUSH1 0xE5 SHL DUP2 MSTORE PUSH1 0x20 PUSH1 0x4 DUP3 ADD MSTORE PUSH1 0x1F PUSH1 0x24 DUP3 ADD MSTORE PUSH32 0x4F6E6C792063616E6469646174652063616E206265636F6D652061646D696E00 PUSH1 0x44 DUP3 ADD MSTORE SWAP1 MLOAD SWAP1 DUP2 SWAP1 SUB PUSH1 0x64 ADD SWAP1 REVERT JUMPDEST PUSH1 0x0 DUP1 SLOAD PUSH1 0x1 SLOAD PUSH1 0x1 PUSH1 0x1 PUSH1 0xA0 SHL SUB NOT DUP3 AND PUSH1 0x1 PUSH1 0x1 PUSH1 0xA0 SHL SUB SWAP2 DUP3 AND OR SWAP3 DUP4 SWAP1 SSTORE PUSH1 0x40 DUP1 MLOAD SWAP3 DUP3 AND DUP1 DUP5 MSTORE SWAP4 SWAP1 SWAP2 AND PUSH1 0x20 DUP4 ADD MSTORE DUP1 MLOAD PUSH32 0x7E644D79422F17C01E4894B5F4F588D331EBFA28653D42AE832DC59E38C9798F SWAP3 DUP2 SWAP1 SUB SWAP1 SWAP2 ADD SWAP1 LOG1 POP JUMP JUMPDEST PUSH1 0x17 SLOAD DUP2 JUMP JUMPDEST PUSH1 0x13 SLOAD PUSH1 0x1 PUSH1 0x1 PUSH1 0xA0 SHL SUB AND DUP2 JUMP JUMPDEST PUSH1 0x0 SLOAD PUSH1 0x1 PUSH1 0x1 PUSH1 0xA0 SHL SUB AND CALLER EQ PUSH2 0xD45 JUMPI PUSH1 0x40 MLOAD PUSH3 0x461BCD PUSH1 0xE5 SHL DUP2 MSTORE PUSH1 0x4 ADD DUP1 DUP1 PUSH1 0x20 ADD DUP3 DUP2 SUB DUP3 MSTORE PUSH1 0x2F DUP2 MSTORE PUSH1 0x20 ADD DUP1 PUSH2 0x2760 PUSH1 0x2F SWAP2 CODECOPY PUSH1 0x40 ADD SWAP2 POP POP PUSH1 0x40 MLOAD DUP1 SWAP2 SUB SWAP1 REVERT JUMPDEST PUSH1 0xA DUP1 SLOAD PUSH1 0x1 PUSH1 0x1 PUSH1 0xA0 SHL SUB NOT AND PUSH1 0x1 PUSH1 0x1 PUSH1 0xA0 SHL SUB SWAP3 SWAP1 SWAP3 AND SWAP2 SWAP1 SWAP2 OR SWAP1 SSTORE JUMP JUMPDEST PUSH1 0x14 PUSH1 0x20 MSTORE PUSH1 0x0 SWAP1 DUP2 MSTORE PUSH1 0x40 SWAP1 KECCAK256 SLOAD DUP2 JUMP JUMPDEST PUSH1 0x7 SLOAD DUP2 JUMP JUMPDEST PUSH1 0x1 SLOAD PUSH1 0x0 SWAP1 PUSH1 0x1 PUSH1 0xA0 SHL SWAP1 DIV PUSH1 0xFF AND ISZERO PUSH2 0xDD4 JUMPI PUSH1 0x40 DUP1 MLOAD PUSH3 0x461BCD PUSH1 0xE5 SHL DUP2 MSTORE PUSH1 0x20 PUSH1 0x4 DUP3 ADD MSTORE PUSH1 0x10 PUSH1 0x24 DUP3 ADD MSTORE PUSH16 0x14185D5CD8589B194E881C185D5CD959 PUSH1 0x82 SHL PUSH1 0x44 DUP3 ADD MSTORE SWAP1 MLOAD SWAP1 DUP2 SWAP1 SUB PUSH1 0x64 ADD SWAP1 REVERT JUMPDEST PUSH1 0x10 SLOAD TIMESTAMP GT PUSH2 0xE2A JUMPI PUSH1 0x40 DUP1 MLOAD PUSH3 0x461BCD PUSH1 0xE5 SHL DUP2 MSTORE PUSH1 0x20 PUSH1 0x4 DUP3 ADD MSTORE PUSH1 0x18 PUSH1 0x24 DUP3 ADD MSTORE PUSH32 0x4E6F742074696D6520746F20636C61696D207265776172640000000000000000 PUSH1 0x44 DUP3 ADD MSTORE SWAP1 MLOAD SWAP1 DUP2 SWAP1 SUB PUSH1 0x64 ADD SWAP1 REVERT JUMPDEST PUSH1 0xB SLOAD PUSH1 0x40 DUP1 MLOAD PUSH4 0x62E3EFDD PUSH1 0xE0 SHL DUP2 MSTORE CALLER PUSH1 0x4 DUP3 ADD MSTORE SWAP1 MLOAD PUSH1 0x0 SWAP3 PUSH1 0x1 PUSH1 0x1 PUSH1 0xA0 SHL SUB AND SWAP2 PUSH4 0x62E3EFDD SWAP2 PUSH1 0x24 DUP1 DUP4 ADD SWAP3 PUSH1 0x20 SWAP3 SWAP2 SWAP1 DUP3 SWAP1 SUB ADD DUP2 DUP7 DUP1 EXTCODESIZE ISZERO DUP1 ISZERO PUSH2 0xE75 JUMPI PUSH1 0x0 DUP1 REVERT JUMPDEST POP GAS STATICCALL ISZERO DUP1 ISZERO PUSH2 0xE89 JUMPI RETURNDATASIZE PUSH1 0x0 DUP1 RETURNDATACOPY RETURNDATASIZE PUSH1 0x0 REVERT JUMPDEST POP POP POP POP PUSH1 0x40 MLOAD RETURNDATASIZE PUSH1 0x20 DUP2 LT ISZERO PUSH2 0xE9F JUMPI PUSH1 0x0 DUP1 REVERT JUMPDEST POP MLOAD SWAP1 POP PUSH1 0x0 PUSH2 0xEAE CALLER PUSH2 0x728 JUMP JUMPDEST SWAP1 POP PUSH2 0xEC3 CALLER PUSH2 0xEBE DUP5 DUP5 PUSH2 0x1AB7 JUMP JUMPDEST PUSH2 0x1D8C JUMP JUMPDEST PUSH1 0x0 PUSH2 0xED1 PUSH1 0xC SLOAD CALLER PUSH2 0xA39 JUMP JUMPDEST SWAP1 POP PUSH2 0xEDC CALLER PUSH2 0x21C5 JUMP JUMPDEST CALLER PUSH1 0x0 DUP2 DUP2 MSTORE PUSH1 0x14 PUSH1 0x20 SWAP1 DUP2 MSTORE PUSH1 0x40 DUP1 DUP4 KECCAK256 DUP4 SWAP1 SSTORE PUSH1 0xA SLOAD DUP2 MLOAD PUSH4 0xA9059CBB PUSH1 0xE0 SHL DUP2 MSTORE PUSH1 0x4 DUP2 ADD SWAP6 SWAP1 SWAP6 MSTORE PUSH1 0x24 DUP6 ADD DUP7 SWAP1 MSTORE SWAP1 MLOAD PUSH1 0x1 PUSH1 0x1 PUSH1 0xA0 SHL SUB SWAP1 SWAP2 AND SWAP4 PUSH4 0xA9059CBB SWAP4 PUSH1 0x44 DUP1 DUP4 ADD SWAP5 SWAP4 SWAP3 DUP4 SWAP1 SUB ADD SWAP1 DUP3 SWAP1 DUP8 DUP1 EXTCODESIZE ISZERO DUP1 ISZERO PUSH2 0xF41 JUMPI PUSH1 0x0 DUP1 REVERT JUMPDEST POP GAS CALL ISZERO DUP1 ISZERO PUSH2 0xF55 JUMPI RETURNDATASIZE PUSH1 0x0 DUP1 RETURNDATACOPY RETURNDATASIZE PUSH1 0x0 REVERT JUMPDEST POP POP POP POP PUSH1 0x40 MLOAD RETURNDATASIZE PUSH1 0x20 DUP2 LT ISZERO PUSH2 0xF6B JUMPI PUSH1 0x0 DUP1 REVERT JUMPDEST POP CALLER SWAP1 POP PUSH32 0x34FCBAC0073D7C3D388E51312FAF357774904998EEB8FCA628B9E6F65EE1CBF7 DUP3 PUSH2 0xF9B DUP7 DUP7 PUSH2 0x1AB7 JUMP JUMPDEST PUSH1 0x40 DUP1 MLOAD SWAP3 DUP4 MSTORE PUSH1 0x20 DUP4 ADD SWAP2 SWAP1 SWAP2 MSTORE DUP1 MLOAD SWAP2 DUP3 SWAP1 SUB ADD SWAP1 LOG2 PUSH1 0x1 SWAP4 POP POP POP POP SWAP1 JUMP JUMPDEST PUSH1 0x9 SLOAD DUP2 JUMP JUMPDEST PUSH1 0x1 SLOAD PUSH1 0x1 PUSH1 0xA0 SHL SWAP1 DIV PUSH1 0xFF AND SWAP1 JUMP JUMPDEST PUSH1 0x3 SLOAD PUSH1 0x4 SLOAD PUSH1 0x5 SLOAD SWAP1 SWAP2 SWAP3 JUMP JUMPDEST PUSH1 0x0 SLOAD PUSH1 0x1 PUSH1 0x1 PUSH1 0xA0 SHL SUB AND CALLER EQ PUSH2 0x102A JUMPI PUSH1 0x40 MLOAD PUSH3 0x461BCD PUSH1 0xE5 SHL DUP2 MSTORE PUSH1 0x4 ADD DUP1 DUP1 PUSH1 0x20 ADD DUP3 DUP2 SUB DUP3 MSTORE PUSH1 0x2F DUP2 MSTORE PUSH1 0x20 ADD DUP1 PUSH2 0x2760 PUSH1 0x2F SWAP2 CODECOPY PUSH1 0x40 ADD SWAP2 POP POP PUSH1 0x40 MLOAD DUP1 SWAP2 SUB SWAP1 REVERT JUMPDEST PUSH1 0x17 SSTORE JUMP JUMPDEST PUSH1 0xB SLOAD PUSH1 0x40 DUP1 MLOAD PUSH4 0x62E3EFDD PUSH1 0xE0 SHL DUP2 MSTORE PUSH1 0x1 PUSH1 0x1 PUSH1 0xA0 SHL SUB DUP5 DUP2 AND PUSH1 0x4 DUP4 ADD MSTORE SWAP2 MLOAD PUSH1 0x0 SWAP4 DUP5 SWAP4 PUSH2 0x10BF SWAP4 SWAP2 AND SWAP2 PUSH4 0x62E3EFDD SWAP2 PUSH1 0x24 DUP1 DUP3 ADD SWAP3 PUSH1 0x20 SWAP3 SWAP1 SWAP2 SWAP1 DUP3 SWAP1 SUB ADD DUP2 DUP7 DUP1 EXTCODESIZE ISZERO DUP1 ISZERO PUSH2 0x1084 JUMPI PUSH1 0x0 DUP1 REVERT JUMPDEST POP GAS STATICCALL ISZERO DUP1 ISZERO PUSH2 0x1098 JUMPI RETURNDATASIZE PUSH1 0x0 DUP1 RETURNDATACOPY RETURNDATASIZE PUSH1 0x0 REVERT JUMPDEST POP POP POP POP PUSH1 0x40 MLOAD RETURNDATASIZE PUSH1 0x20 DUP2 LT ISZERO PUSH2 0x10AE JUMPI PUSH1 0x0 DUP1 REVERT JUMPDEST POP MLOAD PUSH2 0x10B9 DUP6 PUSH2 0x728 JUMP JUMPDEST SWAP1 PUSH2 0x1AB7 JUMP JUMPDEST SWAP4 SWAP3 POP POP POP JUMP JUMPDEST PUSH1 0x1 PUSH1 0x1 PUSH1 0xA0 SHL SUB AND PUSH1 0x0 SWAP1 DUP2 MSTORE PUSH1 0x6 PUSH1 0x20 MSTORE PUSH1 0x40 SWAP1 KECCAK256 DUP1 SLOAD PUSH1 0x1 DUP3 ADD SLOAD PUSH1 0x2 SWAP1 SWAP3 ADD SLOAD SWAP1 SWAP3 JUMP JUMPDEST PUSH1 0x13 SLOAD PUSH1 0x1 PUSH1 0xA0 SHL SWAP1 DIV PUSH1 0xFF AND DUP2 JUMP JUMPDEST PUSH1 0x0 SLOAD PUSH1 0x1 PUSH1 0x1 PUSH1 0xA0 SHL SUB AND CALLER EQ PUSH2 0x1147 JUMPI PUSH1 0x40 MLOAD PUSH3 0x461BCD PUSH1 0xE5 SHL DUP2 MSTORE PUSH1 0x4 ADD DUP1 DUP1 PUSH1 0x20 ADD DUP3 DUP2 SUB DUP3 MSTORE PUSH1 0x2F DUP2 MSTORE PUSH1 0x20 ADD DUP1 PUSH2 0x2760 PUSH1 0x2F SWAP2 CODECOPY PUSH1 0x40 ADD SWAP2 POP POP PUSH1 0x40 MLOAD DUP1 SWAP2 SUB SWAP1 REVERT JUMPDEST TIMESTAMP PUSH3 0x2A300 ADD DUP2 LT ISZERO PUSH2 0x118B JUMPI PUSH1 0x40 MLOAD PUSH3 0x461BCD PUSH1 0xE5 SHL DUP2 MSTORE PUSH1 0x4 ADD DUP1 DUP1 PUSH1 0x20 ADD DUP3 DUP2 SUB DUP3 MSTORE PUSH1 0x29 DUP2 MSTORE PUSH1 0x20 ADD DUP1 PUSH2 0x2737 PUSH1 0x29 SWAP2 CODECOPY PUSH1 0x40 ADD SWAP2 POP POP PUSH1 0x40 MLOAD DUP1 SWAP2 SUB SWAP1 REVERT JUMPDEST PUSH1 0x11 DUP1 SLOAD PUSH1 0x1 PUSH1 0x1 PUSH1 0xA0 SHL SUB NOT AND PUSH1 0x1 PUSH1 0x1 PUSH1 0xA0 SHL SUB DUP5 DUP2 AND SWAP2 SWAP1 SWAP2 OR SWAP2 DUP3 SWAP1 SSTORE PUSH1 0x12 DUP4 SWAP1 SSTORE PUSH1 0x40 DUP1 MLOAD SWAP3 SWAP1 SWAP2 AND DUP3 MSTORE PUSH1 0x20 DUP3 ADD DUP4 SWAP1 MSTORE DUP1 MLOAD PUSH32 0x19D2731B142D93A696D42170EA6DC53AA87024A1F79E9628658547A2D6FAD2E6 SWAP3 DUP2 SWAP1 SUB SWAP1 SWAP2 ADD SWAP1 LOG1 POP POP JUMP JUMPDEST PUSH1 0x0 SLOAD PUSH1 0x1 PUSH1 0x1 PUSH1 0xA0 SHL SUB AND CALLER EQ PUSH2 0x123B JUMPI PUSH1 0x40 MLOAD PUSH3 0x461BCD PUSH1 0xE5 SHL DUP2 MSTORE PUSH1 0x4 ADD DUP1 DUP1 PUSH1 0x20 ADD DUP3 DUP2 SUB DUP3 MSTORE PUSH1 0x2F DUP2 MSTORE PUSH1 0x20 ADD DUP1 PUSH2 0x2760 PUSH1 0x2F SWAP2 CODECOPY PUSH1 0x40 ADD SWAP2 POP POP PUSH1 0x40 MLOAD DUP1 SWAP2 SUB SWAP1 REVERT JUMPDEST PUSH1 0x16 SSTORE JUMP JUMPDEST PUSH1 0x1 SLOAD PUSH1 0x1 PUSH1 0x1 PUSH1 0xA0 SHL SUB AND DUP2 JUMP JUMPDEST PUSH1 0x13 SLOAD PUSH1 0x0 SWAP1 DUP2 SWAP1 PUSH1 0x1 PUSH1 0xA0 SHL SWAP1 DIV PUSH1 0xFF AND PUSH2 0x126D JUMPI POP PUSH1 0x1 PUSH2 0x128B JUMP JUMPDEST POP PUSH1 0x1 PUSH1 0x1 PUSH1 0xA0 SHL SUB DUP3 AND PUSH1 0x0 SWAP1 DUP2 MSTORE PUSH1 0x15 PUSH1 0x20 MSTORE PUSH1 0x40 SWAP1 KECCAK256 SLOAD PUSH1 0xFF AND JUMPDEST SWAP3 SWAP2 POP POP JUMP JUMPDEST PUSH1 0x15 PUSH1 0x20 MSTORE PUSH1 0x0 SWAP1 DUP2 MSTORE PUSH1 0x40 SWAP1 KECCAK256 SLOAD PUSH1 0xFF AND DUP2 JUMP JUMPDEST PUSH1 0xF SLOAD DUP2 JUMP JUMPDEST PUSH1 0x0 SLOAD PUSH1 0x1 PUSH1 0x1 PUSH1 0xA0 SHL SUB AND CALLER EQ PUSH2 0x12F5 JUMPI PUSH1 0x40 MLOAD PUSH3 0x461BCD PUSH1 0xE5 SHL DUP2 MSTORE PUSH1 0x4 ADD DUP1 DUP1 PUSH1 0x20 ADD DUP3 DUP2 SUB DUP3 MSTORE PUSH1 0x2F DUP2 MSTORE PUSH1 0x20 ADD DUP1 PUSH2 0x2760 PUSH1 0x2F SWAP2 CODECOPY PUSH1 0x40 ADD SWAP2 POP POP PUSH1 0x40 MLOAD DUP1 SWAP2 SUB SWAP1 REVERT JUMPDEST PUSH1 0x0 PUSH1 0x12 SLOAD GT PUSH2 0x1345 JUMPI PUSH1 0x40 DUP1 MLOAD PUSH3 0x461BCD PUSH1 0xE5 SHL DUP2 MSTORE PUSH1 0x20 PUSH1 0x4 DUP3 ADD MSTORE PUSH1 0x16 PUSH1 0x24 DUP3 ADD MSTORE PUSH22 0x1B551C985B9CD31BD8DAD51A5B59481B9BDD081CD95D PUSH1 0x52 SHL PUSH1 0x44 DUP3 ADD MSTORE SWAP1 MLOAD SWAP1 DUP2 SWAP1 SUB PUSH1 0x64 ADD SWAP1 REVERT JUMPDEST PUSH1 0x12 SLOAD TIMESTAMP GT PUSH2 0x139B JUMPI PUSH1 0x40 DUP1 MLOAD PUSH3 0x461BCD PUSH1 0xE5 SHL DUP2 MSTORE PUSH1 0x20 PUSH1 0x4 DUP3 ADD MSTORE PUSH1 0x17 PUSH1 0x24 DUP3 ADD MSTORE PUSH32 0x506C73207761697420746F20756E6C6F636B2074696D65000000000000000000 PUSH1 0x44 DUP3 ADD MSTORE SWAP1 MLOAD SWAP1 DUP2 SWAP1 SUB PUSH1 0x64 ADD SWAP1 REVERT JUMPDEST PUSH1 0xA SLOAD PUSH1 0x11 SLOAD PUSH1 0x40 DUP1 MLOAD PUSH4 0xA9059CBB PUSH1 0xE0 SHL DUP2 MSTORE PUSH1 0x1 PUSH1 0x1 PUSH1 0xA0 SHL SUB SWAP3 DUP4 AND PUSH1 0x4 DUP3 ADD MSTORE PUSH1 0x24 DUP2 ADD DUP6 SWAP1 MSTORE SWAP1 MLOAD SWAP2 SWAP1 SWAP3 AND SWAP2 PUSH4 0xA9059CBB SWAP2 PUSH1 0x44 DUP1 DUP4 ADD SWAP3 PUSH1 0x20 SWAP3 SWAP2 SWAP1 DUP3 SWAP1 SUB ADD DUP2 PUSH1 0x0 DUP8 DUP1 EXTCODESIZE ISZERO DUP1 ISZERO PUSH2 0x13F4 JUMPI PUSH1 0x0 DUP1 REVERT JUMPDEST POP GAS CALL ISZERO DUP1 ISZERO PUSH2 0x1408 JUMPI RETURNDATASIZE PUSH1 0x0 DUP1 RETURNDATACOPY RETURNDATASIZE PUSH1 0x0 REVERT JUMPDEST POP POP POP POP PUSH1 0x40 MLOAD RETURNDATASIZE PUSH1 0x20 DUP2 LT ISZERO PUSH2 0x141E JUMPI PUSH1 0x0 DUP1 REVERT JUMPDEST POP POP POP JUMP JUMPDEST PUSH1 0x0 PUSH2 0x10BF DUP4 DUP4 PUSH2 0x1B11 JUMP JUMPDEST PUSH1 0x2 SLOAD DUP2 JUMP JUMPDEST PUSH1 0xE SLOAD DUP2 JUMP JUMPDEST PUSH1 0x3 SLOAD PUSH1 0x4 SLOAD PUSH1 0x5 SLOAD DUP4 JUMP JUMPDEST PUSH1 0x1 SLOAD PUSH1 0x0 SWAP1 PUSH1 0x1 PUSH1 0xA0 SHL SWAP1 DIV PUSH1 0xFF AND ISZERO PUSH2 0x149C JUMPI PUSH1 0x40 DUP1 MLOAD PUSH3 0x461BCD PUSH1 0xE5 SHL DUP2 MSTORE PUSH1 0x20 PUSH1 0x4 DUP3 ADD MSTORE PUSH1 0x10 PUSH1 0x24 DUP3 ADD MSTORE PUSH16 0x14185D5CD8589B194E881C185D5CD959 PUSH1 0x82 SHL PUSH1 0x44 DUP3 ADD MSTORE SWAP1 MLOAD SWAP1 DUP2 SWAP1 SUB PUSH1 0x64 ADD SWAP1 REVERT JUMPDEST PUSH1 0x0 DUP3 GT PUSH2 0x14E3 JUMPI PUSH1 0x40 DUP1 MLOAD PUSH3 0x461BCD PUSH1 0xE5 SHL DUP2 MSTORE PUSH1 0x20 PUSH1 0x4 DUP3 ADD MSTORE PUSH1 0xF PUSH1 0x24 DUP3 ADD MSTORE PUSH15 0x24B73B30B634B21030B6B7BAB73A17 PUSH1 0x89 SHL PUSH1 0x44 DUP3 ADD MSTORE SWAP1 MLOAD SWAP1 DUP2 SWAP1 SUB PUSH1 0x64 ADD SWAP1 REVERT JUMPDEST PUSH2 0x14ED CALLER DUP4 PUSH2 0x1D8C JUMP JUMPDEST PUSH1 0x40 DUP1 MLOAD DUP4 DUP2 MSTORE SWAP1 MLOAD CALLER SWAP2 PUSH32 0xCAC6A9D108B4882699E5AFC7402D86F41E4BAE2981B76023107009D1FC2B11A3 SWAP2 SWAP1 DUP2 SWAP1 SUB PUSH1 0x20 ADD SWAP1 LOG2 POP PUSH1 0x1 SWAP2 SWAP1 POP JUMP JUMPDEST PUSH1 0x10 SLOAD DUP2 JUMP JUMPDEST PUSH1 0x3 SLOAD SWAP1 JUMP JUMPDEST PUSH1 0xB SLOAD PUSH1 0x1 PUSH1 0x1 PUSH1 0xA0 SHL SUB AND DUP2 JUMP JUMPDEST PUSH1 0x0 SLOAD PUSH1 0x1 PUSH1 0x1 PUSH1 0xA0 SHL SUB AND CALLER EQ PUSH2 0x158F JUMPI PUSH1 0x40 MLOAD PUSH3 0x461BCD PUSH1 0xE5 SHL DUP2 MSTORE PUSH1 0x4 ADD DUP1 DUP1 PUSH1 0x20 ADD DUP3 DUP2 SUB DUP3 MSTORE PUSH1 0x2F DUP2 MSTORE PUSH1 0x20 ADD DUP1 PUSH2 0x2760 PUSH1 0x2F SWAP2 CODECOPY PUSH1 0x40 ADD SWAP2 POP POP PUSH1 0x40 MLOAD DUP1 SWAP2 SUB SWAP1 REVERT JUMPDEST PUSH1 0x10 SSTORE JUMP JUMPDEST PUSH10 0x152D02C7E14AF6800000 DUP2 JUMP JUMPDEST PUSH1 0x0 SLOAD PUSH1 0x1 PUSH1 0x1 PUSH1 0xA0 SHL SUB AND CALLER EQ PUSH2 0x15EB JUMPI PUSH1 0x40 MLOAD PUSH3 0x461BCD PUSH1 0xE5 SHL DUP2 MSTORE PUSH1 0x4 ADD DUP1 DUP1 PUSH1 0x20 ADD DUP3 DUP2 SUB DUP3 MSTORE PUSH1 0x2F DUP2 MSTORE PUSH1 0x20 ADD DUP1 PUSH2 0x2760 PUSH1 0x2F SWAP2 CODECOPY PUSH1 0x40 ADD SWAP2 POP POP PUSH1 0x40 MLOAD DUP1 SWAP2 SUB SWAP1 REVERT JUMPDEST PUSH1 0xC SLOAD DUP2 GT PUSH2 0x162B JUMPI PUSH1 0x40 MLOAD PUSH3 0x461BCD PUSH1 0xE5 SHL DUP2 MSTORE PUSH1 0x4 ADD DUP1 DUP1 PUSH1 0x20 ADD DUP3 DUP2 SUB DUP3 MSTORE PUSH1 0x24 DUP2 MSTORE PUSH1 0x20 ADD DUP1 PUSH2 0x26F2 PUSH1 0x24 SWAP2 CODECOPY PUSH1 0x40 ADD SWAP2 POP POP PUSH1 0x40 MLOAD DUP1 SWAP2 SUB SWAP1 REVERT JUMPDEST PUSH1 0xC SSTORE JUMP JUMPDEST PUSH1 0xD SLOAD PUSH1 0x1 PUSH1 0x1 PUSH1 0xA0 SHL SUB AND DUP2 JUMP JUMPDEST PUSH1 0x11 SLOAD PUSH1 0x1 PUSH1 0x1 PUSH1 0xA0 SHL SUB AND DUP2 JUMP JUMPDEST PUSH1 0xC SLOAD DUP2 JUMP JUMPDEST PUSH1 0x13 SLOAD PUSH1 0x0 SWAP1 PUSH1 0x1 PUSH1 0xA0 SHL SWAP1 DIV PUSH1 0xFF AND ISZERO ISZERO PUSH1 0x1 EQ ISZERO PUSH2 0x16B3 JUMPI PUSH1 0x40 DUP1 MLOAD PUSH3 0x461BCD PUSH1 0xE5 SHL DUP2 MSTORE PUSH1 0x20 PUSH1 0x4 DUP3 ADD MSTORE PUSH1 0x15 PUSH1 0x24 DUP3 ADD MSTORE PUSH21 0x39BCB7319034B9903737BA103932B8BAB4B932B217 PUSH1 0x59 SHL PUSH1 0x44 DUP3 ADD MSTORE SWAP1 MLOAD SWAP1 DUP2 SWAP1 SUB PUSH1 0x64 ADD SWAP1 REVERT JUMPDEST PUSH1 0x1 PUSH1 0x1 PUSH1 0xA0 SHL SUB DUP3 AND PUSH1 0x0 SWAP1 DUP2 MSTORE PUSH1 0x15 PUSH1 0x20 MSTORE PUSH1 0x40 SWAP1 KECCAK256 SLOAD PUSH1 0xFF AND ISZERO ISZERO PUSH1 0x1 EQ ISZERO PUSH2 0x1716 JUMPI PUSH1 0x40 DUP1 MLOAD PUSH3 0x461BCD PUSH1 0xE5 SHL DUP2 MSTORE PUSH1 0x20 PUSH1 0x4 DUP3 ADD MSTORE PUSH1 0xD PUSH1 0x24 DUP3 ADD MSTORE PUSH13 0x20B63932B0B23C9039BCB73197 PUSH1 0x99 SHL PUSH1 0x44 DUP3 ADD MSTORE SWAP1 MLOAD SWAP1 DUP2 SWAP1 SUB PUSH1 0x64 ADD SWAP1 REVERT JUMPDEST PUSH1 0x13 SLOAD PUSH1 0x40 DUP1 MLOAD PUSH4 0x6386C1C7 PUSH1 0xE0 SHL DUP2 MSTORE PUSH1 0x1 PUSH1 0x1 PUSH1 0xA0 SHL SUB DUP6 DUP2 AND PUSH1 0x4 DUP4 ADD MSTORE SWAP2 MLOAD SWAP2 SWAP1 SWAP3 AND SWAP2 PUSH4 0x6386C1C7 SWAP2 PUSH1 0x24 DUP1 DUP4 ADD SWAP3 PUSH1 0x60 SWAP3 SWAP2 SWAP1 DUP3 SWAP1 SUB ADD DUP2 DUP7 DUP1 EXTCODESIZE ISZERO DUP1 ISZERO PUSH2 0x1763 JUMPI PUSH1 0x0 DUP1 REVERT JUMPDEST POP GAS STATICCALL ISZERO DUP1 ISZERO PUSH2 0x1777 JUMPI RETURNDATASIZE PUSH1 0x0 DUP1 RETURNDATACOPY RETURNDATASIZE PUSH1 0x0 REVERT JUMPDEST POP POP POP POP PUSH1 0x40 MLOAD RETURNDATASIZE PUSH1 0x60 DUP2 LT ISZERO PUSH2 0x178D JUMPI PUSH1 0x0 DUP1 REVERT JUMPDEST POP DUP1 MLOAD PUSH1 0x20 DUP1 DUP4 ADD MLOAD PUSH1 0x40 SWAP4 DUP5 ADD MLOAD PUSH1 0x1 PUSH1 0x1 PUSH1 0xA0 SHL SUB SWAP7 SWAP1 SWAP7 AND PUSH1 0x0 SWAP1 DUP2 MSTORE PUSH1 0x6 DUP4 MSTORE DUP5 DUP2 KECCAK256 PUSH1 0x2 DUP2 ADD SWAP8 SWAP1 SWAP8 SSTORE PUSH1 0x1 DUP1 DUP9 ADD SWAP3 SWAP1 SWAP3 SSTORE SWAP3 SWAP1 SWAP6 SSTORE PUSH1 0x15 SWAP1 MSTORE KECCAK256 DUP1 SLOAD PUSH1 0xFF NOT AND DUP4 OR SWAP1 SSTORE POP SWAP1 JUMP JUMPDEST PUSH1 0x0 SLOAD PUSH1 0x1 PUSH1 0x1 PUSH1 0xA0 SHL SUB AND DUP2 JUMP JUMPDEST PUSH1 0x16 SLOAD DUP2 JUMP JUMPDEST PUSH1 0xB SLOAD PUSH1 0x40 DUP1 MLOAD PUSH4 0xFC139451 PUSH1 0xE0 SHL DUP2 MSTORE PUSH1 0x1 PUSH1 0x1 PUSH1 0xA0 SHL SUB DUP5 DUP2 AND PUSH1 0x4 DUP4 ADD MSTORE SWAP2 MLOAD PUSH1 0x0 SWAP4 SWAP3 SWAP1 SWAP3 AND SWAP2 PUSH4 0xFC139451 SWAP2 PUSH1 0x24 DUP1 DUP3 ADD SWAP3 PUSH1 0x20 SWAP3 SWAP1 SWAP2 SWAP1 DUP3 SWAP1 SUB ADD DUP2 DUP7 DUP1 EXTCODESIZE ISZERO DUP1 ISZERO PUSH2 0x1842 JUMPI PUSH1 0x0 DUP1 REVERT JUMPDEST POP GAS STATICCALL ISZERO DUP1 ISZERO PUSH2 0x1856 JUMPI RETURNDATASIZE PUSH1 0x0 DUP1 RETURNDATACOPY RETURNDATASIZE PUSH1 0x0 REVERT JUMPDEST POP POP POP POP PUSH1 0x40 MLOAD RETURNDATASIZE PUSH1 0x20 DUP2 LT ISZERO PUSH2 0x186C JUMPI PUSH1 0x0 DUP1 REVERT JUMPDEST POP MLOAD SWAP3 SWAP2 POP POP JUMP JUMPDEST PUSH1 0x12 SLOAD DUP2 JUMP JUMPDEST PUSH1 0x1 SLOAD PUSH1 0x1 PUSH1 0xA0 SHL SWAP1 DIV PUSH1 0xFF AND ISZERO PUSH2 0x18CC JUMPI PUSH1 0x40 DUP1 MLOAD PUSH3 0x461BCD PUSH1 0xE5 SHL DUP2 MSTORE PUSH1 0x20 PUSH1 0x4 DUP3 ADD MSTORE PUSH1 0x10 PUSH1 0x24 DUP3 ADD MSTORE PUSH16 0x14185D5CD8589B194E881C185D5CD959 PUSH1 0x82 SHL PUSH1 0x44 DUP3 ADD MSTORE SWAP1 MLOAD SWAP1 DUP2 SWAP1 SUB PUSH1 0x64 ADD SWAP1 REVERT JUMPDEST PUSH1 0x1 DUP1 SLOAD PUSH1 0xFF PUSH1 0xA0 SHL NOT AND PUSH1 0x1 PUSH1 0xA0 SHL OR SWAP1 SSTORE PUSH32 0x62E78CEA01BEE320CD4E420270B5EA74000D11B0C9F74754EBDBFC544B05A258 PUSH2 0x1908 PUSH2 0x21ED JUMP JUMPDEST PUSH1 0x40 DUP1 MLOAD PUSH1 0x1 PUSH1 0x1 PUSH1 0xA0 SHL SUB SWAP1 SWAP3 AND DUP3 MSTORE MLOAD SWAP1 DUP2 SWAP1 SUB PUSH1 0x20 ADD SWAP1 LOG1 JUMP JUMPDEST PUSH1 0x1 SLOAD PUSH1 0x1 PUSH1 0xA0 SHL SWAP1 DIV PUSH1 0xFF AND PUSH2 0x197A JUMPI PUSH1 0x40 DUP1 MLOAD PUSH3 0x461BCD PUSH1 0xE5 SHL DUP2 MSTORE PUSH1 0x20 PUSH1 0x4 DUP3 ADD MSTORE PUSH1 0x14 PUSH1 0x24 DUP3 ADD MSTORE PUSH20 0x14185D5CD8589B194E881B9BDD081C185D5CD959 PUSH1 0x62 SHL PUSH1 0x44 DUP3 ADD MSTORE SWAP1 MLOAD SWAP1 DUP2 SWAP1 SUB PUSH1 0x64 ADD SWAP1 REVERT JUMPDEST PUSH1 0x1 DUP1 SLOAD PUSH1 0xFF PUSH1 0xA0 SHL NOT AND SWAP1 SSTORE PUSH32 0x5DB9EE0A495BF2E6FF9C91A7834C1BA4FDD244A5E8AA4E537BD38AEAE4B073AA PUSH2 0x1908 PUSH2 0x21ED JUMP JUMPDEST PUSH1 0x1 PUSH1 0x1 PUSH1 0xA0 SHL SUB DUP3 AND PUSH1 0x0 SWAP1 DUP2 MSTORE PUSH1 0x6 PUSH1 0x20 MSTORE PUSH1 0x40 SWAP1 KECCAK256 PUSH1 0x3 SWAP1 PUSH2 0x19D4 DUP6 PUSH2 0x21F1 JUMP JUMPDEST PUSH1 0x1 DUP2 ADD SLOAD ISZERO PUSH2 0x1A5A JUMPI PUSH1 0x0 PUSH2 0x1A46 DUP3 PUSH1 0x2 ADD SLOAD PUSH1 0x40 MLOAD DUP1 PUSH1 0x40 ADD PUSH1 0x40 MSTORE DUP1 PUSH1 0x1D DUP2 MSTORE PUSH1 0x20 ADD PUSH32 0x5F6465706F7369742070656E64696E6720737562206F766572666C6F77000000 DUP2 MSTORE POP PUSH2 0xBDF PUSH9 0x56BC75E2D63100000 PUSH2 0xBEC DUP9 PUSH1 0x2 ADD SLOAD DUP9 PUSH1 0x1 ADD SLOAD PUSH2 0x1CF1 SWAP1 SWAP2 SWAP1 PUSH4 0xFFFFFFFF AND JUMP JUMPDEST SWAP1 POP DUP1 ISZERO PUSH2 0x1A58 JUMPI PUSH2 0x1A58 DUP3 DUP3 PUSH2 0x22D5 JUMP JUMPDEST POP JUMPDEST DUP3 ISZERO PUSH2 0x1A83 JUMPI PUSH1 0x1 DUP2 ADD SLOAD PUSH2 0x1A6F SWAP1 DUP5 PUSH2 0x1AB7 JUMP JUMPDEST PUSH1 0x1 DUP3 ADD SSTORE DUP2 SLOAD PUSH2 0x1A80 SWAP1 DUP5 PUSH2 0x1AB7 JUMP JUMPDEST DUP3 SSTORE JUMPDEST PUSH2 0x1AAB PUSH9 0x56BC75E2D63100000 PUSH2 0xBEC DUP5 PUSH1 0x2 ADD SLOAD DUP5 PUSH1 0x1 ADD SLOAD PUSH2 0x1CF1 SWAP1 SWAP2 SWAP1 PUSH4 0xFFFFFFFF AND JUMP JUMPDEST PUSH1 0x2 SWAP1 SWAP2 ADD SSTORE POP POP POP POP JUMP JUMPDEST PUSH1 0x0 DUP3 DUP3 ADD DUP4 DUP2 LT ISZERO PUSH2 0x10BF JUMPI PUSH1 0x40 DUP1 MLOAD PUSH3 0x461BCD PUSH1 0xE5 SHL DUP2 MSTORE PUSH1 0x20 PUSH1 0x4 DUP3 ADD MSTORE PUSH1 0x1B PUSH1 0x24 DUP3 ADD MSTORE PUSH32 0x536166654D6174683A206164646974696F6E206F766572666C6F770000000000 PUSH1 0x44 DUP3 ADD MSTORE SWAP1 MLOAD SWAP1 DUP2 SWAP1 SUB PUSH1 0x64 ADD SWAP1 REVERT JUMPDEST PUSH1 0x1 PUSH1 0x1 PUSH1 0xA0 SHL SUB DUP2 AND PUSH1 0x0 SWAP1 DUP2 MSTORE PUSH1 0x6 PUSH1 0x20 MSTORE PUSH1 0x40 DUP2 KECCAK256 PUSH1 0x5 SLOAD PUSH1 0x3 DUP1 SLOAD PUSH1 0x4 SLOAD SWAP2 SWAP4 SWAP3 SWAP2 DUP8 GT DUP1 ISZERO PUSH2 0x1B44 JUMPI POP DUP1 ISZERO ISZERO JUMPDEST ISZERO PUSH2 0x1BDA JUMPI PUSH1 0x0 PUSH2 0x1B99 DUP6 PUSH1 0x1 ADD SLOAD PUSH1 0x40 MLOAD DUP1 PUSH1 0x40 ADD PUSH1 0x40 MSTORE DUP1 PUSH1 0x18 DUP2 MSTORE PUSH1 0x20 ADD PUSH32 0x637220637572426C6F636B20737562206F766572666C6F770000000000000000 DUP2 MSTORE POP DUP11 PUSH2 0x1C5A SWAP1 SWAP3 SWAP2 SWAP1 PUSH4 0xFFFFFFFF AND JUMP JUMPDEST SWAP1 POP PUSH1 0x0 PUSH2 0x1BB2 PUSH1 0x2 SLOAD DUP4 PUSH2 0x1CF1 SWAP1 SWAP2 SWAP1 PUSH4 0xFFFFFFFF AND JUMP JUMPDEST SWAP1 POP PUSH2 0x1BD5 PUSH2 0x1BCE DUP5 PUSH2 0xBEC DUP5 PUSH9 0x56BC75E2D63100000 PUSH2 0x1CF1 JUMP JUMPDEST DUP6 SWAP1 PUSH2 0x1AB7 JUMP JUMPDEST SWAP4 POP POP POP JUMPDEST PUSH1 0x0 PUSH2 0x1C3E DUP5 PUSH1 0x2 ADD SLOAD PUSH1 0x40 MLOAD DUP1 PUSH1 0x40 ADD PUSH1 0x40 MSTORE DUP1 PUSH1 0x19 DUP2 MSTORE PUSH1 0x20 ADD PUSH32 0x6372206E657752657761726420737562206F766572666C6F7700000000000000 DUP2 MSTORE POP PUSH2 0xBDF PUSH9 0x56BC75E2D63100000 PUSH2 0xBEC DUP9 DUP11 PUSH1 0x1 ADD SLOAD PUSH2 0x1CF1 SWAP1 SWAP2 SWAP1 PUSH4 0xFFFFFFFF AND JUMP JUMPDEST DUP5 SLOAD SWAP1 SWAP2 POP PUSH2 0x1C4E SWAP1 DUP3 SWAP1 PUSH2 0x1AB7 JUMP JUMPDEST SWAP9 SWAP8 POP POP POP POP POP POP POP POP JUMP JUMPDEST PUSH1 0x0 DUP2 DUP5 DUP5 GT ISZERO PUSH2 0x1CE9 JUMPI PUSH1 0x40 MLOAD PUSH3 0x461BCD PUSH1 0xE5 SHL DUP2 MSTORE PUSH1 0x4 ADD DUP1 DUP1 PUSH1 0x20 ADD DUP3 DUP2 SUB DUP3 MSTORE DUP4 DUP2 DUP2 MLOAD DUP2 MSTORE PUSH1 0x20 ADD SWAP2 POP DUP1 MLOAD SWAP1 PUSH1 0x20 ADD SWAP1 DUP1 DUP4 DUP4 PUSH1 0x0 JUMPDEST DUP4 DUP2 LT ISZERO PUSH2 0x1CAE JUMPI DUP2 DUP2 ADD MLOAD DUP4 DUP3 ADD MSTORE PUSH1 0x20 ADD PUSH2 0x1C96 JUMP JUMPDEST POP POP POP POP SWAP1 POP SWAP1 DUP2 ADD SWAP1 PUSH1 0x1F AND DUP1 ISZERO PUSH2 0x1CDB JUMPI DUP1 DUP3 SUB DUP1 MLOAD PUSH1 0x1 DUP4 PUSH1 0x20 SUB PUSH2 0x100 EXP SUB NOT AND DUP2 MSTORE PUSH1 0x20 ADD SWAP2 POP JUMPDEST POP SWAP3 POP POP POP PUSH1 0x40 MLOAD DUP1 SWAP2 SUB SWAP1 REVERT JUMPDEST POP POP POP SWAP1 SUB SWAP1 JUMP JUMPDEST PUSH1 0x0 DUP3 PUSH2 0x1D00 JUMPI POP PUSH1 0x0 PUSH2 0x128B JUMP JUMPDEST DUP3 DUP3 MUL DUP3 DUP5 DUP3 DUP2 PUSH2 0x1D0D JUMPI INVALID JUMPDEST DIV EQ PUSH2 0x10BF JUMPI PUSH1 0x40 MLOAD PUSH3 0x461BCD PUSH1 0xE5 SHL DUP2 MSTORE PUSH1 0x4 ADD DUP1 DUP1 PUSH1 0x20 ADD DUP3 DUP2 SUB DUP3 MSTORE PUSH1 0x21 DUP2 MSTORE PUSH1 0x20 ADD DUP1 PUSH2 0x2716 PUSH1 0x21 SWAP2 CODECOPY PUSH1 0x40 ADD SWAP2 POP POP PUSH1 0x40 MLOAD DUP1 SWAP2 SUB SWAP1 REVERT JUMPDEST PUSH1 0x0 PUSH2 0x10BF DUP4 DUP4 PUSH1 0x40 MLOAD DUP1 PUSH1 0x40 ADD PUSH1 0x40 MSTORE DUP1 PUSH1 0x1A DUP2 MSTORE PUSH1 0x20 ADD PUSH32 0x536166654D6174683A206469766973696F6E206279207A65726F000000000000 DUP2 MSTORE POP PUSH2 0x233B JUMP JUMPDEST PUSH1 0xC SLOAD NUMBER SWAP1 DUP2 GT ISZERO PUSH2 0x1D9D JUMPI POP PUSH1 0xC SLOAD JUMPDEST DUP2 PUSH1 0x0 PUSH2 0x1DA9 DUP6 PUSH2 0x728 JUMP JUMPDEST SWAP1 POP DUP4 DUP2 LT PUSH2 0x1DC6 JUMPI PUSH2 0x1DBD DUP4 DUP7 DUP7 PUSH2 0x23A0 JUMP JUMPDEST PUSH1 0x0 SWAP4 POP PUSH2 0x2130 JUMP JUMPDEST DUP1 ISZERO PUSH2 0x1DFF JUMPI PUSH2 0x1DD7 DUP4 DUP7 DUP4 PUSH2 0x23A0 JUMP JUMPDEST PUSH2 0x1DFC DUP2 PUSH1 0x40 MLOAD DUP1 PUSH1 0x60 ADD PUSH1 0x40 MSTORE DUP1 PUSH1 0x22 DUP2 MSTORE PUSH1 0x20 ADD PUSH2 0x265E PUSH1 0x22 SWAP2 CODECOPY DUP7 SWAP2 SWAP1 PUSH2 0x1C5A JUMP JUMPDEST SWAP4 POP JUMPDEST PUSH1 0xB SLOAD PUSH1 0x40 DUP1 MLOAD PUSH4 0xFC139451 PUSH1 0xE0 SHL DUP2 MSTORE PUSH1 0x1 PUSH1 0x1 PUSH1 0xA0 SHL SUB DUP9 DUP2 AND PUSH1 0x4 DUP4 ADD MSTORE SWAP2 MLOAD PUSH1 0x0 SWAP4 SWAP3 SWAP1 SWAP3 AND SWAP2 PUSH4 0xFC139451 SWAP2 PUSH1 0x24 DUP1 DUP3 ADD SWAP3 PUSH1 0x20 SWAP3 SWAP1 SWAP2 SWAP1 DUP3 SWAP1 SUB ADD DUP2 DUP7 DUP1 EXTCODESIZE ISZERO DUP1 ISZERO PUSH2 0x1E50 JUMPI PUSH1 0x0 DUP1 REVERT JUMPDEST POP GAS STATICCALL ISZERO DUP1 ISZERO PUSH2 0x1E64 JUMPI RETURNDATASIZE PUSH1 0x0 DUP1 RETURNDATACOPY RETURNDATASIZE PUSH1 0x0 REVERT JUMPDEST POP POP POP POP PUSH1 0x40 MLOAD RETURNDATASIZE PUSH1 0x20 DUP2 LT ISZERO PUSH2 0x1E7A JUMPI PUSH1 0x0 DUP1 REVERT JUMPDEST POP MLOAD SWAP1 POP JUMPDEST PUSH1 0x1 DUP2 LT PUSH2 0x212E JUMPI PUSH1 0xB SLOAD PUSH1 0x40 DUP1 MLOAD PUSH4 0x3F73DAB5 PUSH1 0xE1 SHL DUP2 MSTORE PUSH1 0x1 PUSH1 0x1 PUSH1 0xA0 SHL SUB DUP10 DUP2 AND PUSH1 0x4 DUP4 ADD MSTORE PUSH1 0x0 NOT DUP6 ADD PUSH1 0x24 DUP4 ADD MSTORE DUP3 MLOAD PUSH1 0x0 SWAP5 DUP6 SWAP5 SWAP3 AND SWAP3 PUSH4 0x7EE7B56A SWAP3 PUSH1 0x44 DUP1 DUP4 ADD SWAP4 SWAP2 SWAP3 DUP3 SWAP1 SUB ADD DUP2 DUP7 DUP1 EXTCODESIZE ISZERO DUP1 ISZERO PUSH2 0x1EDE JUMPI PUSH1 0x0 DUP1 REVERT JUMPDEST POP GAS STATICCALL ISZERO DUP1 ISZERO PUSH2 0x1EF2 JUMPI RETURNDATASIZE PUSH1 0x0 DUP1 RETURNDATACOPY RETURNDATASIZE PUSH1 0x0 REVERT JUMPDEST POP POP POP POP PUSH1 0x40 MLOAD RETURNDATASIZE PUSH1 0x40 DUP2 LT ISZERO PUSH2 0x1F08 JUMPI PUSH1 0x0 DUP1 REVERT JUMPDEST POP DUP1 MLOAD PUSH1 0x20 SWAP1 SWAP2 ADD MLOAD SWAP1 SWAP3 POP SWAP1 POP DUP2 DUP8 LT PUSH2 0x2025 JUMPI PUSH2 0x1F42 DUP3 PUSH1 0x40 MLOAD DUP1 PUSH1 0x60 ADD PUSH1 0x40 MSTORE DUP1 PUSH1 0x22 DUP2 MSTORE PUSH1 0x20 ADD PUSH2 0x265E PUSH1 0x22 SWAP2 CODECOPY DUP10 SWAP2 SWAP1 PUSH2 0x1C5A JUMP JUMPDEST PUSH1 0xB SLOAD PUSH1 0x40 DUP1 MLOAD PUSH4 0x217085E3 PUSH1 0xE1 SHL DUP2 MSTORE PUSH1 0x1 PUSH1 0x1 PUSH1 0xA0 SHL SUB DUP13 DUP2 AND PUSH1 0x4 DUP4 ADD MSTORE SWAP2 MLOAD SWAP4 SWAP11 POP SWAP2 AND SWAP2 PUSH4 0x42E10BC6 SWAP2 PUSH1 0x24 DUP1 DUP3 ADD SWAP3 PUSH1 0x0 SWAP3 SWAP1 SWAP2 SWAP1 DUP3 SWAP1 SUB ADD DUP2 DUP4 DUP8 DUP1 EXTCODESIZE ISZERO DUP1 ISZERO PUSH2 0x1F92 JUMPI PUSH1 0x0 DUP1 REVERT JUMPDEST POP GAS CALL ISZERO DUP1 ISZERO PUSH2 0x1FA6 JUMPI RETURNDATASIZE PUSH1 0x0 DUP1 RETURNDATACOPY RETURNDATASIZE PUSH1 0x0 REVERT JUMPDEST POP POP PUSH1 0xB SLOAD PUSH1 0x40 DUP1 MLOAD PUSH4 0xB3317141 PUSH1 0xE0 SHL DUP2 MSTORE PUSH1 0x4 DUP2 ADD DUP7 SWAP1 MSTORE PUSH1 0x24 DUP2 ADD DUP8 SWAP1 MSTORE SWAP1 MLOAD PUSH1 0x1 PUSH1 0x1 PUSH1 0xA0 SHL SUB SWAP1 SWAP3 AND SWAP4 POP PUSH4 0xB3317141 SWAP3 POP PUSH1 0x44 DUP1 DUP3 ADD SWAP3 PUSH1 0x0 SWAP3 SWAP1 SWAP2 SWAP1 DUP3 SWAP1 SUB ADD DUP2 DUP4 DUP8 DUP1 EXTCODESIZE ISZERO DUP1 ISZERO PUSH2 0x1FFE JUMPI PUSH1 0x0 DUP1 REVERT JUMPDEST POP GAS CALL ISZERO DUP1 ISZERO PUSH2 0x2012 JUMPI RETURNDATASIZE PUSH1 0x0 DUP1 RETURNDATACOPY RETURNDATASIZE PUSH1 0x0 REVERT JUMPDEST POP POP POP POP PUSH2 0x2020 DUP9 DUP4 PUSH2 0x2526 JUMP JUMPDEST PUSH2 0x2117 JUMP JUMPDEST PUSH1 0xB SLOAD PUSH1 0x40 DUP1 MLOAD PUSH4 0x6788933 PUSH1 0xE1 SHL DUP2 MSTORE PUSH1 0x1 PUSH1 0x1 PUSH1 0xA0 SHL SUB DUP12 DUP2 AND PUSH1 0x4 DUP4 ADD MSTORE PUSH1 0x0 NOT DUP8 ADD PUSH1 0x24 DUP4 ADD MSTORE PUSH1 0x44 DUP3 ADD DUP12 SWAP1 MSTORE SWAP2 MLOAD SWAP2 SWAP1 SWAP3 AND SWAP2 PUSH4 0xCF11266 SWAP2 PUSH1 0x64 DUP1 DUP4 ADD SWAP3 PUSH1 0x0 SWAP3 SWAP2 SWAP1 DUP3 SWAP1 SUB ADD DUP2 DUP4 DUP8 DUP1 EXTCODESIZE ISZERO DUP1 ISZERO PUSH2 0x2084 JUMPI PUSH1 0x0 DUP1 REVERT JUMPDEST POP GAS CALL ISZERO DUP1 ISZERO PUSH2 0x2098 JUMPI RETURNDATASIZE PUSH1 0x0 DUP1 RETURNDATACOPY RETURNDATASIZE PUSH1 0x0 REVERT JUMPDEST POP POP PUSH1 0xB SLOAD PUSH1 0x40 DUP1 MLOAD PUSH4 0xB3317141 PUSH1 0xE0 SHL DUP2 MSTORE PUSH1 0x4 DUP2 ADD DUP7 SWAP1 MSTORE PUSH1 0x24 DUP2 ADD DUP13 SWAP1 MSTORE SWAP1 MLOAD PUSH1 0x1 PUSH1 0x1 PUSH1 0xA0 SHL SUB SWAP1 SWAP3 AND SWAP4 POP PUSH4 0xB3317141 SWAP3 POP PUSH1 0x44 DUP1 DUP3 ADD SWAP3 PUSH1 0x0 SWAP3 SWAP1 SWAP2 SWAP1 DUP3 SWAP1 SUB ADD DUP2 DUP4 DUP8 DUP1 EXTCODESIZE ISZERO DUP1 ISZERO PUSH2 0x20F0 JUMPI PUSH1 0x0 DUP1 REVERT JUMPDEST POP GAS CALL ISZERO DUP1 ISZERO PUSH2 0x2104 JUMPI RETURNDATASIZE PUSH1 0x0 DUP1 RETURNDATACOPY RETURNDATASIZE PUSH1 0x0 REVERT JUMPDEST POP POP POP POP PUSH2 0x2112 DUP9 DUP9 PUSH2 0x2526 JUMP JUMPDEST PUSH1 0x0 SWAP7 POP JUMPDEST DUP7 PUSH2 0x2123 JUMPI POP POP PUSH2 0x212E JUMP JUMPDEST POP POP PUSH1 0x0 NOT ADD PUSH2 0x1E7F JUMP JUMPDEST POP JUMPDEST PUSH1 0xA SLOAD PUSH1 0x1 PUSH1 0x1 PUSH1 0xA0 SHL SUB AND PUSH4 0xA9059CBB CALLER PUSH2 0x214C DUP6 DUP9 PUSH2 0x261B JUMP JUMPDEST PUSH1 0x40 MLOAD DUP4 PUSH4 0xFFFFFFFF AND PUSH1 0xE0 SHL DUP2 MSTORE PUSH1 0x4 ADD DUP1 DUP4 PUSH1 0x1 PUSH1 0x1 PUSH1 0xA0 SHL SUB AND DUP2 MSTORE PUSH1 0x20 ADD DUP3 DUP2 MSTORE PUSH1 0x20 ADD SWAP3 POP POP POP PUSH1 0x20 PUSH1 0x40 MLOAD DUP1 DUP4 SUB DUP2 PUSH1 0x0 DUP8 DUP1 EXTCODESIZE ISZERO DUP1 ISZERO PUSH2 0x2192 JUMPI PUSH1 0x0 DUP1 REVERT JUMPDEST POP GAS CALL ISZERO DUP1 ISZERO PUSH2 0x21A6 JUMPI RETURNDATASIZE PUSH1 0x0 DUP1 RETURNDATACOPY RETURNDATASIZE PUSH1 0x0 REVERT JUMPDEST POP POP POP POP PUSH1 0x40 MLOAD RETURNDATASIZE PUSH1 0x20 DUP2 LT ISZERO PUSH2 0x21BC JUMPI PUSH1 0x0 DUP1 REVERT JUMPDEST POP POP POP POP POP POP POP JUMP JUMPDEST PUSH1 0x1 PUSH1 0x1 PUSH1 0xA0 SHL SUB DUP2 AND PUSH1 0x0 SWAP1 DUP2 MSTORE PUSH1 0x6 PUSH1 0x20 MSTORE PUSH1 0x40 SWAP1 KECCAK256 DUP1 SLOAD ISZERO PUSH2 0x21E9 JUMPI PUSH1 0x0 DUP2 SSTORE JUMPDEST POP POP JUMP JUMPDEST CALLER SWAP1 JUMP JUMPDEST PUSH1 0x4 SLOAD PUSH1 0x3 SWAP1 DUP3 GT PUSH2 0x2203 JUMPI POP PUSH2 0x85B JUMP JUMPDEST DUP1 SLOAD DUP1 PUSH2 0x2216 JUMPI POP PUSH1 0x1 ADD DUP2 SWAP1 SSTORE PUSH2 0x85B JUMP JUMPDEST PUSH1 0x0 PUSH2 0x2266 DUP4 PUSH1 0x1 ADD SLOAD PUSH1 0x40 MLOAD DUP1 PUSH1 0x40 ADD PUSH1 0x40 MSTORE DUP1 PUSH1 0x1D DUP2 MSTORE PUSH1 0x20 ADD PUSH32 0x5F75706461746520637572426C6F636B20737562206F766572666C6F77000000 DUP2 MSTORE POP DUP7 PUSH2 0x1C5A SWAP1 SWAP3 SWAP2 SWAP1 PUSH4 0xFFFFFFFF AND JUMP JUMPDEST SWAP1 POP PUSH1 0x0 PUSH2 0x227F PUSH1 0x2 SLOAD DUP4 PUSH2 0x1CF1 SWAP1 SWAP2 SWAP1 PUSH4 0xFFFFFFFF AND JUMP JUMPDEST PUSH1 0x8 SLOAD SWAP1 SWAP2 POP PUSH2 0x228F SWAP1 DUP3 PUSH2 0x1AB7 JUMP JUMPDEST PUSH1 0x8 SSTORE PUSH1 0x9 SLOAD PUSH2 0x229F SWAP1 DUP3 PUSH2 0x1AB7 JUMP JUMPDEST PUSH1 0x9 SSTORE PUSH2 0x22C7 PUSH2 0x22BC DUP5 PUSH2 0xBEC DUP5 PUSH9 0x56BC75E2D63100000 PUSH2 0x1CF1 JUMP JUMPDEST PUSH1 0x2 DUP7 ADD SLOAD SWAP1 PUSH2 0x1AB7 JUMP JUMPDEST PUSH1 0x2 DUP6 ADD SSTORE POP POP POP PUSH1 0x1 ADD SSTORE JUMP JUMPDEST PUSH1 0x8 SLOAD DUP2 GT ISZERO PUSH2 0x22E4 JUMPI POP PUSH1 0x8 SLOAD JUMPDEST PUSH1 0x40 DUP1 MLOAD DUP1 DUP3 ADD SWAP1 SWAP2 MSTORE PUSH1 0x20 DUP1 DUP3 MSTORE PUSH32 0x7265776172642072656D61696E52657761726420737562206F766572666C6F77 SWAP1 DUP3 ADD MSTORE PUSH1 0x8 SLOAD PUSH2 0x2326 SWAP2 DUP4 SWAP1 PUSH2 0x1C5A JUMP JUMPDEST PUSH1 0x8 SSTORE DUP2 SLOAD PUSH2 0x2335 SWAP1 DUP3 PUSH2 0x1AB7 JUMP JUMPDEST SWAP1 SWAP2 SSTORE POP JUMP JUMPDEST PUSH1 0x0 DUP2 DUP4 PUSH2 0x238A JUMPI PUSH1 0x40 MLOAD PUSH3 0x461BCD PUSH1 0xE5 SHL DUP2 MSTORE PUSH1 0x20 PUSH1 0x4 DUP3 ADD DUP2 DUP2 MSTORE DUP4 MLOAD PUSH1 0x24 DUP5 ADD MSTORE DUP4 MLOAD SWAP1 SWAP3 DUP4 SWAP3 PUSH1 0x44 SWAP1 SWAP2 ADD SWAP2 SWAP1 DUP6 ADD SWAP1 DUP1 DUP4 DUP4 PUSH1 0x0 DUP4 ISZERO PUSH2 0x1CAE JUMPI DUP2 DUP2 ADD MLOAD DUP4 DUP3 ADD MSTORE PUSH1 0x20 ADD PUSH2 0x1C96 JUMP JUMPDEST POP PUSH1 0x0 DUP4 DUP6 DUP2 PUSH2 0x2396 JUMPI INVALID JUMPDEST DIV SWAP6 SWAP5 POP POP POP POP POP JUMP JUMPDEST PUSH1 0x1 PUSH1 0x1 PUSH1 0xA0 SHL SUB DUP3 AND PUSH1 0x0 SWAP1 DUP2 MSTORE PUSH1 0x6 PUSH1 0x20 MSTORE PUSH1 0x40 SWAP1 KECCAK256 PUSH1 0x1 DUP2 ADD SLOAD PUSH1 0x3 SWAP2 SWAP1 DUP4 GT ISZERO PUSH2 0x240B JUMPI PUSH1 0x40 DUP1 MLOAD PUSH3 0x461BCD PUSH1 0xE5 SHL DUP2 MSTORE PUSH1 0x20 PUSH1 0x4 DUP3 ADD MSTORE PUSH1 0x13 PUSH1 0x24 DUP3 ADD MSTORE PUSH19 0x17DDDA5D1A191C985DCE881B9BDD0819DBDBD9 PUSH1 0x6A SHL PUSH1 0x44 DUP3 ADD MSTORE SWAP1 MLOAD SWAP1 DUP2 SWAP1 SUB PUSH1 0x64 ADD SWAP1 REVERT JUMPDEST PUSH2 0x2414 DUP6 PUSH2 0x21F1 JUMP JUMPDEST PUSH1 0x0 PUSH2 0x247C DUP3 PUSH1 0x2 ADD SLOAD PUSH1 0x40 MLOAD DUP1 PUSH1 0x40 ADD PUSH1 0x40 MSTORE DUP1 PUSH1 0x1E DUP2 MSTORE PUSH1 0x20 ADD PUSH32 0x5F77697468647261772070656E64696E6720737562206F766572666C6F770000 DUP2 MSTORE POP PUSH2 0xBDF PUSH9 0x56BC75E2D63100000 PUSH2 0xBEC DUP9 PUSH1 0x2 ADD SLOAD DUP9 PUSH1 0x1 ADD SLOAD PUSH2 0x1CF1 SWAP1 SWAP2 SWAP1 PUSH4 0xFFFFFFFF AND JUMP JUMPDEST SWAP1 POP DUP1 ISZERO PUSH2 0x248E JUMPI PUSH2 0x248E DUP3 DUP3 PUSH2 0x22D5 JUMP JUMPDEST DUP4 ISZERO PUSH2 0x24EE JUMPI PUSH2 0x24BD DUP5 PUSH1 0x40 MLOAD DUP1 PUSH1 0x60 ADD PUSH1 0x40 MSTORE DUP1 PUSH1 0x22 DUP2 MSTORE PUSH1 0x20 ADD PUSH2 0x26AC PUSH1 0x22 SWAP2 CODECOPY PUSH1 0x1 DUP6 ADD SLOAD SWAP2 SWAP1 PUSH2 0x1C5A JUMP JUMPDEST DUP3 PUSH1 0x1 ADD DUP2 SWAP1 SSTORE POP PUSH2 0x24EB DUP5 PUSH1 0x40 MLOAD DUP1 PUSH1 0x60 ADD PUSH1 0x40 MSTORE DUP1 PUSH1 0x22 DUP2 MSTORE PUSH1 0x20 ADD PUSH2 0x278F PUSH1 0x22 SWAP2 CODECOPY DUP6 SLOAD SWAP2 SWAP1 PUSH2 0x1C5A JUMP JUMPDEST DUP4 SSTORE JUMPDEST PUSH2 0x2516 PUSH9 0x56BC75E2D63100000 PUSH2 0xBEC DUP6 PUSH1 0x2 ADD SLOAD DUP6 PUSH1 0x1 ADD SLOAD PUSH2 0x1CF1 SWAP1 SWAP2 SWAP1 PUSH4 0xFFFFFFFF AND JUMP JUMPDEST DUP3 PUSH1 0x2 ADD DUP2 SWAP1 SSTORE POP POP POP POP POP POP POP JUMP JUMPDEST PUSH1 0xC SLOAD NUMBER SWAP1 DUP2 GT ISZERO PUSH2 0x2537 JUMPI POP PUSH1 0xC SLOAD JUMPDEST PUSH1 0xD SLOAD PUSH1 0x0 SWAP1 PUSH2 0x254F SWAP1 PUSH1 0x1 PUSH1 0x1 PUSH1 0xA0 SHL SUB AND PUSH2 0x728 JUMP JUMPDEST PUSH1 0xD SLOAD SWAP1 SWAP2 POP PUSH2 0x256A SWAP1 DUP4 SWAP1 PUSH1 0x1 PUSH1 0x1 PUSH1 0xA0 SHL SUB AND DUP6 PUSH2 0x23A0 JUMP JUMPDEST PUSH1 0x0 PUSH2 0x25C2 PUSH9 0x56BC75E2D63100000 PUSH2 0xBEC DUP5 PUSH2 0xBEC PUSH9 0x56BC75E2D63100000 PUSH2 0xBE6 DUP11 PUSH2 0xBE6 PUSH1 0xF SLOAD PUSH1 0x40 MLOAD DUP1 PUSH1 0x60 ADD PUSH1 0x40 MSTORE DUP1 PUSH1 0x2C DUP2 MSTORE PUSH1 0x20 ADD PUSH2 0x2680 PUSH1 0x2C SWAP2 CODECOPY PUSH1 0xD SLOAD PUSH2 0xBDF SWAP1 PUSH1 0x1 PUSH1 0x1 PUSH1 0xA0 SHL SUB AND PUSH2 0x87F JUMP JUMPDEST PUSH1 0xF SLOAD SWAP1 SWAP2 POP PUSH2 0x25D2 SWAP1 DUP3 PUSH2 0x1AB7 JUMP JUMPDEST PUSH1 0xF SSTORE PUSH1 0x1 PUSH1 0x1 PUSH1 0xA0 SHL SUB DUP6 AND PUSH1 0x0 SWAP1 DUP2 MSTORE PUSH1 0x14 PUSH1 0x20 MSTORE PUSH1 0x40 SWAP1 KECCAK256 SLOAD PUSH2 0x25F8 SWAP1 DUP3 PUSH2 0x1AB7 JUMP JUMPDEST PUSH1 0x1 PUSH1 0x1 PUSH1 0xA0 SHL SUB SWAP1 SWAP6 AND PUSH1 0x0 SWAP1 DUP2 MSTORE PUSH1 0x14 PUSH1 0x20 MSTORE PUSH1 0x40 SWAP1 KECCAK256 SWAP5 SWAP1 SWAP5 SSTORE POP POP POP POP JUMP JUMPDEST PUSH1 0x0 PUSH2 0x10BF DUP4 DUP4 PUSH1 0x40 MLOAD DUP1 PUSH1 0x40 ADD PUSH1 0x40 MSTORE DUP1 PUSH1 0x1E DUP2 MSTORE PUSH1 0x20 ADD PUSH32 0x536166654D6174683A207375627472616374696F6E206F766572666C6F770000 DUP2 MSTORE POP PUSH2 0x1C5A JUMP INVALID 0x5F PUSH4 0x616E6365 PUSH13 0x5374616B696E6720616D6F756E PUSH21 0x20737562206F766572666C6F775F77696474686472 PUSH2 0x7746 PUSH19 0x6F6D4F6C645374616B696E6720726577617264 KECCAK256 PUSH20 0x7562206F766572666C6F775F7769746864726177 KECCAK256 PUSH22 0x7365722E616D6F756E7420737562206F766572666C6F PUSH24 0x676574546F74616C52657761726420695265776172643220 PUSH20 0x7562206F766572666C6F776E657720656E64426C PUSH16 0x636B206C657373207468616E206F6C64 KECCAK256 PUSH6 0x6E64426C6F63 PUSH12 0x2E536166654D6174683A206D PUSH22 0x6C7469706C69636174696F6E206F766572666C6F776C PUSH16 0x636B74696D65206E656564206C617267 PUSH6 0x72207468616E KECCAK256 PUSH4 0x75722074 PUSH10 0x6D65203220646179734F PUSH15 0x6C792074686520636F6E7472616374 KECCAK256 PUSH2 0x646D PUSH10 0x6E2063616E2070657266 PUSH16 0x726D207468697320616374696F6E5F77 PUSH10 0x74686472617720706F6F PUSH13 0x2E616D6F756E7420737562206F PUSH23 0x6572666C6F77A2646970667358221220CAD5D51E41BD03 0xEB 0xF7 0x48 0x5D EXTCODESIZE 0xEA SWAP12 PUSH27 0x1800E19B61B326CBE357E507F12691E97E64736F6C634300060C00 CALLER "
		},
		"gasEstimates": {
			"creation": {
				"codeDepositCost": "2042800",
				"executionCost": "infinite",
				"totalCost": "infinite"
			},
			"external": {
				"PRECISION_UINT()": "309",
				"accReward()": "1132",
				"accountStakingListLimit()": "1086",
				"admin()": "1103",
				"amount()": "1043",
				"amountOf(address)": "1195",
				"becomeAdmin()": "24122",
				"calcReward(uint256,address)": "infinite",
				"cancelStaking(uint256)": "infinite",
				"candidate()": "1105",
				"claim()": "infinite",
				"claimRewardLockTime()": "1153",
				"getPoolInfo()": "2694",
				"getStakesdataLength(address)": "infinite",
				"getTotalReward(uint256,address)": "infinite",
				"getUserInfo(address)": "2919",
				"isUserSynced(address)": "2109",
				"linaToken()": "1105",
				"mEndBlock()": "1087",
				"mOldAmount()": "1087",
				"mOldReward(address)": "1192",
				"mOldSimpleStaking()": "1193",
				"mOldStaking()": "1192",
				"mPoolInfo()": "2754",
				"mTargetAddress()": "1104",
				"mTransLockTime()": "1130",
				"mWidthdrawRewardFromOldStaking()": "1132",
				"minStakingAmount()": "1132",
				"paused()": "1183",
				"remainReward()": "1089",
				"requireSync()": "1160",
				"rewardOf(address)": "1299",
				"rewardPerBlock()": "1065",
				"setCandidate(address)": "infinite",
				"setEndBlock(uint256)": "infinite",
				"setLinaToken(address)": "infinite",
				"setMinStakingAmount(uint256)": "infinite",
				"setPaused(bool)": "infinite",
				"setRewardLockTime(uint256)": "infinite",
				"setStakingListLimit(uint256)": "infinite",
				"setTransLock(address,uint256)": "infinite",
				"staking(uint256)": "infinite",
				"stakingBalanceOf(address)": "infinite",
				"stakingStorage()": "1104",
				"startBlock()": "1088",
				"syncUserInfo(address)": "1248",
				"syncUserInfoData(address)": "infinite",
				"transTokens(uint256)": "infinite",
				"userInfo(address)": "2931"
			},
			"internal": {
				"_cancelStaking(address,uint256)": "infinite",
				"_widthdrawFromOldStaking(address,uint256)": "infinite"
			}
		},
		"methodIdentifiers": {
			"PRECISION_UINT()": "c0e1f296",
			"accReward()": "562975cb",
			"accountStakingListLimit()": "f873ccb5",
			"admin()": "f851a440",
			"amount()": "aa8c217c",
			"amountOf(address)": "01608f5f",
			"becomeAdmin()": "25971dff",
			"calcReward(uint256,address)": "85461f69",
			"cancelStaking(uint256)": "9ab0388b",
			"candidate()": "6c8381f8",
			"claim()": "4e71d92d",
			"claimRewardLockTime()": "a16bd312",
			"getPoolInfo()": "60246c88",
			"getStakesdataLength(address)": "fc139451",
			"getTotalReward(uint256,address)": "24c20850",
			"getUserInfo(address)": "6386c1c7",
			"isUserSynced(address)": "6d736de2",
			"linaToken()": "222bebd9",
			"mEndBlock()": "eb016e64",
			"mOldAmount()": "92fe2d6d",
			"mOldReward(address)": "37834199",
			"mOldSimpleStaking()": "2f7a3849",
			"mOldStaking()": "d4d12d64",
			"mPoolInfo()": "99fb7a8f",
			"mTargetAddress()": "dd3bf574",
			"mTransLockTime()": "fea80793",
			"mWidthdrawRewardFromOldStaking()": "758a9932",
			"minStakingAmount()": "25c065b1",
			"paused()": "5c975abb",
			"remainReward()": "1485ff78",
			"requireSync()": "6807a637",
			"rewardOf(address)": "1d62ebd9",
			"rewardPerBlock()": "8ae39cac",
			"setCandidate(address)": "07880b7f",
			"setEndBlock(uint256)": "c713aa94",
			"setLinaToken(address)": "32eec36a",
			"setMinStakingAmount(uint256)": "612d669e",
			"setPaused(bool)": "16c38b3c",
			"setRewardLockTime(uint256)": "bb4f1912",
			"setStakingListLimit(uint256)": "6a8ab296",
			"setTransLock(address,uint256)": "69e0bb42",
			"staking(uint256)": "1dbb2a22",
			"stakingBalanceOf(address)": "62e3efdd",
			"stakingStorage()": "b518a00e",
			"startBlock()": "48cd4cb1",
			"syncUserInfo(address)": "6eefcf75",
			"syncUserInfoData(address)": "ebcf4e9e",
			"transTokens(uint256)": "80459827",
			"userInfo(address)": "1959a002"
		}
	},
	"abi": [
		{
			"inputs": [
				{
					"internalType": "address",
					"name": "_admin",
					"type": "address"
				},
				{
					"internalType": "address",
					"name": "_linaToken",
					"type": "address"
				},
				{
					"internalType": "address",
					"name": "_storage",
					"type": "address"
				},
				{
					"internalType": "uint256",
					"name": "_rewardPerBlock",
					"type": "uint256"
				},
				{
					"internalType": "uint256",
					"name": "_startBlock",
					"type": "uint256"
				},
				{
					"internalType": "uint256",
					"name": "_endBlock",
					"type": "uint256"
				},
				{
					"internalType": "address",
					"name": "_mOldSimpleStaking",
					"type": "address"
				}
			],
			"stateMutability": "nonpayable",
			"type": "constructor"
		},
		{
			"anonymous": false,
			"inputs": [
				{
					"indexed": false,
					"internalType": "address",
					"name": "oldAdmin",
					"type": "address"
				},
				{
					"indexed": false,
					"internalType": "address",
					"name": "newAdmin",
					"type": "address"
				}
			],
			"name": "AdminChanged",
			"type": "event"
		},
		{
			"anonymous": false,
			"inputs": [
				{
					"indexed": true,
					"internalType": "address",
					"name": "who",
					"type": "address"
				},
				{
					"indexed": false,
					"internalType": "uint256",
					"name": "value",
					"type": "uint256"
				}
			],
			"name": "CancelStaking",
			"type": "event"
		},
		{
			"anonymous": false,
			"inputs": [
				{
					"indexed": true,
					"internalType": "address",
					"name": "who",
					"type": "address"
				},
				{
					"indexed": false,
					"internalType": "uint256",
					"name": "rewardval",
					"type": "uint256"
				},
				{
					"indexed": false,
					"internalType": "uint256",
					"name": "totalStaking",
					"type": "uint256"
				}
			],
			"name": "Claim",
			"type": "event"
		},
		{
			"anonymous": false,
			"inputs": [
				{
					"indexed": false,
					"internalType": "address",
					"name": "account",
					"type": "address"
				}
			],
			"name": "Paused",
			"type": "event"
		},
		{
			"anonymous": false,
			"inputs": [
				{
					"indexed": true,
					"internalType": "address",
					"name": "who",
					"type": "address"
				},
				{
					"indexed": false,
					"internalType": "uint256",
					"name": "value",
					"type": "uint256"
				},
				{
					"indexed": false,
					"internalType": "uint256",
					"name": "staketime",
					"type": "uint256"
				}
			],
			"name": "Staking",
			"type": "event"
		},
		{
			"anonymous": false,
			"inputs": [
				{
					"indexed": false,
					"internalType": "address",
					"name": "target",
					"type": "address"
				},
				{
					"indexed": false,
					"internalType": "uint256",
					"name": "time",
					"type": "uint256"
				}
			],
			"name": "TransLock",
			"type": "event"
		},
		{
			"anonymous": false,
			"inputs": [
				{
					"indexed": false,
					"internalType": "address",
					"name": "account",
					"type": "address"
				}
			],
			"name": "Unpaused",
			"type": "event"
		},
		{
			"anonymous": false,
			"inputs": [
				{
					"indexed": false,
					"internalType": "address",
					"name": "oldCandidate",
					"type": "address"
				},
				{
					"indexed": false,
					"internalType": "address",
					"name": "newCandidate",
					"type": "address"
				}
			],
			"name": "candidateChanged",
			"type": "event"
		},
		{
			"inputs": [],
			"name": "PRECISION_UINT",
			"outputs": [
				{
					"internalType": "uint256",
					"name": "",
					"type": "uint256"
				}
			],
			"stateMutability": "view",
			"type": "function"
		},
		{
			"inputs": [],
			"name": "accReward",
			"outputs": [
				{
					"internalType": "uint256",
					"name": "",
					"type": "uint256"
				}
			],
			"stateMutability": "view",
			"type": "function"
		},
		{
			"inputs": [],
			"name": "accountStakingListLimit",
			"outputs": [
				{
					"internalType": "uint256",
					"name": "",
					"type": "uint256"
				}
			],
			"stateMutability": "view",
			"type": "function"
		},
		{
			"inputs": [],
			"name": "admin",
			"outputs": [
				{
					"internalType": "address",
					"name": "",
					"type": "address"
				}
			],
			"stateMutability": "view",
			"type": "function"
		},
		{
			"inputs": [],
			"name": "amount",
			"outputs": [
				{
					"internalType": "uint256",
					"name": "",
					"type": "uint256"
				}
			],
			"stateMutability": "view",
			"type": "function"
		},
		{
			"inputs": [
				{
					"internalType": "address",
					"name": "_user",
					"type": "address"
				}
			],
			"name": "amountOf",
			"outputs": [
				{
					"internalType": "uint256",
					"name": "",
					"type": "uint256"
				}
			],
			"stateMutability": "view",
			"type": "function"
		},
		{
			"inputs": [],
			"name": "becomeAdmin",
			"outputs": [],
			"stateMutability": "nonpayable",
			"type": "function"
		},
		{
			"inputs": [
				{
					"internalType": "uint256",
					"name": "curBlock",
					"type": "uint256"
				},
				{
					"internalType": "address",
					"name": "_user",
					"type": "address"
				}
			],
			"name": "calcReward",
			"outputs": [
				{
					"internalType": "uint256",
					"name": "",
					"type": "uint256"
				}
			],
			"stateMutability": "view",
			"type": "function"
		},
		{
			"inputs": [
				{
					"internalType": "uint256",
					"name": "amount",
					"type": "uint256"
				}
			],
			"name": "cancelStaking",
			"outputs": [
				{
					"internalType": "bool",
					"name": "",
					"type": "bool"
				}
			],
			"stateMutability": "nonpayable",
			"type": "function"
		},
		{
			"inputs": [],
			"name": "candidate",
			"outputs": [
				{
					"internalType": "address",
					"name": "",
					"type": "address"
				}
			],
			"stateMutability": "view",
			"type": "function"
		},
		{
			"inputs": [],
			"name": "claim",
			"outputs": [
				{
					"internalType": "bool",
					"name": "",
					"type": "bool"
				}
			],
			"stateMutability": "nonpayable",
			"type": "function"
		},
		{
			"inputs": [],
			"name": "claimRewardLockTime",
			"outputs": [
				{
					"internalType": "uint256",
					"name": "",
					"type": "uint256"
				}
			],
			"stateMutability": "view",
			"type": "function"
		},
		{
			"inputs": [],
			"name": "getPoolInfo",
			"outputs": [
				{
					"internalType": "uint256",
					"name": "",
					"type": "uint256"
				},
				{
					"internalType": "uint256",
					"name": "",
					"type": "uint256"
				},
				{
					"internalType": "uint256",
					"name": "",
					"type": "uint256"
				}
			],
			"stateMutability": "view",
			"type": "function"
		},
		{
			"inputs": [
				{
					"internalType": "address",
					"name": "account",
					"type": "address"
				}
			],
			"name": "getStakesdataLength",
			"outputs": [
				{
					"internalType": "uint256",
					"name": "",
					"type": "uint256"
				}
			],
			"stateMutability": "view",
			"type": "function"
		},
		{
			"inputs": [
				{
					"internalType": "uint256",
					"name": "blockNb",
					"type": "uint256"
				},
				{
					"internalType": "address",
					"name": "_user",
					"type": "address"
				}
			],
			"name": "getTotalReward",
			"outputs": [
				{
					"internalType": "uint256",
					"name": "total",
					"type": "uint256"
				}
			],
			"stateMutability": "view",
			"type": "function"
		},
		{
			"inputs": [
				{
					"internalType": "address",
					"name": "_user",
					"type": "address"
				}
			],
			"name": "getUserInfo",
			"outputs": [
				{
					"internalType": "uint256",
					"name": "",
					"type": "uint256"
				},
				{
					"internalType": "uint256",
					"name": "",
					"type": "uint256"
				},
				{
					"internalType": "uint256",
					"name": "",
					"type": "uint256"
				}
			],
			"stateMutability": "view",
			"type": "function"
		},
		{
			"inputs": [
				{
					"internalType": "address",
					"name": "_user",
					"type": "address"
				}
			],
			"name": "isUserSynced",
			"outputs": [
				{
					"internalType": "bool",
					"name": "",
					"type": "bool"
				}
			],
			"stateMutability": "view",
			"type": "function"
		},
		{
			"inputs": [],
			"name": "linaToken",
			"outputs": [
				{
					"internalType": "contract IERC20",
					"name": "",
					"type": "address"
				}
			],
			"stateMutability": "view",
			"type": "function"
		},
		{
			"inputs": [],
			"name": "mEndBlock",
			"outputs": [
				{
					"internalType": "uint256",
					"name": "",
					"type": "uint256"
				}
			],
			"stateMutability": "view",
			"type": "function"
		},
		{
			"inputs": [],
			"name": "mOldAmount",
			"outputs": [
				{
					"internalType": "uint256",
					"name": "",
					"type": "uint256"
				}
			],
			"stateMutability": "view",
			"type": "function"
		},
		{
			"inputs": [
				{
					"internalType": "address",
					"name": "",
					"type": "address"
				}
			],
			"name": "mOldReward",
			"outputs": [
				{
					"internalType": "uint256",
					"name": "",
					"type": "uint256"
				}
			],
			"stateMutability": "view",
			"type": "function"
		},
		{
			"inputs": [],
			"name": "mOldSimpleStaking",
			"outputs": [
				{
					"internalType": "contract LnSimpleStaking",
					"name": "",
					"type": "address"
				}
			],
			"stateMutability": "view",
			"type": "function"
		},
		{
			"inputs": [],
			"name": "mOldStaking",
			"outputs": [
				{
					"internalType": "address",
					"name": "",
					"type": "address"
				}
			],
			"stateMutability": "view",
			"type": "function"
		},
		{
			"inputs": [],
			"name": "mPoolInfo",
			"outputs": [
				{
					"internalType": "uint256",
					"name": "amount",
					"type": "uint256"
				},
				{
					"internalType": "uint256",
					"name": "lastRewardBlock",
					"type": "uint256"
				},
				{
					"internalType": "uint256",
					"name": "accRewardPerShare",
					"type": "uint256"
				}
			],
			"stateMutability": "view",
			"type": "function"
		},
		{
			"inputs": [],
			"name": "mTargetAddress",
			"outputs": [
				{
					"internalType": "address",
					"name": "",
					"type": "address"
				}
			],
			"stateMutability": "view",
			"type": "function"
		},
		{
			"inputs": [],
			"name": "mTransLockTime",
			"outputs": [
				{
					"internalType": "uint256",
					"name": "",
					"type": "uint256"
				}
			],
			"stateMutability": "view",
			"type": "function"
		},
		{
			"inputs": [],
			"name": "mWidthdrawRewardFromOldStaking",
			"outputs": [
				{
					"internalType": "uint256",
					"name": "",
					"type": "uint256"
				}
			],
			"stateMutability": "view",
			"type": "function"
		},
		{
			"inputs": [],
			"name": "minStakingAmount",
			"outputs": [
				{
					"internalType": "uint256",
					"name": "",
					"type": "uint256"
				}
			],
			"stateMutability": "view",
			"type": "function"
		},
		{
			"inputs": [],
			"name": "paused",
			"outputs": [
				{
					"internalType": "bool",
					"name": "",
					"type": "bool"
				}
			],
			"stateMutability": "view",
			"type": "function"
		},
		{
			"inputs": [],
			"name": "remainReward",
			"outputs": [
				{
					"internalType": "uint256",
					"name": "",
					"type": "uint256"
				}
			],
			"stateMutability": "view",
			"type": "function"
		},
		{
			"inputs": [],
			"name": "requireSync",
			"outputs": [
				{
					"internalType": "bool",
					"name": "",
					"type": "bool"
				}
			],
			"stateMutability": "view",
			"type": "function"
		},
		{
			"inputs": [
				{
					"internalType": "address",
					"name": "_user",
					"type": "address"
				}
			],
			"name": "rewardOf",
			"outputs": [
				{
					"internalType": "uint256",
					"name": "",
					"type": "uint256"
				}
			],
			"stateMutability": "view",
			"type": "function"
		},
		{
			"inputs": [],
			"name": "rewardPerBlock",
			"outputs": [
				{
					"internalType": "uint256",
					"name": "",
					"type": "uint256"
				}
			],
			"stateMutability": "view",
			"type": "function"
		},
		{
			"inputs": [
				{
					"internalType": "address",
					"name": "_candidate",
					"type": "address"
				}
			],
			"name": "setCandidate",
			"outputs": [],
			"stateMutability": "nonpayable",
			"type": "function"
		},
		{
			"inputs": [
				{
					"internalType": "uint256",
					"name": "_newEndBlock",
					"type": "uint256"
				}
			],
			"name": "setEndBlock",
			"outputs": [],
			"stateMutability": "nonpayable",
			"type": "function"
		},
		{
			"inputs": [
				{
					"internalType": "address",
					"name": "_linaToken",
					"type": "address"
				}
			],
			"name": "setLinaToken",
			"outputs": [],
			"stateMutability": "nonpayable",
			"type": "function"
		},
		{
			"inputs": [
				{
					"internalType": "uint256",
					"name": "_minStakingAmount",
					"type": "uint256"
				}
			],
			"name": "setMinStakingAmount",
			"outputs": [],
			"stateMutability": "nonpayable",
			"type": "function"
		},
		{
			"inputs": [
				{
					"internalType": "bool",
					"name": "_paused",
					"type": "bool"
				}
			],
			"name": "setPaused",
			"outputs": [],
			"stateMutability": "nonpayable",
			"type": "function"
		},
		{
			"inputs": [
				{
					"internalType": "uint256",
					"name": "newtime",
					"type": "uint256"
				}
			],
			"name": "setRewardLockTime",
			"outputs": [],
			"stateMutability": "nonpayable",
			"type": "function"
		},
		{
			"inputs": [
				{
					"internalType": "uint256",
					"name": "_limit",
					"type": "uint256"
				}
			],
			"name": "setStakingListLimit",
			"outputs": [],
			"stateMutability": "nonpayable",
			"type": "function"
		},
		{
			"inputs": [
				{
					"internalType": "address",
					"name": "target",
					"type": "address"
				},
				{
					"internalType": "uint256",
					"name": "locktime",
					"type": "uint256"
				}
			],
			"name": "setTransLock",
			"outputs": [],
			"stateMutability": "nonpayable",
			"type": "function"
		},
		{
			"inputs": [
				{
					"internalType": "uint256",
					"name": "amount",
					"type": "uint256"
				}
			],
			"name": "staking",
			"outputs": [
				{
					"internalType": "bool",
					"name": "",
					"type": "bool"
				}
			],
			"stateMutability": "nonpayable",
			"type": "function"
		},
		{
			"inputs": [
				{
					"internalType": "address",
					"name": "account",
					"type": "address"
				}
			],
			"name": "stakingBalanceOf",
			"outputs": [
				{
					"internalType": "uint256",
					"name": "",
					"type": "uint256"
				}
			],
			"stateMutability": "view",
			"type": "function"
		},
		{
			"inputs": [],
			"name": "stakingStorage",
			"outputs": [
				{
					"internalType": "contract LnLinearStakingStorage",
					"name": "",
					"type": "address"
				}
			],
			"stateMutability": "view",
			"type": "function"
		},
		{
			"inputs": [],
			"name": "startBlock",
			"outputs": [
				{
					"internalType": "uint256",
					"name": "",
					"type": "uint256"
				}
			],
			"stateMutability": "view",
			"type": "function"
		},
		{
			"inputs": [
				{
					"internalType": "address",
					"name": "",
					"type": "address"
				}
			],
			"name": "syncUserInfo",
			"outputs": [
				{
					"internalType": "bool",
					"name": "",
					"type": "bool"
				}
			],
			"stateMutability": "view",
			"type": "function"
		},
		{
			"inputs": [
				{
					"internalType": "address",
					"name": "_user",
					"type": "address"
				}
			],
			"name": "syncUserInfoData",
			"outputs": [
				{
					"internalType": "bool",
					"name": "",
					"type": "bool"
				}
			],
			"stateMutability": "nonpayable",
			"type": "function"
		},
		{
			"inputs": [
				{
					"internalType": "uint256",
					"name": "amount",
					"type": "uint256"
				}
			],
			"name": "transTokens",
			"outputs": [],
			"stateMutability": "nonpayable",
			"type": "function"
		},
		{
			"inputs": [
				{
					"internalType": "address",
					"name": "",
					"type": "address"
				}
			],
			"name": "userInfo",
			"outputs": [
				{
					"internalType": "uint256",
					"name": "reward",
					"type": "uint256"
				},
				{
					"internalType": "uint256",
					"name": "amount",
					"type": "uint256"
				},
				{
					"internalType": "uint256",
					"name": "rewardDebt",
					"type": "uint256"
				}
			],
			"stateMutability": "view",
			"type": "function"
		}
	]
}