{
  "contractName": "HelperPushStakingData",
  "abi": [
    {
      "inputs": [
        {
          "internalType": "address",
          "name": "_admin",
          "type": "address"
        }
      ],
      "stateMutability": "nonpayable",
      "type": "constructor"
    },
    {
      "anonymous": false,
      "inputs": [
        {
          "indexed": false,
          "internalType": "address",
          "name": "oldAdmin",
          "type": "address"
        },
        {
          "indexed": false,
          "internalType": "address",
          "name": "newAdmin",
          "type": "address"
        }
      ],
      "name": "AdminChanged",
      "type": "event"
    },
    {
      "anonymous": false,
      "inputs": [
        {
          "indexed": false,
          "internalType": "address",
          "name": "oldCandidate",
          "type": "address"
        },
        {
          "indexed": false,
          "internalType": "address",
          "name": "newCandidate",
          "type": "address"
        }
      ],
      "name": "candidateChanged",
      "type": "event"
    },
    {
      "inputs": [],
      "name": "admin",
      "outputs": [
        {
          "internalType": "address",
          "name": "",
          "type": "address"
        }
      ],
      "stateMutability": "view",
      "type": "function"
    },
    {
      "inputs": [],
      "name": "becomeAdmin",
      "outputs": [],
      "stateMutability": "nonpayable",
      "type": "function"
    },
    {
      "inputs": [],
      "name": "candidate",
      "outputs": [
        {
          "internalType": "address",
          "name": "",
          "type": "address"
        }
      ],
      "stateMutability": "view",
      "type": "function"
    },
    {
      "inputs": [
        {
          "internalType": "address",
          "name": "_candidate",
          "type": "address"
        }
      ],
      "name": "setCandidate",
      "outputs": [],
      "stateMutability": "nonpayable",
      "type": "function"
    },
    {
      "inputs": [
        {
          "internalType": "address",
          "name": "_storage",
          "type": "address"
        },
        {
          "internalType": "address[]",
          "name": "account",
          "type": "address[]"
        },
        {
          "internalType": "uint256[]",
          "name": "amount",
          "type": "uint256[]"
        },
        {
          "internalType": "uint256[]",
          "name": "staketime",
          "type": "uint256[]"
        }
      ],
      "name": "pushStakingData",
      "outputs": [],
      "stateMutability": "nonpayable",
      "type": "function"
    }
  ],
  "bytecode": "0x608060405234801561001057600080fd5b50604051610b2d380380610b2d8339818101604052602081101561003357600080fd5b810190808051906020019092919050505080600073ffffffffffffffffffffffffffffffffffffffff168173ffffffffffffffffffffffffffffffffffffffff1614156100e8576040517f08c379a00000000000000000000000000000000000000000000000000000000081526004018080602001828103825260198152602001807f61646d696e20616464726573732063616e6e6f7420626520300000000000000081525060200191505060405180910390fd5b806000806101000a81548173ffffffffffffffffffffffffffffffffffffffff021916908373ffffffffffffffffffffffffffffffffffffffff1602179055507f7e644d79422f17c01e4894b5f4f588d331ebfa28653d42ae832dc59e38c9798f600082604051808373ffffffffffffffffffffffffffffffffffffffff1681526020018273ffffffffffffffffffffffffffffffffffffffff1681526020019250505060405180910390a15050610988806101a56000396000f3fe608060405234801561001057600080fd5b50600436106100575760003560e01c806307880b7f1461005c5780631a8526f2146100a057806325971dff146101e35780636c8381f8146101ed578063f851a44014610221575b600080fd5b61009e6004803603602081101561007257600080fd5b81019080803573ffffffffffffffffffffffffffffffffffffffff169060200190929190505050610255565b005b6101e1600480360360808110156100b657600080fd5b81019080803573ffffffffffffffffffffffffffffffffffffffff169060200190929190803590602001906401000000008111156100f357600080fd5b82018360208201111561010557600080fd5b8035906020019184602083028401116401000000008311171561012757600080fd5b90919293919293908035906020019064010000000081111561014857600080fd5b82018360208201111561015a57600080fd5b8035906020019184602083028401116401000000008311171561017c57600080fd5b90919293919293908035906020019064010000000081111561019d57600080fd5b8201836020820111156101af57600080fd5b803590602001918460208302840111640100000000831117156101d157600080fd5b90919293919293905050506103f2565b005b6101eb610700565b005b6101f56108d9565b604051808273ffffffffffffffffffffffffffffffffffffffff16815260200191505060405180910390f35b6102296108ff565b604051808273ffffffffffffffffffffffffffffffffffffffff16815260200191505060405180910390f35b60008054906101000a900473ffffffffffffffffffffffffffffffffffffffff1673ffffffffffffffffffffffffffffffffffffffff163373ffffffffffffffffffffffffffffffffffffffff16146102f9576040517f08c379a000000000000000000000000000000000000000000000000000000000815260040180806020018281038252602f815260200180610924602f913960400191505060405180910390fd5b6000600160009054906101000a900473ffffffffffffffffffffffffffffffffffffffff16905081600160006101000a81548173ffffffffffffffffffffffffffffffffffffffff021916908373ffffffffffffffffffffffffffffffffffffffff1602179055507f0faed18be9e8f4d4c05dfbcc80ea2c97a0be729614d766827778f60890c02cab81600160009054906101000a900473ffffffffffffffffffffffffffffffffffffffff16604051808373ffffffffffffffffffffffffffffffffffffffff1681526020018273ffffffffffffffffffffffffffffffffffffffff1681526020019250505060405180910390a15050565b6000868690501161046b576040517f08c379a00000000000000000000000000000000000000000000000000000000081526004018080602001828103825260118152602001807f6172726179206c656e677468207a65726f00000000000000000000000000000081525060200191505060405180910390fd5b8383905086869050146104e6576040517f08c379a00000000000000000000000000000000000000000000000000000000081526004018080602001828103825260138152602001807f6172726179206c656e677468206e6f742065710000000000000000000000000081525060200191505060405180910390fd5b818190508686905014610561576040517f08c379a00000000000000000000000000000000000000000000000000000000081526004018080602001828103825260138152602001807f6172726179206c656e677468206e6f742065710000000000000000000000000081525060200191505060405180910390fd5b600087905060005b878790508110156106f5578173ffffffffffffffffffffffffffffffffffffffff166344bc7da289898481811061059c57fe5b9050602002013573ffffffffffffffffffffffffffffffffffffffff168888858181106105c557fe5b905060200201358787868181106105d857fe5b905060200201356040518463ffffffff1660e01b8152600401808473ffffffffffffffffffffffffffffffffffffffff1681526020018381526020018281526020019350505050600060405180830381600087803b15801561063957600080fd5b505af115801561064d573d6000803e3d6000fd5b505050508173ffffffffffffffffffffffffffffffffffffffff1663fe042f0885858481811061067957fe5b9050602002013588888581811061068c57fe5b905060200201356040518363ffffffff1660e01b81526004018083815260200182815260200192505050600060405180830381600087803b1580156106d057600080fd5b505af11580156106e4573d6000803e3d6000fd5b505050508080600101915050610569565b505050505050505050565b600160009054906101000a900473ffffffffffffffffffffffffffffffffffffffff1673ffffffffffffffffffffffffffffffffffffffff163373ffffffffffffffffffffffffffffffffffffffff16146107c3576040517f08c379a000000000000000000000000000000000000000000000000000000000815260040180806020018281038252601f8152602001807f4f6e6c792063616e6469646174652063616e206265636f6d652061646d696e0081525060200191505060405180910390fd5b60008060009054906101000a900473ffffffffffffffffffffffffffffffffffffffff169050600160009054906101000a900473ffffffffffffffffffffffffffffffffffffffff166000806101000a81548173ffffffffffffffffffffffffffffffffffffffff021916908373ffffffffffffffffffffffffffffffffffffffff1602179055507f7e644d79422f17c01e4894b5f4f588d331ebfa28653d42ae832dc59e38c9798f8160008054906101000a900473ffffffffffffffffffffffffffffffffffffffff16604051808373ffffffffffffffffffffffffffffffffffffffff1681526020018273ffffffffffffffffffffffffffffffffffffffff1681526020019250505060405180910390a150565b600160009054906101000a900473ffffffffffffffffffffffffffffffffffffffff1681565b60008054906101000a900473ffffffffffffffffffffffffffffffffffffffff168156fe4f6e6c792074686520636f6e74726163742061646d696e2063616e20706572666f726d207468697320616374696f6ea2646970667358221220414cf656b89f83b13463a19f14b02d72493c630443d3190c6f4765dff8efbfaf64736f6c634300060c0033",
  "immutableReferences": {},
  "source": "// SPDX-License-Identifier: MIT\r\npragma solidity ^0.6.12;\r\n\r\nimport \"./IERC20.sol\";\r\nimport \"./LnAdmin.sol\";\r\nimport \"./LnOperatorModifier.sol\";\r\nimport \"@openzeppelin/contracts/math/SafeMath.sol\";\r\nimport \"@openzeppelin/contracts/utils/Pausable.sol\";\r\nimport \"./LnAccessControl.sol\";\r\nimport \"./LnLinearStaking.sol\";\r\nimport \"./SafeDecimalMath.sol\";\r\n\r\n\r\ncontract LnRewardCalculator  {\r\n    using SafeMath for uint256;\r\n\r\n    struct UserInfo {\r\n        uint256 reward;\r\n        uint256 amount;     \r\n        uint256 rewardDebt; \r\n    }\r\n\r\n    struct PoolInfo {\r\n        uint256 amount;           \r\n        uint256 lastRewardBlock;  \r\n        uint256 accRewardPerShare;\r\n    }\r\n\r\n    uint256 public rewardPerBlock;\r\n\r\n    PoolInfo public mPoolInfo;\r\n    mapping (address => UserInfo) public userInfo;\r\n\r\n    uint256 public startBlock;\r\n    uint256 public remainReward;\r\n    uint256 public accReward;\r\n\r\n    constructor( uint256 _rewardPerBlock, uint256 _startBlock ) public {\r\n        rewardPerBlock = _rewardPerBlock;\r\n        startBlock = _startBlock;\r\n        mPoolInfo.lastRewardBlock = startBlock;\r\n    }\r\n\r\n\r\n    function _calcReward( uint256 curBlock, address _user) internal view returns (uint256) {\r\n        PoolInfo storage pool = mPoolInfo;\r\n        UserInfo storage user = userInfo[_user];\r\n        uint256 accRewardPerShare = pool.accRewardPerShare;\r\n        uint256 lpSupply = pool.amount;\r\n        if (curBlock > pool.lastRewardBlock && lpSupply != 0) {\r\n            uint256 multiplier = curBlock.sub( pool.lastRewardBlock, \"cr curBlock sub overflow\" );\r\n            uint256 curReward = multiplier.mul(rewardPerBlock);\r\n            accRewardPerShare = accRewardPerShare.add(curReward.mul(1e20).div(lpSupply));\r\n        }\r\n        uint newReward = user.amount.mul(accRewardPerShare).div(1e20).sub(user.rewardDebt, \"cr newReward sub overflow\");\r\n        return newReward.add( user.reward );\r\n    }\r\n\r\n\r\n    function rewardOf( address _user ) public view returns( uint256 ){\r\n        return userInfo[_user].reward;\r\n    }\r\n\r\n\r\n    function amount( ) public view returns( uint256 ){\r\n        return mPoolInfo.amount;\r\n    }\r\n\r\n    function amountOf( address _user ) public view returns( uint256 ){\r\n        return userInfo[_user].amount;\r\n    }\r\n\r\n    function getUserInfo(address _user) public view returns(uint256,uint256,uint256) {\r\n        return (userInfo[_user].reward, userInfo[_user].amount, userInfo[_user].rewardDebt);\r\n    }\r\n\r\n    function getPoolInfo() public view returns(uint256,uint256,uint256) {\r\n        return (mPoolInfo.amount, mPoolInfo.lastRewardBlock, mPoolInfo.accRewardPerShare);\r\n    }\r\n\r\n    function _update( uint256 curBlock ) internal {\r\n        PoolInfo storage pool = mPoolInfo;\r\n        if (curBlock <= pool.lastRewardBlock) {\r\n            return;\r\n        }\r\n        uint256 lpSupply = pool.amount;\r\n        if (lpSupply == 0) {\r\n            pool.lastRewardBlock = curBlock;\r\n            return;\r\n        }\r\n        uint256 multiplier = curBlock.sub( pool.lastRewardBlock, \"_update curBlock sub overflow\" );\r\n        uint256 curReward = multiplier.mul(rewardPerBlock);\r\n        \r\n        remainReward = remainReward.add( curReward );\r\n        accReward = accReward.add( curReward );\r\n\r\n        pool.accRewardPerShare = pool.accRewardPerShare.add(curReward.mul(1e20).div(lpSupply));\r\n        pool.lastRewardBlock = curBlock;\r\n    }\r\n\r\n    function _deposit( uint256 curBlock, address _addr, uint256 _amount) internal {\r\n        PoolInfo storage pool = mPoolInfo;\r\n        UserInfo storage user = userInfo[ _addr];\r\n        _update( curBlock );\r\n        if (user.amount > 0) {\r\n            uint256 pending = user.amount.mul(pool.accRewardPerShare).div(1e20).sub(user.rewardDebt, \"_deposit pending sub overflow\");\r\n            if(pending > 0) {\r\n                reward( user, pending );\r\n            }\r\n        }\r\n        if(_amount > 0) {\r\n            user.amount = user.amount.add(_amount);\r\n            pool.amount = pool.amount.add(_amount);\r\n        }\r\n        user.rewardDebt = user.amount.mul(pool.accRewardPerShare).div(1e20);\r\n    }\r\n\r\n    function _withdraw( uint256 curBlock, address _addr, uint256 _amount) internal {\r\n        PoolInfo storage pool = mPoolInfo;\r\n        UserInfo storage user = userInfo[_addr];\r\n        require(user.amount >= _amount, \"_withdraw: not good\");\r\n        _update( curBlock );\r\n        uint256 pending = user.amount.mul(pool.accRewardPerShare).div(1e20).sub(user.rewardDebt, \"_withdraw pending sub overflow\");\r\n        if(pending > 0) {\r\n            reward( user, pending );\r\n        }\r\n        if(_amount > 0) {\r\n            user.amount = user.amount.sub(_amount, \"_withdraw user.amount sub overflow\");\r\n            pool.amount = pool.amount.sub(_amount, \"_withdraw pool.amount sub overflow\");\r\n        }\r\n        user.rewardDebt = user.amount.mul(pool.accRewardPerShare).div(1e20);\r\n    }\r\n\r\n    function reward( UserInfo storage user, uint256 _amount) internal {\r\n        if (_amount > remainReward) {\r\n            _amount = remainReward;\r\n        }\r\n        remainReward = remainReward.sub( _amount, \"reward remainReward sub overflow\");\r\n        user.reward = user.reward.add( _amount );\r\n    }\r\n\r\n    function _claim( address _addr ) internal {\r\n        UserInfo storage user = userInfo[_addr];\r\n        if( user.reward > 0 )\r\n        {\r\n            user.reward = 0;\r\n        }\r\n    }\r\n\r\n}\r\n\r\ncontract LnRewardCalculatorTest is LnRewardCalculator{\r\n    constructor( uint256 _rewardPerBlock, uint256 _startBlock ) public \r\n        LnRewardCalculator( _rewardPerBlock, _startBlock ) {\r\n    }\r\n\r\n    function deposit( uint256 curBlock, address _addr, uint256 _amount) public {\r\n        _deposit( curBlock, _addr, _amount );\r\n    }\r\n\r\n    function withdraw( uint256 curBlock, address _addr, uint256 _amount) public {\r\n        _withdraw( curBlock, _addr, _amount );\r\n    }\r\n    function calcReward( uint256 curBlock, address _user) public view returns (uint256) {\r\n        return _calcReward( curBlock, _user);\r\n    }\r\n\r\n}\r\n\r\n\r\ncontract LnSimpleStaking is LnAdmin, Pausable, ILinearStaking, LnRewardCalculator {\r\n    using SafeMath for uint256;\r\n    using SafeDecimalMath for uint256;\r\n\r\n    IERC20 public linaToken; // lina token proxy address\r\n    LnLinearStakingStorage public stakingStorage;\r\n    uint256 public mEndBlock;\r\n    address public mOldStaking;\r\n    uint256 public mOldAmount;\r\n    uint256 public mWidthdrawRewardFromOldStaking;\r\n\r\n    uint256 public claimRewardLockTime = 1620806400; // 2021-5-12\r\n\r\n    mapping (address => uint ) public mOldReward;\r\n\r\n    constructor(\r\n        address _admin,\r\n        address _linaToken,\r\n        address _storage, uint256 _rewardPerBlock, uint256 _startBlock, uint256 _endBlock ) \r\n            public LnAdmin(_admin) LnRewardCalculator(_rewardPerBlock, _startBlock ){\r\n        linaToken = IERC20(_linaToken);\r\n        stakingStorage = LnLinearStakingStorage(_storage);\r\n        mEndBlock = _endBlock;\r\n    }\r\n\r\n    function setLinaToken(address _linaToken) external onlyAdmin {\r\n        linaToken = IERC20(_linaToken);\r\n    }\r\n\r\n    function setPaused(bool _paused) external onlyAdmin {\r\n        if (_paused) {\r\n            _pause();\r\n        } else {\r\n            _unpause();\r\n        }\r\n    }\r\n\r\n    //////////////////////////////////////////////////////\r\n    event Staking(address indexed who, uint256 value, uint staketime);\r\n    event CancelStaking(address indexed who, uint256 value);\r\n    event Claim(address indexed who, uint256 rewardval, uint256 totalStaking);\r\n\r\n    uint256 public accountStakingListLimit = 50;\r\n    uint256 public minStakingAmount = 1e18; // 1 token\r\n    uint256 public constant PRECISION_UINT = 1e23;\r\n\r\n    function setLinaTokenAddress(address _token) external onlyAdmin {\r\n        linaToken = IERC20(_token);\r\n    }\r\n\r\n    function setStakingListLimit(uint256 _limit) external onlyAdmin {\r\n        accountStakingListLimit = _limit;\r\n    }\r\n\r\n    function setMinStakingAmount(uint256 _minStakingAmount) external onlyAdmin {\r\n        minStakingAmount = _minStakingAmount;\r\n    }\r\n\r\n    function stakingBalanceOf(address account) external override view returns(uint256) {\r\n        uint256 stakingBalance = super.amountOf(account).add( stakingStorage.stakingBalanceOf(account) );\r\n        return stakingBalance;\r\n    }\r\n\r\n    function getStakesdataLength(address account) external view returns(uint256) {\r\n        return stakingStorage.getStakesdataLength(account);\r\n    }\r\n    //--------------------------------------------------------\r\n\r\n    function migrationsOldStaking( address contractAddr, uint amount, uint blockNb ) public onlyAdmin {\r\n        super._deposit( blockNb, contractAddr, amount );\r\n        mOldStaking = contractAddr;\r\n        mOldAmount = amount;\r\n    }\r\n\r\n\r\n    function staking(uint256 amount) public whenNotPaused override returns (bool) {\r\n        stakingStorage.requireInStakingPeriod();\r\n\r\n        require(amount >= minStakingAmount, \"Staking amount too small.\");\r\n        //require(stakingStorage.getStakesdataLength(msg.sender) < accountStakingListLimit, \"Staking list out of limit.\");\r\n\r\n        linaToken.transferFrom(msg.sender, address(this), amount);\r\n     \r\n        uint256 blockNb = block.number;\r\n        if (blockNb > mEndBlock) {\r\n            blockNb = mEndBlock;\r\n        }\r\n        super._deposit( blockNb, msg.sender, amount );\r\n\r\n        emit Staking(msg.sender, amount, block.timestamp);\r\n\r\n        return true;\r\n    }\r\n\r\n    function _widthdrawFromOldStaking( address _addr, uint amount ) internal {\r\n        uint256 blockNb = block.number;\r\n        if (blockNb > mEndBlock) {\r\n            blockNb = mEndBlock;\r\n        }\r\n        \r\n        uint oldStakingAmount = super.amountOf( mOldStaking );\r\n        super._withdraw( blockNb, mOldStaking, amount );\r\n        // sub already withraw reward, then cal portion \r\n        uint reward = super.rewardOf( mOldStaking).sub( mWidthdrawRewardFromOldStaking, \"_widthdrawFromOldStaking reward sub overflow\" )\r\n            .mul( amount ).mul(1e20).div( oldStakingAmount ).div(1e20);\r\n        mWidthdrawRewardFromOldStaking = mWidthdrawRewardFromOldStaking.add( reward );\r\n        mOldReward[ _addr ] = mOldReward[_addr].add( reward );\r\n    }\r\n\r\n    function _cancelStaking(address user, uint256 amount) internal {\r\n        uint256 blockNb = block.number;\r\n        if (blockNb > mEndBlock) {\r\n            blockNb = mEndBlock;\r\n        }\r\n\r\n        uint256 returnAmount = amount;\r\n        uint256 newAmount = super.amountOf(user);\r\n        if (newAmount >= amount) {\r\n            super._withdraw( blockNb, user, amount );\r\n            amount = 0;\r\n        } else {\r\n            if (newAmount > 0) {\r\n                super._withdraw( blockNb, user, newAmount );\r\n                amount = amount.sub(newAmount, \"_cancelStaking amount sub overflow\");\r\n            }\r\n            \r\n            for (uint256 i = stakingStorage.getStakesdataLength(user); i >= 1 ; i--) {\r\n                (uint256 stakingAmount, uint256 staketime) = stakingStorage.getStakesDataByIndex(user, i-1);\r\n                if (amount >= stakingAmount) {\r\n                    amount = amount.sub(stakingAmount, \"_cancelStaking amount sub overflow\");\r\n                    \r\n                    stakingStorage.PopStakesData(user);\r\n                    stakingStorage.SubWeeksTotal(staketime, stakingAmount);\r\n                    _widthdrawFromOldStaking( user, stakingAmount );\r\n\r\n                } else {\r\n                    stakingStorage.StakingDataSub(user, i-1, amount);\r\n                    stakingStorage.SubWeeksTotal(staketime, amount);\r\n                    _widthdrawFromOldStaking( user, amount );\r\n\r\n                    amount = 0;\r\n                }\r\n                if (amount == 0) break;\r\n            }\r\n        }\r\n\r\n        // cancel as many as possible, not fail, that waste gas\r\n        //require(amount == 0, \"Cancel amount too big then staked.\");\r\n        \r\n        linaToken.transfer(msg.sender, returnAmount.sub(amount));\r\n    }\r\n\r\n    function cancelStaking(uint256 amount) public whenNotPaused override returns (bool) {\r\n        //stakingStorage.requireInStakingPeriod();\r\n\r\n        require(amount > 0, \"Invalid amount.\");\r\n\r\n        _cancelStaking(msg.sender, amount);\r\n\r\n        emit CancelStaking(msg.sender, amount);\r\n\r\n        return true;\r\n    }\r\n\r\n    function getTotalReward( uint blockNb, address _user ) public view returns ( uint256 total ){\r\n        if( blockNb > mEndBlock ){\r\n            blockNb = mEndBlock;\r\n        }\r\n        \r\n        // 这里奖励分成了三部分\r\n        // 1,已经从旧奖池中cancel了的\r\n        // 2,还在旧奖池中的\r\n        // 3，在新奖池中的\r\n        total = mOldReward[ _user ];\r\n        uint iMyOldStaking = 0;\r\n        for (uint256 i=0; i < stakingStorage.getStakesdataLength( _user ); i++) {\r\n            (uint256 stakingAmount, ) = stakingStorage.getStakesDataByIndex( _user, i);\r\n            iMyOldStaking = iMyOldStaking.add( stakingAmount );\r\n        }\r\n        if( iMyOldStaking > 0 ){\r\n            uint oldStakingAmount = super.amountOf( mOldStaking );\r\n            uint iReward2 = super._calcReward( blockNb, mOldStaking).sub( mWidthdrawRewardFromOldStaking, \"getTotalReward iReward2 sub overflow\" )\r\n                .mul( iMyOldStaking ).div( oldStakingAmount );\r\n            total = total.add( iReward2 );\r\n        }\r\n\r\n        uint256 reward3 = super._calcReward( blockNb, _user );\r\n        total = total.add( reward3 );\r\n    }\r\n\r\n\r\n    // claim reward\r\n    // Note: 需要提前提前把奖励token转进来\r\n    function claim() public whenNotPaused override returns (bool) {\r\n        //stakingStorage.requireStakingEnd();\r\n        require(block.timestamp > claimRewardLockTime, \"Not time to claim reward\");\r\n\r\n        uint iMyOldStaking = stakingStorage.stakingBalanceOf( msg.sender );\r\n        uint iAmount = super.amountOf( msg.sender );\r\n        _cancelStaking( msg.sender, iMyOldStaking.add( iAmount ));\r\n\r\n        uint iReward = getTotalReward( mEndBlock, msg.sender );\r\n\r\n        _claim( msg.sender );\r\n        mOldReward[ msg.sender ] = 0;\r\n        linaToken.transfer(msg.sender, iReward );\r\n\r\n        emit Claim(msg.sender, iReward, iMyOldStaking.add( iAmount ));\r\n        return true;\r\n    }\r\n\r\n    function setRewardLockTime(uint256 newtime) public onlyAdmin {\r\n        claimRewardLockTime = newtime;\r\n    }\r\n\r\n    function calcReward( uint256 curBlock, address _user) public view returns (uint256) {\r\n        return _calcReward( curBlock, _user);\r\n    }\r\n}\r\n\r\ncontract HelperPushStakingData is LnAdmin {\r\n\r\n    constructor(address _admin) public LnAdmin(_admin) {\r\n\r\n    }\r\n\r\n    function pushStakingData(address _storage, address[] calldata account, uint256[] calldata amount, uint256[] calldata staketime) external {\r\n        require(account.length > 0, \"array length zero\");\r\n        require(account.length == amount.length, \"array length not eq\");\r\n        require(account.length == staketime.length, \"array length not eq\");\r\n\r\n        LnLinearStakingStorage stakingStorage = LnLinearStakingStorage(_storage);\r\n        for (uint256 i=0; i<account.length; i++) {\r\n            stakingStorage.PushStakingData(account[i], amount[i], staketime[i]);\r\n            stakingStorage.AddWeeksTotal(staketime[i], amount[i]);\r\n        }\r\n    }\r\n\r\n    //unstaking.\r\n}\r\n",
  "sourcePath": "/mnt/d/working/linearFinance/LinearFinanceToken/contracts/LnSimpleStaking.sol",
  "compiler": {
    "name": "solc",
    "version": "0.6.12+commit.27d51765.Emscripten.clang"
  },
  "schemaVersion": "3.2.3",
  "updatedAt": "2020-09-22T09:45:57.676Z",
  "devdoc": {
    "kind": "dev",
    "methods": {},
    "version": 1
  },
  "userdoc": {
    "kind": "user",
    "methods": {},
    "version": 1
  }
}