{
  "contractName": "LinearFinance",
  "abi": [
    {
      "inputs": [
        {
          "internalType": "address payable",
          "name": "_proxy",
          "type": "address"
        },
        {
          "internalType": "contract LnTokenStorage",
          "name": "_tokenStorage",
          "type": "address"
        },
        {
          "internalType": "address",
          "name": "_admin",
          "type": "address"
        },
        {
          "internalType": "uint256",
          "name": "_totalSupply",
          "type": "uint256"
        }
      ],
      "stateMutability": "nonpayable",
      "type": "constructor"
    },
    {
      "anonymous": false,
      "inputs": [
        {
          "indexed": false,
          "internalType": "address",
          "name": "oldAdmin",
          "type": "address"
        },
        {
          "indexed": false,
          "internalType": "address",
          "name": "newAdmin",
          "type": "address"
        }
      ],
      "name": "AdminChanged",
      "type": "event"
    },
    {
      "anonymous": false,
      "inputs": [
        {
          "indexed": true,
          "internalType": "address",
          "name": "owner",
          "type": "address"
        },
        {
          "indexed": true,
          "internalType": "address",
          "name": "spender",
          "type": "address"
        },
        {
          "indexed": false,
          "internalType": "uint256",
          "name": "value",
          "type": "uint256"
        }
      ],
      "name": "Approval",
      "type": "event"
    },
    {
      "anonymous": false,
      "inputs": [
        {
          "indexed": true,
          "internalType": "address",
          "name": "who",
          "type": "address"
        },
        {
          "indexed": false,
          "internalType": "uint256",
          "name": "value",
          "type": "uint256"
        }
      ],
      "name": "CancelStaking",
      "type": "event"
    },
    {
      "anonymous": false,
      "inputs": [
        {
          "indexed": true,
          "internalType": "address",
          "name": "who",
          "type": "address"
        },
        {
          "indexed": false,
          "internalType": "uint256",
          "name": "stakeval",
          "type": "uint256"
        },
        {
          "indexed": false,
          "internalType": "uint256",
          "name": "rewardval",
          "type": "uint256"
        },
        {
          "indexed": false,
          "internalType": "uint256",
          "name": "sum",
          "type": "uint256"
        }
      ],
      "name": "Claim",
      "type": "event"
    },
    {
      "anonymous": false,
      "inputs": [
        {
          "indexed": false,
          "internalType": "bool",
          "name": "isPaused",
          "type": "bool"
        }
      ],
      "name": "PauseChanged",
      "type": "event"
    },
    {
      "anonymous": false,
      "inputs": [
        {
          "indexed": false,
          "internalType": "address",
          "name": "proxyAddress",
          "type": "address"
        }
      ],
      "name": "ProxyUpdated",
      "type": "event"
    },
    {
      "anonymous": false,
      "inputs": [
        {
          "indexed": true,
          "internalType": "address",
          "name": "who",
          "type": "address"
        },
        {
          "indexed": false,
          "internalType": "uint256",
          "name": "value",
          "type": "uint256"
        },
        {
          "indexed": false,
          "internalType": "uint256",
          "name": "staketime",
          "type": "uint256"
        }
      ],
      "name": "Staking",
      "type": "event"
    },
    {
      "anonymous": false,
      "inputs": [
        {
          "indexed": false,
          "internalType": "address",
          "name": "newTokenStorage",
          "type": "address"
        }
      ],
      "name": "TokenStorageUpdated",
      "type": "event"
    },
    {
      "anonymous": false,
      "inputs": [
        {
          "indexed": true,
          "internalType": "address",
          "name": "from",
          "type": "address"
        },
        {
          "indexed": true,
          "internalType": "address",
          "name": "to",
          "type": "address"
        },
        {
          "indexed": false,
          "internalType": "uint256",
          "name": "value",
          "type": "uint256"
        }
      ],
      "name": "Transfer",
      "type": "event"
    },
    {
      "anonymous": false,
      "inputs": [
        {
          "indexed": false,
          "internalType": "address",
          "name": "oldCandidate",
          "type": "address"
        },
        {
          "indexed": false,
          "internalType": "address",
          "name": "newCandidate",
          "type": "address"
        }
      ],
      "name": "candidateChanged",
      "type": "event"
    },
    {
      "inputs": [],
      "name": "DECIMALS",
      "outputs": [
        {
          "internalType": "uint8",
          "name": "",
          "type": "uint8"
        }
      ],
      "stateMutability": "view",
      "type": "function",
      "constant": true
    },
    {
      "inputs": [],
      "name": "TOKEN_NAME",
      "outputs": [
        {
          "internalType": "string",
          "name": "",
          "type": "string"
        }
      ],
      "stateMutability": "view",
      "type": "function",
      "constant": true
    },
    {
      "inputs": [],
      "name": "TOKEN_SYMBOL",
      "outputs": [
        {
          "internalType": "string",
          "name": "",
          "type": "string"
        }
      ],
      "stateMutability": "view",
      "type": "function",
      "constant": true
    },
    {
      "inputs": [],
      "name": "accountStakingListLimit",
      "outputs": [
        {
          "internalType": "uint256",
          "name": "",
          "type": "uint256"
        }
      ],
      "stateMutability": "view",
      "type": "function",
      "constant": true
    },
    {
      "inputs": [],
      "name": "admin",
      "outputs": [
        {
          "internalType": "address",
          "name": "",
          "type": "address"
        }
      ],
      "stateMutability": "view",
      "type": "function",
      "constant": true
    },
    {
      "inputs": [
        {
          "internalType": "address",
          "name": "owner",
          "type": "address"
        },
        {
          "internalType": "address",
          "name": "spender",
          "type": "address"
        }
      ],
      "name": "allowance",
      "outputs": [
        {
          "internalType": "uint256",
          "name": "",
          "type": "uint256"
        }
      ],
      "stateMutability": "view",
      "type": "function",
      "constant": true
    },
    {
      "inputs": [
        {
          "internalType": "address",
          "name": "spender",
          "type": "address"
        },
        {
          "internalType": "uint256",
          "name": "value",
          "type": "uint256"
        }
      ],
      "name": "approve",
      "outputs": [
        {
          "internalType": "bool",
          "name": "",
          "type": "bool"
        }
      ],
      "stateMutability": "nonpayable",
      "type": "function"
    },
    {
      "inputs": [
        {
          "internalType": "address",
          "name": "account",
          "type": "address"
        }
      ],
      "name": "balanceOf",
      "outputs": [
        {
          "internalType": "uint256",
          "name": "",
          "type": "uint256"
        }
      ],
      "stateMutability": "view",
      "type": "function",
      "constant": true
    },
    {
      "inputs": [],
      "name": "becomeAdmin",
      "outputs": [],
      "stateMutability": "nonpayable",
      "type": "function"
    },
    {
      "inputs": [],
      "name": "candidate",
      "outputs": [
        {
          "internalType": "address",
          "name": "",
          "type": "address"
        }
      ],
      "stateMutability": "view",
      "type": "function",
      "constant": true
    },
    {
      "inputs": [],
      "name": "decimals",
      "outputs": [
        {
          "internalType": "uint8",
          "name": "",
          "type": "uint8"
        }
      ],
      "stateMutability": "view",
      "type": "function",
      "constant": true
    },
    {
      "inputs": [],
      "name": "integrationProxy",
      "outputs": [
        {
          "internalType": "contract LnProxyBase",
          "name": "",
          "type": "address"
        }
      ],
      "stateMutability": "view",
      "type": "function",
      "constant": true
    },
    {
      "inputs": [],
      "name": "messageSender",
      "outputs": [
        {
          "internalType": "address",
          "name": "",
          "type": "address"
        }
      ],
      "stateMutability": "view",
      "type": "function",
      "constant": true
    },
    {
      "inputs": [],
      "name": "name",
      "outputs": [
        {
          "internalType": "string",
          "name": "",
          "type": "string"
        }
      ],
      "stateMutability": "view",
      "type": "function",
      "constant": true
    },
    {
      "inputs": [],
      "name": "paused",
      "outputs": [
        {
          "internalType": "bool",
          "name": "",
          "type": "bool"
        }
      ],
      "stateMutability": "view",
      "type": "function",
      "constant": true
    },
    {
      "inputs": [],
      "name": "proxy",
      "outputs": [
        {
          "internalType": "contract LnProxyBase",
          "name": "",
          "type": "address"
        }
      ],
      "stateMutability": "view",
      "type": "function",
      "constant": true
    },
    {
      "inputs": [
        {
          "internalType": "address",
          "name": "_candidate",
          "type": "address"
        }
      ],
      "name": "setCandidate",
      "outputs": [],
      "stateMutability": "nonpayable",
      "type": "function"
    },
    {
      "inputs": [
        {
          "internalType": "address payable",
          "name": "_integrationProxy",
          "type": "address"
        }
      ],
      "name": "setIntegrationProxy",
      "outputs": [],
      "stateMutability": "nonpayable",
      "type": "function"
    },
    {
      "inputs": [
        {
          "internalType": "address",
          "name": "sender",
          "type": "address"
        }
      ],
      "name": "setMessageSender",
      "outputs": [],
      "stateMutability": "nonpayable",
      "type": "function"
    },
    {
      "inputs": [
        {
          "internalType": "address payable",
          "name": "_proxy",
          "type": "address"
        }
      ],
      "name": "setProxy",
      "outputs": [],
      "stateMutability": "nonpayable",
      "type": "function"
    },
    {
      "inputs": [
        {
          "internalType": "contract LnTokenStorage",
          "name": "_tokenStorage",
          "type": "address"
        }
      ],
      "name": "setTokenStorage",
      "outputs": [],
      "stateMutability": "nonpayable",
      "type": "function"
    },
    {
      "inputs": [],
      "name": "stakingRewardDenominator",
      "outputs": [
        {
          "internalType": "uint256",
          "name": "",
          "type": "uint256"
        }
      ],
      "stateMutability": "view",
      "type": "function",
      "constant": true
    },
    {
      "inputs": [],
      "name": "stakingRewardFactor",
      "outputs": [
        {
          "internalType": "uint256",
          "name": "",
          "type": "uint256"
        }
      ],
      "stateMutability": "view",
      "type": "function",
      "constant": true
    },
    {
      "inputs": [],
      "name": "symbol",
      "outputs": [
        {
          "internalType": "string",
          "name": "",
          "type": "string"
        }
      ],
      "stateMutability": "view",
      "type": "function",
      "constant": true
    },
    {
      "inputs": [],
      "name": "tokenStorage",
      "outputs": [
        {
          "internalType": "contract LnTokenStorage",
          "name": "",
          "type": "address"
        }
      ],
      "stateMutability": "view",
      "type": "function",
      "constant": true
    },
    {
      "inputs": [],
      "name": "totalSupply",
      "outputs": [
        {
          "internalType": "uint256",
          "name": "",
          "type": "uint256"
        }
      ],
      "stateMutability": "view",
      "type": "function",
      "constant": true
    },
    {
      "inputs": [
        {
          "internalType": "address",
          "name": "to",
          "type": "address"
        },
        {
          "internalType": "uint256",
          "name": "value",
          "type": "uint256"
        }
      ],
      "name": "transfer",
      "outputs": [
        {
          "internalType": "bool",
          "name": "",
          "type": "bool"
        }
      ],
      "stateMutability": "nonpayable",
      "type": "function"
    },
    {
      "inputs": [
        {
          "internalType": "address",
          "name": "from",
          "type": "address"
        },
        {
          "internalType": "address",
          "name": "to",
          "type": "address"
        },
        {
          "internalType": "uint256",
          "name": "value",
          "type": "uint256"
        }
      ],
      "name": "transferFrom",
      "outputs": [
        {
          "internalType": "bool",
          "name": "",
          "type": "bool"
        }
      ],
      "stateMutability": "nonpayable",
      "type": "function"
    },
    {
      "inputs": [
        {
          "internalType": "address",
          "name": "account",
          "type": "address"
        },
        {
          "internalType": "uint256",
          "name": "amount",
          "type": "uint256"
        }
      ],
      "name": "mint",
      "outputs": [],
      "stateMutability": "nonpayable",
      "type": "function"
    },
    {
      "inputs": [
        {
          "internalType": "bool",
          "name": "_paused",
          "type": "bool"
        }
      ],
      "name": "setPaused",
      "outputs": [],
      "stateMutability": "nonpayable",
      "type": "function"
    },
    {
      "inputs": [
        {
          "internalType": "uint256",
          "name": "amount",
          "type": "uint256"
        }
      ],
      "name": "staking",
      "outputs": [
        {
          "internalType": "bool",
          "name": "",
          "type": "bool"
        }
      ],
      "stateMutability": "nonpayable",
      "type": "function"
    },
    {
      "inputs": [
        {
          "internalType": "uint256",
          "name": "amount",
          "type": "uint256"
        }
      ],
      "name": "cancelStaking",
      "outputs": [
        {
          "internalType": "bool",
          "name": "",
          "type": "bool"
        }
      ],
      "stateMutability": "nonpayable",
      "type": "function"
    },
    {
      "inputs": [],
      "name": "claim",
      "outputs": [
        {
          "internalType": "bool",
          "name": "",
          "type": "bool"
        }
      ],
      "stateMutability": "nonpayable",
      "type": "function"
    },
    {
      "inputs": [
        {
          "internalType": "uint256",
          "name": "factor",
          "type": "uint256"
        }
      ],
      "name": "set_stakingRewardFactor",
      "outputs": [],
      "stateMutability": "nonpayable",
      "type": "function"
    },
    {
      "inputs": [],
      "name": "rewardFactor",
      "outputs": [
        {
          "internalType": "uint256",
          "name": "",
          "type": "uint256"
        },
        {
          "internalType": "uint256",
          "name": "",
          "type": "uint256"
        }
      ],
      "stateMutability": "view",
      "type": "function",
      "constant": true
    },
    {
      "inputs": [
        {
          "internalType": "uint256",
          "name": "stakingendtime",
          "type": "uint256"
        },
        {
          "internalType": "uint256",
          "name": "claimstarttime",
          "type": "uint256"
        }
      ],
      "name": "set_StakingPeriod",
      "outputs": [],
      "stateMutability": "nonpayable",
      "type": "function"
    },
    {
      "inputs": [],
      "name": "stakingPeriod",
      "outputs": [
        {
          "internalType": "uint256",
          "name": "",
          "type": "uint256"
        },
        {
          "internalType": "uint256",
          "name": "",
          "type": "uint256"
        }
      ],
      "stateMutability": "view",
      "type": "function",
      "constant": true
    },
    {
      "inputs": [
        {
          "internalType": "address",
          "name": "account",
          "type": "address"
        }
      ],
      "name": "stakingBalanceOf",
      "outputs": [
        {
          "internalType": "uint256",
          "name": "",
          "type": "uint256"
        }
      ],
      "stateMutability": "view",
      "type": "function",
      "constant": true
    }
  ],
  "bytecode": "0x60806040526000600960016101000a81548160ff021916908315150217905550635f2d531e600b5562015180600b5401600c55600a600d556032600e553480156200004957600080fd5b50604051620047c2380380620047c2833981810160405260808110156200006f57600080fd5b810190808051906020019092919080519060200190929190805190602001909291908051906020019092919050505083836040518060400160405280601481526020017f4c696e6561722046696e616e636520546f6b656e0000000000000000000000008152506040518060400160405280600481526020017f4c494e4100000000000000000000000000000000000000000000000000000000815250846012878681600073ffffffffffffffffffffffffffffffffffffffff168173ffffffffffffffffffffffffffffffffffffffff161415620001b6576040517f08c379a00000000000000000000000000000000000000000000000000000000081526004018080602001828103825260198152602001807f61646d696e20616464726573732063616e6e6f7420626520300000000000000081525060200191505060405180910390fd5b806000806101000a81548173ffffffffffffffffffffffffffffffffffffffff021916908373ffffffffffffffffffffffffffffffffffffffff1602179055507f7e644d79422f17c01e4894b5f4f588d331ebfa28653d42ae832dc59e38c9798f600082604051808373ffffffffffffffffffffffffffffffffffffffff1681526020018273ffffffffffffffffffffffffffffffffffffffff1681526020019250505060405180910390a150600073ffffffffffffffffffffffffffffffffffffffff1660008054906101000a900473ffffffffffffffffffffffffffffffffffffffff1673ffffffffffffffffffffffffffffffffffffffff16141562000327576040517f08c379a00000000000000000000000000000000000000000000000000000000081526004018080602001828103825260118152602001807f41646d696e206d7573742062652073657400000000000000000000000000000081525060200191505060405180910390fd5b80600260006101000a81548173ffffffffffffffffffffffffffffffffffffffff021916908373ffffffffffffffffffffffffffffffffffffffff1602179055507ffc80377ca9c49cc11ae6982f390a42db976d5530af7c43889264b13fbbd7c57e81604051808273ffffffffffffffffffffffffffffffffffffffff16815260200191505060405180910390a15085600560006101000a81548173ffffffffffffffffffffffffffffffffffffffff021916908373ffffffffffffffffffffffffffffffffffffffff16021790555084600690805190602001906200040f9291906200045c565b508360079080519060200190620004289291906200045c565b508260088190555081600960006101000a81548160ff021916908360ff160217905550505050505050505050505062000502565b828054600181600116156101000203166002900490600052602060002090601f016020900481019282601f106200049f57805160ff1916838001178555620004d0565b82800160010185558215620004d0579182015b82811115620004cf578251825591602001919060010190620004b2565b5b509050620004df9190620004e3565b5090565b5b80821115620004fe576000816000905550600101620004e4565b5090565b6142b080620005126000396000f3fe608060405234801561001057600080fd5b50600436106102325760003560e01c806370a0823111610130578063b199efb5116100b8578063dd62ed3e1161007c578063dd62ed3e14610ae1578063e374b0ba14610b59578063ec55688914610b77578063f851a44014610bab578063f873ccb514610bdf57610232565b8063b199efb5146109cc578063b262b9ae14610a00578063bc67f83214610a44578063c03d5b4714610a88578063d67bdd2514610aad57610232565b806397107d6d116100ff57806397107d6d1461087e5780639ab0388b146108c25780639cbdaeb614610906578063a9059cbb1461093a578063b12936591461099e57610232565b806370a082311461074d57806383c11a3e146107a557806394a704ce146107dd57806395d89b41146107fb57610232565b806323b872dd116101be57806340c10f191161018257806340c10f19146106335780634e71d92d146106815780635c975abb146106a157806362e3efdd146106c15780636c8381f81461071957610232565b806323b872dd146104e057806325971dff146105645780632a9053181461056e5780632e0f2625146105f1578063313ce5671461061257610232565b806316c38b3c1161020557806316c38b3c146103a657806318160ddd146103d657806318821400146103f45780631c41ef97146104775780631dbb2a221461049c57610232565b806306fdde031461023757806307880b7f146102ba578063095ea7b3146102fe578063131b0ae714610362575b600080fd5b61023f610bfd565b6040518080602001828103825283818151815260200191508051906020019080838360005b8381101561027f578082015181840152602081019050610264565b50505050905090810190601f1680156102ac5780820380516001836020036101000a031916815260200191505b509250505060405180910390f35b6102fc600480360360208110156102d057600080fd5b81019080803573ffffffffffffffffffffffffffffffffffffffff169060200190929190505050610c9b565b005b61034a6004803603604081101561031457600080fd5b81019080803573ffffffffffffffffffffffffffffffffffffffff16906020019092919080359060200190929190505050610e38565b60405180821515815260200191505060405180910390f35b6103a46004803603602081101561037857600080fd5b81019080803573ffffffffffffffffffffffffffffffffffffffff16906020019092919050505061108d565b005b6103d4600480360360208110156103bc57600080fd5b81019080803515159060200190929190505050611175565b005b6103de61129f565b6040518082815260200191505060405180910390f35b6103fc6112a5565b6040518080602001828103825283818151815260200191508051906020019080838360005b8381101561043c578082015181840152602081019050610421565b50505050905090810190601f1680156104695780820380516001836020036101000a031916815260200191505b509250505060405180910390f35b61047f6112de565b604051808381526020018281526020019250505060405180910390f35b6104c8600480360360208110156104b257600080fd5b81019080803590602001909291905050506112f0565b60405180821515815260200191505060405180910390f35b61054c600480360360608110156104f657600080fd5b81019080803573ffffffffffffffffffffffffffffffffffffffff169060200190929190803573ffffffffffffffffffffffffffffffffffffffff1690602001909291908035906020019092919050505061160e565b60405180821515815260200191505060405180910390f35b61056c611794565b005b61057661196d565b6040518080602001828103825283818151815260200191508051906020019080838360005b838110156105b657808201518184015260208101905061059b565b50505050905090810190601f1680156105e35780820380516001836020036101000a031916815260200191505b509250505060405180910390f35b6105f96119a6565b604051808260ff16815260200191505060405180910390f35b61061a6119ab565b604051808260ff16815260200191505060405180910390f35b61067f6004803603604081101561064957600080fd5b81019080803573ffffffffffffffffffffffffffffffffffffffff169060200190929190803590602001909291905050506119be565b005b610689611a70565b60405180821515815260200191505060405180910390f35b6106a9611ea8565b60405180821515815260200191505060405180910390f35b610703600480360360208110156106d757600080fd5b81019080803573ffffffffffffffffffffffffffffffffffffffff169060200190929190505050611ebb565b6040518082815260200191505060405180910390f35b610721611fbf565b604051808273ffffffffffffffffffffffffffffffffffffffff16815260200191505060405180910390f35b61078f6004803603602081101561076357600080fd5b81019080803573ffffffffffffffffffffffffffffffffffffffff169060200190929190505050611fe5565b6040518082815260200191505060405180910390f35b6107db600480360360408110156107bb57600080fd5b8101908080359060200190929190803590602001909291905050506120b2565b005b6107e5612174565b6040518082815260200191505060405180910390f35b61080361217b565b6040518080602001828103825283818151815260200191508051906020019080838360005b83811015610843578082015181840152602081019050610828565b50505050905090810190601f1680156108705780820380516001836020036101000a031916815260200191505b509250505060405180910390f35b6108c06004803603602081101561089457600080fd5b81019080803573ffffffffffffffffffffffffffffffffffffffff169060200190929190505050612219565b005b6108ee600480360360208110156108d857600080fd5b810190808035906020019092919050505061234e565b60405180821515815260200191505060405180910390f35b61090e612679565b604051808273ffffffffffffffffffffffffffffffffffffffff16815260200191505060405180910390f35b6109866004803603604081101561095057600080fd5b81019080803573ffffffffffffffffffffffffffffffffffffffff1690602001909291908035906020019092919050505061269f565b60405180821515815260200191505060405180910390f35b6109ca600480360360208110156109b457600080fd5b8101908080359060200190929190505050612826565b005b6109d46128d4565b604051808273ffffffffffffffffffffffffffffffffffffffff16815260200191505060405180910390f35b610a4260048036036020811015610a1657600080fd5b81019080803573ffffffffffffffffffffffffffffffffffffffff1690602001909291905050506128fa565b005b610a8660048036036020811015610a5a57600080fd5b81019080803573ffffffffffffffffffffffffffffffffffffffff169060200190929190505050612b99565b005b610a90612cf8565b604051808381526020018281526020019250505060405180910390f35b610ab5612d09565b604051808273ffffffffffffffffffffffffffffffffffffffff16815260200191505060405180910390f35b610b4360048036036040811015610af757600080fd5b81019080803573ffffffffffffffffffffffffffffffffffffffff169060200190929190803573ffffffffffffffffffffffffffffffffffffffff169060200190929190505050612d2f565b6040518082815260200191505060405180910390f35b610b61612e1b565b6040518082815260200191505060405180910390f35b610b7f612e21565b604051808273ffffffffffffffffffffffffffffffffffffffff16815260200191505060405180910390f35b610bb3612e47565b604051808273ffffffffffffffffffffffffffffffffffffffff16815260200191505060405180910390f35b610be7612e6b565b6040518082815260200191505060405180910390f35b60068054600181600116156101000203166002900480601f016020809104026020016040519081016040528092919081815260200182805460018160011615610100020316600290048015610c935780601f10610c6857610100808354040283529160200191610c93565b820191906000526020600020905b815481529060010190602001808311610c7657829003601f168201915b505050505081565b60008054906101000a900473ffffffffffffffffffffffffffffffffffffffff1673ffffffffffffffffffffffffffffffffffffffff163373ffffffffffffffffffffffffffffffffffffffff1614610d3f576040517f08c379a000000000000000000000000000000000000000000000000000000000815260040180806020018281038252602f815260200180614200602f913960400191505060405180910390fd5b6000600160009054906101000a900473ffffffffffffffffffffffffffffffffffffffff16905081600160006101000a81548173ffffffffffffffffffffffffffffffffffffffff021916908373ffffffffffffffffffffffffffffffffffffffff1602179055507f0faed18be9e8f4d4c05dfbcc80ea2c97a0be729614d766827778f60890c02cab81600160009054906101000a900473ffffffffffffffffffffffffffffffffffffffff16604051808373ffffffffffffffffffffffffffffffffffffffff1681526020018273ffffffffffffffffffffffffffffffffffffffff1681526020019250505060405180910390a15050565b6000600260009054906101000a900473ffffffffffffffffffffffffffffffffffffffff1673ffffffffffffffffffffffffffffffffffffffff163373ffffffffffffffffffffffffffffffffffffffff1614158015610ee65750600360009054906101000a900473ffffffffffffffffffffffffffffffffffffffff1673ffffffffffffffffffffffffffffffffffffffff163373ffffffffffffffffffffffffffffffffffffffff1614155b8015610f4057503373ffffffffffffffffffffffffffffffffffffffff16600460009054906101000a900473ffffffffffffffffffffffffffffffffffffffff1673ffffffffffffffffffffffffffffffffffffffff1614155b15610f875733600460006101000a81548173ffffffffffffffffffffffffffffffffffffffff021916908373ffffffffffffffffffffffffffffffffffffffff1602179055505b6000600460009054906101000a900473ffffffffffffffffffffffffffffffffffffffff169050600560009054906101000a900473ffffffffffffffffffffffffffffffffffffffff1673ffffffffffffffffffffffffffffffffffffffff1663da46098c8286866040518463ffffffff1660e01b8152600401808473ffffffffffffffffffffffffffffffffffffffff1681526020018373ffffffffffffffffffffffffffffffffffffffff1681526020018281526020019350505050600060405180830381600087803b15801561105f57600080fd5b505af1158015611073573d6000803e3d6000fd5b50505050611082818585612e71565b600191505092915050565b60008054906101000a900473ffffffffffffffffffffffffffffffffffffffff1673ffffffffffffffffffffffffffffffffffffffff163373ffffffffffffffffffffffffffffffffffffffff1614611131576040517f08c379a000000000000000000000000000000000000000000000000000000000815260040180806020018281038252602f815260200180614200602f913960400191505060405180910390fd5b80600360006101000a81548173ffffffffffffffffffffffffffffffffffffffff021916908373ffffffffffffffffffffffffffffffffffffffff16021790555050565b60008054906101000a900473ffffffffffffffffffffffffffffffffffffffff1673ffffffffffffffffffffffffffffffffffffffff163373ffffffffffffffffffffffffffffffffffffffff1614611219576040517f08c379a000000000000000000000000000000000000000000000000000000000815260040180806020018281038252602f815260200180614200602f913960400191505060405180910390fd5b600960019054906101000a900460ff16151581151514156112395761129c565b80600960016101000a81548160ff0219169083151502179055507f8fb6c181ee25a520cf3dd6565006ef91229fcfe5a989566c2a3b8c115570cec5600960019054906101000a900460ff1660405180821515815260200191505060405180910390a15b50565b60085481565b6040518060400160405280601481526020017f4c696e6561722046696e616e636520546f6b656e00000000000000000000000081525081565b600080600d54620186a0915091509091565b6000600960019054906101000a900460ff1615611358576040517f08c379a000000000000000000000000000000000000000000000000000000000815260040180806020018281038252603c8152602001806141c4603c913960400191505060405180910390fd5b600b5442106113cf576040517f08c379a00000000000000000000000000000000000000000000000000000000081526004018080602001828103825260168152602001807f5374616b696e672073746167652068617320656e642e0000000000000000000081525060200191505060405180910390fd5b670de0b6b3a764000082101561144d576040517f08c379a00000000000000000000000000000000000000000000000000000000081526004018080602001828103825260198152602001807f5374616b696e6720616d6f756e7420746f6f20736d616c6c2e0000000000000081525060200191505060405180910390fd5b600e54600a60003373ffffffffffffffffffffffffffffffffffffffff1673ffffffffffffffffffffffffffffffffffffffff1681526020019081526020016000208054905010611506576040517f08c379a000000000000000000000000000000000000000000000000000000000815260040180806020018281038252601a8152602001807f5374616b696e67206c697374206f7574206f66206c696d69742e00000000000081525060200191505060405180910390fd5b6115103383612fcf565b61151861411c565b6040518060400160405280848152602001428152509050600a60003373ffffffffffffffffffffffffffffffffffffffff1673ffffffffffffffffffffffffffffffffffffffff168152602001908152602001600020819080600181540180825580915050600190039060005260206000209060020201600090919091909150600082015181600001556020820151816001015550503373ffffffffffffffffffffffffffffffffffffffff167fa7cce4e8ff59a515dccbee3a6382e94deb1db79bdb43cf35a51251d41ea395f08442604051808381526020018281526020019250505060405180910390a26001915050919050565b6000600260009054906101000a900473ffffffffffffffffffffffffffffffffffffffff1673ffffffffffffffffffffffffffffffffffffffff163373ffffffffffffffffffffffffffffffffffffffff16141580156116bc5750600360009054906101000a900473ffffffffffffffffffffffffffffffffffffffff1673ffffffffffffffffffffffffffffffffffffffff163373ffffffffffffffffffffffffffffffffffffffff1614155b801561171657503373ffffffffffffffffffffffffffffffffffffffff16600460009054906101000a900473ffffffffffffffffffffffffffffffffffffffff1673ffffffffffffffffffffffffffffffffffffffff1614155b1561175d5733600460006101000a81548173ffffffffffffffffffffffffffffffffffffffff021916908373ffffffffffffffffffffffffffffffffffffffff1602179055505b61178b600460009054906101000a900473ffffffffffffffffffffffffffffffffffffffff1685858561320c565b90509392505050565b600160009054906101000a900473ffffffffffffffffffffffffffffffffffffffff1673ffffffffffffffffffffffffffffffffffffffff163373ffffffffffffffffffffffffffffffffffffffff1614611857576040517f08c379a000000000000000000000000000000000000000000000000000000000815260040180806020018281038252601f8152602001807f4f6e6c792063616e6469646174652063616e206265636f6d652061646d696e0081525060200191505060405180910390fd5b60008060009054906101000a900473ffffffffffffffffffffffffffffffffffffffff169050600160009054906101000a900473ffffffffffffffffffffffffffffffffffffffff166000806101000a81548173ffffffffffffffffffffffffffffffffffffffff021916908373ffffffffffffffffffffffffffffffffffffffff1602179055507f7e644d79422f17c01e4894b5f4f588d331ebfa28653d42ae832dc59e38c9798f8160008054906101000a900473ffffffffffffffffffffffffffffffffffffffff16604051808373ffffffffffffffffffffffffffffffffffffffff1681526020018273ffffffffffffffffffffffffffffffffffffffff1681526020019250505060405180910390a150565b6040518060400160405280600481526020017f4c494e410000000000000000000000000000000000000000000000000000000081525081565b601281565b600960009054906101000a900460ff1681565b60008054906101000a900473ffffffffffffffffffffffffffffffffffffffff1673ffffffffffffffffffffffffffffffffffffffff163373ffffffffffffffffffffffffffffffffffffffff1614611a62576040517f08c379a000000000000000000000000000000000000000000000000000000000815260040180806020018281038252602f815260200180614200602f913960400191505060405180910390fd5b611a6c82826133df565b5050565b6000600960019054906101000a900460ff1615611ad8576040517f08c379a000000000000000000000000000000000000000000000000000000000815260040180806020018281038252603c8152602001806141c4603c913960400191505060405180910390fd5b600c544211611b4f576040517f08c379a00000000000000000000000000000000000000000000000000000000081526004018080602001828103825260128152602001807f546f6f206561726c7920746f20636c61696d000000000000000000000000000081525060200191505060405180910390fd5b6000600d5411611bc7576040517f08c379a000000000000000000000000000000000000000000000000000000000815260040180806020018281038252601c8152602001807f4e656564207374616b696e67526577617264466163746f72203e20300000000081525060200191505060405180910390fd5b6000806060600a60003373ffffffffffffffffffffffffffffffffffffffff1673ffffffffffffffffffffffffffffffffffffffff168152602001908152602001600020805480602002602001604051908101604052809291908181526020016000905b82821015611c7157838290600052602060002090600202016040518060400160405290816000820154815260200160018201548152505081526020019060010190611c2b565b5050505090506000815111611cee576040517f08c379a00000000000000000000000000000000000000000000000000000000081526004018080602001828103825260108152602001807f4e6f7468696e6720746f20636c61696d0000000000000000000000000000000081525060200191505060405180910390fd5b600062015180905060005b8251811015611dd1576000838281518110611d1057fe5b6020026020010151600001519050611d31818761363990919063ffffffff16565b9550600083611d62868581518110611d4557fe5b602002602001015160200151600c546136c190919063ffffffff16565b81611d6957fe5b0490506000611daa620186a0611d9c600d54611d8e868861370b90919063ffffffff16565b61370b90919063ffffffff16565b61379190919063ffffffff16565b9050611dbf818861363990919063ffffffff16565b96505050508080600101915050611cf9565b50600a60003373ffffffffffffffffffffffffffffffffffffffff1673ffffffffffffffffffffffffffffffffffffffff1681526020019081526020016000206000611e1d9190614136565b6000611e32848661363990919063ffffffff16565b9050611e3e33826133df565b3373ffffffffffffffffffffffffffffffffffffffff167f45c072aa05b9853b5a993de7a28bc332ee01404a628cec1a23ce0f659f842ef186868460405180848152602001838152602001828152602001935050505060405180910390a260019550505050505090565b600960019054906101000a900460ff1681565b600080600090506060600a60008573ffffffffffffffffffffffffffffffffffffffff1673ffffffffffffffffffffffffffffffffffffffff168152602001908152602001600020805480602002602001604051908101604052809291908181526020016000905b82821015611f6957838290600052602060002090600202016040518060400160405290816000820154815260200160018201548152505081526020019060010190611f23565b50505050905060005b8151811015611fb457611fa5828281518110611f8a57fe5b6020026020010151600001518461363990919063ffffffff16565b92508080600101915050611f72565b508192505050919050565b600160009054906101000a900473ffffffffffffffffffffffffffffffffffffffff1681565b6000600560009054906101000a900473ffffffffffffffffffffffffffffffffffffffff1673ffffffffffffffffffffffffffffffffffffffff166370a08231836040518263ffffffff1660e01b8152600401808273ffffffffffffffffffffffffffffffffffffffff16815260200191505060206040518083038186803b15801561207057600080fd5b505afa158015612084573d6000803e3d6000fd5b505050506040513d602081101561209a57600080fd5b81019080805190602001909291905050509050919050565b60008054906101000a900473ffffffffffffffffffffffffffffffffffffffff1673ffffffffffffffffffffffffffffffffffffffff163373ffffffffffffffffffffffffffffffffffffffff1614612156576040517f08c379a000000000000000000000000000000000000000000000000000000000815260040180806020018281038252602f815260200180614200602f913960400191505060405180910390fd5b81811161216257600080fd5b81600b8190555080600c819055505050565b620186a081565b60078054600181600116156101000203166002900480601f0160208091040260200160405190810160405280929190818152602001828054600181600116156101000203166002900480156122115780601f106121e657610100808354040283529160200191612211565b820191906000526020600020905b8154815290600101906020018083116121f457829003601f168201915b505050505081565b60008054906101000a900473ffffffffffffffffffffffffffffffffffffffff1673ffffffffffffffffffffffffffffffffffffffff163373ffffffffffffffffffffffffffffffffffffffff16146122bd576040517f08c379a000000000000000000000000000000000000000000000000000000000815260040180806020018281038252602f815260200180614200602f913960400191505060405180910390fd5b80600260006101000a81548173ffffffffffffffffffffffffffffffffffffffff021916908373ffffffffffffffffffffffffffffffffffffffff1602179055507ffc80377ca9c49cc11ae6982f390a42db976d5530af7c43889264b13fbbd7c57e81604051808273ffffffffffffffffffffffffffffffffffffffff16815260200191505060405180910390a150565b6000600960019054906101000a900460ff16156123b6576040517f08c379a000000000000000000000000000000000000000000000000000000000815260040180806020018281038252603c8152602001806141c4603c913960400191505060405180910390fd5b600b54421061242d576040517f08c379a00000000000000000000000000000000000000000000000000000000081526004018080602001828103825260168152602001807f5374616b696e672073746167652068617320656e642e0000000000000000000081525060200191505060405180910390fd5b600082116124a3576040517f08c379a000000000000000000000000000000000000000000000000000000000815260040180806020018281038252600f8152602001807f496e76616c696420616d6f756e742e000000000000000000000000000000000081525060200191505060405180910390fd5b60008290506000600a60003373ffffffffffffffffffffffffffffffffffffffff1673ffffffffffffffffffffffffffffffffffffffff16815260200190815260200160002090506000818054905090505b600181106125bc57600082600183038154811061250e57fe5b906000526020600020906002020190508060000154861061257a576125408160000154876136c190919063ffffffff16565b95508280548061254c57fe5b600190038181906000526020600020906002020160008082016000905560018201600090555050905561259e565b6125918682600001546136c190919063ffffffff16565b8160000181905550600095505b60008614156125ad57506125bc565b508080600190039150506124f5565b5060008414612616576040517f08c379a000000000000000000000000000000000000000000000000000000000815260040180806020018281038252602281526020018061422f6022913960400191505060405180910390fd5b61262033836133df565b3373ffffffffffffffffffffffffffffffffffffffff167fcac6a9d108b4882699e5afc7402d86f41e4bae2981b76023107009d1fc2b11a3836040518082815260200191505060405180910390a2600192505050919050565b600360009054906101000a900473ffffffffffffffffffffffffffffffffffffffff1681565b6000600260009054906101000a900473ffffffffffffffffffffffffffffffffffffffff1673ffffffffffffffffffffffffffffffffffffffff163373ffffffffffffffffffffffffffffffffffffffff161415801561274d5750600360009054906101000a900473ffffffffffffffffffffffffffffffffffffffff1673ffffffffffffffffffffffffffffffffffffffff163373ffffffffffffffffffffffffffffffffffffffff1614155b80156127a757503373ffffffffffffffffffffffffffffffffffffffff16600460009054906101000a900473ffffffffffffffffffffffffffffffffffffffff1673ffffffffffffffffffffffffffffffffffffffff1614155b156127ee5733600460006101000a81548173ffffffffffffffffffffffffffffffffffffffff021916908373ffffffffffffffffffffffffffffffffffffffff1602179055505b61281b600460009054906101000a900473ffffffffffffffffffffffffffffffffffffffff1684846137db565b506001905092915050565b60008054906101000a900473ffffffffffffffffffffffffffffffffffffffff1673ffffffffffffffffffffffffffffffffffffffff163373ffffffffffffffffffffffffffffffffffffffff16146128ca576040517f08c379a000000000000000000000000000000000000000000000000000000000815260040180806020018281038252602f815260200180614200602f913960400191505060405180910390fd5b80600d8190555050565b600560009054906101000a900473ffffffffffffffffffffffffffffffffffffffff1681565b600260009054906101000a900473ffffffffffffffffffffffffffffffffffffffff1673ffffffffffffffffffffffffffffffffffffffff163373ffffffffffffffffffffffffffffffffffffffff16141580156129a65750600360009054906101000a900473ffffffffffffffffffffffffffffffffffffffff1673ffffffffffffffffffffffffffffffffffffffff163373ffffffffffffffffffffffffffffffffffffffff1614155b8015612a0057503373ffffffffffffffffffffffffffffffffffffffff16600460009054906101000a900473ffffffffffffffffffffffffffffffffffffffff1673ffffffffffffffffffffffffffffffffffffffff1614155b15612a475733600460006101000a81548173ffffffffffffffffffffffffffffffffffffffff021916908373ffffffffffffffffffffffffffffffffffffffff1602179055505b60008054906101000a900473ffffffffffffffffffffffffffffffffffffffff1673ffffffffffffffffffffffffffffffffffffffff16600460009054906101000a900473ffffffffffffffffffffffffffffffffffffffff1673ffffffffffffffffffffffffffffffffffffffff1614612b2a576040517f08c379a000000000000000000000000000000000000000000000000000000000815260040180806020018281038252600e8152602001807f6f6e6c7920666f722061646d696e00000000000000000000000000000000000081525060200191505060405180910390fd5b80600560006101000a81548173ffffffffffffffffffffffffffffffffffffffff021916908373ffffffffffffffffffffffffffffffffffffffff160217905550612b96600560009054906101000a900473ffffffffffffffffffffffffffffffffffffffff166137f1565b50565b600260009054906101000a900473ffffffffffffffffffffffffffffffffffffffff1673ffffffffffffffffffffffffffffffffffffffff163373ffffffffffffffffffffffffffffffffffffffff161480612c425750600360009054906101000a900473ffffffffffffffffffffffffffffffffffffffff1673ffffffffffffffffffffffffffffffffffffffff163373ffffffffffffffffffffffffffffffffffffffff16145b612cb4576040517f08c379a00000000000000000000000000000000000000000000000000000000081526004018080602001828103825260178152602001807f4f6e6c79207468652070726f78792063616e2063616c6c00000000000000000081525060200191505060405180910390fd5b80600460006101000a81548173ffffffffffffffffffffffffffffffffffffffff021916908373ffffffffffffffffffffffffffffffffffffffff16021790555050565b600080600b54600c54915091509091565b600460009054906101000a900473ffffffffffffffffffffffffffffffffffffffff1681565b6000600560009054906101000a900473ffffffffffffffffffffffffffffffffffffffff1673ffffffffffffffffffffffffffffffffffffffff1663dd62ed3e84846040518363ffffffff1660e01b8152600401808373ffffffffffffffffffffffffffffffffffffffff1681526020018273ffffffffffffffffffffffffffffffffffffffff1681526020019250505060206040518083038186803b158015612dd857600080fd5b505afa158015612dec573d6000803e3d6000fd5b505050506040513d6020811015612e0257600080fd5b8101908080519060200190929190505050905092915050565b600d5481565b600260009054906101000a900473ffffffffffffffffffffffffffffffffffffffff1681565b60008054906101000a900473ffffffffffffffffffffffffffffffffffffffff1681565b600e5481565b600260009054906101000a900473ffffffffffffffffffffffffffffffffffffffff1673ffffffffffffffffffffffffffffffffffffffff1663ced7bc7082604051602001808281526020019150506040516020818303038152906040527f8c5be1e5ebec7d5bd14f71427d1e84f3dd0314c0f7b2291e5b200ac8c7c3b925612ef987613943565b612f0287613943565b6040518563ffffffff1660e01b81526004018080602001858152602001848152602001838152602001828103825286818151815260200191508051906020019080838360005b83811015612f63578082015181840152602081019050612f48565b50505050905090810190601f168015612f905780820380516001836020036101000a031916815260200191505b5095505050505050600060405180830381600087803b158015612fb257600080fd5b505af1158015612fc6573d6000803e3d6000fd5b50505050505050565b600073ffffffffffffffffffffffffffffffffffffffff168273ffffffffffffffffffffffffffffffffffffffff161415613055576040517f08c379a00000000000000000000000000000000000000000000000000000000081526004018080602001828103825260218152602001806141a36021913960400191505060405180910390fd5b61306182600083613966565b600560009054906101000a900473ffffffffffffffffffffffffffffffffffffffff1673ffffffffffffffffffffffffffffffffffffffff1663b46310f68361317684600560009054906101000a900473ffffffffffffffffffffffffffffffffffffffff1673ffffffffffffffffffffffffffffffffffffffff166370a08231886040518263ffffffff1660e01b8152600401808273ffffffffffffffffffffffffffffffffffffffff16815260200191505060206040518083038186803b15801561312d57600080fd5b505afa158015613141573d6000803e3d6000fd5b505050506040513d602081101561315757600080fd5b81019080805190602001909291905050506136c190919063ffffffff16565b6040518363ffffffff1660e01b8152600401808373ffffffffffffffffffffffffffffffffffffffff16815260200182815260200192505050600060405180830381600087803b1580156131c957600080fd5b505af11580156131dd573d6000803e3d6000fd5b505050506131f6816008546136c190919063ffffffff16565b600881905550613208826000836139dc565b5050565b6000600560009054906101000a900473ffffffffffffffffffffffffffffffffffffffff1673ffffffffffffffffffffffffffffffffffffffff1663da46098c858761334286600560009054906101000a900473ffffffffffffffffffffffffffffffffffffffff1673ffffffffffffffffffffffffffffffffffffffff1663dd62ed3e8b8d6040518363ffffffff1660e01b8152600401808373ffffffffffffffffffffffffffffffffffffffff1681526020018273ffffffffffffffffffffffffffffffffffffffff1681526020019250505060206040518083038186803b1580156132f957600080fd5b505afa15801561330d573d6000803e3d6000fd5b505050506040513d602081101561332357600080fd5b81019080805190602001909291905050506136c190919063ffffffff16565b6040518463ffffffff1660e01b8152600401808473ffffffffffffffffffffffffffffffffffffffff1681526020018373ffffffffffffffffffffffffffffffffffffffff1681526020018281526020019350505050600060405180830381600087803b1580156133b257600080fd5b505af11580156133c6573d6000803e3d6000fd5b505050506133d5848484613b3a565b9050949350505050565b600073ffffffffffffffffffffffffffffffffffffffff168273ffffffffffffffffffffffffffffffffffffffff161415613482576040517f08c379a000000000000000000000000000000000000000000000000000000000815260040180806020018281038252601f8152602001807f45524332303a206d696e7420746f20746865207a65726f20616464726573730081525060200191505060405180910390fd5b61348e60008383613966565b600560009054906101000a900473ffffffffffffffffffffffffffffffffffffffff1673ffffffffffffffffffffffffffffffffffffffff1663b46310f6836135a384600560009054906101000a900473ffffffffffffffffffffffffffffffffffffffff1673ffffffffffffffffffffffffffffffffffffffff166370a08231886040518263ffffffff1660e01b8152600401808273ffffffffffffffffffffffffffffffffffffffff16815260200191505060206040518083038186803b15801561355a57600080fd5b505afa15801561356e573d6000803e3d6000fd5b505050506040513d602081101561358457600080fd5b810190808051906020019092919050505061363990919063ffffffff16565b6040518363ffffffff1660e01b8152600401808373ffffffffffffffffffffffffffffffffffffffff16815260200182815260200192505050600060405180830381600087803b1580156135f657600080fd5b505af115801561360a573d6000803e3d6000fd5b505050506136238160085461363990919063ffffffff16565b600881905550613635600083836139dc565b5050565b6000808284019050838110156136b7576040517f08c379a000000000000000000000000000000000000000000000000000000000815260040180806020018281038252601b8152602001807f536166654d6174683a206164646974696f6e206f766572666c6f77000000000081525060200191505060405180910390fd5b8091505092915050565b600061370383836040518060400160405280601e81526020017f536166654d6174683a207375627472616374696f6e206f766572666c6f770000815250613f91565b905092915050565b60008083141561371e576000905061378b565b600082840290508284828161372f57fe5b0414613786576040517f08c379a00000000000000000000000000000000000000000000000000000000081526004018080602001828103825260218152602001806141826021913960400191505060405180910390fd5b809150505b92915050565b60006137d383836040518060400160405280601a81526020017f536166654d6174683a206469766973696f6e206279207a65726f000000000000815250614051565b905092915050565b60006137e8848484613b3a565b90509392505050565b600260009054906101000a900473ffffffffffffffffffffffffffffffffffffffff1673ffffffffffffffffffffffffffffffffffffffff1663a0e0048882604051602001808273ffffffffffffffffffffffffffffffffffffffff1681526020019150506040516020818303038152906040527fc6672d9c346511086ff7307e0a33f90d8d8cbef0f7ef2442bd7ca2b5cb14ced36040518363ffffffff1660e01b81526004018080602001838152602001828103825284818151815260200191508051906020019080838360005b838110156138db5780820151818401526020810190506138c0565b50505050905090810190601f1680156139085780820380516001836020036101000a031916815260200191505b509350505050600060405180830381600087803b15801561392857600080fd5b505af115801561393c573d6000803e3d6000fd5b5050505050565b60008173ffffffffffffffffffffffffffffffffffffffff1660001b9050919050565b613971838383614117565b600960019054906101000a900460ff16156139d7576040517f08c379a000000000000000000000000000000000000000000000000000000000815260040180806020018281038252602a815260200180614251602a913960400191505060405180910390fd5b505050565b600260009054906101000a900473ffffffffffffffffffffffffffffffffffffffff1673ffffffffffffffffffffffffffffffffffffffff1663ced7bc7082604051602001808281526020019150506040516020818303038152906040527fddf252ad1be2c89b69c2b068fc378daa952ba7f163c4a11628f55a4df523b3ef613a6487613943565b613a6d87613943565b6040518563ffffffff1660e01b81526004018080602001858152602001848152602001838152602001828103825286818151815260200191508051906020019080838360005b83811015613ace578082015181840152602081019050613ab3565b50505050905090810190601f168015613afb5780820380516001836020036101000a031916815260200191505b5095505050505050600060405180830381600087803b158015613b1d57600080fd5b505af1158015613b31573d6000803e3d6000fd5b50505050505050565b60008073ffffffffffffffffffffffffffffffffffffffff168373ffffffffffffffffffffffffffffffffffffffff1614158015613ba457503073ffffffffffffffffffffffffffffffffffffffff168373ffffffffffffffffffffffffffffffffffffffff1614155b8015613bfe5750600260009054906101000a900473ffffffffffffffffffffffffffffffffffffffff1673ffffffffffffffffffffffffffffffffffffffff168373ffffffffffffffffffffffffffffffffffffffff1614155b613c70576040517f08c379a000000000000000000000000000000000000000000000000000000000815260040180806020018281038252601f8152602001807f43616e6e6f74207472616e7366657220746f207468697320616464726573730081525060200191505060405180910390fd5b613c7b848484613966565b600560009054906101000a900473ffffffffffffffffffffffffffffffffffffffff1673ffffffffffffffffffffffffffffffffffffffff1663b46310f685613d9085600560009054906101000a900473ffffffffffffffffffffffffffffffffffffffff1673ffffffffffffffffffffffffffffffffffffffff166370a082318a6040518263ffffffff1660e01b8152600401808273ffffffffffffffffffffffffffffffffffffffff16815260200191505060206040518083038186803b158015613d4757600080fd5b505afa158015613d5b573d6000803e3d6000fd5b505050506040513d6020811015613d7157600080fd5b81019080805190602001909291905050506136c190919063ffffffff16565b6040518363ffffffff1660e01b8152600401808373ffffffffffffffffffffffffffffffffffffffff16815260200182815260200192505050600060405180830381600087803b158015613de357600080fd5b505af1158015613df7573d6000803e3d6000fd5b50505050600560009054906101000a900473ffffffffffffffffffffffffffffffffffffffff1673ffffffffffffffffffffffffffffffffffffffff1663b46310f684613f1085600560009054906101000a900473ffffffffffffffffffffffffffffffffffffffff1673ffffffffffffffffffffffffffffffffffffffff166370a08231896040518263ffffffff1660e01b8152600401808273ffffffffffffffffffffffffffffffffffffffff16815260200191505060206040518083038186803b158015613ec757600080fd5b505afa158015613edb573d6000803e3d6000fd5b505050506040513d6020811015613ef157600080fd5b810190808051906020019092919050505061363990919063ffffffff16565b6040518363ffffffff1660e01b8152600401808373ffffffffffffffffffffffffffffffffffffffff16815260200182815260200192505050600060405180830381600087803b158015613f6357600080fd5b505af1158015613f77573d6000803e3d6000fd5b50505050613f868484846139dc565b600190509392505050565b600083831115829061403e576040517f08c379a00000000000000000000000000000000000000000000000000000000081526004018080602001828103825283818151815260200191508051906020019080838360005b83811015614003578082015181840152602081019050613fe8565b50505050905090810190601f1680156140305780820380516001836020036101000a031916815260200191505b509250505060405180910390fd5b5060008385039050809150509392505050565b600080831182906140fd576040517f08c379a00000000000000000000000000000000000000000000000000000000081526004018080602001828103825283818151815260200191508051906020019080838360005b838110156140c25780820151818401526020810190506140a7565b50505050905090810190601f1680156140ef5780820380516001836020036101000a031916815260200191505b509250505060405180910390fd5b50600083858161410957fe5b049050809150509392505050565b505050565b604051806040016040528060008152602001600081525090565b5080546000825560020290600052602060002090810190614157919061415a565b50565b5b8082111561417d5760008082016000905560018201600090555060020161415b565b509056fe536166654d6174683a206d756c7469706c69636174696f6e206f766572666c6f7745524332303a206275726e2066726f6d20746865207a65726f20616464726573735468697320616374696f6e2063616e6e6f7420626520706572666f726d6564207768696c652074686520636f6e7472616374206973207061757365644f6e6c792074686520636f6e74726163742061646d696e2063616e20706572666f726d207468697320616374696f6e43616e63656c20616d6f756e7420746f6f20626967207468656e207374616b65642e45524332305061757361626c653a20746f6b656e207472616e73666572207768696c6520706175736564a2646970667358221220b11af9aceefdd05776581934b0024b7db3053737331d2eeee4d1a4d2533022e064736f6c634300060c0033",
  "immutableReferences": {},
  "source": "// SPDX-License-Identifier: MIT\r\npragma solidity ^0.6.12;\r\n\r\nimport \"./LnTokenStorage.sol\";\r\nimport \"./LnErc20Handler.sol\";\r\n\r\ncontract LinearFinance is LnErc20Handler {\r\n    \r\n    string public constant TOKEN_NAME = \"Linear Finance Token\";\r\n    string public constant TOKEN_SYMBOL = \"LINA\";\r\n    uint8 public constant DECIMALS = 18;\r\n\r\n    constructor(\r\n        address payable _proxy,\r\n        LnTokenStorage _tokenStorage,\r\n        address _admin,\r\n        uint _totalSupply\r\n    )\r\n        public\r\n        LnErc20Handler(_proxy, _tokenStorage, TOKEN_NAME, TOKEN_SYMBOL, _totalSupply, DECIMALS, _admin)\r\n    {\r\n    }\r\n    \r\n    //\r\n    function _mint(address account, uint256 amount) private  {\r\n        require(account != address(0), \"ERC20: mint to the zero address\");\r\n        _beforeTokenTransfer(address(0), account, amount);\r\n\r\n        tokenStorage.setBalanceOf(account, tokenStorage.balanceOf(account).add(amount));\r\n        totalSupply = totalSupply.add(amount);\r\n\r\n        emitTransfer(address(0), account, amount);\r\n    }\r\n\r\n    function mint(address account, uint256 amount) external onlyAdmin {\r\n        _mint(account, amount);\r\n    }\r\n\r\n   function _burn(address account, uint256 amount) private {\r\n        require(account != address(0), \"ERC20: burn from the zero address\");\r\n        _beforeTokenTransfer(account, address(0), amount);\r\n\r\n        tokenStorage.setBalanceOf(account, tokenStorage.balanceOf(account).sub(amount));\r\n        totalSupply = totalSupply.sub(amount);\r\n        emitTransfer(account, address(0), amount);\r\n    }\r\n\r\n    function _beforeTokenTransfer(address from, address to, uint256 amount) internal override {\r\n        super._beforeTokenTransfer(from, to, amount);\r\n\r\n        require(!paused, \"ERC20Pausable: token transfer while paused\");\r\n    }\r\n\r\n    ////////////////////////////////////////////////////// paused\r\n    bool public paused = false;\r\n    modifier notPaused {\r\n        require(!paused, \"This action cannot be performed while the contract is paused\");\r\n        _;\r\n    }\r\n    function setPaused(bool _paused) external onlyAdmin {\r\n        if (_paused == paused) {\r\n            return;\r\n        }\r\n        paused = _paused;\r\n        emit PauseChanged(paused);\r\n    }\r\n\r\n    //////////////////////////////////////////////////////\r\n    event Staking(address indexed who, uint256 value, uint staketime);\r\n    event CancelStaking(address indexed who, uint256 value);\r\n    event Claim(address indexed who, uint256 stakeval, uint256 rewardval, uint256 sum);\r\n    event PauseChanged(bool isPaused);\r\n\r\n    struct StakingData {\r\n        uint256 amount;\r\n        uint staketime;\r\n    }\r\n\r\n    address linaToken;\r\n    mapping (address => StakingData[]) private stakesdata;\r\n    uint private stakingEndTime = 1596805918;\r\n    uint private claimStartTime = stakingEndTime + 1 days; // set later\r\n    uint256 internal constant MIN_STAKING_AMOUNT = 1e18;\r\n\r\n    uint256 public stakingRewardFactor = 10;\r\n    uint256 public constant stakingRewardDenominator = 100000;\r\n\r\n    uint256 public accountStakingListLimit = 50;\r\n\r\n    function staking(uint256 amount) public notPaused returns (bool) {\r\n        require(block.timestamp < stakingEndTime, \"Staking stage has end.\");\r\n        require(amount >= MIN_STAKING_AMOUNT, \"Staking amount too small.\");\r\n        require(stakesdata[msg.sender].length < accountStakingListLimit, \"Staking list out of limit.\");\r\n\r\n        _burn(msg.sender, amount);\r\n     \r\n        StakingData memory skaking = StakingData({\r\n            amount: amount,\r\n            staketime: block.timestamp\r\n        });\r\n        stakesdata[msg.sender].push(skaking);\r\n\r\n        emit Staking(msg.sender, amount, block.timestamp);\r\n        return true;\r\n    }\r\n\r\n    function cancelStaking(uint256 amount) public notPaused returns (bool) {\r\n        require(block.timestamp < stakingEndTime, \"Staking stage has end.\");\r\n        require(amount > 0, \"Invalid amount.\");\r\n\r\n        uint256 returnToken = amount;\r\n        StakingData[] storage stakes = stakesdata[msg.sender];\r\n        for (uint256 i = stakes.length; i >= 1 ; i--) {\r\n            StakingData storage lastElement = stakes[i-1];\r\n            if (amount >= lastElement.amount) {\r\n                amount = amount.sub(lastElement.amount);\r\n                stakes.pop();\r\n            } else {\r\n                lastElement.amount = lastElement.amount.sub(amount);\r\n                amount = 0;\r\n            }\r\n            if (amount == 0) break;\r\n        }\r\n        require(amount == 0, \"Cancel amount too big then staked.\");\r\n\r\n        _mint(msg.sender, returnToken);\r\n\r\n        emit CancelStaking(msg.sender, returnToken);\r\n        return true;\r\n    }\r\n\r\n    function claim() public notPaused returns (bool) {\r\n        require(block.timestamp > claimStartTime, \"Too early to claim\");\r\n        require(stakingRewardFactor > 0, \"Need stakingRewardFactor > 0\");\r\n        \r\n        uint256 total = 0;\r\n        uint256 rewardSum = 0;\r\n        StakingData[] memory stakes = stakesdata[msg.sender];\r\n        require(stakes.length > 0, \"Nothing to claim\");\r\n        uint256 timesDelta = 1 days;\r\n        for (uint256 i=0; i < stakes.length; i++) {\r\n            uint256 amount = stakes[i].amount;\r\n            total = total.add(amount); // principal\r\n\r\n            uint256 stakedays = (claimStartTime.sub(stakes[i].staketime)) / timesDelta;\r\n            uint256 reward = amount.mul(stakedays).mul(stakingRewardFactor).div(stakingRewardDenominator);\r\n            rewardSum = rewardSum.add(reward);\r\n        }\r\n        delete stakesdata[msg.sender];\r\n\r\n        uint256 tomint = total.add(rewardSum);\r\n        _mint(msg.sender, tomint);\r\n\r\n        emit Claim(msg.sender, total, rewardSum, tomint);\r\n        return true;\r\n    }\r\n\r\n    function set_stakingRewardFactor(uint256 factor) external onlyAdmin() {\r\n        stakingRewardFactor = factor;\r\n    }\r\n\r\n    function rewardFactor() external view returns(uint256, uint256) {\r\n        return (stakingRewardFactor, stakingRewardDenominator);\r\n    }\r\n\r\n    function set_StakingPeriod(uint stakingendtime, uint claimstarttime) external onlyAdmin() {\r\n        require(claimstarttime > stakingendtime);\r\n\r\n        stakingEndTime = stakingendtime;\r\n        claimStartTime = claimstarttime;\r\n    }\r\n\r\n    function stakingPeriod() external view returns(uint,uint) {\r\n        return (stakingEndTime, claimStartTime);\r\n    }\r\n\r\n    function stakingBalanceOf(address account) external view returns(uint256) {\r\n        uint256 total = 0;\r\n        StakingData[] memory stakes = stakesdata[account];\r\n        for (uint256 i=0; i < stakes.length; i++) {\r\n            total = total.add(stakes[i].amount);\r\n        }\r\n        return total;\r\n    }\r\n}\r\n",
  "sourcePath": "/mnt/d/working/linearFinance/LinearFinanceToken/contracts/LinearFinanceToken.sol",
  "compiler": {
    "name": "solc",
    "version": "0.6.12+commit.27d51765.Emscripten.clang"
  },
  "schemaVersion": "3.2.3",
  "updatedAt": "2020-09-14T07:50:52.810Z",
  "networkType": "ethereum",
  "devdoc": {
    "kind": "dev",
    "methods": {},
    "version": 1
  },
  "userdoc": {
    "kind": "user",
    "methods": {},
    "version": 1
  }
}