{
  "contractName": "LnAccessControl",
  "abi": [
    {
      "inputs": [
        {
          "internalType": "address",
          "name": "admin",
          "type": "address"
        }
      ],
      "stateMutability": "nonpayable",
      "type": "constructor"
    },
    {
      "anonymous": false,
      "inputs": [
        {
          "indexed": true,
          "internalType": "bytes32",
          "name": "role",
          "type": "bytes32"
        },
        {
          "indexed": true,
          "internalType": "bytes32",
          "name": "previousAdminRole",
          "type": "bytes32"
        },
        {
          "indexed": true,
          "internalType": "bytes32",
          "name": "newAdminRole",
          "type": "bytes32"
        }
      ],
      "name": "RoleAdminChanged",
      "type": "event"
    },
    {
      "anonymous": false,
      "inputs": [
        {
          "indexed": true,
          "internalType": "bytes32",
          "name": "role",
          "type": "bytes32"
        },
        {
          "indexed": true,
          "internalType": "address",
          "name": "account",
          "type": "address"
        },
        {
          "indexed": true,
          "internalType": "address",
          "name": "sender",
          "type": "address"
        }
      ],
      "name": "RoleGranted",
      "type": "event"
    },
    {
      "anonymous": false,
      "inputs": [
        {
          "indexed": true,
          "internalType": "bytes32",
          "name": "role",
          "type": "bytes32"
        },
        {
          "indexed": true,
          "internalType": "address",
          "name": "account",
          "type": "address"
        },
        {
          "indexed": true,
          "internalType": "address",
          "name": "sender",
          "type": "address"
        }
      ],
      "name": "RoleRevoked",
      "type": "event"
    },
    {
      "inputs": [],
      "name": "BURN_ASSET_ROLE",
      "outputs": [
        {
          "internalType": "bytes32",
          "name": "",
          "type": "bytes32"
        }
      ],
      "stateMutability": "view",
      "type": "function",
      "constant": true
    },
    {
      "inputs": [],
      "name": "DEBT_SYSTEM",
      "outputs": [
        {
          "internalType": "bytes32",
          "name": "",
          "type": "bytes32"
        }
      ],
      "stateMutability": "view",
      "type": "function",
      "constant": true
    },
    {
      "inputs": [],
      "name": "DEFAULT_ADMIN_ROLE",
      "outputs": [
        {
          "internalType": "bytes32",
          "name": "",
          "type": "bytes32"
        }
      ],
      "stateMutability": "view",
      "type": "function",
      "constant": true
    },
    {
      "inputs": [],
      "name": "ISSUE_ASSET_ROLE",
      "outputs": [
        {
          "internalType": "bytes32",
          "name": "",
          "type": "bytes32"
        }
      ],
      "stateMutability": "view",
      "type": "function",
      "constant": true
    },
    {
      "inputs": [
        {
          "internalType": "bytes32",
          "name": "role",
          "type": "bytes32"
        }
      ],
      "name": "getRoleAdmin",
      "outputs": [
        {
          "internalType": "bytes32",
          "name": "",
          "type": "bytes32"
        }
      ],
      "stateMutability": "view",
      "type": "function",
      "constant": true
    },
    {
      "inputs": [
        {
          "internalType": "bytes32",
          "name": "role",
          "type": "bytes32"
        },
        {
          "internalType": "uint256",
          "name": "index",
          "type": "uint256"
        }
      ],
      "name": "getRoleMember",
      "outputs": [
        {
          "internalType": "address",
          "name": "",
          "type": "address"
        }
      ],
      "stateMutability": "view",
      "type": "function",
      "constant": true
    },
    {
      "inputs": [
        {
          "internalType": "bytes32",
          "name": "role",
          "type": "bytes32"
        }
      ],
      "name": "getRoleMemberCount",
      "outputs": [
        {
          "internalType": "uint256",
          "name": "",
          "type": "uint256"
        }
      ],
      "stateMutability": "view",
      "type": "function",
      "constant": true
    },
    {
      "inputs": [
        {
          "internalType": "bytes32",
          "name": "role",
          "type": "bytes32"
        },
        {
          "internalType": "address",
          "name": "account",
          "type": "address"
        }
      ],
      "name": "grantRole",
      "outputs": [],
      "stateMutability": "nonpayable",
      "type": "function"
    },
    {
      "inputs": [
        {
          "internalType": "bytes32",
          "name": "role",
          "type": "bytes32"
        },
        {
          "internalType": "address",
          "name": "account",
          "type": "address"
        }
      ],
      "name": "hasRole",
      "outputs": [
        {
          "internalType": "bool",
          "name": "",
          "type": "bool"
        }
      ],
      "stateMutability": "view",
      "type": "function",
      "constant": true
    },
    {
      "inputs": [
        {
          "internalType": "bytes32",
          "name": "role",
          "type": "bytes32"
        },
        {
          "internalType": "address",
          "name": "account",
          "type": "address"
        }
      ],
      "name": "renounceRole",
      "outputs": [],
      "stateMutability": "nonpayable",
      "type": "function"
    },
    {
      "inputs": [
        {
          "internalType": "bytes32",
          "name": "role",
          "type": "bytes32"
        },
        {
          "internalType": "address",
          "name": "account",
          "type": "address"
        }
      ],
      "name": "revokeRole",
      "outputs": [],
      "stateMutability": "nonpayable",
      "type": "function"
    },
    {
      "inputs": [
        {
          "internalType": "address",
          "name": "_address",
          "type": "address"
        }
      ],
      "name": "IsAdmin",
      "outputs": [
        {
          "internalType": "bool",
          "name": "",
          "type": "bool"
        }
      ],
      "stateMutability": "view",
      "type": "function",
      "constant": true
    },
    {
      "inputs": [
        {
          "internalType": "address",
          "name": "_address",
          "type": "address"
        }
      ],
      "name": "SetAdmin",
      "outputs": [
        {
          "internalType": "bool",
          "name": "",
          "type": "bool"
        }
      ],
      "stateMutability": "nonpayable",
      "type": "function"
    },
    {
      "inputs": [
        {
          "internalType": "bytes32",
          "name": "roleType",
          "type": "bytes32"
        },
        {
          "internalType": "address[]",
          "name": "addresses",
          "type": "address[]"
        },
        {
          "internalType": "bool[]",
          "name": "setTo",
          "type": "bool[]"
        }
      ],
      "name": "SetRoles",
      "outputs": [],
      "stateMutability": "nonpayable",
      "type": "function"
    },
    {
      "inputs": [
        {
          "internalType": "address[]",
          "name": "issuer",
          "type": "address[]"
        },
        {
          "internalType": "bool[]",
          "name": "setTo",
          "type": "bool[]"
        }
      ],
      "name": "SetIssueAssetRole",
      "outputs": [],
      "stateMutability": "nonpayable",
      "type": "function"
    },
    {
      "inputs": [
        {
          "internalType": "address[]",
          "name": "burner",
          "type": "address[]"
        },
        {
          "internalType": "bool[]",
          "name": "setTo",
          "type": "bool[]"
        }
      ],
      "name": "SetBurnAssetRole",
      "outputs": [],
      "stateMutability": "nonpayable",
      "type": "function"
    },
    {
      "inputs": [
        {
          "internalType": "address[]",
          "name": "_address",
          "type": "address[]"
        },
        {
          "internalType": "bool[]",
          "name": "_setTo",
          "type": "bool[]"
        }
      ],
      "name": "SetDebtSystemRole",
      "outputs": [],
      "stateMutability": "nonpayable",
      "type": "function"
    }
  ],
  "bytecode": "0x60806040523480156200001157600080fd5b506040516200145e3803806200145e833981810160405260208110156200003757600080fd5b81019080805190602001909291905050506200005d6000801b826200006460201b60201c565b50620001fa565b6200007682826200007a60201b60201c565b5050565b620000a8816000808581526020019081526020016000206000016200011d60201b62000c441790919060201c565b156200011957620000be6200015560201b60201c565b73ffffffffffffffffffffffffffffffffffffffff168173ffffffffffffffffffffffffffffffffffffffff16837f2f8788117e7eff1d82e926ec794901d17c78024a50270940304540a733656f0d60405160405180910390a45b5050565b60006200014d836000018373ffffffffffffffffffffffffffffffffffffffff1660001b6200015d60201b60201c565b905092915050565b600033905090565b6000620001718383620001d760201b60201c565b620001cc578260000182908060018154018082558091505060019003906000526020600020016000909190919091505582600001805490508360010160008481526020019081526020016000208190555060019050620001d1565b600090505b92915050565b600080836001016000848152602001908152602001600020541415905092915050565b611254806200020a6000396000f3fe608060405234801561001057600080fd5b506004361061010b5760003560e01c80635a272403116100a2578063a217fddf11610071578063a217fddf146105dc578063b11e3c1a146105fa578063ca15c87314610654578063d547741f14610696578063f0f57a19146106e45761010b565b80635a272403146103ee578063631036ad146104485780639010d07c1461051657806391d14854146105785761010b565b806336568abe116100de57806336568abe1461029657806340c1b478146102e4578063435e60ae14610302578063550f1a91146103205761010b565b80630a36dc4c14610110578063248a9ca31461012e5780632f2ff15d1461017057806335a41034146101be575b600080fd5b6101186107b2565b6040518082815260200191505060405180910390f35b61015a6004803603602081101561014457600080fd5b81019080803590602001909291905050506107d6565b6040518082815260200191505060405180910390f35b6101bc6004803603604081101561018657600080fd5b8101908080359060200190929190803573ffffffffffffffffffffffffffffffffffffffff1690602001909291905050506107f5565b005b610294600480360360608110156101d457600080fd5b8101908080359060200190929190803590602001906401000000008111156101fb57600080fd5b82018360208201111561020d57600080fd5b8035906020019184602083028401116401000000008311171561022f57600080fd5b90919293919293908035906020019064010000000081111561025057600080fd5b82018360208201111561026257600080fd5b8035906020019184602083028401116401000000008311171561028457600080fd5b909192939192939050505061087e565b005b6102e2600480360360408110156102ac57600080fd5b8101908080359060200190929190803573ffffffffffffffffffffffffffffffffffffffff16906020019092919050505061090d565b005b6102ec6109a6565b6040518082815260200191505060405180910390f35b61030a6109ca565b6040518082815260200191505060405180910390f35b6103ec6004803603604081101561033657600080fd5b810190808035906020019064010000000081111561035357600080fd5b82018360208201111561036557600080fd5b8035906020019184602083028401116401000000008311171561038757600080fd5b9091929391929390803590602001906401000000008111156103a857600080fd5b8201836020820111156103ba57600080fd5b803590602001918460208302840111640100000000831117156103dc57600080fd5b90919293919293905050506109ee565b005b6104306004803603602081101561040457600080fd5b81019080803573ffffffffffffffffffffffffffffffffffffffff169060200190929190505050610a21565b60405180821515815260200191505060405180910390f35b6105146004803603604081101561045e57600080fd5b810190808035906020019064010000000081111561047b57600080fd5b82018360208201111561048d57600080fd5b803590602001918460208302840111640100000000831117156104af57600080fd5b9091929391929390803590602001906401000000008111156104d057600080fd5b8201836020820111156104e257600080fd5b8035906020019184602083028401116401000000008311171561050457600080fd5b9091929391929390505050610ab0565b005b61054c6004803603604081101561052c57600080fd5b810190808035906020019092919080359060200190929190505050610ae3565b604051808273ffffffffffffffffffffffffffffffffffffffff16815260200191505060405180910390f35b6105c46004803603604081101561058e57600080fd5b8101908080359060200190929190803573ffffffffffffffffffffffffffffffffffffffff169060200190929190505050610b14565b60405180821515815260200191505060405180910390f35b6105e4610b45565b6040518082815260200191505060405180910390f35b61063c6004803603602081101561061057600080fd5b81019080803573ffffffffffffffffffffffffffffffffffffffff169060200190929190505050610b4c565b60405180821515815260200191505060405180910390f35b6106806004803603602081101561066a57600080fd5b8101908080359060200190929190505050610b62565b6040518082815260200191505060405180910390f35b6106e2600480360360408110156106ac57600080fd5b8101908080359060200190929190803573ffffffffffffffffffffffffffffffffffffffff169060200190929190505050610b88565b005b6107b0600480360360408110156106fa57600080fd5b810190808035906020019064010000000081111561071757600080fd5b82018360208201111561072957600080fd5b8035906020019184602083028401116401000000008311171561074b57600080fd5b90919293919293908035906020019064010000000081111561076c57600080fd5b82018360208201111561077e57600080fd5b803590602001918460208302840111640100000000831117156107a057600080fd5b9091929391929390505050610c11565b005b7f49535355455f415353455400000000000000000000000000000000000000000081565b6000806000838152602001908152602001600020600201549050919050565b61081b60008084815260200190815260200160002060020154610816610c74565b610b14565b610870576040517f08c379a000000000000000000000000000000000000000000000000000000000815260040180806020018281038252602f815260200180611191602f913960400191505060405180910390fd5b61087a8282610c7c565b5050565b61088733610b4c565b6108f9576040517f08c379a000000000000000000000000000000000000000000000000000000000815260040180806020018281038252600a8152602001807f4f6e6c792061646d696e0000000000000000000000000000000000000000000081525060200191505060405180910390fd5b6109068585858585610d0f565b5050505050565b610915610c74565b73ffffffffffffffffffffffffffffffffffffffff168173ffffffffffffffffffffffffffffffffffffffff1614610998576040517f08c379a000000000000000000000000000000000000000000000000000000000815260040180806020018281038252602f8152602001806111f0602f913960400191505060405180910390fd5b6109a28282610e2f565b5050565b7f4255524e5f41535345540000000000000000000000000000000000000000000081565b7f4c6e4465627453797374656d000000000000000000000000000000000000000081565b610a1b7f49535355455f415353455400000000000000000000000000000000000000000085858585610d0f565b50505050565b6000610a2c33610b4c565b610a9e576040517f08c379a000000000000000000000000000000000000000000000000000000000815260040180806020018281038252600a8152602001807f4f6e6c792061646d696e0000000000000000000000000000000000000000000081525060200191505060405180910390fd5b610aab6000801b83610ec2565b919050565b610add7f4255524e5f41535345540000000000000000000000000000000000000000000085858585610d0f565b50505050565b6000610b0c82600080868152602001908152602001600020600001610ed090919063ffffffff16565b905092915050565b6000610b3d82600080868152602001908152602001600020600001610eea90919063ffffffff16565b905092915050565b6000801b81565b6000610b5b6000801b83610b14565b9050919050565b6000610b81600080848152602001908152602001600020600001610f1a565b9050919050565b610bae60008084815260200190815260200160002060020154610ba9610c74565b610b14565b610c03576040517f08c379a00000000000000000000000000000000000000000000000000000000081526004018080602001828103825260308152602001806111c06030913960400191505060405180910390fd5b610c0d8282610e2f565b5050565b610c3e7f4c6e4465627453797374656d000000000000000000000000000000000000000085858585610d0f565b50505050565b6000610c6c836000018373ffffffffffffffffffffffffffffffffffffffff1660001b610f2f565b905092915050565b600033905090565b610ca381600080858152602001908152602001600020600001610c4490919063ffffffff16565b15610d0b57610cb0610c74565b73ffffffffffffffffffffffffffffffffffffffff168173ffffffffffffffffffffffffffffffffffffffff16837f2f8788117e7eff1d82e926ec794901d17c78024a50270940304540a733656f0d60405160405180910390a45b5050565b818190508484905014610d8a576040517f08c379a000000000000000000000000000000000000000000000000000000000815260040180806020018281038252601f8152602001807f706172616d657465722061646472657373206c656e677468206e6f742065710081525060200191505060405180910390fd5b60005b84849050811015610e2757828282818110610da457fe5b9050602002013515610de757610de286868684818110610dc057fe5b9050602002013573ffffffffffffffffffffffffffffffffffffffff166107f5565b610e1a565b610e1986868684818110610df757fe5b9050602002013573ffffffffffffffffffffffffffffffffffffffff16610b88565b5b8080600101915050610d8d565b505050505050565b610e5681600080858152602001908152602001600020600001610f9f90919063ffffffff16565b15610ebe57610e63610c74565b73ffffffffffffffffffffffffffffffffffffffff168173ffffffffffffffffffffffffffffffffffffffff16837ff6391f5c32d9c69d2a47ea670b442974b53935d1edc7fd64eb21e047a839171b60405160405180910390a45b5050565b610ecc8282610c7c565b5050565b6000610edf8360000183610fcf565b60001c905092915050565b6000610f12836000018373ffffffffffffffffffffffffffffffffffffffff1660001b611052565b905092915050565b6000610f2882600001611075565b9050919050565b6000610f3b8383611052565b610f94578260000182908060018154018082558091505060019003906000526020600020016000909190919091505582600001805490508360010160008481526020019081526020016000208190555060019050610f99565b600090505b92915050565b6000610fc7836000018373ffffffffffffffffffffffffffffffffffffffff1660001b611086565b905092915050565b600081836000018054905011611030576040517f08c379a000000000000000000000000000000000000000000000000000000000815260040180806020018281038252602281526020018061116f6022913960400191505060405180910390fd5b82600001828154811061103f57fe5b9060005260206000200154905092915050565b600080836001016000848152602001908152602001600020541415905092915050565b600081600001805490509050919050565b6000808360010160008481526020019081526020016000205490506000811461116257600060018203905060006001866000018054905003905060008660000182815481106110d157fe5b90600052602060002001549050808760000184815481106110ee57fe5b906000526020600020018190555060018301876001016000838152602001908152602001600020819055508660000180548061112657fe5b60019003818190600052602060002001600090559055866001016000878152602001908152602001600020600090556001945050505050611168565b60009150505b9291505056fe456e756d657261626c655365743a20696e646578206f7574206f6620626f756e6473416363657373436f6e74726f6c3a2073656e646572206d75737420626520616e2061646d696e20746f206772616e74416363657373436f6e74726f6c3a2073656e646572206d75737420626520616e2061646d696e20746f207265766f6b65416363657373436f6e74726f6c3a2063616e206f6e6c792072656e6f756e636520726f6c657320666f722073656c66a26469706673582212205be4d8acf163fc335301326b1c9c8d44de082930f519dd715f5e1156384bb13f64736f6c634300060c0033",
  "immutableReferences": {},
  "source": "// SPDX-License-Identifier: MIT\r\npragma solidity ^0.6.12;\r\n\r\nimport \"@openzeppelin/contracts/access/AccessControl.sol\";\r\nimport \"@openzeppelin/contracts/utils/Address.sol\";\r\n\r\n// example:\r\n//LnAccessControl accessCtrl = LnAccessControl(addressStorage.getAddress(\"LnAccessControl\"));\r\n//require(accessCtrl.hasRole(accessCtrl.DEBT_SYSTEM(), _address), \"Need debt system access role\");\r\n\r\n// contract access control\r\ncontract LnAccessControl is AccessControl {\r\n    using Address for address;\r\n\r\n    // -------------------------------------------------------\r\n    // role type\r\n    bytes32 public constant ISSUE_ASSET_ROLE = (\"ISSUE_ASSET\"); //keccak256\r\n    bytes32 public constant BURN_ASSET_ROLE = (\"BURN_ASSET\");\r\n\r\n    bytes32 public constant DEBT_SYSTEM = (\"LnDebtSystem\");\r\n    // -------------------------------------------------------\r\n    constructor(address admin) public {\r\n        _setupRole(DEFAULT_ADMIN_ROLE, admin);\r\n    }\r\n\r\n    function IsAdmin(address _address) public view returns (bool) {\r\n        return hasRole(DEFAULT_ADMIN_ROLE, _address);\r\n    }\r\n\r\n    function SetAdmin(address _address) public returns (bool) {\r\n        require(IsAdmin(msg.sender), \"Only admin\");\r\n\r\n        _setupRole(DEFAULT_ADMIN_ROLE, _address);\r\n    }\r\n\r\n    // -------------------------------------------------------\r\n    // this func need admin role. grantRole and revokeRole need admin role\r\n    function SetRoles(bytes32 roleType, address[] calldata addresses, bool[] calldata setTo) external {\r\n        require(IsAdmin(msg.sender), \"Only admin\");\r\n\r\n        _setRoles(roleType, addresses, setTo);\r\n    }\r\n\r\n    function _setRoles(bytes32 roleType, address[] calldata addresses, bool[] calldata setTo) private {\r\n        require(addresses.length == setTo.length, \"parameter address length not eq\");\r\n\r\n        for (uint256 i=0; i < addresses.length; i++) {\r\n            //require(addresses[i].isContract(), \"Role address need contract only\");\r\n            if (setTo[i]) {\r\n                grantRole(roleType, addresses[i]);\r\n            } else {\r\n                revokeRole(roleType, addresses[i]);\r\n            }\r\n        }\r\n    }\r\n\r\n    // function SetRoles(bytes32 roleType, address[] calldata addresses, bool[] calldata setTo) public {\r\n    //     _setRoles(roleType, addresses, setTo);\r\n    // }\r\n\r\n    // Issue burn\r\n    function SetIssueAssetRole(address[] calldata issuer, bool[] calldata setTo) public {\r\n        _setRoles(ISSUE_ASSET_ROLE, issuer, setTo);\r\n    }\r\n\r\n    function SetBurnAssetRole(address[] calldata burner, bool[] calldata setTo) public {\r\n        _setRoles(BURN_ASSET_ROLE, burner, setTo);\r\n    }\r\n    \r\n    //\r\n    function SetDebtSystemRole(address[] calldata _address, bool[] calldata _setTo) public {\r\n        _setRoles(DEBT_SYSTEM, _address, _setTo);\r\n    }\r\n}\r\n",
  "sourcePath": "/mnt/d/working/linearFinance/smartcontracts/contracts/LnAccessControl.sol",
  "compiler": {
    "name": "solc",
    "version": "0.6.12+commit.27d51765.Emscripten.clang"
  },
  "schemaVersion": "3.2.3",
  "updatedAt": "2020-10-28T03:47:06.621Z",
  "networkType": "ethereum",
  "devdoc": {
    "kind": "dev",
    "methods": {
      "getRoleAdmin(bytes32)": {
        "details": "Returns the admin role that controls `role`. See {grantRole} and {revokeRole}. To change a role's admin, use {_setRoleAdmin}."
      },
      "getRoleMember(bytes32,uint256)": {
        "details": "Returns one of the accounts that have `role`. `index` must be a value between 0 and {getRoleMemberCount}, non-inclusive. Role bearers are not sorted in any particular way, and their ordering may change at any point. WARNING: When using {getRoleMember} and {getRoleMemberCount}, make sure you perform all queries on the same block. See the following https://forum.openzeppelin.com/t/iterating-over-elements-on-enumerableset-in-openzeppelin-contracts/2296[forum post] for more information."
      },
      "getRoleMemberCount(bytes32)": {
        "details": "Returns the number of accounts that have `role`. Can be used together with {getRoleMember} to enumerate all bearers of a role."
      },
      "grantRole(bytes32,address)": {
        "details": "Grants `role` to `account`. If `account` had not been already granted `role`, emits a {RoleGranted} event. Requirements: - the caller must have ``role``'s admin role."
      },
      "hasRole(bytes32,address)": {
        "details": "Returns `true` if `account` has been granted `role`."
      },
      "renounceRole(bytes32,address)": {
        "details": "Revokes `role` from the calling account. Roles are often managed via {grantRole} and {revokeRole}: this function's purpose is to provide a mechanism for accounts to lose their privileges if they are compromised (such as when a trusted device is misplaced). If the calling account had been granted `role`, emits a {RoleRevoked} event. Requirements: - the caller must be `account`."
      },
      "revokeRole(bytes32,address)": {
        "details": "Revokes `role` from `account`. If `account` had been granted `role`, emits a {RoleRevoked} event. Requirements: - the caller must have ``role``'s admin role."
      }
    },
    "version": 1
  },
  "userdoc": {
    "kind": "user",
    "methods": {},
    "version": 1
  }
}