{
  "contractName": "LnAccessControl",
  "abi": [
    {
      "inputs": [
        {
          "internalType": "address",
          "name": "admin",
          "type": "address"
        }
      ],
      "stateMutability": "nonpayable",
      "type": "constructor"
    },
    {
      "anonymous": false,
      "inputs": [
        {
          "indexed": true,
          "internalType": "bytes32",
          "name": "role",
          "type": "bytes32"
        },
        {
          "indexed": true,
          "internalType": "bytes32",
          "name": "previousAdminRole",
          "type": "bytes32"
        },
        {
          "indexed": true,
          "internalType": "bytes32",
          "name": "newAdminRole",
          "type": "bytes32"
        }
      ],
      "name": "RoleAdminChanged",
      "type": "event"
    },
    {
      "anonymous": false,
      "inputs": [
        {
          "indexed": true,
          "internalType": "bytes32",
          "name": "role",
          "type": "bytes32"
        },
        {
          "indexed": true,
          "internalType": "address",
          "name": "account",
          "type": "address"
        },
        {
          "indexed": true,
          "internalType": "address",
          "name": "sender",
          "type": "address"
        }
      ],
      "name": "RoleGranted",
      "type": "event"
    },
    {
      "anonymous": false,
      "inputs": [
        {
          "indexed": true,
          "internalType": "bytes32",
          "name": "role",
          "type": "bytes32"
        },
        {
          "indexed": true,
          "internalType": "address",
          "name": "account",
          "type": "address"
        },
        {
          "indexed": true,
          "internalType": "address",
          "name": "sender",
          "type": "address"
        }
      ],
      "name": "RoleRevoked",
      "type": "event"
    },
    {
      "inputs": [],
      "name": "BURN_ASSET_ROLE",
      "outputs": [
        {
          "internalType": "bytes32",
          "name": "",
          "type": "bytes32"
        }
      ],
      "stateMutability": "view",
      "type": "function"
    },
    {
      "inputs": [],
      "name": "DEBT_SYSTEM",
      "outputs": [
        {
          "internalType": "bytes32",
          "name": "",
          "type": "bytes32"
        }
      ],
      "stateMutability": "view",
      "type": "function"
    },
    {
      "inputs": [],
      "name": "DEFAULT_ADMIN_ROLE",
      "outputs": [
        {
          "internalType": "bytes32",
          "name": "",
          "type": "bytes32"
        }
      ],
      "stateMutability": "view",
      "type": "function"
    },
    {
      "inputs": [],
      "name": "ISSUE_ASSET_ROLE",
      "outputs": [
        {
          "internalType": "bytes32",
          "name": "",
          "type": "bytes32"
        }
      ],
      "stateMutability": "view",
      "type": "function"
    },
    {
      "inputs": [
        {
          "internalType": "bytes32",
          "name": "role",
          "type": "bytes32"
        }
      ],
      "name": "getRoleAdmin",
      "outputs": [
        {
          "internalType": "bytes32",
          "name": "",
          "type": "bytes32"
        }
      ],
      "stateMutability": "view",
      "type": "function"
    },
    {
      "inputs": [
        {
          "internalType": "bytes32",
          "name": "role",
          "type": "bytes32"
        },
        {
          "internalType": "uint256",
          "name": "index",
          "type": "uint256"
        }
      ],
      "name": "getRoleMember",
      "outputs": [
        {
          "internalType": "address",
          "name": "",
          "type": "address"
        }
      ],
      "stateMutability": "view",
      "type": "function"
    },
    {
      "inputs": [
        {
          "internalType": "bytes32",
          "name": "role",
          "type": "bytes32"
        }
      ],
      "name": "getRoleMemberCount",
      "outputs": [
        {
          "internalType": "uint256",
          "name": "",
          "type": "uint256"
        }
      ],
      "stateMutability": "view",
      "type": "function"
    },
    {
      "inputs": [
        {
          "internalType": "bytes32",
          "name": "role",
          "type": "bytes32"
        },
        {
          "internalType": "address",
          "name": "account",
          "type": "address"
        }
      ],
      "name": "grantRole",
      "outputs": [],
      "stateMutability": "nonpayable",
      "type": "function"
    },
    {
      "inputs": [
        {
          "internalType": "bytes32",
          "name": "role",
          "type": "bytes32"
        },
        {
          "internalType": "address",
          "name": "account",
          "type": "address"
        }
      ],
      "name": "hasRole",
      "outputs": [
        {
          "internalType": "bool",
          "name": "",
          "type": "bool"
        }
      ],
      "stateMutability": "view",
      "type": "function"
    },
    {
      "inputs": [
        {
          "internalType": "bytes32",
          "name": "role",
          "type": "bytes32"
        },
        {
          "internalType": "address",
          "name": "account",
          "type": "address"
        }
      ],
      "name": "renounceRole",
      "outputs": [],
      "stateMutability": "nonpayable",
      "type": "function"
    },
    {
      "inputs": [
        {
          "internalType": "bytes32",
          "name": "role",
          "type": "bytes32"
        },
        {
          "internalType": "address",
          "name": "account",
          "type": "address"
        }
      ],
      "name": "revokeRole",
      "outputs": [],
      "stateMutability": "nonpayable",
      "type": "function"
    },
    {
      "inputs": [
        {
          "internalType": "address",
          "name": "_address",
          "type": "address"
        }
      ],
      "name": "IsAdmin",
      "outputs": [
        {
          "internalType": "bool",
          "name": "",
          "type": "bool"
        }
      ],
      "stateMutability": "view",
      "type": "function"
    },
    {
      "inputs": [
        {
          "internalType": "address",
          "name": "_address",
          "type": "address"
        }
      ],
      "name": "SetAdmin",
      "outputs": [
        {
          "internalType": "bool",
          "name": "",
          "type": "bool"
        }
      ],
      "stateMutability": "nonpayable",
      "type": "function"
    },
    {
      "inputs": [
        {
          "internalType": "address[]",
          "name": "issuer",
          "type": "address[]"
        },
        {
          "internalType": "bool[]",
          "name": "setTo",
          "type": "bool[]"
        }
      ],
      "name": "SetIssueAssetRole",
      "outputs": [],
      "stateMutability": "nonpayable",
      "type": "function"
    },
    {
      "inputs": [
        {
          "internalType": "address[]",
          "name": "burner",
          "type": "address[]"
        },
        {
          "internalType": "bool[]",
          "name": "setTo",
          "type": "bool[]"
        }
      ],
      "name": "SetBurnAssetRole",
      "outputs": [],
      "stateMutability": "nonpayable",
      "type": "function"
    },
    {
      "inputs": [
        {
          "internalType": "address[]",
          "name": "_address",
          "type": "address[]"
        },
        {
          "internalType": "bool[]",
          "name": "_setTo",
          "type": "bool[]"
        }
      ],
      "name": "SetDebtSystemRole",
      "outputs": [],
      "stateMutability": "nonpayable",
      "type": "function"
    }
  ],
  "bytecode": "0x60806040523480156200001157600080fd5b50604051620012ec380380620012ec833981810160405260208110156200003757600080fd5b81019080805190602001909291905050506200005d6000801b826200006460201b60201c565b50620001fa565b6200007682826200007a60201b60201c565b5050565b620000a8816000808581526020019081526020016000206000016200011d60201b62000ad21790919060201c565b156200011957620000be6200015560201b60201c565b73ffffffffffffffffffffffffffffffffffffffff168173ffffffffffffffffffffffffffffffffffffffff16837f2f8788117e7eff1d82e926ec794901d17c78024a50270940304540a733656f0d60405160405180910390a45b5050565b60006200014d836000018373ffffffffffffffffffffffffffffffffffffffff1660001b6200015d60201b60201c565b905092915050565b600033905090565b6000620001718383620001d760201b60201c565b620001cc578260000182908060018154018082558091505060019003906000526020600020016000909190919091505582600001805490508360010160008481526020019081526020016000208190555060019050620001d1565b600090505b92915050565b600080836001016000848152602001908152602001600020541415905092915050565b6110e2806200020a6000396000f3fe608060405234801561001057600080fd5b50600436106101005760003560e01c8063631036ad11610097578063b11e3c1a11610066578063b11e3c1a14610517578063ca15c87314610571578063d547741f146105b3578063f0f57a191461060157610100565b8063631036ad146103655780639010d07c1461043357806391d1485414610495578063a217fddf146104f957610100565b806340c1b478116100d357806340c1b47814610201578063435e60ae1461021f578063550f1a911461023d5780635a2724031461030b57610100565b80630a36dc4c14610105578063248a9ca3146101235780632f2ff15d1461016557806336568abe146101b3575b600080fd5b61010d6106cf565b6040518082815260200191505060405180910390f35b61014f6004803603602081101561013957600080fd5b81019080803590602001909291905050506106f3565b6040518082815260200191505060405180910390f35b6101b16004803603604081101561017b57600080fd5b8101908080359060200190929190803573ffffffffffffffffffffffffffffffffffffffff169060200190929190505050610712565b005b6101ff600480360360408110156101c957600080fd5b8101908080359060200190929190803573ffffffffffffffffffffffffffffffffffffffff16906020019092919050505061079b565b005b610209610834565b6040518082815260200191505060405180910390f35b610227610858565b6040518082815260200191505060405180910390f35b6103096004803603604081101561025357600080fd5b810190808035906020019064010000000081111561027057600080fd5b82018360208201111561028257600080fd5b803590602001918460208302840111640100000000831117156102a457600080fd5b9091929391929390803590602001906401000000008111156102c557600080fd5b8201836020820111156102d757600080fd5b803590602001918460208302840111640100000000831117156102f957600080fd5b909192939192939050505061087c565b005b61034d6004803603602081101561032157600080fd5b81019080803573ffffffffffffffffffffffffffffffffffffffff1690602001909291905050506108af565b60405180821515815260200191505060405180910390f35b6104316004803603604081101561037b57600080fd5b810190808035906020019064010000000081111561039857600080fd5b8201836020820111156103aa57600080fd5b803590602001918460208302840111640100000000831117156103cc57600080fd5b9091929391929390803590602001906401000000008111156103ed57600080fd5b8201836020820111156103ff57600080fd5b8035906020019184602083028401116401000000008311171561042157600080fd5b909192939192939050505061093e565b005b6104696004803603604081101561044957600080fd5b810190808035906020019092919080359060200190929190505050610971565b604051808273ffffffffffffffffffffffffffffffffffffffff16815260200191505060405180910390f35b6104e1600480360360408110156104ab57600080fd5b8101908080359060200190929190803573ffffffffffffffffffffffffffffffffffffffff1690602001909291905050506109a2565b60405180821515815260200191505060405180910390f35b6105016109d3565b6040518082815260200191505060405180910390f35b6105596004803603602081101561052d57600080fd5b81019080803573ffffffffffffffffffffffffffffffffffffffff1690602001909291905050506109da565b60405180821515815260200191505060405180910390f35b61059d6004803603602081101561058757600080fd5b81019080803590602001909291905050506109f0565b6040518082815260200191505060405180910390f35b6105ff600480360360408110156105c957600080fd5b8101908080359060200190929190803573ffffffffffffffffffffffffffffffffffffffff169060200190929190505050610a16565b005b6106cd6004803603604081101561061757600080fd5b810190808035906020019064010000000081111561063457600080fd5b82018360208201111561064657600080fd5b8035906020019184602083028401116401000000008311171561066857600080fd5b90919293919293908035906020019064010000000081111561068957600080fd5b82018360208201111561069b57600080fd5b803590602001918460208302840111640100000000831117156106bd57600080fd5b9091929391929390505050610a9f565b005b7f49535355455f415353455400000000000000000000000000000000000000000081565b6000806000838152602001908152602001600020600201549050919050565b61073860008084815260200190815260200160002060020154610733610b02565b6109a2565b61078d576040517f08c379a000000000000000000000000000000000000000000000000000000000815260040180806020018281038252602f81526020018061101f602f913960400191505060405180910390fd5b6107978282610b0a565b5050565b6107a3610b02565b73ffffffffffffffffffffffffffffffffffffffff168173ffffffffffffffffffffffffffffffffffffffff1614610826576040517f08c379a000000000000000000000000000000000000000000000000000000000815260040180806020018281038252602f81526020018061107e602f913960400191505060405180910390fd5b6108308282610b9d565b5050565b7f4255524e5f41535345540000000000000000000000000000000000000000000081565b7f4c6e4465627453797374656d000000000000000000000000000000000000000081565b6108a97f49535355455f415353455400000000000000000000000000000000000000000085858585610c30565b50505050565b60006108ba336109da565b61092c576040517f08c379a000000000000000000000000000000000000000000000000000000000815260040180806020018281038252600a8152602001807f4f6e6c792061646d696e0000000000000000000000000000000000000000000081525060200191505060405180910390fd5b6109396000801b83610d50565b919050565b61096b7f4255524e5f41535345540000000000000000000000000000000000000000000085858585610c30565b50505050565b600061099a82600080868152602001908152602001600020600001610d5e90919063ffffffff16565b905092915050565b60006109cb82600080868152602001908152602001600020600001610d7890919063ffffffff16565b905092915050565b6000801b81565b60006109e96000801b836109a2565b9050919050565b6000610a0f600080848152602001908152602001600020600001610da8565b9050919050565b610a3c60008084815260200190815260200160002060020154610a37610b02565b6109a2565b610a91576040517f08c379a000000000000000000000000000000000000000000000000000000000815260040180806020018281038252603081526020018061104e6030913960400191505060405180910390fd5b610a9b8282610b9d565b5050565b610acc7f4c6e4465627453797374656d000000000000000000000000000000000000000085858585610c30565b50505050565b6000610afa836000018373ffffffffffffffffffffffffffffffffffffffff1660001b610dbd565b905092915050565b600033905090565b610b3181600080858152602001908152602001600020600001610ad290919063ffffffff16565b15610b9957610b3e610b02565b73ffffffffffffffffffffffffffffffffffffffff168173ffffffffffffffffffffffffffffffffffffffff16837f2f8788117e7eff1d82e926ec794901d17c78024a50270940304540a733656f0d60405160405180910390a45b5050565b610bc481600080858152602001908152602001600020600001610e2d90919063ffffffff16565b15610c2c57610bd1610b02565b73ffffffffffffffffffffffffffffffffffffffff168173ffffffffffffffffffffffffffffffffffffffff16837ff6391f5c32d9c69d2a47ea670b442974b53935d1edc7fd64eb21e047a839171b60405160405180910390a45b5050565b818190508484905014610cab576040517f08c379a000000000000000000000000000000000000000000000000000000000815260040180806020018281038252601f8152602001807f706172616d657465722061646472657373206c656e677468206e6f742065710081525060200191505060405180910390fd5b60005b84849050811015610d4857828282818110610cc557fe5b9050602002013515610d0857610d0386868684818110610ce157fe5b9050602002013573ffffffffffffffffffffffffffffffffffffffff16610712565b610d3b565b610d3a86868684818110610d1857fe5b9050602002013573ffffffffffffffffffffffffffffffffffffffff16610a16565b5b8080600101915050610cae565b505050505050565b610d5a8282610b0a565b5050565b6000610d6d8360000183610e5d565b60001c905092915050565b6000610da0836000018373ffffffffffffffffffffffffffffffffffffffff1660001b610ee0565b905092915050565b6000610db682600001610f03565b9050919050565b6000610dc98383610ee0565b610e22578260000182908060018154018082558091505060019003906000526020600020016000909190919091505582600001805490508360010160008481526020019081526020016000208190555060019050610e27565b600090505b92915050565b6000610e55836000018373ffffffffffffffffffffffffffffffffffffffff1660001b610f14565b905092915050565b600081836000018054905011610ebe576040517f08c379a0000000000000000000000000000000000000000000000000000000008152600401808060200182810382526022815260200180610ffd6022913960400191505060405180910390fd5b826000018281548110610ecd57fe5b9060005260206000200154905092915050565b600080836001016000848152602001908152602001600020541415905092915050565b600081600001805490509050919050565b60008083600101600084815260200190815260200160002054905060008114610ff05760006001820390506000600186600001805490500390506000866000018281548110610f5f57fe5b9060005260206000200154905080876000018481548110610f7c57fe5b9060005260206000200181905550600183018760010160008381526020019081526020016000208190555086600001805480610fb457fe5b60019003818190600052602060002001600090559055866001016000878152602001908152602001600020600090556001945050505050610ff6565b60009150505b9291505056fe456e756d657261626c655365743a20696e646578206f7574206f6620626f756e6473416363657373436f6e74726f6c3a2073656e646572206d75737420626520616e2061646d696e20746f206772616e74416363657373436f6e74726f6c3a2073656e646572206d75737420626520616e2061646d696e20746f207265766f6b65416363657373436f6e74726f6c3a2063616e206f6e6c792072656e6f756e636520726f6c657320666f722073656c66a26469706673582212204d50db34ed9f1df9d978b0115a73a78e10b9b1261ea85f628b6ff2311fe4588964736f6c634300060c0033",
  "immutableReferences": {},
  "source": "// SPDX-License-Identifier: MIT\r\npragma solidity ^0.6.12;\r\n\r\nimport \"@openzeppelin/contracts/access/AccessControl.sol\";\r\nimport \"@openzeppelin/contracts/utils/Address.sol\";\r\n\r\n// example:\r\n//LnAccessControl accessCtrl = LnAccessControl(addressStorage.getAddress(\"LnAccessControl\"));\r\n//require(accessCtrl.hasRole(accessCtrl.DEBT_SYSTEM(), _address), \"Need debt system access role\");\r\n\r\n// contract access control\r\ncontract LnAccessControl is AccessControl {\r\n    using Address for address;\r\n\r\n    // -------------------------------------------------------\r\n    // role type\r\n    bytes32 public constant ISSUE_ASSET_ROLE = (\"ISSUE_ASSET\"); //keccak256\r\n    bytes32 public constant BURN_ASSET_ROLE = (\"BURN_ASSET\");\r\n\r\n    bytes32 public constant DEBT_SYSTEM = (\"LnDebtSystem\");\r\n    // -------------------------------------------------------\r\n    constructor(address admin) public {\r\n        _setupRole(DEFAULT_ADMIN_ROLE, admin);\r\n    }\r\n\r\n    function IsAdmin(address _address) public view returns (bool) {\r\n        return hasRole(DEFAULT_ADMIN_ROLE, _address);\r\n    }\r\n\r\n    function SetAdmin(address _address) public returns (bool) {\r\n        require(IsAdmin(msg.sender), \"Only admin\");\r\n\r\n        _setupRole(DEFAULT_ADMIN_ROLE, _address);\r\n    }\r\n\r\n    // -------------------------------------------------------\r\n    // this func need admin role. grantRole and revokeRole need admin role\r\n    function _setRoles(bytes32 roleType, address[] calldata addresses, bool[] calldata setTo) private {\r\n        require(addresses.length == setTo.length, \"parameter address length not eq\");\r\n\r\n        for (uint256 i=0; i < addresses.length; i++) {\r\n            //require(addresses[i].isContract(), \"Role address need contract only\");\r\n            if (setTo[i]) {\r\n                grantRole(roleType, addresses[i]);\r\n            } else {\r\n                revokeRole(roleType, addresses[i]);\r\n            }\r\n        }\r\n    }\r\n\r\n    // function SetRoles(bytes32 roleType, address[] calldata addresses, bool[] calldata setTo) public {\r\n    //     _setRoles(roleType, addresses, setTo);\r\n    // }\r\n\r\n    // Issue burn\r\n    function SetIssueAssetRole(address[] calldata issuer, bool[] calldata setTo) public {\r\n        _setRoles(ISSUE_ASSET_ROLE, issuer, setTo);\r\n    }\r\n\r\n    function SetBurnAssetRole(address[] calldata burner, bool[] calldata setTo) public {\r\n        _setRoles(BURN_ASSET_ROLE, burner, setTo);\r\n    }\r\n    \r\n    //\r\n    function SetDebtSystemRole(address[] calldata _address, bool[] calldata _setTo) public {\r\n        _setRoles(DEBT_SYSTEM, _address, _setTo);\r\n    }\r\n}\r\n",
  "sourcePath": "/mnt/d/working/linearFinance/LinearFinanceToken/contracts/LnAccessControl.sol",
  "compiler": {
    "name": "solc",
    "version": "0.6.12+commit.27d51765.Emscripten.clang"
  },
  "schemaVersion": "3.2.3",
  "updatedAt": "2020-09-10T08:49:07.337Z",
  "devdoc": {
    "kind": "dev",
    "methods": {
      "getRoleAdmin(bytes32)": {
        "details": "Returns the admin role that controls `role`. See {grantRole} and {revokeRole}. To change a role's admin, use {_setRoleAdmin}."
      },
      "getRoleMember(bytes32,uint256)": {
        "details": "Returns one of the accounts that have `role`. `index` must be a value between 0 and {getRoleMemberCount}, non-inclusive. Role bearers are not sorted in any particular way, and their ordering may change at any point. WARNING: When using {getRoleMember} and {getRoleMemberCount}, make sure you perform all queries on the same block. See the following https://forum.openzeppelin.com/t/iterating-over-elements-on-enumerableset-in-openzeppelin-contracts/2296[forum post] for more information."
      },
      "getRoleMemberCount(bytes32)": {
        "details": "Returns the number of accounts that have `role`. Can be used together with {getRoleMember} to enumerate all bearers of a role."
      },
      "grantRole(bytes32,address)": {
        "details": "Grants `role` to `account`. If `account` had not been already granted `role`, emits a {RoleGranted} event. Requirements: - the caller must have ``role``'s admin role."
      },
      "hasRole(bytes32,address)": {
        "details": "Returns `true` if `account` has been granted `role`."
      },
      "renounceRole(bytes32,address)": {
        "details": "Revokes `role` from the calling account. Roles are often managed via {grantRole} and {revokeRole}: this function's purpose is to provide a mechanism for accounts to lose their privileges if they are compromised (such as when a trusted device is misplaced). If the calling account had been granted `role`, emits a {RoleRevoked} event. Requirements: - the caller must be `account`."
      },
      "revokeRole(bytes32,address)": {
        "details": "Revokes `role` from `account`. If `account` had been granted `role`, emits a {RoleRevoked} event. Requirements: - the caller must have ``role``'s admin role."
      }
    },
    "version": 1
  },
  "userdoc": {
    "kind": "user",
    "methods": {},
    "version": 1
  }
}