{
  "contractName": "LnAddressStorage",
  "abi": [
    {
      "inputs": [
        {
          "internalType": "address",
          "name": "_admin",
          "type": "address"
        }
      ],
      "stateMutability": "nonpayable",
      "type": "constructor"
    },
    {
      "anonymous": false,
      "inputs": [
        {
          "indexed": false,
          "internalType": "address",
          "name": "oldAdmin",
          "type": "address"
        },
        {
          "indexed": false,
          "internalType": "address",
          "name": "newAdmin",
          "type": "address"
        }
      ],
      "name": "AdminChanged",
      "type": "event"
    },
    {
      "anonymous": false,
      "inputs": [
        {
          "indexed": false,
          "internalType": "address",
          "name": "oldCandidate",
          "type": "address"
        },
        {
          "indexed": false,
          "internalType": "address",
          "name": "newCandidate",
          "type": "address"
        }
      ],
      "name": "candidateChanged",
      "type": "event"
    },
    {
      "anonymous": false,
      "inputs": [
        {
          "indexed": false,
          "internalType": "bytes32",
          "name": "name",
          "type": "bytes32"
        },
        {
          "indexed": false,
          "internalType": "address",
          "name": "addr",
          "type": "address"
        }
      ],
      "name": "updateStorageAddress",
      "type": "event"
    },
    {
      "inputs": [],
      "name": "admin",
      "outputs": [
        {
          "internalType": "address",
          "name": "",
          "type": "address"
        }
      ],
      "stateMutability": "view",
      "type": "function"
    },
    {
      "inputs": [],
      "name": "becomeAdmin",
      "outputs": [],
      "stateMutability": "nonpayable",
      "type": "function"
    },
    {
      "inputs": [],
      "name": "candidate",
      "outputs": [
        {
          "internalType": "address",
          "name": "",
          "type": "address"
        }
      ],
      "stateMutability": "view",
      "type": "function"
    },
    {
      "inputs": [
        {
          "internalType": "bytes32",
          "name": "",
          "type": "bytes32"
        }
      ],
      "name": "mAddrs",
      "outputs": [
        {
          "internalType": "address",
          "name": "",
          "type": "address"
        }
      ],
      "stateMutability": "view",
      "type": "function"
    },
    {
      "inputs": [
        {
          "internalType": "address",
          "name": "_candidate",
          "type": "address"
        }
      ],
      "name": "setCandidate",
      "outputs": [],
      "stateMutability": "nonpayable",
      "type": "function"
    },
    {
      "inputs": [
        {
          "internalType": "bytes32[]",
          "name": "names",
          "type": "bytes32[]"
        },
        {
          "internalType": "address[]",
          "name": "destinations",
          "type": "address[]"
        }
      ],
      "name": "updateAll",
      "outputs": [],
      "stateMutability": "nonpayable",
      "type": "function"
    },
    {
      "inputs": [
        {
          "internalType": "bytes32",
          "name": "name",
          "type": "bytes32"
        },
        {
          "internalType": "address",
          "name": "dest",
          "type": "address"
        }
      ],
      "name": "update",
      "outputs": [],
      "stateMutability": "nonpayable",
      "type": "function"
    },
    {
      "inputs": [
        {
          "internalType": "bytes32",
          "name": "name",
          "type": "bytes32"
        }
      ],
      "name": "getAddress",
      "outputs": [
        {
          "internalType": "address",
          "name": "",
          "type": "address"
        }
      ],
      "stateMutability": "view",
      "type": "function"
    },
    {
      "inputs": [
        {
          "internalType": "bytes32",
          "name": "name",
          "type": "bytes32"
        },
        {
          "internalType": "string",
          "name": "reason",
          "type": "string"
        }
      ],
      "name": "getAddressWithRequire",
      "outputs": [
        {
          "internalType": "address",
          "name": "",
          "type": "address"
        }
      ],
      "stateMutability": "view",
      "type": "function"
    }
  ],
  "bytecode": "0x608060405234801561001057600080fd5b50604051610fac380380610fac8339818101604052602081101561003357600080fd5b810190808051906020019092919050505080600073ffffffffffffffffffffffffffffffffffffffff168173ffffffffffffffffffffffffffffffffffffffff1614156100e8576040517f08c379a00000000000000000000000000000000000000000000000000000000081526004018080602001828103825260198152602001807f61646d696e20616464726573732063616e6e6f7420626520300000000000000081525060200191505060405180910390fd5b806000806101000a81548173ffffffffffffffffffffffffffffffffffffffff021916908373ffffffffffffffffffffffffffffffffffffffff1602179055507f7e644d79422f17c01e4894b5f4f588d331ebfa28653d42ae832dc59e38c9798f600082604051808373ffffffffffffffffffffffffffffffffffffffff1681526020018273ffffffffffffffffffffffffffffffffffffffff1681526020019250505060405180910390a15050610e07806101a56000396000f3fe608060405234801561001057600080fd5b50600436106100935760003560e01c80634ae2ffc0116100665780634ae2ffc01461020c5780636c8381f81461025a578063768911da1461028e578063d091dfc31461033b578063f851a4401461039357610093565b8063046624271461009857806307880b7f1461016657806321f8a721146101aa57806325971dff14610202575b600080fd5b610164600480360360408110156100ae57600080fd5b81019080803590602001906401000000008111156100cb57600080fd5b8201836020820111156100dd57600080fd5b803590602001918460208302840111640100000000831117156100ff57600080fd5b90919293919293908035906020019064010000000081111561012057600080fd5b82018360208201111561013257600080fd5b8035906020019184602083028401116401000000008311171561015457600080fd5b90919293919293905050506103c7565b005b6101a86004803603602081101561017c57600080fd5b81019080803573ffffffffffffffffffffffffffffffffffffffff169060200190929190505050610623565b005b6101d6600480360360208110156101c057600080fd5b81019080803590602001909291905050506107c0565b604051808273ffffffffffffffffffffffffffffffffffffffff16815260200191505060405180910390f35b61020a6107fd565b005b6102586004803603604081101561022257600080fd5b8101908080359060200190929190803573ffffffffffffffffffffffffffffffffffffffff1690602001909291905050506109d6565b005b610262610c3f565b604051808273ffffffffffffffffffffffffffffffffffffffff16815260200191505060405180910390f35b61030f600480360360408110156102a457600080fd5b8101908080359060200190929190803590602001906401000000008111156102cb57600080fd5b8201836020820111156102dd57600080fd5b803590602001918460018302840111640100000000831117156102ff57600080fd5b9091929391929390505050610c65565b604051808273ffffffffffffffffffffffffffffffffffffffff16815260200191505060405180910390f35b6103676004803603602081101561035157600080fd5b8101908080359060200190929190505050610d4b565b604051808273ffffffffffffffffffffffffffffffffffffffff16815260200191505060405180910390f35b61039b610d7e565b604051808273ffffffffffffffffffffffffffffffffffffffff16815260200191505060405180910390f35b60008054906101000a900473ffffffffffffffffffffffffffffffffffffffff1673ffffffffffffffffffffffffffffffffffffffff163373ffffffffffffffffffffffffffffffffffffffff161461046b576040517f08c379a000000000000000000000000000000000000000000000000000000000815260040180806020018281038252602f815260200180610da3602f913960400191505060405180910390fd5b8181905084849050146104e6576040517f08c379a00000000000000000000000000000000000000000000000000000000081526004018080602001828103825260188152602001807f496e707574206c656e67746873206d757374206d61746368000000000000000081525060200191505060405180910390fd5b60005b8484905081101561061c5782828281811061050057fe5b9050602002013573ffffffffffffffffffffffffffffffffffffffff166002600087878581811061052d57fe5b90506020020135815260200190815260200160002060006101000a81548173ffffffffffffffffffffffffffffffffffffffff021916908373ffffffffffffffffffffffffffffffffffffffff1602179055507f256a0ebdf27db05ec0aa6a0db78f9e4071e198ac05bf76f0ca2b505e58287e8a8585838181106105ad57fe5b905060200201358484848181106105c057fe5b9050602002013573ffffffffffffffffffffffffffffffffffffffff16604051808381526020018273ffffffffffffffffffffffffffffffffffffffff1681526020019250505060405180910390a180806001019150506104e9565b5050505050565b60008054906101000a900473ffffffffffffffffffffffffffffffffffffffff1673ffffffffffffffffffffffffffffffffffffffff163373ffffffffffffffffffffffffffffffffffffffff16146106c7576040517f08c379a000000000000000000000000000000000000000000000000000000000815260040180806020018281038252602f815260200180610da3602f913960400191505060405180910390fd5b6000600160009054906101000a900473ffffffffffffffffffffffffffffffffffffffff16905081600160006101000a81548173ffffffffffffffffffffffffffffffffffffffff021916908373ffffffffffffffffffffffffffffffffffffffff1602179055507f0faed18be9e8f4d4c05dfbcc80ea2c97a0be729614d766827778f60890c02cab81600160009054906101000a900473ffffffffffffffffffffffffffffffffffffffff16604051808373ffffffffffffffffffffffffffffffffffffffff1681526020018273ffffffffffffffffffffffffffffffffffffffff1681526020019250505060405180910390a15050565b60006002600083815260200190815260200160002060009054906101000a900473ffffffffffffffffffffffffffffffffffffffff169050919050565b600160009054906101000a900473ffffffffffffffffffffffffffffffffffffffff1673ffffffffffffffffffffffffffffffffffffffff163373ffffffffffffffffffffffffffffffffffffffff16146108c0576040517f08c379a000000000000000000000000000000000000000000000000000000000815260040180806020018281038252601f8152602001807f4f6e6c792063616e6469646174652063616e206265636f6d652061646d696e0081525060200191505060405180910390fd5b60008060009054906101000a900473ffffffffffffffffffffffffffffffffffffffff169050600160009054906101000a900473ffffffffffffffffffffffffffffffffffffffff166000806101000a81548173ffffffffffffffffffffffffffffffffffffffff021916908373ffffffffffffffffffffffffffffffffffffffff1602179055507f7e644d79422f17c01e4894b5f4f588d331ebfa28653d42ae832dc59e38c9798f8160008054906101000a900473ffffffffffffffffffffffffffffffffffffffff16604051808373ffffffffffffffffffffffffffffffffffffffff1681526020018273ffffffffffffffffffffffffffffffffffffffff1681526020019250505060405180910390a150565b60008054906101000a900473ffffffffffffffffffffffffffffffffffffffff1673ffffffffffffffffffffffffffffffffffffffff163373ffffffffffffffffffffffffffffffffffffffff1614610a7a576040517f08c379a000000000000000000000000000000000000000000000000000000000815260040180806020018281038252602f815260200180610da3602f913960400191505060405180910390fd5b6000821415610af1576040517f08c379a00000000000000000000000000000000000000000000000000000000081526004018080602001828103825260158152602001807f6e616d652063616e206e6f7420626520656d707479000000000000000000000081525060200191505060405180910390fd5b600073ffffffffffffffffffffffffffffffffffffffff168173ffffffffffffffffffffffffffffffffffffffff161415610b94576040517f08c379a00000000000000000000000000000000000000000000000000000000081526004018080602001828103825260138152602001807f616464726573732063616e6e6f7420626520300000000000000000000000000081525060200191505060405180910390fd5b806002600084815260200190815260200160002060006101000a81548173ffffffffffffffffffffffffffffffffffffffff021916908373ffffffffffffffffffffffffffffffffffffffff1602179055507f256a0ebdf27db05ec0aa6a0db78f9e4071e198ac05bf76f0ca2b505e58287e8a8282604051808381526020018273ffffffffffffffffffffffffffffffffffffffff1681526020019250505060405180910390a15050565b600160009054906101000a900473ffffffffffffffffffffffffffffffffffffffff1681565b6000806002600086815260200190815260200160002060009054906101000a900473ffffffffffffffffffffffffffffffffffffffff169050600073ffffffffffffffffffffffffffffffffffffffff168173ffffffffffffffffffffffffffffffffffffffff16141584849091610d3e576040517f08c379a000000000000000000000000000000000000000000000000000000000815260040180806020018281038252848482818152602001925080828437600081840152601f19601f820116905080830192505050935050505060405180910390fd5b5050809150509392505050565b60026020528060005260406000206000915054906101000a900473ffffffffffffffffffffffffffffffffffffffff1681565b60008054906101000a900473ffffffffffffffffffffffffffffffffffffffff168156fe4f6e6c792074686520636f6e74726163742061646d696e2063616e20706572666f726d207468697320616374696f6ea2646970667358221220fead946a4b80dd7fd32b168383964537b31162a9f30cdd5a139fbf15e807e73464736f6c634300060c0033",
  "immutableReferences": {},
  "source": "// SPDX-License-Identifier: MIT\r\npragma solidity ^0.6.12;\r\n\r\n\r\nimport \"./LnAdmin.sol\";\r\n\r\ncontract LnAddressStorage is LnAdmin {\r\n\r\n    mapping(bytes32 => address) public mAddrs;\r\n\r\n    constructor(address _admin ) public LnAdmin(_admin ) {}\r\n\r\n\r\n    function updateAll(bytes32[] calldata names, address[] calldata destinations) external onlyAdmin {\r\n        require(names.length == destinations.length, \"Input lengths must match\");\r\n\r\n        for (uint i = 0; i < names.length; i++) {\r\n            mAddrs[names[i]] = destinations[i];\r\n            emit updateStorageAddress( names[i], destinations[i] );\r\n        }\r\n    }\r\n\r\n    function update(bytes32 name, address dest ) external onlyAdmin {\r\n        require( name != \"\", \"name can not be empty\");\r\n        require( dest != address(0), \"address cannot be 0\");\r\n        mAddrs[name] = dest;\r\n        emit updateStorageAddress( name, dest );\r\n    }\r\n\r\n    function getAddress(bytes32 name) external view returns (address) {\r\n        return mAddrs[name];\r\n    }\r\n\r\n    function getAddressWithRequire(bytes32 name, string calldata reason) external view returns (address) {\r\n        address _foundAddress = mAddrs[name];\r\n        require(_foundAddress != address(0), reason);\r\n        return _foundAddress;\r\n    }\r\n    event updateStorageAddress( bytes32 name, address addr );\r\n}\r\n\r\n\r\ninterface LnAddressCache  {\r\n    function updateAddressCache( LnAddressStorage _addressStorage )  external ;\r\n\r\n    event   updateCachedAddress( bytes32 name, address addr );\r\n}\r\n\r\ncontract testAddressCache  is LnAddressCache, LnAdmin {\r\n    address public addr1;\r\n    address public addr2;\r\n    \r\n    constructor(address _admin ) public LnAdmin(_admin ) {}\r\n\r\n\r\n    function updateAddressCache( LnAddressStorage _addressStorage ) onlyAdmin public override\r\n    {\r\n        addr1 = LnAddressStorage(_addressStorage).getAddressWithRequire(\"a\", \"\");\r\n        addr2 = LnAddressStorage(_addressStorage).getAddressWithRequire(\"b\", \"\" );\r\n        emit updateCachedAddress( \"a\", addr1 );\r\n        emit updateCachedAddress( \"b\", addr2 );\r\n    }\r\n\r\n}",
  "sourcePath": "/mnt/d/working/linearFinance/LinearFinanceToken/contracts/LnAddressCache.sol",
  "compiler": {
    "name": "solc",
    "version": "0.6.12+commit.27d51765.Emscripten.clang"
  },
  "schemaVersion": "3.2.3",
  "updatedAt": "2020-09-10T08:49:07.355Z",
  "devdoc": {
    "kind": "dev",
    "methods": {},
    "version": 1
  },
  "userdoc": {
    "kind": "user",
    "methods": {},
    "version": 1
  }
}