{
  "contractName": "LnBuildBurnSystem",
  "abi": [
    {
      "inputs": [
        {
          "internalType": "address",
          "name": "admin",
          "type": "address"
        },
        {
          "internalType": "address",
          "name": "_lUSDTokenAddr",
          "type": "address"
        }
      ],
      "stateMutability": "nonpayable",
      "type": "constructor"
    },
    {
      "anonymous": false,
      "inputs": [
        {
          "indexed": false,
          "internalType": "address",
          "name": "oldAdmin",
          "type": "address"
        },
        {
          "indexed": false,
          "internalType": "address",
          "name": "newAdmin",
          "type": "address"
        }
      ],
      "name": "AdminChanged",
      "type": "event"
    },
    {
      "anonymous": false,
      "inputs": [
        {
          "indexed": false,
          "internalType": "address",
          "name": "account",
          "type": "address"
        }
      ],
      "name": "Paused",
      "type": "event"
    },
    {
      "anonymous": false,
      "inputs": [
        {
          "indexed": false,
          "internalType": "address",
          "name": "account",
          "type": "address"
        }
      ],
      "name": "Unpaused",
      "type": "event"
    },
    {
      "anonymous": false,
      "inputs": [
        {
          "indexed": false,
          "internalType": "address",
          "name": "oldAddr",
          "type": "address"
        },
        {
          "indexed": false,
          "internalType": "address",
          "name": "newAddr",
          "type": "address"
        }
      ],
      "name": "UpdateLusdToken",
      "type": "event"
    },
    {
      "anonymous": false,
      "inputs": [
        {
          "indexed": false,
          "internalType": "address",
          "name": "oldCandidate",
          "type": "address"
        },
        {
          "indexed": false,
          "internalType": "address",
          "name": "newCandidate",
          "type": "address"
        }
      ],
      "name": "candidateChanged",
      "type": "event"
    },
    {
      "anonymous": false,
      "inputs": [
        {
          "indexed": false,
          "internalType": "bytes32",
          "name": "name",
          "type": "bytes32"
        },
        {
          "indexed": false,
          "internalType": "address",
          "name": "addr",
          "type": "address"
        }
      ],
      "name": "updateCachedAddress",
      "type": "event"
    },
    {
      "inputs": [],
      "name": "admin",
      "outputs": [
        {
          "internalType": "address",
          "name": "",
          "type": "address"
        }
      ],
      "stateMutability": "view",
      "type": "function"
    },
    {
      "inputs": [],
      "name": "becomeAdmin",
      "outputs": [],
      "stateMutability": "nonpayable",
      "type": "function"
    },
    {
      "inputs": [],
      "name": "candidate",
      "outputs": [
        {
          "internalType": "address",
          "name": "",
          "type": "address"
        }
      ],
      "stateMutability": "view",
      "type": "function"
    },
    {
      "inputs": [],
      "name": "paused",
      "outputs": [
        {
          "internalType": "bool",
          "name": "",
          "type": "bool"
        }
      ],
      "stateMutability": "view",
      "type": "function"
    },
    {
      "inputs": [
        {
          "internalType": "address",
          "name": "_candidate",
          "type": "address"
        }
      ],
      "name": "setCandidate",
      "outputs": [],
      "stateMutability": "nonpayable",
      "type": "function"
    },
    {
      "inputs": [
        {
          "internalType": "bool",
          "name": "_paused",
          "type": "bool"
        }
      ],
      "name": "setPaused",
      "outputs": [],
      "stateMutability": "nonpayable",
      "type": "function"
    },
    {
      "inputs": [
        {
          "internalType": "contract LnAddressStorage",
          "name": "_addressStorage",
          "type": "address"
        }
      ],
      "name": "updateAddressCache",
      "outputs": [],
      "stateMutability": "nonpayable",
      "type": "function"
    },
    {
      "inputs": [
        {
          "internalType": "address",
          "name": "_address",
          "type": "address"
        }
      ],
      "name": "SetLusdTokenAddress",
      "outputs": [],
      "stateMutability": "nonpayable",
      "type": "function"
    },
    {
      "inputs": [
        {
          "internalType": "address",
          "name": "user",
          "type": "address"
        }
      ],
      "name": "MaxCanBuildAsset",
      "outputs": [
        {
          "internalType": "uint256",
          "name": "",
          "type": "uint256"
        }
      ],
      "stateMutability": "view",
      "type": "function"
    },
    {
      "inputs": [
        {
          "internalType": "uint256",
          "name": "amount",
          "type": "uint256"
        }
      ],
      "name": "BuildAsset",
      "outputs": [
        {
          "internalType": "bool",
          "name": "",
          "type": "bool"
        }
      ],
      "stateMutability": "nonpayable",
      "type": "function"
    },
    {
      "inputs": [
        {
          "internalType": "uint256",
          "name": "amount",
          "type": "uint256"
        }
      ],
      "name": "BurnAsset",
      "outputs": [
        {
          "internalType": "bool",
          "name": "",
          "type": "bool"
        }
      ],
      "stateMutability": "nonpayable",
      "type": "function"
    }
  ],
  "bytecode": "0x608060405234801561001057600080fd5b5060405161286f38038061286f8339818101604052604081101561003357600080fd5b81019080805190602001909291908051906020019092919050505081600073ffffffffffffffffffffffffffffffffffffffff168173ffffffffffffffffffffffffffffffffffffffff1614156100f2576040517f08c379a00000000000000000000000000000000000000000000000000000000081526004018080602001828103825260198152602001807f61646d696e20616464726573732063616e6e6f7420626520300000000000000081525060200191505060405180910390fd5b806000806101000a81548173ffffffffffffffffffffffffffffffffffffffff021916908373ffffffffffffffffffffffffffffffffffffffff1602179055507f7e644d79422f17c01e4894b5f4f588d331ebfa28653d42ae832dc59e38c9798f600082604051808373ffffffffffffffffffffffffffffffffffffffff1681526020018273ffffffffffffffffffffffffffffffffffffffff1681526020019250505060405180910390a1506000600160146101000a81548160ff02191690831515021790555080600260006101000a81548173ffffffffffffffffffffffffffffffffffffffff021916908373ffffffffffffffffffffffffffffffffffffffff16021790555050506126638061020c6000396000f3fe608060405234801561001057600080fd5b50600436106100a85760003560e01c80635c975abb116100715780635c975abb146101b35780636c8381f8146101d3578063b390bb5614610207578063c4d14e561461024b578063f22f9a44146102a3578063f851a440146102e7576100a8565b806252e0b8146100ad57806307880b7f146100f157806316c38b3c1461013557806325971dff146101655780635a5f14c81461016f575b600080fd5b6100ef600480360360208110156100c357600080fd5b81019080803573ffffffffffffffffffffffffffffffffffffffff16906020019092919050505061031b565b005b6101336004803603602081101561010757600080fd5b81019080803573ffffffffffffffffffffffffffffffffffffffff169060200190929190505050610490565b005b6101636004803603602081101561014b57600080fd5b8101908080351515906020019092919050505061062d565b005b61016d6106f0565b005b6101b16004803603602081101561018557600080fd5b81019080803573ffffffffffffffffffffffffffffffffffffffff1690602001909291905050506108c9565b005b6101bb6111ff565b60405180821515815260200191505060405180910390f35b6101db611216565b604051808273ffffffffffffffffffffffffffffffffffffffff16815260200191505060405180910390f35b6102336004803603602081101561021d57600080fd5b810190808035906020019092919050505061123c565b60405180821515815260200191505060405180910390f35b61028d6004803603602081101561026157600080fd5b81019080803573ffffffffffffffffffffffffffffffffffffffff16906020019092919050505061188a565b6040518082815260200191505060405180910390f35b6102cf600480360360208110156102b957600080fd5b8101908080359060200190929190505050611b53565b60405180821515815260200191505060405180910390f35b6102ef611fad565b604051808273ffffffffffffffffffffffffffffffffffffffff16815260200191505060405180910390f35b60008054906101000a900473ffffffffffffffffffffffffffffffffffffffff1673ffffffffffffffffffffffffffffffffffffffff163373ffffffffffffffffffffffffffffffffffffffff16146103bf576040517f08c379a000000000000000000000000000000000000000000000000000000000815260040180806020018281038252602f8152602001806125ff602f913960400191505060405180910390fd5b7f1d874926a78c182b4824609bc4068a5db0de62896be4a392d42938c1a3100999600260009054906101000a900473ffffffffffffffffffffffffffffffffffffffff1682604051808373ffffffffffffffffffffffffffffffffffffffff1681526020018273ffffffffffffffffffffffffffffffffffffffff1681526020019250505060405180910390a180600260006101000a81548173ffffffffffffffffffffffffffffffffffffffff021916908373ffffffffffffffffffffffffffffffffffffffff16021790555050565b60008054906101000a900473ffffffffffffffffffffffffffffffffffffffff1673ffffffffffffffffffffffffffffffffffffffff163373ffffffffffffffffffffffffffffffffffffffff1614610534576040517f08c379a000000000000000000000000000000000000000000000000000000000815260040180806020018281038252602f8152602001806125ff602f913960400191505060405180910390fd5b6000600160009054906101000a900473ffffffffffffffffffffffffffffffffffffffff16905081600160006101000a81548173ffffffffffffffffffffffffffffffffffffffff021916908373ffffffffffffffffffffffffffffffffffffffff1602179055507f0faed18be9e8f4d4c05dfbcc80ea2c97a0be729614d766827778f60890c02cab81600160009054906101000a900473ffffffffffffffffffffffffffffffffffffffff16604051808373ffffffffffffffffffffffffffffffffffffffff1681526020018273ffffffffffffffffffffffffffffffffffffffff1681526020019250505060405180910390a15050565b60008054906101000a900473ffffffffffffffffffffffffffffffffffffffff1673ffffffffffffffffffffffffffffffffffffffff163373ffffffffffffffffffffffffffffffffffffffff16146106d1576040517f08c379a000000000000000000000000000000000000000000000000000000000815260040180806020018281038252602f8152602001806125ff602f913960400191505060405180910390fd5b80156106e4576106df611fd1565b6106ed565b6106ec6120c4565b5b50565b600160009054906101000a900473ffffffffffffffffffffffffffffffffffffffff1673ffffffffffffffffffffffffffffffffffffffff163373ffffffffffffffffffffffffffffffffffffffff16146107b3576040517f08c379a000000000000000000000000000000000000000000000000000000000815260040180806020018281038252601f8152602001807f4f6e6c792063616e6469646174652063616e206265636f6d652061646d696e0081525060200191505060405180910390fd5b60008060009054906101000a900473ffffffffffffffffffffffffffffffffffffffff169050600160009054906101000a900473ffffffffffffffffffffffffffffffffffffffff166000806101000a81548173ffffffffffffffffffffffffffffffffffffffff021916908373ffffffffffffffffffffffffffffffffffffffff1602179055507f7e644d79422f17c01e4894b5f4f588d331ebfa28653d42ae832dc59e38c9798f8160008054906101000a900473ffffffffffffffffffffffffffffffffffffffff16604051808373ffffffffffffffffffffffffffffffffffffffff1681526020018273ffffffffffffffffffffffffffffffffffffffff1681526020019250505060405180910390a150565b60008054906101000a900473ffffffffffffffffffffffffffffffffffffffff1673ffffffffffffffffffffffffffffffffffffffff163373ffffffffffffffffffffffffffffffffffffffff161461096d576040517f08c379a000000000000000000000000000000000000000000000000000000000815260040180806020018281038252602f8152602001806125ff602f913960400191505060405180910390fd5b8073ffffffffffffffffffffffffffffffffffffffff1663768911da6040518163ffffffff1660e01b815260040180807f4c6e507269636573000000000000000000000000000000000000000000000000815250602001806020018281038252601a8152602001807f4c6e5072696365732061646472657373206e6f742076616c696400000000000081525060200191505060206040518083038186803b158015610a1757600080fd5b505afa158015610a2b573d6000803e3d6000fd5b505050506040513d6020811015610a4157600080fd5b8101908080519060200190929190505050600560006101000a81548173ffffffffffffffffffffffffffffffffffffffff021916908373ffffffffffffffffffffffffffffffffffffffff1602179055508073ffffffffffffffffffffffffffffffffffffffff1663768911da6040518163ffffffff1660e01b815260040180807f4c6e4465627453797374656d0000000000000000000000000000000000000000815250602001806020018281038252601e8152602001807f4c6e4465627453797374656d2061646472657373206e6f742076616c6964000081525060200191505060206040518083038186803b158015610b3c57600080fd5b505afa158015610b50573d6000803e3d6000fd5b505050506040513d6020811015610b6657600080fd5b8101908080519060200190929190505050600360006101000a81548173ffffffffffffffffffffffffffffffffffffffff021916908373ffffffffffffffffffffffffffffffffffffffff1602179055508073ffffffffffffffffffffffffffffffffffffffff1663768911da6040518163ffffffff1660e01b815260040180807f4c6e417373657453797374656d00000000000000000000000000000000000000815250602001806020018281038252601f8152602001807f4c6e417373657453797374656d2061646472657373206e6f742076616c69640081525060200191505060206040518083038186803b158015610c6157600080fd5b505afa158015610c75573d6000803e3d6000fd5b505050506040513d6020811015610c8b57600080fd5b8101908080519060200190929190505050600460006101000a81548173ffffffffffffffffffffffffffffffffffffffff021916908373ffffffffffffffffffffffffffffffffffffffff1602179055508073ffffffffffffffffffffffffffffffffffffffff1663768911da6040518163ffffffff1660e01b815260040180807f4c6e436f6c6c61746572616c53797374656d0000000000000000000000000000815250602001806020018281038252602481526020018061258c6024913960400191505060206040518083038186803b158015610d6957600080fd5b505afa158015610d7d573d6000803e3d6000fd5b505050506040513d6020811015610d9357600080fd5b8101908080519060200190929190505050600660006101000a81548173ffffffffffffffffffffffffffffffffffffffff021916908373ffffffffffffffffffffffffffffffffffffffff1602179055508073ffffffffffffffffffffffffffffffffffffffff1663768911da6040518163ffffffff1660e01b815260040180807f4c6e436f6e666967000000000000000000000000000000000000000000000000815250602001806020018281038252601a8152602001807f4c6e436f6e6669672061646472657373206e6f742076616c696400000000000081525060200191505060206040518083038186803b158015610e8e57600080fd5b505afa158015610ea2573d6000803e3d6000fd5b505050506040513d6020811015610eb857600080fd5b8101908080519060200190929190505050600760006101000a81548173ffffffffffffffffffffffffffffffffffffffff021916908373ffffffffffffffffffffffffffffffffffffffff1602179055507f45a7f8d84f7ad724869d024abcaa743ae6aec455a969df76b5d1e9c5cac4d2ae600560009054906101000a900473ffffffffffffffffffffffffffffffffffffffff1660405180807f4c6e5072696365730000000000000000000000000000000000000000000000008152506020018273ffffffffffffffffffffffffffffffffffffffff16815260200191505060405180910390a17f45a7f8d84f7ad724869d024abcaa743ae6aec455a969df76b5d1e9c5cac4d2ae600360009054906101000a900473ffffffffffffffffffffffffffffffffffffffff1660405180807f4c6e4465627453797374656d00000000000000000000000000000000000000008152506020018273ffffffffffffffffffffffffffffffffffffffff16815260200191505060405180910390a17f45a7f8d84f7ad724869d024abcaa743ae6aec455a969df76b5d1e9c5cac4d2ae600460009054906101000a900473ffffffffffffffffffffffffffffffffffffffff1660405180807f4c6e417373657453797374656d000000000000000000000000000000000000008152506020018273ffffffffffffffffffffffffffffffffffffffff16815260200191505060405180910390a17f45a7f8d84f7ad724869d024abcaa743ae6aec455a969df76b5d1e9c5cac4d2ae600660009054906101000a900473ffffffffffffffffffffffffffffffffffffffff1660405180807f4c6e436f6c6c61746572616c53797374656d00000000000000000000000000008152506020018273ffffffffffffffffffffffffffffffffffffffff16815260200191505060405180910390a17f45a7f8d84f7ad724869d024abcaa743ae6aec455a969df76b5d1e9c5cac4d2ae600760009054906101000a900473ffffffffffffffffffffffffffffffffffffffff1660405180807f4c6e436f6e6669670000000000000000000000000000000000000000000000008152506020018273ffffffffffffffffffffffffffffffffffffffff16815260200191505060405180910390a150565b6000600160149054906101000a900460ff16905090565b600160009054906101000a900473ffffffffffffffffffffffffffffffffffffffff1681565b6000600160149054906101000a900460ff16156112c1576040517f08c379a00000000000000000000000000000000000000000000000000000000081526004018080602001828103825260108152602001807f5061757361626c653a207061757365640000000000000000000000000000000081525060200191505060405180910390fd5b60003390506000600760009054906101000a900473ffffffffffffffffffffffffffffffffffffffff1673ffffffffffffffffffffffffffffffffffffffff1663bd02d0f5600760009054906101000a900473ffffffffffffffffffffffffffffffffffffffff1673ffffffffffffffffffffffffffffffffffffffff16634d6daf046040518163ffffffff1660e01b815260040160206040518083038186803b15801561136e57600080fd5b505afa158015611382573d6000803e3d6000fd5b505050506040513d602081101561139857600080fd5b81019080805190602001909291905050506040518263ffffffff1660e01b81526004018082815260200191505060206040518083038186803b1580156113dd57600080fd5b505afa1580156113f1573d6000803e3d6000fd5b505050506040513d602081101561140757600080fd5b8101908080519060200190929190505050905060006114f282600660009054906101000a900473ffffffffffffffffffffffffffffffffffffffff1673ffffffffffffffffffffffffffffffffffffffff1663f563feec866040518263ffffffff1660e01b8152600401808273ffffffffffffffffffffffffffffffffffffffff16815260200191505060206040518083038186803b1580156114a957600080fd5b505afa1580156114bd573d6000803e3d6000fd5b505050506040513d60208110156114d357600080fd5b81019080805190602001909291905050506121b790919063ffffffff16565b90508085111561154d576040517f08c379a000000000000000000000000000000000000000000000000000000000815260040180806020018281038252602e8152602001806125d1602e913960400191505060405180910390fd5b600080600360009054906101000a900473ffffffffffffffffffffffffffffffffffffffff1673ffffffffffffffffffffffffffffffffffffffff16631882d090866040518263ffffffff1660e01b8152600401808273ffffffffffffffffffffffffffffffffffffffff168152602001915050604080518083038186803b1580156115d857600080fd5b505afa1580156115ec573d6000803e3d6000fd5b505050506040513d604081101561160257600080fd5b81019080805190602001909291908051906020019092919050505091509150600061163688836121e490919063ffffffff16565b9050600061164d828a61226c90919063ffffffff16565b905060006116e28273__SafeDecimalMath_______________________63d5e5e6e66040518163ffffffff1660e01b815260040160206040518083038186803b15801561169957600080fd5b505af41580156116ad573d6000803e3d6000fd5b505050506040513d60208110156116c357600080fd5b810190808051906020019092919050505061228890919063ffffffff16565b90506000829050600086111561171a57611717846117098d896121e490919063ffffffff16565b61226c90919063ffffffff16565b90505b600360009054906101000a900473ffffffffffffffffffffffffffffffffffffffff1673ffffffffffffffffffffffffffffffffffffffff1663028667d38a83856040518463ffffffff1660e01b8152600401808473ffffffffffffffffffffffffffffffffffffffff1681526020018381526020018281526020019350505050600060405180830381600087803b1580156117b557600080fd5b505af11580156117c9573d6000803e3d6000fd5b50505050600260009054906101000a900473ffffffffffffffffffffffffffffffffffffffff1673ffffffffffffffffffffffffffffffffffffffff166340c10f198a8d6040518363ffffffff1660e01b8152600401808373ffffffffffffffffffffffffffffffffffffffff16815260200182815260200192505050600060405180830381600087803b15801561186057600080fd5b505af1158015611874573d6000803e3d6000fd5b5050505060019950505050505050505050919050565b600080600760009054906101000a900473ffffffffffffffffffffffffffffffffffffffff1673ffffffffffffffffffffffffffffffffffffffff1663bd02d0f5600760009054906101000a900473ffffffffffffffffffffffffffffffffffffffff1673ffffffffffffffffffffffffffffffffffffffff16634d6daf046040518163ffffffff1660e01b815260040160206040518083038186803b15801561193357600080fd5b505afa158015611947573d6000803e3d6000fd5b505050506040513d602081101561195d57600080fd5b81019080805190602001909291905050506040518263ffffffff1660e01b81526004018082815260200191505060206040518083038186803b1580156119a257600080fd5b505afa1580156119b6573d6000803e3d6000fd5b505050506040513d60208110156119cc57600080fd5b810190808051906020019092919050505090506000611b4773__SafeDecimalMath_______________________63907af6c06040518163ffffffff1660e01b815260040160206040518083038186803b158015611a2857600080fd5b505af4158015611a3c573d6000803e3d6000fd5b505050506040513d6020811015611a5257600080fd5b8101908080519060200190929190505050611b3984600660009054906101000a900473ffffffffffffffffffffffffffffffffffffffff1673ffffffffffffffffffffffffffffffffffffffff1663f563feec896040518263ffffffff1660e01b8152600401808273ffffffffffffffffffffffffffffffffffffffff16815260200191505060206040518083038186803b158015611af057600080fd5b505afa158015611b04573d6000803e3d6000fd5b505050506040513d6020811015611b1a57600080fd5b81019080805190602001909291905050506122d290919063ffffffff16565b61235890919063ffffffff16565b90508092505050919050565b6000600160149054906101000a900460ff1615611bd8576040517f08c379a00000000000000000000000000000000000000000000000000000000081526004018080602001828103825260108152602001807f5061757361626c653a207061757365640000000000000000000000000000000081525060200191505060405180910390fd5b6000339050600080600360009054906101000a900473ffffffffffffffffffffffffffffffffffffffff1673ffffffffffffffffffffffffffffffffffffffff16631882d090846040518263ffffffff1660e01b8152600401808273ffffffffffffffffffffffffffffffffffffffff168152602001915050604080518083038186803b158015611c6857600080fd5b505afa158015611c7c573d6000803e3d6000fd5b505050506040513d6040811015611c9257600080fd5b8101908080519060200190929190805190602001909291905050509150915060008211611d27576040517f08c379a00000000000000000000000000000000000000000000000000000000081526004018080602001828103825260108152602001807f6e6f20646562742c206e6f206275726e0000000000000000000000000000000081525060200191505060405180910390fd5b6000858310611d365785611d38565b825b90506000611d4f828461228890919063ffffffff16565b9050600080821115611e07576000611d70838561226c90919063ffffffff16565b9050611e038173__SafeDecimalMath_______________________63d5e5e6e66040518163ffffffff1660e01b815260040160206040518083038186803b158015611dba57600080fd5b505af4158015611dce573d6000803e3d6000fd5b505050506040513d6020811015611de457600080fd5b81019080805190602001909291905050506121e490919063ffffffff16565b9150505b600083861115611e3f576000611e26858861228890919063ffffffff16565b9050611e3b848261226c90919063ffffffff16565b9150505b600360009054906101000a900473ffffffffffffffffffffffffffffffffffffffff1673ffffffffffffffffffffffffffffffffffffffff1663028667d38883856040518463ffffffff1660e01b8152600401808473ffffffffffffffffffffffffffffffffffffffff1681526020018381526020018281526020019350505050600060405180830381600087803b158015611eda57600080fd5b505af1158015611eee573d6000803e3d6000fd5b50505050600260009054906101000a900473ffffffffffffffffffffffffffffffffffffffff1673ffffffffffffffffffffffffffffffffffffffff16639dc29fac88866040518363ffffffff1660e01b8152600401808373ffffffffffffffffffffffffffffffffffffffff16815260200182815260200192505050600060405180830381600087803b158015611f8557600080fd5b505af1158015611f99573d6000803e3d6000fd5b505050506001975050505050505050919050565b60008054906101000a900473ffffffffffffffffffffffffffffffffffffffff1681565b600160149054906101000a900460ff1615612054576040517f08c379a00000000000000000000000000000000000000000000000000000000081526004018080602001828103825260108152602001807f5061757361626c653a207061757365640000000000000000000000000000000081525060200191505060405180910390fd5b60018060146101000a81548160ff0219169083151502179055507f62e78cea01bee320cd4e420270b5ea74000d11b0c9f74754ebdbfc544b05a2586120976123a2565b604051808273ffffffffffffffffffffffffffffffffffffffff16815260200191505060405180910390a1565b600160149054906101000a900460ff16612146576040517f08c379a00000000000000000000000000000000000000000000000000000000081526004018080602001828103825260148152602001807f5061757361626c653a206e6f742070617573656400000000000000000000000081525060200191505060405180910390fd5b6000600160146101000a81548160ff0219169083151502179055507f5db9ee0a495bf2e6ff9c91a7834c1ba4fdd244a5e8aa4e537bd38aeae4b073aa61218a6123a2565b604051808273ffffffffffffffffffffffffffffffffffffffff16815260200191505060405180910390a1565b6000601260ff16600a0a6121d483856122d290919063ffffffff16565b816121db57fe5b04905092915050565b600080828401905083811015612262576040517f08c379a000000000000000000000000000000000000000000000000000000000815260040180806020018281038252601b8152602001807f536166654d6174683a206164646974696f6e206f766572666c6f77000000000081525060200191505060405180910390fd5b8091505092915050565b60006122808383601b60ff16600a0a6123aa565b905092915050565b60006122ca83836040518060400160405280601e81526020017f536166654d6174683a207375627472616374696f6e206f766572666c6f770000815250612405565b905092915050565b6000808314156122e55760009050612352565b60008284029050828482816122f657fe5b041461234d576040517f08c379a00000000000000000000000000000000000000000000000000000000081526004018080602001828103825260218152602001806125b06021913960400191505060405180910390fd5b809150505b92915050565b600061239a83836040518060400160405280601a81526020017f536166654d6174683a206469766973696f6e206279207a65726f0000000000008152506124c5565b905092915050565b600033905090565b6000806123d5846123c7600a8602886122d290919063ffffffff16565b61235890919063ffffffff16565b90506005600a82816123e357fe5b06106123f057600a810190505b600a81816123fa57fe5b049150509392505050565b60008383111582906124b2576040517f08c379a00000000000000000000000000000000000000000000000000000000081526004018080602001828103825283818151815260200191508051906020019080838360005b8381101561247757808201518184015260208101905061245c565b50505050905090810190601f1680156124a45780820380516001836020036101000a031916815260200191505b509250505060405180910390fd5b5060008385039050809150509392505050565b60008083118290612571576040517f08c379a00000000000000000000000000000000000000000000000000000000081526004018080602001828103825283818151815260200191508051906020019080838360005b8381101561253657808201518184015260208101905061251b565b50505050905090810190601f1680156125635780820380516001836020036101000a031916815260200191505b509250505060405180910390fd5b50600083858161257d57fe5b04905080915050939250505056fe4c6e436f6c6c61746572616c53797374656d2061646472657373206e6f742076616c6964536166654d6174683a206d756c7469706c69636174696f6e206f766572666c6f774275696c6420616d6f756e7420746f6f206269672c20796f75206e656564206d6f726520636f6c6c61746572616c4f6e6c792074686520636f6e74726163742061646d696e2063616e20706572666f726d207468697320616374696f6ea264697066735822122048b9f6798e737c15988956539b27106aa169eff3178a331e98546e803360214164736f6c634300060c0033",
  "immutableReferences": {},
  "source": "// SPDX-License-Identifier: MIT\r\npragma solidity ^0.6.12;\r\n\r\nimport \"./IERC20.sol\";\r\nimport \"./LnAdmin.sol\";\r\nimport \"@openzeppelin/contracts/math/SafeMath.sol\";\r\nimport \"@openzeppelin/contracts/utils/Pausable.sol\";\r\nimport \"@openzeppelin/contracts/utils/Address.sol\";\r\nimport \"./SafeDecimalMath.sol\";\r\nimport \"./LnPrices.sol\";\r\nimport \"./LnAddressCache.sol\";\r\nimport \"./LnAsset.sol\";\r\nimport \"./LnAssetSystem.sol\";\r\nimport \"./LnDebtSystem.sol\";\r\nimport \"./LnCollateralSystem.sol\";\r\nimport \"./LnConfig.sol\";\r\n\r\n//  LnCollateralSystem buildable lusd\r\ncontract LnBuildBurnSystem is LnAdmin, Pausable, LnAddressCache {\r\n    using SafeMath for uint;\r\n    using SafeDecimalMath for uint;\r\n    using Address for address;\r\n\r\n    // -------------------------------------------------------\r\n    // need set before system running value.\r\n    LnAsset private lUSDToken; // this contract need \r\n\r\n    LnDebtSystem private debtSystem;\r\n    LnAssetSystem private assetSys;\r\n    LnPrices private priceGetter;\r\n    LnCollateralSystem private collaterSys;\r\n    LnConfig private mConfig;\r\n    // -------------------------------------------------------\r\n    constructor(address admin, address _lUSDTokenAddr) public LnAdmin(admin) {\r\n        lUSDToken = LnAsset(_lUSDTokenAddr);\r\n    }\r\n\r\n    function setPaused(bool _paused) external onlyAdmin {\r\n        if (_paused) {\r\n            _pause();\r\n        } else {\r\n            _unpause();\r\n        }\r\n    }\r\n\r\n    function updateAddressCache( LnAddressStorage _addressStorage ) onlyAdmin public override\r\n    {\r\n        priceGetter =    LnPrices( _addressStorage.getAddressWithRequire( \"LnPrices\",     \"LnPrices address not valid\" ) );\r\n        debtSystem = LnDebtSystem( _addressStorage.getAddressWithRequire( \"LnDebtSystem\", \"LnDebtSystem address not valid\" ) );\r\n        assetSys =  LnAssetSystem( _addressStorage.getAddressWithRequire( \"LnAssetSystem\",\"LnAssetSystem address not valid\" ) );\r\n        collaterSys = LnCollateralSystem( _addressStorage.getAddressWithRequire( \"LnCollateralSystem\",\"LnCollateralSystem address not valid\" ) );\r\n        mConfig =        LnConfig( _addressStorage.getAddressWithRequire( \"LnConfig\",     \"LnConfig address not valid\" ) );\r\n\r\n        emit updateCachedAddress( \"LnPrices\",           address(priceGetter) );\r\n        emit updateCachedAddress( \"LnDebtSystem\",       address(debtSystem) );\r\n        emit updateCachedAddress( \"LnAssetSystem\",      address(assetSys) );\r\n        emit updateCachedAddress( \"LnCollateralSystem\", address(collaterSys) );\r\n        emit updateCachedAddress( \"LnConfig\",           address(mConfig) );\r\n    }\r\n\r\n    function SetLusdTokenAddress(address _address) public onlyAdmin {\r\n        emit UpdateLusdToken(address(lUSDToken), _address);\r\n        lUSDToken = LnAsset(_address);\r\n    }\r\n\r\n    event UpdateLusdToken(address oldAddr, address newAddr);\r\n\r\n    function MaxCanBuildAsset(address user) external view returns(uint256) {\r\n        uint256 buildRatio = mConfig.getUint(mConfig.BUILD_RATIO());\r\n        uint256 maxCanBuild = collaterSys.MaxRedeemableInUsd(user).mul(buildRatio).div(SafeDecimalMath.unit());\r\n        return maxCanBuild;\r\n    }\r\n\r\n    // build lusd\r\n    function BuildAsset(uint256 amount) external whenNotPaused returns(bool) {\r\n        address user = msg.sender;\r\n        uint256 buildRatio = mConfig.getUint(mConfig.BUILD_RATIO());\r\n        uint256 maxCanBuild = collaterSys.MaxRedeemableInUsd(user).multiplyDecimal(buildRatio);\r\n        require(amount <= maxCanBuild, \"Build amount too big, you need more collateral\");\r\n\r\n        // calc debt\r\n        (uint256 oldUserDebtBalance, uint256 totalAssetSupplyInUsd) = debtSystem.GetUserDebtBalanceInUsd(user);\r\n\r\n        uint256 newTotalAssetSupply = totalAssetSupplyInUsd.add(amount);\r\n        // update debt data\r\n        uint256 buildDebtProportion = amount.divideDecimalRoundPrecise(newTotalAssetSupply);// debtPercentage\r\n        uint oldTotalProportion = SafeDecimalMath.preciseUnit().sub(buildDebtProportion);// \r\n\r\n        uint256 newUserDebtProportion = buildDebtProportion;\r\n        if (oldUserDebtBalance > 0) {\r\n            newUserDebtProportion = oldUserDebtBalance.add(amount).divideDecimalRoundPrecise(newTotalAssetSupply);\r\n        }\r\n\r\n        // update debt\r\n        debtSystem.UpdateDebt(user, newUserDebtProportion, oldTotalProportion);\r\n\r\n        // mint asset\r\n        lUSDToken.mint(user, amount);\r\n\r\n        return true;\r\n    }\r\n\r\n    // burn\r\n    function BurnAsset(uint256 amount) external whenNotPaused returns(bool) {\r\n        address user = msg.sender;\r\n        //uint256 buildRatio = mConfig.getUint(mConfig.BUILD_RATIO());\r\n\r\n        // calc debt\r\n        (uint256 oldUserDebtBalance, uint256 totalAssetSupplyInUsd) = debtSystem.GetUserDebtBalanceInUsd(user);\r\n        require(oldUserDebtBalance > 0, \"no debt, no burn\");\r\n        uint256 burnAmount = oldUserDebtBalance < amount ? oldUserDebtBalance : amount;\r\n        \r\n        uint newTotalDebtIssued = totalAssetSupplyInUsd.sub(burnAmount);\r\n\r\n        uint oldTotalProportion = 0;\r\n        if (newTotalDebtIssued > 0) {\r\n            uint debtPercentage = burnAmount.divideDecimalRoundPrecise(newTotalDebtIssued);\r\n            oldTotalProportion = SafeDecimalMath.preciseUnit().add(debtPercentage);\r\n        }\r\n\r\n        uint256 newUserDebtProportion = 0;\r\n        if (oldUserDebtBalance > burnAmount) {\r\n            uint newDebt = oldUserDebtBalance.sub(burnAmount);\r\n            newUserDebtProportion = newDebt.divideDecimalRoundPrecise(newTotalDebtIssued);\r\n        }\r\n\r\n        // update debt\r\n        debtSystem.UpdateDebt(user, newUserDebtProportion, oldTotalProportion);\r\n\r\n        // burn asset\r\n        lUSDToken.burn(user, burnAmount);\r\n\r\n        return true;\r\n    }\r\n\r\n}\r\n",
  "sourcePath": "/mnt/d/working/linearFinance/LinearFinanceToken/contracts/LnBuildBurnSystem.sol",
  "compiler": {
    "name": "solc",
    "version": "0.6.12+commit.27d51765.Emscripten.clang"
  },
  "schemaVersion": "3.2.3",
  "updatedAt": "2020-09-10T08:49:07.408Z",
  "devdoc": {
    "kind": "dev",
    "methods": {
      "paused()": {
        "details": "Returns true if the contract is paused, and false otherwise."
      }
    },
    "version": 1
  },
  "userdoc": {
    "kind": "user",
    "methods": {},
    "version": 1
  }
}