{
  "contractName": "LnChainLinkPrices",
  "abi": [
    {
      "inputs": [
        {
          "internalType": "address",
          "name": "_admin",
          "type": "address"
        },
        {
          "internalType": "address",
          "name": "_oracle",
          "type": "address"
        },
        {
          "internalType": "bytes32[]",
          "name": "_currencies",
          "type": "bytes32[]"
        },
        {
          "internalType": "uint256[]",
          "name": "_prices",
          "type": "uint256[]"
        }
      ],
      "stateMutability": "nonpayable",
      "type": "constructor"
    },
    {
      "anonymous": false,
      "inputs": [
        {
          "indexed": false,
          "internalType": "address",
          "name": "oldAdmin",
          "type": "address"
        },
        {
          "indexed": false,
          "internalType": "address",
          "name": "newAdmin",
          "type": "address"
        }
      ],
      "name": "AdminChanged",
      "type": "event"
    },
    {
      "anonymous": false,
      "inputs": [
        {
          "indexed": false,
          "internalType": "bytes32",
          "name": "currencyKey",
          "type": "bytes32"
        },
        {
          "indexed": false,
          "internalType": "address",
          "name": "Oracle",
          "type": "address"
        }
      ],
      "name": "OracleAdded",
      "type": "event"
    },
    {
      "anonymous": false,
      "inputs": [
        {
          "indexed": false,
          "internalType": "bytes32",
          "name": "currencyKey",
          "type": "bytes32"
        },
        {
          "indexed": false,
          "internalType": "address",
          "name": "Oracle",
          "type": "address"
        }
      ],
      "name": "OracleRemoved",
      "type": "event"
    },
    {
      "anonymous": false,
      "inputs": [
        {
          "indexed": false,
          "internalType": "address",
          "name": "newOracle",
          "type": "address"
        }
      ],
      "name": "OracleUpdated",
      "type": "event"
    },
    {
      "anonymous": false,
      "inputs": [
        {
          "indexed": false,
          "internalType": "bytes32",
          "name": "currencyName",
          "type": "bytes32"
        }
      ],
      "name": "PriceDeleted",
      "type": "event"
    },
    {
      "anonymous": false,
      "inputs": [
        {
          "indexed": false,
          "internalType": "bytes32[]",
          "name": "currencyNames",
          "type": "bytes32[]"
        },
        {
          "indexed": false,
          "internalType": "uint256[]",
          "name": "newPrices",
          "type": "uint256[]"
        }
      ],
      "name": "PricesUpdated",
      "type": "event"
    },
    {
      "anonymous": false,
      "inputs": [
        {
          "indexed": false,
          "internalType": "uint256",
          "name": "priceStalePeriod",
          "type": "uint256"
        }
      ],
      "name": "StalePeriodUpdated",
      "type": "event"
    },
    {
      "anonymous": false,
      "inputs": [
        {
          "indexed": false,
          "internalType": "address",
          "name": "oldCandidate",
          "type": "address"
        },
        {
          "indexed": false,
          "internalType": "address",
          "name": "newCandidate",
          "type": "address"
        }
      ],
      "name": "candidateChanged",
      "type": "event"
    },
    {
      "inputs": [],
      "name": "LINA",
      "outputs": [
        {
          "internalType": "bytes32",
          "name": "",
          "type": "bytes32"
        }
      ],
      "stateMutability": "view",
      "type": "function"
    },
    {
      "inputs": [],
      "name": "LUSD",
      "outputs": [
        {
          "internalType": "bytes32",
          "name": "",
          "type": "bytes32"
        }
      ],
      "stateMutability": "view",
      "type": "function"
    },
    {
      "inputs": [],
      "name": "admin",
      "outputs": [
        {
          "internalType": "address",
          "name": "",
          "type": "address"
        }
      ],
      "stateMutability": "view",
      "type": "function"
    },
    {
      "inputs": [],
      "name": "becomeAdmin",
      "outputs": [],
      "stateMutability": "nonpayable",
      "type": "function"
    },
    {
      "inputs": [],
      "name": "candidate",
      "outputs": [
        {
          "internalType": "address",
          "name": "",
          "type": "address"
        }
      ],
      "stateMutability": "view",
      "type": "function"
    },
    {
      "inputs": [
        {
          "internalType": "bytes32",
          "name": "currencyName",
          "type": "bytes32"
        }
      ],
      "name": "deletePrice",
      "outputs": [],
      "stateMutability": "nonpayable",
      "type": "function"
    },
    {
      "inputs": [
        {
          "internalType": "bytes32",
          "name": "sourceName",
          "type": "bytes32"
        },
        {
          "internalType": "uint256",
          "name": "sourceAmount",
          "type": "uint256"
        },
        {
          "internalType": "bytes32",
          "name": "destName",
          "type": "bytes32"
        }
      ],
      "name": "exchange",
      "outputs": [
        {
          "internalType": "uint256",
          "name": "value",
          "type": "uint256"
        }
      ],
      "stateMutability": "view",
      "type": "function"
    },
    {
      "inputs": [
        {
          "internalType": "bytes32",
          "name": "sourceName",
          "type": "bytes32"
        },
        {
          "internalType": "uint256",
          "name": "sourceAmount",
          "type": "uint256"
        },
        {
          "internalType": "bytes32",
          "name": "destName",
          "type": "bytes32"
        }
      ],
      "name": "exchangeAndPrices",
      "outputs": [
        {
          "internalType": "uint256",
          "name": "value",
          "type": "uint256"
        },
        {
          "internalType": "uint256",
          "name": "sourcePrice",
          "type": "uint256"
        },
        {
          "internalType": "uint256",
          "name": "destPrice",
          "type": "uint256"
        }
      ],
      "stateMutability": "view",
      "type": "function"
    },
    {
      "inputs": [
        {
          "internalType": "bytes32",
          "name": "currencyName",
          "type": "bytes32"
        }
      ],
      "name": "getCurrentRoundId",
      "outputs": [
        {
          "internalType": "uint256",
          "name": "",
          "type": "uint256"
        }
      ],
      "stateMutability": "view",
      "type": "function"
    },
    {
      "inputs": [
        {
          "internalType": "bytes32",
          "name": "currencyName",
          "type": "bytes32"
        }
      ],
      "name": "getPrice",
      "outputs": [
        {
          "internalType": "uint256",
          "name": "",
          "type": "uint256"
        }
      ],
      "stateMutability": "view",
      "type": "function"
    },
    {
      "inputs": [
        {
          "internalType": "bytes32",
          "name": "currencyName",
          "type": "bytes32"
        }
      ],
      "name": "getPriceAndUpdatedTime",
      "outputs": [
        {
          "internalType": "uint256",
          "name": "price",
          "type": "uint256"
        },
        {
          "internalType": "uint256",
          "name": "time",
          "type": "uint256"
        }
      ],
      "stateMutability": "view",
      "type": "function"
    },
    {
      "inputs": [
        {
          "internalType": "bytes32",
          "name": "currencyName",
          "type": "bytes32"
        }
      ],
      "name": "isStale",
      "outputs": [
        {
          "internalType": "bool",
          "name": "",
          "type": "bool"
        }
      ],
      "stateMutability": "view",
      "type": "function"
    },
    {
      "inputs": [
        {
          "internalType": "uint256",
          "name": "",
          "type": "uint256"
        }
      ],
      "name": "mOracleArray",
      "outputs": [
        {
          "internalType": "bytes32",
          "name": "",
          "type": "bytes32"
        }
      ],
      "stateMutability": "view",
      "type": "function"
    },
    {
      "inputs": [
        {
          "internalType": "bytes32",
          "name": "",
          "type": "bytes32"
        }
      ],
      "name": "mOracles",
      "outputs": [
        {
          "internalType": "contract OracleInterface",
          "name": "",
          "type": "address"
        }
      ],
      "stateMutability": "view",
      "type": "function"
    },
    {
      "inputs": [
        {
          "internalType": "bytes32",
          "name": "",
          "type": "bytes32"
        }
      ],
      "name": "mPricesLastRound",
      "outputs": [
        {
          "internalType": "uint256",
          "name": "",
          "type": "uint256"
        }
      ],
      "stateMutability": "view",
      "type": "function"
    },
    {
      "inputs": [],
      "name": "oracle",
      "outputs": [
        {
          "internalType": "address",
          "name": "",
          "type": "address"
        }
      ],
      "stateMutability": "view",
      "type": "function"
    },
    {
      "inputs": [
        {
          "internalType": "address",
          "name": "_candidate",
          "type": "address"
        }
      ],
      "name": "setCandidate",
      "outputs": [],
      "stateMutability": "nonpayable",
      "type": "function"
    },
    {
      "inputs": [
        {
          "internalType": "address",
          "name": "_oracle",
          "type": "address"
        }
      ],
      "name": "setOracle",
      "outputs": [],
      "stateMutability": "nonpayable",
      "type": "function"
    },
    {
      "inputs": [
        {
          "internalType": "uint256",
          "name": "_time",
          "type": "uint256"
        }
      ],
      "name": "setStalePeriod",
      "outputs": [],
      "stateMutability": "nonpayable",
      "type": "function"
    },
    {
      "inputs": [],
      "name": "stalePeriod",
      "outputs": [
        {
          "internalType": "uint256",
          "name": "",
          "type": "uint256"
        }
      ],
      "stateMutability": "view",
      "type": "function"
    },
    {
      "inputs": [
        {
          "internalType": "bytes32[]",
          "name": "currencyNames",
          "type": "bytes32[]"
        },
        {
          "internalType": "uint256[]",
          "name": "newPrices",
          "type": "uint256[]"
        },
        {
          "internalType": "uint256",
          "name": "timeSent",
          "type": "uint256"
        }
      ],
      "name": "updateAll",
      "outputs": [
        {
          "internalType": "bool",
          "name": "",
          "type": "bool"
        }
      ],
      "stateMutability": "nonpayable",
      "type": "function"
    },
    {
      "inputs": [
        {
          "internalType": "bytes32",
          "name": "currencyKey",
          "type": "bytes32"
        },
        {
          "internalType": "address",
          "name": "OracleAddress",
          "type": "address"
        }
      ],
      "name": "addOracle",
      "outputs": [],
      "stateMutability": "nonpayable",
      "type": "function"
    },
    {
      "inputs": [
        {
          "internalType": "bytes32",
          "name": "currencyKey",
          "type": "bytes32"
        }
      ],
      "name": "removeOracle",
      "outputs": [],
      "stateMutability": "nonpayable",
      "type": "function"
    }
  ],
  "bytecode": "0x608060405261a8c06003553480156200001757600080fd5b506040516200314f3803806200314f833981810160405260808110156200003d57600080fd5b810190808051906020019092919080519060200190929190805160405193929190846401000000008211156200007257600080fd5b838201915060208201858111156200008957600080fd5b8251866020820283011164010000000082111715620000a757600080fd5b8083526020830192505050908051906020019060200280838360005b83811015620000e0578082015181840152602081019050620000c3565b50505050905001604052602001805160405193929190846401000000008211156200010a57600080fd5b838201915060208201858111156200012157600080fd5b82518660208202830111640100000000821117156200013f57600080fd5b8083526020830192505050908051906020019060200280838360005b83811015620001785780820151818401526020810190506200015b565b505050509050016040525050508383838383600073ffffffffffffffffffffffffffffffffffffffff168173ffffffffffffffffffffffffffffffffffffffff1614156200022e576040517f08c379a00000000000000000000000000000000000000000000000000000000081526004018080602001828103825260198152602001807f61646d696e20616464726573732063616e6e6f7420626520300000000000000081525060200191505060405180910390fd5b806000806101000a81548173ffffffffffffffffffffffffffffffffffffffff021916908373ffffffffffffffffffffffffffffffffffffffff1602179055507f7e644d79422f17c01e4894b5f4f588d331ebfa28653d42ae832dc59e38c9798f600082604051808373ffffffffffffffffffffffffffffffffffffffff1681526020018273ffffffffffffffffffffffffffffffffffffffff1681526020019250505060405180910390a150805182511462000353576040517f08c379a00000000000000000000000000000000000000000000000000000000081526004018080602001828103825260138152602001807f6172726179206c656e677468206572726f722e0000000000000000000000000081525060200191505060405180910390fd5b82600260006101000a81548173ffffffffffffffffffffffffffffffffffffffff021916908373ffffffffffffffffffffffffffffffffffffffff160217905550620004487f6c5573640000000000000000000000000000000000000000000000000000000073__SafeDecimalMath_______________________63907af6c06040518163ffffffff1660e01b815260040160206040518083038186803b158015620003fe57600080fd5b505af415801562000413573d6000803e3d6000fd5b505050506040513d60208110156200042a57600080fd5b8101908080519060200190929190505050426200046a60201b60201c565b6200045b8282426200058360201b60201c565b50505050505050505062000c6e565b60046000848152602001908152602001600020600081548092919060010191905055506040518060400160405280837affffffffffffffffffffffffffffffffffffffffffffffffffffff1681526020018264ffffffffff168152506005600085815260200190815260200160002060006004600087815260200190815260200160002054815260200190815260200160002060008201518160000160006101000a8154817affffffffffffffffffffffffffffffffffffffffffffffffffffff02191690837affffffffffffffffffffffffffffffffffffffffffffffffffffff160217905550602082015181600001601b6101000a81548164ffffffffff021916908364ffffffffff160217905550905050505050565b60008251845114620005fd576040517f08c379a000000000000000000000000000000000000000000000000000000000815260040180806020018281038252601e8152602001807f6172726179206c656e677468206572726f722c206e6f74206d617463682e000081525060200191505060405180910390fd5b6102584201821062000677576040517f08c379a000000000000000000000000000000000000000000000000000000000815260040180806020018281038252600a8152602001807f54696d65206572726f720000000000000000000000000000000000000000000081525060200191505060405180910390fd5b60005b8451811015620007fb5760008582815181106200069357fe5b602002602001015190506000858381518110620006ac57fe5b602002602001015114156200070d576040517f08c379a000000000000000000000000000000000000000000000000000000000815260040180806020018281038252603b81526020018062003114603b913960400191505060405180910390fd5b7f6c55736400000000000000000000000000000000000000000000000000000000811415620007a4576040517f08c379a00000000000000000000000000000000000000000000000000000000081526004018080602001828103825260178152602001807f4c5553442063616e6e6f7420626520757064617465642e00000000000000000081525060200191505060405180910390fd5b620007b581620008cc60201b60201c565b841015620007c45750620007ed565b620007eb81868481518110620007d657fe5b6020026020010151866200046a60201b60201c565b505b80806001019150506200067a565b507f50f458355598dce23d4845c2c970630fc5a034b193135796749e6238b036e0db8484604051808060200180602001838103835285818151815260200191508051906020019060200280838360005b83811015620008685780820151818401526020810190506200084b565b50505050905001838103825284818151815260200191508051906020019060200280838360005b83811015620008ac5780820151818401526020810190506200088f565b5050505090500194505050505060405180910390a1600190509392505050565b6000620008d862000c30565b620008e983620008ff60201b60201c565b9050806020015164ffffffffff16915050919050565b6200090962000c30565b600073ffffffffffffffffffffffffffffffffffffffff166006600084815260200190815260200160002060009054906101000a900473ffffffffffffffffffffffffffffffffffffffff1673ffffffffffffffffffffffffffffffffffffffff161462000b2b5760006006600084815260200190815260200160002060009054906101000a900473ffffffffffffffffffffffffffffffffffffffff169050620009b362000c30565b6402540be4008273ffffffffffffffffffffffffffffffffffffffff166350d25bcd6040518163ffffffff1660e01b815260040160206040518083038186803b15801562000a0057600080fd5b505afa15801562000a15573d6000803e3d6000fd5b505050506040513d602081101562000a2c57600080fd5b81019080805190602001909291905050500281600001907affffffffffffffffffffffffffffffffffffffffffffffffffffff1690817affffffffffffffffffffffffffffffffffffffffffffffffffffff16815250508173ffffffffffffffffffffffffffffffffffffffff16638205bf6a6040518163ffffffff1660e01b815260040160206040518083038186803b15801562000aca57600080fd5b505afa15801562000adf573d6000803e3d6000fd5b505050506040513d602081101562000af657600080fd5b8101908080519060200190929190505050816020019064ffffffffff16908164ffffffffff1681525050809250505062000b44565b62000b418262000b4960201b620017801760201c565b90505b919050565b62000b5362000c30565b600560008381526020019081526020016000206000600460008581526020019081526020016000205481526020019081526020016000206040518060400160405290816000820160009054906101000a90047affffffffffffffffffffffffffffffffffffffffffffffffffffff167affffffffffffffffffffffffffffffffffffffffffffffffffffff167affffffffffffffffffffffffffffffffffffffffffffffffffffff16815260200160008201601b9054906101000a900464ffffffffff1664ffffffffff1664ffffffffff16815250509050919050565b604051806040016040528060007affffffffffffffffffffffffffffffffffffffffffffffffffffff168152602001600064ffffffffff1681525090565b6124968062000c7e6000396000f3fe608060405234801561001057600080fd5b506004361061014d5760003560e01c80637adbf973116100c3578063cf59d5631161007c578063cf59d563146105eb578063e0b80c7614610609578063e35804f21461064b578063ee52a2f31461068f578063f851a440146106e5578063ff4b49cc146107195761014d565b80637adbf973146104755780637dc0d1d0146104b9578063a5b36a36146104ed578063a6f4ab2e1461050b578063a9b518ab14610539578063cd839edf146105875761014d565b8063402af46711610115578063402af4671461027c578063553d1df31461036a5780635c4ff24e146103885780636c8381f8146103d15780636e2eb512146104055780637a018a1e146104335761014d565b806307880b7f146101525780632588a61d1461019657806325971dff146101ee57806331d98b3f146101f857806336d5ffa21461023a575b600080fd5b6101946004803603602081101561016857600080fd5b81019080803573ffffffffffffffffffffffffffffffffffffffff169060200190929190505050610747565b005b6101c2600480360360208110156101ac57600080fd5b81019080803590602001909291905050506108e4565b604051808273ffffffffffffffffffffffffffffffffffffffff16815260200191505060405180910390f35b6101f6610917565b005b6102246004803603602081101561020e57600080fd5b8101908080359060200190929190505050610af0565b6040518082815260200191505060405180910390f35b6102666004803603602081101561025057600080fd5b8101908080359060200190929190505050610b02565b6040518082815260200191505060405180910390f35b6103526004803603606081101561029257600080fd5b81019080803590602001906401000000008111156102af57600080fd5b8201836020820111156102c157600080fd5b803590602001918460208302840111640100000000831117156102e357600080fd5b90919293919293908035906020019064010000000081111561030457600080fd5b82018360208201111561031657600080fd5b8035906020019184602083028401116401000000008311171561033857600080fd5b909192939192939080359060200190929190505050610b1a565b60405180821515815260200191505060405180910390f35b610372610c59565b6040518082815260200191505060405180910390f35b6103b46004803603602081101561039e57600080fd5b8101908080359060200190929190505050610c7d565b604051808381526020018281526020019250505060405180910390f35b6103d9610cd1565b604051808273ffffffffffffffffffffffffffffffffffffffff16815260200191505060405180910390f35b6104316004803603602081101561041b57600080fd5b8101908080359060200190929190505050610cf7565b005b61045f6004803603602081101561044957600080fd5b8101908080359060200190929190505050610f1c565b6040518082815260200191505060405180910390f35b6104b76004803603602081101561048b57600080fd5b81019080803573ffffffffffffffffffffffffffffffffffffffff169060200190929190505050610f39565b005b6104c1611090565b604051808273ffffffffffffffffffffffffffffffffffffffff16815260200191505060405180910390f35b6104f56110b6565b6040518082815260200191505060405180910390f35b6105376004803603602081101561052157600080fd5b81019080803590602001909291905050506110bc565b005b6105856004803603604081101561054f57600080fd5b8101908080359060200190929190803573ffffffffffffffffffffffffffffffffffffffff1690602001909291905050506111a3565b005b6105c76004803603606081101561059d57600080fd5b81019080803590602001909291908035906020019092919080359060200190929190505050611481565b60405180848152602001838152602001828152602001935050505060405180910390f35b6105f36114a0565b6040518082815260200191505060405180910390f35b6106356004803603602081101561061f57600080fd5b81019080803590602001909291905050506114c4565b6040518082815260200191505060405180910390f35b6106776004803603602081101561066157600080fd5b81019080803590602001909291905050506114e5565b60405180821515815260200191505060405180910390f35b6106cf600480360360608110156106a557600080fd5b8101908080359060200190929190803590602001909291908035906020019092919050505061153f565b6040518082815260200191505060405180910390f35b6106ed61155a565b604051808273ffffffffffffffffffffffffffffffffffffffff16815260200191505060405180910390f35b6107456004803603602081101561072f57600080fd5b810190808035906020019092919050505061157e565b005b60008054906101000a900473ffffffffffffffffffffffffffffffffffffffff1673ffffffffffffffffffffffffffffffffffffffff163373ffffffffffffffffffffffffffffffffffffffff16146107eb576040517f08c379a000000000000000000000000000000000000000000000000000000000815260040180806020018281038252602f815260200180612432602f913960400191505060405180910390fd5b6000600160009054906101000a900473ffffffffffffffffffffffffffffffffffffffff16905081600160006101000a81548173ffffffffffffffffffffffffffffffffffffffff021916908373ffffffffffffffffffffffffffffffffffffffff1602179055507f0faed18be9e8f4d4c05dfbcc80ea2c97a0be729614d766827778f60890c02cab81600160009054906101000a900473ffffffffffffffffffffffffffffffffffffffff16604051808373ffffffffffffffffffffffffffffffffffffffff1681526020018273ffffffffffffffffffffffffffffffffffffffff1681526020019250505060405180910390a15050565b60066020528060005260406000206000915054906101000a900473ffffffffffffffffffffffffffffffffffffffff1681565b600160009054906101000a900473ffffffffffffffffffffffffffffffffffffffff1673ffffffffffffffffffffffffffffffffffffffff163373ffffffffffffffffffffffffffffffffffffffff16146109da576040517f08c379a000000000000000000000000000000000000000000000000000000000815260040180806020018281038252601f8152602001807f4f6e6c792063616e6469646174652063616e206265636f6d652061646d696e0081525060200191505060405180910390fd5b60008060009054906101000a900473ffffffffffffffffffffffffffffffffffffffff169050600160009054906101000a900473ffffffffffffffffffffffffffffffffffffffff166000806101000a81548173ffffffffffffffffffffffffffffffffffffffff021916908373ffffffffffffffffffffffffffffffffffffffff1602179055507f7e644d79422f17c01e4894b5f4f588d331ebfa28653d42ae832dc59e38c9798f8160008054906101000a900473ffffffffffffffffffffffffffffffffffffffff16604051808373ffffffffffffffffffffffffffffffffffffffff1681526020018273ffffffffffffffffffffffffffffffffffffffff1681526020019250505060405180910390a150565b6000610afb82611865565b9050919050565b60046020528060005260406000206000915090505481565b6000600260009054906101000a900473ffffffffffffffffffffffffffffffffffffffff1673ffffffffffffffffffffffffffffffffffffffff163373ffffffffffffffffffffffffffffffffffffffff1614610bc2576040517f08c379a00000000000000000000000000000000000000000000000000000000081526004018080602001828103825260278152602001806123af6027913960400191505060405180910390fd5b610c4f868680806020026020016040519081016040528093929190818152602001838360200280828437600081840152601f19601f82011690508083019250505050505050858580806020026020016040519081016040528093929190818152602001838360200280828437600081840152601f19601f82011690508083019250505050505050846118a4565b5095945050505050565b7f4c494e410000000000000000000000000000000000000000000000000000000081565b600080610c88612370565b610c9184611bcd565b905080600001518160200151817affffffffffffffffffffffffffffffffffffffffffffffffffffff1691508064ffffffffff1690509250925050915091565b600160009054906101000a900473ffffffffffffffffffffffffffffffffffffffff1681565b60008054906101000a900473ffffffffffffffffffffffffffffffffffffffff1673ffffffffffffffffffffffffffffffffffffffff163373ffffffffffffffffffffffffffffffffffffffff1614610d9b576040517f08c379a000000000000000000000000000000000000000000000000000000000815260040180806020018281038252602f815260200180612432602f913960400191505060405180910390fd5b60006006600083815260200190815260200160002060009054906101000a900473ffffffffffffffffffffffffffffffffffffffff169050600073ffffffffffffffffffffffffffffffffffffffff168173ffffffffffffffffffffffffffffffffffffffff161415610e76576040517f08c379a00000000000000000000000000000000000000000000000000000000081526004018080602001828103825260148152602001807f4f7261636c65206973206e6f742065786973747300000000000000000000000081525060200191505060405180910390fd5b6006600083815260200190815260200160002060006101000a81549073ffffffffffffffffffffffffffffffffffffffff02191690556000610eb9836007611dfe565b90508015610f17577fa69709ef8582cb75d44d08e318fd90f7368d781e645af3e2788ca761606dab0b8383604051808381526020018273ffffffffffffffffffffffffffffffffffffffff1681526020019250505060405180910390a15b505050565b600060046000838152602001908152602001600020549050919050565b60008054906101000a900473ffffffffffffffffffffffffffffffffffffffff1673ffffffffffffffffffffffffffffffffffffffff163373ffffffffffffffffffffffffffffffffffffffff1614610fdd576040517f08c379a000000000000000000000000000000000000000000000000000000000815260040180806020018281038252602f815260200180612432602f913960400191505060405180910390fd5b80600260006101000a81548173ffffffffffffffffffffffffffffffffffffffff021916908373ffffffffffffffffffffffffffffffffffffffff1602179055507f3df77beb5db05fcdd70a30fc8adf3f83f9501b68579455adbd100b8180940394600260009054906101000a900473ffffffffffffffffffffffffffffffffffffffff16604051808273ffffffffffffffffffffffffffffffffffffffff16815260200191505060405180910390a150565b600260009054906101000a900473ffffffffffffffffffffffffffffffffffffffff1681565b60035481565b60008054906101000a900473ffffffffffffffffffffffffffffffffffffffff1673ffffffffffffffffffffffffffffffffffffffff163373ffffffffffffffffffffffffffffffffffffffff1614611160576040517f08c379a000000000000000000000000000000000000000000000000000000000815260040180806020018281038252602f815260200180612432602f913960400191505060405180910390fd5b806003819055507f8e163815dacf2204ab589790672a86e421041804acc4cb85a7caebac33be1b2b6003546040518082815260200191505060405180910390a150565b60008054906101000a900473ffffffffffffffffffffffffffffffffffffffff1673ffffffffffffffffffffffffffffffffffffffff163373ffffffffffffffffffffffffffffffffffffffff1614611247576040517f08c379a000000000000000000000000000000000000000000000000000000000815260040180806020018281038252602f815260200180612432602f913960400191505060405180910390fd5b600081905060008173ffffffffffffffffffffffffffffffffffffffff16638205bf6a6040518163ffffffff1660e01b815260040160206040518083038186803b15801561129457600080fd5b505afa1580156112a8573d6000803e3d6000fd5b505050506040513d60208110156112be57600080fd5b81019080805190602001909291905050501015611343576040517f08c379a00000000000000000000000000000000000000000000000000000000081526004018080602001828103825260108152602001807f74696d65207374616d70206572726f720000000000000000000000000000000081525060200191505060405180910390fd5b600073ffffffffffffffffffffffffffffffffffffffff166006600085815260200190815260200160002060009054906101000a900473ffffffffffffffffffffffffffffffffffffffff1673ffffffffffffffffffffffffffffffffffffffff1614156113d55760078390806001815401808255809150506001900390600052602060002001600090919091909150555b806006600085815260200190815260200160002060006101000a81548173ffffffffffffffffffffffffffffffffffffffff021916908373ffffffffffffffffffffffffffffffffffffffff1602179055507fe0ff50ccee18e5138ec5ab5bb59af8a304404fb7a873dcaca81f0b2591d0e8358382604051808381526020018273ffffffffffffffffffffffffffffffffffffffff1681526020019250505060405180910390a1505050565b6000806000611491868686611ec5565b92509250925093509350939050565b7f6c5573640000000000000000000000000000000000000000000000000000000081565b600781815481106114d157fe5b906000526020600020016000915090505481565b60007f6c55736400000000000000000000000000000000000000000000000000000000821415611518576000905061153a565b4261153660035461152885611f24565b611f4d90919063ffffffff16565b1090505b919050565b600061154c848484611ec5565b905050809150509392505050565b60008054906101000a900473ffffffffffffffffffffffffffffffffffffffff1681565b600260009054906101000a900473ffffffffffffffffffffffffffffffffffffffff1673ffffffffffffffffffffffffffffffffffffffff163373ffffffffffffffffffffffffffffffffffffffff1614611624576040517f08c379a00000000000000000000000000000000000000000000000000000000081526004018080602001828103825260278152602001806123af6027913960400191505060405180910390fd5b600061162f82611865565b116116a2576040517f08c379a000000000000000000000000000000000000000000000000000000000815260040180806020018281038252600d8152602001807f7072696365206973207a65726f0000000000000000000000000000000000000081525060200191505060405180910390fd5b60056000828152602001908152602001600020600060046000848152602001908152602001600020548152602001908152602001600020600080820160006101000a8154907affffffffffffffffffffffffffffffffffffffffffffffffffffff021916905560008201601b6101000a81549064ffffffffff021916905550506004600082815260200190815260200160002060008154809291906001900391905055507f51f3f19adde37577d6721b49f83408323301f0ca1ca006c565a06a97ab34fb63816040518082815260200191505060405180910390a150565b611788612370565b600560008381526020019081526020016000206000600460008581526020019081526020016000205481526020019081526020016000206040518060400160405290816000820160009054906101000a90047affffffffffffffffffffffffffffffffffffffffffffffffffffff167affffffffffffffffffffffffffffffffffffffffffffffffffffff167affffffffffffffffffffffffffffffffffffffffffffffffffffff16815260200160008201601b9054906101000a900464ffffffffff1664ffffffffff1664ffffffffff16815250509050919050565b600061186f612370565b61187883611bcd565b905080600001517affffffffffffffffffffffffffffffffffffffffffffffffffffff16915050919050565b6000825184511461191d576040517f08c379a000000000000000000000000000000000000000000000000000000000815260040180806020018281038252601e8152602001807f6172726179206c656e677468206572726f722c206e6f74206d617463682e000081525060200191505060405180910390fd5b61025842018210611996576040517f08c379a000000000000000000000000000000000000000000000000000000000815260040180806020018281038252600a8152602001807f54696d65206572726f720000000000000000000000000000000000000000000081525060200191505060405180910390fd5b60005b8451811015611b005760008582815181106119b057fe5b6020026020010151905060008583815181106119c857fe5b60200260200101511415611a27576040517f08c379a000000000000000000000000000000000000000000000000000000000815260040180806020018281038252603b8152602001806123f7603b913960400191505060405180910390fd5b7f6c55736400000000000000000000000000000000000000000000000000000000811415611abd576040517f08c379a00000000000000000000000000000000000000000000000000000000081526004018080602001828103825260178152602001807f4c5553442063616e6e6f7420626520757064617465642e00000000000000000081525060200191505060405180910390fd5b611ac681611f24565b841015611ad35750611af3565b611af181868481518110611ae357fe5b602002602001015186611fd5565b505b8080600101915050611999565b507f50f458355598dce23d4845c2c970630fc5a034b193135796749e6238b036e0db8484604051808060200180602001838103835285818151815260200191508051906020019060200280838360005b83811015611b6b578082015181840152602081019050611b50565b50505050905001838103825284818151815260200191508051906020019060200280838360005b83811015611bad578082015181840152602081019050611b92565b5050505090500194505050505060405180910390a1600190509392505050565b611bd5612370565b600073ffffffffffffffffffffffffffffffffffffffff166006600084815260200190815260200160002060009054906101000a900473ffffffffffffffffffffffffffffffffffffffff1673ffffffffffffffffffffffffffffffffffffffff1614611ded5760006006600084815260200190815260200160002060009054906101000a900473ffffffffffffffffffffffffffffffffffffffff169050611c7c612370565b6402540be4008273ffffffffffffffffffffffffffffffffffffffff166350d25bcd6040518163ffffffff1660e01b815260040160206040518083038186803b158015611cc857600080fd5b505afa158015611cdc573d6000803e3d6000fd5b505050506040513d6020811015611cf257600080fd5b81019080805190602001909291905050500281600001907affffffffffffffffffffffffffffffffffffffffffffffffffffff1690817affffffffffffffffffffffffffffffffffffffffffffffffffffff16815250508173ffffffffffffffffffffffffffffffffffffffff16638205bf6a6040518163ffffffff1660e01b815260040160206040518083038186803b158015611d8f57600080fd5b505afa158015611da3573d6000803e3d6000fd5b505050506040513d6020811015611db957600080fd5b8101908080519060200190929190505050816020019064ffffffffff16908164ffffffffff16815250508092505050611df9565b611df682611780565b90505b919050565b600080600090505b8280549050811015611eb95783838281548110611e1f57fe5b90600052602060002001541415611eac57828181548110611e3c57fe5b906000526020600020016000905582600184805490500381548110611e5d57fe5b9060005260206000200154838281548110611e7457fe5b906000526020600020018190555082805480611e8c57fe5b600190038181906000526020600020016000905590556001915050611ebf565b8080600101915050611e06565b50600090505b92915050565b6000806000611ed386611865565b915083861415611ee857819050849250611f1b565b611ef184611865565b9050611f1881611f0a84886120ee90919063ffffffff16565b61210a90919063ffffffff16565b92505b93509350939050565b6000611f2e612370565b611f3783611bcd565b9050806020015164ffffffffff16915050919050565b600080828401905083811015611fcb576040517f08c379a000000000000000000000000000000000000000000000000000000000815260040180806020018281038252601b8152602001807f536166654d6174683a206164646974696f6e206f766572666c6f77000000000081525060200191505060405180910390fd5b8091505092915050565b60046000848152602001908152602001600020600081548092919060010191905055506040518060400160405280837affffffffffffffffffffffffffffffffffffffffffffffffffffff1681526020018264ffffffffff168152506005600085815260200190815260200160002060006004600087815260200190815260200160002054815260200190815260200160002060008201518160000160006101000a8154817affffffffffffffffffffffffffffffffffffffffffffffffffffff02191690837affffffffffffffffffffffffffffffffffffffffffffffffffffff160217905550602082015181600001601b6101000a81548164ffffffffff021916908364ffffffffff160217905550905050505050565b60006121028383601260ff16600a0a612126565b905092915050565b600061211e8383601260ff16600a0a61217f565b905092915050565b600080600a838161213357fe5b0461214785876121da90919063ffffffff16565b8161214e57fe5b0490506005600a828161215d57fe5b061061216a57600a810190505b600a818161217457fe5b049150509392505050565b6000806121aa8461219c600a8602886121da90919063ffffffff16565b61226090919063ffffffff16565b90506005600a82816121b857fe5b06106121c557600a810190505b600a81816121cf57fe5b049150509392505050565b6000808314156121ed576000905061225a565b60008284029050828482816121fe57fe5b0414612255576040517f08c379a00000000000000000000000000000000000000000000000000000000081526004018080602001828103825260218152602001806123d66021913960400191505060405180910390fd5b809150505b92915050565b60006122a283836040518060400160405280601a81526020017f536166654d6174683a206469766973696f6e206279207a65726f0000000000008152506122aa565b905092915050565b60008083118290612356576040517f08c379a00000000000000000000000000000000000000000000000000000000081526004018080602001828103825283818151815260200191508051906020019080838360005b8381101561231b578082015181840152602081019050612300565b50505050905090810190601f1680156123485780820380516001836020036101000a031916815260200191505b509250505060405180910390fd5b50600083858161236257fe5b049050809150509392505050565b604051806040016040528060007affffffffffffffffffffffffffffffffffffffffffffffffffffff168152602001600064ffffffffff168152509056fe4f6e6c7920746865206f7261636c652063616e20706572666f726d207468697320616374696f6e536166654d6174683a206d756c7469706c69636174696f6e206f766572666c6f775a65726f206973206e6f7420612076616c69642070726963652c20706c656173652063616c6c2064656c657465507269636520696e73746561642e4f6e6c792074686520636f6e74726163742061646d696e2063616e20706572666f726d207468697320616374696f6ea26469706673582212205382f1d1e0cd6df91a672b80f3b8c2664945df345bead3d86ae7da6ef4461d8b64736f6c634300060c00335a65726f206973206e6f7420612076616c69642070726963652c20706c656173652063616c6c2064656c657465507269636520696e73746561642e",
  "immutableReferences": {},
  "source": "// SPDX-License-Identifier: MIT\r\npragma solidity ^0.6.12;\r\n\r\nimport \"./LnDefaultPrices.sol\";\r\n\r\n// chain link Oracle interface\r\ninterface OracleInterface {\r\n    function latestAnswer() external view returns (int256);\r\n\r\n    function latestTimestamp() external view returns (uint256);\r\n\r\n    function latestRound() external view returns (uint256);\r\n\r\n    function getAnswer(uint256 roundId) external view returns (int256);\r\n\r\n    function getTimestamp(uint256 roundId) external view returns (uint256);\r\n}\r\n\r\n\r\n\r\n\r\n\r\ncontract LnChainLinkPrices is LnDefaultPrices {\r\n    mapping(bytes32 => OracleInterface) public mOracles;\r\n\r\n    bytes32[] public mOracleArray;\r\n\r\n    constructor( address _admin, address _oracle, bytes32[] memory _currencies, uint[] memory _prices ) public LnDefaultPrices( _admin, _oracle, _currencies,  _prices ) {\r\n    }\r\n\r\n    function addOracle(bytes32 currencyKey, address OracleAddress) external onlyAdmin {\r\n        OracleInterface Oracle = OracleInterface(OracleAddress);\r\n        require(Oracle.latestTimestamp() >= 0, \"time stamp error\");\r\n        if (address(mOracles[currencyKey]) == address(0)) {\r\n            mOracleArray.push(currencyKey);\r\n        }\r\n        mOracles[currencyKey] = Oracle;\r\n        emit OracleAdded(currencyKey, address(Oracle));\r\n    }\r\n\r\n    function removeOracle(bytes32 currencyKey) external onlyAdmin {\r\n        address Oracle = address(mOracles[currencyKey]);\r\n        require(Oracle != address(0), \"Oracle is not exists\");\r\n        delete mOracles[currencyKey];\r\n\r\n        bool wasRemoved = removeFromArray(currencyKey, mOracleArray);\r\n\r\n        if (wasRemoved) {\r\n            emit OracleRemoved(currencyKey, Oracle);\r\n        }\r\n    }\r\n\r\n    function _getPriceData(bytes32 currencyName) internal view override returns (PriceData memory) {\r\n        if (address(mOracles[currencyName]) != address(0)) {\r\n            OracleInterface Oracle = mOracles[currencyName];\r\n            PriceData memory priceAndTime;\r\n            priceAndTime.mPrice = uint216(Oracle.latestAnswer() * 1e10);\r\n            priceAndTime.mTime = uint40(Oracle.latestTimestamp());\r\n            return priceAndTime;\r\n        } else {\r\n            return super._getPriceData( currencyName );\r\n        }\r\n    }  \r\n\r\n    function removeFromArray(bytes32 entry, bytes32[] storage array) internal returns (bool) {\r\n        for (uint i = 0; i < array.length; i++) {\r\n            if (array[i] == entry) {\r\n                delete array[i];\r\n                array[i] = array[array.length - 1];\r\n                array.pop();\r\n                return true;\r\n            }\r\n        }\r\n        return false;\r\n    }\r\n\r\n\r\n    event OracleAdded(bytes32 currencyKey, address Oracle);\r\n    event OracleRemoved(bytes32 currencyKey, address Oracle);\r\n}\r\n\r\n\r\n// test Oracle, for test stub\r\ncontract TestOracle is OracleInterface {\r\n    uint public roundId = 0;\r\n\r\n    struct Entry {\r\n        int256 answer;\r\n        uint256 timestamp;\r\n    }\r\n\r\n    mapping(uint => Entry) public entries;\r\n\r\n    constructor() public {}\r\n\r\n    function setLatestAnswer(int256 answer, uint256 timestamp) external {\r\n        roundId++;\r\n        entries[roundId] = Entry({answer: answer, timestamp: timestamp});\r\n    }\r\n\r\n    function latestAnswer() external view override returns (int256) {\r\n        return getAnswer(latestRound());\r\n    }\r\n\r\n    function latestTimestamp() external view override returns (uint256) {\r\n        return getTimestamp(latestRound());\r\n    }\r\n\r\n    function latestRound() public view override returns (uint256) {\r\n        return roundId;\r\n    }\r\n\r\n    function getAnswer(uint256 _roundId) public view override returns (int256) {\r\n        return entries[_roundId].answer;\r\n    }\r\n\r\n    function getTimestamp(uint256 _roundId) public view override returns (uint256) {\r\n        return entries[_roundId].timestamp;\r\n    }\r\n}",
  "sourcePath": "/mnt/d/working/linearFinance/LinearFinanceToken/contracts/LnChainLinkPrices.sol",
  "compiler": {
    "name": "solc",
    "version": "0.6.12+commit.27d51765.Emscripten.clang"
  },
  "schemaVersion": "3.2.3",
  "updatedAt": "2020-09-10T08:49:07.433Z",
  "devdoc": {
    "kind": "dev",
    "methods": {},
    "version": 1
  },
  "userdoc": {
    "kind": "user",
    "methods": {},
    "version": 1
  }
}