{
  "contractName": "LnCollateralSystem",
  "abi": [
    {
      "inputs": [
        {
          "internalType": "address",
          "name": "admin",
          "type": "address"
        }
      ],
      "stateMutability": "nonpayable",
      "type": "constructor"
    },
    {
      "anonymous": false,
      "inputs": [
        {
          "indexed": false,
          "internalType": "address",
          "name": "oldAdmin",
          "type": "address"
        },
        {
          "indexed": false,
          "internalType": "address",
          "name": "newAdmin",
          "type": "address"
        }
      ],
      "name": "AdminChanged",
      "type": "event"
    },
    {
      "anonymous": false,
      "inputs": [
        {
          "indexed": false,
          "internalType": "address",
          "name": "user",
          "type": "address"
        },
        {
          "indexed": false,
          "internalType": "bytes32",
          "name": "_currency",
          "type": "bytes32"
        },
        {
          "indexed": false,
          "internalType": "uint256",
          "name": "_amount",
          "type": "uint256"
        },
        {
          "indexed": false,
          "internalType": "uint256",
          "name": "_userTotal",
          "type": "uint256"
        }
      ],
      "name": "CollateralLog",
      "type": "event"
    },
    {
      "anonymous": false,
      "inputs": [
        {
          "indexed": false,
          "internalType": "address",
          "name": "account",
          "type": "address"
        }
      ],
      "name": "Paused",
      "type": "event"
    },
    {
      "anonymous": false,
      "inputs": [
        {
          "indexed": false,
          "internalType": "address",
          "name": "user",
          "type": "address"
        },
        {
          "indexed": false,
          "internalType": "bytes32",
          "name": "_currency",
          "type": "bytes32"
        },
        {
          "indexed": false,
          "internalType": "uint256",
          "name": "_amount",
          "type": "uint256"
        },
        {
          "indexed": false,
          "internalType": "uint256",
          "name": "_userTotal",
          "type": "uint256"
        }
      ],
      "name": "RedeemCollateral",
      "type": "event"
    },
    {
      "anonymous": false,
      "inputs": [
        {
          "indexed": false,
          "internalType": "address",
          "name": "account",
          "type": "address"
        }
      ],
      "name": "Unpaused",
      "type": "event"
    },
    {
      "anonymous": false,
      "inputs": [
        {
          "indexed": false,
          "internalType": "bytes32",
          "name": "symbol",
          "type": "bytes32"
        },
        {
          "indexed": false,
          "internalType": "address",
          "name": "tokenAddr",
          "type": "address"
        },
        {
          "indexed": false,
          "internalType": "uint256",
          "name": "minCollateral",
          "type": "uint256"
        },
        {
          "indexed": false,
          "internalType": "bool",
          "name": "close",
          "type": "bool"
        }
      ],
      "name": "UpdateTokenSetting",
      "type": "event"
    },
    {
      "anonymous": false,
      "inputs": [
        {
          "indexed": false,
          "internalType": "address",
          "name": "oldCandidate",
          "type": "address"
        },
        {
          "indexed": false,
          "internalType": "address",
          "name": "newCandidate",
          "type": "address"
        }
      ],
      "name": "candidateChanged",
      "type": "event"
    },
    {
      "anonymous": false,
      "inputs": [
        {
          "indexed": false,
          "internalType": "bytes32",
          "name": "name",
          "type": "bytes32"
        },
        {
          "indexed": false,
          "internalType": "address",
          "name": "addr",
          "type": "address"
        }
      ],
      "name": "updateCachedAddress",
      "type": "event"
    },
    {
      "inputs": [],
      "name": "Currency_ETH",
      "outputs": [
        {
          "internalType": "bytes32",
          "name": "",
          "type": "bytes32"
        }
      ],
      "stateMutability": "view",
      "type": "function",
      "constant": true
    },
    {
      "inputs": [],
      "name": "Currency_LINA",
      "outputs": [
        {
          "internalType": "bytes32",
          "name": "",
          "type": "bytes32"
        }
      ],
      "stateMutability": "view",
      "type": "function",
      "constant": true
    },
    {
      "inputs": [],
      "name": "admin",
      "outputs": [
        {
          "internalType": "address",
          "name": "",
          "type": "address"
        }
      ],
      "stateMutability": "view",
      "type": "function",
      "constant": true
    },
    {
      "inputs": [],
      "name": "becomeAdmin",
      "outputs": [],
      "stateMutability": "nonpayable",
      "type": "function"
    },
    {
      "inputs": [],
      "name": "buildBurnSystem",
      "outputs": [
        {
          "internalType": "contract LnBuildBurnSystem",
          "name": "",
          "type": "address"
        }
      ],
      "stateMutability": "view",
      "type": "function",
      "constant": true
    },
    {
      "inputs": [],
      "name": "candidate",
      "outputs": [
        {
          "internalType": "address",
          "name": "",
          "type": "address"
        }
      ],
      "stateMutability": "view",
      "type": "function",
      "constant": true
    },
    {
      "inputs": [],
      "name": "debtSystem",
      "outputs": [
        {
          "internalType": "contract LnDebtSystem",
          "name": "",
          "type": "address"
        }
      ],
      "stateMutability": "view",
      "type": "function",
      "constant": true
    },
    {
      "inputs": [],
      "name": "mConfig",
      "outputs": [
        {
          "internalType": "contract LnConfig",
          "name": "",
          "type": "address"
        }
      ],
      "stateMutability": "view",
      "type": "function",
      "constant": true
    },
    {
      "inputs": [],
      "name": "mRewardLocker",
      "outputs": [
        {
          "internalType": "contract LnRewardLocker",
          "name": "",
          "type": "address"
        }
      ],
      "stateMutability": "view",
      "type": "function",
      "constant": true
    },
    {
      "inputs": [],
      "name": "paused",
      "outputs": [
        {
          "internalType": "bool",
          "name": "",
          "type": "bool"
        }
      ],
      "stateMutability": "view",
      "type": "function",
      "constant": true
    },
    {
      "inputs": [],
      "name": "priceGetter",
      "outputs": [
        {
          "internalType": "contract LnPrices",
          "name": "",
          "type": "address"
        }
      ],
      "stateMutability": "view",
      "type": "function",
      "constant": true
    },
    {
      "inputs": [
        {
          "internalType": "address",
          "name": "_candidate",
          "type": "address"
        }
      ],
      "name": "setCandidate",
      "outputs": [],
      "stateMutability": "nonpayable",
      "type": "function"
    },
    {
      "inputs": [
        {
          "internalType": "bytes32",
          "name": "",
          "type": "bytes32"
        }
      ],
      "name": "tokenInfos",
      "outputs": [
        {
          "internalType": "address",
          "name": "tokenAddr",
          "type": "address"
        },
        {
          "internalType": "uint256",
          "name": "minCollateral",
          "type": "uint256"
        },
        {
          "internalType": "uint256",
          "name": "totalCollateral",
          "type": "uint256"
        },
        {
          "internalType": "bool",
          "name": "bClose",
          "type": "bool"
        }
      ],
      "stateMutability": "view",
      "type": "function",
      "constant": true
    },
    {
      "inputs": [
        {
          "internalType": "uint256",
          "name": "",
          "type": "uint256"
        }
      ],
      "name": "tokenSymbol",
      "outputs": [
        {
          "internalType": "bytes32",
          "name": "",
          "type": "bytes32"
        }
      ],
      "stateMutability": "view",
      "type": "function",
      "constant": true
    },
    {
      "inputs": [],
      "name": "uniqueId",
      "outputs": [
        {
          "internalType": "uint256",
          "name": "",
          "type": "uint256"
        }
      ],
      "stateMutability": "view",
      "type": "function",
      "constant": true
    },
    {
      "inputs": [
        {
          "internalType": "address",
          "name": "",
          "type": "address"
        },
        {
          "internalType": "bytes32",
          "name": "",
          "type": "bytes32"
        }
      ],
      "name": "userCollateralData",
      "outputs": [
        {
          "internalType": "uint256",
          "name": "collateral",
          "type": "uint256"
        }
      ],
      "stateMutability": "view",
      "type": "function",
      "constant": true
    },
    {
      "stateMutability": "payable",
      "type": "receive",
      "payable": true
    },
    {
      "inputs": [
        {
          "internalType": "bool",
          "name": "_paused",
          "type": "bool"
        }
      ],
      "name": "setPaused",
      "outputs": [],
      "stateMutability": "nonpayable",
      "type": "function"
    },
    {
      "inputs": [
        {
          "internalType": "contract LnAddressStorage",
          "name": "_addressStorage",
          "type": "address"
        }
      ],
      "name": "updateAddressCache",
      "outputs": [],
      "stateMutability": "nonpayable",
      "type": "function"
    },
    {
      "inputs": [
        {
          "internalType": "bool",
          "name": "pause",
          "type": "bool"
        }
      ],
      "name": "SetPause",
      "outputs": [],
      "stateMutability": "nonpayable",
      "type": "function"
    },
    {
      "inputs": [
        {
          "internalType": "bytes32",
          "name": "_currency",
          "type": "bytes32"
        },
        {
          "internalType": "address",
          "name": "_tokenAddr",
          "type": "address"
        },
        {
          "internalType": "uint256",
          "name": "_minCollateral",
          "type": "uint256"
        },
        {
          "internalType": "bool",
          "name": "_close",
          "type": "bool"
        }
      ],
      "name": "UpdateTokenInfo",
      "outputs": [
        {
          "internalType": "bool",
          "name": "",
          "type": "bool"
        }
      ],
      "stateMutability": "nonpayable",
      "type": "function"
    },
    {
      "inputs": [
        {
          "internalType": "bytes32[]",
          "name": "_symbols",
          "type": "bytes32[]"
        },
        {
          "internalType": "address[]",
          "name": "_tokenAddrs",
          "type": "address[]"
        },
        {
          "internalType": "uint256[]",
          "name": "_minCollateral",
          "type": "uint256[]"
        },
        {
          "internalType": "bool[]",
          "name": "_closes",
          "type": "bool[]"
        }
      ],
      "name": "UpdateTokenInfos",
      "outputs": [
        {
          "internalType": "bool",
          "name": "",
          "type": "bool"
        }
      ],
      "stateMutability": "nonpayable",
      "type": "function"
    },
    {
      "inputs": [],
      "name": "GetSystemTotalCollateralInUsd",
      "outputs": [
        {
          "internalType": "uint256",
          "name": "rTotal",
          "type": "uint256"
        }
      ],
      "stateMutability": "view",
      "type": "function",
      "constant": true
    },
    {
      "inputs": [
        {
          "internalType": "address",
          "name": "_user",
          "type": "address"
        }
      ],
      "name": "GetUserTotalCollateralInUsd",
      "outputs": [
        {
          "internalType": "uint256",
          "name": "rTotal",
          "type": "uint256"
        }
      ],
      "stateMutability": "view",
      "type": "function",
      "constant": true
    },
    {
      "inputs": [
        {
          "internalType": "address",
          "name": "_user",
          "type": "address"
        },
        {
          "internalType": "bytes32",
          "name": "_currency",
          "type": "bytes32"
        }
      ],
      "name": "GetUserCollateral",
      "outputs": [
        {
          "internalType": "uint256",
          "name": "",
          "type": "uint256"
        }
      ],
      "stateMutability": "view",
      "type": "function",
      "constant": true
    },
    {
      "inputs": [
        {
          "internalType": "address",
          "name": "_user",
          "type": "address"
        }
      ],
      "name": "GetUserCollaterals",
      "outputs": [
        {
          "internalType": "bytes32[]",
          "name": "",
          "type": "bytes32[]"
        },
        {
          "internalType": "uint256[]",
          "name": "",
          "type": "uint256[]"
        }
      ],
      "stateMutability": "view",
      "type": "function",
      "constant": true
    },
    {
      "inputs": [
        {
          "internalType": "bytes32",
          "name": "_currency",
          "type": "bytes32"
        },
        {
          "internalType": "uint256",
          "name": "_amount",
          "type": "uint256"
        }
      ],
      "name": "Collateral",
      "outputs": [
        {
          "internalType": "bool",
          "name": "",
          "type": "bool"
        }
      ],
      "stateMutability": "nonpayable",
      "type": "function"
    },
    {
      "inputs": [
        {
          "internalType": "address",
          "name": "_user",
          "type": "address"
        }
      ],
      "name": "IsSatisfyTargetRatio",
      "outputs": [
        {
          "internalType": "bool",
          "name": "",
          "type": "bool"
        }
      ],
      "stateMutability": "view",
      "type": "function",
      "constant": true
    },
    {
      "inputs": [
        {
          "internalType": "address",
          "name": "_user",
          "type": "address"
        }
      ],
      "name": "MaxRedeemableInUsd",
      "outputs": [
        {
          "internalType": "uint256",
          "name": "",
          "type": "uint256"
        }
      ],
      "stateMutability": "view",
      "type": "function",
      "constant": true
    },
    {
      "inputs": [
        {
          "internalType": "address",
          "name": "user",
          "type": "address"
        },
        {
          "internalType": "bytes32",
          "name": "_currency",
          "type": "bytes32"
        }
      ],
      "name": "MaxRedeemable",
      "outputs": [
        {
          "internalType": "uint256",
          "name": "",
          "type": "uint256"
        }
      ],
      "stateMutability": "view",
      "type": "function",
      "constant": true
    },
    {
      "inputs": [
        {
          "internalType": "bytes32",
          "name": "_currency",
          "type": "bytes32"
        }
      ],
      "name": "RedeemMax",
      "outputs": [],
      "stateMutability": "nonpayable",
      "type": "function"
    },
    {
      "inputs": [
        {
          "internalType": "bytes32",
          "name": "_currency",
          "type": "bytes32"
        },
        {
          "internalType": "uint256",
          "name": "_amount",
          "type": "uint256"
        }
      ],
      "name": "Redeem",
      "outputs": [
        {
          "internalType": "bool",
          "name": "",
          "type": "bool"
        }
      ],
      "stateMutability": "nonpayable",
      "type": "function"
    },
    {
      "inputs": [],
      "name": "CollateralEth",
      "outputs": [
        {
          "internalType": "bool",
          "name": "",
          "type": "bool"
        }
      ],
      "stateMutability": "payable",
      "type": "function",
      "payable": true
    },
    {
      "inputs": [
        {
          "internalType": "uint256",
          "name": "_amount",
          "type": "uint256"
        }
      ],
      "name": "RedeemETH",
      "outputs": [
        {
          "internalType": "bool",
          "name": "",
          "type": "bool"
        }
      ],
      "stateMutability": "nonpayable",
      "type": "function"
    }
  ],
  "bytecode": "0x60806040523480156200001157600080fd5b5060405162005b5a38038062005b5a833981810160405260208110156200003757600080fd5b810190808051906020019092919050505080600073ffffffffffffffffffffffffffffffffffffffff168173ffffffffffffffffffffffffffffffffffffffff161415620000ed576040517f08c379a00000000000000000000000000000000000000000000000000000000081526004018080602001828103825260198152602001807f61646d696e20616464726573732063616e6e6f7420626520300000000000000081525060200191505060405180910390fd5b806000806101000a81548173ffffffffffffffffffffffffffffffffffffffff021916908373ffffffffffffffffffffffffffffffffffffffff1602179055507f7e644d79422f17c01e4894b5f4f588d331ebfa28653d42ae832dc59e38c9798f600082604051808373ffffffffffffffffffffffffffffffffffffffff1681526020018273ffffffffffffffffffffffffffffffffffffffff1681526020019250505060405180910390a1506000600160146101000a81548160ff0219169083151502179055505061599480620001c66000396000f3fe6080604052600436106101f25760003560e01c80636c8381f81161010d578063c19bff31116100a0578063f563feec1161006f578063f563feec14610b4a578063f72d542614610baf578063f851a44014610d4a578063f867831314610d8b578063ff06a5d414610db657610292565b8063c19bff3114610a04578063c91facaf14610a5f578063ceed1b9014610ace578063e05b0cc214610b0f57610292565b80639235f45f116100dc5780639235f45f14610892578063acb0c604146108d3578063bc65d43414610942578063c08f73b6146109a957610292565b80636c8381f8146106bc57806375f93fa8146106fd5780637e2748f61461072857806390f1f17b1461081657610292565b80634b86f75f116101855780635a5f14c8116101545780635a5f14c8146105e85780635c975abb146106395780635d521a3414610666578063629c52a91461069157610292565b80634b86f75f1461047a57806351260791146104bb57806352adb88914610520578063592315d11461056157610292565b806317fd1d80116101c157806317fd1d80146103b357806325971dff1461040257806342fc00f41461041957806346a00af91461043957610292565b806307880b7f14610297578063140eb9f8146102e8578063169e02fc1461032557806316c38b3c1461037657610292565b3661029257600160149054906101000a900460ff161561027a576040517f08c379a00000000000000000000000000000000000000000000000000000000081526004018080602001828103825260108152602001807f5061757361626c653a207061757365640000000000000000000000000000000081525060200191505060405180910390fd5b6000339050600034905061028e8282610e25565b5050005b600080fd5b3480156102a357600080fd5b506102e6600480360360208110156102ba57600080fd5b81019080803573ffffffffffffffffffffffffffffffffffffffff169060200190929190505050611094565b005b3480156102f457600080fd5b506103236004803603602081101561030b57600080fd5b81019080803515159060200190929190505050611231565b005b34801561033157600080fd5b5061035e6004803603602081101561034857600080fd5b81019080803590602001909291905050506112f4565b60405180821515815260200191505060405180910390f35b34801561038257600080fd5b506103b16004803603602081101561039957600080fd5b81019080803515159060200190929190505050611835565b005b3480156103bf57600080fd5b506103ec600480360360208110156103d657600080fd5b81019080803590602001909291905050506118f8565b6040518082815260200191505060405180910390f35b34801561040e57600080fd5b50610417611919565b005b610421611af2565b60405180821515815260200191505060405180910390f35b34801561044557600080fd5b5061044e611b94565b604051808273ffffffffffffffffffffffffffffffffffffffff16815260200191505060405180910390f35b34801561048657600080fd5b5061048f611bba565b604051808273ffffffffffffffffffffffffffffffffffffffff16815260200191505060405180910390f35b3480156104c757600080fd5b5061050a600480360360208110156104de57600080fd5b81019080803573ffffffffffffffffffffffffffffffffffffffff169060200190929190505050611be0565b6040518082815260200191505060405180910390f35b34801561052c57600080fd5b506105356121bd565b604051808273ffffffffffffffffffffffffffffffffffffffff16815260200191505060405180910390f35b34801561056d57600080fd5b506105d06004803603608081101561058457600080fd5b8101908080359060200190929190803573ffffffffffffffffffffffffffffffffffffffff169060200190929190803590602001909291908035151590602001909291905050506121e3565b60405180821515815260200191505060405180910390f35b3480156105f457600080fd5b506106376004803603602081101561060b57600080fd5b81019080803573ffffffffffffffffffffffffffffffffffffffff1690602001909291905050506122a0565b005b34801561064557600080fd5b5061064e612bd6565b60405180821515815260200191505060405180910390f35b34801561067257600080fd5b5061067b612bed565b6040518082815260200191505060405180910390f35b34801561069d57600080fd5b506106a6612c11565b6040518082815260200191505060405180910390f35b3480156106c857600080fd5b506106d1612c17565b604051808273ffffffffffffffffffffffffffffffffffffffff16815260200191505060405180910390f35b34801561070957600080fd5b50610712612c3d565b6040518082815260200191505060405180910390f35b34801561073457600080fd5b506107776004803603602081101561074b57600080fd5b81019080803573ffffffffffffffffffffffffffffffffffffffff16906020019092919050505061305a565b604051808060200180602001838103835285818151815260200191508051906020019060200280838360005b838110156107be5780820151818401526020810190506107a3565b50505050905001838103825284818151815260200191508051906020019060200280838360005b838110156108005780820151818401526020810190506107e5565b5050505090500194505050505060405180910390f35b34801561082257600080fd5b5061084f6004803603602081101561083957600080fd5b8101908080359060200190929190505050613381565b604051808573ffffffffffffffffffffffffffffffffffffffff168152602001848152602001838152602001821515815260200194505050505060405180910390f35b34801561089e57600080fd5b506108a76133de565b604051808273ffffffffffffffffffffffffffffffffffffffff16815260200191505060405180910390f35b3480156108df57600080fd5b5061092c600480360360408110156108f657600080fd5b81019080803573ffffffffffffffffffffffffffffffffffffffff16906020019092919080359060200190929190505050613404565b6040518082815260200191505060405180910390f35b34801561094e57600080fd5b506109916004803603602081101561096557600080fd5b81019080803573ffffffffffffffffffffffffffffffffffffffff16906020019092919050505061342f565b60405180821515815260200191505060405180910390f35b3480156109b557600080fd5b506109ec600480360360408110156109cc57600080fd5b8101908080359060200190929190803590602001909291905050506136b2565b60405180821515815260200191505060405180910390f35b348015610a1057600080fd5b50610a4760048036036040811015610a2757600080fd5b810190808035906020019092919080359060200190929190505050613df4565b60405180821515815260200191505060405180910390f35b348015610a6b57600080fd5b50610ab860048036036040811015610a8257600080fd5b81019080803573ffffffffffffffffffffffffffffffffffffffff16906020019092919080359060200190929190505050613e94565b6040518082815260200191505060405180910390f35b348015610ada57600080fd5b50610ae3614143565b604051808273ffffffffffffffffffffffffffffffffffffffff16815260200191505060405180910390f35b348015610b1b57600080fd5b50610b4860048036036020811015610b3257600080fd5b8101908080359060200190929190505050614169565b005b348015610b5657600080fd5b50610b9960048036036020811015610b6d57600080fd5b81019080803573ffffffffffffffffffffffffffffffffffffffff16906020019092919050505061420f565b6040518082815260200191505060405180910390f35b348015610bbb57600080fd5b50610d3260048036036080811015610bd257600080fd5b8101908080359060200190640100000000811115610bef57600080fd5b820183602082011115610c0157600080fd5b80359060200191846020830284011164010000000083111715610c2357600080fd5b909192939192939080359060200190640100000000811115610c4457600080fd5b820183602082011115610c5657600080fd5b80359060200191846020830284011164010000000083111715610c7857600080fd5b909192939192939080359060200190640100000000811115610c9957600080fd5b820183602082011115610cab57600080fd5b80359060200191846020830284011164010000000083111715610ccd57600080fd5b909192939192939080359060200190640100000000811115610cee57600080fd5b820183602082011115610d0057600080fd5b80359060200191846020830284011164010000000083111715610d2257600080fd5b90919293919293905050506144a1565b60405180821515815260200191505060405180910390f35b348015610d5657600080fd5b50610d5f614752565b604051808273ffffffffffffffffffffffffffffffffffffffff16815260200191505060405180910390f35b348015610d9757600080fd5b50610da0614776565b6040518082815260200191505060405180910390f35b348015610dc257600080fd5b50610e0f60048036036040811015610dd957600080fd5b81019080803573ffffffffffffffffffffffffffffffffffffffff1690602001909291908035906020019092919050505061479a565b6040518082815260200191505060405180910390f35b60008111610e9b576040517f08c379a000000000000000000000000000000000000000000000000000000000815260040180806020018281038252601e8152602001807f45544820616d6f756e74206e656564206d6f7265207468616e207a65726f000081525060200191505060405180910390fd5b610f2181600a60008573ffffffffffffffffffffffffffffffffffffffff1673ffffffffffffffffffffffffffffffffffffffff16815260200190815260200160002060007f455448000000000000000000000000000000000000000000000000000000000081526020019081526020016000206000015461495090919063ffffffff16565b600a60008473ffffffffffffffffffffffffffffffffffffffff1673ffffffffffffffffffffffffffffffffffffffff16815260200190815260200160002060007f45544800000000000000000000000000000000000000000000000000000000008152602001908152602001600020600001819055507fe25398ee94a2ec2dde5992b338a76ddd3a7af4d596cf2d00feba7770b31de299827f455448000000000000000000000000000000000000000000000000000000000083600a60008773ffffffffffffffffffffffffffffffffffffffff1673ffffffffffffffffffffffffffffffffffffffff16815260200190815260200160002060007f4554480000000000000000000000000000000000000000000000000000000000815260200190815260200160002060000154604051808573ffffffffffffffffffffffffffffffffffffffff16815260200184815260200183815260200182815260200194505050505060405180910390a15050565b60008054906101000a900473ffffffffffffffffffffffffffffffffffffffff1673ffffffffffffffffffffffffffffffffffffffff163373ffffffffffffffffffffffffffffffffffffffff1614611138576040517f08c379a000000000000000000000000000000000000000000000000000000000815260040180806020018281038252602f8152602001806158b3602f913960400191505060405180910390fd5b6000600160009054906101000a900473ffffffffffffffffffffffffffffffffffffffff16905081600160006101000a81548173ffffffffffffffffffffffffffffffffffffffff021916908373ffffffffffffffffffffffffffffffffffffffff1602179055507f0faed18be9e8f4d4c05dfbcc80ea2c97a0be729614d766827778f60890c02cab81600160009054906101000a900473ffffffffffffffffffffffffffffffffffffffff16604051808373ffffffffffffffffffffffffffffffffffffffff1681526020018273ffffffffffffffffffffffffffffffffffffffff1681526020019250505060405180910390a15050565b60008054906101000a900473ffffffffffffffffffffffffffffffffffffffff1673ffffffffffffffffffffffffffffffffffffffff163373ffffffffffffffffffffffffffffffffffffffff16146112d5576040517f08c379a000000000000000000000000000000000000000000000000000000000815260040180806020018281038252602f8152602001806158b3602f913960400191505060405180910390fd5b80156112e8576112e36149d8565b6112f1565b6112f0614acb565b5b50565b6000600160149054906101000a900460ff1615611379576040517f08c379a00000000000000000000000000000000000000000000000000000000081526004018080602001828103825260108152602001807f5061757361626c653a207061757365640000000000000000000000000000000081525060200191505060405180910390fd5b6000339050600a60008273ffffffffffffffffffffffffffffffffffffffff1673ffffffffffffffffffffffffffffffffffffffff16815260200190815260200160002060007f455448000000000000000000000000000000000000000000000000000000000081526020019081526020016000206000015483111561144a576040517f08c379a00000000000000000000000000000000000000000000000000000000081526004018080602001828103825260238152602001806159056023913960400191505060405180910390fd5b600083116114a3576040517f08c379a00000000000000000000000000000000000000000000000000000000081526004018080602001828103825260238152602001806158e26023913960400191505060405180910390fd5b60006114ae8261420f565b90506000611592600260009054906101000a900473ffffffffffffffffffffffffffffffffffffffff1673ffffffffffffffffffffffffffffffffffffffff166331d98b3f7f45544800000000000000000000000000000000000000000000000000000000006040518263ffffffff1660e01b81526004018082815260200191505060206040518083038186803b15801561154857600080fd5b505afa15801561155c573d6000803e3d6000fd5b505050506040513d602081101561157257600080fd5b810190808051906020019092919050505083614bbe90919063ffffffff16565b9050808511156115ed576040517f08c379a00000000000000000000000000000000000000000000000000000000081526004018080602001828103825260378152602001806159286037913960400191505060405180910390fd5b61167385600a60008673ffffffffffffffffffffffffffffffffffffffff1673ffffffffffffffffffffffffffffffffffffffff16815260200190815260200160002060007f4554480000000000000000000000000000000000000000000000000000000000815260200190815260200160002060000154614bf490919063ffffffff16565b600a60008573ffffffffffffffffffffffffffffffffffffffff1673ffffffffffffffffffffffffffffffffffffffff16815260200190815260200160002060007f45544800000000000000000000000000000000000000000000000000000000008152602001908152602001600020600001819055508273ffffffffffffffffffffffffffffffffffffffff166108fc869081150290604051600060405180830381858888f19350505050158015611730573d6000803e3d6000fd5b507ffa659da0063f4e5cf39c3b6dae863e789ab69f82e82925c28cae633a81b2b65d837f455448000000000000000000000000000000000000000000000000000000000087600a60008873ffffffffffffffffffffffffffffffffffffffff1673ffffffffffffffffffffffffffffffffffffffff16815260200190815260200160002060007f4554480000000000000000000000000000000000000000000000000000000000815260200190815260200160002060000154604051808573ffffffffffffffffffffffffffffffffffffffff16815260200184815260200183815260200182815260200194505050505060405180910390a160019350505050919050565b60008054906101000a900473ffffffffffffffffffffffffffffffffffffffff1673ffffffffffffffffffffffffffffffffffffffff163373ffffffffffffffffffffffffffffffffffffffff16146118d9576040517f08c379a000000000000000000000000000000000000000000000000000000000815260040180806020018281038252602f8152602001806158b3602f913960400191505060405180910390fd5b80156118ec576118e76149d8565b6118f5565b6118f4614acb565b5b50565b6009818154811061190557fe5b906000526020600020016000915090505481565b600160009054906101000a900473ffffffffffffffffffffffffffffffffffffffff1673ffffffffffffffffffffffffffffffffffffffff163373ffffffffffffffffffffffffffffffffffffffff16146119dc576040517f08c379a000000000000000000000000000000000000000000000000000000000815260040180806020018281038252601f8152602001807f4f6e6c792063616e6469646174652063616e206265636f6d652061646d696e0081525060200191505060405180910390fd5b60008060009054906101000a900473ffffffffffffffffffffffffffffffffffffffff169050600160009054906101000a900473ffffffffffffffffffffffffffffffffffffffff166000806101000a81548173ffffffffffffffffffffffffffffffffffffffff021916908373ffffffffffffffffffffffffffffffffffffffff1602179055507f7e644d79422f17c01e4894b5f4f588d331ebfa28653d42ae832dc59e38c9798f8160008054906101000a900473ffffffffffffffffffffffffffffffffffffffff16604051808373ffffffffffffffffffffffffffffffffffffffff1681526020018273ffffffffffffffffffffffffffffffffffffffff1681526020019250505060405180910390a150565b6000600160149054906101000a900460ff1615611b77576040517f08c379a00000000000000000000000000000000000000000000000000000000081526004018080602001828103825260108152602001807f5061757361626c653a207061757365640000000000000000000000000000000081525060200191505060405180910390fd5b60003390506000349050611b8b8282610e25565b60019250505090565b600560009054906101000a900473ffffffffffffffffffffffffffffffffffffffff1681565b600360009054906101000a900473ffffffffffffffffffffffffffffffffffffffff1681565b600080600090505b600980549050811015611fd357600060098281548110611c0457fe5b906000526020600020015490506000600a60008673ffffffffffffffffffffffffffffffffffffffff1673ffffffffffffffffffffffffffffffffffffffff1681526020019081526020016000206000838152602001908152602001600020600001541115611fc557807f4c494e41000000000000000000000000000000000000000000000000000000001415611e9c576000611dc0600660009054906101000a900473ffffffffffffffffffffffffffffffffffffffff1673ffffffffffffffffffffffffffffffffffffffff166370a08231876040518263ffffffff1660e01b8152600401808273ffffffffffffffffffffffffffffffffffffffff16815260200191505060206040518083038186803b158015611d2357600080fd5b505afa158015611d37573d6000803e3d6000fd5b505050506040513d6020811015611d4d57600080fd5b8101908080519060200190929190505050600a60008873ffffffffffffffffffffffffffffffffffffffff1673ffffffffffffffffffffffffffffffffffffffff16815260200190815260200160002060008581526020019081526020016000206000015461495090919063ffffffff16565b9050611e94611e85600260009054906101000a900473ffffffffffffffffffffffffffffffffffffffff1673ffffffffffffffffffffffffffffffffffffffff166331d98b3f856040518263ffffffff1660e01b81526004018082815260200191505060206040518083038186803b158015611e3b57600080fd5b505afa158015611e4f573d6000803e3d6000fd5b505050506040513d6020811015611e6557600080fd5b810190808051906020019092919050505083614c3e90919063ffffffff16565b8561495090919063ffffffff16565b935050611fc4565b611fc1611fb2600260009054906101000a900473ffffffffffffffffffffffffffffffffffffffff1673ffffffffffffffffffffffffffffffffffffffff166331d98b3f846040518263ffffffff1660e01b81526004018082815260200191505060206040518083038186803b158015611f1557600080fd5b505afa158015611f29573d6000803e3d6000fd5b505050506040513d6020811015611f3f57600080fd5b8101908080519060200190929190505050600a60008873ffffffffffffffffffffffffffffffffffffffff1673ffffffffffffffffffffffffffffffffffffffff168152602001908152602001600020600085815260200190815260200160002060000154614c3e90919063ffffffff16565b8461495090919063ffffffff16565b92505b5b508080600101915050611be8565b506000600a60008473ffffffffffffffffffffffffffffffffffffffff1673ffffffffffffffffffffffffffffffffffffffff16815260200190815260200160002060007f455448000000000000000000000000000000000000000000000000000000000081526020019081526020016000206000015411156121b8576121b56121a6600260009054906101000a900473ffffffffffffffffffffffffffffffffffffffff1673ffffffffffffffffffffffffffffffffffffffff166331d98b3f7f45544800000000000000000000000000000000000000000000000000000000006040518263ffffffff1660e01b81526004018082815260200191505060206040518083038186803b1580156120e957600080fd5b505afa1580156120fd573d6000803e3d6000fd5b505050506040513d602081101561211357600080fd5b8101908080519060200190929190505050600a60008673ffffffffffffffffffffffffffffffffffffffff1673ffffffffffffffffffffffffffffffffffffffff16815260200190815260200160002060007f4554480000000000000000000000000000000000000000000000000000000000815260200190815260200160002060000154614c3e90919063ffffffff16565b8261495090919063ffffffff16565b90505b919050565b600460009054906101000a900473ffffffffffffffffffffffffffffffffffffffff1681565b60008060009054906101000a900473ffffffffffffffffffffffffffffffffffffffff1673ffffffffffffffffffffffffffffffffffffffff163373ffffffffffffffffffffffffffffffffffffffff161461228a576040517f08c379a000000000000000000000000000000000000000000000000000000000815260040180806020018281038252602f8152602001806158b3602f913960400191505060405180910390fd5b61229685858585614c6b565b9050949350505050565b60008054906101000a900473ffffffffffffffffffffffffffffffffffffffff1673ffffffffffffffffffffffffffffffffffffffff163373ffffffffffffffffffffffffffffffffffffffff1614612344576040517f08c379a000000000000000000000000000000000000000000000000000000000815260040180806020018281038252602f8152602001806158b3602f913960400191505060405180910390fd5b8073ffffffffffffffffffffffffffffffffffffffff1663768911da6040518163ffffffff1660e01b815260040180807f4c6e507269636573000000000000000000000000000000000000000000000000815250602001806020018281038252601a8152602001807f4c6e5072696365732061646472657373206e6f742076616c696400000000000081525060200191505060206040518083038186803b1580156123ee57600080fd5b505afa158015612402573d6000803e3d6000fd5b505050506040513d602081101561241857600080fd5b8101908080519060200190929190505050600260006101000a81548173ffffffffffffffffffffffffffffffffffffffff021916908373ffffffffffffffffffffffffffffffffffffffff1602179055508073ffffffffffffffffffffffffffffffffffffffff1663768911da6040518163ffffffff1660e01b815260040180807f4c6e4465627453797374656d0000000000000000000000000000000000000000815250602001806020018281038252601e8152602001807f4c6e4465627453797374656d2061646472657373206e6f742076616c6964000081525060200191505060206040518083038186803b15801561251357600080fd5b505afa158015612527573d6000803e3d6000fd5b505050506040513d602081101561253d57600080fd5b8101908080519060200190929190505050600360006101000a81548173ffffffffffffffffffffffffffffffffffffffff021916908373ffffffffffffffffffffffffffffffffffffffff1602179055508073ffffffffffffffffffffffffffffffffffffffff1663768911da6040518163ffffffff1660e01b815260040180807f4c6e4275696c644275726e53797374656d00000000000000000000000000000081525060200180602001828103825260238152602001806158906023913960400191505060206040518083038186803b15801561261b57600080fd5b505afa15801561262f573d6000803e3d6000fd5b505050506040513d602081101561264557600080fd5b8101908080519060200190929190505050600460006101000a81548173ffffffffffffffffffffffffffffffffffffffff021916908373ffffffffffffffffffffffffffffffffffffffff1602179055508073ffffffffffffffffffffffffffffffffffffffff1663768911da6040518163ffffffff1660e01b815260040180807f4c6e436f6e666967000000000000000000000000000000000000000000000000815250602001806020018281038252601a8152602001807f4c6e436f6e6669672061646472657373206e6f742076616c696400000000000081525060200191505060206040518083038186803b15801561274057600080fd5b505afa158015612754573d6000803e3d6000fd5b505050506040513d602081101561276a57600080fd5b8101908080519060200190929190505050600560006101000a81548173ffffffffffffffffffffffffffffffffffffffff021916908373ffffffffffffffffffffffffffffffffffffffff1602179055508073ffffffffffffffffffffffffffffffffffffffff1663768911da6040518163ffffffff1660e01b815260040180807f4c6e5265776172644c6f636b657200000000000000000000000000000000000081525060200180602001828103825260208152602001807f4c6e5265776172644c6f636b65722061646472657373206e6f742076616c696481525060200191505060206040518083038186803b15801561286557600080fd5b505afa158015612879573d6000803e3d6000fd5b505050506040513d602081101561288f57600080fd5b8101908080519060200190929190505050600660006101000a81548173ffffffffffffffffffffffffffffffffffffffff021916908373ffffffffffffffffffffffffffffffffffffffff1602179055507f45a7f8d84f7ad724869d024abcaa743ae6aec455a969df76b5d1e9c5cac4d2ae600260009054906101000a900473ffffffffffffffffffffffffffffffffffffffff1660405180807f4c6e5072696365730000000000000000000000000000000000000000000000008152506020018273ffffffffffffffffffffffffffffffffffffffff16815260200191505060405180910390a17f45a7f8d84f7ad724869d024abcaa743ae6aec455a969df76b5d1e9c5cac4d2ae600360009054906101000a900473ffffffffffffffffffffffffffffffffffffffff1660405180807f4c6e4465627453797374656d00000000000000000000000000000000000000008152506020018273ffffffffffffffffffffffffffffffffffffffff16815260200191505060405180910390a17f45a7f8d84f7ad724869d024abcaa743ae6aec455a969df76b5d1e9c5cac4d2ae600460009054906101000a900473ffffffffffffffffffffffffffffffffffffffff1660405180807f4c6e4275696c644275726e53797374656d0000000000000000000000000000008152506020018273ffffffffffffffffffffffffffffffffffffffff16815260200191505060405180910390a17f45a7f8d84f7ad724869d024abcaa743ae6aec455a969df76b5d1e9c5cac4d2ae600560009054906101000a900473ffffffffffffffffffffffffffffffffffffffff1660405180807f4c6e436f6e6669670000000000000000000000000000000000000000000000008152506020018273ffffffffffffffffffffffffffffffffffffffff16815260200191505060405180910390a17f45a7f8d84f7ad724869d024abcaa743ae6aec455a969df76b5d1e9c5cac4d2ae600660009054906101000a900473ffffffffffffffffffffffffffffffffffffffff1660405180807f4c6e5265776172644c6f636b65720000000000000000000000000000000000008152506020018273ffffffffffffffffffffffffffffffffffffffff16815260200191505060405180910390a150565b6000600160149054906101000a900460ff16905090565b7f455448000000000000000000000000000000000000000000000000000000000081565b60075481565b600160009054906101000a900473ffffffffffffffffffffffffffffffffffffffff1681565b600080600090505b600980549050811015612f5857600060098281548110612c6157fe5b90600052602060002001549050600060086000838152602001908152602001600020600201541115612f4a57807f4c494e41000000000000000000000000000000000000000000000000000000001415612e5e576000612d82600660009054906101000a900473ffffffffffffffffffffffffffffffffffffffff1673ffffffffffffffffffffffffffffffffffffffff16634bcdd1746040518163ffffffff1660e01b815260040160206040518083038186803b158015612d2257600080fd5b505afa158015612d36573d6000803e3d6000fd5b505050506040513d6020811015612d4c57600080fd5b8101908080519060200190929190505050600860008581526020019081526020016000206002015461495090919063ffffffff16565b9050612e56612e47600260009054906101000a900473ffffffffffffffffffffffffffffffffffffffff1673ffffffffffffffffffffffffffffffffffffffff166331d98b3f856040518263ffffffff1660e01b81526004018082815260200191505060206040518083038186803b158015612dfd57600080fd5b505afa158015612e11573d6000803e3d6000fd5b505050506040513d6020811015612e2757600080fd5b810190808051906020019092919050505083614c3e90919063ffffffff16565b8561495090919063ffffffff16565b935050612f49565b612f46612f37600260009054906101000a900473ffffffffffffffffffffffffffffffffffffffff1673ffffffffffffffffffffffffffffffffffffffff166331d98b3f846040518263ffffffff1660e01b81526004018082815260200191505060206040518083038186803b158015612ed757600080fd5b505afa158015612eeb573d6000803e3d6000fd5b505050506040513d6020811015612f0157600080fd5b81019080805190602001909291905050506008600085815260200190815260200160002060020154614c3e90919063ffffffff16565b8461495090919063ffffffff16565b92505b5b508080600101915050612c45565b50600047111561305757613054613045600260009054906101000a900473ffffffffffffffffffffffffffffffffffffffff1673ffffffffffffffffffffffffffffffffffffffff166331d98b3f7f45544800000000000000000000000000000000000000000000000000000000006040518263ffffffff1660e01b81526004018082815260200191505060206040518083038186803b158015612ffb57600080fd5b505afa15801561300f573d6000803e3d6000fd5b505050506040513d602081101561302557600080fd5b810190808051906020019092919050505047614c3e90919063ffffffff16565b8261495090919063ffffffff16565b90505b90565b606080606060016009805490500167ffffffffffffffff8111801561307e57600080fd5b506040519080825280602002602001820160405280156130ad5781602001602082028036833780820191505090505b509050606060016009805490500167ffffffffffffffff811180156130d157600080fd5b506040519080825280602002602001820160405280156131005781602001602082028036833780820191505090505b5090506000805b6009805490508110156132285760006009828154811061312357fe5b906000526020600020015490506000600a60008a73ffffffffffffffffffffffffffffffffffffffff1673ffffffffffffffffffffffffffffffffffffffff168152602001908152602001600020600083815260200190815260200160002060000154111561321a578085848151811061319957fe5b602002602001018181525050600a60008973ffffffffffffffffffffffffffffffffffffffff1673ffffffffffffffffffffffffffffffffffffffff16815260200190815260200160002060008281526020019081526020016000206000015484848151811061320557fe5b60200260200101818152505082806001019350505b508080600101915050613107565b506000600a60008873ffffffffffffffffffffffffffffffffffffffff1673ffffffffffffffffffffffffffffffffffffffff16815260200190815260200160002060007f45544800000000000000000000000000000000000000000000000000000000008152602001908152602001600020600001541115613373577f45544800000000000000000000000000000000000000000000000000000000008382815181106132d257fe5b602002602001018181525050600a60008773ffffffffffffffffffffffffffffffffffffffff1673ffffffffffffffffffffffffffffffffffffffff16815260200190815260200160002060007f455448000000000000000000000000000000000000000000000000000000000081526020019081526020016000206000015482828151811061335e57fe5b60200260200101818152505080806001019150505b828294509450505050915091565b60086020528060005260406000206000915090508060000160009054906101000a900473ffffffffffffffffffffffffffffffffffffffff16908060010154908060020154908060030160009054906101000a900460ff16905084565b600660009054906101000a900473ffffffffffffffffffffffffffffffffffffffff1681565b600a602052816000526040600020602052806000526040600020600091509150508060000154905081565b600080600360009054906101000a900473ffffffffffffffffffffffffffffffffffffffff1673ffffffffffffffffffffffffffffffffffffffff16631882d090846040518263ffffffff1660e01b8152600401808273ffffffffffffffffffffffffffffffffffffffff168152602001915050604080518083038186803b1580156134ba57600080fd5b505afa1580156134ce573d6000803e3d6000fd5b505050506040513d60408110156134e457600080fd5b81019080805190602001909291908051906020019092919050505050905060008114156135155760019150506136ad565b6000600560009054906101000a900473ffffffffffffffffffffffffffffffffffffffff1673ffffffffffffffffffffffffffffffffffffffff1663bd02d0f5600560009054906101000a900473ffffffffffffffffffffffffffffffffffffffff1673ffffffffffffffffffffffffffffffffffffffff16634d6daf046040518163ffffffff1660e01b815260040160206040518083038186803b1580156135bd57600080fd5b505afa1580156135d1573d6000803e3d6000fd5b505050506040513d60208110156135e757600080fd5b81019080805190602001909291905050506040518263ffffffff1660e01b81526004018082815260200191505060206040518083038186803b15801561362c57600080fd5b505afa158015613640573d6000803e3d6000fd5b505050506040513d602081101561365657600080fd5b81019080805190602001909291905050509050600061367485611be0565b9050600081141561368b57600093505050506136ad565b60006136a08285614bbe90919063ffffffff16565b9050828111159450505050505b919050565b6000600160149054906101000a900460ff1615613737576040517f08c379a00000000000000000000000000000000000000000000000000000000081526004018080602001828103825260108152602001807f5061757361626c653a207061757365640000000000000000000000000000000081525060200191505060405180910390fd5b61378c6008600085815260200190815260200160002060000160009054906101000a900473ffffffffffffffffffffffffffffffffffffffff1673ffffffffffffffffffffffffffffffffffffffff166150d0565b6137fe576040517f08c379a00000000000000000000000000000000000000000000000000000000081526004018080602001828103825260148152602001807f496e76616c696420746f6b656e2073796d626f6c00000000000000000000000081525060200191505060405180910390fd5b60006008600085815260200190815260200160002090508060010154831161388e576040517f08c379a000000000000000000000000000000000000000000000000000000000815260040180806020018281038252601b8152602001807f436f6c6c61746572616c20616d6f756e7420746f6f20736d616c6c000000000081525060200191505060405180910390fd5b600015158160030160009054906101000a900460ff16151514613919576040517f08c379a00000000000000000000000000000000000000000000000000000000081526004018080602001828103825260148152602001807f5468697320746f6b656e20697320636c6f73656400000000000000000000000081525060200191505060405180910390fd5b600033905060006008600087815260200190815260200160002060000160009054906101000a900473ffffffffffffffffffffffffffffffffffffffff169050848173ffffffffffffffffffffffffffffffffffffffff166370a08231846040518263ffffffff1660e01b8152600401808273ffffffffffffffffffffffffffffffffffffffff16815260200191505060206040518083038186803b1580156139c157600080fd5b505afa1580156139d5573d6000803e3d6000fd5b505050506040513d60208110156139eb57600080fd5b81019080805190602001909291905050501015613a70576040517f08c379a00000000000000000000000000000000000000000000000000000000081526004018080602001828103825260148152602001807f696e73756666696369656e742062616c616e636500000000000000000000000081525060200191505060405180910390fd5b848173ffffffffffffffffffffffffffffffffffffffff1663dd62ed3e84306040518363ffffffff1660e01b8152600401808373ffffffffffffffffffffffffffffffffffffffff1681526020018273ffffffffffffffffffffffffffffffffffffffff1681526020019250505060206040518083038186803b158015613af657600080fd5b505afa158015613b0a573d6000803e3d6000fd5b505050506040513d6020811015613b2057600080fd5b81019080805190602001909291905050501015613b88576040517f08c379a000000000000000000000000000000000000000000000000000000000815260040180806020018281038252603081526020018061583f6030913960400191505060405180910390fd5b8073ffffffffffffffffffffffffffffffffffffffff166323b872dd8330886040518463ffffffff1660e01b8152600401808473ffffffffffffffffffffffffffffffffffffffff1681526020018373ffffffffffffffffffffffffffffffffffffffff1681526020018281526020019350505050602060405180830381600087803b158015613c1757600080fd5b505af1158015613c2b573d6000803e3d6000fd5b505050506040513d6020811015613c4157600080fd5b810190808051906020019092919050505050613cb985600a60008573ffffffffffffffffffffffffffffffffffffffff1673ffffffffffffffffffffffffffffffffffffffff16815260200190815260200160002060008981526020019081526020016000206000015461495090919063ffffffff16565b600a60008473ffffffffffffffffffffffffffffffffffffffff1673ffffffffffffffffffffffffffffffffffffffff168152602001908152602001600020600088815260200190815260200160002060000181905550613d2785846002015461495090919063ffffffff16565b83600201819055507fe25398ee94a2ec2dde5992b338a76ddd3a7af4d596cf2d00feba7770b31de299828787600a60008773ffffffffffffffffffffffffffffffffffffffff1673ffffffffffffffffffffffffffffffffffffffff16815260200190815260200160002060008b815260200190815260200160002060000154604051808573ffffffffffffffffffffffffffffffffffffffff16815260200184815260200183815260200182815260200194505050505060405180910390a16001935050505092915050565b6000600160149054906101000a900460ff1615613e79576040517f08c379a00000000000000000000000000000000000000000000000000000000081526004018080602001828103825260108152602001807f5061757361626c653a207061757365640000000000000000000000000000000081525060200191505060405180910390fd5b6000339050613e8981858561511b565b600191505092915050565b600080613ea08461420f565b90506000613f64600260009054906101000a900473ffffffffffffffffffffffffffffffffffffffff1673ffffffffffffffffffffffffffffffffffffffff166331d98b3f866040518263ffffffff1660e01b81526004018082815260200191505060206040518083038186803b158015613f1a57600080fd5b505afa158015613f2e573d6000803e3d6000fd5b505050506040513d6020811015613f4457600080fd5b810190808051906020019092919050505083614bbe90919063ffffffff16565b9050600a60008673ffffffffffffffffffffffffffffffffffffffff1673ffffffffffffffffffffffffffffffffffffffff16815260200190815260200160002060008581526020019081526020016000206000015481111561401857600a60008673ffffffffffffffffffffffffffffffffffffffff1673ffffffffffffffffffffffffffffffffffffffff16815260200190815260200160002060008581526020019081526020016000206000015490505b837f4c494e41000000000000000000000000000000000000000000000000000000001461404957809250505061413d565b6000600660009054906101000a900473ffffffffffffffffffffffffffffffffffffffff1673ffffffffffffffffffffffffffffffffffffffff166370a08231876040518263ffffffff1660e01b8152600401808273ffffffffffffffffffffffffffffffffffffffff16815260200191505060206040518083038186803b1580156140d457600080fd5b505afa1580156140e8573d6000803e3d6000fd5b505050506040513d60208110156140fe57600080fd5b81019080805190602001909291905050509050808211614124576000935050505061413d565b6141378183614bf490919063ffffffff16565b93505050505b92915050565b600260009054906101000a900473ffffffffffffffffffffffffffffffffffffffff1681565b600160149054906101000a900460ff16156141ec576040517f08c379a00000000000000000000000000000000000000000000000000000000081526004018080602001828103825260108152602001807f5061757361626c653a207061757365640000000000000000000000000000000081525060200191505060405180910390fd5b600033905060006141fd8284613e94565b905061420a82848361511b565b505050565b60008061421b83611be0565b90506000600360009054906101000a900473ffffffffffffffffffffffffffffffffffffffff1673ffffffffffffffffffffffffffffffffffffffff16631882d090856040518263ffffffff1660e01b8152600401808273ffffffffffffffffffffffffffffffffffffffff168152602001915050604080518083038186803b1580156142a757600080fd5b505afa1580156142bb573d6000803e3d6000fd5b505050506040513d60408110156142d157600080fd5b810190808051906020019092919080519060200190929190505050509050600081141561430257819250505061449c565b6000600560009054906101000a900473ffffffffffffffffffffffffffffffffffffffff1673ffffffffffffffffffffffffffffffffffffffff1663bd02d0f5600560009054906101000a900473ffffffffffffffffffffffffffffffffffffffff1673ffffffffffffffffffffffffffffffffffffffff16634d6daf046040518163ffffffff1660e01b815260040160206040518083038186803b1580156143aa57600080fd5b505afa1580156143be573d6000803e3d6000fd5b505050506040513d60208110156143d457600080fd5b81019080805190602001909291905050506040518263ffffffff1660e01b81526004018082815260200191505060206040518083038186803b15801561441957600080fd5b505afa15801561442d573d6000803e3d6000fd5b505050506040513d602081101561444357600080fd5b81019080805190602001909291905050509050600061446b8284614bbe90919063ffffffff16565b90508084101561448257600094505050505061449c565b6144958185614bf490919063ffffffff16565b9450505050505b919050565b60008060009054906101000a900473ffffffffffffffffffffffffffffffffffffffff1673ffffffffffffffffffffffffffffffffffffffff163373ffffffffffffffffffffffffffffffffffffffff1614614548576040517f08c379a000000000000000000000000000000000000000000000000000000000815260040180806020018281038252602f8152602001806158b3602f913960400191505060405180910390fd5b8686905089899050146145c3576040517f08c379a00000000000000000000000000000000000000000000000000000000081526004018080602001828103825260168152602001807f6c656e677468206f66206172726179206e6f742065710000000000000000000081525060200191505060405180910390fd5b84849050898990501461463e576040517f08c379a00000000000000000000000000000000000000000000000000000000081526004018080602001828103825260168152602001807f6c656e677468206f66206172726179206e6f742065710000000000000000000081525060200191505060405180910390fd5b8282905089899050146146b9576040517f08c379a00000000000000000000000000000000000000000000000000000000081526004018080602001828103825260168152602001807f6c656e677468206f66206172726179206e6f742065710000000000000000000081525060200191505060405180910390fd5b60005b89899050811015614741576147338a8a838181106146d657fe5b905060200201358989848181106146e957fe5b9050602002013573ffffffffffffffffffffffffffffffffffffffff1688888581811061471257fe5b9050602002013587878681811061472557fe5b905060200201351515614c6b565b5080806001019150506146bc565b506001905098975050505050505050565b60008054906101000a900473ffffffffffffffffffffffffffffffffffffffff1681565b7f4c494e410000000000000000000000000000000000000000000000000000000081565b6000817f4c494e41000000000000000000000000000000000000000000000000000000001461481e57600a60008473ffffffffffffffffffffffffffffffffffffffff1673ffffffffffffffffffffffffffffffffffffffff168152602001908152602001600020600083815260200190815260200160002060000154905061494a565b614947600a60008573ffffffffffffffffffffffffffffffffffffffff1673ffffffffffffffffffffffffffffffffffffffff168152602001908152602001600020600084815260200190815260200160002060000154600660009054906101000a900473ffffffffffffffffffffffffffffffffffffffff1673ffffffffffffffffffffffffffffffffffffffff166370a08231866040518263ffffffff1660e01b8152600401808273ffffffffffffffffffffffffffffffffffffffff16815260200191505060206040518083038186803b1580156148fe57600080fd5b505afa158015614912573d6000803e3d6000fd5b505050506040513d602081101561492857600080fd5b810190808051906020019092919050505061495090919063ffffffff16565b90505b92915050565b6000808284019050838110156149ce576040517f08c379a000000000000000000000000000000000000000000000000000000000815260040180806020018281038252601b8152602001807f536166654d6174683a206164646974696f6e206f766572666c6f77000000000081525060200191505060405180910390fd5b8091505092915050565b600160149054906101000a900460ff1615614a5b576040517f08c379a00000000000000000000000000000000000000000000000000000000081526004018080602001828103825260108152602001807f5061757361626c653a207061757365640000000000000000000000000000000081525060200191505060405180910390fd5b60018060146101000a81548160ff0219169083151502179055507f62e78cea01bee320cd4e420270b5ea74000d11b0c9f74754ebdbfc544b05a258614a9e6155e0565b604051808273ffffffffffffffffffffffffffffffffffffffff16815260200191505060405180910390a1565b600160149054906101000a900460ff16614b4d576040517f08c379a00000000000000000000000000000000000000000000000000000000081526004018080602001828103825260148152602001807f5061757361626c653a206e6f742070617573656400000000000000000000000081525060200191505060405180910390fd5b6000600160146101000a81548160ff0219169083151502179055507f5db9ee0a495bf2e6ff9c91a7834c1ba4fdd244a5e8aa4e537bd38aeae4b073aa614b916155e0565b604051808273ffffffffffffffffffffffffffffffffffffffff16815260200191505060405180910390a1565b6000614bec82614bde601260ff16600a0a866155e890919063ffffffff16565b61566e90919063ffffffff16565b905092915050565b6000614c3683836040518060400160405280601e81526020017f536166654d6174683a207375627472616374696f6e206f766572666c6f7700008152506156b8565b905092915050565b6000601260ff16600a0a614c5b83856155e890919063ffffffff16565b81614c6257fe5b04905092915050565b60008060f81b85600060208110614c7e57fe5b1a60f81b7effffffffffffffffffffffffffffffffffffffffffffffffffffffffffffff19161415614d18576040517f08c379a00000000000000000000000000000000000000000000000000000000081526004018080602001828103825260138152602001807f73796d626f6c2063616e6e6f7420656d7074790000000000000000000000000081525060200191505060405180910390fd5b7f4554480000000000000000000000000000000000000000000000000000000000851415614dae576040517f08c379a00000000000000000000000000000000000000000000000000000000081526004018080602001828103825260158152602001807f45544820697320757365642062792073797374656d000000000000000000000081525060200191505060405180910390fd5b600073ffffffffffffffffffffffffffffffffffffffff168473ffffffffffffffffffffffffffffffffffffffff161415614e51576040517f08c379a00000000000000000000000000000000000000000000000000000000081526004018080602001828103825260198152602001807f746f6b656e20616464726573732063616e6e6f74207a65726f0000000000000081525060200191505060405180910390fd5b614e708473ffffffffffffffffffffffffffffffffffffffff166150d0565b614ee2576040517f08c379a000000000000000000000000000000000000000000000000000000000815260040180806020018281038252601f8152602001807f746f6b656e2061646472657373206973206e6f74206120636f6e74726163740081525060200191505060405180910390fd5b600073ffffffffffffffffffffffffffffffffffffffff166008600087815260200190815260200160002060000160009054906101000a900473ffffffffffffffffffffffffffffffffffffffff1673ffffffffffffffffffffffffffffffffffffffff161415614f775760098590806001815401808255809150506001900390600052602060002001600090919091909150555b60006008600087815260200190815260200160002060020154905060405180608001604052808673ffffffffffffffffffffffffffffffffffffffff1681526020018581526020018281526020018415158152506008600088815260200190815260200160002060008201518160000160006101000a81548173ffffffffffffffffffffffffffffffffffffffff021916908373ffffffffffffffffffffffffffffffffffffffff160217905550602082015181600101556040820151816002015560608201518160030160006101000a81548160ff0219169083151502179055509050507fb8ccd92c8fb24731fb4c076a82ecc0f1ff41af213ec928f550aa42fa8e5aee8c86868686604051808581526020018473ffffffffffffffffffffffffffffffffffffffff168152602001838152602001821515815260200194505050505060405180910390a16001915050949350505050565b60008060007fc5d2460186f7233c927e7db2dcc703c0e500b653ca82273b7bfad8045d85a47060001b9050833f915080821415801561511257506000801b8214155b92505050919050565b600a60008473ffffffffffffffffffffffffffffffffffffffff1673ffffffffffffffffffffffffffffffffffffffff1681526020019081526020016000206000838152602001908152602001600020600001548111156151c7576040517f08c379a00000000000000000000000000000000000000000000000000000000081526004018080602001828103825260238152602001806159056023913960400191505060405180910390fd5b60008111615220576040517f08c379a00000000000000000000000000000000000000000000000000000000081526004018080602001828103825260238152602001806158e26023913960400191505060405180910390fd5b600061522b8461420f565b905060006152ef600260009054906101000a900473ffffffffffffffffffffffffffffffffffffffff1673ffffffffffffffffffffffffffffffffffffffff166331d98b3f866040518263ffffffff1660e01b81526004018082815260200191505060206040518083038186803b1580156152a557600080fd5b505afa1580156152b9573d6000803e3d6000fd5b505050506040513d60208110156152cf57600080fd5b810190808051906020019092919050505083614bbe90919063ffffffff16565b90508083111561534a576040517f08c379a00000000000000000000000000000000000000000000000000000000081526004018080602001828103825260378152602001806159286037913960400191505060405180910390fd5b6153b083600a60008873ffffffffffffffffffffffffffffffffffffffff1673ffffffffffffffffffffffffffffffffffffffff168152602001908152602001600020600087815260200190815260200160002060000154614bf490919063ffffffff16565b600a60008773ffffffffffffffffffffffffffffffffffffffff1673ffffffffffffffffffffffffffffffffffffffff1681526020019081526020016000206000868152602001908152602001600020600001819055506000600860008681526020019081526020016000209050615435848260020154614bf490919063ffffffff16565b81600201819055506008600086815260200190815260200160002060000160009054906101000a900473ffffffffffffffffffffffffffffffffffffffff1673ffffffffffffffffffffffffffffffffffffffff1663a9059cbb87866040518363ffffffff1660e01b8152600401808373ffffffffffffffffffffffffffffffffffffffff16815260200182815260200192505050602060405180830381600087803b1580156154e457600080fd5b505af11580156154f8573d6000803e3d6000fd5b505050506040513d602081101561550e57600080fd5b8101908080519060200190929190505050507ffa659da0063f4e5cf39c3b6dae863e789ab69f82e82925c28cae633a81b2b65d868686600a60008b73ffffffffffffffffffffffffffffffffffffffff1673ffffffffffffffffffffffffffffffffffffffff16815260200190815260200160002060008a815260200190815260200160002060000154604051808573ffffffffffffffffffffffffffffffffffffffff16815260200184815260200183815260200182815260200194505050505060405180910390a1505050505050565b600033905090565b6000808314156155fb5760009050615668565b600082840290508284828161560c57fe5b0414615663576040517f08c379a000000000000000000000000000000000000000000000000000000000815260040180806020018281038252602181526020018061586f6021913960400191505060405180910390fd5b809150505b92915050565b60006156b083836040518060400160405280601a81526020017f536166654d6174683a206469766973696f6e206279207a65726f000000000000815250615778565b905092915050565b6000838311158290615765576040517f08c379a00000000000000000000000000000000000000000000000000000000081526004018080602001828103825283818151815260200191508051906020019080838360005b8381101561572a57808201518184015260208101905061570f565b50505050905090810190601f1680156157575780820380516001836020036101000a031916815260200191505b509250505060405180910390fd5b5060008385039050809150509392505050565b60008083118290615824576040517f08c379a00000000000000000000000000000000000000000000000000000000081526004018080602001828103825283818151815260200191508051906020019080838360005b838110156157e95780820151818401526020810190506157ce565b50505050905090810190601f1680156158165780820380516001836020036101000a031916815260200191505b509250505060405180910390fd5b50600083858161583057fe5b04905080915050939250505056fe696e73756666696369656e7420616c6c6f77616e63652c206e65656420617070726f7665206d6f726520616d6f756e74536166654d6174683a206d756c7469706c69636174696f6e206f766572666c6f774c6e4275696c644275726e53797374656d2061646472657373206e6f742076616c69644f6e6c792074686520636f6e74726163742061646d696e2063616e20706572666f726d207468697320616374696f6e52656465656d20616d6f756e74206e656564206c6172676572207468616e207a65726f43616e206e6f742072656465656d206d6f7265207468616e20636f6c6c61746572616c42656361757365206c6f77657220636f6c6c61746572616c20726174696f2c2063616e206e6f742072656465656d20746f6f206d756368a2646970667358221220fae2f3a1f6376ef3b5f212fd0276595ef3f61dfed9cf49bf08744c942223005b64736f6c634300060c0033",
  "immutableReferences": {},
  "source": "// SPDX-License-Identifier: MIT\r\npragma solidity ^0.6.12;\r\n\r\nimport \"./IERC20.sol\";\r\nimport \"./LnAdmin.sol\";\r\nimport \"@openzeppelin/contracts/math/SafeMath.sol\";\r\nimport \"@openzeppelin/contracts/utils/Pausable.sol\";\r\nimport \"@openzeppelin/contracts/utils/Address.sol\";\r\nimport \"./SafeDecimalMath.sol\";\r\nimport \"./LnPrices.sol\";\r\nimport \"./LnAddressCache.sol\";\r\nimport \"./LnDebtSystem.sol\";\r\nimport \"./LnBuildBurnSystem.sol\";\r\nimport \"./LnConfig.sol\";\r\nimport \"./LnRewardLocker.sol\";\r\n\r\n// \r\n//   \r\ncontract LnCollateralSystem is LnAdmin, Pausable, LnAddressCache {\r\n    using SafeMath for uint;\r\n    using SafeDecimalMath for uint;\r\n    using Address for address;\r\n\r\n    // -------------------------------------------------------\r\n    // need set before system running value.\r\n    LnPrices public priceGetter;\r\n    LnDebtSystem public debtSystem;\r\n    LnBuildBurnSystem public buildBurnSystem;\r\n    LnConfig public mConfig;\r\n    LnRewardLocker public mRewardLocker;\r\n\r\n    bytes32 constant public Currency_ETH = \"ETH\";\r\n    bytes32 constant public Currency_LINA = \"LINA\";\r\n    \r\n    // -------------------------------------------------------\r\n    uint256 public uniqueId; // use log\r\n\r\n    struct TokenInfo {\r\n        address tokenAddr;\r\n        uint256 minCollateral; // min collateral amount.\r\n        uint256 totalCollateral;\r\n        bool bClose; // TODO : ?\r\n    }\r\n\r\n    mapping (bytes32 => TokenInfo) public tokenInfos;\r\n    bytes32[] public tokenSymbol; // keys of tokenInfos, use to iteration\r\n\r\n    struct CollateralData {\r\n        uint256 collateral; // total collateral\r\n    }\r\n\r\n    // [user] => ([token=> collateraldata])\r\n    mapping (address => mapping(bytes32 => CollateralData)) public userCollateralData;\r\n\r\n    // -------------------------------------------------------\r\n    constructor(address admin) public LnAdmin(admin) {\r\n    }\r\n\r\n    function setPaused(bool _paused) external onlyAdmin {\r\n        if (_paused) {\r\n            _pause();\r\n        } else {\r\n            _unpause();\r\n        }\r\n    }\r\n    // ------------------ system config ----------------------\r\n    function updateAddressCache( LnAddressStorage _addressStorage ) onlyAdmin public override\r\n    {\r\n        priceGetter =     LnPrices(         _addressStorage.getAddressWithRequire( \"LnPrices\",          \"LnPrices address not valid\" ));\r\n        debtSystem =      LnDebtSystem(     _addressStorage.getAddressWithRequire( \"LnDebtSystem\",      \"LnDebtSystem address not valid\" ));\r\n        buildBurnSystem = LnBuildBurnSystem(_addressStorage.getAddressWithRequire( \"LnBuildBurnSystem\", \"LnBuildBurnSystem address not valid\" ));\r\n        mConfig =         LnConfig(         _addressStorage.getAddressWithRequire( \"LnConfig\",          \"LnConfig address not valid\" ) );\r\n        mRewardLocker =   LnRewardLocker(   _addressStorage.getAddressWithRequire( \"LnRewardLocker\",    \"LnRewardLocker address not valid\" ));\r\n\r\n        emit updateCachedAddress( \"LnPrices\",          address(priceGetter) );\r\n        emit updateCachedAddress( \"LnDebtSystem\",      address(debtSystem) );\r\n        emit updateCachedAddress( \"LnBuildBurnSystem\", address(buildBurnSystem) );\r\n        emit updateCachedAddress( \"LnConfig\",          address(mConfig) );\r\n        emit updateCachedAddress( \"LnRewardLocker\",    address(mRewardLocker) );\r\n    }\r\n\r\n    function SetPause(bool pause) external onlyAdmin {\r\n        if (pause) {\r\n            _pause();\r\n        } else {\r\n            _unpause();\r\n        }\r\n    }\r\n\r\n    function updateTokenInfo(bytes32 _currency, address _tokenAddr, uint256 _minCollateral, bool _close) private returns (bool) {\r\n        require(_currency[0] != 0, \"symbol cannot empty\");\r\n        require(_currency != Currency_ETH, \"ETH is used by system\");\r\n        require(_tokenAddr != address(0), \"token address cannot zero\");\r\n        require(_tokenAddr.isContract(), \"token address is not a contract\");\r\n\r\n        if (tokenInfos[_currency].tokenAddr == address(0)) {// new token\r\n            tokenSymbol.push(_currency);\r\n        }\r\n\r\n        uint256 totalCollateral = tokenInfos[_currency].totalCollateral;\r\n        tokenInfos[_currency] = TokenInfo({tokenAddr:_tokenAddr, minCollateral:_minCollateral, totalCollateral:totalCollateral, bClose:_close});\r\n        emit UpdateTokenSetting(_currency, _tokenAddr, _minCollateral, _close);\r\n        return true;\r\n    }\r\n\r\n    // delete token info? need to handle it's staking data.\r\n\r\n    function UpdateTokenInfo(bytes32 _currency, address _tokenAddr, uint256 _minCollateral, bool _close) external onlyAdmin returns (bool) {\r\n        return updateTokenInfo(_currency, _tokenAddr, _minCollateral, _close);\r\n    }\r\n\r\n    function UpdateTokenInfos(bytes32[] calldata _symbols, address[] calldata _tokenAddrs, uint256[] calldata _minCollateral, bool[] calldata _closes) external onlyAdmin returns (bool) {\r\n        require(_symbols.length == _tokenAddrs.length, \"length of array not eq\");\r\n        require(_symbols.length == _minCollateral.length, \"length of array not eq\");\r\n        require(_symbols.length == _closes.length, \"length of array not eq\");\r\n\r\n        for (uint256 i=0; i < _symbols.length; i++) {\r\n            updateTokenInfo(_symbols[i], _tokenAddrs[i], _minCollateral[i], _closes[i]);\r\n        }\r\n\r\n        return true;\r\n    }\r\n\r\n    // ------------------------------------------------------------------------\r\n    function GetSystemTotalCollateralInUsd() public view returns (uint256 rTotal) {\r\n        for (uint256 i=0; i< tokenSymbol.length; i++) {\r\n            bytes32 currency = tokenSymbol[i];\r\n            if (tokenInfos[currency].totalCollateral > 0) { // this check for avoid calling getPrice when collateral is zero\r\n                if (Currency_LINA == currency) {\r\n                    uint256 totallina = tokenInfos[currency].totalCollateral.add(mRewardLocker.totalNeedToReward());\r\n                    rTotal = rTotal.add( totallina.multiplyDecimal(priceGetter.getPrice(currency)) );\r\n                } else {\r\n                    rTotal = rTotal.add( tokenInfos[currency].totalCollateral.multiplyDecimal(priceGetter.getPrice(currency)) );\r\n                }\r\n            }\r\n        }\r\n\r\n        if (address(this).balance > 0) {\r\n            rTotal = rTotal.add(address(this).balance.multiplyDecimal(priceGetter.getPrice(Currency_ETH)));\r\n        }\r\n    }\r\n\r\n    function GetUserTotalCollateralInUsd(address _user) public view returns (uint256 rTotal) {\r\n        for (uint256 i=0; i< tokenSymbol.length; i++) {\r\n            bytes32 currency = tokenSymbol[i];\r\n            if (userCollateralData[_user][currency].collateral > 0) {\r\n                if (Currency_LINA == currency) {\r\n                    uint256 totallina = userCollateralData[_user][currency].collateral.add(mRewardLocker.balanceOf(_user));\r\n                    rTotal = rTotal.add( totallina.multiplyDecimal(priceGetter.getPrice(currency)) );\r\n                } else {\r\n                    rTotal = rTotal.add( userCollateralData[_user][currency].collateral.multiplyDecimal(priceGetter.getPrice(currency)) );\r\n                }\r\n            }\r\n        }\r\n\r\n        if (userCollateralData[_user][Currency_ETH].collateral > 0) {\r\n            rTotal = rTotal.add( userCollateralData[_user][Currency_ETH].collateral.multiplyDecimal(priceGetter.getPrice(Currency_ETH)) );\r\n        }\r\n    }\r\n\r\n    function GetUserCollateral(address _user, bytes32 _currency) external view returns (uint256) {\r\n        if (Currency_LINA != _currency) {\r\n            return userCollateralData[_user][_currency].collateral;\r\n        }\r\n        return mRewardLocker.balanceOf(_user).add(userCollateralData[_user][_currency].collateral);\r\n    }\r\n\r\n    // NOTE: LINA collateral not include reward in locker\r\n    function GetUserCollaterals(address _user) external view returns (bytes32[] memory, uint256[] memory) {\r\n        bytes32[] memory rCurrency = new bytes32[](tokenSymbol.length + 1);\r\n        uint256[] memory rAmount = new uint256[](tokenSymbol.length + 1);\r\n        uint256 retSize = 0;\r\n        for (uint256 i=0; i < tokenSymbol.length; i++) {\r\n            bytes32 currency = tokenSymbol[i];\r\n            if (userCollateralData[_user][currency].collateral > 0) {\r\n                rCurrency[retSize] = currency;\r\n                rAmount[retSize] = userCollateralData[_user][currency].collateral;\r\n                retSize++;\r\n            }\r\n        }\r\n        if (userCollateralData[_user][Currency_ETH].collateral > 0) {\r\n            rCurrency[retSize] = Currency_ETH;\r\n            rAmount[retSize] = userCollateralData[_user][Currency_ETH].collateral;\r\n            retSize++;\r\n        }\r\n\r\n        return (rCurrency, rAmount); \r\n    }\r\n\r\n    // need approve\r\n    function Collateral(bytes32 _currency, uint256 _amount) external whenNotPaused returns (bool) {\r\n        require(tokenInfos[_currency].tokenAddr.isContract(), \"Invalid token symbol\");\r\n        TokenInfo storage tokeninfo = tokenInfos[_currency];\r\n        require(_amount > tokeninfo.minCollateral, \"Collateral amount too small\");\r\n        require(tokeninfo.bClose == false, \"This token is closed\");\r\n\r\n        address user = msg.sender;\r\n\r\n        IERC20 erc20 = IERC20(tokenInfos[_currency].tokenAddr);\r\n        require(erc20.balanceOf(user) >= _amount, \"insufficient balance\");\r\n        require(erc20.allowance(user, address(this)) >= _amount, \"insufficient allowance, need approve more amount\");\r\n\r\n        erc20.transferFrom(user, address(this), _amount);\r\n\r\n        userCollateralData[user][_currency].collateral = userCollateralData[user][_currency].collateral.add(_amount);\r\n        tokeninfo.totalCollateral = tokeninfo.totalCollateral.add(_amount);\r\n\r\n        emit CollateralLog(user, _currency, _amount, userCollateralData[user][_currency].collateral);\r\n        return true;\r\n    }\r\n\r\n    function IsSatisfyTargetRatio(address _user) public view returns(bool) {\r\n        (uint256 debtBalance, ) = debtSystem.GetUserDebtBalanceInUsd(_user);\r\n        if (debtBalance == 0) {\r\n            return true;\r\n        }\r\n\r\n        uint256 buildRatio = mConfig.getUint(mConfig.BUILD_RATIO());\r\n        uint256 totalCollateralInUsd = GetUserTotalCollateralInUsd(_user);\r\n        if (totalCollateralInUsd == 0) {\r\n            return false;\r\n        }\r\n        uint256 myratio = debtBalance.divideDecimal(totalCollateralInUsd);\r\n        return myratio <= buildRatio;\r\n    }\r\n\r\n    //  TODO: return multi value\r\n    function MaxRedeemableInUsd(address _user) public view returns (uint256) {\r\n        uint256 totalCollateralInUsd = GetUserTotalCollateralInUsd(_user);\r\n        \r\n        (uint256 debtBalance, ) = debtSystem.GetUserDebtBalanceInUsd(_user);\r\n        if (debtBalance == 0) {\r\n            return totalCollateralInUsd;\r\n        }\r\n\r\n        uint256 buildRatio = mConfig.getUint(mConfig.BUILD_RATIO());\r\n        uint256 minCollateral = debtBalance.divideDecimal(buildRatio);\r\n        if (totalCollateralInUsd < minCollateral) {\r\n            return 0;\r\n        }\r\n        \r\n        return totalCollateralInUsd.sub(minCollateral);\r\n    }\r\n\r\n    function MaxRedeemable(address user, bytes32 _currency) public view returns(uint256) {\r\n        uint256 maxRedeemableInUsd = MaxRedeemableInUsd(user);\r\n        uint256 maxRedeem = maxRedeemableInUsd.divideDecimal(priceGetter.getPrice(_currency));\r\n        if (maxRedeem > userCollateralData[user][_currency].collateral) {\r\n            maxRedeem = userCollateralData[user][_currency].collateral;\r\n        }\r\n        if (Currency_LINA != _currency) {\r\n            return maxRedeem;\r\n        }\r\n        uint256 lockedLina = mRewardLocker.balanceOf(user);\r\n        if (maxRedeem <= lockedLina) {\r\n            return 0;\r\n        }\r\n        return maxRedeem.sub(lockedLina);\r\n    }\r\n\r\n    function RedeemMax(bytes32 _currency) external whenNotPaused {\r\n        address user = msg.sender;\r\n        uint256 maxRedeem = MaxRedeemable(user, _currency);\r\n        _Redeem(user, _currency, maxRedeem);\r\n    }\r\n\r\n    function _Redeem(address user, bytes32 _currency, uint256 _amount) internal {\r\n        require(_amount <= userCollateralData[user][_currency].collateral, \"Can not redeem more than collateral\");\r\n        require(_amount > 0, \"Redeem amount need larger than zero\");\r\n\r\n        uint256 maxRedeemableInUsd = MaxRedeemableInUsd(user);\r\n        uint256 maxRedeem = maxRedeemableInUsd.divideDecimal(priceGetter.getPrice(_currency));\r\n        require(_amount <= maxRedeem, \"Because lower collateral ratio, can not redeem too much\");\r\n\r\n        userCollateralData[user][_currency].collateral = userCollateralData[user][_currency].collateral.sub(_amount);\r\n\r\n        TokenInfo storage tokeninfo = tokenInfos[_currency];\r\n        tokeninfo.totalCollateral = tokeninfo.totalCollateral.sub(_amount);\r\n\r\n        IERC20(tokenInfos[_currency].tokenAddr).transfer(user, _amount);\r\n\r\n        emit RedeemCollateral(user, _currency, _amount, userCollateralData[user][_currency].collateral);\r\n    }\r\n\r\n    // 1. After redeem, collateral ratio need bigger than target ratio.\r\n    // 2. Cannot redeem more than collateral.\r\n    function Redeem(bytes32 _currency, uint256 _amount) public whenNotPaused returns (bool) {\r\n        address user = msg.sender;\r\n        _Redeem(user, _currency, _amount);\r\n        return true;\r\n    }\r\n\r\n    receive() external whenNotPaused payable {\r\n        address user = msg.sender;\r\n        uint256 ethAmount = msg.value;\r\n        _CollateralEth(user, ethAmount);\r\n    }\r\n\r\n    function _CollateralEth(address user, uint256 ethAmount) internal {\r\n        require(ethAmount > 0, \"ETH amount need more than zero\");\r\n        \r\n        userCollateralData[user][Currency_ETH].collateral = userCollateralData[user][Currency_ETH].collateral.add(ethAmount);\r\n\r\n        emit CollateralLog(user, Currency_ETH, ethAmount, userCollateralData[user][Currency_ETH].collateral);\r\n    }\r\n\r\n    // payable eth receive, \r\n    function CollateralEth() external payable whenNotPaused returns (bool) {\r\n        address user = msg.sender;\r\n        uint256 ethAmount = msg.value;\r\n        _CollateralEth(user, ethAmount);\r\n        return true;\r\n    }\r\n\r\n    function RedeemETH(uint256 _amount) external whenNotPaused returns (bool) {\r\n        address payable user = msg.sender;\r\n        require(_amount <= userCollateralData[user][Currency_ETH].collateral, \"Can not redeem more than collateral\");\r\n        require(_amount > 0, \"Redeem amount need larger than zero\");\r\n\r\n        uint256 maxRedeemableInUsd = MaxRedeemableInUsd(user);\r\n        \r\n        uint256 maxRedeem = maxRedeemableInUsd.divideDecimal(priceGetter.getPrice(Currency_ETH));\r\n        require(_amount <= maxRedeem, \"Because lower collateral ratio, can not redeem too much\");\r\n\r\n        userCollateralData[user][Currency_ETH].collateral = userCollateralData[user][Currency_ETH].collateral.sub(_amount);\r\n        user.transfer(_amount);\r\n\r\n        emit RedeemCollateral(user, Currency_ETH, _amount, userCollateralData[user][Currency_ETH].collateral);\r\n        return true;\r\n    }\r\n\r\n    event UpdateTokenSetting(bytes32 symbol, address tokenAddr, uint256 minCollateral, bool close);\r\n    event CollateralLog(address user, bytes32 _currency, uint256 _amount, uint256 _userTotal);\r\n    event RedeemCollateral(address user, bytes32 _currency, uint256 _amount, uint256 _userTotal);\r\n}\r\n",
  "sourcePath": "/mnt/d/working/linearFinance/smartcontracts/contracts/LnCollateralSystem.sol",
  "compiler": {
    "name": "solc",
    "version": "0.6.12+commit.27d51765.Emscripten.clang"
  },
  "schemaVersion": "3.2.3",
  "updatedAt": "2020-10-27T07:15:48.730Z",
  "networkType": "ethereum",
  "devdoc": {
    "kind": "dev",
    "methods": {
      "paused()": {
        "details": "Returns true if the contract is paused, and false otherwise."
      }
    },
    "version": 1
  },
  "userdoc": {
    "kind": "user",
    "methods": {},
    "version": 1
  }
}