{
  "contractName": "LnCollateralSystem",
  "abi": [
    {
      "inputs": [
        {
          "internalType": "address",
          "name": "admin",
          "type": "address"
        }
      ],
      "stateMutability": "nonpayable",
      "type": "constructor"
    },
    {
      "anonymous": false,
      "inputs": [
        {
          "indexed": false,
          "internalType": "address",
          "name": "oldAdmin",
          "type": "address"
        },
        {
          "indexed": false,
          "internalType": "address",
          "name": "newAdmin",
          "type": "address"
        }
      ],
      "name": "AdminChanged",
      "type": "event"
    },
    {
      "anonymous": false,
      "inputs": [
        {
          "indexed": false,
          "internalType": "address",
          "name": "user",
          "type": "address"
        },
        {
          "indexed": false,
          "internalType": "bytes32",
          "name": "_currency",
          "type": "bytes32"
        },
        {
          "indexed": false,
          "internalType": "uint256",
          "name": "_amount",
          "type": "uint256"
        },
        {
          "indexed": false,
          "internalType": "uint256",
          "name": "_userTotal",
          "type": "uint256"
        }
      ],
      "name": "CollateralLog",
      "type": "event"
    },
    {
      "anonymous": false,
      "inputs": [
        {
          "indexed": false,
          "internalType": "address",
          "name": "account",
          "type": "address"
        }
      ],
      "name": "Paused",
      "type": "event"
    },
    {
      "anonymous": false,
      "inputs": [
        {
          "indexed": false,
          "internalType": "address",
          "name": "user",
          "type": "address"
        },
        {
          "indexed": false,
          "internalType": "bytes32",
          "name": "_currency",
          "type": "bytes32"
        },
        {
          "indexed": false,
          "internalType": "uint256",
          "name": "_amount",
          "type": "uint256"
        },
        {
          "indexed": false,
          "internalType": "uint256",
          "name": "_userTotal",
          "type": "uint256"
        }
      ],
      "name": "RedeemCollateral",
      "type": "event"
    },
    {
      "anonymous": false,
      "inputs": [
        {
          "indexed": false,
          "internalType": "address",
          "name": "account",
          "type": "address"
        }
      ],
      "name": "Unpaused",
      "type": "event"
    },
    {
      "anonymous": false,
      "inputs": [
        {
          "indexed": false,
          "internalType": "bytes32",
          "name": "symbol",
          "type": "bytes32"
        },
        {
          "indexed": false,
          "internalType": "address",
          "name": "tokenAddr",
          "type": "address"
        },
        {
          "indexed": false,
          "internalType": "uint256",
          "name": "minCollateral",
          "type": "uint256"
        },
        {
          "indexed": false,
          "internalType": "bool",
          "name": "close",
          "type": "bool"
        }
      ],
      "name": "UpdateTokenSetting",
      "type": "event"
    },
    {
      "anonymous": false,
      "inputs": [
        {
          "indexed": false,
          "internalType": "address",
          "name": "oldCandidate",
          "type": "address"
        },
        {
          "indexed": false,
          "internalType": "address",
          "name": "newCandidate",
          "type": "address"
        }
      ],
      "name": "candidateChanged",
      "type": "event"
    },
    {
      "anonymous": false,
      "inputs": [
        {
          "indexed": false,
          "internalType": "bytes32",
          "name": "name",
          "type": "bytes32"
        },
        {
          "indexed": false,
          "internalType": "address",
          "name": "addr",
          "type": "address"
        }
      ],
      "name": "updateCachedAddress",
      "type": "event"
    },
    {
      "inputs": [],
      "name": "admin",
      "outputs": [
        {
          "internalType": "address",
          "name": "",
          "type": "address"
        }
      ],
      "stateMutability": "view",
      "type": "function"
    },
    {
      "inputs": [],
      "name": "becomeAdmin",
      "outputs": [],
      "stateMutability": "nonpayable",
      "type": "function"
    },
    {
      "inputs": [],
      "name": "candidate",
      "outputs": [
        {
          "internalType": "address",
          "name": "",
          "type": "address"
        }
      ],
      "stateMutability": "view",
      "type": "function"
    },
    {
      "inputs": [],
      "name": "paused",
      "outputs": [
        {
          "internalType": "bool",
          "name": "",
          "type": "bool"
        }
      ],
      "stateMutability": "view",
      "type": "function"
    },
    {
      "inputs": [
        {
          "internalType": "address",
          "name": "_candidate",
          "type": "address"
        }
      ],
      "name": "setCandidate",
      "outputs": [],
      "stateMutability": "nonpayable",
      "type": "function"
    },
    {
      "inputs": [
        {
          "internalType": "bytes32",
          "name": "",
          "type": "bytes32"
        }
      ],
      "name": "tokenInfos",
      "outputs": [
        {
          "internalType": "address",
          "name": "tokenAddr",
          "type": "address"
        },
        {
          "internalType": "uint256",
          "name": "minCollateral",
          "type": "uint256"
        },
        {
          "internalType": "uint256",
          "name": "totalCollateral",
          "type": "uint256"
        },
        {
          "internalType": "bool",
          "name": "bClose",
          "type": "bool"
        }
      ],
      "stateMutability": "view",
      "type": "function"
    },
    {
      "inputs": [
        {
          "internalType": "uint256",
          "name": "",
          "type": "uint256"
        }
      ],
      "name": "tokenSymbol",
      "outputs": [
        {
          "internalType": "bytes32",
          "name": "",
          "type": "bytes32"
        }
      ],
      "stateMutability": "view",
      "type": "function"
    },
    {
      "inputs": [],
      "name": "uniqueId",
      "outputs": [
        {
          "internalType": "uint256",
          "name": "",
          "type": "uint256"
        }
      ],
      "stateMutability": "view",
      "type": "function"
    },
    {
      "inputs": [
        {
          "internalType": "address",
          "name": "",
          "type": "address"
        },
        {
          "internalType": "bytes32",
          "name": "",
          "type": "bytes32"
        }
      ],
      "name": "userCollateralData",
      "outputs": [
        {
          "internalType": "uint256",
          "name": "collateral",
          "type": "uint256"
        }
      ],
      "stateMutability": "view",
      "type": "function"
    },
    {
      "inputs": [
        {
          "internalType": "bool",
          "name": "_paused",
          "type": "bool"
        }
      ],
      "name": "setPaused",
      "outputs": [],
      "stateMutability": "nonpayable",
      "type": "function"
    },
    {
      "inputs": [
        {
          "internalType": "contract LnAddressStorage",
          "name": "_addressStorage",
          "type": "address"
        }
      ],
      "name": "updateAddressCache",
      "outputs": [],
      "stateMutability": "nonpayable",
      "type": "function"
    },
    {
      "inputs": [
        {
          "internalType": "bool",
          "name": "pause",
          "type": "bool"
        }
      ],
      "name": "SetPause",
      "outputs": [],
      "stateMutability": "nonpayable",
      "type": "function"
    },
    {
      "inputs": [
        {
          "internalType": "bytes32",
          "name": "_currency",
          "type": "bytes32"
        },
        {
          "internalType": "address",
          "name": "_tokenAddr",
          "type": "address"
        },
        {
          "internalType": "uint256",
          "name": "_minCollateral",
          "type": "uint256"
        },
        {
          "internalType": "bool",
          "name": "_close",
          "type": "bool"
        }
      ],
      "name": "UpdateTokenInfo",
      "outputs": [
        {
          "internalType": "bool",
          "name": "",
          "type": "bool"
        }
      ],
      "stateMutability": "nonpayable",
      "type": "function"
    },
    {
      "inputs": [
        {
          "internalType": "bytes32[]",
          "name": "_symbols",
          "type": "bytes32[]"
        },
        {
          "internalType": "address[]",
          "name": "_tokenAddrs",
          "type": "address[]"
        },
        {
          "internalType": "uint256[]",
          "name": "_minCollateral",
          "type": "uint256[]"
        },
        {
          "internalType": "bool[]",
          "name": "_closes",
          "type": "bool[]"
        }
      ],
      "name": "UpdateTokenInfos",
      "outputs": [
        {
          "internalType": "bool",
          "name": "",
          "type": "bool"
        }
      ],
      "stateMutability": "nonpayable",
      "type": "function"
    },
    {
      "inputs": [],
      "name": "GetSystemTotalCollateralInUsd",
      "outputs": [
        {
          "internalType": "uint256",
          "name": "rTotal",
          "type": "uint256"
        }
      ],
      "stateMutability": "view",
      "type": "function"
    },
    {
      "inputs": [
        {
          "internalType": "address",
          "name": "_user",
          "type": "address"
        }
      ],
      "name": "GetUserTotalCollateralInUsd",
      "outputs": [
        {
          "internalType": "uint256",
          "name": "rTotal",
          "type": "uint256"
        }
      ],
      "stateMutability": "view",
      "type": "function"
    },
    {
      "inputs": [
        {
          "internalType": "address",
          "name": "_user",
          "type": "address"
        },
        {
          "internalType": "bytes32",
          "name": "_currency",
          "type": "bytes32"
        }
      ],
      "name": "GetUserCollateral",
      "outputs": [
        {
          "internalType": "uint256",
          "name": "",
          "type": "uint256"
        }
      ],
      "stateMutability": "view",
      "type": "function"
    },
    {
      "inputs": [
        {
          "internalType": "address",
          "name": "_user",
          "type": "address"
        }
      ],
      "name": "GetUserCollaterals",
      "outputs": [
        {
          "internalType": "bytes32[]",
          "name": "",
          "type": "bytes32[]"
        },
        {
          "internalType": "uint256[]",
          "name": "",
          "type": "uint256[]"
        }
      ],
      "stateMutability": "view",
      "type": "function"
    },
    {
      "inputs": [
        {
          "internalType": "bytes32",
          "name": "_currency",
          "type": "bytes32"
        },
        {
          "internalType": "uint256",
          "name": "_amount",
          "type": "uint256"
        }
      ],
      "name": "Collateral",
      "outputs": [
        {
          "internalType": "bool",
          "name": "",
          "type": "bool"
        }
      ],
      "stateMutability": "nonpayable",
      "type": "function"
    },
    {
      "inputs": [
        {
          "internalType": "address",
          "name": "_user",
          "type": "address"
        }
      ],
      "name": "MaxRedeemableInUsd",
      "outputs": [
        {
          "internalType": "uint256",
          "name": "",
          "type": "uint256"
        }
      ],
      "stateMutability": "view",
      "type": "function"
    },
    {
      "inputs": [
        {
          "internalType": "bytes32",
          "name": "_currency",
          "type": "bytes32"
        },
        {
          "internalType": "uint256",
          "name": "_amount",
          "type": "uint256"
        }
      ],
      "name": "Redeem",
      "outputs": [
        {
          "internalType": "bool",
          "name": "",
          "type": "bool"
        }
      ],
      "stateMutability": "nonpayable",
      "type": "function"
    },
    {
      "inputs": [],
      "name": "CollateralEth",
      "outputs": [
        {
          "internalType": "bool",
          "name": "",
          "type": "bool"
        }
      ],
      "stateMutability": "payable",
      "type": "function"
    },
    {
      "inputs": [
        {
          "internalType": "uint256",
          "name": "_amount",
          "type": "uint256"
        }
      ],
      "name": "RedeemETH",
      "outputs": [
        {
          "internalType": "bool",
          "name": "",
          "type": "bool"
        }
      ],
      "stateMutability": "nonpayable",
      "type": "function"
    }
  ],
  "bytecode": "0x60806040523480156200001157600080fd5b506040516200494a3803806200494a833981810160405260208110156200003757600080fd5b810190808051906020019092919050505080600073ffffffffffffffffffffffffffffffffffffffff168173ffffffffffffffffffffffffffffffffffffffff161415620000ed576040517f08c379a00000000000000000000000000000000000000000000000000000000081526004018080602001828103825260198152602001807f61646d696e20616464726573732063616e6e6f7420626520300000000000000081525060200191505060405180910390fd5b806000806101000a81548173ffffffffffffffffffffffffffffffffffffffff021916908373ffffffffffffffffffffffffffffffffffffffff1602179055507f7e644d79422f17c01e4894b5f4f588d331ebfa28653d42ae832dc59e38c9798f600082604051808373ffffffffffffffffffffffffffffffffffffffff1681526020018273ffffffffffffffffffffffffffffffffffffffff1681526020019250505060405180910390a1506000600160146101000a81548160ff0219169083151502179055505061478480620001c66000396000f3fe6080604052600436106101405760003560e01c8063629c52a9116100b6578063c08f73b61161006f578063c08f73b6146106c1578063c19bff311461071c578063f563feec14610777578063f72d5426146107dc578063f851a44014610977578063ff06a5d4146109b857610140565b8063629c52a9146104515780636c8381f81461047c57806375f93fa8146104bd5780637e2748f6146104e857806390f1f17b146105d6578063acb0c6041461065257610140565b806325971dff1161010857806325971dff146102b057806342fc00f4146102c757806351260791146102e7578063592315d11461034c5780635a5f14c8146103d35780635c975abb1461042457610140565b806307880b7f14610145578063140eb9f814610196578063169e02fc146101d357806316c38b3c1461022457806317fd1d8014610261575b600080fd5b34801561015157600080fd5b506101946004803603602081101561016857600080fd5b81019080803573ffffffffffffffffffffffffffffffffffffffff169060200190929190505050610a27565b005b3480156101a257600080fd5b506101d1600480360360208110156101b957600080fd5b81019080803515159060200190929190505050610bc4565b005b3480156101df57600080fd5b5061020c600480360360208110156101f657600080fd5b8101908080359060200190929190505050610c87565b60405180821515815260200191505060405180910390f35b34801561023057600080fd5b5061025f6004803603602081101561024757600080fd5b810190808035151590602001909291905050506111c8565b005b34801561026d57600080fd5b5061029a6004803603602081101561028457600080fd5b810190808035906020019092919050505061128b565b6040518082815260200191505060405180910390f35b3480156102bc57600080fd5b506102c56112ac565b005b6102cf611485565b60405180821515815260200191505060405180910390f35b3480156102f357600080fd5b506103366004803603602081101561030a57600080fd5b81019080803573ffffffffffffffffffffffffffffffffffffffff169060200190929190505050611788565b6040518082815260200191505060405180910390f35b34801561035857600080fd5b506103bb6004803603608081101561036f57600080fd5b8101908080359060200190929190803573ffffffffffffffffffffffffffffffffffffffff16906020019092919080359060200190929190803515159060200190929190505050611b35565b60405180821515815260200191505060405180910390f35b3480156103df57600080fd5b50610422600480360360208110156103f657600080fd5b81019080803573ffffffffffffffffffffffffffffffffffffffff169060200190929190505050611bf2565b005b34801561043057600080fd5b5061043961236c565b60405180821515815260200191505060405180910390f35b34801561045d57600080fd5b50610466612383565b6040518082815260200191505060405180910390f35b34801561048857600080fd5b50610491612389565b604051808273ffffffffffffffffffffffffffffffffffffffff16815260200191505060405180910390f35b3480156104c957600080fd5b506104d26123af565b6040518082815260200191505060405180910390f35b3480156104f457600080fd5b506105376004803603602081101561050b57600080fd5b81019080803573ffffffffffffffffffffffffffffffffffffffff1690602001909291905050506125fa565b604051808060200180602001838103835285818151815260200191508051906020019060200280838360005b8381101561057e578082015181840152602081019050610563565b50505050905001838103825284818151815260200191508051906020019060200280838360005b838110156105c05780820151818401526020810190506105a5565b5050505090500194505050505060405180910390f35b3480156105e257600080fd5b5061060f600480360360208110156105f957600080fd5b8101908080359060200190929190505050612921565b604051808573ffffffffffffffffffffffffffffffffffffffff168152602001848152602001838152602001821515815260200194505050505060405180910390f35b34801561065e57600080fd5b506106ab6004803603604081101561067557600080fd5b81019080803573ffffffffffffffffffffffffffffffffffffffff1690602001909291908035906020019092919050505061297e565b6040518082815260200191505060405180910390f35b3480156106cd57600080fd5b50610704600480360360408110156106e457600080fd5b8101908080359060200190929190803590602001909291905050506129a9565b60405180821515815260200191505060405180910390f35b34801561072857600080fd5b5061075f6004803603604081101561073f57600080fd5b8101908080359060200190929190803590602001909291905050506130eb565b60405180821515815260200191505060405180910390f35b34801561078357600080fd5b506107c66004803603602081101561079a57600080fd5b81019080803573ffffffffffffffffffffffffffffffffffffffff169060200190929190505050613640565b6040518082815260200191505060405180910390f35b3480156107e857600080fd5b5061095f600480360360808110156107ff57600080fd5b810190808035906020019064010000000081111561081c57600080fd5b82018360208201111561082e57600080fd5b8035906020019184602083028401116401000000008311171561085057600080fd5b90919293919293908035906020019064010000000081111561087157600080fd5b82018360208201111561088357600080fd5b803590602001918460208302840111640100000000831117156108a557600080fd5b9091929391929390803590602001906401000000008111156108c657600080fd5b8201836020820111156108d857600080fd5b803590602001918460208302840111640100000000831117156108fa57600080fd5b90919293919293908035906020019064010000000081111561091b57600080fd5b82018360208201111561092d57600080fd5b8035906020019184602083028401116401000000008311171561094f57600080fd5b90919293919293905050506138d2565b60405180821515815260200191505060405180910390f35b34801561098357600080fd5b5061098c613b83565b604051808273ffffffffffffffffffffffffffffffffffffffff16815260200191505060405180910390f35b3480156109c457600080fd5b50610a11600480360360408110156109db57600080fd5b81019080803573ffffffffffffffffffffffffffffffffffffffff16906020019092919080359060200190929190505050613ba7565b6040518082815260200191505060405180910390f35b60008054906101000a900473ffffffffffffffffffffffffffffffffffffffff1673ffffffffffffffffffffffffffffffffffffffff163373ffffffffffffffffffffffffffffffffffffffff1614610acb576040517f08c379a000000000000000000000000000000000000000000000000000000000815260040180806020018281038252602f8152602001806146a3602f913960400191505060405180910390fd5b6000600160009054906101000a900473ffffffffffffffffffffffffffffffffffffffff16905081600160006101000a81548173ffffffffffffffffffffffffffffffffffffffff021916908373ffffffffffffffffffffffffffffffffffffffff1602179055507f0faed18be9e8f4d4c05dfbcc80ea2c97a0be729614d766827778f60890c02cab81600160009054906101000a900473ffffffffffffffffffffffffffffffffffffffff16604051808373ffffffffffffffffffffffffffffffffffffffff1681526020018273ffffffffffffffffffffffffffffffffffffffff1681526020019250505060405180910390a15050565b60008054906101000a900473ffffffffffffffffffffffffffffffffffffffff1673ffffffffffffffffffffffffffffffffffffffff163373ffffffffffffffffffffffffffffffffffffffff1614610c68576040517f08c379a000000000000000000000000000000000000000000000000000000000815260040180806020018281038252602f8152602001806146a3602f913960400191505060405180910390fd5b8015610c7b57610c76613c05565b610c84565b610c83613cf8565b5b50565b6000600160149054906101000a900460ff1615610d0c576040517f08c379a00000000000000000000000000000000000000000000000000000000081526004018080602001828103825260108152602001807f5061757361626c653a207061757365640000000000000000000000000000000081525060200191505060405180910390fd5b6000339050600960008273ffffffffffffffffffffffffffffffffffffffff1673ffffffffffffffffffffffffffffffffffffffff16815260200190815260200160002060007f4554480000000000000000000000000000000000000000000000000000000000815260200190815260200160002060000154831115610ddd576040517f08c379a00000000000000000000000000000000000000000000000000000000081526004018080602001828103825260238152602001806146f56023913960400191505060405180910390fd5b60008311610e36576040517f08c379a00000000000000000000000000000000000000000000000000000000081526004018080602001828103825260238152602001806146d26023913960400191505060405180910390fd5b6000610e4182613640565b90506000610f25600260009054906101000a900473ffffffffffffffffffffffffffffffffffffffff1673ffffffffffffffffffffffffffffffffffffffff166331d98b3f7f45544800000000000000000000000000000000000000000000000000000000006040518263ffffffff1660e01b81526004018082815260200191505060206040518083038186803b158015610edb57600080fd5b505afa158015610eef573d6000803e3d6000fd5b505050506040513d6020811015610f0557600080fd5b810190808051906020019092919050505083613deb90919063ffffffff16565b905080851115610f80576040517f08c379a00000000000000000000000000000000000000000000000000000000081526004018080602001828103825260378152602001806147186037913960400191505060405180910390fd5b61100685600960008673ffffffffffffffffffffffffffffffffffffffff1673ffffffffffffffffffffffffffffffffffffffff16815260200190815260200160002060007f4554480000000000000000000000000000000000000000000000000000000000815260200190815260200160002060000154613e2190919063ffffffff16565b600960008573ffffffffffffffffffffffffffffffffffffffff1673ffffffffffffffffffffffffffffffffffffffff16815260200190815260200160002060007f45544800000000000000000000000000000000000000000000000000000000008152602001908152602001600020600001819055508273ffffffffffffffffffffffffffffffffffffffff166108fc869081150290604051600060405180830381858888f193505050501580156110c3573d6000803e3d6000fd5b507ffa659da0063f4e5cf39c3b6dae863e789ab69f82e82925c28cae633a81b2b65d837f455448000000000000000000000000000000000000000000000000000000000087600960008873ffffffffffffffffffffffffffffffffffffffff1673ffffffffffffffffffffffffffffffffffffffff16815260200190815260200160002060007f4554480000000000000000000000000000000000000000000000000000000000815260200190815260200160002060000154604051808573ffffffffffffffffffffffffffffffffffffffff16815260200184815260200183815260200182815260200194505050505060405180910390a160019350505050919050565b60008054906101000a900473ffffffffffffffffffffffffffffffffffffffff1673ffffffffffffffffffffffffffffffffffffffff163373ffffffffffffffffffffffffffffffffffffffff161461126c576040517f08c379a000000000000000000000000000000000000000000000000000000000815260040180806020018281038252602f8152602001806146a3602f913960400191505060405180910390fd5b801561127f5761127a613c05565b611288565b611287613cf8565b5b50565b6008818154811061129857fe5b906000526020600020016000915090505481565b600160009054906101000a900473ffffffffffffffffffffffffffffffffffffffff1673ffffffffffffffffffffffffffffffffffffffff163373ffffffffffffffffffffffffffffffffffffffff161461136f576040517f08c379a000000000000000000000000000000000000000000000000000000000815260040180806020018281038252601f8152602001807f4f6e6c792063616e6469646174652063616e206265636f6d652061646d696e0081525060200191505060405180910390fd5b60008060009054906101000a900473ffffffffffffffffffffffffffffffffffffffff169050600160009054906101000a900473ffffffffffffffffffffffffffffffffffffffff166000806101000a81548173ffffffffffffffffffffffffffffffffffffffff021916908373ffffffffffffffffffffffffffffffffffffffff1602179055507f7e644d79422f17c01e4894b5f4f588d331ebfa28653d42ae832dc59e38c9798f8160008054906101000a900473ffffffffffffffffffffffffffffffffffffffff16604051808373ffffffffffffffffffffffffffffffffffffffff1681526020018273ffffffffffffffffffffffffffffffffffffffff1681526020019250505060405180910390a150565b6000600160149054906101000a900460ff161561150a576040517f08c379a00000000000000000000000000000000000000000000000000000000081526004018080602001828103825260108152602001807f5061757361626c653a207061757365640000000000000000000000000000000081525060200191505060405180910390fd5b600033905060003490506000811161158a576040517f08c379a000000000000000000000000000000000000000000000000000000000815260040180806020018281038252601e8152602001807f45544820616d6f756e74206e656564206d6f7265207468616e207a65726f000081525060200191505060405180910390fd5b61161081600960008573ffffffffffffffffffffffffffffffffffffffff1673ffffffffffffffffffffffffffffffffffffffff16815260200190815260200160002060007f4554480000000000000000000000000000000000000000000000000000000000815260200190815260200160002060000154613e6b90919063ffffffff16565b600960008473ffffffffffffffffffffffffffffffffffffffff1673ffffffffffffffffffffffffffffffffffffffff16815260200190815260200160002060007f45544800000000000000000000000000000000000000000000000000000000008152602001908152602001600020600001819055507fe25398ee94a2ec2dde5992b338a76ddd3a7af4d596cf2d00feba7770b31de299827f455448000000000000000000000000000000000000000000000000000000000083600960008773ffffffffffffffffffffffffffffffffffffffff1673ffffffffffffffffffffffffffffffffffffffff16815260200190815260200160002060007f4554480000000000000000000000000000000000000000000000000000000000815260200190815260200160002060000154604051808573ffffffffffffffffffffffffffffffffffffffff16815260200184815260200183815260200182815260200194505050505060405180910390a160019250505090565b600080600090505b60088054905081101561194b576000600882815481106117ac57fe5b906000526020600020015490506000600960008673ffffffffffffffffffffffffffffffffffffffff1673ffffffffffffffffffffffffffffffffffffffff168152602001908152602001600020600083815260200190815260200160002060000154111561193d5761193a61192b600260009054906101000a900473ffffffffffffffffffffffffffffffffffffffff1673ffffffffffffffffffffffffffffffffffffffff166331d98b3f846040518263ffffffff1660e01b81526004018082815260200191505060206040518083038186803b15801561188e57600080fd5b505afa1580156118a2573d6000803e3d6000fd5b505050506040513d60208110156118b857600080fd5b8101908080519060200190929190505050600960008873ffffffffffffffffffffffffffffffffffffffff1673ffffffffffffffffffffffffffffffffffffffff168152602001908152602001600020600085815260200190815260200160002060000154613ef390919063ffffffff16565b84613e6b90919063ffffffff16565b92505b508080600101915050611790565b506000600960008473ffffffffffffffffffffffffffffffffffffffff1673ffffffffffffffffffffffffffffffffffffffff16815260200190815260200160002060007f45544800000000000000000000000000000000000000000000000000000000008152602001908152602001600020600001541115611b3057611b2d611b1e600260009054906101000a900473ffffffffffffffffffffffffffffffffffffffff1673ffffffffffffffffffffffffffffffffffffffff166331d98b3f7f45544800000000000000000000000000000000000000000000000000000000006040518263ffffffff1660e01b81526004018082815260200191505060206040518083038186803b158015611a6157600080fd5b505afa158015611a75573d6000803e3d6000fd5b505050506040513d6020811015611a8b57600080fd5b8101908080519060200190929190505050600960008673ffffffffffffffffffffffffffffffffffffffff1673ffffffffffffffffffffffffffffffffffffffff16815260200190815260200160002060007f4554480000000000000000000000000000000000000000000000000000000000815260200190815260200160002060000154613ef390919063ffffffff16565b82613e6b90919063ffffffff16565b90505b919050565b60008060009054906101000a900473ffffffffffffffffffffffffffffffffffffffff1673ffffffffffffffffffffffffffffffffffffffff163373ffffffffffffffffffffffffffffffffffffffff1614611bdc576040517f08c379a000000000000000000000000000000000000000000000000000000000815260040180806020018281038252602f8152602001806146a3602f913960400191505060405180910390fd5b611be885858585613f20565b9050949350505050565b60008054906101000a900473ffffffffffffffffffffffffffffffffffffffff1673ffffffffffffffffffffffffffffffffffffffff163373ffffffffffffffffffffffffffffffffffffffff1614611c96576040517f08c379a000000000000000000000000000000000000000000000000000000000815260040180806020018281038252602f8152602001806146a3602f913960400191505060405180910390fd5b8073ffffffffffffffffffffffffffffffffffffffff1663768911da6040518163ffffffff1660e01b815260040180807f4c6e507269636573000000000000000000000000000000000000000000000000815250602001806020018281038252601a8152602001807f4c6e5072696365732061646472657373206e6f742076616c696400000000000081525060200191505060206040518083038186803b158015611d4057600080fd5b505afa158015611d54573d6000803e3d6000fd5b505050506040513d6020811015611d6a57600080fd5b8101908080519060200190929190505050600260006101000a81548173ffffffffffffffffffffffffffffffffffffffff021916908373ffffffffffffffffffffffffffffffffffffffff1602179055508073ffffffffffffffffffffffffffffffffffffffff1663768911da6040518163ffffffff1660e01b815260040180807f4c6e4465627453797374656d0000000000000000000000000000000000000000815250602001806020018281038252601e8152602001807f4c6e4465627453797374656d2061646472657373206e6f742076616c6964000081525060200191505060206040518083038186803b158015611e6557600080fd5b505afa158015611e79573d6000803e3d6000fd5b505050506040513d6020811015611e8f57600080fd5b8101908080519060200190929190505050600360006101000a81548173ffffffffffffffffffffffffffffffffffffffff021916908373ffffffffffffffffffffffffffffffffffffffff1602179055508073ffffffffffffffffffffffffffffffffffffffff1663768911da6040518163ffffffff1660e01b815260040180807f4c6e4275696c644275726e53797374656d00000000000000000000000000000081525060200180602001828103825260238152602001806146806023913960400191505060206040518083038186803b158015611f6d57600080fd5b505afa158015611f81573d6000803e3d6000fd5b505050506040513d6020811015611f9757600080fd5b8101908080519060200190929190505050600460006101000a81548173ffffffffffffffffffffffffffffffffffffffff021916908373ffffffffffffffffffffffffffffffffffffffff1602179055508073ffffffffffffffffffffffffffffffffffffffff1663768911da6040518163ffffffff1660e01b815260040180807f4c6e436f6e666967000000000000000000000000000000000000000000000000815250602001806020018281038252601a8152602001807f4c6e436f6e6669672061646472657373206e6f742076616c696400000000000081525060200191505060206040518083038186803b15801561209257600080fd5b505afa1580156120a6573d6000803e3d6000fd5b505050506040513d60208110156120bc57600080fd5b8101908080519060200190929190505050600560006101000a81548173ffffffffffffffffffffffffffffffffffffffff021916908373ffffffffffffffffffffffffffffffffffffffff1602179055507f45a7f8d84f7ad724869d024abcaa743ae6aec455a969df76b5d1e9c5cac4d2ae600260009054906101000a900473ffffffffffffffffffffffffffffffffffffffff1660405180807f4c6e5072696365730000000000000000000000000000000000000000000000008152506020018273ffffffffffffffffffffffffffffffffffffffff16815260200191505060405180910390a17f45a7f8d84f7ad724869d024abcaa743ae6aec455a969df76b5d1e9c5cac4d2ae600360009054906101000a900473ffffffffffffffffffffffffffffffffffffffff1660405180807f4c6e4465627453797374656d00000000000000000000000000000000000000008152506020018273ffffffffffffffffffffffffffffffffffffffff16815260200191505060405180910390a17f45a7f8d84f7ad724869d024abcaa743ae6aec455a969df76b5d1e9c5cac4d2ae600460009054906101000a900473ffffffffffffffffffffffffffffffffffffffff1660405180807f4c6e4275696c644275726e53797374656d0000000000000000000000000000008152506020018273ffffffffffffffffffffffffffffffffffffffff16815260200191505060405180910390a17f45a7f8d84f7ad724869d024abcaa743ae6aec455a969df76b5d1e9c5cac4d2ae600560009054906101000a900473ffffffffffffffffffffffffffffffffffffffff1660405180807f4c6e436f6e6669670000000000000000000000000000000000000000000000008152506020018273ffffffffffffffffffffffffffffffffffffffff16815260200191505060405180910390a150565b6000600160149054906101000a900460ff16905090565b60065481565b600160009054906101000a900473ffffffffffffffffffffffffffffffffffffffff1681565b600080600090505b6008805490508110156124f8576000600882815481106123d357fe5b906000526020600020015490506000600760008381526020019081526020016000206002015411156124ea576124e76124d8600260009054906101000a900473ffffffffffffffffffffffffffffffffffffffff1673ffffffffffffffffffffffffffffffffffffffff166331d98b3f846040518263ffffffff1660e01b81526004018082815260200191505060206040518083038186803b15801561247857600080fd5b505afa15801561248c573d6000803e3d6000fd5b505050506040513d60208110156124a257600080fd5b81019080805190602001909291905050506007600085815260200190815260200160002060020154613ef390919063ffffffff16565b84613e6b90919063ffffffff16565b92505b5080806001019150506123b7565b5060004711156125f7576125f46125e5600260009054906101000a900473ffffffffffffffffffffffffffffffffffffffff1673ffffffffffffffffffffffffffffffffffffffff166331d98b3f7f45544800000000000000000000000000000000000000000000000000000000006040518263ffffffff1660e01b81526004018082815260200191505060206040518083038186803b15801561259b57600080fd5b505afa1580156125af573d6000803e3d6000fd5b505050506040513d60208110156125c557600080fd5b810190808051906020019092919050505047613ef390919063ffffffff16565b82613e6b90919063ffffffff16565b90505b90565b606080606060016008805490500167ffffffffffffffff8111801561261e57600080fd5b5060405190808252806020026020018201604052801561264d5781602001602082028036833780820191505090505b509050606060016008805490500167ffffffffffffffff8111801561267157600080fd5b506040519080825280602002602001820160405280156126a05781602001602082028036833780820191505090505b5090506000805b6008805490508110156127c8576000600882815481106126c357fe5b906000526020600020015490506000600960008a73ffffffffffffffffffffffffffffffffffffffff1673ffffffffffffffffffffffffffffffffffffffff16815260200190815260200160002060008381526020019081526020016000206000015411156127ba578085848151811061273957fe5b602002602001018181525050600960008973ffffffffffffffffffffffffffffffffffffffff1673ffffffffffffffffffffffffffffffffffffffff1681526020019081526020016000206000828152602001908152602001600020600001548484815181106127a557fe5b60200260200101818152505082806001019350505b5080806001019150506126a7565b506000600960008873ffffffffffffffffffffffffffffffffffffffff1673ffffffffffffffffffffffffffffffffffffffff16815260200190815260200160002060007f45544800000000000000000000000000000000000000000000000000000000008152602001908152602001600020600001541115612913577f455448000000000000000000000000000000000000000000000000000000000083828151811061287257fe5b602002602001018181525050600960008773ffffffffffffffffffffffffffffffffffffffff1673ffffffffffffffffffffffffffffffffffffffff16815260200190815260200160002060007f45544800000000000000000000000000000000000000000000000000000000008152602001908152602001600020600001548282815181106128fe57fe5b60200260200101818152505080806001019150505b828294509450505050915091565b60076020528060005260406000206000915090508060000160009054906101000a900473ffffffffffffffffffffffffffffffffffffffff16908060010154908060020154908060030160009054906101000a900460ff16905084565b6009602052816000526040600020602052806000526040600020600091509150508060000154905081565b6000600160149054906101000a900460ff1615612a2e576040517f08c379a00000000000000000000000000000000000000000000000000000000081526004018080602001828103825260108152602001807f5061757361626c653a207061757365640000000000000000000000000000000081525060200191505060405180910390fd5b612a836007600085815260200190815260200160002060000160009054906101000a900473ffffffffffffffffffffffffffffffffffffffff1673ffffffffffffffffffffffffffffffffffffffff16614385565b612af5576040517f08c379a00000000000000000000000000000000000000000000000000000000081526004018080602001828103825260148152602001807f496e76616c696420746f6b656e2073796d626f6c00000000000000000000000081525060200191505060405180910390fd5b600060076000858152602001908152602001600020905080600101548311612b85576040517f08c379a000000000000000000000000000000000000000000000000000000000815260040180806020018281038252601b8152602001807f436f6c6c61746572616c20616d6f756e7420746f6f20736d616c6c000000000081525060200191505060405180910390fd5b600015158160030160009054906101000a900460ff16151514612c10576040517f08c379a00000000000000000000000000000000000000000000000000000000081526004018080602001828103825260148152602001807f5468697320746f6b656e20697320636c6f73656400000000000000000000000081525060200191505060405180910390fd5b600033905060006007600087815260200190815260200160002060000160009054906101000a900473ffffffffffffffffffffffffffffffffffffffff169050848173ffffffffffffffffffffffffffffffffffffffff166370a08231846040518263ffffffff1660e01b8152600401808273ffffffffffffffffffffffffffffffffffffffff16815260200191505060206040518083038186803b158015612cb857600080fd5b505afa158015612ccc573d6000803e3d6000fd5b505050506040513d6020811015612ce257600080fd5b81019080805190602001909291905050501015612d67576040517f08c379a00000000000000000000000000000000000000000000000000000000081526004018080602001828103825260148152602001807f696e73756666696369656e742062616c616e636500000000000000000000000081525060200191505060405180910390fd5b848173ffffffffffffffffffffffffffffffffffffffff1663dd62ed3e84306040518363ffffffff1660e01b8152600401808373ffffffffffffffffffffffffffffffffffffffff1681526020018273ffffffffffffffffffffffffffffffffffffffff1681526020019250505060206040518083038186803b158015612ded57600080fd5b505afa158015612e01573d6000803e3d6000fd5b505050506040513d6020811015612e1757600080fd5b81019080805190602001909291905050501015612e7f576040517f08c379a000000000000000000000000000000000000000000000000000000000815260040180806020018281038252603081526020018061462f6030913960400191505060405180910390fd5b8073ffffffffffffffffffffffffffffffffffffffff166323b872dd8330886040518463ffffffff1660e01b8152600401808473ffffffffffffffffffffffffffffffffffffffff1681526020018373ffffffffffffffffffffffffffffffffffffffff1681526020018281526020019350505050602060405180830381600087803b158015612f0e57600080fd5b505af1158015612f22573d6000803e3d6000fd5b505050506040513d6020811015612f3857600080fd5b810190808051906020019092919050505050612fb085600960008573ffffffffffffffffffffffffffffffffffffffff1673ffffffffffffffffffffffffffffffffffffffff168152602001908152602001600020600089815260200190815260200160002060000154613e6b90919063ffffffff16565b600960008473ffffffffffffffffffffffffffffffffffffffff1673ffffffffffffffffffffffffffffffffffffffff16815260200190815260200160002060008881526020019081526020016000206000018190555061301e858460020154613e6b90919063ffffffff16565b83600201819055507fe25398ee94a2ec2dde5992b338a76ddd3a7af4d596cf2d00feba7770b31de299828787600960008773ffffffffffffffffffffffffffffffffffffffff1673ffffffffffffffffffffffffffffffffffffffff16815260200190815260200160002060008b815260200190815260200160002060000154604051808573ffffffffffffffffffffffffffffffffffffffff16815260200184815260200183815260200182815260200194505050505060405180910390a16001935050505092915050565b6000600160149054906101000a900460ff1615613170576040517f08c379a00000000000000000000000000000000000000000000000000000000081526004018080602001828103825260108152602001807f5061757361626c653a207061757365640000000000000000000000000000000081525060200191505060405180910390fd5b6000339050600960008273ffffffffffffffffffffffffffffffffffffffff1673ffffffffffffffffffffffffffffffffffffffff168152602001908152602001600020600085815260200190815260200160002060000154831115613221576040517f08c379a00000000000000000000000000000000000000000000000000000000081526004018080602001828103825260238152602001806146f56023913960400191505060405180910390fd5b6000831161327a576040517f08c379a00000000000000000000000000000000000000000000000000000000081526004018080602001828103825260238152602001806146d26023913960400191505060405180910390fd5b600061328582613640565b90506000613349600260009054906101000a900473ffffffffffffffffffffffffffffffffffffffff1673ffffffffffffffffffffffffffffffffffffffff166331d98b3f886040518263ffffffff1660e01b81526004018082815260200191505060206040518083038186803b1580156132ff57600080fd5b505afa158015613313573d6000803e3d6000fd5b505050506040513d602081101561332957600080fd5b810190808051906020019092919050505083613deb90919063ffffffff16565b9050808511156133a4576040517f08c379a00000000000000000000000000000000000000000000000000000000081526004018080602001828103825260378152602001806147186037913960400191505060405180910390fd5b61340a85600960008673ffffffffffffffffffffffffffffffffffffffff1673ffffffffffffffffffffffffffffffffffffffff168152602001908152602001600020600089815260200190815260200160002060000154613e2190919063ffffffff16565b600960008573ffffffffffffffffffffffffffffffffffffffff1673ffffffffffffffffffffffffffffffffffffffff168152602001908152602001600020600088815260200190815260200160002060000181905550600060076000888152602001908152602001600020905061348f868260020154613e2190919063ffffffff16565b81600201819055506007600088815260200190815260200160002060000160009054906101000a900473ffffffffffffffffffffffffffffffffffffffff1673ffffffffffffffffffffffffffffffffffffffff1663a9059cbb85886040518363ffffffff1660e01b8152600401808373ffffffffffffffffffffffffffffffffffffffff16815260200182815260200192505050602060405180830381600087803b15801561353e57600080fd5b505af1158015613552573d6000803e3d6000fd5b505050506040513d602081101561356857600080fd5b8101908080519060200190929190505050507ffa659da0063f4e5cf39c3b6dae863e789ab69f82e82925c28cae633a81b2b65d848888600960008973ffffffffffffffffffffffffffffffffffffffff1673ffffffffffffffffffffffffffffffffffffffff16815260200190815260200160002060008c815260200190815260200160002060000154604051808573ffffffffffffffffffffffffffffffffffffffff16815260200184815260200183815260200182815260200194505050505060405180910390a1600194505050505092915050565b60008061364c83611788565b90506000600360009054906101000a900473ffffffffffffffffffffffffffffffffffffffff1673ffffffffffffffffffffffffffffffffffffffff16631882d090856040518263ffffffff1660e01b8152600401808273ffffffffffffffffffffffffffffffffffffffff168152602001915050604080518083038186803b1580156136d857600080fd5b505afa1580156136ec573d6000803e3d6000fd5b505050506040513d604081101561370257600080fd5b81019080805190602001909291908051906020019092919050505050905060008114156137335781925050506138cd565b6000600560009054906101000a900473ffffffffffffffffffffffffffffffffffffffff1673ffffffffffffffffffffffffffffffffffffffff1663bd02d0f5600560009054906101000a900473ffffffffffffffffffffffffffffffffffffffff1673ffffffffffffffffffffffffffffffffffffffff16634d6daf046040518163ffffffff1660e01b815260040160206040518083038186803b1580156137db57600080fd5b505afa1580156137ef573d6000803e3d6000fd5b505050506040513d602081101561380557600080fd5b81019080805190602001909291905050506040518263ffffffff1660e01b81526004018082815260200191505060206040518083038186803b15801561384a57600080fd5b505afa15801561385e573d6000803e3d6000fd5b505050506040513d602081101561387457600080fd5b81019080805190602001909291905050509050600061389c8284613deb90919063ffffffff16565b9050808410156138b35760009450505050506138cd565b6138c68185613e2190919063ffffffff16565b9450505050505b919050565b60008060009054906101000a900473ffffffffffffffffffffffffffffffffffffffff1673ffffffffffffffffffffffffffffffffffffffff163373ffffffffffffffffffffffffffffffffffffffff1614613979576040517f08c379a000000000000000000000000000000000000000000000000000000000815260040180806020018281038252602f8152602001806146a3602f913960400191505060405180910390fd5b8686905089899050146139f4576040517f08c379a00000000000000000000000000000000000000000000000000000000081526004018080602001828103825260168152602001807f6c656e677468206f66206172726179206e6f742065710000000000000000000081525060200191505060405180910390fd5b848490508989905014613a6f576040517f08c379a00000000000000000000000000000000000000000000000000000000081526004018080602001828103825260168152602001807f6c656e677468206f66206172726179206e6f742065710000000000000000000081525060200191505060405180910390fd5b828290508989905014613aea576040517f08c379a00000000000000000000000000000000000000000000000000000000081526004018080602001828103825260168152602001807f6c656e677468206f66206172726179206e6f742065710000000000000000000081525060200191505060405180910390fd5b60005b89899050811015613b7257613b648a8a83818110613b0757fe5b90506020020135898984818110613b1a57fe5b9050602002013573ffffffffffffffffffffffffffffffffffffffff16888885818110613b4357fe5b90506020020135878786818110613b5657fe5b905060200201351515613f20565b508080600101915050613aed565b506001905098975050505050505050565b60008054906101000a900473ffffffffffffffffffffffffffffffffffffffff1681565b6000600960008473ffffffffffffffffffffffffffffffffffffffff1673ffffffffffffffffffffffffffffffffffffffff168152602001908152602001600020600083815260200190815260200160002060000154905092915050565b600160149054906101000a900460ff1615613c88576040517f08c379a00000000000000000000000000000000000000000000000000000000081526004018080602001828103825260108152602001807f5061757361626c653a207061757365640000000000000000000000000000000081525060200191505060405180910390fd5b60018060146101000a81548160ff0219169083151502179055507f62e78cea01bee320cd4e420270b5ea74000d11b0c9f74754ebdbfc544b05a258613ccb6143d0565b604051808273ffffffffffffffffffffffffffffffffffffffff16815260200191505060405180910390a1565b600160149054906101000a900460ff16613d7a576040517f08c379a00000000000000000000000000000000000000000000000000000000081526004018080602001828103825260148152602001807f5061757361626c653a206e6f742070617573656400000000000000000000000081525060200191505060405180910390fd5b6000600160146101000a81548160ff0219169083151502179055507f5db9ee0a495bf2e6ff9c91a7834c1ba4fdd244a5e8aa4e537bd38aeae4b073aa613dbe6143d0565b604051808273ffffffffffffffffffffffffffffffffffffffff16815260200191505060405180910390a1565b6000613e1982613e0b601260ff16600a0a866143d890919063ffffffff16565b61445e90919063ffffffff16565b905092915050565b6000613e6383836040518060400160405280601e81526020017f536166654d6174683a207375627472616374696f6e206f766572666c6f7700008152506144a8565b905092915050565b600080828401905083811015613ee9576040517f08c379a000000000000000000000000000000000000000000000000000000000815260040180806020018281038252601b8152602001807f536166654d6174683a206164646974696f6e206f766572666c6f77000000000081525060200191505060405180910390fd5b8091505092915050565b6000601260ff16600a0a613f1083856143d890919063ffffffff16565b81613f1757fe5b04905092915050565b60008060f81b85600060208110613f3357fe5b1a60f81b7effffffffffffffffffffffffffffffffffffffffffffffffffffffffffffff19161415613fcd576040517f08c379a00000000000000000000000000000000000000000000000000000000081526004018080602001828103825260138152602001807f73796d626f6c2063616e6e6f7420656d7074790000000000000000000000000081525060200191505060405180910390fd5b7f4554480000000000000000000000000000000000000000000000000000000000851415614063576040517f08c379a00000000000000000000000000000000000000000000000000000000081526004018080602001828103825260158152602001807f45544820697320757365642062792073797374656d000000000000000000000081525060200191505060405180910390fd5b600073ffffffffffffffffffffffffffffffffffffffff168473ffffffffffffffffffffffffffffffffffffffff161415614106576040517f08c379a00000000000000000000000000000000000000000000000000000000081526004018080602001828103825260198152602001807f746f6b656e20616464726573732063616e6e6f74207a65726f0000000000000081525060200191505060405180910390fd5b6141258473ffffffffffffffffffffffffffffffffffffffff16614385565b614197576040517f08c379a000000000000000000000000000000000000000000000000000000000815260040180806020018281038252601f8152602001807f746f6b656e2061646472657373206973206e6f74206120636f6e74726163740081525060200191505060405180910390fd5b600073ffffffffffffffffffffffffffffffffffffffff166007600087815260200190815260200160002060000160009054906101000a900473ffffffffffffffffffffffffffffffffffffffff1673ffffffffffffffffffffffffffffffffffffffff16141561422c5760088590806001815401808255809150506001900390600052602060002001600090919091909150555b60006007600087815260200190815260200160002060020154905060405180608001604052808673ffffffffffffffffffffffffffffffffffffffff1681526020018581526020018281526020018415158152506007600088815260200190815260200160002060008201518160000160006101000a81548173ffffffffffffffffffffffffffffffffffffffff021916908373ffffffffffffffffffffffffffffffffffffffff160217905550602082015181600101556040820151816002015560608201518160030160006101000a81548160ff0219169083151502179055509050507fb8ccd92c8fb24731fb4c076a82ecc0f1ff41af213ec928f550aa42fa8e5aee8c86868686604051808581526020018473ffffffffffffffffffffffffffffffffffffffff168152602001838152602001821515815260200194505050505060405180910390a16001915050949350505050565b60008060007fc5d2460186f7233c927e7db2dcc703c0e500b653ca82273b7bfad8045d85a47060001b9050833f91508082141580156143c757506000801b8214155b92505050919050565b600033905090565b6000808314156143eb5760009050614458565b60008284029050828482816143fc57fe5b0414614453576040517f08c379a000000000000000000000000000000000000000000000000000000000815260040180806020018281038252602181526020018061465f6021913960400191505060405180910390fd5b809150505b92915050565b60006144a083836040518060400160405280601a81526020017f536166654d6174683a206469766973696f6e206279207a65726f000000000000815250614568565b905092915050565b6000838311158290614555576040517f08c379a00000000000000000000000000000000000000000000000000000000081526004018080602001828103825283818151815260200191508051906020019080838360005b8381101561451a5780820151818401526020810190506144ff565b50505050905090810190601f1680156145475780820380516001836020036101000a031916815260200191505b509250505060405180910390fd5b5060008385039050809150509392505050565b60008083118290614614576040517f08c379a00000000000000000000000000000000000000000000000000000000081526004018080602001828103825283818151815260200191508051906020019080838360005b838110156145d95780820151818401526020810190506145be565b50505050905090810190601f1680156146065780820380516001836020036101000a031916815260200191505b509250505060405180910390fd5b50600083858161462057fe5b04905080915050939250505056fe696e73756666696369656e7420616c6c6f77616e63652c206e65656420617070726f7665206d6f726520616d6f756e74536166654d6174683a206d756c7469706c69636174696f6e206f766572666c6f774c6e4275696c644275726e53797374656d2061646472657373206e6f742076616c69644f6e6c792074686520636f6e74726163742061646d696e2063616e20706572666f726d207468697320616374696f6e52656465656d20616d6f756e74206e656564206c6172676572207468616e207a65726f43616e206e6f742072656465656d206d6f7265207468616e20636f6c6c61746572616c42656361757365206c6f77657220636f6c6c61746572616c20726174696f2c2063616e206e6f742072656465656d20746f6f206d756368a2646970667358221220359c66813b033c65ad15d41c9b6c2f460f89ca779b47276c86042f06cf92959264736f6c634300060c0033",
  "immutableReferences": {},
  "source": "// SPDX-License-Identifier: MIT\r\npragma solidity ^0.6.12;\r\n\r\nimport \"./IERC20.sol\";\r\nimport \"./LnAdmin.sol\";\r\nimport \"@openzeppelin/contracts/math/SafeMath.sol\";\r\nimport \"@openzeppelin/contracts/utils/Pausable.sol\";\r\nimport \"@openzeppelin/contracts/utils/Address.sol\";\r\nimport \"./SafeDecimalMath.sol\";\r\nimport \"./LnPrices.sol\";\r\nimport \"./LnAddressCache.sol\";\r\nimport \"./LnDebtSystem.sol\";\r\nimport \"./LnBuildBurnSystem.sol\";\r\nimport \"./LnConfig.sol\";\r\n\r\n// \r\n//   \r\ncontract LnCollateralSystem is LnAdmin, Pausable, LnAddressCache {\r\n    using SafeMath for uint;\r\n    using SafeDecimalMath for uint;\r\n    using Address for address;\r\n\r\n    // -------------------------------------------------------\r\n    // need set before system running value.\r\n    LnPrices private priceGetter;\r\n    LnDebtSystem private debtSystem;\r\n    LnBuildBurnSystem private buildBurnSystem;\r\n    LnConfig private mConfig;\r\n\r\n    bytes32 constant Currency_ETH = \"ETH\";\r\n    \r\n    // -------------------------------------------------------\r\n    uint256 public uniqueId; // use log\r\n\r\n    struct TokenInfo {\r\n        address tokenAddr;\r\n        uint256 minCollateral; // min collateral amount.\r\n        uint256 totalCollateral;\r\n        bool bClose; // TODO : ?\r\n    }\r\n\r\n    mapping (bytes32 => TokenInfo) public tokenInfos;\r\n    bytes32[] public tokenSymbol; // keys of tokenInfos, use to iteration\r\n\r\n    struct CollateralData {\r\n        uint256 collateral; // total collateral\r\n    }\r\n\r\n    // [user] => ([token=> collateraldata])\r\n    mapping (address => mapping(bytes32 => CollateralData)) public userCollateralData;\r\n\r\n    // -------------------------------------------------------\r\n    constructor(address admin) public LnAdmin(admin) {\r\n    }\r\n\r\n    function setPaused(bool _paused) external onlyAdmin {\r\n        if (_paused) {\r\n            _pause();\r\n        } else {\r\n            _unpause();\r\n        }\r\n    }\r\n    // ------------------ system config ----------------------\r\n    function updateAddressCache( LnAddressStorage _addressStorage ) onlyAdmin public override\r\n    {\r\n        priceGetter =     LnPrices(         _addressStorage.getAddressWithRequire( \"LnPrices\",          \"LnPrices address not valid\" ));\r\n        debtSystem =      LnDebtSystem(     _addressStorage.getAddressWithRequire( \"LnDebtSystem\",      \"LnDebtSystem address not valid\" ));\r\n        buildBurnSystem = LnBuildBurnSystem(_addressStorage.getAddressWithRequire( \"LnBuildBurnSystem\", \"LnBuildBurnSystem address not valid\" ));\r\n        mConfig =         LnConfig(         _addressStorage.getAddressWithRequire( \"LnConfig\",          \"LnConfig address not valid\" ) );\r\n\r\n        emit updateCachedAddress( \"LnPrices\",          address(priceGetter) );\r\n        emit updateCachedAddress( \"LnDebtSystem\",      address(debtSystem) );\r\n        emit updateCachedAddress( \"LnBuildBurnSystem\", address(buildBurnSystem) );\r\n        emit updateCachedAddress( \"LnConfig\",          address(mConfig) );\r\n    }\r\n\r\n    function SetPause(bool pause) external onlyAdmin {\r\n        if (pause) {\r\n            _pause();\r\n        } else {\r\n            _unpause();\r\n        }\r\n    }\r\n\r\n    function updateTokenInfo(bytes32 _currency, address _tokenAddr, uint256 _minCollateral, bool _close) private returns (bool) {\r\n        require(_currency[0] != 0, \"symbol cannot empty\");\r\n        require(_currency != Currency_ETH, \"ETH is used by system\");\r\n        require(_tokenAddr != address(0), \"token address cannot zero\");\r\n        require(_tokenAddr.isContract(), \"token address is not a contract\");\r\n\r\n        if (tokenInfos[_currency].tokenAddr == address(0)) {// new token\r\n            tokenSymbol.push(_currency);\r\n        }\r\n\r\n        uint256 totalCollateral = tokenInfos[_currency].totalCollateral;\r\n        tokenInfos[_currency] = TokenInfo({tokenAddr:_tokenAddr, minCollateral:_minCollateral, totalCollateral:totalCollateral, bClose:_close});\r\n        emit UpdateTokenSetting(_currency, _tokenAddr, _minCollateral, _close);\r\n        return true;\r\n    }\r\n\r\n    // delete token info? need to handle it's staking data.\r\n\r\n    function UpdateTokenInfo(bytes32 _currency, address _tokenAddr, uint256 _minCollateral, bool _close) external onlyAdmin returns (bool) {\r\n        return updateTokenInfo(_currency, _tokenAddr, _minCollateral, _close);\r\n    }\r\n\r\n    function UpdateTokenInfos(bytes32[] calldata _symbols, address[] calldata _tokenAddrs, uint256[] calldata _minCollateral, bool[] calldata _closes) external onlyAdmin returns (bool) {\r\n        require(_symbols.length == _tokenAddrs.length, \"length of array not eq\");\r\n        require(_symbols.length == _minCollateral.length, \"length of array not eq\");\r\n        require(_symbols.length == _closes.length, \"length of array not eq\");\r\n\r\n        for (uint256 i=0; i < _symbols.length; i++) {\r\n            updateTokenInfo(_symbols[i], _tokenAddrs[i], _minCollateral[i], _closes[i]);\r\n        }\r\n\r\n        return true;\r\n    }\r\n\r\n    // ------------------------------------------------------------------------\r\n    function GetSystemTotalCollateralInUsd() public view returns (uint256 rTotal) {\r\n        for (uint256 i=0; i< tokenSymbol.length; i++) {\r\n            bytes32 currency = tokenSymbol[i];\r\n            if (tokenInfos[currency].totalCollateral > 0) { // this check for avoid calling getPrice when collateral is zero\r\n                rTotal = rTotal.add( tokenInfos[currency].totalCollateral.multiplyDecimal(priceGetter.getPrice(currency)) );\r\n            }\r\n        }\r\n\r\n        if (address(this).balance > 0) {\r\n            rTotal = rTotal.add(address(this).balance.multiplyDecimal(priceGetter.getPrice(Currency_ETH)));\r\n        }\r\n    }\r\n\r\n    function GetUserTotalCollateralInUsd(address _user) public view returns (uint256 rTotal) {\r\n        for (uint256 i=0; i< tokenSymbol.length; i++) {\r\n            bytes32 currency = tokenSymbol[i];\r\n            if (userCollateralData[_user][currency].collateral > 0) {\r\n                rTotal = rTotal.add( userCollateralData[_user][currency].collateral.multiplyDecimal(priceGetter.getPrice(currency)) );\r\n            }\r\n        }\r\n\r\n        if (userCollateralData[_user][Currency_ETH].collateral > 0) {\r\n            rTotal = rTotal.add( userCollateralData[_user][Currency_ETH].collateral.multiplyDecimal(priceGetter.getPrice(Currency_ETH)) );\r\n        }\r\n    }\r\n\r\n    function GetUserCollateral(address _user, bytes32 _currency) external view returns (uint256) {\r\n        return userCollateralData[_user][_currency].collateral;\r\n    }\r\n\r\n    function GetUserCollaterals(address _user) external view returns (bytes32[] memory, uint256[] memory) {\r\n        bytes32[] memory rCurrency = new bytes32[](tokenSymbol.length + 1);\r\n        uint256[] memory rAmount = new uint256[](tokenSymbol.length + 1);\r\n        uint256 retSize = 0;\r\n        for (uint256 i=0; i < tokenSymbol.length; i++) {\r\n            bytes32 currency = tokenSymbol[i];\r\n            if (userCollateralData[_user][currency].collateral > 0) {\r\n                rCurrency[retSize] = currency;\r\n                rAmount[retSize] = userCollateralData[_user][currency].collateral;\r\n                retSize++;\r\n            }\r\n        }\r\n        if (userCollateralData[_user][Currency_ETH].collateral > 0) {\r\n            rCurrency[retSize] = Currency_ETH;\r\n            rAmount[retSize] = userCollateralData[_user][Currency_ETH].collateral;\r\n            retSize++;\r\n        }\r\n\r\n        return (rCurrency, rAmount); \r\n    }\r\n\r\n    // need approve\r\n    function Collateral(bytes32 _currency, uint256 _amount) external whenNotPaused returns (bool) {\r\n        require(tokenInfos[_currency].tokenAddr.isContract(), \"Invalid token symbol\");\r\n        TokenInfo storage tokeninfo = tokenInfos[_currency];\r\n        require(_amount > tokeninfo.minCollateral, \"Collateral amount too small\");\r\n        require(tokeninfo.bClose == false, \"This token is closed\");\r\n\r\n        address user = msg.sender;\r\n\r\n        IERC20 erc20 = IERC20(tokenInfos[_currency].tokenAddr);\r\n        require(erc20.balanceOf(user) >= _amount, \"insufficient balance\");\r\n        require(erc20.allowance(user, address(this)) >= _amount, \"insufficient allowance, need approve more amount\");\r\n\r\n        erc20.transferFrom(user, address(this), _amount);\r\n\r\n        userCollateralData[user][_currency].collateral = userCollateralData[user][_currency].collateral.add(_amount);\r\n        tokeninfo.totalCollateral = tokeninfo.totalCollateral.add(_amount);\r\n\r\n        emit CollateralLog(user, _currency, _amount, userCollateralData[user][_currency].collateral);\r\n        return true;\r\n    }\r\n\r\n    //  TODO: return multi value\r\n    function MaxRedeemableInUsd(address _user) public view returns (uint256) {\r\n        uint256 totalCollateralInUsd = GetUserTotalCollateralInUsd(_user);\r\n        \r\n        (uint256 debtBalance, ) = debtSystem.GetUserDebtBalanceInUsd(_user);\r\n        if (debtBalance == 0) {\r\n            return totalCollateralInUsd;\r\n        }\r\n\r\n        uint256 buildRatio = mConfig.getUint(mConfig.BUILD_RATIO());\r\n        uint256 minCollateral = debtBalance.divideDecimal(buildRatio);\r\n        if (totalCollateralInUsd < minCollateral) {\r\n            return 0;\r\n        }\r\n        \r\n        return totalCollateralInUsd.sub(minCollateral);\r\n    }\r\n\r\n    // 1. After redeem, collateral ratio need bigger than target ratio.\r\n    // 2. Cannot redeem more than collateral.\r\n    function Redeem(bytes32 _currency, uint256 _amount) external whenNotPaused returns (bool) {\r\n        address user = msg.sender;\r\n        require(_amount <= userCollateralData[user][_currency].collateral, \"Can not redeem more than collateral\");\r\n        require(_amount > 0, \"Redeem amount need larger than zero\");\r\n\r\n        uint256 maxRedeemableInUsd = MaxRedeemableInUsd(user);\r\n        \r\n        uint256 maxRedeem = maxRedeemableInUsd.divideDecimal(priceGetter.getPrice(_currency));\r\n        require(_amount <= maxRedeem, \"Because lower collateral ratio, can not redeem too much\");\r\n\r\n        userCollateralData[user][_currency].collateral = userCollateralData[user][_currency].collateral.sub(_amount);\r\n\r\n        TokenInfo storage tokeninfo = tokenInfos[_currency];\r\n        tokeninfo.totalCollateral = tokeninfo.totalCollateral.sub(_amount);\r\n\r\n        IERC20(tokenInfos[_currency].tokenAddr).transfer(user, _amount);\r\n\r\n        emit RedeemCollateral(user, _currency, _amount, userCollateralData[user][_currency].collateral);\r\n        return true;\r\n    }\r\n\r\n    // payable eth receive, \r\n    function CollateralEth() external payable whenNotPaused returns (bool) {\r\n        address user = msg.sender;\r\n        uint256 ethAmount = msg.value;\r\n        require(ethAmount > 0, \"ETH amount need more than zero\");\r\n        \r\n        userCollateralData[user][Currency_ETH].collateral = userCollateralData[user][Currency_ETH].collateral.add(ethAmount);\r\n\r\n        emit CollateralLog(user, Currency_ETH, ethAmount, userCollateralData[user][Currency_ETH].collateral);\r\n        return true;\r\n    }\r\n\r\n    function RedeemETH(uint256 _amount) external whenNotPaused returns (bool) {\r\n        address payable user = msg.sender;\r\n        require(_amount <= userCollateralData[user][Currency_ETH].collateral, \"Can not redeem more than collateral\");\r\n        require(_amount > 0, \"Redeem amount need larger than zero\");\r\n\r\n        uint256 maxRedeemableInUsd = MaxRedeemableInUsd(user);\r\n        \r\n        uint256 maxRedeem = maxRedeemableInUsd.divideDecimal(priceGetter.getPrice(Currency_ETH));\r\n        require(_amount <= maxRedeem, \"Because lower collateral ratio, can not redeem too much\");\r\n\r\n        userCollateralData[user][Currency_ETH].collateral = userCollateralData[user][Currency_ETH].collateral.sub(_amount);\r\n        user.transfer(_amount);\r\n\r\n        emit RedeemCollateral(user, Currency_ETH, _amount, userCollateralData[user][Currency_ETH].collateral);\r\n        return true;\r\n    }\r\n\r\n    event UpdateTokenSetting(bytes32 symbol, address tokenAddr, uint256 minCollateral, bool close);\r\n    event CollateralLog(address user, bytes32 _currency, uint256 _amount, uint256 _userTotal);\r\n    event RedeemCollateral(address user, bytes32 _currency, uint256 _amount, uint256 _userTotal);\r\n}\r\n",
  "sourcePath": "/mnt/d/working/linearFinance/LinearFinanceToken/contracts/LnCollateralSystem.sol",
  "compiler": {
    "name": "solc",
    "version": "0.6.12+commit.27d51765.Emscripten.clang"
  },
  "schemaVersion": "3.2.3",
  "updatedAt": "2020-09-10T08:49:07.465Z",
  "devdoc": {
    "kind": "dev",
    "methods": {
      "paused()": {
        "details": "Returns true if the contract is paused, and false otherwise."
      }
    },
    "version": 1
  },
  "userdoc": {
    "kind": "user",
    "methods": {},
    "version": 1
  }
}