{
  "contractName": "LnCollateralSystem",
  "abi": [
    {
      "inputs": [
        {
          "internalType": "address",
          "name": "admin",
          "type": "address"
        }
      ],
      "stateMutability": "nonpayable",
      "type": "constructor"
    },
    {
      "anonymous": false,
      "inputs": [
        {
          "indexed": false,
          "internalType": "address",
          "name": "oldAdmin",
          "type": "address"
        },
        {
          "indexed": false,
          "internalType": "address",
          "name": "newAdmin",
          "type": "address"
        }
      ],
      "name": "AdminChanged",
      "type": "event"
    },
    {
      "anonymous": false,
      "inputs": [
        {
          "indexed": false,
          "internalType": "address",
          "name": "user",
          "type": "address"
        },
        {
          "indexed": false,
          "internalType": "bytes32",
          "name": "_currency",
          "type": "bytes32"
        },
        {
          "indexed": false,
          "internalType": "uint256",
          "name": "_amount",
          "type": "uint256"
        },
        {
          "indexed": false,
          "internalType": "uint256",
          "name": "_userTotal",
          "type": "uint256"
        }
      ],
      "name": "CollateralLog",
      "type": "event"
    },
    {
      "anonymous": false,
      "inputs": [
        {
          "indexed": false,
          "internalType": "address",
          "name": "account",
          "type": "address"
        }
      ],
      "name": "Paused",
      "type": "event"
    },
    {
      "anonymous": false,
      "inputs": [
        {
          "indexed": false,
          "internalType": "address",
          "name": "user",
          "type": "address"
        },
        {
          "indexed": false,
          "internalType": "bytes32",
          "name": "_currency",
          "type": "bytes32"
        },
        {
          "indexed": false,
          "internalType": "uint256",
          "name": "_amount",
          "type": "uint256"
        },
        {
          "indexed": false,
          "internalType": "uint256",
          "name": "_userTotal",
          "type": "uint256"
        }
      ],
      "name": "RedeemCollateral",
      "type": "event"
    },
    {
      "anonymous": false,
      "inputs": [
        {
          "indexed": false,
          "internalType": "address",
          "name": "account",
          "type": "address"
        }
      ],
      "name": "Unpaused",
      "type": "event"
    },
    {
      "anonymous": false,
      "inputs": [
        {
          "indexed": false,
          "internalType": "bytes32",
          "name": "symbol",
          "type": "bytes32"
        },
        {
          "indexed": false,
          "internalType": "address",
          "name": "tokenAddr",
          "type": "address"
        },
        {
          "indexed": false,
          "internalType": "uint256",
          "name": "minCollateral",
          "type": "uint256"
        },
        {
          "indexed": false,
          "internalType": "bool",
          "name": "close",
          "type": "bool"
        }
      ],
      "name": "UpdateTokenSetting",
      "type": "event"
    },
    {
      "anonymous": false,
      "inputs": [
        {
          "indexed": false,
          "internalType": "address",
          "name": "oldCandidate",
          "type": "address"
        },
        {
          "indexed": false,
          "internalType": "address",
          "name": "newCandidate",
          "type": "address"
        }
      ],
      "name": "candidateChanged",
      "type": "event"
    },
    {
      "anonymous": false,
      "inputs": [
        {
          "indexed": false,
          "internalType": "bytes32",
          "name": "name",
          "type": "bytes32"
        },
        {
          "indexed": false,
          "internalType": "address",
          "name": "addr",
          "type": "address"
        }
      ],
      "name": "updateCachedAddress",
      "type": "event"
    },
    {
      "inputs": [],
      "name": "admin",
      "outputs": [
        {
          "internalType": "address",
          "name": "",
          "type": "address"
        }
      ],
      "stateMutability": "view",
      "type": "function",
      "constant": true
    },
    {
      "inputs": [],
      "name": "becomeAdmin",
      "outputs": [],
      "stateMutability": "nonpayable",
      "type": "function"
    },
    {
      "inputs": [],
      "name": "candidate",
      "outputs": [
        {
          "internalType": "address",
          "name": "",
          "type": "address"
        }
      ],
      "stateMutability": "view",
      "type": "function",
      "constant": true
    },
    {
      "inputs": [],
      "name": "paused",
      "outputs": [
        {
          "internalType": "bool",
          "name": "",
          "type": "bool"
        }
      ],
      "stateMutability": "view",
      "type": "function",
      "constant": true
    },
    {
      "inputs": [
        {
          "internalType": "address",
          "name": "_candidate",
          "type": "address"
        }
      ],
      "name": "setCandidate",
      "outputs": [],
      "stateMutability": "nonpayable",
      "type": "function"
    },
    {
      "inputs": [
        {
          "internalType": "bytes32",
          "name": "",
          "type": "bytes32"
        }
      ],
      "name": "tokenInfos",
      "outputs": [
        {
          "internalType": "address",
          "name": "tokenAddr",
          "type": "address"
        },
        {
          "internalType": "uint256",
          "name": "minCollateral",
          "type": "uint256"
        },
        {
          "internalType": "uint256",
          "name": "totalCollateral",
          "type": "uint256"
        },
        {
          "internalType": "bool",
          "name": "bClose",
          "type": "bool"
        }
      ],
      "stateMutability": "view",
      "type": "function",
      "constant": true
    },
    {
      "inputs": [
        {
          "internalType": "uint256",
          "name": "",
          "type": "uint256"
        }
      ],
      "name": "tokenSymbol",
      "outputs": [
        {
          "internalType": "bytes32",
          "name": "",
          "type": "bytes32"
        }
      ],
      "stateMutability": "view",
      "type": "function",
      "constant": true
    },
    {
      "inputs": [],
      "name": "uniqueId",
      "outputs": [
        {
          "internalType": "uint256",
          "name": "",
          "type": "uint256"
        }
      ],
      "stateMutability": "view",
      "type": "function",
      "constant": true
    },
    {
      "inputs": [
        {
          "internalType": "address",
          "name": "",
          "type": "address"
        },
        {
          "internalType": "bytes32",
          "name": "",
          "type": "bytes32"
        }
      ],
      "name": "userCollateralData",
      "outputs": [
        {
          "internalType": "uint256",
          "name": "collateral",
          "type": "uint256"
        }
      ],
      "stateMutability": "view",
      "type": "function",
      "constant": true
    },
    {
      "stateMutability": "payable",
      "type": "receive",
      "payable": true
    },
    {
      "inputs": [
        {
          "internalType": "bool",
          "name": "_paused",
          "type": "bool"
        }
      ],
      "name": "setPaused",
      "outputs": [],
      "stateMutability": "nonpayable",
      "type": "function"
    },
    {
      "inputs": [
        {
          "internalType": "contract LnAddressStorage",
          "name": "_addressStorage",
          "type": "address"
        }
      ],
      "name": "updateAddressCache",
      "outputs": [],
      "stateMutability": "nonpayable",
      "type": "function"
    },
    {
      "inputs": [
        {
          "internalType": "bool",
          "name": "pause",
          "type": "bool"
        }
      ],
      "name": "SetPause",
      "outputs": [],
      "stateMutability": "nonpayable",
      "type": "function"
    },
    {
      "inputs": [
        {
          "internalType": "bytes32",
          "name": "_currency",
          "type": "bytes32"
        },
        {
          "internalType": "address",
          "name": "_tokenAddr",
          "type": "address"
        },
        {
          "internalType": "uint256",
          "name": "_minCollateral",
          "type": "uint256"
        },
        {
          "internalType": "bool",
          "name": "_close",
          "type": "bool"
        }
      ],
      "name": "UpdateTokenInfo",
      "outputs": [
        {
          "internalType": "bool",
          "name": "",
          "type": "bool"
        }
      ],
      "stateMutability": "nonpayable",
      "type": "function"
    },
    {
      "inputs": [
        {
          "internalType": "bytes32[]",
          "name": "_symbols",
          "type": "bytes32[]"
        },
        {
          "internalType": "address[]",
          "name": "_tokenAddrs",
          "type": "address[]"
        },
        {
          "internalType": "uint256[]",
          "name": "_minCollateral",
          "type": "uint256[]"
        },
        {
          "internalType": "bool[]",
          "name": "_closes",
          "type": "bool[]"
        }
      ],
      "name": "UpdateTokenInfos",
      "outputs": [
        {
          "internalType": "bool",
          "name": "",
          "type": "bool"
        }
      ],
      "stateMutability": "nonpayable",
      "type": "function"
    },
    {
      "inputs": [],
      "name": "GetSystemTotalCollateralInUsd",
      "outputs": [
        {
          "internalType": "uint256",
          "name": "rTotal",
          "type": "uint256"
        }
      ],
      "stateMutability": "view",
      "type": "function",
      "constant": true
    },
    {
      "inputs": [
        {
          "internalType": "address",
          "name": "_user",
          "type": "address"
        }
      ],
      "name": "GetUserTotalCollateralInUsd",
      "outputs": [
        {
          "internalType": "uint256",
          "name": "rTotal",
          "type": "uint256"
        }
      ],
      "stateMutability": "view",
      "type": "function",
      "constant": true
    },
    {
      "inputs": [
        {
          "internalType": "address",
          "name": "_user",
          "type": "address"
        },
        {
          "internalType": "bytes32",
          "name": "_currency",
          "type": "bytes32"
        }
      ],
      "name": "GetUserCollateral",
      "outputs": [
        {
          "internalType": "uint256",
          "name": "",
          "type": "uint256"
        }
      ],
      "stateMutability": "view",
      "type": "function",
      "constant": true
    },
    {
      "inputs": [
        {
          "internalType": "address",
          "name": "_user",
          "type": "address"
        }
      ],
      "name": "GetUserCollaterals",
      "outputs": [
        {
          "internalType": "bytes32[]",
          "name": "",
          "type": "bytes32[]"
        },
        {
          "internalType": "uint256[]",
          "name": "",
          "type": "uint256[]"
        }
      ],
      "stateMutability": "view",
      "type": "function",
      "constant": true
    },
    {
      "inputs": [
        {
          "internalType": "bytes32",
          "name": "_currency",
          "type": "bytes32"
        },
        {
          "internalType": "uint256",
          "name": "_amount",
          "type": "uint256"
        }
      ],
      "name": "Collateral",
      "outputs": [
        {
          "internalType": "bool",
          "name": "",
          "type": "bool"
        }
      ],
      "stateMutability": "nonpayable",
      "type": "function"
    },
    {
      "inputs": [
        {
          "internalType": "address",
          "name": "_user",
          "type": "address"
        }
      ],
      "name": "MaxRedeemableInUsd",
      "outputs": [
        {
          "internalType": "uint256",
          "name": "",
          "type": "uint256"
        }
      ],
      "stateMutability": "view",
      "type": "function",
      "constant": true
    },
    {
      "inputs": [
        {
          "internalType": "bytes32",
          "name": "_currency",
          "type": "bytes32"
        },
        {
          "internalType": "uint256",
          "name": "_amount",
          "type": "uint256"
        }
      ],
      "name": "Redeem",
      "outputs": [
        {
          "internalType": "bool",
          "name": "",
          "type": "bool"
        }
      ],
      "stateMutability": "nonpayable",
      "type": "function"
    },
    {
      "inputs": [],
      "name": "CollateralEth",
      "outputs": [
        {
          "internalType": "bool",
          "name": "",
          "type": "bool"
        }
      ],
      "stateMutability": "payable",
      "type": "function",
      "payable": true
    },
    {
      "inputs": [
        {
          "internalType": "uint256",
          "name": "_amount",
          "type": "uint256"
        }
      ],
      "name": "RedeemETH",
      "outputs": [
        {
          "internalType": "bool",
          "name": "",
          "type": "bool"
        }
      ],
      "stateMutability": "nonpayable",
      "type": "function"
    }
  ],
  "bytecode": "0x60806040523480156200001157600080fd5b50604051620049fc380380620049fc833981810160405260208110156200003757600080fd5b810190808051906020019092919050505080600073ffffffffffffffffffffffffffffffffffffffff168173ffffffffffffffffffffffffffffffffffffffff161415620000ed576040517f08c379a00000000000000000000000000000000000000000000000000000000081526004018080602001828103825260198152602001807f61646d696e20616464726573732063616e6e6f7420626520300000000000000081525060200191505060405180910390fd5b806000806101000a81548173ffffffffffffffffffffffffffffffffffffffff021916908373ffffffffffffffffffffffffffffffffffffffff1602179055507f7e644d79422f17c01e4894b5f4f588d331ebfa28653d42ae832dc59e38c9798f600082604051808373ffffffffffffffffffffffffffffffffffffffff1681526020018273ffffffffffffffffffffffffffffffffffffffff1681526020019250505060405180910390a1506000600160146101000a81548160ff0219169083151502179055505061483680620001c66000396000f3fe6080604052600436106101445760003560e01c8063629c52a9116100b6578063c08f73b61161006f578063c08f73b614610765578063c19bff31146107c0578063f563feec1461081b578063f72d542614610880578063f851a44014610a1b578063ff06a5d414610a5c576101e4565b8063629c52a9146104f55780636c8381f81461052057806375f93fa8146105615780637e2748f61461058c57806390f1f17b1461067a578063acb0c604146106f6576101e4565b806325971dff1161010857806325971dff1461035457806342fc00f41461036b578063512607911461038b578063592315d1146103f05780635a5f14c8146104775780635c975abb146104c8576101e4565b806307880b7f146101e9578063140eb9f81461023a578063169e02fc1461027757806316c38b3c146102c857806317fd1d8014610305576101e4565b366101e457600160149054906101000a900460ff16156101cc576040517f08c379a00000000000000000000000000000000000000000000000000000000081526004018080602001828103825260108152602001807f5061757361626c653a207061757365640000000000000000000000000000000081525060200191505060405180910390fd5b600033905060003490506101e08282610acb565b5050005b600080fd5b3480156101f557600080fd5b506102386004803603602081101561020c57600080fd5b81019080803573ffffffffffffffffffffffffffffffffffffffff169060200190929190505050610d3a565b005b34801561024657600080fd5b506102756004803603602081101561025d57600080fd5b81019080803515159060200190929190505050610ed7565b005b34801561028357600080fd5b506102b06004803603602081101561029a57600080fd5b8101908080359060200190929190505050610f9a565b60405180821515815260200191505060405180910390f35b3480156102d457600080fd5b50610303600480360360208110156102eb57600080fd5b810190808035151590602001909291905050506114db565b005b34801561031157600080fd5b5061033e6004803603602081101561032857600080fd5b810190808035906020019092919050505061159e565b6040518082815260200191505060405180910390f35b34801561036057600080fd5b506103696115bf565b005b610373611798565b60405180821515815260200191505060405180910390f35b34801561039757600080fd5b506103da600480360360208110156103ae57600080fd5b81019080803573ffffffffffffffffffffffffffffffffffffffff16906020019092919050505061183a565b6040518082815260200191505060405180910390f35b3480156103fc57600080fd5b5061045f6004803603608081101561041357600080fd5b8101908080359060200190929190803573ffffffffffffffffffffffffffffffffffffffff16906020019092919080359060200190929190803515159060200190929190505050611be7565b60405180821515815260200191505060405180910390f35b34801561048357600080fd5b506104c66004803603602081101561049a57600080fd5b81019080803573ffffffffffffffffffffffffffffffffffffffff169060200190929190505050611ca4565b005b3480156104d457600080fd5b506104dd61241e565b60405180821515815260200191505060405180910390f35b34801561050157600080fd5b5061050a612435565b6040518082815260200191505060405180910390f35b34801561052c57600080fd5b5061053561243b565b604051808273ffffffffffffffffffffffffffffffffffffffff16815260200191505060405180910390f35b34801561056d57600080fd5b50610576612461565b6040518082815260200191505060405180910390f35b34801561059857600080fd5b506105db600480360360208110156105af57600080fd5b81019080803573ffffffffffffffffffffffffffffffffffffffff1690602001909291905050506126ac565b604051808060200180602001838103835285818151815260200191508051906020019060200280838360005b83811015610622578082015181840152602081019050610607565b50505050905001838103825284818151815260200191508051906020019060200280838360005b83811015610664578082015181840152602081019050610649565b5050505090500194505050505060405180910390f35b34801561068657600080fd5b506106b36004803603602081101561069d57600080fd5b81019080803590602001909291905050506129d3565b604051808573ffffffffffffffffffffffffffffffffffffffff168152602001848152602001838152602001821515815260200194505050505060405180910390f35b34801561070257600080fd5b5061074f6004803603604081101561071957600080fd5b81019080803573ffffffffffffffffffffffffffffffffffffffff16906020019092919080359060200190929190505050612a30565b6040518082815260200191505060405180910390f35b34801561077157600080fd5b506107a86004803603604081101561078857600080fd5b810190808035906020019092919080359060200190929190505050612a5b565b60405180821515815260200191505060405180910390f35b3480156107cc57600080fd5b50610803600480360360408110156107e357600080fd5b81019080803590602001909291908035906020019092919050505061319d565b60405180821515815260200191505060405180910390f35b34801561082757600080fd5b5061086a6004803603602081101561083e57600080fd5b81019080803573ffffffffffffffffffffffffffffffffffffffff1690602001909291905050506136f2565b6040518082815260200191505060405180910390f35b34801561088c57600080fd5b50610a03600480360360808110156108a357600080fd5b81019080803590602001906401000000008111156108c057600080fd5b8201836020820111156108d257600080fd5b803590602001918460208302840111640100000000831117156108f457600080fd5b90919293919293908035906020019064010000000081111561091557600080fd5b82018360208201111561092757600080fd5b8035906020019184602083028401116401000000008311171561094957600080fd5b90919293919293908035906020019064010000000081111561096a57600080fd5b82018360208201111561097c57600080fd5b8035906020019184602083028401116401000000008311171561099e57600080fd5b9091929391929390803590602001906401000000008111156109bf57600080fd5b8201836020820111156109d157600080fd5b803590602001918460208302840111640100000000831117156109f357600080fd5b9091929391929390505050613984565b60405180821515815260200191505060405180910390f35b348015610a2757600080fd5b50610a30613c35565b604051808273ffffffffffffffffffffffffffffffffffffffff16815260200191505060405180910390f35b348015610a6857600080fd5b50610ab560048036036040811015610a7f57600080fd5b81019080803573ffffffffffffffffffffffffffffffffffffffff16906020019092919080359060200190929190505050613c59565b6040518082815260200191505060405180910390f35b60008111610b41576040517f08c379a000000000000000000000000000000000000000000000000000000000815260040180806020018281038252601e8152602001807f45544820616d6f756e74206e656564206d6f7265207468616e207a65726f000081525060200191505060405180910390fd5b610bc781600960008573ffffffffffffffffffffffffffffffffffffffff1673ffffffffffffffffffffffffffffffffffffffff16815260200190815260200160002060007f4554480000000000000000000000000000000000000000000000000000000000815260200190815260200160002060000154613cb790919063ffffffff16565b600960008473ffffffffffffffffffffffffffffffffffffffff1673ffffffffffffffffffffffffffffffffffffffff16815260200190815260200160002060007f45544800000000000000000000000000000000000000000000000000000000008152602001908152602001600020600001819055507fe25398ee94a2ec2dde5992b338a76ddd3a7af4d596cf2d00feba7770b31de299827f455448000000000000000000000000000000000000000000000000000000000083600960008773ffffffffffffffffffffffffffffffffffffffff1673ffffffffffffffffffffffffffffffffffffffff16815260200190815260200160002060007f4554480000000000000000000000000000000000000000000000000000000000815260200190815260200160002060000154604051808573ffffffffffffffffffffffffffffffffffffffff16815260200184815260200183815260200182815260200194505050505060405180910390a15050565b60008054906101000a900473ffffffffffffffffffffffffffffffffffffffff1673ffffffffffffffffffffffffffffffffffffffff163373ffffffffffffffffffffffffffffffffffffffff1614610dde576040517f08c379a000000000000000000000000000000000000000000000000000000000815260040180806020018281038252602f815260200180614755602f913960400191505060405180910390fd5b6000600160009054906101000a900473ffffffffffffffffffffffffffffffffffffffff16905081600160006101000a81548173ffffffffffffffffffffffffffffffffffffffff021916908373ffffffffffffffffffffffffffffffffffffffff1602179055507f0faed18be9e8f4d4c05dfbcc80ea2c97a0be729614d766827778f60890c02cab81600160009054906101000a900473ffffffffffffffffffffffffffffffffffffffff16604051808373ffffffffffffffffffffffffffffffffffffffff1681526020018273ffffffffffffffffffffffffffffffffffffffff1681526020019250505060405180910390a15050565b60008054906101000a900473ffffffffffffffffffffffffffffffffffffffff1673ffffffffffffffffffffffffffffffffffffffff163373ffffffffffffffffffffffffffffffffffffffff1614610f7b576040517f08c379a000000000000000000000000000000000000000000000000000000000815260040180806020018281038252602f815260200180614755602f913960400191505060405180910390fd5b8015610f8e57610f89613d3f565b610f97565b610f96613e32565b5b50565b6000600160149054906101000a900460ff161561101f576040517f08c379a00000000000000000000000000000000000000000000000000000000081526004018080602001828103825260108152602001807f5061757361626c653a207061757365640000000000000000000000000000000081525060200191505060405180910390fd5b6000339050600960008273ffffffffffffffffffffffffffffffffffffffff1673ffffffffffffffffffffffffffffffffffffffff16815260200190815260200160002060007f45544800000000000000000000000000000000000000000000000000000000008152602001908152602001600020600001548311156110f0576040517f08c379a00000000000000000000000000000000000000000000000000000000081526004018080602001828103825260238152602001806147a76023913960400191505060405180910390fd5b60008311611149576040517f08c379a00000000000000000000000000000000000000000000000000000000081526004018080602001828103825260238152602001806147846023913960400191505060405180910390fd5b6000611154826136f2565b90506000611238600260009054906101000a900473ffffffffffffffffffffffffffffffffffffffff1673ffffffffffffffffffffffffffffffffffffffff166331d98b3f7f45544800000000000000000000000000000000000000000000000000000000006040518263ffffffff1660e01b81526004018082815260200191505060206040518083038186803b1580156111ee57600080fd5b505afa158015611202573d6000803e3d6000fd5b505050506040513d602081101561121857600080fd5b810190808051906020019092919050505083613f2590919063ffffffff16565b905080851115611293576040517f08c379a00000000000000000000000000000000000000000000000000000000081526004018080602001828103825260378152602001806147ca6037913960400191505060405180910390fd5b61131985600960008673ffffffffffffffffffffffffffffffffffffffff1673ffffffffffffffffffffffffffffffffffffffff16815260200190815260200160002060007f4554480000000000000000000000000000000000000000000000000000000000815260200190815260200160002060000154613f5b90919063ffffffff16565b600960008573ffffffffffffffffffffffffffffffffffffffff1673ffffffffffffffffffffffffffffffffffffffff16815260200190815260200160002060007f45544800000000000000000000000000000000000000000000000000000000008152602001908152602001600020600001819055508273ffffffffffffffffffffffffffffffffffffffff166108fc869081150290604051600060405180830381858888f193505050501580156113d6573d6000803e3d6000fd5b507ffa659da0063f4e5cf39c3b6dae863e789ab69f82e82925c28cae633a81b2b65d837f455448000000000000000000000000000000000000000000000000000000000087600960008873ffffffffffffffffffffffffffffffffffffffff1673ffffffffffffffffffffffffffffffffffffffff16815260200190815260200160002060007f4554480000000000000000000000000000000000000000000000000000000000815260200190815260200160002060000154604051808573ffffffffffffffffffffffffffffffffffffffff16815260200184815260200183815260200182815260200194505050505060405180910390a160019350505050919050565b60008054906101000a900473ffffffffffffffffffffffffffffffffffffffff1673ffffffffffffffffffffffffffffffffffffffff163373ffffffffffffffffffffffffffffffffffffffff161461157f576040517f08c379a000000000000000000000000000000000000000000000000000000000815260040180806020018281038252602f815260200180614755602f913960400191505060405180910390fd5b80156115925761158d613d3f565b61159b565b61159a613e32565b5b50565b600881815481106115ab57fe5b906000526020600020016000915090505481565b600160009054906101000a900473ffffffffffffffffffffffffffffffffffffffff1673ffffffffffffffffffffffffffffffffffffffff163373ffffffffffffffffffffffffffffffffffffffff1614611682576040517f08c379a000000000000000000000000000000000000000000000000000000000815260040180806020018281038252601f8152602001807f4f6e6c792063616e6469646174652063616e206265636f6d652061646d696e0081525060200191505060405180910390fd5b60008060009054906101000a900473ffffffffffffffffffffffffffffffffffffffff169050600160009054906101000a900473ffffffffffffffffffffffffffffffffffffffff166000806101000a81548173ffffffffffffffffffffffffffffffffffffffff021916908373ffffffffffffffffffffffffffffffffffffffff1602179055507f7e644d79422f17c01e4894b5f4f588d331ebfa28653d42ae832dc59e38c9798f8160008054906101000a900473ffffffffffffffffffffffffffffffffffffffff16604051808373ffffffffffffffffffffffffffffffffffffffff1681526020018273ffffffffffffffffffffffffffffffffffffffff1681526020019250505060405180910390a150565b6000600160149054906101000a900460ff161561181d576040517f08c379a00000000000000000000000000000000000000000000000000000000081526004018080602001828103825260108152602001807f5061757361626c653a207061757365640000000000000000000000000000000081525060200191505060405180910390fd5b600033905060003490506118318282610acb565b60019250505090565b600080600090505b6008805490508110156119fd5760006008828154811061185e57fe5b906000526020600020015490506000600960008673ffffffffffffffffffffffffffffffffffffffff1673ffffffffffffffffffffffffffffffffffffffff16815260200190815260200160002060008381526020019081526020016000206000015411156119ef576119ec6119dd600260009054906101000a900473ffffffffffffffffffffffffffffffffffffffff1673ffffffffffffffffffffffffffffffffffffffff166331d98b3f846040518263ffffffff1660e01b81526004018082815260200191505060206040518083038186803b15801561194057600080fd5b505afa158015611954573d6000803e3d6000fd5b505050506040513d602081101561196a57600080fd5b8101908080519060200190929190505050600960008873ffffffffffffffffffffffffffffffffffffffff1673ffffffffffffffffffffffffffffffffffffffff168152602001908152602001600020600085815260200190815260200160002060000154613fa590919063ffffffff16565b84613cb790919063ffffffff16565b92505b508080600101915050611842565b506000600960008473ffffffffffffffffffffffffffffffffffffffff1673ffffffffffffffffffffffffffffffffffffffff16815260200190815260200160002060007f45544800000000000000000000000000000000000000000000000000000000008152602001908152602001600020600001541115611be257611bdf611bd0600260009054906101000a900473ffffffffffffffffffffffffffffffffffffffff1673ffffffffffffffffffffffffffffffffffffffff166331d98b3f7f45544800000000000000000000000000000000000000000000000000000000006040518263ffffffff1660e01b81526004018082815260200191505060206040518083038186803b158015611b1357600080fd5b505afa158015611b27573d6000803e3d6000fd5b505050506040513d6020811015611b3d57600080fd5b8101908080519060200190929190505050600960008673ffffffffffffffffffffffffffffffffffffffff1673ffffffffffffffffffffffffffffffffffffffff16815260200190815260200160002060007f4554480000000000000000000000000000000000000000000000000000000000815260200190815260200160002060000154613fa590919063ffffffff16565b82613cb790919063ffffffff16565b90505b919050565b60008060009054906101000a900473ffffffffffffffffffffffffffffffffffffffff1673ffffffffffffffffffffffffffffffffffffffff163373ffffffffffffffffffffffffffffffffffffffff1614611c8e576040517f08c379a000000000000000000000000000000000000000000000000000000000815260040180806020018281038252602f815260200180614755602f913960400191505060405180910390fd5b611c9a85858585613fd2565b9050949350505050565b60008054906101000a900473ffffffffffffffffffffffffffffffffffffffff1673ffffffffffffffffffffffffffffffffffffffff163373ffffffffffffffffffffffffffffffffffffffff1614611d48576040517f08c379a000000000000000000000000000000000000000000000000000000000815260040180806020018281038252602f815260200180614755602f913960400191505060405180910390fd5b8073ffffffffffffffffffffffffffffffffffffffff1663768911da6040518163ffffffff1660e01b815260040180807f4c6e507269636573000000000000000000000000000000000000000000000000815250602001806020018281038252601a8152602001807f4c6e5072696365732061646472657373206e6f742076616c696400000000000081525060200191505060206040518083038186803b158015611df257600080fd5b505afa158015611e06573d6000803e3d6000fd5b505050506040513d6020811015611e1c57600080fd5b8101908080519060200190929190505050600260006101000a81548173ffffffffffffffffffffffffffffffffffffffff021916908373ffffffffffffffffffffffffffffffffffffffff1602179055508073ffffffffffffffffffffffffffffffffffffffff1663768911da6040518163ffffffff1660e01b815260040180807f4c6e4465627453797374656d0000000000000000000000000000000000000000815250602001806020018281038252601e8152602001807f4c6e4465627453797374656d2061646472657373206e6f742076616c6964000081525060200191505060206040518083038186803b158015611f1757600080fd5b505afa158015611f2b573d6000803e3d6000fd5b505050506040513d6020811015611f4157600080fd5b8101908080519060200190929190505050600360006101000a81548173ffffffffffffffffffffffffffffffffffffffff021916908373ffffffffffffffffffffffffffffffffffffffff1602179055508073ffffffffffffffffffffffffffffffffffffffff1663768911da6040518163ffffffff1660e01b815260040180807f4c6e4275696c644275726e53797374656d00000000000000000000000000000081525060200180602001828103825260238152602001806147326023913960400191505060206040518083038186803b15801561201f57600080fd5b505afa158015612033573d6000803e3d6000fd5b505050506040513d602081101561204957600080fd5b8101908080519060200190929190505050600460006101000a81548173ffffffffffffffffffffffffffffffffffffffff021916908373ffffffffffffffffffffffffffffffffffffffff1602179055508073ffffffffffffffffffffffffffffffffffffffff1663768911da6040518163ffffffff1660e01b815260040180807f4c6e436f6e666967000000000000000000000000000000000000000000000000815250602001806020018281038252601a8152602001807f4c6e436f6e6669672061646472657373206e6f742076616c696400000000000081525060200191505060206040518083038186803b15801561214457600080fd5b505afa158015612158573d6000803e3d6000fd5b505050506040513d602081101561216e57600080fd5b8101908080519060200190929190505050600560006101000a81548173ffffffffffffffffffffffffffffffffffffffff021916908373ffffffffffffffffffffffffffffffffffffffff1602179055507f45a7f8d84f7ad724869d024abcaa743ae6aec455a969df76b5d1e9c5cac4d2ae600260009054906101000a900473ffffffffffffffffffffffffffffffffffffffff1660405180807f4c6e5072696365730000000000000000000000000000000000000000000000008152506020018273ffffffffffffffffffffffffffffffffffffffff16815260200191505060405180910390a17f45a7f8d84f7ad724869d024abcaa743ae6aec455a969df76b5d1e9c5cac4d2ae600360009054906101000a900473ffffffffffffffffffffffffffffffffffffffff1660405180807f4c6e4465627453797374656d00000000000000000000000000000000000000008152506020018273ffffffffffffffffffffffffffffffffffffffff16815260200191505060405180910390a17f45a7f8d84f7ad724869d024abcaa743ae6aec455a969df76b5d1e9c5cac4d2ae600460009054906101000a900473ffffffffffffffffffffffffffffffffffffffff1660405180807f4c6e4275696c644275726e53797374656d0000000000000000000000000000008152506020018273ffffffffffffffffffffffffffffffffffffffff16815260200191505060405180910390a17f45a7f8d84f7ad724869d024abcaa743ae6aec455a969df76b5d1e9c5cac4d2ae600560009054906101000a900473ffffffffffffffffffffffffffffffffffffffff1660405180807f4c6e436f6e6669670000000000000000000000000000000000000000000000008152506020018273ffffffffffffffffffffffffffffffffffffffff16815260200191505060405180910390a150565b6000600160149054906101000a900460ff16905090565b60065481565b600160009054906101000a900473ffffffffffffffffffffffffffffffffffffffff1681565b600080600090505b6008805490508110156125aa5760006008828154811061248557fe5b9060005260206000200154905060006007600083815260200190815260200160002060020154111561259c5761259961258a600260009054906101000a900473ffffffffffffffffffffffffffffffffffffffff1673ffffffffffffffffffffffffffffffffffffffff166331d98b3f846040518263ffffffff1660e01b81526004018082815260200191505060206040518083038186803b15801561252a57600080fd5b505afa15801561253e573d6000803e3d6000fd5b505050506040513d602081101561255457600080fd5b81019080805190602001909291905050506007600085815260200190815260200160002060020154613fa590919063ffffffff16565b84613cb790919063ffffffff16565b92505b508080600101915050612469565b5060004711156126a9576126a6612697600260009054906101000a900473ffffffffffffffffffffffffffffffffffffffff1673ffffffffffffffffffffffffffffffffffffffff166331d98b3f7f45544800000000000000000000000000000000000000000000000000000000006040518263ffffffff1660e01b81526004018082815260200191505060206040518083038186803b15801561264d57600080fd5b505afa158015612661573d6000803e3d6000fd5b505050506040513d602081101561267757600080fd5b810190808051906020019092919050505047613fa590919063ffffffff16565b82613cb790919063ffffffff16565b90505b90565b606080606060016008805490500167ffffffffffffffff811180156126d057600080fd5b506040519080825280602002602001820160405280156126ff5781602001602082028036833780820191505090505b509050606060016008805490500167ffffffffffffffff8111801561272357600080fd5b506040519080825280602002602001820160405280156127525781602001602082028036833780820191505090505b5090506000805b60088054905081101561287a5760006008828154811061277557fe5b906000526020600020015490506000600960008a73ffffffffffffffffffffffffffffffffffffffff1673ffffffffffffffffffffffffffffffffffffffff168152602001908152602001600020600083815260200190815260200160002060000154111561286c57808584815181106127eb57fe5b602002602001018181525050600960008973ffffffffffffffffffffffffffffffffffffffff1673ffffffffffffffffffffffffffffffffffffffff16815260200190815260200160002060008281526020019081526020016000206000015484848151811061285757fe5b60200260200101818152505082806001019350505b508080600101915050612759565b506000600960008873ffffffffffffffffffffffffffffffffffffffff1673ffffffffffffffffffffffffffffffffffffffff16815260200190815260200160002060007f455448000000000000000000000000000000000000000000000000000000000081526020019081526020016000206000015411156129c5577f455448000000000000000000000000000000000000000000000000000000000083828151811061292457fe5b602002602001018181525050600960008773ffffffffffffffffffffffffffffffffffffffff1673ffffffffffffffffffffffffffffffffffffffff16815260200190815260200160002060007f45544800000000000000000000000000000000000000000000000000000000008152602001908152602001600020600001548282815181106129b057fe5b60200260200101818152505080806001019150505b828294509450505050915091565b60076020528060005260406000206000915090508060000160009054906101000a900473ffffffffffffffffffffffffffffffffffffffff16908060010154908060020154908060030160009054906101000a900460ff16905084565b6009602052816000526040600020602052806000526040600020600091509150508060000154905081565b6000600160149054906101000a900460ff1615612ae0576040517f08c379a00000000000000000000000000000000000000000000000000000000081526004018080602001828103825260108152602001807f5061757361626c653a207061757365640000000000000000000000000000000081525060200191505060405180910390fd5b612b356007600085815260200190815260200160002060000160009054906101000a900473ffffffffffffffffffffffffffffffffffffffff1673ffffffffffffffffffffffffffffffffffffffff16614437565b612ba7576040517f08c379a00000000000000000000000000000000000000000000000000000000081526004018080602001828103825260148152602001807f496e76616c696420746f6b656e2073796d626f6c00000000000000000000000081525060200191505060405180910390fd5b600060076000858152602001908152602001600020905080600101548311612c37576040517f08c379a000000000000000000000000000000000000000000000000000000000815260040180806020018281038252601b8152602001807f436f6c6c61746572616c20616d6f756e7420746f6f20736d616c6c000000000081525060200191505060405180910390fd5b600015158160030160009054906101000a900460ff16151514612cc2576040517f08c379a00000000000000000000000000000000000000000000000000000000081526004018080602001828103825260148152602001807f5468697320746f6b656e20697320636c6f73656400000000000000000000000081525060200191505060405180910390fd5b600033905060006007600087815260200190815260200160002060000160009054906101000a900473ffffffffffffffffffffffffffffffffffffffff169050848173ffffffffffffffffffffffffffffffffffffffff166370a08231846040518263ffffffff1660e01b8152600401808273ffffffffffffffffffffffffffffffffffffffff16815260200191505060206040518083038186803b158015612d6a57600080fd5b505afa158015612d7e573d6000803e3d6000fd5b505050506040513d6020811015612d9457600080fd5b81019080805190602001909291905050501015612e19576040517f08c379a00000000000000000000000000000000000000000000000000000000081526004018080602001828103825260148152602001807f696e73756666696369656e742062616c616e636500000000000000000000000081525060200191505060405180910390fd5b848173ffffffffffffffffffffffffffffffffffffffff1663dd62ed3e84306040518363ffffffff1660e01b8152600401808373ffffffffffffffffffffffffffffffffffffffff1681526020018273ffffffffffffffffffffffffffffffffffffffff1681526020019250505060206040518083038186803b158015612e9f57600080fd5b505afa158015612eb3573d6000803e3d6000fd5b505050506040513d6020811015612ec957600080fd5b81019080805190602001909291905050501015612f31576040517f08c379a00000000000000000000000000000000000000000000000000000000081526004018080602001828103825260308152602001806146e16030913960400191505060405180910390fd5b8073ffffffffffffffffffffffffffffffffffffffff166323b872dd8330886040518463ffffffff1660e01b8152600401808473ffffffffffffffffffffffffffffffffffffffff1681526020018373ffffffffffffffffffffffffffffffffffffffff1681526020018281526020019350505050602060405180830381600087803b158015612fc057600080fd5b505af1158015612fd4573d6000803e3d6000fd5b505050506040513d6020811015612fea57600080fd5b81019080805190602001909291905050505061306285600960008573ffffffffffffffffffffffffffffffffffffffff1673ffffffffffffffffffffffffffffffffffffffff168152602001908152602001600020600089815260200190815260200160002060000154613cb790919063ffffffff16565b600960008473ffffffffffffffffffffffffffffffffffffffff1673ffffffffffffffffffffffffffffffffffffffff1681526020019081526020016000206000888152602001908152602001600020600001819055506130d0858460020154613cb790919063ffffffff16565b83600201819055507fe25398ee94a2ec2dde5992b338a76ddd3a7af4d596cf2d00feba7770b31de299828787600960008773ffffffffffffffffffffffffffffffffffffffff1673ffffffffffffffffffffffffffffffffffffffff16815260200190815260200160002060008b815260200190815260200160002060000154604051808573ffffffffffffffffffffffffffffffffffffffff16815260200184815260200183815260200182815260200194505050505060405180910390a16001935050505092915050565b6000600160149054906101000a900460ff1615613222576040517f08c379a00000000000000000000000000000000000000000000000000000000081526004018080602001828103825260108152602001807f5061757361626c653a207061757365640000000000000000000000000000000081525060200191505060405180910390fd5b6000339050600960008273ffffffffffffffffffffffffffffffffffffffff1673ffffffffffffffffffffffffffffffffffffffff1681526020019081526020016000206000858152602001908152602001600020600001548311156132d3576040517f08c379a00000000000000000000000000000000000000000000000000000000081526004018080602001828103825260238152602001806147a76023913960400191505060405180910390fd5b6000831161332c576040517f08c379a00000000000000000000000000000000000000000000000000000000081526004018080602001828103825260238152602001806147846023913960400191505060405180910390fd5b6000613337826136f2565b905060006133fb600260009054906101000a900473ffffffffffffffffffffffffffffffffffffffff1673ffffffffffffffffffffffffffffffffffffffff166331d98b3f886040518263ffffffff1660e01b81526004018082815260200191505060206040518083038186803b1580156133b157600080fd5b505afa1580156133c5573d6000803e3d6000fd5b505050506040513d60208110156133db57600080fd5b810190808051906020019092919050505083613f2590919063ffffffff16565b905080851115613456576040517f08c379a00000000000000000000000000000000000000000000000000000000081526004018080602001828103825260378152602001806147ca6037913960400191505060405180910390fd5b6134bc85600960008673ffffffffffffffffffffffffffffffffffffffff1673ffffffffffffffffffffffffffffffffffffffff168152602001908152602001600020600089815260200190815260200160002060000154613f5b90919063ffffffff16565b600960008573ffffffffffffffffffffffffffffffffffffffff1673ffffffffffffffffffffffffffffffffffffffff1681526020019081526020016000206000888152602001908152602001600020600001819055506000600760008881526020019081526020016000209050613541868260020154613f5b90919063ffffffff16565b81600201819055506007600088815260200190815260200160002060000160009054906101000a900473ffffffffffffffffffffffffffffffffffffffff1673ffffffffffffffffffffffffffffffffffffffff1663a9059cbb85886040518363ffffffff1660e01b8152600401808373ffffffffffffffffffffffffffffffffffffffff16815260200182815260200192505050602060405180830381600087803b1580156135f057600080fd5b505af1158015613604573d6000803e3d6000fd5b505050506040513d602081101561361a57600080fd5b8101908080519060200190929190505050507ffa659da0063f4e5cf39c3b6dae863e789ab69f82e82925c28cae633a81b2b65d848888600960008973ffffffffffffffffffffffffffffffffffffffff1673ffffffffffffffffffffffffffffffffffffffff16815260200190815260200160002060008c815260200190815260200160002060000154604051808573ffffffffffffffffffffffffffffffffffffffff16815260200184815260200183815260200182815260200194505050505060405180910390a1600194505050505092915050565b6000806136fe8361183a565b90506000600360009054906101000a900473ffffffffffffffffffffffffffffffffffffffff1673ffffffffffffffffffffffffffffffffffffffff16631882d090856040518263ffffffff1660e01b8152600401808273ffffffffffffffffffffffffffffffffffffffff168152602001915050604080518083038186803b15801561378a57600080fd5b505afa15801561379e573d6000803e3d6000fd5b505050506040513d60408110156137b457600080fd5b81019080805190602001909291908051906020019092919050505050905060008114156137e557819250505061397f565b6000600560009054906101000a900473ffffffffffffffffffffffffffffffffffffffff1673ffffffffffffffffffffffffffffffffffffffff1663bd02d0f5600560009054906101000a900473ffffffffffffffffffffffffffffffffffffffff1673ffffffffffffffffffffffffffffffffffffffff16634d6daf046040518163ffffffff1660e01b815260040160206040518083038186803b15801561388d57600080fd5b505afa1580156138a1573d6000803e3d6000fd5b505050506040513d60208110156138b757600080fd5b81019080805190602001909291905050506040518263ffffffff1660e01b81526004018082815260200191505060206040518083038186803b1580156138fc57600080fd5b505afa158015613910573d6000803e3d6000fd5b505050506040513d602081101561392657600080fd5b81019080805190602001909291905050509050600061394e8284613f2590919063ffffffff16565b90508084101561396557600094505050505061397f565b6139788185613f5b90919063ffffffff16565b9450505050505b919050565b60008060009054906101000a900473ffffffffffffffffffffffffffffffffffffffff1673ffffffffffffffffffffffffffffffffffffffff163373ffffffffffffffffffffffffffffffffffffffff1614613a2b576040517f08c379a000000000000000000000000000000000000000000000000000000000815260040180806020018281038252602f815260200180614755602f913960400191505060405180910390fd5b868690508989905014613aa6576040517f08c379a00000000000000000000000000000000000000000000000000000000081526004018080602001828103825260168152602001807f6c656e677468206f66206172726179206e6f742065710000000000000000000081525060200191505060405180910390fd5b848490508989905014613b21576040517f08c379a00000000000000000000000000000000000000000000000000000000081526004018080602001828103825260168152602001807f6c656e677468206f66206172726179206e6f742065710000000000000000000081525060200191505060405180910390fd5b828290508989905014613b9c576040517f08c379a00000000000000000000000000000000000000000000000000000000081526004018080602001828103825260168152602001807f6c656e677468206f66206172726179206e6f742065710000000000000000000081525060200191505060405180910390fd5b60005b89899050811015613c2457613c168a8a83818110613bb957fe5b90506020020135898984818110613bcc57fe5b9050602002013573ffffffffffffffffffffffffffffffffffffffff16888885818110613bf557fe5b90506020020135878786818110613c0857fe5b905060200201351515613fd2565b508080600101915050613b9f565b506001905098975050505050505050565b60008054906101000a900473ffffffffffffffffffffffffffffffffffffffff1681565b6000600960008473ffffffffffffffffffffffffffffffffffffffff1673ffffffffffffffffffffffffffffffffffffffff168152602001908152602001600020600083815260200190815260200160002060000154905092915050565b600080828401905083811015613d35576040517f08c379a000000000000000000000000000000000000000000000000000000000815260040180806020018281038252601b8152602001807f536166654d6174683a206164646974696f6e206f766572666c6f77000000000081525060200191505060405180910390fd5b8091505092915050565b600160149054906101000a900460ff1615613dc2576040517f08c379a00000000000000000000000000000000000000000000000000000000081526004018080602001828103825260108152602001807f5061757361626c653a207061757365640000000000000000000000000000000081525060200191505060405180910390fd5b60018060146101000a81548160ff0219169083151502179055507f62e78cea01bee320cd4e420270b5ea74000d11b0c9f74754ebdbfc544b05a258613e05614482565b604051808273ffffffffffffffffffffffffffffffffffffffff16815260200191505060405180910390a1565b600160149054906101000a900460ff16613eb4576040517f08c379a00000000000000000000000000000000000000000000000000000000081526004018080602001828103825260148152602001807f5061757361626c653a206e6f742070617573656400000000000000000000000081525060200191505060405180910390fd5b6000600160146101000a81548160ff0219169083151502179055507f5db9ee0a495bf2e6ff9c91a7834c1ba4fdd244a5e8aa4e537bd38aeae4b073aa613ef8614482565b604051808273ffffffffffffffffffffffffffffffffffffffff16815260200191505060405180910390a1565b6000613f5382613f45601260ff16600a0a8661448a90919063ffffffff16565b61451090919063ffffffff16565b905092915050565b6000613f9d83836040518060400160405280601e81526020017f536166654d6174683a207375627472616374696f6e206f766572666c6f77000081525061455a565b905092915050565b6000601260ff16600a0a613fc2838561448a90919063ffffffff16565b81613fc957fe5b04905092915050565b60008060f81b85600060208110613fe557fe5b1a60f81b7effffffffffffffffffffffffffffffffffffffffffffffffffffffffffffff1916141561407f576040517f08c379a00000000000000000000000000000000000000000000000000000000081526004018080602001828103825260138152602001807f73796d626f6c2063616e6e6f7420656d7074790000000000000000000000000081525060200191505060405180910390fd5b7f4554480000000000000000000000000000000000000000000000000000000000851415614115576040517f08c379a00000000000000000000000000000000000000000000000000000000081526004018080602001828103825260158152602001807f45544820697320757365642062792073797374656d000000000000000000000081525060200191505060405180910390fd5b600073ffffffffffffffffffffffffffffffffffffffff168473ffffffffffffffffffffffffffffffffffffffff1614156141b8576040517f08c379a00000000000000000000000000000000000000000000000000000000081526004018080602001828103825260198152602001807f746f6b656e20616464726573732063616e6e6f74207a65726f0000000000000081525060200191505060405180910390fd5b6141d78473ffffffffffffffffffffffffffffffffffffffff16614437565b614249576040517f08c379a000000000000000000000000000000000000000000000000000000000815260040180806020018281038252601f8152602001807f746f6b656e2061646472657373206973206e6f74206120636f6e74726163740081525060200191505060405180910390fd5b600073ffffffffffffffffffffffffffffffffffffffff166007600087815260200190815260200160002060000160009054906101000a900473ffffffffffffffffffffffffffffffffffffffff1673ffffffffffffffffffffffffffffffffffffffff1614156142de5760088590806001815401808255809150506001900390600052602060002001600090919091909150555b60006007600087815260200190815260200160002060020154905060405180608001604052808673ffffffffffffffffffffffffffffffffffffffff1681526020018581526020018281526020018415158152506007600088815260200190815260200160002060008201518160000160006101000a81548173ffffffffffffffffffffffffffffffffffffffff021916908373ffffffffffffffffffffffffffffffffffffffff160217905550602082015181600101556040820151816002015560608201518160030160006101000a81548160ff0219169083151502179055509050507fb8ccd92c8fb24731fb4c076a82ecc0f1ff41af213ec928f550aa42fa8e5aee8c86868686604051808581526020018473ffffffffffffffffffffffffffffffffffffffff168152602001838152602001821515815260200194505050505060405180910390a16001915050949350505050565b60008060007fc5d2460186f7233c927e7db2dcc703c0e500b653ca82273b7bfad8045d85a47060001b9050833f915080821415801561447957506000801b8214155b92505050919050565b600033905090565b60008083141561449d576000905061450a565b60008284029050828482816144ae57fe5b0414614505576040517f08c379a00000000000000000000000000000000000000000000000000000000081526004018080602001828103825260218152602001806147116021913960400191505060405180910390fd5b809150505b92915050565b600061455283836040518060400160405280601a81526020017f536166654d6174683a206469766973696f6e206279207a65726f00000000000081525061461a565b905092915050565b6000838311158290614607576040517f08c379a00000000000000000000000000000000000000000000000000000000081526004018080602001828103825283818151815260200191508051906020019080838360005b838110156145cc5780820151818401526020810190506145b1565b50505050905090810190601f1680156145f95780820380516001836020036101000a031916815260200191505b509250505060405180910390fd5b5060008385039050809150509392505050565b600080831182906146c6576040517f08c379a00000000000000000000000000000000000000000000000000000000081526004018080602001828103825283818151815260200191508051906020019080838360005b8381101561468b578082015181840152602081019050614670565b50505050905090810190601f1680156146b85780820380516001836020036101000a031916815260200191505b509250505060405180910390fd5b5060008385816146d257fe5b04905080915050939250505056fe696e73756666696369656e7420616c6c6f77616e63652c206e65656420617070726f7665206d6f726520616d6f756e74536166654d6174683a206d756c7469706c69636174696f6e206f766572666c6f774c6e4275696c644275726e53797374656d2061646472657373206e6f742076616c69644f6e6c792074686520636f6e74726163742061646d696e2063616e20706572666f726d207468697320616374696f6e52656465656d20616d6f756e74206e656564206c6172676572207468616e207a65726f43616e206e6f742072656465656d206d6f7265207468616e20636f6c6c61746572616c42656361757365206c6f77657220636f6c6c61746572616c20726174696f2c2063616e206e6f742072656465656d20746f6f206d756368a2646970667358221220c1ad8c2e22289ad602718fdf7a9252ba27983e5dad7e4a27526db20b30a9c87b64736f6c634300060c0033",
  "immutableReferences": {},
  "source": "// SPDX-License-Identifier: MIT\r\npragma solidity ^0.6.12;\r\n\r\nimport \"./IERC20.sol\";\r\nimport \"./LnAdmin.sol\";\r\nimport \"@openzeppelin/contracts/math/SafeMath.sol\";\r\nimport \"@openzeppelin/contracts/utils/Pausable.sol\";\r\nimport \"@openzeppelin/contracts/utils/Address.sol\";\r\nimport \"./SafeDecimalMath.sol\";\r\nimport \"./LnPrices.sol\";\r\nimport \"./LnAddressCache.sol\";\r\nimport \"./LnDebtSystem.sol\";\r\nimport \"./LnBuildBurnSystem.sol\";\r\nimport \"./LnConfig.sol\";\r\n\r\n// \r\n//   \r\ncontract LnCollateralSystem is LnAdmin, Pausable, LnAddressCache {\r\n    using SafeMath for uint;\r\n    using SafeDecimalMath for uint;\r\n    using Address for address;\r\n\r\n    // -------------------------------------------------------\r\n    // need set before system running value.\r\n    LnPrices private priceGetter;\r\n    LnDebtSystem private debtSystem;\r\n    LnBuildBurnSystem private buildBurnSystem;\r\n    LnConfig private mConfig;\r\n\r\n    bytes32 constant Currency_ETH = \"ETH\";\r\n    \r\n    // -------------------------------------------------------\r\n    uint256 public uniqueId; // use log\r\n\r\n    struct TokenInfo {\r\n        address tokenAddr;\r\n        uint256 minCollateral; // min collateral amount.\r\n        uint256 totalCollateral;\r\n        bool bClose; // TODO : ?\r\n    }\r\n\r\n    mapping (bytes32 => TokenInfo) public tokenInfos;\r\n    bytes32[] public tokenSymbol; // keys of tokenInfos, use to iteration\r\n\r\n    struct CollateralData {\r\n        uint256 collateral; // total collateral\r\n    }\r\n\r\n    // [user] => ([token=> collateraldata])\r\n    mapping (address => mapping(bytes32 => CollateralData)) public userCollateralData;\r\n\r\n    // -------------------------------------------------------\r\n    constructor(address admin) public LnAdmin(admin) {\r\n    }\r\n\r\n    function setPaused(bool _paused) external onlyAdmin {\r\n        if (_paused) {\r\n            _pause();\r\n        } else {\r\n            _unpause();\r\n        }\r\n    }\r\n    // ------------------ system config ----------------------\r\n    function updateAddressCache( LnAddressStorage _addressStorage ) onlyAdmin public override\r\n    {\r\n        priceGetter =     LnPrices(         _addressStorage.getAddressWithRequire( \"LnPrices\",          \"LnPrices address not valid\" ));\r\n        debtSystem =      LnDebtSystem(     _addressStorage.getAddressWithRequire( \"LnDebtSystem\",      \"LnDebtSystem address not valid\" ));\r\n        buildBurnSystem = LnBuildBurnSystem(_addressStorage.getAddressWithRequire( \"LnBuildBurnSystem\", \"LnBuildBurnSystem address not valid\" ));\r\n        mConfig =         LnConfig(         _addressStorage.getAddressWithRequire( \"LnConfig\",          \"LnConfig address not valid\" ) );\r\n\r\n        emit updateCachedAddress( \"LnPrices\",          address(priceGetter) );\r\n        emit updateCachedAddress( \"LnDebtSystem\",      address(debtSystem) );\r\n        emit updateCachedAddress( \"LnBuildBurnSystem\", address(buildBurnSystem) );\r\n        emit updateCachedAddress( \"LnConfig\",          address(mConfig) );\r\n    }\r\n\r\n    function SetPause(bool pause) external onlyAdmin {\r\n        if (pause) {\r\n            _pause();\r\n        } else {\r\n            _unpause();\r\n        }\r\n    }\r\n\r\n    function updateTokenInfo(bytes32 _currency, address _tokenAddr, uint256 _minCollateral, bool _close) private returns (bool) {\r\n        require(_currency[0] != 0, \"symbol cannot empty\");\r\n        require(_currency != Currency_ETH, \"ETH is used by system\");\r\n        require(_tokenAddr != address(0), \"token address cannot zero\");\r\n        require(_tokenAddr.isContract(), \"token address is not a contract\");\r\n\r\n        if (tokenInfos[_currency].tokenAddr == address(0)) {// new token\r\n            tokenSymbol.push(_currency);\r\n        }\r\n\r\n        uint256 totalCollateral = tokenInfos[_currency].totalCollateral;\r\n        tokenInfos[_currency] = TokenInfo({tokenAddr:_tokenAddr, minCollateral:_minCollateral, totalCollateral:totalCollateral, bClose:_close});\r\n        emit UpdateTokenSetting(_currency, _tokenAddr, _minCollateral, _close);\r\n        return true;\r\n    }\r\n\r\n    // delete token info? need to handle it's staking data.\r\n\r\n    function UpdateTokenInfo(bytes32 _currency, address _tokenAddr, uint256 _minCollateral, bool _close) external onlyAdmin returns (bool) {\r\n        return updateTokenInfo(_currency, _tokenAddr, _minCollateral, _close);\r\n    }\r\n\r\n    function UpdateTokenInfos(bytes32[] calldata _symbols, address[] calldata _tokenAddrs, uint256[] calldata _minCollateral, bool[] calldata _closes) external onlyAdmin returns (bool) {\r\n        require(_symbols.length == _tokenAddrs.length, \"length of array not eq\");\r\n        require(_symbols.length == _minCollateral.length, \"length of array not eq\");\r\n        require(_symbols.length == _closes.length, \"length of array not eq\");\r\n\r\n        for (uint256 i=0; i < _symbols.length; i++) {\r\n            updateTokenInfo(_symbols[i], _tokenAddrs[i], _minCollateral[i], _closes[i]);\r\n        }\r\n\r\n        return true;\r\n    }\r\n\r\n    // ------------------------------------------------------------------------\r\n    function GetSystemTotalCollateralInUsd() public view returns (uint256 rTotal) {\r\n        for (uint256 i=0; i< tokenSymbol.length; i++) {\r\n            bytes32 currency = tokenSymbol[i];\r\n            if (tokenInfos[currency].totalCollateral > 0) { // this check for avoid calling getPrice when collateral is zero\r\n                rTotal = rTotal.add( tokenInfos[currency].totalCollateral.multiplyDecimal(priceGetter.getPrice(currency)) );\r\n            }\r\n        }\r\n\r\n        if (address(this).balance > 0) {\r\n            rTotal = rTotal.add(address(this).balance.multiplyDecimal(priceGetter.getPrice(Currency_ETH)));\r\n        }\r\n    }\r\n\r\n    function GetUserTotalCollateralInUsd(address _user) public view returns (uint256 rTotal) {\r\n        for (uint256 i=0; i< tokenSymbol.length; i++) {\r\n            bytes32 currency = tokenSymbol[i];\r\n            if (userCollateralData[_user][currency].collateral > 0) {\r\n                rTotal = rTotal.add( userCollateralData[_user][currency].collateral.multiplyDecimal(priceGetter.getPrice(currency)) );\r\n            }\r\n        }\r\n\r\n        if (userCollateralData[_user][Currency_ETH].collateral > 0) {\r\n            rTotal = rTotal.add( userCollateralData[_user][Currency_ETH].collateral.multiplyDecimal(priceGetter.getPrice(Currency_ETH)) );\r\n        }\r\n    }\r\n\r\n    function GetUserCollateral(address _user, bytes32 _currency) external view returns (uint256) {\r\n        return userCollateralData[_user][_currency].collateral;\r\n    }\r\n\r\n    function GetUserCollaterals(address _user) external view returns (bytes32[] memory, uint256[] memory) {\r\n        bytes32[] memory rCurrency = new bytes32[](tokenSymbol.length + 1);\r\n        uint256[] memory rAmount = new uint256[](tokenSymbol.length + 1);\r\n        uint256 retSize = 0;\r\n        for (uint256 i=0; i < tokenSymbol.length; i++) {\r\n            bytes32 currency = tokenSymbol[i];\r\n            if (userCollateralData[_user][currency].collateral > 0) {\r\n                rCurrency[retSize] = currency;\r\n                rAmount[retSize] = userCollateralData[_user][currency].collateral;\r\n                retSize++;\r\n            }\r\n        }\r\n        if (userCollateralData[_user][Currency_ETH].collateral > 0) {\r\n            rCurrency[retSize] = Currency_ETH;\r\n            rAmount[retSize] = userCollateralData[_user][Currency_ETH].collateral;\r\n            retSize++;\r\n        }\r\n\r\n        return (rCurrency, rAmount); \r\n    }\r\n\r\n    // need approve\r\n    function Collateral(bytes32 _currency, uint256 _amount) external whenNotPaused returns (bool) {\r\n        require(tokenInfos[_currency].tokenAddr.isContract(), \"Invalid token symbol\");\r\n        TokenInfo storage tokeninfo = tokenInfos[_currency];\r\n        require(_amount > tokeninfo.minCollateral, \"Collateral amount too small\");\r\n        require(tokeninfo.bClose == false, \"This token is closed\");\r\n\r\n        address user = msg.sender;\r\n\r\n        IERC20 erc20 = IERC20(tokenInfos[_currency].tokenAddr);\r\n        require(erc20.balanceOf(user) >= _amount, \"insufficient balance\");\r\n        require(erc20.allowance(user, address(this)) >= _amount, \"insufficient allowance, need approve more amount\");\r\n\r\n        erc20.transferFrom(user, address(this), _amount);\r\n\r\n        userCollateralData[user][_currency].collateral = userCollateralData[user][_currency].collateral.add(_amount);\r\n        tokeninfo.totalCollateral = tokeninfo.totalCollateral.add(_amount);\r\n\r\n        emit CollateralLog(user, _currency, _amount, userCollateralData[user][_currency].collateral);\r\n        return true;\r\n    }\r\n\r\n    //  TODO: return multi value\r\n    function MaxRedeemableInUsd(address _user) public view returns (uint256) {\r\n        uint256 totalCollateralInUsd = GetUserTotalCollateralInUsd(_user);\r\n        \r\n        (uint256 debtBalance, ) = debtSystem.GetUserDebtBalanceInUsd(_user);\r\n        if (debtBalance == 0) {\r\n            return totalCollateralInUsd;\r\n        }\r\n\r\n        uint256 buildRatio = mConfig.getUint(mConfig.BUILD_RATIO());\r\n        uint256 minCollateral = debtBalance.divideDecimal(buildRatio);\r\n        if (totalCollateralInUsd < minCollateral) {\r\n            return 0;\r\n        }\r\n        \r\n        return totalCollateralInUsd.sub(minCollateral);\r\n    }\r\n\r\n    // 1. After redeem, collateral ratio need bigger than target ratio.\r\n    // 2. Cannot redeem more than collateral.\r\n    function Redeem(bytes32 _currency, uint256 _amount) external whenNotPaused returns (bool) {\r\n        address user = msg.sender;\r\n        require(_amount <= userCollateralData[user][_currency].collateral, \"Can not redeem more than collateral\");\r\n        require(_amount > 0, \"Redeem amount need larger than zero\");\r\n\r\n        uint256 maxRedeemableInUsd = MaxRedeemableInUsd(user);\r\n        \r\n        uint256 maxRedeem = maxRedeemableInUsd.divideDecimal(priceGetter.getPrice(_currency));\r\n        require(_amount <= maxRedeem, \"Because lower collateral ratio, can not redeem too much\");\r\n\r\n        userCollateralData[user][_currency].collateral = userCollateralData[user][_currency].collateral.sub(_amount);\r\n\r\n        TokenInfo storage tokeninfo = tokenInfos[_currency];\r\n        tokeninfo.totalCollateral = tokeninfo.totalCollateral.sub(_amount);\r\n\r\n        IERC20(tokenInfos[_currency].tokenAddr).transfer(user, _amount);\r\n\r\n        emit RedeemCollateral(user, _currency, _amount, userCollateralData[user][_currency].collateral);\r\n        return true;\r\n    }\r\n\r\n    receive() external whenNotPaused payable {\r\n        address user = msg.sender;\r\n        uint256 ethAmount = msg.value;\r\n        _CollateralEth(user, ethAmount);\r\n    }\r\n\r\n    function _CollateralEth(address user, uint256 ethAmount) internal {\r\n        require(ethAmount > 0, \"ETH amount need more than zero\");\r\n        \r\n        userCollateralData[user][Currency_ETH].collateral = userCollateralData[user][Currency_ETH].collateral.add(ethAmount);\r\n\r\n        emit CollateralLog(user, Currency_ETH, ethAmount, userCollateralData[user][Currency_ETH].collateral);\r\n    }\r\n\r\n    // payable eth receive, \r\n    function CollateralEth() external payable whenNotPaused returns (bool) {\r\n        address user = msg.sender;\r\n        uint256 ethAmount = msg.value;\r\n        _CollateralEth(user, ethAmount);\r\n        return true;\r\n    }\r\n\r\n    function RedeemETH(uint256 _amount) external whenNotPaused returns (bool) {\r\n        address payable user = msg.sender;\r\n        require(_amount <= userCollateralData[user][Currency_ETH].collateral, \"Can not redeem more than collateral\");\r\n        require(_amount > 0, \"Redeem amount need larger than zero\");\r\n\r\n        uint256 maxRedeemableInUsd = MaxRedeemableInUsd(user);\r\n        \r\n        uint256 maxRedeem = maxRedeemableInUsd.divideDecimal(priceGetter.getPrice(Currency_ETH));\r\n        require(_amount <= maxRedeem, \"Because lower collateral ratio, can not redeem too much\");\r\n\r\n        userCollateralData[user][Currency_ETH].collateral = userCollateralData[user][Currency_ETH].collateral.sub(_amount);\r\n        user.transfer(_amount);\r\n\r\n        emit RedeemCollateral(user, Currency_ETH, _amount, userCollateralData[user][Currency_ETH].collateral);\r\n        return true;\r\n    }\r\n\r\n    event UpdateTokenSetting(bytes32 symbol, address tokenAddr, uint256 minCollateral, bool close);\r\n    event CollateralLog(address user, bytes32 _currency, uint256 _amount, uint256 _userTotal);\r\n    event RedeemCollateral(address user, bytes32 _currency, uint256 _amount, uint256 _userTotal);\r\n}\r\n",
  "sourcePath": "/mnt/d/working/linearFinance/smartcontracts/contracts/LnCollateralSystem.sol",
  "compiler": {
    "name": "solc",
    "version": "0.6.12+commit.27d51765.Emscripten.clang"
  },
  "schemaVersion": "3.2.3",
  "updatedAt": "2020-10-07T10:31:52.960Z",
  "networkType": "ethereum",
  "devdoc": {
    "kind": "dev",
    "methods": {
      "paused()": {
        "details": "Returns true if the contract is paused, and false otherwise."
      }
    },
    "version": 1
  },
  "userdoc": {
    "kind": "user",
    "methods": {},
    "version": 1
  }
}