{
  "contractName": "LnDebtSystem",
  "abi": [
    {
      "inputs": [
        {
          "internalType": "address",
          "name": "admin",
          "type": "address"
        }
      ],
      "stateMutability": "nonpayable",
      "type": "constructor"
    },
    {
      "anonymous": false,
      "inputs": [
        {
          "indexed": false,
          "internalType": "address",
          "name": "oldAdmin",
          "type": "address"
        },
        {
          "indexed": false,
          "internalType": "address",
          "name": "newAdmin",
          "type": "address"
        }
      ],
      "name": "AdminChanged",
      "type": "event"
    },
    {
      "anonymous": false,
      "inputs": [
        {
          "indexed": false,
          "internalType": "uint256",
          "name": "index",
          "type": "uint256"
        },
        {
          "indexed": false,
          "internalType": "uint256",
          "name": "newFactor",
          "type": "uint256"
        }
      ],
      "name": "PushDebtLog",
      "type": "event"
    },
    {
      "anonymous": false,
      "inputs": [
        {
          "indexed": false,
          "internalType": "address",
          "name": "oldAddr",
          "type": "address"
        },
        {
          "indexed": false,
          "internalType": "address",
          "name": "newAddr",
          "type": "address"
        }
      ],
      "name": "UpdateAddressStorage",
      "type": "event"
    },
    {
      "anonymous": false,
      "inputs": [
        {
          "indexed": false,
          "internalType": "address",
          "name": "addr",
          "type": "address"
        },
        {
          "indexed": false,
          "internalType": "uint256",
          "name": "debtProportion",
          "type": "uint256"
        },
        {
          "indexed": false,
          "internalType": "uint256",
          "name": "debtFactor",
          "type": "uint256"
        }
      ],
      "name": "UpdateUserDebtLog",
      "type": "event"
    },
    {
      "anonymous": false,
      "inputs": [
        {
          "indexed": false,
          "internalType": "address",
          "name": "oldCandidate",
          "type": "address"
        },
        {
          "indexed": false,
          "internalType": "address",
          "name": "newCandidate",
          "type": "address"
        }
      ],
      "name": "candidateChanged",
      "type": "event"
    },
    {
      "anonymous": false,
      "inputs": [
        {
          "indexed": false,
          "internalType": "bytes32",
          "name": "name",
          "type": "bytes32"
        },
        {
          "indexed": false,
          "internalType": "address",
          "name": "addr",
          "type": "address"
        }
      ],
      "name": "updateCachedAddress",
      "type": "event"
    },
    {
      "inputs": [],
      "name": "MAX_DEL_PER_TIME",
      "outputs": [
        {
          "internalType": "uint256",
          "name": "",
          "type": "uint256"
        }
      ],
      "stateMutability": "view",
      "type": "function"
    },
    {
      "inputs": [],
      "name": "admin",
      "outputs": [
        {
          "internalType": "address",
          "name": "",
          "type": "address"
        }
      ],
      "stateMutability": "view",
      "type": "function"
    },
    {
      "inputs": [],
      "name": "becomeAdmin",
      "outputs": [],
      "stateMutability": "nonpayable",
      "type": "function"
    },
    {
      "inputs": [],
      "name": "candidate",
      "outputs": [
        {
          "internalType": "address",
          "name": "",
          "type": "address"
        }
      ],
      "stateMutability": "view",
      "type": "function"
    },
    {
      "inputs": [],
      "name": "debtCurrentIndex",
      "outputs": [
        {
          "internalType": "uint256",
          "name": "",
          "type": "uint256"
        }
      ],
      "stateMutability": "view",
      "type": "function"
    },
    {
      "inputs": [],
      "name": "lastCloseAt",
      "outputs": [
        {
          "internalType": "uint256",
          "name": "",
          "type": "uint256"
        }
      ],
      "stateMutability": "view",
      "type": "function"
    },
    {
      "inputs": [
        {
          "internalType": "uint256",
          "name": "",
          "type": "uint256"
        }
      ],
      "name": "lastDebtFactors",
      "outputs": [
        {
          "internalType": "uint256",
          "name": "",
          "type": "uint256"
        }
      ],
      "stateMutability": "view",
      "type": "function"
    },
    {
      "inputs": [],
      "name": "lastDeletTo",
      "outputs": [
        {
          "internalType": "uint256",
          "name": "",
          "type": "uint256"
        }
      ],
      "stateMutability": "view",
      "type": "function"
    },
    {
      "inputs": [
        {
          "internalType": "address",
          "name": "_candidate",
          "type": "address"
        }
      ],
      "name": "setCandidate",
      "outputs": [],
      "stateMutability": "nonpayable",
      "type": "function"
    },
    {
      "inputs": [
        {
          "internalType": "address",
          "name": "",
          "type": "address"
        }
      ],
      "name": "userDebtState",
      "outputs": [
        {
          "internalType": "uint256",
          "name": "debtProportion",
          "type": "uint256"
        },
        {
          "internalType": "uint256",
          "name": "debtFactor",
          "type": "uint256"
        }
      ],
      "stateMutability": "view",
      "type": "function"
    },
    {
      "inputs": [
        {
          "internalType": "contract LnAddressStorage",
          "name": "_addressStorage",
          "type": "address"
        }
      ],
      "name": "updateAddressCache",
      "outputs": [],
      "stateMutability": "nonpayable",
      "type": "function"
    },
    {
      "inputs": [
        {
          "internalType": "uint256",
          "name": "index",
          "type": "uint256"
        }
      ],
      "name": "SetLastCloseFeePeriodAt",
      "outputs": [],
      "stateMutability": "nonpayable",
      "type": "function"
    },
    {
      "inputs": [
        {
          "internalType": "uint256",
          "name": "_factor",
          "type": "uint256"
        }
      ],
      "name": "PushDebtFactor",
      "outputs": [],
      "stateMutability": "nonpayable",
      "type": "function"
    },
    {
      "inputs": [
        {
          "internalType": "address",
          "name": "_user",
          "type": "address"
        },
        {
          "internalType": "uint256",
          "name": "_debtProportion",
          "type": "uint256"
        }
      ],
      "name": "UpdateUserDebt",
      "outputs": [],
      "stateMutability": "nonpayable",
      "type": "function"
    },
    {
      "inputs": [
        {
          "internalType": "address",
          "name": "_user",
          "type": "address"
        },
        {
          "internalType": "uint256",
          "name": "_debtProportion",
          "type": "uint256"
        },
        {
          "internalType": "uint256",
          "name": "_factor",
          "type": "uint256"
        }
      ],
      "name": "UpdateDebt",
      "outputs": [],
      "stateMutability": "nonpayable",
      "type": "function"
    },
    {
      "inputs": [
        {
          "internalType": "address",
          "name": "_user",
          "type": "address"
        }
      ],
      "name": "GetUserDebtData",
      "outputs": [
        {
          "internalType": "uint256",
          "name": "debtProportion",
          "type": "uint256"
        },
        {
          "internalType": "uint256",
          "name": "debtFactor",
          "type": "uint256"
        }
      ],
      "stateMutability": "view",
      "type": "function"
    },
    {
      "inputs": [],
      "name": "LastSystemDebtFactor",
      "outputs": [
        {
          "internalType": "uint256",
          "name": "",
          "type": "uint256"
        }
      ],
      "stateMutability": "view",
      "type": "function"
    },
    {
      "inputs": [
        {
          "internalType": "address",
          "name": "_user",
          "type": "address"
        }
      ],
      "name": "GetUserCurrentDebtProportion",
      "outputs": [
        {
          "internalType": "uint256",
          "name": "",
          "type": "uint256"
        }
      ],
      "stateMutability": "view",
      "type": "function"
    },
    {
      "inputs": [
        {
          "internalType": "address",
          "name": "_user",
          "type": "address"
        }
      ],
      "name": "GetUserDebtBalanceInUsd",
      "outputs": [
        {
          "internalType": "uint256",
          "name": "",
          "type": "uint256"
        },
        {
          "internalType": "uint256",
          "name": "",
          "type": "uint256"
        }
      ],
      "stateMutability": "view",
      "type": "function"
    }
  ],
  "bytecode": "0x608060405234801561001057600080fd5b5060405161232a38038061232a8339818101604052602081101561003357600080fd5b810190808051906020019092919050505080600073ffffffffffffffffffffffffffffffffffffffff168173ffffffffffffffffffffffffffffffffffffffff1614156100e8576040517f08c379a00000000000000000000000000000000000000000000000000000000081526004018080602001828103825260198152602001807f61646d696e20616464726573732063616e6e6f7420626520300000000000000081525060200191505060405180910390fd5b806000806101000a81548173ffffffffffffffffffffffffffffffffffffffff021916908373ffffffffffffffffffffffffffffffffffffffff1602179055507f7e644d79422f17c01e4894b5f4f588d331ebfa28653d42ae832dc59e38c9798f600082604051808373ffffffffffffffffffffffffffffffffffffffff1681526020018273ffffffffffffffffffffffffffffffffffffffff1681526020019250505060405180910390a15050612185806101a56000396000f3fe608060405234801561001057600080fd5b50600436106101215760003560e01c806363bc6c4a116100ad578063cb6a110511610071578063cb6a11051461046f578063e8b1b8e51461048d578063f851a440146104db578063f86dfd5e1461050f578063f9c9e0591461052d57610121565b806363bc6c4a146102f75780636c8381f8146103565780636da8e4641461038a57806384b5d5a6146103b8578063c158ef181461041757610121565b80631882d090116100f45780631882d0901461020e5780631b72d16d1461026d57806325971dff1461028b5780632798e8c1146102955780635a5f14c8146102b357610121565b8063028667d31461012657806307880b7f1461017e5780630b921df6146101c257806311b46426146101e0575b600080fd5b61017c6004803603606081101561013c57600080fd5b81019080803573ffffffffffffffffffffffffffffffffffffffff169060200190929190803590602001909291908035906020019092919050505061056f565b005b6101c06004803603602081101561019457600080fd5b81019080803573ffffffffffffffffffffffffffffffffffffffff169060200190929190505050610769565b005b6101ca610906565b6040518082815260200191505060405180910390f35b61020c600480360360208110156101f657600080fd5b810190808035906020019092919050505061090c565b005b6102506004803603602081101561022457600080fd5b81019080803573ffffffffffffffffffffffffffffffffffffffff169060200190929190505050610afa565b604051808381526020018281526020019250505060405180910390f35b610275610cb2565b6040518082815260200191505060405180910390f35b610293610cb8565b005b61029d610e91565b6040518082815260200191505060405180910390f35b6102f5600480360360208110156102c957600080fd5b81019080803573ffffffffffffffffffffffffffffffffffffffff169060200190929190505050610e96565b005b6103396004803603602081101561030d57600080fd5b81019080803573ffffffffffffffffffffffffffffffffffffffff169060200190929190505050611298565b604051808381526020018281526020019250505060405180910390f35b61035e6112bc565b604051808273ffffffffffffffffffffffffffffffffffffffff16815260200191505060405180910390f35b6103b6600480360360208110156103a057600080fd5b81019080803590602001909291905050506112e2565b005b6103fa600480360360208110156103ce57600080fd5b81019080803573ffffffffffffffffffffffffffffffffffffffff1690602001909291905050506115a1565b604051808381526020018281526020019250505060405180910390f35b6104596004803603602081101561042d57600080fd5b81019080803573ffffffffffffffffffffffffffffffffffffffff169060200190929190505050611633565b6040518082815260200191505060405180910390f35b610477611712565b6040518082815260200191505060405180910390f35b6104d9600480360360408110156104a357600080fd5b81019080803573ffffffffffffffffffffffffffffffffffffffff16906020019092919080359060200190929190505050611721565b005b6104e3611911565b604051808273ffffffffffffffffffffffffffffffffffffffff16815260200191505060405180910390f35b610517611935565b6040518082815260200191505060405180910390f35b6105596004803603602081101561054357600080fd5b810190808035906020019092919050505061193b565b6040518082815260200191505060405180910390f35b33600260009054906101000a900473ffffffffffffffffffffffffffffffffffffffff1673ffffffffffffffffffffffffffffffffffffffff166391d14854600260009054906101000a900473ffffffffffffffffffffffffffffffffffffffff1673ffffffffffffffffffffffffffffffffffffffff1663435e60ae6040518163ffffffff1660e01b815260040160206040518083038186803b15801561061657600080fd5b505afa15801561062a573d6000803e3d6000fd5b505050506040513d602081101561064057600080fd5b8101908080519060200190929190505050836040518363ffffffff1660e01b8152600401808381526020018273ffffffffffffffffffffffffffffffffffffffff1681526020019250505060206040518083038186803b1580156106a357600080fd5b505afa1580156106b7573d6000803e3d6000fd5b505050506040513d60208110156106cd57600080fd5b8101908080519060200190929190505050610750576040517f08c379a000000000000000000000000000000000000000000000000000000000815260040180806020018281038252601c8152602001807f4e65656420646562742073797374656d2061636365737320726f6c650000000081525060200191505060405180910390fd5b61075982611953565b6107638484611b54565b50505050565b60008054906101000a900473ffffffffffffffffffffffffffffffffffffffff1673ffffffffffffffffffffffffffffffffffffffff163373ffffffffffffffffffffffffffffffffffffffff161461080d576040517f08c379a000000000000000000000000000000000000000000000000000000000815260040180806020018281038252602f815260200180612121602f913960400191505060405180910390fd5b6000600160009054906101000a900473ffffffffffffffffffffffffffffffffffffffff16905081600160006101000a81548173ffffffffffffffffffffffffffffffffffffffff021916908373ffffffffffffffffffffffffffffffffffffffff1602179055507f0faed18be9e8f4d4c05dfbcc80ea2c97a0be729614d766827778f60890c02cab81600160009054906101000a900473ffffffffffffffffffffffffffffffffffffffff16604051808373ffffffffffffffffffffffffffffffffffffffff1681526020018273ffffffffffffffffffffffffffffffffffffffff1681526020019250505060405180910390a15050565b60075481565b33600260009054906101000a900473ffffffffffffffffffffffffffffffffffffffff1673ffffffffffffffffffffffffffffffffffffffff166391d14854600260009054906101000a900473ffffffffffffffffffffffffffffffffffffffff1673ffffffffffffffffffffffffffffffffffffffff1663435e60ae6040518163ffffffff1660e01b815260040160206040518083038186803b1580156109b357600080fd5b505afa1580156109c7573d6000803e3d6000fd5b505050506040513d60208110156109dd57600080fd5b8101908080519060200190929190505050836040518363ffffffff1660e01b8152600401808381526020018273ffffffffffffffffffffffffffffffffffffffff1681526020019250505060206040518083038186803b158015610a4057600080fd5b505afa158015610a54573d6000803e3d6000fd5b505050506040513d6020811015610a6a57600080fd5b8101908080519060200190929190505050610aed576040517f08c379a000000000000000000000000000000000000000000000000000000000815260040180806020018281038252601c8152602001807f4e65656420646562742073797374656d2061636365737320726f6c650000000081525060200191505060405180910390fd5b610af682611953565b5050565b6000806000600360009054906101000a900473ffffffffffffffffffffffffffffffffffffffff1673ffffffffffffffffffffffffffffffffffffffff1663f5d129896040518163ffffffff1660e01b815260040160206040518083038186803b158015610b6757600080fd5b505afa158015610b7b573d6000803e3d6000fd5b505050506040513d6020811015610b9157600080fd5b810190808051906020019092919050505090506000600460008673ffffffffffffffffffffffffffffffffffffffff1673ffffffffffffffffffffffffffffffffffffffff1681526020019081526020016000206000015490506000600460008773ffffffffffffffffffffffffffffffffffffffff1673ffffffffffffffffffffffffffffffffffffffff1681526020019081526020016000206001015490506000821415610c4a5760008394509450505050610cad565b6000610c7883610c6a84610c5c611c8c565b611d3d90919063ffffffff16565b611d5990919063ffffffff16565b90506000610c9f610c9a83610c8c88611d75565b611d5990919063ffffffff16565b611d9b565b905080859650965050505050505b915091565b60085481565b600160009054906101000a900473ffffffffffffffffffffffffffffffffffffffff1673ffffffffffffffffffffffffffffffffffffffff163373ffffffffffffffffffffffffffffffffffffffff1614610d7b576040517f08c379a000000000000000000000000000000000000000000000000000000000815260040180806020018281038252601f8152602001807f4f6e6c792063616e6469646174652063616e206265636f6d652061646d696e0081525060200191505060405180910390fd5b60008060009054906101000a900473ffffffffffffffffffffffffffffffffffffffff169050600160009054906101000a900473ffffffffffffffffffffffffffffffffffffffff166000806101000a81548173ffffffffffffffffffffffffffffffffffffffff021916908373ffffffffffffffffffffffffffffffffffffffff1602179055507f7e644d79422f17c01e4894b5f4f588d331ebfa28653d42ae832dc59e38c9798f8160008054906101000a900473ffffffffffffffffffffffffffffffffffffffff16604051808373ffffffffffffffffffffffffffffffffffffffff1681526020018273ffffffffffffffffffffffffffffffffffffffff1681526020019250505060405180910390a150565b603281565b60008054906101000a900473ffffffffffffffffffffffffffffffffffffffff1673ffffffffffffffffffffffffffffffffffffffff163373ffffffffffffffffffffffffffffffffffffffff1614610f3a576040517f08c379a000000000000000000000000000000000000000000000000000000000815260040180806020018281038252602f815260200180612121602f913960400191505060405180910390fd5b8073ffffffffffffffffffffffffffffffffffffffff1663768911da6040518163ffffffff1660e01b815260040180807f4c6e416363657373436f6e74726f6c000000000000000000000000000000000081525060200180602001828103825260218152602001806120bd6021913960400191505060206040518083038186803b158015610fc757600080fd5b505afa158015610fdb573d6000803e3d6000fd5b505050506040513d6020811015610ff157600080fd5b8101908080519060200190929190505050600260006101000a81548173ffffffffffffffffffffffffffffffffffffffff021916908373ffffffffffffffffffffffffffffffffffffffff1602179055508073ffffffffffffffffffffffffffffffffffffffff1663768911da6040518163ffffffff1660e01b815260040180807f4c6e417373657453797374656d00000000000000000000000000000000000000815250602001806020018281038252601f8152602001807f4c6e417373657453797374656d2061646472657373206e6f742076616c69640081525060200191505060206040518083038186803b1580156110ec57600080fd5b505afa158015611100573d6000803e3d6000fd5b505050506040513d602081101561111657600080fd5b8101908080519060200190929190505050600360006101000a81548173ffffffffffffffffffffffffffffffffffffffff021916908373ffffffffffffffffffffffffffffffffffffffff1602179055507f45a7f8d84f7ad724869d024abcaa743ae6aec455a969df76b5d1e9c5cac4d2ae600260009054906101000a900473ffffffffffffffffffffffffffffffffffffffff1660405180807f4c6e416363657373436f6e74726f6c00000000000000000000000000000000008152506020018273ffffffffffffffffffffffffffffffffffffffff16815260200191505060405180910390a17f45a7f8d84f7ad724869d024abcaa743ae6aec455a969df76b5d1e9c5cac4d2ae600360009054906101000a900473ffffffffffffffffffffffffffffffffffffffff1660405180807f4c6e417373657453797374656d000000000000000000000000000000000000008152506020018273ffffffffffffffffffffffffffffffffffffffff16815260200191505060405180910390a150565b60046020528060005260406000206000915090508060000154908060010154905082565b600160009054906101000a900473ffffffffffffffffffffffffffffffffffffffff1681565b33600260009054906101000a900473ffffffffffffffffffffffffffffffffffffffff1673ffffffffffffffffffffffffffffffffffffffff166391d14854600260009054906101000a900473ffffffffffffffffffffffffffffffffffffffff1673ffffffffffffffffffffffffffffffffffffffff1663435e60ae6040518163ffffffff1660e01b815260040160206040518083038186803b15801561138957600080fd5b505afa15801561139d573d6000803e3d6000fd5b505050506040513d60208110156113b357600080fd5b8101908080519060200190929190505050836040518363ffffffff1660e01b8152600401808381526020018273ffffffffffffffffffffffffffffffffffffffff1681526020019250505060206040518083038186803b15801561141657600080fd5b505afa15801561142a573d6000803e3d6000fd5b505050506040513d602081101561144057600080fd5b81019080805190602001909291905050506114c3576040517f08c379a000000000000000000000000000000000000000000000000000000000815260040180806020018281038252601c8152602001807f4e65656420646562742073797374656d2061636365737320726f6c650000000081525060200191505060405180910390fd5b60075482101561151e576040517f08c379a00000000000000000000000000000000000000000000000000000000081526004018080602001828103825260228152602001806120ff6022913960400191505060405180910390fd5b600654821115611596576040517f08c379a000000000000000000000000000000000000000000000000000000000815260040180806020018281038252601d8152602001807f43616e206e6f7420636c6f73652061742066757475726520696e64657800000081525060200191505060405180910390fd5b816007819055505050565b600080600460008473ffffffffffffffffffffffffffffffffffffffff1673ffffffffffffffffffffffffffffffffffffffff168152602001908152602001600020600001549150600460008473ffffffffffffffffffffffffffffffffffffffff1673ffffffffffffffffffffffffffffffffffffffff168152602001908152602001600020600101549050915091565b600080600460008473ffffffffffffffffffffffffffffffffffffffff1673ffffffffffffffffffffffffffffffffffffffff1681526020019081526020016000206000015490506000600460008573ffffffffffffffffffffffffffffffffffffffff1673ffffffffffffffffffffffffffffffffffffffff16815260200190815260200160002060010154905060008214156116d65760009250505061170d565b6000611704836116f6846116e8611c8c565b611d3d90919063ffffffff16565b611d5990919063ffffffff16565b90508093505050505b919050565b600061171c611c8c565b905090565b33600260009054906101000a900473ffffffffffffffffffffffffffffffffffffffff1673ffffffffffffffffffffffffffffffffffffffff166391d14854600260009054906101000a900473ffffffffffffffffffffffffffffffffffffffff1673ffffffffffffffffffffffffffffffffffffffff1663435e60ae6040518163ffffffff1660e01b815260040160206040518083038186803b1580156117c857600080fd5b505afa1580156117dc573d6000803e3d6000fd5b505050506040513d60208110156117f257600080fd5b8101908080519060200190929190505050836040518363ffffffff1660e01b8152600401808381526020018273ffffffffffffffffffffffffffffffffffffffff1681526020019250505060206040518083038186803b15801561185557600080fd5b505afa158015611869573d6000803e3d6000fd5b505050506040513d602081101561187f57600080fd5b8101908080519060200190929190505050611902576040517f08c379a000000000000000000000000000000000000000000000000000000000815260040180806020018281038252601c8152602001807f4e65656420646562742073797374656d2061636365737320726f6c650000000081525060200191505060405180910390fd5b61190c8383611b54565b505050565b60008054906101000a900473ffffffffffffffffffffffffffffffffffffffff1681565b60065481565b60056020528060005260406000206000915090505481565b6000600654148061197c5750600060056000600160065403815260200190815260200160002054145b15611a1e5773__SafeDecimalMath_______________________63d5e5e6e66040518163ffffffff1660e01b815260040160206040518083038186803b1580156119c557600080fd5b505af41580156119d9573d6000803e3d6000fd5b505050506040513d60208110156119ef57600080fd5b810190808051906020019092919050505060056000600654815260200190815260200160002081905550611a63565b611a498160056000600160065403815260200190815260200160002054611d5990919063ffffffff16565b600560006006548152602001908152602001600020819055505b7fb8a820a3a119d5a246fc69ab3f488a246d2bbaa2e1571331ba2fd03111a8d76e60065460056000600654815260200190815260200160002054604051808381526020018281526020019250505060405180910390a1611acf6001600654611dea90919063ffffffff16565b6006819055506007546008541015611b5157600060085460075403905060328111611afa5780611afd565b60325b9050600060085490505b81811015611b335760056000828152602001908152602001600020600090558080600101915050611b07565b50611b4981600854611dea90919063ffffffff16565b600881905550505b50565b80600460008473ffffffffffffffffffffffffffffffffffffffff1673ffffffffffffffffffffffffffffffffffffffff16815260200190815260200160002060000181905550611ba3611c8c565b600460008473ffffffffffffffffffffffffffffffffffffffff1673ffffffffffffffffffffffffffffffffffffffff168152602001908152602001600020600101819055507f13ff2faa1ac98e72ddd0663ed7a48704f7e2537334a50d2318a5e8efc74674c18282600460008673ffffffffffffffffffffffffffffffffffffffff1673ffffffffffffffffffffffffffffffffffffffff16815260200190815260200160002060010154604051808473ffffffffffffffffffffffffffffffffffffffff168152602001838152602001828152602001935050505060405180910390a15050565b6000806006541415611d1e5773__SafeDecimalMath_______________________63d5e5e6e66040518163ffffffff1660e01b815260040160206040518083038186803b158015611cdc57600080fd5b505af4158015611cf0573d6000803e3d6000fd5b505050506040513d6020811015611d0657600080fd5b81019080805190602001909291905050509050611d3a565b6005600060016006540381526020019081526020016000205490505b90565b6000611d518383601b60ff16600a0a611e72565b905092915050565b6000611d6d8383601b60ff16600a0a611ecd565b905092915050565b6000611d946012601b0360ff16600a0a83611f2690919063ffffffff16565b9050919050565b600080600a6012601b0360ff16600a0a81611db257fe5b048381611dbb57fe5b0490506005600a8281611dca57fe5b0610611dd757600a810190505b600a8181611de157fe5b04915050919050565b600080828401905083811015611e68576040517f08c379a000000000000000000000000000000000000000000000000000000000815260040180806020018281038252601b8152602001807f536166654d6174683a206164646974696f6e206f766572666c6f77000000000081525060200191505060405180910390fd5b8091505092915050565b600080611e9d84611e8f600a860288611f2690919063ffffffff16565b611fac90919063ffffffff16565b90506005600a8281611eab57fe5b0610611eb857600a810190505b600a8181611ec257fe5b049150509392505050565b600080600a8381611eda57fe5b04611eee8587611f2690919063ffffffff16565b81611ef557fe5b0490506005600a8281611f0457fe5b0610611f1157600a810190505b600a8181611f1b57fe5b049150509392505050565b600080831415611f395760009050611fa6565b6000828402905082848281611f4a57fe5b0414611fa1576040517f08c379a00000000000000000000000000000000000000000000000000000000081526004018080602001828103825260218152602001806120de6021913960400191505060405180910390fd5b809150505b92915050565b6000611fee83836040518060400160405280601a81526020017f536166654d6174683a206469766973696f6e206279207a65726f000000000000815250611ff6565b905092915050565b600080831182906120a2576040517f08c379a00000000000000000000000000000000000000000000000000000000081526004018080602001828103825283818151815260200191508051906020019080838360005b8381101561206757808201518184015260208101905061204c565b50505050905090810190601f1680156120945780820380516001836020036101000a031916815260200191505b509250505060405180910390fd5b5060008385816120ae57fe5b04905080915050939250505056fe4c6e416363657373436f6e74726f6c2061646472657373206e6f742076616c6964536166654d6174683a206d756c7469706c69636174696f6e206f766572666c6f77436c6f736520696e6465782063616e206e6f742072657475726e20746f20706173734f6e6c792074686520636f6e74726163742061646d696e2063616e20706572666f726d207468697320616374696f6ea2646970667358221220f8ec4fbf93c5d5991af7136061a2e444bfd7a5ff01929e60417340d5b67ac6e964736f6c634300060c0033",
  "immutableReferences": {},
  "source": "// SPDX-License-Identifier: MIT\r\npragma solidity ^0.6.12;\r\n\r\nimport \"./LnAdmin.sol\";\r\nimport \"@openzeppelin/contracts/math/SafeMath.sol\";\r\nimport \"@openzeppelin/contracts/utils/Address.sol\";\r\nimport \"./SafeDecimalMath.sol\";\r\nimport \"./LnAddressCache.sol\";\r\nimport \"./LnAccessControl.sol\";\r\nimport \"./LnAssetSystem.sol\";\r\nimport \"./LnConfig.sol\";\r\n\r\ncontract LnDebtSystem is LnAdmin, LnAddressCache {\r\n    using SafeMath for uint;\r\n    using SafeDecimalMath for uint;\r\n    using Address for address;\r\n\r\n    // -------------------------------------------------------\r\n    // need set before system running value.\r\n    LnAccessControl private accessCtrl;\r\n    LnAssetSystem private assetSys;\r\n    // -------------------------------------------------------\r\n    struct DebtData {\r\n        uint256 debtProportion;\r\n        uint256 debtFactor; // PRECISE_UNIT\r\n    }\r\n    mapping(address => DebtData) public userDebtState;\r\n\r\n    //use mapping to store array data\r\n    mapping (uint256=>uint256) public lastDebtFactors; // PRECISE_UNIT Note:  factor  factor, index\r\n    uint256 public debtCurrentIndex; // length of array. this index of array no value\r\n    // follow var use to manage array size.\r\n    uint256 public lastCloseAt; // close at array index\r\n    uint256 public lastDeletTo; // delete to array index, lastDeletTo < lastCloseAt\r\n    uint256 public constant MAX_DEL_PER_TIME = 50;\r\n    // \r\n\r\n    // -------------------------------------------------------\r\n    constructor(address admin) public LnAdmin(admin) {\r\n    }\r\n\r\n    event UpdateAddressStorage(address oldAddr, address newAddr);\r\n    event UpdateUserDebtLog(address addr, uint256 debtProportion, uint256 debtFactor);\r\n    event PushDebtLog(uint256 index, uint256 newFactor);\r\n\r\n    // ------------------ system config ----------------------\r\n    function updateAddressCache( LnAddressStorage _addressStorage ) onlyAdmin public override\r\n    {\r\n        accessCtrl = LnAccessControl(_addressStorage.getAddressWithRequire( \"LnAccessControl\", \"LnAccessControl address not valid\" ));\r\n        assetSys =   LnAssetSystem(  _addressStorage.getAddressWithRequire( \"LnAssetSystem\",   \"LnAssetSystem address not valid\" ));\r\n\r\n        emit updateCachedAddress( \"LnAccessControl\", address(accessCtrl) );\r\n        emit updateCachedAddress( \"LnAssetSystem\",   address(assetSys) );\r\n    }\r\n    \r\n    // -----------------------------------------------\r\n    modifier OnlyDebtSystemRole(address _address) {\r\n        require(accessCtrl.hasRole(accessCtrl.DEBT_SYSTEM(), _address), \"Need debt system access role\");\r\n        _;\r\n    }\r\n\r\n    function SetLastCloseFeePeriodAt(uint256 index) external OnlyDebtSystemRole(msg.sender) {\r\n        require(index >= lastCloseAt, \"Close index can not return to pass\");\r\n        require(index <= debtCurrentIndex, \"Can not close at future index\");\r\n        lastCloseAt = index;\r\n    }\r\n\r\n    function _pushDebtFactor(uint256 _factor) private {\r\n        if (debtCurrentIndex == 0 || lastDebtFactors[debtCurrentIndex-1] == 0) { // init or all debt has be cleared, new set value will be one unit\r\n            lastDebtFactors[debtCurrentIndex] = SafeDecimalMath.preciseUnit();\r\n        } else {\r\n            lastDebtFactors[debtCurrentIndex] = lastDebtFactors[debtCurrentIndex-1].multiplyDecimalRoundPrecise(_factor);\r\n        }\r\n        emit PushDebtLog(debtCurrentIndex, lastDebtFactors[debtCurrentIndex]);\r\n\r\n        debtCurrentIndex = debtCurrentIndex.add(1);\r\n\r\n        // delete out of date data\r\n        if (lastDeletTo < lastCloseAt) { // safe check \r\n            uint256 delNum = lastCloseAt - lastDeletTo;\r\n            delNum = (delNum > MAX_DEL_PER_TIME) ? MAX_DEL_PER_TIME : delNum; // not delete all in one call, for saving someone fee.\r\n            for (uint256 i=lastDeletTo; i<delNum; i++) {\r\n                delete lastDebtFactors[i];\r\n            }\r\n            lastDeletTo = lastDeletTo.add(delNum);\r\n        }\r\n    }\r\n\r\n    function PushDebtFactor(uint256 _factor) external OnlyDebtSystemRole(msg.sender) {\r\n        _pushDebtFactor(_factor);\r\n    }\r\n\r\n    function _updateUserDebt(address _user, uint256 _debtProportion) private {\r\n        userDebtState[_user].debtProportion = _debtProportion;\r\n        userDebtState[_user].debtFactor = _lastSystemDebtFactor();\r\n        emit UpdateUserDebtLog(_user, _debtProportion, userDebtState[_user].debtFactor);\r\n    }\r\n\r\n    // need update lastDebtFactors first\r\n    function UpdateUserDebt(address _user, uint256 _debtProportion) external OnlyDebtSystemRole(msg.sender) {\r\n        _updateUserDebt(_user, _debtProportion);\r\n    }\r\n\r\n    function UpdateDebt(address _user, uint256 _debtProportion, uint256 _factor) external OnlyDebtSystemRole(msg.sender) {\r\n        _pushDebtFactor(_factor);\r\n        _updateUserDebt(_user, _debtProportion);\r\n    }\r\n\r\n    function GetUserDebtData(address _user) external view returns (uint256 debtProportion, uint256 debtFactor) {\r\n        debtProportion = userDebtState[_user].debtProportion;\r\n        debtFactor = userDebtState[_user].debtFactor;\r\n    }\r\n\r\n    function _lastSystemDebtFactor() private view returns (uint256) {\r\n        if (debtCurrentIndex == 0) {\r\n            return SafeDecimalMath.preciseUnit();\r\n        }\r\n        return lastDebtFactors[debtCurrentIndex-1];\r\n    }\r\n\r\n    function LastSystemDebtFactor() external view returns (uint256) {\r\n        return _lastSystemDebtFactor();\r\n    }\r\n\r\n    function GetUserCurrentDebtProportion(address _user) public view returns(uint256) {\r\n        uint256 debtProportion = userDebtState[_user].debtProportion;\r\n        uint256 debtFactor = userDebtState[_user].debtFactor;\r\n\r\n        if (debtProportion == 0) {\r\n            return 0;\r\n        }\r\n\r\n        uint256 currentUserDebtProportion = _lastSystemDebtFactor()\r\n                .divideDecimalRoundPrecise(debtFactor)\r\n                .multiplyDecimalRoundPrecise(debtProportion);\r\n        return currentUserDebtProportion;\r\n    }\r\n\r\n    /**\r\n     *\r\n     *@return [0] the debt balance of user. [1] system total asset in usd.\r\n     */\r\n    function GetUserDebtBalanceInUsd(address _user) external view returns (uint256, uint256) {\r\n        uint256 totalAssetSupplyInUsd = assetSys.totalAssetsInUsd();\r\n\r\n        uint256 debtProportion = userDebtState[_user].debtProportion;\r\n        uint256 debtFactor = userDebtState[_user].debtFactor;\r\n\r\n        if (debtProportion == 0) {\r\n            return (0, totalAssetSupplyInUsd);\r\n        }\r\n\r\n        uint256 currentUserDebtProportion = _lastSystemDebtFactor()\r\n                .divideDecimalRoundPrecise(debtFactor)\r\n                .multiplyDecimalRoundPrecise(debtProportion);\r\n        uint256 userDebtBalance = totalAssetSupplyInUsd\r\n                .decimalToPreciseDecimal()\r\n                .multiplyDecimalRoundPrecise(currentUserDebtProportion)\r\n                .preciseDecimalToDecimal();\r\n\r\n        return (userDebtBalance, totalAssetSupplyInUsd);\r\n    }\r\n}\r\n",
  "sourcePath": "/mnt/d/working/linearFinance/smartcontracts/contracts/LnDebtSystem.sol",
  "compiler": {
    "name": "solc",
    "version": "0.6.12+commit.27d51765.Emscripten.clang"
  },
  "schemaVersion": "3.2.3",
  "updatedAt": "2020-09-29T06:03:19.645Z",
  "devdoc": {
    "kind": "dev",
    "methods": {
      "GetUserDebtBalanceInUsd(address)": {
        "returns": {
          "_0": "[0] the debt balance of user. [1] system total asset in usd."
        }
      }
    },
    "version": 1
  },
  "userdoc": {
    "kind": "user",
    "methods": {},
    "version": 1
  }
}