{
  "contractName": "LnDebtSystem",
  "abi": [
    {
      "inputs": [
        {
          "internalType": "address",
          "name": "admin",
          "type": "address"
        }
      ],
      "stateMutability": "nonpayable",
      "type": "constructor"
    },
    {
      "anonymous": false,
      "inputs": [
        {
          "indexed": false,
          "internalType": "address",
          "name": "oldAdmin",
          "type": "address"
        },
        {
          "indexed": false,
          "internalType": "address",
          "name": "newAdmin",
          "type": "address"
        }
      ],
      "name": "AdminChanged",
      "type": "event"
    },
    {
      "anonymous": false,
      "inputs": [
        {
          "indexed": false,
          "internalType": "uint256",
          "name": "index",
          "type": "uint256"
        },
        {
          "indexed": false,
          "internalType": "uint256",
          "name": "newFactor",
          "type": "uint256"
        }
      ],
      "name": "PushDebtLog",
      "type": "event"
    },
    {
      "anonymous": false,
      "inputs": [
        {
          "indexed": false,
          "internalType": "address",
          "name": "oldAddr",
          "type": "address"
        },
        {
          "indexed": false,
          "internalType": "address",
          "name": "newAddr",
          "type": "address"
        }
      ],
      "name": "UpdateAddressStorage",
      "type": "event"
    },
    {
      "anonymous": false,
      "inputs": [
        {
          "indexed": false,
          "internalType": "address",
          "name": "addr",
          "type": "address"
        },
        {
          "indexed": false,
          "internalType": "uint256",
          "name": "debtProportion",
          "type": "uint256"
        },
        {
          "indexed": false,
          "internalType": "uint256",
          "name": "debtFactor",
          "type": "uint256"
        }
      ],
      "name": "UpdateUserDebtLog",
      "type": "event"
    },
    {
      "anonymous": false,
      "inputs": [
        {
          "indexed": false,
          "internalType": "address",
          "name": "oldCandidate",
          "type": "address"
        },
        {
          "indexed": false,
          "internalType": "address",
          "name": "newCandidate",
          "type": "address"
        }
      ],
      "name": "candidateChanged",
      "type": "event"
    },
    {
      "anonymous": false,
      "inputs": [
        {
          "indexed": false,
          "internalType": "bytes32",
          "name": "name",
          "type": "bytes32"
        },
        {
          "indexed": false,
          "internalType": "address",
          "name": "addr",
          "type": "address"
        }
      ],
      "name": "updateCachedAddress",
      "type": "event"
    },
    {
      "inputs": [],
      "name": "MAX_DEL_PER_TIME",
      "outputs": [
        {
          "internalType": "uint256",
          "name": "",
          "type": "uint256"
        }
      ],
      "stateMutability": "view",
      "type": "function",
      "constant": true
    },
    {
      "inputs": [],
      "name": "admin",
      "outputs": [
        {
          "internalType": "address",
          "name": "",
          "type": "address"
        }
      ],
      "stateMutability": "view",
      "type": "function",
      "constant": true
    },
    {
      "inputs": [],
      "name": "becomeAdmin",
      "outputs": [],
      "stateMutability": "nonpayable",
      "type": "function"
    },
    {
      "inputs": [],
      "name": "candidate",
      "outputs": [
        {
          "internalType": "address",
          "name": "",
          "type": "address"
        }
      ],
      "stateMutability": "view",
      "type": "function",
      "constant": true
    },
    {
      "inputs": [],
      "name": "debtCurrentIndex",
      "outputs": [
        {
          "internalType": "uint256",
          "name": "",
          "type": "uint256"
        }
      ],
      "stateMutability": "view",
      "type": "function",
      "constant": true
    },
    {
      "inputs": [],
      "name": "feeSystem",
      "outputs": [
        {
          "internalType": "contract LnFeeSystem",
          "name": "",
          "type": "address"
        }
      ],
      "stateMutability": "view",
      "type": "function",
      "constant": true
    },
    {
      "inputs": [],
      "name": "lastCloseAt",
      "outputs": [
        {
          "internalType": "uint256",
          "name": "",
          "type": "uint256"
        }
      ],
      "stateMutability": "view",
      "type": "function",
      "constant": true
    },
    {
      "inputs": [
        {
          "internalType": "uint256",
          "name": "",
          "type": "uint256"
        }
      ],
      "name": "lastDebtFactors",
      "outputs": [
        {
          "internalType": "uint256",
          "name": "",
          "type": "uint256"
        }
      ],
      "stateMutability": "view",
      "type": "function",
      "constant": true
    },
    {
      "inputs": [],
      "name": "lastDeletTo",
      "outputs": [
        {
          "internalType": "uint256",
          "name": "",
          "type": "uint256"
        }
      ],
      "stateMutability": "view",
      "type": "function",
      "constant": true
    },
    {
      "inputs": [
        {
          "internalType": "address",
          "name": "_candidate",
          "type": "address"
        }
      ],
      "name": "setCandidate",
      "outputs": [],
      "stateMutability": "nonpayable",
      "type": "function"
    },
    {
      "inputs": [
        {
          "internalType": "address",
          "name": "",
          "type": "address"
        }
      ],
      "name": "userDebtState",
      "outputs": [
        {
          "internalType": "uint256",
          "name": "debtProportion",
          "type": "uint256"
        },
        {
          "internalType": "uint256",
          "name": "debtFactor",
          "type": "uint256"
        }
      ],
      "stateMutability": "view",
      "type": "function",
      "constant": true
    },
    {
      "inputs": [
        {
          "internalType": "contract LnAddressStorage",
          "name": "_addressStorage",
          "type": "address"
        }
      ],
      "name": "updateAddressCache",
      "outputs": [],
      "stateMutability": "nonpayable",
      "type": "function"
    },
    {
      "inputs": [
        {
          "internalType": "uint256",
          "name": "index",
          "type": "uint256"
        }
      ],
      "name": "SetLastCloseFeePeriodAt",
      "outputs": [],
      "stateMutability": "nonpayable",
      "type": "function"
    },
    {
      "inputs": [
        {
          "internalType": "uint256",
          "name": "_factor",
          "type": "uint256"
        }
      ],
      "name": "PushDebtFactor",
      "outputs": [],
      "stateMutability": "nonpayable",
      "type": "function"
    },
    {
      "inputs": [
        {
          "internalType": "address",
          "name": "_user",
          "type": "address"
        },
        {
          "internalType": "uint256",
          "name": "_debtProportion",
          "type": "uint256"
        }
      ],
      "name": "UpdateUserDebt",
      "outputs": [],
      "stateMutability": "nonpayable",
      "type": "function"
    },
    {
      "inputs": [
        {
          "internalType": "address",
          "name": "_user",
          "type": "address"
        },
        {
          "internalType": "uint256",
          "name": "_debtProportion",
          "type": "uint256"
        },
        {
          "internalType": "uint256",
          "name": "_factor",
          "type": "uint256"
        }
      ],
      "name": "UpdateDebt",
      "outputs": [],
      "stateMutability": "nonpayable",
      "type": "function"
    },
    {
      "inputs": [
        {
          "internalType": "address",
          "name": "_user",
          "type": "address"
        }
      ],
      "name": "GetUserDebtData",
      "outputs": [
        {
          "internalType": "uint256",
          "name": "debtProportion",
          "type": "uint256"
        },
        {
          "internalType": "uint256",
          "name": "debtFactor",
          "type": "uint256"
        }
      ],
      "stateMutability": "view",
      "type": "function",
      "constant": true
    },
    {
      "inputs": [],
      "name": "LastSystemDebtFactor",
      "outputs": [
        {
          "internalType": "uint256",
          "name": "",
          "type": "uint256"
        }
      ],
      "stateMutability": "view",
      "type": "function",
      "constant": true
    },
    {
      "inputs": [
        {
          "internalType": "address",
          "name": "_user",
          "type": "address"
        }
      ],
      "name": "GetUserCurrentDebtProportion",
      "outputs": [
        {
          "internalType": "uint256",
          "name": "",
          "type": "uint256"
        }
      ],
      "stateMutability": "view",
      "type": "function",
      "constant": true
    },
    {
      "inputs": [
        {
          "internalType": "address",
          "name": "_user",
          "type": "address"
        }
      ],
      "name": "GetUserDebtBalanceInUsd",
      "outputs": [
        {
          "internalType": "uint256",
          "name": "",
          "type": "uint256"
        },
        {
          "internalType": "uint256",
          "name": "",
          "type": "uint256"
        }
      ],
      "stateMutability": "view",
      "type": "function",
      "constant": true
    }
  ],
  "bytecode": "0x608060405234801561001057600080fd5b506040516126823803806126828339818101604052602081101561003357600080fd5b810190808051906020019092919050505080600073ffffffffffffffffffffffffffffffffffffffff168173ffffffffffffffffffffffffffffffffffffffff1614156100e8576040517f08c379a00000000000000000000000000000000000000000000000000000000081526004018080602001828103825260198152602001807f61646d696e20616464726573732063616e6e6f7420626520300000000000000081525060200191505060405180910390fd5b806000806101000a81548173ffffffffffffffffffffffffffffffffffffffff021916908373ffffffffffffffffffffffffffffffffffffffff1602179055507f7e644d79422f17c01e4894b5f4f588d331ebfa28653d42ae832dc59e38c9798f600082604051808373ffffffffffffffffffffffffffffffffffffffff1681526020018273ffffffffffffffffffffffffffffffffffffffff1681526020019250505060405180910390a150506124dd806101a56000396000f3fe608060405234801561001057600080fd5b506004361061012c5760003560e01c806363bc6c4a116100ad578063cb6a110511610071578063cb6a1105146104ae578063e8b1b8e5146104cc578063f851a4401461051a578063f86dfd5e1461054e578063f9c9e0591461056c5761012c565b806363bc6c4a146103365780636c8381f8146103955780636da8e464146103c957806384b5d5a6146103f7578063c158ef18146104565761012c565b80631882d090116100f45780631882d0901461024d5780631b72d16d146102ac57806325971dff146102ca5780632798e8c1146102d45780635a5f14c8146102f25761012c565b8063028667d31461013157806307880b7f146101895780630b921df6146101cd5780630c2abd35146101eb57806311b464261461021f575b600080fd5b6101876004803603606081101561014757600080fd5b81019080803573ffffffffffffffffffffffffffffffffffffffff16906020019092919080359060200190929190803590602001909291905050506105ae565b005b6101cb6004803603602081101561019f57600080fd5b81019080803573ffffffffffffffffffffffffffffffffffffffff1690602001909291905050506107a8565b005b6101d5610945565b6040518082815260200191505060405180910390f35b6101f361094b565b604051808273ffffffffffffffffffffffffffffffffffffffff16815260200191505060405180910390f35b61024b6004803603602081101561023557600080fd5b8101908080359060200190929190505050610971565b005b61028f6004803603602081101561026357600080fd5b81019080803573ffffffffffffffffffffffffffffffffffffffff169060200190929190505050610b5f565b604051808381526020018281526020019250505060405180910390f35b6102b4610d17565b6040518082815260200191505060405180910390f35b6102d2610d1d565b005b6102dc610ef6565b6040518082815260200191505060405180910390f35b6103346004803603602081101561030857600080fd5b81019080803573ffffffffffffffffffffffffffffffffffffffff169060200190929190505050610efb565b005b6103786004803603602081101561034c57600080fd5b81019080803573ffffffffffffffffffffffffffffffffffffffff1690602001909291905050506114b9565b604051808381526020018281526020019250505060405180910390f35b61039d6114dd565b604051808273ffffffffffffffffffffffffffffffffffffffff16815260200191505060405180910390f35b6103f5600480360360208110156103df57600080fd5b8101908080359060200190929190505050611503565b005b6104396004803603602081101561040d57600080fd5b81019080803573ffffffffffffffffffffffffffffffffffffffff1690602001909291905050506117c2565b604051808381526020018281526020019250505060405180910390f35b6104986004803603602081101561046c57600080fd5b81019080803573ffffffffffffffffffffffffffffffffffffffff169060200190929190505050611854565b6040518082815260200191505060405180910390f35b6104b6611933565b6040518082815260200191505060405180910390f35b610518600480360360408110156104e257600080fd5b81019080803573ffffffffffffffffffffffffffffffffffffffff16906020019092919080359060200190929190505050611942565b005b610522611b32565b604051808273ffffffffffffffffffffffffffffffffffffffff16815260200191505060405180910390f35b610556611b56565b6040518082815260200191505060405180910390f35b6105986004803603602081101561058257600080fd5b8101908080359060200190929190505050611b5c565b6040518082815260200191505060405180910390f35b33600260009054906101000a900473ffffffffffffffffffffffffffffffffffffffff1673ffffffffffffffffffffffffffffffffffffffff166391d14854600260009054906101000a900473ffffffffffffffffffffffffffffffffffffffff1673ffffffffffffffffffffffffffffffffffffffff1663435e60ae6040518163ffffffff1660e01b815260040160206040518083038186803b15801561065557600080fd5b505afa158015610669573d6000803e3d6000fd5b505050506040513d602081101561067f57600080fd5b8101908080519060200190929190505050836040518363ffffffff1660e01b8152600401808381526020018273ffffffffffffffffffffffffffffffffffffffff1681526020019250505060206040518083038186803b1580156106e257600080fd5b505afa1580156106f6573d6000803e3d6000fd5b505050506040513d602081101561070c57600080fd5b810190808051906020019092919050505061078f576040517f08c379a000000000000000000000000000000000000000000000000000000000815260040180806020018281038252601c8152602001807f4e65656420646562742073797374656d2061636365737320726f6c650000000081525060200191505060405180910390fd5b61079882611b74565b6107a28484611d75565b50505050565b60008054906101000a900473ffffffffffffffffffffffffffffffffffffffff1673ffffffffffffffffffffffffffffffffffffffff163373ffffffffffffffffffffffffffffffffffffffff161461084c576040517f08c379a000000000000000000000000000000000000000000000000000000000815260040180806020018281038252602f815260200180612479602f913960400191505060405180910390fd5b6000600160009054906101000a900473ffffffffffffffffffffffffffffffffffffffff16905081600160006101000a81548173ffffffffffffffffffffffffffffffffffffffff021916908373ffffffffffffffffffffffffffffffffffffffff1602179055507f0faed18be9e8f4d4c05dfbcc80ea2c97a0be729614d766827778f60890c02cab81600160009054906101000a900473ffffffffffffffffffffffffffffffffffffffff16604051808373ffffffffffffffffffffffffffffffffffffffff1681526020018273ffffffffffffffffffffffffffffffffffffffff1681526020019250505060405180910390a15050565b60085481565b600460009054906101000a900473ffffffffffffffffffffffffffffffffffffffff1681565b33600260009054906101000a900473ffffffffffffffffffffffffffffffffffffffff1673ffffffffffffffffffffffffffffffffffffffff166391d14854600260009054906101000a900473ffffffffffffffffffffffffffffffffffffffff1673ffffffffffffffffffffffffffffffffffffffff1663435e60ae6040518163ffffffff1660e01b815260040160206040518083038186803b158015610a1857600080fd5b505afa158015610a2c573d6000803e3d6000fd5b505050506040513d6020811015610a4257600080fd5b8101908080519060200190929190505050836040518363ffffffff1660e01b8152600401808381526020018273ffffffffffffffffffffffffffffffffffffffff1681526020019250505060206040518083038186803b158015610aa557600080fd5b505afa158015610ab9573d6000803e3d6000fd5b505050506040513d6020811015610acf57600080fd5b8101908080519060200190929190505050610b52576040517f08c379a000000000000000000000000000000000000000000000000000000000815260040180806020018281038252601c8152602001807f4e65656420646562742073797374656d2061636365737320726f6c650000000081525060200191505060405180910390fd5b610b5b82611b74565b5050565b6000806000600360009054906101000a900473ffffffffffffffffffffffffffffffffffffffff1673ffffffffffffffffffffffffffffffffffffffff1663f5d129896040518163ffffffff1660e01b815260040160206040518083038186803b158015610bcc57600080fd5b505afa158015610be0573d6000803e3d6000fd5b505050506040513d6020811015610bf657600080fd5b810190808051906020019092919050505090506000600560008673ffffffffffffffffffffffffffffffffffffffff1673ffffffffffffffffffffffffffffffffffffffff1681526020019081526020016000206000015490506000600560008773ffffffffffffffffffffffffffffffffffffffff1673ffffffffffffffffffffffffffffffffffffffff1681526020019081526020016000206001015490506000821415610caf5760008394509450505050610d12565b6000610cdd83610ccf84610cc1611fe4565b61209590919063ffffffff16565b6120b190919063ffffffff16565b90506000610d04610cff83610cf1886120cd565b6120b190919063ffffffff16565b6120f3565b905080859650965050505050505b915091565b60095481565b600160009054906101000a900473ffffffffffffffffffffffffffffffffffffffff1673ffffffffffffffffffffffffffffffffffffffff163373ffffffffffffffffffffffffffffffffffffffff1614610de0576040517f08c379a000000000000000000000000000000000000000000000000000000000815260040180806020018281038252601f8152602001807f4f6e6c792063616e6469646174652063616e206265636f6d652061646d696e0081525060200191505060405180910390fd5b60008060009054906101000a900473ffffffffffffffffffffffffffffffffffffffff169050600160009054906101000a900473ffffffffffffffffffffffffffffffffffffffff166000806101000a81548173ffffffffffffffffffffffffffffffffffffffff021916908373ffffffffffffffffffffffffffffffffffffffff1602179055507f7e644d79422f17c01e4894b5f4f588d331ebfa28653d42ae832dc59e38c9798f8160008054906101000a900473ffffffffffffffffffffffffffffffffffffffff16604051808373ffffffffffffffffffffffffffffffffffffffff1681526020018273ffffffffffffffffffffffffffffffffffffffff1681526020019250505060405180910390a150565b603281565b60008054906101000a900473ffffffffffffffffffffffffffffffffffffffff1673ffffffffffffffffffffffffffffffffffffffff163373ffffffffffffffffffffffffffffffffffffffff1614610f9f576040517f08c379a000000000000000000000000000000000000000000000000000000000815260040180806020018281038252602f815260200180612479602f913960400191505060405180910390fd5b8073ffffffffffffffffffffffffffffffffffffffff1663768911da6040518163ffffffff1660e01b815260040180807f4c6e416363657373436f6e74726f6c000000000000000000000000000000000081525060200180602001828103825260218152602001806124156021913960400191505060206040518083038186803b15801561102c57600080fd5b505afa158015611040573d6000803e3d6000fd5b505050506040513d602081101561105657600080fd5b8101908080519060200190929190505050600260006101000a81548173ffffffffffffffffffffffffffffffffffffffff021916908373ffffffffffffffffffffffffffffffffffffffff1602179055508073ffffffffffffffffffffffffffffffffffffffff1663768911da6040518163ffffffff1660e01b815260040180807f4c6e417373657453797374656d00000000000000000000000000000000000000815250602001806020018281038252601f8152602001807f4c6e417373657453797374656d2061646472657373206e6f742076616c69640081525060200191505060206040518083038186803b15801561115157600080fd5b505afa158015611165573d6000803e3d6000fd5b505050506040513d602081101561117b57600080fd5b8101908080519060200190929190505050600360006101000a81548173ffffffffffffffffffffffffffffffffffffffff021916908373ffffffffffffffffffffffffffffffffffffffff1602179055508073ffffffffffffffffffffffffffffffffffffffff1663768911da6040518163ffffffff1660e01b815260040180807f4c6e46656553797374656d000000000000000000000000000000000000000000815250602001806020018281038252601d8152602001807f4c6e46656553797374656d2061646472657373206e6f742076616c696400000081525060200191505060206040518083038186803b15801561127657600080fd5b505afa15801561128a573d6000803e3d6000fd5b505050506040513d60208110156112a057600080fd5b8101908080519060200190929190505050600460006101000a81548173ffffffffffffffffffffffffffffffffffffffff021916908373ffffffffffffffffffffffffffffffffffffffff1602179055507f45a7f8d84f7ad724869d024abcaa743ae6aec455a969df76b5d1e9c5cac4d2ae600260009054906101000a900473ffffffffffffffffffffffffffffffffffffffff1660405180807f4c6e416363657373436f6e74726f6c00000000000000000000000000000000008152506020018273ffffffffffffffffffffffffffffffffffffffff16815260200191505060405180910390a17f45a7f8d84f7ad724869d024abcaa743ae6aec455a969df76b5d1e9c5cac4d2ae600360009054906101000a900473ffffffffffffffffffffffffffffffffffffffff1660405180807f4c6e417373657453797374656d000000000000000000000000000000000000008152506020018273ffffffffffffffffffffffffffffffffffffffff16815260200191505060405180910390a17f45a7f8d84f7ad724869d024abcaa743ae6aec455a969df76b5d1e9c5cac4d2ae600460009054906101000a900473ffffffffffffffffffffffffffffffffffffffff1660405180807f4c6e46656553797374656d0000000000000000000000000000000000000000008152506020018273ffffffffffffffffffffffffffffffffffffffff16815260200191505060405180910390a150565b60056020528060005260406000206000915090508060000154908060010154905082565b600160009054906101000a900473ffffffffffffffffffffffffffffffffffffffff1681565b33600260009054906101000a900473ffffffffffffffffffffffffffffffffffffffff1673ffffffffffffffffffffffffffffffffffffffff166391d14854600260009054906101000a900473ffffffffffffffffffffffffffffffffffffffff1673ffffffffffffffffffffffffffffffffffffffff1663435e60ae6040518163ffffffff1660e01b815260040160206040518083038186803b1580156115aa57600080fd5b505afa1580156115be573d6000803e3d6000fd5b505050506040513d60208110156115d457600080fd5b8101908080519060200190929190505050836040518363ffffffff1660e01b8152600401808381526020018273ffffffffffffffffffffffffffffffffffffffff1681526020019250505060206040518083038186803b15801561163757600080fd5b505afa15801561164b573d6000803e3d6000fd5b505050506040513d602081101561166157600080fd5b81019080805190602001909291905050506116e4576040517f08c379a000000000000000000000000000000000000000000000000000000000815260040180806020018281038252601c8152602001807f4e65656420646562742073797374656d2061636365737320726f6c650000000081525060200191505060405180910390fd5b60085482101561173f576040517f08c379a00000000000000000000000000000000000000000000000000000000081526004018080602001828103825260228152602001806124576022913960400191505060405180910390fd5b6007548211156117b7576040517f08c379a000000000000000000000000000000000000000000000000000000000815260040180806020018281038252601d8152602001807f43616e206e6f7420636c6f73652061742066757475726520696e64657800000081525060200191505060405180910390fd5b816008819055505050565b600080600560008473ffffffffffffffffffffffffffffffffffffffff1673ffffffffffffffffffffffffffffffffffffffff168152602001908152602001600020600001549150600560008473ffffffffffffffffffffffffffffffffffffffff1673ffffffffffffffffffffffffffffffffffffffff168152602001908152602001600020600101549050915091565b600080600560008473ffffffffffffffffffffffffffffffffffffffff1673ffffffffffffffffffffffffffffffffffffffff1681526020019081526020016000206000015490506000600560008573ffffffffffffffffffffffffffffffffffffffff1673ffffffffffffffffffffffffffffffffffffffff16815260200190815260200160002060010154905060008214156118f75760009250505061192e565b60006119258361191784611909611fe4565b61209590919063ffffffff16565b6120b190919063ffffffff16565b90508093505050505b919050565b600061193d611fe4565b905090565b33600260009054906101000a900473ffffffffffffffffffffffffffffffffffffffff1673ffffffffffffffffffffffffffffffffffffffff166391d14854600260009054906101000a900473ffffffffffffffffffffffffffffffffffffffff1673ffffffffffffffffffffffffffffffffffffffff1663435e60ae6040518163ffffffff1660e01b815260040160206040518083038186803b1580156119e957600080fd5b505afa1580156119fd573d6000803e3d6000fd5b505050506040513d6020811015611a1357600080fd5b8101908080519060200190929190505050836040518363ffffffff1660e01b8152600401808381526020018273ffffffffffffffffffffffffffffffffffffffff1681526020019250505060206040518083038186803b158015611a7657600080fd5b505afa158015611a8a573d6000803e3d6000fd5b505050506040513d6020811015611aa057600080fd5b8101908080519060200190929190505050611b23576040517f08c379a000000000000000000000000000000000000000000000000000000000815260040180806020018281038252601c8152602001807f4e65656420646562742073797374656d2061636365737320726f6c650000000081525060200191505060405180910390fd5b611b2d8383611d75565b505050565b60008054906101000a900473ffffffffffffffffffffffffffffffffffffffff1681565b60075481565b60066020528060005260406000206000915090505481565b60006007541480611b9d5750600060066000600160075403815260200190815260200160002054145b15611c3f5773__SafeDecimalMath_______________________63d5e5e6e66040518163ffffffff1660e01b815260040160206040518083038186803b158015611be657600080fd5b505af4158015611bfa573d6000803e3d6000fd5b505050506040513d6020811015611c1057600080fd5b810190808051906020019092919050505060066000600754815260200190815260200160002081905550611c84565b611c6a81600660006001600754038152602001908152602001600020546120b190919063ffffffff16565b600660006007548152602001908152602001600020819055505b7fb8a820a3a119d5a246fc69ab3f488a246d2bbaa2e1571331ba2fd03111a8d76e60075460066000600754815260200190815260200160002054604051808381526020018281526020019250505060405180910390a1611cf0600160075461214290919063ffffffff16565b6007819055506008546009541015611d7257600060095460085403905060328111611d1b5780611d1e565b60325b9050600060095490505b81811015611d545760066000828152602001908152602001600020600090558080600101915050611d28565b50611d6a8160095461214290919063ffffffff16565b600981905550505b50565b80600560008473ffffffffffffffffffffffffffffffffffffffff1673ffffffffffffffffffffffffffffffffffffffff16815260200190815260200160002060000181905550611dc4611fe4565b600560008473ffffffffffffffffffffffffffffffffffffffff1673ffffffffffffffffffffffffffffffffffffffff168152602001908152602001600020600101819055507f13ff2faa1ac98e72ddd0663ed7a48704f7e2537334a50d2318a5e8efc74674c18282600560008673ffffffffffffffffffffffffffffffffffffffff1673ffffffffffffffffffffffffffffffffffffffff16815260200190815260200160002060010154604051808473ffffffffffffffffffffffffffffffffffffffff168152602001838152602001828152602001935050505060405180910390a1600460009054906101000a900473ffffffffffffffffffffffffffffffffffffffff1673ffffffffffffffffffffffffffffffffffffffff166335e4a17183600560008673ffffffffffffffffffffffffffffffffffffffff1673ffffffffffffffffffffffffffffffffffffffff16815260200190815260200160002060000154600560008773ffffffffffffffffffffffffffffffffffffffff1673ffffffffffffffffffffffffffffffffffffffff168152602001908152602001600020600101546040518463ffffffff1660e01b8152600401808473ffffffffffffffffffffffffffffffffffffffff1681526020018381526020018281526020019350505050600060405180830381600087803b158015611fc857600080fd5b505af1158015611fdc573d6000803e3d6000fd5b505050505050565b60008060075414156120765773__SafeDecimalMath_______________________63d5e5e6e66040518163ffffffff1660e01b815260040160206040518083038186803b15801561203457600080fd5b505af4158015612048573d6000803e3d6000fd5b505050506040513d602081101561205e57600080fd5b81019080805190602001909291905050509050612092565b6006600060016007540381526020019081526020016000205490505b90565b60006120a98383601b60ff16600a0a6121ca565b905092915050565b60006120c58383601b60ff16600a0a612225565b905092915050565b60006120ec6012601b0360ff16600a0a8361227e90919063ffffffff16565b9050919050565b600080600a6012601b0360ff16600a0a8161210a57fe5b04838161211357fe5b0490506005600a828161212257fe5b061061212f57600a810190505b600a818161213957fe5b04915050919050565b6000808284019050838110156121c0576040517f08c379a000000000000000000000000000000000000000000000000000000000815260040180806020018281038252601b8152602001807f536166654d6174683a206164646974696f6e206f766572666c6f77000000000081525060200191505060405180910390fd5b8091505092915050565b6000806121f5846121e7600a86028861227e90919063ffffffff16565b61230490919063ffffffff16565b90506005600a828161220357fe5b061061221057600a810190505b600a818161221a57fe5b049150509392505050565b600080600a838161223257fe5b04612246858761227e90919063ffffffff16565b8161224d57fe5b0490506005600a828161225c57fe5b061061226957600a810190505b600a818161227357fe5b049150509392505050565b60008083141561229157600090506122fe565b60008284029050828482816122a257fe5b04146122f9576040517f08c379a00000000000000000000000000000000000000000000000000000000081526004018080602001828103825260218152602001806124366021913960400191505060405180910390fd5b809150505b92915050565b600061234683836040518060400160405280601a81526020017f536166654d6174683a206469766973696f6e206279207a65726f00000000000081525061234e565b905092915050565b600080831182906123fa576040517f08c379a00000000000000000000000000000000000000000000000000000000081526004018080602001828103825283818151815260200191508051906020019080838360005b838110156123bf5780820151818401526020810190506123a4565b50505050905090810190601f1680156123ec5780820380516001836020036101000a031916815260200191505b509250505060405180910390fd5b50600083858161240657fe5b04905080915050939250505056fe4c6e416363657373436f6e74726f6c2061646472657373206e6f742076616c6964536166654d6174683a206d756c7469706c69636174696f6e206f766572666c6f77436c6f736520696e6465782063616e206e6f742072657475726e20746f20706173734f6e6c792074686520636f6e74726163742061646d696e2063616e20706572666f726d207468697320616374696f6ea2646970667358221220f6de65dc9022d235c23adbbf1c062e542a0f1c60c7f6225c2bd67172dd927c4f64736f6c634300060c0033",
  "immutableReferences": {},
  "source": "// SPDX-License-Identifier: MIT\r\npragma solidity ^0.6.12;\r\n\r\nimport \"./LnAdmin.sol\";\r\nimport \"@openzeppelin/contracts/math/SafeMath.sol\";\r\nimport \"@openzeppelin/contracts/utils/Address.sol\";\r\nimport \"./SafeDecimalMath.sol\";\r\nimport \"./LnAddressCache.sol\";\r\nimport \"./LnAccessControl.sol\";\r\nimport \"./LnAssetSystem.sol\";\r\nimport \"./LnConfig.sol\";\r\nimport \"./LnFeeSystem.sol\";\r\n\r\ncontract LnDebtSystem is LnAdmin, LnAddressCache {\r\n    using SafeMath for uint;\r\n    using SafeDecimalMath for uint;\r\n    using Address for address;\r\n\r\n    // -------------------------------------------------------\r\n    // need set before system running value.\r\n    LnAccessControl private accessCtrl;\r\n    LnAssetSystem private assetSys;\r\n    LnFeeSystem public feeSystem;\r\n    // -------------------------------------------------------\r\n    struct DebtData {\r\n        uint256 debtProportion;\r\n        uint256 debtFactor; // PRECISE_UNIT\r\n    }\r\n    mapping(address => DebtData) public userDebtState;\r\n\r\n    //use mapping to store array data\r\n    mapping (uint256=>uint256) public lastDebtFactors; // PRECISE_UNIT Note:  factor  factor, index\r\n    uint256 public debtCurrentIndex; // length of array. this index of array no value\r\n    // follow var use to manage array size.\r\n    uint256 public lastCloseAt; // close at array index\r\n    uint256 public lastDeletTo; // delete to array index, lastDeletTo < lastCloseAt\r\n    uint256 public constant MAX_DEL_PER_TIME = 50;\r\n    // \r\n\r\n    // -------------------------------------------------------\r\n    constructor(address admin) public LnAdmin(admin) {\r\n    }\r\n\r\n    event UpdateAddressStorage(address oldAddr, address newAddr);\r\n    event UpdateUserDebtLog(address addr, uint256 debtProportion, uint256 debtFactor);\r\n    event PushDebtLog(uint256 index, uint256 newFactor);\r\n\r\n    // ------------------ system config ----------------------\r\n    function updateAddressCache( LnAddressStorage _addressStorage ) onlyAdmin public override\r\n    {\r\n        accessCtrl = LnAccessControl(_addressStorage.getAddressWithRequire( \"LnAccessControl\", \"LnAccessControl address not valid\" ));\r\n        assetSys =   LnAssetSystem(  _addressStorage.getAddressWithRequire( \"LnAssetSystem\",   \"LnAssetSystem address not valid\" ));\r\n        feeSystem = LnFeeSystem( _addressStorage.getAddressWithRequire( \"LnFeeSystem\",   \"LnFeeSystem address not valid\" ));\r\n\r\n        emit updateCachedAddress( \"LnAccessControl\", address(accessCtrl) );\r\n        emit updateCachedAddress( \"LnAssetSystem\",   address(assetSys) );\r\n        emit updateCachedAddress( \"LnFeeSystem\",   address(feeSystem) );\r\n    }\r\n    \r\n    // -----------------------------------------------\r\n    modifier OnlyDebtSystemRole(address _address) {\r\n        require(accessCtrl.hasRole(accessCtrl.DEBT_SYSTEM(), _address), \"Need debt system access role\");\r\n        _;\r\n    }\r\n\r\n    function SetLastCloseFeePeriodAt(uint256 index) external OnlyDebtSystemRole(msg.sender) {\r\n        require(index >= lastCloseAt, \"Close index can not return to pass\");\r\n        require(index <= debtCurrentIndex, \"Can not close at future index\");\r\n        lastCloseAt = index;\r\n    }\r\n\r\n    function _pushDebtFactor(uint256 _factor) private {\r\n        if (debtCurrentIndex == 0 || lastDebtFactors[debtCurrentIndex-1] == 0) { // init or all debt has be cleared, new set value will be one unit\r\n            lastDebtFactors[debtCurrentIndex] = SafeDecimalMath.preciseUnit();\r\n        } else {\r\n            lastDebtFactors[debtCurrentIndex] = lastDebtFactors[debtCurrentIndex-1].multiplyDecimalRoundPrecise(_factor);\r\n        }\r\n        emit PushDebtLog(debtCurrentIndex, lastDebtFactors[debtCurrentIndex]);\r\n\r\n        debtCurrentIndex = debtCurrentIndex.add(1);\r\n\r\n        // delete out of date data\r\n        if (lastDeletTo < lastCloseAt) { // safe check \r\n            uint256 delNum = lastCloseAt - lastDeletTo;\r\n            delNum = (delNum > MAX_DEL_PER_TIME) ? MAX_DEL_PER_TIME : delNum; // not delete all in one call, for saving someone fee.\r\n            for (uint256 i=lastDeletTo; i<delNum; i++) {\r\n                delete lastDebtFactors[i];\r\n            }\r\n            lastDeletTo = lastDeletTo.add(delNum);\r\n        }\r\n    }\r\n\r\n    function PushDebtFactor(uint256 _factor) external OnlyDebtSystemRole(msg.sender) {\r\n        _pushDebtFactor(_factor);\r\n    }\r\n\r\n    function _updateUserDebt(address _user, uint256 _debtProportion) private {\r\n        userDebtState[_user].debtProportion = _debtProportion;\r\n        userDebtState[_user].debtFactor = _lastSystemDebtFactor();\r\n        emit UpdateUserDebtLog(_user, _debtProportion, userDebtState[_user].debtFactor);\r\n\r\n        feeSystem.RecordUserDebt(_user, userDebtState[_user].debtProportion, userDebtState[_user].debtFactor);\r\n    }\r\n\r\n    // need update lastDebtFactors first\r\n    function UpdateUserDebt(address _user, uint256 _debtProportion) external OnlyDebtSystemRole(msg.sender) {\r\n        _updateUserDebt(_user, _debtProportion);\r\n    }\r\n\r\n    function UpdateDebt(address _user, uint256 _debtProportion, uint256 _factor) external OnlyDebtSystemRole(msg.sender) {\r\n        _pushDebtFactor(_factor);\r\n        _updateUserDebt(_user, _debtProportion);\r\n    }\r\n\r\n    function GetUserDebtData(address _user) external view returns (uint256 debtProportion, uint256 debtFactor) {\r\n        debtProportion = userDebtState[_user].debtProportion;\r\n        debtFactor = userDebtState[_user].debtFactor;\r\n    }\r\n\r\n    function _lastSystemDebtFactor() private view returns (uint256) {\r\n        if (debtCurrentIndex == 0) {\r\n            return SafeDecimalMath.preciseUnit();\r\n        }\r\n        return lastDebtFactors[debtCurrentIndex-1];\r\n    }\r\n\r\n    function LastSystemDebtFactor() external view returns (uint256) {\r\n        return _lastSystemDebtFactor();\r\n    }\r\n\r\n    function GetUserCurrentDebtProportion(address _user) public view returns(uint256) {\r\n        uint256 debtProportion = userDebtState[_user].debtProportion;\r\n        uint256 debtFactor = userDebtState[_user].debtFactor;\r\n\r\n        if (debtProportion == 0) {\r\n            return 0;\r\n        }\r\n\r\n        uint256 currentUserDebtProportion = _lastSystemDebtFactor()\r\n                .divideDecimalRoundPrecise(debtFactor)\r\n                .multiplyDecimalRoundPrecise(debtProportion);\r\n        return currentUserDebtProportion;\r\n    }\r\n\r\n    /**\r\n     *\r\n     *@return [0] the debt balance of user. [1] system total asset in usd.\r\n     */\r\n    function GetUserDebtBalanceInUsd(address _user) external view returns (uint256, uint256) {\r\n        uint256 totalAssetSupplyInUsd = assetSys.totalAssetsInUsd();\r\n\r\n        uint256 debtProportion = userDebtState[_user].debtProportion;\r\n        uint256 debtFactor = userDebtState[_user].debtFactor;\r\n\r\n        if (debtProportion == 0) {\r\n            return (0, totalAssetSupplyInUsd);\r\n        }\r\n\r\n        uint256 currentUserDebtProportion = _lastSystemDebtFactor()\r\n                .divideDecimalRoundPrecise(debtFactor)\r\n                .multiplyDecimalRoundPrecise(debtProportion);\r\n        uint256 userDebtBalance = totalAssetSupplyInUsd\r\n                .decimalToPreciseDecimal()\r\n                .multiplyDecimalRoundPrecise(currentUserDebtProportion)\r\n                .preciseDecimalToDecimal();\r\n\r\n        return (userDebtBalance, totalAssetSupplyInUsd);\r\n    }\r\n}\r\n",
  "sourcePath": "/mnt/d/working/linearFinance/smartcontracts/contracts/LnDebtSystem.sol",
  "compiler": {
    "name": "solc",
    "version": "0.6.12+commit.27d51765.Emscripten.clang"
  },
  "schemaVersion": "3.2.3",
  "updatedAt": "2020-10-13T02:50:24.064Z",
  "networkType": "ethereum",
  "devdoc": {
    "kind": "dev",
    "methods": {
      "GetUserDebtBalanceInUsd(address)": {
        "returns": {
          "_0": "[0] the debt balance of user. [1] system total asset in usd."
        }
      }
    },
    "version": 1
  },
  "userdoc": {
    "kind": "user",
    "methods": {},
    "version": 1
  }
}