{
  "contractName": "LnDefaultPrices",
  "abi": [
    {
      "inputs": [
        {
          "internalType": "address",
          "name": "_admin",
          "type": "address"
        },
        {
          "internalType": "address",
          "name": "_oracle",
          "type": "address"
        },
        {
          "internalType": "bytes32[]",
          "name": "_currencyNames",
          "type": "bytes32[]"
        },
        {
          "internalType": "uint256[]",
          "name": "_newPrices",
          "type": "uint256[]"
        }
      ],
      "stateMutability": "nonpayable",
      "type": "constructor"
    },
    {
      "anonymous": false,
      "inputs": [
        {
          "indexed": false,
          "internalType": "address",
          "name": "oldAdmin",
          "type": "address"
        },
        {
          "indexed": false,
          "internalType": "address",
          "name": "newAdmin",
          "type": "address"
        }
      ],
      "name": "AdminChanged",
      "type": "event"
    },
    {
      "anonymous": false,
      "inputs": [
        {
          "indexed": false,
          "internalType": "address",
          "name": "newOracle",
          "type": "address"
        }
      ],
      "name": "OracleUpdated",
      "type": "event"
    },
    {
      "anonymous": false,
      "inputs": [
        {
          "indexed": false,
          "internalType": "bytes32",
          "name": "currencyName",
          "type": "bytes32"
        }
      ],
      "name": "PriceDeleted",
      "type": "event"
    },
    {
      "anonymous": false,
      "inputs": [
        {
          "indexed": false,
          "internalType": "bytes32[]",
          "name": "currencyNames",
          "type": "bytes32[]"
        },
        {
          "indexed": false,
          "internalType": "uint256[]",
          "name": "newPrices",
          "type": "uint256[]"
        }
      ],
      "name": "PricesUpdated",
      "type": "event"
    },
    {
      "anonymous": false,
      "inputs": [
        {
          "indexed": false,
          "internalType": "uint256",
          "name": "priceStalePeriod",
          "type": "uint256"
        }
      ],
      "name": "StalePeriodUpdated",
      "type": "event"
    },
    {
      "anonymous": false,
      "inputs": [
        {
          "indexed": false,
          "internalType": "address",
          "name": "oldCandidate",
          "type": "address"
        },
        {
          "indexed": false,
          "internalType": "address",
          "name": "newCandidate",
          "type": "address"
        }
      ],
      "name": "candidateChanged",
      "type": "event"
    },
    {
      "inputs": [],
      "name": "LINA",
      "outputs": [
        {
          "internalType": "bytes32",
          "name": "",
          "type": "bytes32"
        }
      ],
      "stateMutability": "view",
      "type": "function"
    },
    {
      "inputs": [],
      "name": "LUSD",
      "outputs": [
        {
          "internalType": "bytes32",
          "name": "",
          "type": "bytes32"
        }
      ],
      "stateMutability": "view",
      "type": "function"
    },
    {
      "inputs": [],
      "name": "admin",
      "outputs": [
        {
          "internalType": "address",
          "name": "",
          "type": "address"
        }
      ],
      "stateMutability": "view",
      "type": "function"
    },
    {
      "inputs": [],
      "name": "becomeAdmin",
      "outputs": [],
      "stateMutability": "nonpayable",
      "type": "function"
    },
    {
      "inputs": [],
      "name": "candidate",
      "outputs": [
        {
          "internalType": "address",
          "name": "",
          "type": "address"
        }
      ],
      "stateMutability": "view",
      "type": "function"
    },
    {
      "inputs": [
        {
          "internalType": "bytes32",
          "name": "",
          "type": "bytes32"
        }
      ],
      "name": "mPricesLastRound",
      "outputs": [
        {
          "internalType": "uint256",
          "name": "",
          "type": "uint256"
        }
      ],
      "stateMutability": "view",
      "type": "function"
    },
    {
      "inputs": [],
      "name": "oracle",
      "outputs": [
        {
          "internalType": "address",
          "name": "",
          "type": "address"
        }
      ],
      "stateMutability": "view",
      "type": "function"
    },
    {
      "inputs": [
        {
          "internalType": "address",
          "name": "_candidate",
          "type": "address"
        }
      ],
      "name": "setCandidate",
      "outputs": [],
      "stateMutability": "nonpayable",
      "type": "function"
    },
    {
      "inputs": [],
      "name": "stalePeriod",
      "outputs": [
        {
          "internalType": "uint256",
          "name": "",
          "type": "uint256"
        }
      ],
      "stateMutability": "view",
      "type": "function"
    },
    {
      "inputs": [
        {
          "internalType": "bytes32",
          "name": "currencyName",
          "type": "bytes32"
        }
      ],
      "name": "getPrice",
      "outputs": [
        {
          "internalType": "uint256",
          "name": "",
          "type": "uint256"
        }
      ],
      "stateMutability": "view",
      "type": "function"
    },
    {
      "inputs": [
        {
          "internalType": "bytes32",
          "name": "currencyName",
          "type": "bytes32"
        }
      ],
      "name": "getPriceAndUpdatedTime",
      "outputs": [
        {
          "internalType": "uint256",
          "name": "price",
          "type": "uint256"
        },
        {
          "internalType": "uint256",
          "name": "time",
          "type": "uint256"
        }
      ],
      "stateMutability": "view",
      "type": "function"
    },
    {
      "inputs": [
        {
          "internalType": "bytes32",
          "name": "sourceName",
          "type": "bytes32"
        },
        {
          "internalType": "uint256",
          "name": "sourceAmount",
          "type": "uint256"
        },
        {
          "internalType": "bytes32",
          "name": "destName",
          "type": "bytes32"
        }
      ],
      "name": "exchange",
      "outputs": [
        {
          "internalType": "uint256",
          "name": "value",
          "type": "uint256"
        }
      ],
      "stateMutability": "view",
      "type": "function"
    },
    {
      "inputs": [
        {
          "internalType": "bytes32",
          "name": "sourceName",
          "type": "bytes32"
        },
        {
          "internalType": "uint256",
          "name": "sourceAmount",
          "type": "uint256"
        },
        {
          "internalType": "bytes32",
          "name": "destName",
          "type": "bytes32"
        }
      ],
      "name": "exchangeAndPrices",
      "outputs": [
        {
          "internalType": "uint256",
          "name": "value",
          "type": "uint256"
        },
        {
          "internalType": "uint256",
          "name": "sourcePrice",
          "type": "uint256"
        },
        {
          "internalType": "uint256",
          "name": "destPrice",
          "type": "uint256"
        }
      ],
      "stateMutability": "view",
      "type": "function"
    },
    {
      "inputs": [
        {
          "internalType": "bytes32",
          "name": "currencyName",
          "type": "bytes32"
        }
      ],
      "name": "isStale",
      "outputs": [
        {
          "internalType": "bool",
          "name": "",
          "type": "bool"
        }
      ],
      "stateMutability": "view",
      "type": "function"
    },
    {
      "inputs": [
        {
          "internalType": "bytes32",
          "name": "currencyName",
          "type": "bytes32"
        }
      ],
      "name": "getCurrentRoundId",
      "outputs": [
        {
          "internalType": "uint256",
          "name": "",
          "type": "uint256"
        }
      ],
      "stateMutability": "view",
      "type": "function"
    },
    {
      "inputs": [
        {
          "internalType": "address",
          "name": "_oracle",
          "type": "address"
        }
      ],
      "name": "setOracle",
      "outputs": [],
      "stateMutability": "nonpayable",
      "type": "function"
    },
    {
      "inputs": [
        {
          "internalType": "uint256",
          "name": "_time",
          "type": "uint256"
        }
      ],
      "name": "setStalePeriod",
      "outputs": [],
      "stateMutability": "nonpayable",
      "type": "function"
    },
    {
      "inputs": [
        {
          "internalType": "bytes32[]",
          "name": "currencyNames",
          "type": "bytes32[]"
        },
        {
          "internalType": "uint256[]",
          "name": "newPrices",
          "type": "uint256[]"
        },
        {
          "internalType": "uint256",
          "name": "timeSent",
          "type": "uint256"
        }
      ],
      "name": "updateAll",
      "outputs": [
        {
          "internalType": "bool",
          "name": "",
          "type": "bool"
        }
      ],
      "stateMutability": "nonpayable",
      "type": "function"
    },
    {
      "inputs": [
        {
          "internalType": "bytes32",
          "name": "currencyName",
          "type": "bytes32"
        }
      ],
      "name": "deletePrice",
      "outputs": [],
      "stateMutability": "nonpayable",
      "type": "function"
    }
  ],
  "bytecode": "0x608060405261a8c06003553480156200001757600080fd5b506040516200256c3803806200256c833981810160405260808110156200003d57600080fd5b810190808051906020019092919080519060200190929190805160405193929190846401000000008211156200007257600080fd5b838201915060208201858111156200008957600080fd5b8251866020820283011164010000000082111715620000a757600080fd5b8083526020830192505050908051906020019060200280838360005b83811015620000e0578082015181840152602081019050620000c3565b50505050905001604052602001805160405193929190846401000000008211156200010a57600080fd5b838201915060208201858111156200012157600080fd5b82518660208202830111640100000000821117156200013f57600080fd5b8083526020830192505050908051906020019060200280838360005b83811015620001785780820151818401526020810190506200015b565b5050505090500160405250505083600073ffffffffffffffffffffffffffffffffffffffff168173ffffffffffffffffffffffffffffffffffffffff1614156200022a576040517f08c379a00000000000000000000000000000000000000000000000000000000081526004018080602001828103825260198152602001807f61646d696e20616464726573732063616e6e6f7420626520300000000000000081525060200191505060405180910390fd5b806000806101000a81548173ffffffffffffffffffffffffffffffffffffffff021916908373ffffffffffffffffffffffffffffffffffffffff1602179055507f7e644d79422f17c01e4894b5f4f588d331ebfa28653d42ae832dc59e38c9798f600082604051808373ffffffffffffffffffffffffffffffffffffffff1681526020018273ffffffffffffffffffffffffffffffffffffffff1681526020019250505060405180910390a15080518251146200034f576040517f08c379a00000000000000000000000000000000000000000000000000000000081526004018080602001828103825260138152602001807f6172726179206c656e677468206572726f722e0000000000000000000000000081525060200191505060405180910390fd5b82600260006101000a81548173ffffffffffffffffffffffffffffffffffffffff021916908373ffffffffffffffffffffffffffffffffffffffff160217905550620004447f6c5573640000000000000000000000000000000000000000000000000000000073__SafeDecimalMath_______________________63907af6c06040518163ffffffff1660e01b815260040160206040518083038186803b158015620003fa57600080fd5b505af41580156200040f573d6000803e3d6000fd5b505050506040513d60208110156200042657600080fd5b8101908080519060200190929190505050426200046260201b60201c565b620004578282426200057b60201b60201c565b505050505062000a1c565b60046000848152602001908152602001600020600081548092919060010191905055506040518060400160405280837affffffffffffffffffffffffffffffffffffffffffffffffffffff1681526020018264ffffffffff168152506005600085815260200190815260200160002060006004600087815260200190815260200160002054815260200190815260200160002060008201518160000160006101000a8154817affffffffffffffffffffffffffffffffffffffffffffffffffffff02191690837affffffffffffffffffffffffffffffffffffffffffffffffffffff160217905550602082015181600001601b6101000a81548164ffffffffff021916908364ffffffffff160217905550905050505050565b60008251845114620005f5576040517f08c379a000000000000000000000000000000000000000000000000000000000815260040180806020018281038252601e8152602001807f6172726179206c656e677468206572726f722c206e6f74206d617463682e000081525060200191505060405180910390fd5b610258420182106200066f576040517f08c379a000000000000000000000000000000000000000000000000000000000815260040180806020018281038252600a8152602001807f54696d65206572726f720000000000000000000000000000000000000000000081525060200191505060405180910390fd5b60005b8451811015620007f35760008582815181106200068b57fe5b602002602001015190506000858381518110620006a457fe5b6020026020010151141562000705576040517f08c379a000000000000000000000000000000000000000000000000000000000815260040180806020018281038252603b81526020018062002531603b913960400191505060405180910390fd5b7f6c557364000000000000000000000000000000000000000000000000000000008114156200079c576040517f08c379a00000000000000000000000000000000000000000000000000000000081526004018080602001828103825260178152602001807f4c5553442063616e6e6f7420626520757064617465642e00000000000000000081525060200191505060405180910390fd5b620007ad81620008c460201b60201c565b841015620007bc5750620007e5565b620007e381868481518110620007ce57fe5b6020026020010151866200046260201b60201c565b505b808060010191505062000672565b507f50f458355598dce23d4845c2c970630fc5a034b193135796749e6238b036e0db8484604051808060200180602001838103835285818151815260200191508051906020019060200280838360005b838110156200086057808201518184015260208101905062000843565b50505050905001838103825284818151815260200191508051906020019060200280838360005b83811015620008a457808201518184015260208101905062000887565b5050505090500194505050505060405180910390a1600190509392505050565b6000620008d0620009de565b620008e183620008f760201b60201c565b9050806020015164ffffffffff16915050919050565b62000901620009de565b600560008381526020019081526020016000206000600460008581526020019081526020016000205481526020019081526020016000206040518060400160405290816000820160009054906101000a90047affffffffffffffffffffffffffffffffffffffffffffffffffffff167affffffffffffffffffffffffffffffffffffffffffffffffffffff167affffffffffffffffffffffffffffffffffffffffffffffffffffff16815260200160008201601b9054906101000a900464ffffffffff1664ffffffffff1664ffffffffff16815250509050919050565b604051806040016040528060007affffffffffffffffffffffffffffffffffffffffffffffffffffff168152602001600064ffffffffff1681525090565b611b058062000a2c6000396000f3fe608060405234801561001057600080fd5b50600436106101215760003560e01c80637adbf973116100ad578063cf59d56311610071578063cf59d563146104eb578063e35804f214610509578063ee52a2f31461054d578063f851a440146105a3578063ff4b49cc146105d757610121565b80637adbf973146103c35780637dc0d1d014610407578063a5b36a361461043b578063a6f4ab2e14610459578063cd839edf1461048757610121565b8063402af467116100f4578063402af467146101f8578063553d1df3146102e65780635c4ff24e146103045780636c8381f81461034d5780637a018a1e1461038157610121565b806307880b7f1461012657806325971dff1461016a57806331d98b3f1461017457806336d5ffa2146101b6575b600080fd5b6101686004803603602081101561013c57600080fd5b81019080803573ffffffffffffffffffffffffffffffffffffffff169060200190929190505050610605565b005b6101726107a2565b005b6101a06004803603602081101561018a57600080fd5b810190808035906020019092919050505061097b565b6040518082815260200191505060405180910390f35b6101e2600480360360208110156101cc57600080fd5b810190808035906020019092919050505061098d565b6040518082815260200191505060405180910390f35b6102ce6004803603606081101561020e57600080fd5b810190808035906020019064010000000081111561022b57600080fd5b82018360208201111561023d57600080fd5b8035906020019184602083028401116401000000008311171561025f57600080fd5b90919293919293908035906020019064010000000081111561028057600080fd5b82018360208201111561029257600080fd5b803590602001918460208302840111640100000000831117156102b457600080fd5b9091929391929390803590602001909291905050506109a5565b60405180821515815260200191505060405180910390f35b6102ee610ae4565b6040518082815260200191505060405180910390f35b6103306004803603602081101561031a57600080fd5b8101908080359060200190929190505050610b08565b604051808381526020018281526020019250505060405180910390f35b610355610b5c565b604051808273ffffffffffffffffffffffffffffffffffffffff16815260200191505060405180910390f35b6103ad6004803603602081101561039757600080fd5b8101908080359060200190929190505050610b82565b6040518082815260200191505060405180910390f35b610405600480360360208110156103d957600080fd5b81019080803573ffffffffffffffffffffffffffffffffffffffff169060200190929190505050610b9f565b005b61040f610cf6565b604051808273ffffffffffffffffffffffffffffffffffffffff16815260200191505060405180910390f35b610443610d1c565b6040518082815260200191505060405180910390f35b6104856004803603602081101561046f57600080fd5b8101908080359060200190929190505050610d22565b005b6104c76004803603606081101561049d57600080fd5b81019080803590602001909291908035906020019092919080359060200190929190505050610e09565b60405180848152602001838152602001828152602001935050505060405180910390f35b6104f3610e28565b6040518082815260200191505060405180910390f35b6105356004803603602081101561051f57600080fd5b8101908080359060200190929190505050610e4c565b60405180821515815260200191505060405180910390f35b61058d6004803603606081101561056357600080fd5b81019080803590602001909291908035906020019092919080359060200190929190505050610ea6565b6040518082815260200191505060405180910390f35b6105ab610ec1565b604051808273ffffffffffffffffffffffffffffffffffffffff16815260200191505060405180910390f35b610603600480360360208110156105ed57600080fd5b8101908080359060200190929190505050610ee5565b005b60008054906101000a900473ffffffffffffffffffffffffffffffffffffffff1673ffffffffffffffffffffffffffffffffffffffff163373ffffffffffffffffffffffffffffffffffffffff16146106a9576040517f08c379a000000000000000000000000000000000000000000000000000000000815260040180806020018281038252602f815260200180611aa1602f913960400191505060405180910390fd5b6000600160009054906101000a900473ffffffffffffffffffffffffffffffffffffffff16905081600160006101000a81548173ffffffffffffffffffffffffffffffffffffffff021916908373ffffffffffffffffffffffffffffffffffffffff1602179055507f0faed18be9e8f4d4c05dfbcc80ea2c97a0be729614d766827778f60890c02cab81600160009054906101000a900473ffffffffffffffffffffffffffffffffffffffff16604051808373ffffffffffffffffffffffffffffffffffffffff1681526020018273ffffffffffffffffffffffffffffffffffffffff1681526020019250505060405180910390a15050565b600160009054906101000a900473ffffffffffffffffffffffffffffffffffffffff1673ffffffffffffffffffffffffffffffffffffffff163373ffffffffffffffffffffffffffffffffffffffff1614610865576040517f08c379a000000000000000000000000000000000000000000000000000000000815260040180806020018281038252601f8152602001807f4f6e6c792063616e6469646174652063616e206265636f6d652061646d696e0081525060200191505060405180910390fd5b60008060009054906101000a900473ffffffffffffffffffffffffffffffffffffffff169050600160009054906101000a900473ffffffffffffffffffffffffffffffffffffffff166000806101000a81548173ffffffffffffffffffffffffffffffffffffffff021916908373ffffffffffffffffffffffffffffffffffffffff1602179055507f7e644d79422f17c01e4894b5f4f588d331ebfa28653d42ae832dc59e38c9798f8160008054906101000a900473ffffffffffffffffffffffffffffffffffffffff16604051808373ffffffffffffffffffffffffffffffffffffffff1681526020018273ffffffffffffffffffffffffffffffffffffffff1681526020019250505060405180910390a150565b6000610986826110e7565b9050919050565b60046020528060005260406000206000915090505481565b6000600260009054906101000a900473ffffffffffffffffffffffffffffffffffffffff1673ffffffffffffffffffffffffffffffffffffffff163373ffffffffffffffffffffffffffffffffffffffff1614610a4d576040517f08c379a0000000000000000000000000000000000000000000000000000000008152600401808060200182810382526027815260200180611a1e6027913960400191505060405180910390fd5b610ada868680806020026020016040519081016040528093929190818152602001838360200280828437600081840152601f19601f82011690508083019250505050505050858580806020026020016040519081016040528093929190818152602001838360200280828437600081840152601f19601f8201169050808301925050505050505084611126565b5095945050505050565b7f4c494e410000000000000000000000000000000000000000000000000000000081565b600080610b136119df565b610b1c8461144f565b905080600001518160200151817affffffffffffffffffffffffffffffffffffffffffffffffffffff1691508064ffffffffff1690509250925050915091565b600160009054906101000a900473ffffffffffffffffffffffffffffffffffffffff1681565b600060046000838152602001908152602001600020549050919050565b60008054906101000a900473ffffffffffffffffffffffffffffffffffffffff1673ffffffffffffffffffffffffffffffffffffffff163373ffffffffffffffffffffffffffffffffffffffff1614610c43576040517f08c379a000000000000000000000000000000000000000000000000000000000815260040180806020018281038252602f815260200180611aa1602f913960400191505060405180910390fd5b80600260006101000a81548173ffffffffffffffffffffffffffffffffffffffff021916908373ffffffffffffffffffffffffffffffffffffffff1602179055507f3df77beb5db05fcdd70a30fc8adf3f83f9501b68579455adbd100b8180940394600260009054906101000a900473ffffffffffffffffffffffffffffffffffffffff16604051808273ffffffffffffffffffffffffffffffffffffffff16815260200191505060405180910390a150565b600260009054906101000a900473ffffffffffffffffffffffffffffffffffffffff1681565b60035481565b60008054906101000a900473ffffffffffffffffffffffffffffffffffffffff1673ffffffffffffffffffffffffffffffffffffffff163373ffffffffffffffffffffffffffffffffffffffff1614610dc6576040517f08c379a000000000000000000000000000000000000000000000000000000000815260040180806020018281038252602f815260200180611aa1602f913960400191505060405180910390fd5b806003819055507f8e163815dacf2204ab589790672a86e421041804acc4cb85a7caebac33be1b2b6003546040518082815260200191505060405180910390a150565b6000806000610e19868686611534565b92509250925093509350939050565b7f6c5573640000000000000000000000000000000000000000000000000000000081565b60007f6c55736400000000000000000000000000000000000000000000000000000000821415610e7f5760009050610ea1565b42610e9d600354610e8f85611593565b6115bc90919063ffffffff16565b1090505b919050565b6000610eb3848484611534565b905050809150509392505050565b60008054906101000a900473ffffffffffffffffffffffffffffffffffffffff1681565b600260009054906101000a900473ffffffffffffffffffffffffffffffffffffffff1673ffffffffffffffffffffffffffffffffffffffff163373ffffffffffffffffffffffffffffffffffffffff1614610f8b576040517f08c379a0000000000000000000000000000000000000000000000000000000008152600401808060200182810382526027815260200180611a1e6027913960400191505060405180910390fd5b6000610f96826110e7565b11611009576040517f08c379a000000000000000000000000000000000000000000000000000000000815260040180806020018281038252600d8152602001807f7072696365206973207a65726f0000000000000000000000000000000000000081525060200191505060405180910390fd5b60056000828152602001908152602001600020600060046000848152602001908152602001600020548152602001908152602001600020600080820160006101000a8154907affffffffffffffffffffffffffffffffffffffffffffffffffffff021916905560008201601b6101000a81549064ffffffffff021916905550506004600082815260200190815260200160002060008154809291906001900391905055507f51f3f19adde37577d6721b49f83408323301f0ca1ca006c565a06a97ab34fb63816040518082815260200191505060405180910390a150565b60006110f16119df565b6110fa8361144f565b905080600001517affffffffffffffffffffffffffffffffffffffffffffffffffffff16915050919050565b6000825184511461119f576040517f08c379a000000000000000000000000000000000000000000000000000000000815260040180806020018281038252601e8152602001807f6172726179206c656e677468206572726f722c206e6f74206d617463682e000081525060200191505060405180910390fd5b61025842018210611218576040517f08c379a000000000000000000000000000000000000000000000000000000000815260040180806020018281038252600a8152602001807f54696d65206572726f720000000000000000000000000000000000000000000081525060200191505060405180910390fd5b60005b845181101561138257600085828151811061123257fe5b60200260200101519050600085838151811061124a57fe5b602002602001015114156112a9576040517f08c379a000000000000000000000000000000000000000000000000000000000815260040180806020018281038252603b815260200180611a66603b913960400191505060405180910390fd5b7f6c5573640000000000000000000000000000000000000000000000000000000081141561133f576040517f08c379a00000000000000000000000000000000000000000000000000000000081526004018080602001828103825260178152602001807f4c5553442063616e6e6f7420626520757064617465642e00000000000000000081525060200191505060405180910390fd5b61134881611593565b8410156113555750611375565b6113738186848151811061136557fe5b602002602001015186611644565b505b808060010191505061121b565b507f50f458355598dce23d4845c2c970630fc5a034b193135796749e6238b036e0db8484604051808060200180602001838103835285818151815260200191508051906020019060200280838360005b838110156113ed5780820151818401526020810190506113d2565b50505050905001838103825284818151815260200191508051906020019060200280838360005b8381101561142f578082015181840152602081019050611414565b5050505090500194505050505060405180910390a1600190509392505050565b6114576119df565b600560008381526020019081526020016000206000600460008581526020019081526020016000205481526020019081526020016000206040518060400160405290816000820160009054906101000a90047affffffffffffffffffffffffffffffffffffffffffffffffffffff167affffffffffffffffffffffffffffffffffffffffffffffffffffff167affffffffffffffffffffffffffffffffffffffffffffffffffffff16815260200160008201601b9054906101000a900464ffffffffff1664ffffffffff1664ffffffffff16815250509050919050565b6000806000611542866110e7565b9150838614156115575781905084925061158a565b611560846110e7565b905061158781611579848861175d90919063ffffffff16565b61177990919063ffffffff16565b92505b93509350939050565b600061159d6119df565b6115a68361144f565b9050806020015164ffffffffff16915050919050565b60008082840190508381101561163a576040517f08c379a000000000000000000000000000000000000000000000000000000000815260040180806020018281038252601b8152602001807f536166654d6174683a206164646974696f6e206f766572666c6f77000000000081525060200191505060405180910390fd5b8091505092915050565b60046000848152602001908152602001600020600081548092919060010191905055506040518060400160405280837affffffffffffffffffffffffffffffffffffffffffffffffffffff1681526020018264ffffffffff168152506005600085815260200190815260200160002060006004600087815260200190815260200160002054815260200190815260200160002060008201518160000160006101000a8154817affffffffffffffffffffffffffffffffffffffffffffffffffffff02191690837affffffffffffffffffffffffffffffffffffffffffffffffffffff160217905550602082015181600001601b6101000a81548164ffffffffff021916908364ffffffffff160217905550905050505050565b60006117718383601260ff16600a0a611795565b905092915050565b600061178d8383601260ff16600a0a6117ee565b905092915050565b600080600a83816117a257fe5b046117b6858761184990919063ffffffff16565b816117bd57fe5b0490506005600a82816117cc57fe5b06106117d957600a810190505b600a81816117e357fe5b049150509392505050565b6000806118198461180b600a86028861184990919063ffffffff16565b6118cf90919063ffffffff16565b90506005600a828161182757fe5b061061183457600a810190505b600a818161183e57fe5b049150509392505050565b60008083141561185c57600090506118c9565b600082840290508284828161186d57fe5b04146118c4576040517f08c379a0000000000000000000000000000000000000000000000000000000008152600401808060200182810382526021815260200180611a456021913960400191505060405180910390fd5b809150505b92915050565b600061191183836040518060400160405280601a81526020017f536166654d6174683a206469766973696f6e206279207a65726f000000000000815250611919565b905092915050565b600080831182906119c5576040517f08c379a00000000000000000000000000000000000000000000000000000000081526004018080602001828103825283818151815260200191508051906020019080838360005b8381101561198a57808201518184015260208101905061196f565b50505050905090810190601f1680156119b75780820380516001836020036101000a031916815260200191505b509250505060405180910390fd5b5060008385816119d157fe5b049050809150509392505050565b604051806040016040528060007affffffffffffffffffffffffffffffffffffffffffffffffffffff168152602001600064ffffffffff168152509056fe4f6e6c7920746865206f7261636c652063616e20706572666f726d207468697320616374696f6e536166654d6174683a206d756c7469706c69636174696f6e206f766572666c6f775a65726f206973206e6f7420612076616c69642070726963652c20706c656173652063616c6c2064656c657465507269636520696e73746561642e4f6e6c792074686520636f6e74726163742061646d696e2063616e20706572666f726d207468697320616374696f6ea26469706673582212201d76d4ad54f758939d0344f411f4f71e8841566f922c0ca08d05ac43786a555964736f6c634300060c00335a65726f206973206e6f7420612076616c69642070726963652c20706c656173652063616c6c2064656c657465507269636520696e73746561642e",
  "immutableReferences": {},
  "source": "// SPDX-License-Identifier: MIT\r\npragma solidity ^0.6.0;\r\n\r\nimport \"./LnAdmin.sol\";\r\nimport \"./LnPrices.sol\";\r\n\r\nimport \"./SafeDecimalMath.sol\";\r\n\r\ncontract LnDefaultPrices is LnAdmin, LnBasePrices {\r\n    using SafeMath for uint;\r\n    using SafeDecimalMath for uint;\r\n\r\n    address public oracle;\r\n\r\n    uint public override stalePeriod = 12 hours;\r\n\r\n    mapping(bytes32 => uint) public mPricesLastRound;\r\n\r\n    struct PriceData {\r\n        uint216 mPrice;\r\n        uint40 mTime;\r\n    }\r\n\r\n    mapping(bytes32 => mapping(uint => PriceData)) private mPricesStorage;\r\n    \r\n    uint private constant ORACLE_TIME_LIMIT = 10 minutes;\r\n\r\n    //\r\n    // ========== CONSTRUCTOR ==========\r\n    constructor( address _admin, address _oracle, bytes32[] memory _currencyNames, uint[] memory _newPrices ) public \r\n        LnAdmin(_admin) \r\n    {\r\n        require(_currencyNames.length == _newPrices.length, \"array length error.\");\r\n\r\n        oracle = _oracle;\r\n\r\n      // The LUSD price is always 1 and is never stale.\r\n        _setPrice( LUSD, SafeDecimalMath.unit(), now);\r\n\r\n        _updateAll(_currencyNames, _newPrices, now);\r\n    }\r\n\r\n    /* interface */\r\n    function getPrice(bytes32 currencyName) external view override returns (uint) {\r\n        return _getPrice(currencyName);\r\n    }\r\n\r\n    function getPriceAndUpdatedTime(bytes32 currencyName) external view override returns (uint price, uint time) {\r\n        PriceData memory priceAndTime = _getPriceData(currencyName);\r\n        return (priceAndTime.mPrice, priceAndTime.mTime);\r\n    }\r\n\r\n    function exchange( bytes32 sourceName, uint sourceAmount, bytes32 destName ) external view override returns (uint value) {\r\n        (value, , ) = _exchangeAndPrices(sourceName, sourceAmount, destName);\r\n    }\r\n\r\n    function exchangeAndPrices( bytes32 sourceName, uint sourceAmount, bytes32 destName ) external view override\r\n        returns (uint value, uint sourcePrice, uint destPrice )\r\n    {\r\n        return _exchangeAndPrices(sourceName, sourceAmount, destName);\r\n    }\r\n\r\n    function isStale(bytes32 currencyName) external view override returns (bool) {\r\n        if (currencyName == LUSD ) return false;\r\n        return _getUpdatedTime(currencyName).add(stalePeriod) < now;\r\n    }\r\n\r\n\r\n    /* functions */\r\n    function getCurrentRoundId(bytes32 currencyName) external view returns (uint) {\r\n        return mPricesLastRound[currencyName];\r\n    }\r\n\r\n\r\n    function setOracle(address _oracle) external onlyAdmin {\r\n        oracle = _oracle;\r\n        emit OracleUpdated(oracle);\r\n    }\r\n\r\n    function setStalePeriod(uint _time) external onlyAdmin {\r\n        stalePeriod = _time;\r\n        emit StalePeriodUpdated(stalePeriod);\r\n    }\r\n\r\n    //  oracle\r\n    function updateAll( bytes32[] calldata currencyNames, uint[] calldata newPrices, uint timeSent ) external onlyOracle returns (bool) {\r\n        _updateAll(currencyNames, newPrices, timeSent);\r\n    }\r\n\r\n    \r\n    function deletePrice(bytes32 currencyName) external onlyOracle {\r\n        require( _getPrice(currencyName) > 0, \"price is zero\");\r\n\r\n        delete mPricesStorage[currencyName][mPricesLastRound[currencyName]];\r\n\r\n        mPricesLastRound[currencyName]--;\r\n\r\n        emit PriceDeleted(currencyName);\r\n    }\r\n\r\n\r\n    function _setPrice( bytes32 currencyName, uint256 price, uint256 time ) internal {\r\n        // start from 1\r\n        mPricesLastRound[currencyName]++;\r\n        mPricesStorage[currencyName][mPricesLastRound[currencyName]] = \r\n            PriceData({ mPrice: uint216(price), mTime: uint40(time) });\r\n    }\r\n\r\n\r\n    function _updateAll( bytes32[] memory currencyNames, uint[] memory newPrices, uint timeSent ) internal returns (bool) {\r\n        require(currencyNames.length == newPrices.length, \"array length error, not match.\");\r\n        require(timeSent < (now + ORACLE_TIME_LIMIT), \"Time error\");\r\n\r\n        for (uint i = 0; i < currencyNames.length; i++) {\r\n            bytes32 currencyName = currencyNames[i];\r\n\r\n            require(newPrices[i] != 0, \"Zero is not a valid price, please call deletePrice instead.\");\r\n            require(currencyName != LUSD, \"LUSD cannot be updated.\");\r\n\r\n            if (timeSent < _getUpdatedTime(currencyName)) {\r\n                continue;\r\n            }\r\n\r\n            _setPrice(currencyName, newPrices[i], timeSent);\r\n        }\r\n\r\n        emit PricesUpdated(currencyNames, newPrices);\r\n\r\n        return true;\r\n    }\r\n\r\n\r\n    function _getPriceData(bytes32 currencyName) internal view virtual returns (PriceData memory) {\r\n        return mPricesStorage[currencyName][mPricesLastRound[currencyName]];\r\n    }\r\n\r\n     function _getPrice(bytes32 currencyName ) internal view returns (uint256) {\r\n        PriceData memory priceAndTime = _getPriceData(currencyName);\r\n        return priceAndTime.mPrice;\r\n    }\r\n\r\n    function _getUpdatedTime(bytes32 currencyName ) internal view returns (uint256) {\r\n        PriceData memory priceAndTime = _getPriceData(currencyName);\r\n        return priceAndTime.mTime;\r\n    }\r\n\r\n    function _exchangeAndPrices( bytes32 sourceName, uint sourceAmount, bytes32 destName ) internal view \r\n        returns ( uint value, uint sourcePrice, uint destPrice )\r\n    {\r\n        sourcePrice = _getPrice(sourceName);\r\n        // If there's no change in the currency, then just return the amount they gave us\r\n        if (sourceName == destName) {\r\n            destPrice = sourcePrice;\r\n            value = sourceAmount;\r\n        } else {\r\n            // Calculate the effective value by going from source -> USD -> destination\r\n            destPrice = _getPrice(destName);\r\n            value = sourceAmount.multiplyDecimalRound(sourcePrice).divideDecimalRound(destPrice);\r\n        }\r\n    }\r\n\r\n    /* ========== MODIFIERS ========== */\r\n    modifier onlyOracle {\r\n        require(msg.sender == oracle, \"Only the oracle can perform this action\");\r\n        _;\r\n    }\r\n\r\n    /* ========== EVENTS ========== */\r\n    event OracleUpdated(address newOracle);\r\n    event StalePeriodUpdated(uint priceStalePeriod);\r\n    event PricesUpdated(bytes32[] currencyNames, uint[] newPrices);\r\n    event PriceDeleted(bytes32 currencyName);\r\n}\r\n",
  "sourcePath": "/mnt/d/working/linearFinance/smartcontracts/contracts/LnDefaultPrices.sol",
  "compiler": {
    "name": "solc",
    "version": "0.6.12+commit.27d51765.Emscripten.clang"
  },
  "schemaVersion": "3.2.3",
  "updatedAt": "2020-09-30T02:25:23.692Z",
  "networkType": "ethereum",
  "devdoc": {
    "kind": "dev",
    "methods": {},
    "version": 1
  },
  "userdoc": {
    "kind": "user",
    "methods": {},
    "version": 1
  }
}