{
  "contractName": "LnEndAdmin",
  "abi": [
    {
      "inputs": [],
      "stateMutability": "nonpayable",
      "type": "constructor"
    },
    {
      "inputs": [
        {
          "internalType": "address",
          "name": "target",
          "type": "address"
        }
      ],
      "name": "becomeAdmin",
      "outputs": [],
      "stateMutability": "nonpayable",
      "type": "function"
    }
  ],
  "bytecode": "0x608060405234801561001057600080fd5b50610105806100206000396000f3fe6080604052348015600f57600080fd5b506004361060285760003560e01c8063e768c93c14602d575b600080fd5b606c60048036036020811015604157600080fd5b81019080803573ffffffffffffffffffffffffffffffffffffffff169060200190929190505050606e565b005b8073ffffffffffffffffffffffffffffffffffffffff166325971dff6040518163ffffffff1660e01b8152600401600060405180830381600087803b15801560b557600080fd5b505af115801560c8573d6000803e3d6000fd5b505050505056fea26469706673582212202075ab94ffe387a65ebc7f43195a8670eff055180ae389ffe8cf7a06512b4efc64736f6c634300060c0033",
  "immutableReferences": {},
  "source": "// SPDX-License-Identifier: MIT\npragma solidity ^0.6.12;\n\nimport \"./LnAdmin.sol\";\n\ncontract LnEndAdmin {\n    constructor() public {\n\n    }\n\n    function becomeAdmin(address target) external {\n        LnAdmin(target).becomeAdmin();\n    }\n}\n",
  "sourcePath": "/Users/michael/Linear-finance/Linear/contracts/LnEndAdmin.sol",
  "compiler": {
    "name": "solc",
    "version": "0.6.12+commit.27d51765.Emscripten.clang"
  },
  "schemaVersion": "3.3.1",
  "updatedAt": "2020-10-27T11:04:12.327Z",
  "devdoc": {
    "kind": "dev",
    "methods": {},
    "version": 1
  },
  "userdoc": {
    "kind": "user",
    "methods": {},
    "version": 1
  }
}