{
  "contractName": "LnFeeSystemTest",
  "abi": [
    {
      "inputs": [
        {
          "internalType": "address",
          "name": "_admin",
          "type": "address"
        }
      ],
      "stateMutability": "nonpayable",
      "type": "constructor"
    },
    {
      "anonymous": false,
      "inputs": [
        {
          "indexed": false,
          "internalType": "address",
          "name": "oldAdmin",
          "type": "address"
        },
        {
          "indexed": false,
          "internalType": "address",
          "name": "newAdmin",
          "type": "address"
        }
      ],
      "name": "AdminChanged",
      "type": "event"
    },
    {
      "anonymous": false,
      "inputs": [
        {
          "indexed": false,
          "internalType": "uint256",
          "name": "feeUsd",
          "type": "uint256"
        }
      ],
      "name": "ExchangeFee",
      "type": "event"
    },
    {
      "anonymous": false,
      "inputs": [
        {
          "indexed": false,
          "internalType": "address",
          "name": "user",
          "type": "address"
        },
        {
          "indexed": false,
          "internalType": "uint256",
          "name": "lUSDAmount",
          "type": "uint256"
        },
        {
          "indexed": false,
          "internalType": "uint256",
          "name": "linaRewards",
          "type": "uint256"
        }
      ],
      "name": "FeesClaimed",
      "type": "event"
    },
    {
      "anonymous": false,
      "inputs": [
        {
          "indexed": false,
          "internalType": "uint256",
          "name": "reward",
          "type": "uint256"
        }
      ],
      "name": "RewardCollateral",
      "type": "event"
    },
    {
      "anonymous": false,
      "inputs": [
        {
          "indexed": false,
          "internalType": "address",
          "name": "oldCandidate",
          "type": "address"
        },
        {
          "indexed": false,
          "internalType": "address",
          "name": "newCandidate",
          "type": "address"
        }
      ],
      "name": "candidateChanged",
      "type": "event"
    },
    {
      "anonymous": false,
      "inputs": [
        {
          "indexed": false,
          "internalType": "bytes32",
          "name": "name",
          "type": "bytes32"
        },
        {
          "indexed": false,
          "internalType": "address",
          "name": "addr",
          "type": "address"
        }
      ],
      "name": "updateCachedAddress",
      "type": "event"
    },
    {
      "inputs": [],
      "name": "FEE_DUMMY_ADDRESS",
      "outputs": [
        {
          "internalType": "address",
          "name": "",
          "type": "address"
        }
      ],
      "stateMutability": "view",
      "type": "function",
      "constant": true
    },
    {
      "inputs": [
        {
          "internalType": "address",
          "name": "_exchangeSystem",
          "type": "address"
        },
        {
          "internalType": "address",
          "name": "_rewardDistri",
          "type": "address"
        }
      ],
      "name": "Init",
      "outputs": [],
      "stateMutability": "nonpayable",
      "type": "function"
    },
    {
      "inputs": [],
      "name": "LockTime",
      "outputs": [
        {
          "internalType": "uint64",
          "name": "",
          "type": "uint64"
        }
      ],
      "stateMutability": "view",
      "type": "function",
      "constant": true
    },
    {
      "inputs": [],
      "name": "OnePeriodSecs",
      "outputs": [
        {
          "internalType": "uint256",
          "name": "",
          "type": "uint256"
        }
      ],
      "stateMutability": "view",
      "type": "function",
      "constant": true
    },
    {
      "inputs": [
        {
          "internalType": "address",
          "name": "user",
          "type": "address"
        },
        {
          "internalType": "uint256",
          "name": "debtProportion",
          "type": "uint256"
        },
        {
          "internalType": "uint256",
          "name": "debtFactor",
          "type": "uint256"
        }
      ],
      "name": "RecordUserDebt",
      "outputs": [],
      "stateMutability": "nonpayable",
      "type": "function"
    },
    {
      "inputs": [
        {
          "internalType": "int16",
          "name": "index",
          "type": "int16"
        },
        {
          "internalType": "uint256",
          "name": "id",
          "type": "uint256"
        },
        {
          "internalType": "uint256",
          "name": "startingDebtFactor",
          "type": "uint256"
        },
        {
          "internalType": "uint256",
          "name": "startTime",
          "type": "uint256"
        },
        {
          "internalType": "uint256",
          "name": "feesToDistribute",
          "type": "uint256"
        },
        {
          "internalType": "uint256",
          "name": "feesClaimed",
          "type": "uint256"
        },
        {
          "internalType": "uint256",
          "name": "rewardsToDistribute",
          "type": "uint256"
        },
        {
          "internalType": "uint256",
          "name": "rewardsClaimed",
          "type": "uint256"
        }
      ],
      "name": "SetPeriodData",
      "outputs": [],
      "stateMutability": "nonpayable",
      "type": "function"
    },
    {
      "inputs": [
        {
          "internalType": "uint256",
          "name": "reward",
          "type": "uint256"
        }
      ],
      "name": "addCollateralRewards",
      "outputs": [],
      "stateMutability": "nonpayable",
      "type": "function"
    },
    {
      "inputs": [
        {
          "internalType": "uint256",
          "name": "feeUsd",
          "type": "uint256"
        }
      ],
      "name": "addExchangeFee",
      "outputs": [],
      "stateMutability": "nonpayable",
      "type": "function"
    },
    {
      "inputs": [],
      "name": "admin",
      "outputs": [
        {
          "internalType": "address",
          "name": "",
          "type": "address"
        }
      ],
      "stateMutability": "view",
      "type": "function",
      "constant": true
    },
    {
      "inputs": [],
      "name": "becomeAdmin",
      "outputs": [],
      "stateMutability": "nonpayable",
      "type": "function"
    },
    {
      "inputs": [],
      "name": "candidate",
      "outputs": [
        {
          "internalType": "address",
          "name": "",
          "type": "address"
        }
      ],
      "stateMutability": "view",
      "type": "function",
      "constant": true
    },
    {
      "inputs": [],
      "name": "claimFees",
      "outputs": [
        {
          "internalType": "bool",
          "name": "",
          "type": "bool"
        }
      ],
      "stateMutability": "nonpayable",
      "type": "function"
    },
    {
      "inputs": [],
      "name": "collateralSystem",
      "outputs": [
        {
          "internalType": "contract LnCollateralSystem",
          "name": "",
          "type": "address"
        }
      ],
      "stateMutability": "view",
      "type": "function",
      "constant": true
    },
    {
      "inputs": [],
      "name": "curRewardPeriod",
      "outputs": [
        {
          "internalType": "uint256",
          "name": "id",
          "type": "uint256"
        },
        {
          "internalType": "uint256",
          "name": "startingDebtFactor",
          "type": "uint256"
        },
        {
          "internalType": "uint256",
          "name": "startTime",
          "type": "uint256"
        },
        {
          "internalType": "uint256",
          "name": "feesToDistribute",
          "type": "uint256"
        },
        {
          "internalType": "uint256",
          "name": "feesClaimed",
          "type": "uint256"
        },
        {
          "internalType": "uint256",
          "name": "rewardsToDistribute",
          "type": "uint256"
        },
        {
          "internalType": "uint256",
          "name": "rewardsClaimed",
          "type": "uint256"
        }
      ],
      "stateMutability": "view",
      "type": "function",
      "constant": true
    },
    {
      "inputs": [],
      "name": "debtSystem",
      "outputs": [
        {
          "internalType": "contract LnDebtSystem",
          "name": "",
          "type": "address"
        }
      ],
      "stateMutability": "view",
      "type": "function",
      "constant": true
    },
    {
      "inputs": [],
      "name": "exchangeSystemAddress",
      "outputs": [
        {
          "internalType": "address",
          "name": "",
          "type": "address"
        }
      ],
      "stateMutability": "view",
      "type": "function",
      "constant": true
    },
    {
      "inputs": [],
      "name": "feePeriodDuration",
      "outputs": [
        {
          "internalType": "uint256",
          "name": "",
          "type": "uint256"
        }
      ],
      "stateMutability": "view",
      "type": "function",
      "constant": true
    },
    {
      "inputs": [
        {
          "internalType": "address",
          "name": "user",
          "type": "address"
        }
      ],
      "name": "feesAvailable",
      "outputs": [
        {
          "internalType": "uint256",
          "name": "",
          "type": "uint256"
        },
        {
          "internalType": "uint256",
          "name": "",
          "type": "uint256"
        }
      ],
      "stateMutability": "view",
      "type": "function",
      "constant": true
    },
    {
      "inputs": [
        {
          "internalType": "address",
          "name": "account",
          "type": "address"
        }
      ],
      "name": "isFeesClaimable",
      "outputs": [
        {
          "internalType": "bool",
          "name": "feesClaimable",
          "type": "bool"
        }
      ],
      "stateMutability": "view",
      "type": "function",
      "constant": true
    },
    {
      "inputs": [],
      "name": "preRewardPeriod",
      "outputs": [
        {
          "internalType": "uint256",
          "name": "id",
          "type": "uint256"
        },
        {
          "internalType": "uint256",
          "name": "startingDebtFactor",
          "type": "uint256"
        },
        {
          "internalType": "uint256",
          "name": "startTime",
          "type": "uint256"
        },
        {
          "internalType": "uint256",
          "name": "feesToDistribute",
          "type": "uint256"
        },
        {
          "internalType": "uint256",
          "name": "feesClaimed",
          "type": "uint256"
        },
        {
          "internalType": "uint256",
          "name": "rewardsToDistribute",
          "type": "uint256"
        },
        {
          "internalType": "uint256",
          "name": "rewardsClaimed",
          "type": "uint256"
        }
      ],
      "stateMutability": "view",
      "type": "function",
      "constant": true
    },
    {
      "inputs": [
        {
          "internalType": "uint256",
          "name": "index",
          "type": "uint256"
        }
      ],
      "name": "recentFeePeriods",
      "outputs": [
        {
          "internalType": "uint256",
          "name": "id",
          "type": "uint256"
        },
        {
          "internalType": "uint256",
          "name": "startingDebtFactor",
          "type": "uint256"
        },
        {
          "internalType": "uint256",
          "name": "startTime",
          "type": "uint256"
        },
        {
          "internalType": "uint256",
          "name": "feesToDistribute",
          "type": "uint256"
        },
        {
          "internalType": "uint256",
          "name": "feesClaimed",
          "type": "uint256"
        },
        {
          "internalType": "uint256",
          "name": "rewardsToDistribute",
          "type": "uint256"
        },
        {
          "internalType": "uint256",
          "name": "rewardsClaimed",
          "type": "uint256"
        }
      ],
      "stateMutability": "view",
      "type": "function",
      "constant": true
    },
    {
      "inputs": [],
      "name": "rewardDistributer",
      "outputs": [
        {
          "internalType": "address",
          "name": "",
          "type": "address"
        }
      ],
      "stateMutability": "view",
      "type": "function",
      "constant": true
    },
    {
      "inputs": [],
      "name": "rewardLocker",
      "outputs": [
        {
          "internalType": "contract LnRewardLocker",
          "name": "",
          "type": "address"
        }
      ],
      "stateMutability": "view",
      "type": "function",
      "constant": true
    },
    {
      "inputs": [
        {
          "internalType": "address",
          "name": "_candidate",
          "type": "address"
        }
      ],
      "name": "setCandidate",
      "outputs": [],
      "stateMutability": "nonpayable",
      "type": "function"
    },
    {
      "inputs": [
        {
          "internalType": "address",
          "name": "_address",
          "type": "address"
        }
      ],
      "name": "setExchangeSystemAddress",
      "outputs": [],
      "stateMutability": "nonpayable",
      "type": "function"
    },
    {
      "inputs": [],
      "name": "switchPeriod",
      "outputs": [],
      "stateMutability": "nonpayable",
      "type": "function"
    },
    {
      "inputs": [
        {
          "internalType": "contract LnAddressStorage",
          "name": "_addressStorage",
          "type": "address"
        }
      ],
      "name": "updateAddressCache",
      "outputs": [],
      "stateMutability": "nonpayable",
      "type": "function"
    },
    {
      "inputs": [
        {
          "internalType": "address",
          "name": "",
          "type": "address"
        }
      ],
      "name": "userLastClaimedId",
      "outputs": [
        {
          "internalType": "uint256",
          "name": "",
          "type": "uint256"
        }
      ],
      "stateMutability": "view",
      "type": "function",
      "constant": true
    },
    {
      "inputs": [
        {
          "internalType": "address",
          "name": "",
          "type": "address"
        },
        {
          "internalType": "uint256",
          "name": "",
          "type": "uint256"
        }
      ],
      "name": "userPeriodDebt",
      "outputs": [
        {
          "internalType": "uint256",
          "name": "PeriodID",
          "type": "uint256"
        },
        {
          "internalType": "uint256",
          "name": "debtProportion",
          "type": "uint256"
        },
        {
          "internalType": "uint256",
          "name": "debtFactor",
          "type": "uint256"
        }
      ],
      "stateMutability": "view",
      "type": "function",
      "constant": true
    }
  ],
  "bytecode": "0x608060405262093a806010556301dfe200601160006101000a81548167ffffffffffffffff021916908367ffffffffffffffff16021790555034801561004457600080fd5b506040516133323803806133328339818101604052602081101561006757600080fd5b81019080805190602001909291905050508080600073ffffffffffffffffffffffffffffffffffffffff168173ffffffffffffffffffffffffffffffffffffffff16141561011d576040517f08c379a00000000000000000000000000000000000000000000000000000000081526004018080602001828103825260198152602001807f61646d696e20616464726573732063616e6e6f7420626520300000000000000081525060200191505060405180910390fd5b806000806101000a81548173ffffffffffffffffffffffffffffffffffffffff021916908373ffffffffffffffffffffffffffffffffffffffff1602179055507f7e644d79422f17c01e4894b5f4f588d331ebfa28653d42ae832dc59e38c9798f600082604051808373ffffffffffffffffffffffffffffffffffffffff1681526020018273ffffffffffffffffffffffffffffffffffffffff1681526020019250505060405180910390a15050615460601081905550610e10601160006101000a81548167ffffffffffffffff021916908367ffffffffffffffff160217905550506131238061020f6000396000f3fe608060405234801561001057600080fd5b50600436106101cf5760003560e01c806359a2f19f116101045780638b519fd9116100a2578063d294f09311610071578063d294f093146107d5578063e7d7701b146107f5578063f1335ca714610839578063f851a440146108b1576101cf565b80638b519fd9146106f9578063b3f3e67314610727578063bae747db14610731578063bc02909114610765576101cf565b80636c8381f8116100de5780636c8381f8146105dd578063704d351214610611578063708d5210146106695780637f86b71b146106b1576101cf565b806359a2f19f1461051157806359ed60051461056b5780635a5f14c814610599576101cf565b80633892601c116101715780634b86f75f1161014b5780634b86f75f146104635780634bcff4601461049757806353d2341d146104b557806354cf2d79146104e9576101cf565b80633892601c1461035f5780633fcd22401461039357806345acd56f146103ff576101cf565b806322425fa4116101ad57806322425fa4146102ab57806325971dff146102c957806335e4a171146102d357806336babe7a1461032b576101cf565b806307880b7f146101d45780630de586151461021857806321f4808e14610277575b600080fd5b610216600480360360208110156101ea57600080fd5b81019080803573ffffffffffffffffffffffffffffffffffffffff1690602001909291905050506108e5565b005b61025a6004803603602081101561022e57600080fd5b81019080803573ffffffffffffffffffffffffffffffffffffffff169060200190929190505050610a82565b604051808381526020018281526020019250505060405180910390f35b61027f610e40565b604051808273ffffffffffffffffffffffffffffffffffffffff16815260200191505060405180910390f35b6102b3610e66565b6040518082815260200191505060405180910390f35b6102d1610e70565b005b610329600480360360608110156102e957600080fd5b81019080803573ffffffffffffffffffffffffffffffffffffffff1690602001909291908035906020019092919080359060200190929190505050611049565b005b6103336113b1565b604051808273ffffffffffffffffffffffffffffffffffffffff16815260200191505060405180910390f35b6103676113d7565b604051808273ffffffffffffffffffffffffffffffffffffffff16815260200191505060405180910390f35b6103bf600480360360208110156103a957600080fd5b81019080803590602001909291905050506113fd565b6040518088815260200187815260200186815260200185815260200184815260200183815260200182815260200197505050505050505060405180910390f35b6104616004803603604081101561041557600080fd5b81019080803573ffffffffffffffffffffffffffffffffffffffff169060200190929190803573ffffffffffffffffffffffffffffffffffffffff16906020019092919050505061152e565b005b61046b611658565b604051808273ffffffffffffffffffffffffffffffffffffffff16815260200191505060405180910390f35b61049f61167e565b6040518082815260200191505060405180910390f35b6104bd611684565b604051808273ffffffffffffffffffffffffffffffffffffffff16815260200191505060405180910390f35b6104f16116aa565b604051808267ffffffffffffffff16815260200191505060405180910390f35b6105536004803603602081101561052757600080fd5b81019080803573ffffffffffffffffffffffffffffffffffffffff1690602001909291905050506116c4565b60405180821515815260200191505060405180910390f35b6105976004803603602081101561058157600080fd5b81019080803590602001909291905050506117fd565b005b6105db600480360360208110156105af57600080fd5b81019080803573ffffffffffffffffffffffffffffffffffffffff16906020019092919050505061191b565b005b6105e561209b565b604051808273ffffffffffffffffffffffffffffffffffffffff16815260200191505060405180910390f35b6106536004803603602081101561062757600080fd5b81019080803573ffffffffffffffffffffffffffffffffffffffff1690602001909291905050506120c1565b6040518082815260200191505060405180910390f35b6106716120d9565b6040518088815260200187815260200186815260200185815260200184815260200183815260200182815260200197505050505050505060405180910390f35b6106b9612109565b6040518088815260200187815260200186815260200185815260200184815260200183815260200182815260200197505050505050505060405180910390f35b6107256004803603602081101561070f57600080fd5b8101908080359060200190929190505050612139565b005b61072f612257565b005b610739612486565b604051808273ffffffffffffffffffffffffffffffffffffffff16815260200191505060405180910390f35b6107b16004803603604081101561077b57600080fd5b81019080803573ffffffffffffffffffffffffffffffffffffffff1690602001909291908035906020019092919050505061248c565b60405180848152602001838152602001828152602001935050505060405180910390f35b6107dd6124c6565b60405180821515815260200191505060405180910390f35b6108376004803603602081101561080b57600080fd5b81019080803573ffffffffffffffffffffffffffffffffffffffff1690602001909291905050506129a1565b005b6108af600480360361010081101561085057600080fd5b81019080803560010b906020019092919080359060200190929190803590602001909291908035906020019092919080359060200190929190803590602001909291908035906020019092919080359060200190929190505050612a89565b005b6108b9612b8f565b604051808273ffffffffffffffffffffffffffffffffffffffff16815260200191505060405180910390f35b60008054906101000a900473ffffffffffffffffffffffffffffffffffffffff1673ffffffffffffffffffffffffffffffffffffffff163373ffffffffffffffffffffffffffffffffffffffff1614610989576040517f08c379a000000000000000000000000000000000000000000000000000000000815260040180806020018281038252602f8152602001806130bf602f913960400191505060405180910390fd5b6000600160009054906101000a900473ffffffffffffffffffffffffffffffffffffffff16905081600160006101000a81548173ffffffffffffffffffffffffffffffffffffffff021916908373ffffffffffffffffffffffffffffffffffffffff1602179055507f0faed18be9e8f4d4c05dfbcc80ea2c97a0be729614d766827778f60890c02cab81600160009054906101000a900473ffffffffffffffffffffffffffffffffffffffff16604051808373ffffffffffffffffffffffffffffffffffffffff1681526020018273ffffffffffffffffffffffffffffffffffffffff1681526020019250505060405180910390a15050565b6000806000600960030154148015610a9f57506000600960050154145b15610ab05760008091509150610e3b565b6000806000805b601360008873ffffffffffffffffffffffffffffffffffffffff1673ffffffffffffffffffffffffffffffffffffffff1681526020019081526020016000205060028167ffffffffffffffff161015610caa57600260000154601360008973ffffffffffffffffffffffffffffffffffffffff1673ffffffffffffffffffffffffffffffffffffffff1681526020019081526020016000208267ffffffffffffffff1660028110610b6457fe5b6003020160000154108015610bd3575081601360008973ffffffffffffffffffffffffffffffffffffffff1673ffffffffffffffffffffffffffffffffffffffff1681526020019081526020016000208267ffffffffffffffff1660028110610bc957fe5b6003020160000154115b15610c9d576002600001549150601360008873ffffffffffffffffffffffffffffffffffffffff1673ffffffffffffffffffffffffffffffffffffffff1681526020019081526020016000208167ffffffffffffffff1660028110610c3457fe5b60030201600201549350601360008873ffffffffffffffffffffffffffffffffffffffff1673ffffffffffffffffffffffffffffffffffffffff1681526020019081526020016000208167ffffffffffffffff1660028110610c9257fe5b600302016001015492505b8080600101915050610ab7565b506000821415610d8a57601460009054906101000a900473ffffffffffffffffffffffffffffffffffffffff1673ffffffffffffffffffffffffffffffffffffffff166363bc6c4a876040518263ffffffff1660e01b8152600401808273ffffffffffffffffffffffffffffffffffffffff168152602001915050604080518083038186803b158015610d3c57600080fd5b505afa158015610d50573d6000803e3d6000fd5b505050506040513d6040811015610d6657600080fd5b81019080805190602001909291908051906020019092919050505080945081935050505b6000821415610da25760008094509450505050610e3b565b600060026001015490506000610dd384610dc58785612bb390919063ffffffff16565b612bcf90919063ffffffff16565b90506000610dff610dfa83610dec600960030154612beb565b612bcf90919063ffffffff16565b612c11565b90506000610e2b610e2684610e18600960050154612beb565b612bcf90919063ffffffff16565b612c11565b9050818198509850505050505050505b915091565b601560009054906101000a900473ffffffffffffffffffffffffffffffffffffffff1681565b6000601054905090565b600160009054906101000a900473ffffffffffffffffffffffffffffffffffffffff1673ffffffffffffffffffffffffffffffffffffffff163373ffffffffffffffffffffffffffffffffffffffff1614610f33576040517f08c379a000000000000000000000000000000000000000000000000000000000815260040180806020018281038252601f8152602001807f4f6e6c792063616e6469646174652063616e206265636f6d652061646d696e0081525060200191505060405180910390fd5b60008060009054906101000a900473ffffffffffffffffffffffffffffffffffffffff169050600160009054906101000a900473ffffffffffffffffffffffffffffffffffffffff166000806101000a81548173ffffffffffffffffffffffffffffffffffffffff021916908373ffffffffffffffffffffffffffffffffffffffff1602179055507f7e644d79422f17c01e4894b5f4f588d331ebfa28653d42ae832dc59e38c9798f8160008054906101000a900473ffffffffffffffffffffffffffffffffffffffff16604051808373ffffffffffffffffffffffffffffffffffffffff1681526020018273ffffffffffffffffffffffffffffffffffffffff1681526020019250505060405180910390a150565b601460009054906101000a900473ffffffffffffffffffffffffffffffffffffffff1673ffffffffffffffffffffffffffffffffffffffff163373ffffffffffffffffffffffffffffffffffffffff161461110c576040517f08c379a00000000000000000000000000000000000000000000000000000000081526004018080602001828103825260158152602001807f4f6e6c7920446562742073797374656d2063616c6c000000000000000000000081525060200191505060405180910390fd5b600060026000015490506000601360008673ffffffffffffffffffffffffffffffffffffffff1673ffffffffffffffffffffffffffffffffffffffff16815260200190815260200160002060016002811061116357fe5b6003020160000154601360008773ffffffffffffffffffffffffffffffffffffffff1673ffffffffffffffffffffffffffffffffffffffff1681526020019081526020016000206000600281106111b657fe5b600302016000015411156111c957600190505b600081905060005b601360008873ffffffffffffffffffffffffffffffffffffffff1673ffffffffffffffffffffffffffffffffffffffff1681526020019081526020016000205060028167ffffffffffffffff1610156112a65783601360008973ffffffffffffffffffffffffffffffffffffffff1673ffffffffffffffffffffffffffffffffffffffff1681526020019081526020016000208267ffffffffffffffff166002811061127957fe5b60030201600001541415611299578067ffffffffffffffff1691506112a6565b80806001019150506111d1565b5082601360008873ffffffffffffffffffffffffffffffffffffffff1673ffffffffffffffffffffffffffffffffffffffff16815260200190815260200160002082600281106112f257fe5b600302016000018190555084601360008873ffffffffffffffffffffffffffffffffffffffff1673ffffffffffffffffffffffffffffffffffffffff168152602001908152602001600020826002811061134857fe5b600302016001018190555083601360008873ffffffffffffffffffffffffffffffffffffffff1673ffffffffffffffffffffffffffffffffffffffff168152602001908152602001600020826002811061139e57fe5b6003020160020181905550505050505050565b601960009054906101000a900473ffffffffffffffffffffffffffffffffffffffff1681565b601660009054906101000a900473ffffffffffffffffffffffffffffffffffffffff1681565b6000806000806000806000600188111561142f5760008060008060008060009650965096509650965096509650611523565b61143761303c565b600089141561149a5760026040518060e001604052908160008201548152602001600182015481526020016002820154815260200160038201548152602001600482015481526020016005820154815260200160068201548152505090506114f0565b60096040518060e001604052908160008201548152602001600182015481526020016002820154815260200160038201548152602001600482015481526020016005820154815260200160068201548152505090505b806000015181602001518260400151836060015184608001518560a001518660c001519750975097509750975097509750505b919395979092949650565b60008054906101000a900473ffffffffffffffffffffffffffffffffffffffff1673ffffffffffffffffffffffffffffffffffffffff163373ffffffffffffffffffffffffffffffffffffffff16146115d2576040517f08c379a000000000000000000000000000000000000000000000000000000000815260040180806020018281038252602f8152602001806130bf602f913960400191505060405180910390fd5b81601860006101000a81548173ffffffffffffffffffffffffffffffffffffffff021916908373ffffffffffffffffffffffffffffffffffffffff16021790555080601960006101000a81548173ffffffffffffffffffffffffffffffffffffffff021916908373ffffffffffffffffffffffffffffffffffffffff1602179055505050565b601460009054906101000a900473ffffffffffffffffffffffffffffffffffffffff1681565b60105481565b601860009054906101000a900473ffffffffffffffffffffffffffffffffffffffff1681565b601160009054906101000a900467ffffffffffffffff1681565b6000801515601560009054906101000a900473ffffffffffffffffffffffffffffffffffffffff1673ffffffffffffffffffffffffffffffffffffffff1663bc65d434846040518263ffffffff1660e01b8152600401808273ffffffffffffffffffffffffffffffffffffffff16815260200191505060206040518083038186803b15801561175257600080fd5b505afa158015611766573d6000803e3d6000fd5b505050506040513d602081101561177c57600080fd5b81019080805190602001909291905050501515141561179e57600090506117f8565b600960000154601260008473ffffffffffffffffffffffffffffffffffffffff1673ffffffffffffffffffffffffffffffffffffffff1681526020019081526020016000205414156117f357600090506117f8565b600190505b919050565b601860009054906101000a900473ffffffffffffffffffffffffffffffffffffffff1673ffffffffffffffffffffffffffffffffffffffff163373ffffffffffffffffffffffffffffffffffffffff16146118c0576040517f08c379a00000000000000000000000000000000000000000000000000000000081526004018080602001828103825260198152602001807f4f6e6c792045786368616e67652053797374656d2063616c6c0000000000000081525060200191505060405180910390fd5b6118d881600260030154612c6090919063ffffffff16565b6002600301819055507f2346b504ea081713647f1908441e88428ad81a40c85a6e4a664cf0bf20b6a31a816040518082815260200191505060405180910390a150565b60008054906101000a900473ffffffffffffffffffffffffffffffffffffffff1673ffffffffffffffffffffffffffffffffffffffff163373ffffffffffffffffffffffffffffffffffffffff16146119bf576040517f08c379a000000000000000000000000000000000000000000000000000000000815260040180806020018281038252602f8152602001806130bf602f913960400191505060405180910390fd5b8073ffffffffffffffffffffffffffffffffffffffff1663768911da6040518163ffffffff1660e01b815260040180807f4c6e4465627453797374656d0000000000000000000000000000000000000000815250602001806020018281038252601e8152602001807f4c6e4465627453797374656d2061646472657373206e6f742076616c6964000081525060200191505060206040518083038186803b158015611a6957600080fd5b505afa158015611a7d573d6000803e3d6000fd5b505050506040513d6020811015611a9357600080fd5b8101908080519060200190929190505050601460006101000a81548173ffffffffffffffffffffffffffffffffffffffff021916908373ffffffffffffffffffffffffffffffffffffffff16021790555060008173ffffffffffffffffffffffffffffffffffffffff1663768911da6040518163ffffffff1660e01b815260040180807f4c6e436f6c6c61746572616c53797374656d0000000000000000000000000000815250602001806020018281038252602481526020018061307a6024913960400191505060206040518083038186803b158015611b7357600080fd5b505afa158015611b87573d6000803e3d6000fd5b505050506040513d6020811015611b9d57600080fd5b8101908080519060200190929190505050905080601560006101000a81548173ffffffffffffffffffffffffffffffffffffffff021916908373ffffffffffffffffffffffffffffffffffffffff1602179055508173ffffffffffffffffffffffffffffffffffffffff1663768911da6040518163ffffffff1660e01b815260040180807f4c6e5265776172644c6f636b657200000000000000000000000000000000000081525060200180602001828103825260208152602001807f4c6e5265776172644c6f636b65722061646472657373206e6f742076616c696481525060200191505060206040518083038186803b158015611c9b57600080fd5b505afa158015611caf573d6000803e3d6000fd5b505050506040513d6020811015611cc557600080fd5b8101908080519060200190929190505050601660006101000a81548173ffffffffffffffffffffffffffffffffffffffff021916908373ffffffffffffffffffffffffffffffffffffffff1602179055508173ffffffffffffffffffffffffffffffffffffffff1663768911da6040518163ffffffff1660e01b815260040180807f4c6e417373657453797374656d00000000000000000000000000000000000000815250602001806020018281038252601f8152602001807f4c6e417373657453797374656d2061646472657373206e6f742076616c69640081525060200191505060206040518083038186803b158015611dc057600080fd5b505afa158015611dd4573d6000803e3d6000fd5b505050506040513d6020811015611dea57600080fd5b8101908080519060200190929190505050601760006101000a81548173ffffffffffffffffffffffffffffffffffffffff021916908373ffffffffffffffffffffffffffffffffffffffff1602179055507f45a7f8d84f7ad724869d024abcaa743ae6aec455a969df76b5d1e9c5cac4d2ae601460009054906101000a900473ffffffffffffffffffffffffffffffffffffffff1660405180807f4c6e4465627453797374656d00000000000000000000000000000000000000008152506020018273ffffffffffffffffffffffffffffffffffffffff16815260200191505060405180910390a17f45a7f8d84f7ad724869d024abcaa743ae6aec455a969df76b5d1e9c5cac4d2ae601560009054906101000a900473ffffffffffffffffffffffffffffffffffffffff1660405180807f4c6e436f6c6c61746572616c53797374656d00000000000000000000000000008152506020018273ffffffffffffffffffffffffffffffffffffffff16815260200191505060405180910390a17f45a7f8d84f7ad724869d024abcaa743ae6aec455a969df76b5d1e9c5cac4d2ae601660009054906101000a900473ffffffffffffffffffffffffffffffffffffffff1660405180807f4c6e5265776172644c6f636b65720000000000000000000000000000000000008152506020018273ffffffffffffffffffffffffffffffffffffffff16815260200191505060405180910390a17f45a7f8d84f7ad724869d024abcaa743ae6aec455a969df76b5d1e9c5cac4d2ae601760009054906101000a900473ffffffffffffffffffffffffffffffffffffffff1660405180807f4c6e417373657453797374656d000000000000000000000000000000000000008152506020018273ffffffffffffffffffffffffffffffffffffffff16815260200191505060405180910390a15050565b600160009054906101000a900473ffffffffffffffffffffffffffffffffffffffff1681565b60126020528060005260406000206000915090505481565b60028060000154908060010154908060020154908060030154908060040154908060050154908060060154905087565b60098060000154908060010154908060020154908060030154908060040154908060050154908060060154905087565b601960009054906101000a900473ffffffffffffffffffffffffffffffffffffffff1673ffffffffffffffffffffffffffffffffffffffff163373ffffffffffffffffffffffffffffffffffffffff16146121fc576040517f08c379a000000000000000000000000000000000000000000000000000000000815260040180806020018281038252601c8152602001807f4f6e6c79205265776172642044697374726962757465722063616c6c0000000081525060200191505060405180910390fd5b61221481600260050154612c6090919063ffffffff16565b6002600501819055507f953cfafd534d5937356e70b7110370f0c59577ead2e8162eb4969201531c72c4816040518082815260200191505060405180910390a150565b6010546002800154014210156122d5576040517f08c379a00000000000000000000000000000000000000000000000000000000081526004018080602001828103825260178152602001807f49742773206e6f742074696d6520746f2073776974636800000000000000000081525060200191505060405180910390fd5b6002600001546009600001819055506002600101546009600101819055506002800154600960020181905550612335612321600960040154600960030154612ce890919063ffffffff16565b600260030154612c6090919063ffffffff16565b600960030181905550600060096004018190555061237d612369600960060154600960050154612ce890919063ffffffff16565b600260050154612c6090919063ffffffff16565b6009600501819055506000600960060181905550600160026000015401600260000181905550601460009054906101000a900473ffffffffffffffffffffffffffffffffffffffff1673ffffffffffffffffffffffffffffffffffffffff1663cb6a11056040518163ffffffff1660e01b815260040160206040518083038186803b15801561240b57600080fd5b505afa15801561241f573d6000803e3d6000fd5b505050506040513d602081101561243557600080fd5b81019080805190602001909291905050506002600101819055504260028001819055506000600260030181905550600060026004018190555060006002600501819055506000600260060181905550565b61204881565b601360205281600052604060002081600281106124a557fe5b60030201600091509150508060000154908060010154908060020154905083565b6000803390506124d5816116c4565b612547576040517f08c379a00000000000000000000000000000000000000000000000000000000081526004018080602001828103825260158152602001807f55736572206973206e6f7420636c61696d61626c65000000000000000000000081525060200191505060405180910390fd5b600960000154601260008373ffffffffffffffffffffffffffffffffffffffff1673ffffffffffffffffffffffffffffffffffffffff1681526020019081526020016000208190555060008061259c83610a82565b9150915060008211806125af5750600081115b612621576040517f08c379a00000000000000000000000000000000000000000000000000000000081526004018080602001828103825260108152602001807f4e6f7468696e6720746f20636c61696d0000000000000000000000000000000081525060200191505060405180910390fd5b600082111561284b576000601760009054906101000a900473ffffffffffffffffffffffffffffffffffffffff1673ffffffffffffffffffffffffffffffffffffffff1663768911da6040518163ffffffff1660e01b815260040180807f6c55534400000000000000000000000000000000000000000000000000000000815250602001806020018281038252601b8152602001807f676574206c5553442061737365742061646472657373206661696c000000000081525060200191505060206040518083038186803b1580156126f857600080fd5b505afa15801561270c573d6000803e3d6000fd5b505050506040513d602081101561272257600080fd5b810190808051906020019092919050505090508073ffffffffffffffffffffffffffffffffffffffff16639dc29fac612048856040518363ffffffff1660e01b8152600401808373ffffffffffffffffffffffffffffffffffffffff16815260200182815260200192505050600060405180830381600087803b1580156127a857600080fd5b505af11580156127bc573d6000803e3d6000fd5b505050508073ffffffffffffffffffffffffffffffffffffffff166340c10f1985856040518363ffffffff1660e01b8152600401808373ffffffffffffffffffffffffffffffffffffffff16815260200182815260200192505050600060405180830381600087803b15801561283157600080fd5b505af1158015612845573d6000803e3d6000fd5b50505050505b600081111561293a576000601160009054906101000a900467ffffffffffffffff1667ffffffffffffffff1642019050601660009054906101000a900473ffffffffffffffffffffffffffffffffffffffff1673ffffffffffffffffffffffffffffffffffffffff16639726065d8584846040518463ffffffff1660e01b8152600401808473ffffffffffffffffffffffffffffffffffffffff1681526020018381526020018267ffffffffffffffff1681526020019350505050600060405180830381600087803b15801561292057600080fd5b505af1158015612934573d6000803e3d6000fd5b50505050505b7f1ac537f0ad67b64ac68a04587ff3a4cb6977de22eb2c37ee560897a92c6d07c7838383604051808473ffffffffffffffffffffffffffffffffffffffff168152602001838152602001828152602001935050505060405180910390a16001935050505090565b60008054906101000a900473ffffffffffffffffffffffffffffffffffffffff1673ffffffffffffffffffffffffffffffffffffffff163373ffffffffffffffffffffffffffffffffffffffff1614612a45576040517f08c379a000000000000000000000000000000000000000000000000000000000815260040180806020018281038252602f8152602001806130bf602f913960400191505060405180910390fd5b80601860006101000a81548173ffffffffffffffffffffffffffffffffffffffff021916908373ffffffffffffffffffffffffffffffffffffffff16021790555050565b60008054906101000a900473ffffffffffffffffffffffffffffffffffffffff1673ffffffffffffffffffffffffffffffffffffffff163373ffffffffffffffffffffffffffffffffffffffff1614612b2d576040517f08c379a000000000000000000000000000000000000000000000000000000000815260040180806020018281038252602f8152602001806130bf602f913960400191505060405180910390fd5b6000808960010b14612b40576009612b43565b60025b9050878160000181905550868160010181905550858160020181905550848160030181905550838160040181905550828160050181905550818160060181905550505050505050505050565b60008054906101000a900473ffffffffffffffffffffffffffffffffffffffff1681565b6000612bc78383601b60ff16600a0a612d32565b905092915050565b6000612be38383601b60ff16600a0a612d8d565b905092915050565b6000612c0a6012601b0360ff16600a0a83612de690919063ffffffff16565b9050919050565b600080600a6012601b0360ff16600a0a81612c2857fe5b048381612c3157fe5b0490506005600a8281612c4057fe5b0610612c4d57600a810190505b600a8181612c5757fe5b04915050919050565b600080828401905083811015612cde576040517f08c379a000000000000000000000000000000000000000000000000000000000815260040180806020018281038252601b8152602001807f536166654d6174683a206164646974696f6e206f766572666c6f77000000000081525060200191505060405180910390fd5b8091505092915050565b6000612d2a83836040518060400160405280601e81526020017f536166654d6174683a207375627472616374696f6e206f766572666c6f770000815250612e6c565b905092915050565b600080612d5d84612d4f600a860288612de690919063ffffffff16565b612f2c90919063ffffffff16565b90506005600a8281612d6b57fe5b0610612d7857600a810190505b600a8181612d8257fe5b049150509392505050565b600080600a8381612d9a57fe5b04612dae8587612de690919063ffffffff16565b81612db557fe5b0490506005600a8281612dc457fe5b0610612dd157600a810190505b600a8181612ddb57fe5b049150509392505050565b600080831415612df95760009050612e66565b6000828402905082848281612e0a57fe5b0414612e61576040517f08c379a000000000000000000000000000000000000000000000000000000000815260040180806020018281038252602181526020018061309e6021913960400191505060405180910390fd5b809150505b92915050565b6000838311158290612f19576040517f08c379a00000000000000000000000000000000000000000000000000000000081526004018080602001828103825283818151815260200191508051906020019080838360005b83811015612ede578082015181840152602081019050612ec3565b50505050905090810190601f168015612f0b5780820380516001836020036101000a031916815260200191505b509250505060405180910390fd5b5060008385039050809150509392505050565b6000612f6e83836040518060400160405280601a81526020017f536166654d6174683a206469766973696f6e206279207a65726f000000000000815250612f76565b905092915050565b60008083118290613022576040517f08c379a00000000000000000000000000000000000000000000000000000000081526004018080602001828103825283818151815260200191508051906020019080838360005b83811015612fe7578082015181840152602081019050612fcc565b50505050905090810190601f1680156130145780820380516001836020036101000a031916815260200191505b509250505060405180910390fd5b50600083858161302e57fe5b049050809150509392505050565b6040518060e0016040528060008152602001600081526020016000815260200160008152602001600081526020016000815260200160008152509056fe4c6e436f6c6c61746572616c53797374656d2061646472657373206e6f742076616c6964536166654d6174683a206d756c7469706c69636174696f6e206f766572666c6f774f6e6c792074686520636f6e74726163742061646d696e2063616e20706572666f726d207468697320616374696f6ea2646970667358221220ef9670b260e8d11d0ef2a3c3dd731d7d8c437c793bb0588adf0a005fefae55b364736f6c634300060c0033",
  "immutableReferences": {},
  "source": "// SPDX-License-Identifier: MIT\r\npragma solidity ^0.6.12;\r\n\r\nimport \"./LnAdmin.sol\";\r\nimport \"@openzeppelin/contracts/math/SafeMath.sol\";\r\nimport \"./SafeDecimalMath.sol\";\r\nimport \"./LnAddressCache.sol\";\r\nimport \"./LnDebtSystem.sol\";\r\nimport \"./LnCollateralSystem.sol\";\r\nimport \"./LnRewardLocker.sol\";\r\nimport \"./LnAssetSystem.sol\";\r\nimport \"./LnAsset.sol\";\r\n\r\ncontract LnFeeSystem is LnAdmin, LnAddressCache {\r\n    using SafeMath for uint256;\r\n    using SafeDecimalMath for uint256;\r\n\r\n    address public constant FEE_DUMMY_ADDRESS = address(0x2048); \r\n\r\n    struct UserDebtData {\r\n        uint256 PeriodID; // Period id\r\n        uint256 debtProportion;\r\n        uint256 debtFactor; // PRECISE_UNIT\r\n    }\r\n\r\n    struct RewardPeriod {\r\n        uint256 id; // Period id\r\n        uint256 startingDebtFactor;\r\n        uint256 startTime;\r\n        uint256 feesToDistribute; // \r\n        uint256 feesClaimed; // \r\n        uint256 rewardsToDistribute; // \r\n        uint256 rewardsClaimed; // \r\n    }\r\n\r\n    RewardPeriod public curRewardPeriod;\r\n    RewardPeriod public preRewardPeriod;\r\n    uint256 public OnePeriodSecs = 1 weeks;\r\n    uint64 public LockTime = uint64(52 weeks);\r\n\r\n    mapping (address => uint256) public userLastClaimedId;\r\n\r\n    mapping (address => UserDebtData[2]) public userPeriodDebt; // one for current period, one for pre period\r\n\r\n    //\r\n    LnDebtSystem public debtSystem;\r\n    LnCollateralSystem public collateralSystem;\r\n    LnRewardLocker public rewardLocker;\r\n    LnAssetSystem mAssets;\r\n\r\n    address public exchangeSystemAddress;\r\n    address public rewardDistributer;\r\n\r\n    constructor(address _admin ) public LnAdmin(_admin ) {\r\n    }\r\n\r\n    // Note: before start run need call this func to init.\r\n    function Init(address _exchangeSystem, address _rewardDistri) public onlyAdmin {\r\n        exchangeSystemAddress = _exchangeSystem;\r\n        rewardDistributer = _rewardDistri;\r\n    }\r\n\r\n    //set period data, maybe copy from old contract\r\n    function SetPeriodData(int16 index, // 0 current 1 pre\r\n            uint256 id,\r\n            uint256 startingDebtFactor,\r\n            uint256 startTime,\r\n            uint256 feesToDistribute,\r\n            uint256 feesClaimed,\r\n            uint256 rewardsToDistribute,\r\n            uint256 rewardsClaimed\r\n        ) public onlyAdmin {\r\n        RewardPeriod storage toset = index == 0? curRewardPeriod : preRewardPeriod;\r\n        toset.id = id;\r\n        toset.startingDebtFactor = startingDebtFactor;\r\n        toset.startTime = startTime;\r\n        toset.feesToDistribute = feesToDistribute;\r\n        toset.feesClaimed = feesClaimed;\r\n        toset.rewardsToDistribute = rewardsToDistribute;\r\n        toset.rewardsClaimed = rewardsClaimed;\r\n    }\r\n\r\n    function setExchangeSystemAddress(address _address) public onlyAdmin {\r\n        exchangeSystemAddress = _address;\r\n    }\r\n\r\n    modifier onlyExchanger {\r\n        require( (msg.sender == exchangeSystemAddress), \"Only Exchange System call\");\r\n        _;\r\n    }\r\n\r\n    modifier onlyDistributer {\r\n        require( (msg.sender == rewardDistributer), \"Only Reward Distributer call\");\r\n        _;\r\n    }\r\n\r\n    function addExchangeFee( uint feeUsd ) public onlyExchanger {\r\n        curRewardPeriod.feesToDistribute = curRewardPeriod.feesToDistribute.add(feeUsd);\r\n        emit ExchangeFee( feeUsd );\r\n    }\r\n\r\n    // TODO: call by contract or auto distribute?\r\n    function addCollateralRewards( uint reward) public onlyDistributer {\r\n        curRewardPeriod.rewardsToDistribute = curRewardPeriod.rewardsToDistribute.add(reward);\r\n        emit RewardCollateral(reward);\r\n    }\r\n\r\n    event ExchangeFee( uint feeUsd );\r\n    event RewardCollateral( uint reward );\r\n    event FeesClaimed(address user, uint lUSDAmount, uint linaRewards);\r\n\r\n    function updateAddressCache( LnAddressStorage _addressStorage ) onlyAdmin public override\r\n    {\r\n        debtSystem =      LnDebtSystem(     _addressStorage.getAddressWithRequire( \"LnDebtSystem\",      \"LnDebtSystem address not valid\" ));\r\n        address payable collateralAddress = payable(_addressStorage.getAddressWithRequire( \"LnCollateralSystem\",\"LnCollateralSystem address not valid\" ));\r\n        collateralSystem = LnCollateralSystem( collateralAddress );\r\n        rewardLocker =   LnRewardLocker(     _addressStorage.getAddressWithRequire( \"LnRewardLocker\",      \"LnRewardLocker address not valid\" ));\r\n        mAssets = LnAssetSystem(_addressStorage.getAddressWithRequire( \"LnAssetSystem\",      \"LnAssetSystem address not valid\" ));\r\n\r\n        emit updateCachedAddress( \"LnDebtSystem\",      address(debtSystem) );\r\n        emit updateCachedAddress( \"LnCollateralSystem\",address(collateralSystem) );\r\n        emit updateCachedAddress( \"LnRewardLocker\",address(rewardLocker) );\r\n        emit updateCachedAddress( \"LnAssetSystem\",address(mAssets) );\r\n     }\r\n\r\n    function switchPeriod() public {\r\n        require(now >= curRewardPeriod.startTime + OnePeriodSecs, \"It's not time to switch\");\r\n\r\n        preRewardPeriod.id = curRewardPeriod.id;\r\n        preRewardPeriod.startingDebtFactor = curRewardPeriod.startingDebtFactor;\r\n        preRewardPeriod.startTime = curRewardPeriod.startTime;\r\n        preRewardPeriod.feesToDistribute = curRewardPeriod.feesToDistribute.add( preRewardPeriod.feesToDistribute.sub(preRewardPeriod.feesClaimed) );\r\n        preRewardPeriod.feesClaimed = 0;\r\n        preRewardPeriod.rewardsToDistribute = curRewardPeriod.rewardsToDistribute.add( preRewardPeriod.rewardsToDistribute.sub(preRewardPeriod.rewardsClaimed) );\r\n        preRewardPeriod.rewardsClaimed = 0;\r\n        \r\n        curRewardPeriod.id = curRewardPeriod.id + 1;\r\n        curRewardPeriod.startingDebtFactor = debtSystem.LastSystemDebtFactor();\r\n        curRewardPeriod.startTime = now;\r\n        curRewardPeriod.feesToDistribute = 0;\r\n        curRewardPeriod.feesClaimed = 0;\r\n        curRewardPeriod.rewardsToDistribute = 0;\r\n        curRewardPeriod.rewardsClaimed = 0;\r\n    }\r\n\r\n    function feePeriodDuration() external view returns (uint) {\r\n        return OnePeriodSecs;\r\n    }\r\n\r\n    function recentFeePeriods(uint index) external view\r\n        returns (\r\n            uint256 id,\r\n            uint256 startingDebtFactor,\r\n            uint256 startTime,\r\n            uint256 feesToDistribute,\r\n            uint256 feesClaimed,\r\n            uint256 rewardsToDistribute,\r\n            uint256 rewardsClaimed\r\n        )\r\n    {\r\n        if (index > 1) {\r\n            return (0,0,0,0,0,0,0);\r\n        }\r\n        RewardPeriod memory rewardPd;\r\n        if (index == 0) {\r\n            rewardPd = curRewardPeriod;\r\n        } else {\r\n            rewardPd = preRewardPeriod;\r\n        }\r\n        return (\r\n            rewardPd.id,\r\n            rewardPd.startingDebtFactor,\r\n            rewardPd.startTime,\r\n            rewardPd.feesToDistribute,\r\n            rewardPd.feesClaimed,\r\n            rewardPd.rewardsToDistribute,\r\n            rewardPd.rewardsClaimed\r\n        );\r\n    }\r\n\r\n    modifier onlyDebtSystem() {\r\n        require(msg.sender == address(debtSystem), \"Only Debt system call\");\r\n        _;\r\n    }\r\n\r\n    // build record\r\n    function RecordUserDebt(address user, uint256 debtProportion, uint256 debtFactor) public onlyDebtSystem {\r\n        uint256 curId = curRewardPeriod.id;\r\n        uint256 minPos = 0;\r\n        if (userPeriodDebt[user][0].PeriodID > userPeriodDebt[user][1].PeriodID) {\r\n            minPos = 1;\r\n        }\r\n        uint256 pos = minPos;\r\n        for (uint64 i = 0; i < userPeriodDebt[user].length; i++) {\r\n            if (userPeriodDebt[user][i].PeriodID == curId) {\r\n                pos = i;\r\n                break;\r\n            }\r\n        }\r\n        userPeriodDebt[user][pos].PeriodID = curId;\r\n        userPeriodDebt[user][pos].debtProportion = debtProportion;\r\n        userPeriodDebt[user][pos].debtFactor = debtFactor;\r\n    }\r\n\r\n    function isFeesClaimable(address account) public view returns (bool feesClaimable) {\r\n        if (collateralSystem.IsSatisfyTargetRatio(account) == false) {\r\n            return false;\r\n        }\r\n\r\n        if (userLastClaimedId[account] == preRewardPeriod.id) {\r\n            return false;\r\n        }\r\n\r\n        // TODO: other condition?\r\n        return true;\r\n    }\r\n\r\n    // total fee and total reward\r\n    function feesAvailable(address user) public view returns (uint, uint) {\r\n        if (preRewardPeriod.feesToDistribute == 0 && preRewardPeriod.rewardsToDistribute == 0) {\r\n            return (0,0);\r\n        }\r\n        uint256 debtFactor = 0;\r\n        uint256 debtProportion = 0;\r\n        uint256 pid = 0; //get last period factor\r\n        for (uint64 i = 0; i < userPeriodDebt[user].length; i++) {\r\n            if (userPeriodDebt[user][i].PeriodID < curRewardPeriod.id\r\n            && userPeriodDebt[user][i].PeriodID > pid) {\r\n                pid = curRewardPeriod.id;\r\n                debtFactor = userPeriodDebt[user][i].debtFactor;\r\n                debtProportion = userPeriodDebt[user][i].debtProportion;\r\n            }\r\n        }\r\n        if (debtProportion == 0) {\r\n            (debtProportion, debtFactor) = debtSystem.userDebtState(user);\r\n        }\r\n\r\n        if (debtProportion == 0 ) {\r\n            return (0,0);\r\n        }\r\n\r\n        uint256 lastPeriodDebtFactor = curRewardPeriod.startingDebtFactor;\r\n        uint256 userDebtProportion = lastPeriodDebtFactor\r\n                .divideDecimalRoundPrecise(debtFactor)\r\n                .multiplyDecimalRoundPrecise(debtProportion);\r\n\r\n        uint256 fee = preRewardPeriod.feesToDistribute\r\n                .decimalToPreciseDecimal()\r\n                .multiplyDecimalRoundPrecise(userDebtProportion)\r\n                .preciseDecimalToDecimal();\r\n\r\n        uint256 reward = preRewardPeriod.rewardsToDistribute\r\n                .decimalToPreciseDecimal()\r\n                .multiplyDecimalRoundPrecise(userDebtProportion)\r\n                .preciseDecimalToDecimal();\r\n        return (fee, reward);\r\n    }\r\n\r\n    // claim fee and reward.\r\n    function claimFees() external returns (bool) {\r\n        address user = msg.sender;\r\n        require( isFeesClaimable(user), \"User is not claimable\" );\r\n\r\n        userLastClaimedId[user] = preRewardPeriod.id;\r\n        // fee reward: mint lusd\r\n        // : rewardLocker.appendReward(use, reward, now + 1 years);\r\n        (uint256 fee, uint256 reward) = feesAvailable(user);\r\n        require(fee > 0 || reward > 0, \"Nothing to claim\");\r\n\r\n        if (fee > 0) {\r\n            LnAsset lusd = LnAsset( mAssets.getAddressWithRequire( \"lUSD\", \"get lUSD asset address fail\" ));\r\n            lusd.burn( FEE_DUMMY_ADDRESS, fee );\r\n            lusd.mint(user, fee);\r\n        }\r\n\r\n        if (reward > 0) {\r\n            uint64 totime = uint64(now + LockTime);\r\n            rewardLocker.appendReward(user, reward, totime);\r\n        }\r\n        emit FeesClaimed(user, fee, reward);\r\n        return true;\r\n    }\r\n}\r\n\r\ncontract LnFeeSystemTest is LnFeeSystem {\r\n    constructor(address _admin ) public LnFeeSystem(_admin ) {\r\n        OnePeriodSecs = 6 hours;\r\n        LockTime = 1 hours;\r\n    }\r\n}\r\n",
  "sourcePath": "/mnt/d/working/linearFinance/smartcontracts/contracts/LnFeeSystem.sol",
  "compiler": {
    "name": "solc",
    "version": "0.6.12+commit.27d51765.Emscripten.clang"
  },
  "schemaVersion": "3.2.3",
  "updatedAt": "2020-10-28T03:47:06.718Z",
  "networkType": "ethereum",
  "devdoc": {
    "kind": "dev",
    "methods": {},
    "version": 1
  },
  "userdoc": {
    "kind": "user",
    "methods": {},
    "version": 1
  }
}