{
  "contractName": "LnFeeSystem",
  "abi": [
    {
      "inputs": [
        {
          "internalType": "address",
          "name": "_admin",
          "type": "address"
        }
      ],
      "stateMutability": "nonpayable",
      "type": "constructor"
    },
    {
      "anonymous": false,
      "inputs": [
        {
          "indexed": false,
          "internalType": "address",
          "name": "oldAdmin",
          "type": "address"
        },
        {
          "indexed": false,
          "internalType": "address",
          "name": "newAdmin",
          "type": "address"
        }
      ],
      "name": "AdminChanged",
      "type": "event"
    },
    {
      "anonymous": false,
      "inputs": [
        {
          "indexed": false,
          "internalType": "uint256",
          "name": "feeUsd",
          "type": "uint256"
        }
      ],
      "name": "ExchangeFee",
      "type": "event"
    },
    {
      "anonymous": false,
      "inputs": [
        {
          "indexed": false,
          "internalType": "address",
          "name": "oldCandidate",
          "type": "address"
        },
        {
          "indexed": false,
          "internalType": "address",
          "name": "newCandidate",
          "type": "address"
        }
      ],
      "name": "candidateChanged",
      "type": "event"
    },
    {
      "inputs": [],
      "name": "FEE_DUMMY_ADDRESS",
      "outputs": [
        {
          "internalType": "address",
          "name": "",
          "type": "address"
        }
      ],
      "stateMutability": "view",
      "type": "function"
    },
    {
      "inputs": [],
      "name": "admin",
      "outputs": [
        {
          "internalType": "address",
          "name": "",
          "type": "address"
        }
      ],
      "stateMutability": "view",
      "type": "function"
    },
    {
      "inputs": [],
      "name": "becomeAdmin",
      "outputs": [],
      "stateMutability": "nonpayable",
      "type": "function"
    },
    {
      "inputs": [],
      "name": "candidate",
      "outputs": [
        {
          "internalType": "address",
          "name": "",
          "type": "address"
        }
      ],
      "stateMutability": "view",
      "type": "function"
    },
    {
      "inputs": [
        {
          "internalType": "address",
          "name": "_candidate",
          "type": "address"
        }
      ],
      "name": "setCandidate",
      "outputs": [],
      "stateMutability": "nonpayable",
      "type": "function"
    },
    {
      "inputs": [
        {
          "internalType": "uint256",
          "name": "feeUsd",
          "type": "uint256"
        }
      ],
      "name": "addExchangeFee",
      "outputs": [],
      "stateMutability": "nonpayable",
      "type": "function"
    },
    {
      "inputs": [],
      "name": "feePeriodDuration",
      "outputs": [
        {
          "internalType": "uint256",
          "name": "",
          "type": "uint256"
        }
      ],
      "stateMutability": "pure",
      "type": "function"
    },
    {
      "inputs": [
        {
          "internalType": "uint256",
          "name": "index",
          "type": "uint256"
        }
      ],
      "name": "recentFeePeriods",
      "outputs": [
        {
          "internalType": "uint64",
          "name": "feePeriodId",
          "type": "uint64"
        },
        {
          "internalType": "uint64",
          "name": "startingDebtIndex",
          "type": "uint64"
        },
        {
          "internalType": "uint64",
          "name": "startTime",
          "type": "uint64"
        },
        {
          "internalType": "uint256",
          "name": "feesToDistribute",
          "type": "uint256"
        },
        {
          "internalType": "uint256",
          "name": "feesClaimed",
          "type": "uint256"
        },
        {
          "internalType": "uint256",
          "name": "rewardsToDistribute",
          "type": "uint256"
        },
        {
          "internalType": "uint256",
          "name": "rewardsClaimed",
          "type": "uint256"
        }
      ],
      "stateMutability": "pure",
      "type": "function"
    },
    {
      "inputs": [
        {
          "internalType": "address",
          "name": "account",
          "type": "address"
        }
      ],
      "name": "isFeesClaimable",
      "outputs": [
        {
          "internalType": "bool",
          "name": "feesClaimable",
          "type": "bool"
        }
      ],
      "stateMutability": "view",
      "type": "function"
    },
    {
      "inputs": [
        {
          "internalType": "address",
          "name": "account",
          "type": "address"
        }
      ],
      "name": "feesAvailable",
      "outputs": [
        {
          "internalType": "uint256",
          "name": "",
          "type": "uint256"
        },
        {
          "internalType": "uint256",
          "name": "",
          "type": "uint256"
        }
      ],
      "stateMutability": "view",
      "type": "function"
    },
    {
      "inputs": [],
      "name": "claimFees",
      "outputs": [
        {
          "internalType": "bool",
          "name": "",
          "type": "bool"
        }
      ],
      "stateMutability": "nonpayable",
      "type": "function"
    }
  ],
  "bytecode": "0x608060405234801561001057600080fd5b5060405161099f38038061099f8339818101604052602081101561003357600080fd5b810190808051906020019092919050505080600073ffffffffffffffffffffffffffffffffffffffff168173ffffffffffffffffffffffffffffffffffffffff1614156100e8576040517f08c379a00000000000000000000000000000000000000000000000000000000081526004018080602001828103825260198152602001807f61646d696e20616464726573732063616e6e6f7420626520300000000000000081525060200191505060405180910390fd5b806000806101000a81548173ffffffffffffffffffffffffffffffffffffffff021916908373ffffffffffffffffffffffffffffffffffffffff1602179055507f7e644d79422f17c01e4894b5f4f588d331ebfa28653d42ae832dc59e38c9798f600082604051808373ffffffffffffffffffffffffffffffffffffffff1681526020018273ffffffffffffffffffffffffffffffffffffffff1681526020019250505060405180910390a150506107fa806101a56000396000f3fe608060405234801561001057600080fd5b50600436106100a95760003560e01c806359a2f19f1161007157806359a2f19f1461020357806359ed60051461025d5780636c8381f81461028b578063bae747db146102bf578063d294f093146102f3578063f851a44014610313576100a9565b806307880b7f146100ae5780630de58615146100f257806322425fa41461015157806325971dff1461016f5780633fcd224014610179575b600080fd5b6100f0600480360360208110156100c457600080fd5b81019080803573ffffffffffffffffffffffffffffffffffffffff169060200190929190505050610347565b005b6101346004803603602081101561010857600080fd5b81019080803573ffffffffffffffffffffffffffffffffffffffff1690602001909291905050506104e4565b604051808381526020018281526020019250505060405180910390f35b6101596104f3565b6040518082815260200191505060405180910390f35b6101776104f8565b005b6101a56004803603602081101561018f57600080fd5b81019080803590602001909291905050506106d1565b604051808867ffffffffffffffff1681526020018767ffffffffffffffff1681526020018667ffffffffffffffff16815260200185815260200184815260200183815260200182815260200197505050505050505060405180910390f35b6102456004803603602081101561021957600080fd5b81019080803573ffffffffffffffffffffffffffffffffffffffff1690602001909291905050506106ff565b60405180821515815260200191505060405180910390f35b6102896004803603602081101561027357600080fd5b8101908080359060200190929190505050610706565b005b610293610740565b604051808273ffffffffffffffffffffffffffffffffffffffff16815260200191505060405180910390f35b6102c7610766565b604051808273ffffffffffffffffffffffffffffffffffffffff16815260200191505060405180910390f35b6102fb61076c565b60405180821515815260200191505060405180910390f35b61031b610771565b604051808273ffffffffffffffffffffffffffffffffffffffff16815260200191505060405180910390f35b60008054906101000a900473ffffffffffffffffffffffffffffffffffffffff1673ffffffffffffffffffffffffffffffffffffffff163373ffffffffffffffffffffffffffffffffffffffff16146103eb576040517f08c379a000000000000000000000000000000000000000000000000000000000815260040180806020018281038252602f815260200180610796602f913960400191505060405180910390fd5b6000600160009054906101000a900473ffffffffffffffffffffffffffffffffffffffff16905081600160006101000a81548173ffffffffffffffffffffffffffffffffffffffff021916908373ffffffffffffffffffffffffffffffffffffffff1602179055507f0faed18be9e8f4d4c05dfbcc80ea2c97a0be729614d766827778f60890c02cab81600160009054906101000a900473ffffffffffffffffffffffffffffffffffffffff16604051808373ffffffffffffffffffffffffffffffffffffffff1681526020018273ffffffffffffffffffffffffffffffffffffffff1681526020019250505060405180910390a15050565b60008060008091509150915091565b600090565b600160009054906101000a900473ffffffffffffffffffffffffffffffffffffffff1673ffffffffffffffffffffffffffffffffffffffff163373ffffffffffffffffffffffffffffffffffffffff16146105bb576040517f08c379a000000000000000000000000000000000000000000000000000000000815260040180806020018281038252601f8152602001807f4f6e6c792063616e6469646174652063616e206265636f6d652061646d696e0081525060200191505060405180910390fd5b60008060009054906101000a900473ffffffffffffffffffffffffffffffffffffffff169050600160009054906101000a900473ffffffffffffffffffffffffffffffffffffffff166000806101000a81548173ffffffffffffffffffffffffffffffffffffffff021916908373ffffffffffffffffffffffffffffffffffffffff1602179055507f7e644d79422f17c01e4894b5f4f588d331ebfa28653d42ae832dc59e38c9798f8160008054906101000a900473ffffffffffffffffffffffffffffffffffffffff16604051808373ffffffffffffffffffffffffffffffffffffffff1681526020018273ffffffffffffffffffffffffffffffffffffffff1681526020019250505060405180910390a150565b6000806000806000806000806000806000806000809650965096509650965096509650919395979092949650565b6000919050565b7f2346b504ea081713647f1908441e88428ad81a40c85a6e4a664cf0bf20b6a31a816040518082815260200191505060405180910390a150565b600160009054906101000a900473ffffffffffffffffffffffffffffffffffffffff1681565b61204881565b600090565b60008054906101000a900473ffffffffffffffffffffffffffffffffffffffff168156fe4f6e6c792074686520636f6e74726163742061646d696e2063616e20706572666f726d207468697320616374696f6ea2646970667358221220fd36e0edf5a11c19ef76ab501589a83c52fa2ef40db5431440042ae41c980fd864736f6c634300060c0033",
  "immutableReferences": {},
  "source": "// SPDX-License-Identifier: MIT\r\npragma solidity ^0.6.12;\r\n\r\nimport \"./LnAdmin.sol\";\r\n\r\ncontract LnFeeSystem is LnAdmin {\r\n\r\n    address public constant FEE_DUMMY_ADDRESS = address(0x2048);\r\n\r\n    constructor(address _admin ) public LnAdmin(_admin ) {\r\n    }\r\n\r\n    function addExchangeFee( uint feeUsd ) public {\r\n        emit ExchangeFee( feeUsd );\r\n    }\r\n\r\n    event ExchangeFee( uint feeUsd );\r\n\r\n    function feePeriodDuration() external pure returns (uint) {\r\n        return 0;\r\n    }\r\n    function recentFeePeriods(uint index)\r\n        external\r\n        pure\r\n        returns (\r\n            uint64 feePeriodId,\r\n            uint64 startingDebtIndex,\r\n            uint64 startTime,\r\n            uint feesToDistribute,\r\n            uint feesClaimed,\r\n            uint rewardsToDistribute,\r\n            uint rewardsClaimed\r\n        )\r\n    {\r\n        return (0,0,0,0,0,0,0);\r\n    }\r\n\r\n    function isFeesClaimable(address account) external view returns (bool feesClaimable) {\r\n        feesClaimable = false;\r\n    }\r\n    // total fee and total reward\r\n    function feesAvailable(address account) public view returns (uint, uint) {\r\n        return (0,0);\r\n    }\r\n    // claim fee and reward.\r\n    function claimFees() external returns (bool) {\r\n        return false;\r\n    }\r\n}\r\n\r\n",
  "sourcePath": "/mnt/d/working/linearFinance/smartcontracts/contracts/LnFeeSystem.sol",
  "compiler": {
    "name": "solc",
    "version": "0.6.12+commit.27d51765.Emscripten.clang"
  },
  "schemaVersion": "3.2.3",
  "updatedAt": "2020-10-07T10:13:35.554Z",
  "devdoc": {
    "kind": "dev",
    "methods": {},
    "version": 1
  },
  "userdoc": {
    "kind": "user",
    "methods": {},
    "version": 1
  }
}