{
  "contractName": "LnFeeSystemTest",
  "abi": [
    {
      "inputs": [
        {
          "internalType": "address",
          "name": "_admin",
          "type": "address"
        }
      ],
      "stateMutability": "nonpayable",
      "type": "constructor"
    },
    {
      "anonymous": false,
      "inputs": [
        {
          "indexed": false,
          "internalType": "address",
          "name": "oldAdmin",
          "type": "address"
        },
        {
          "indexed": false,
          "internalType": "address",
          "name": "newAdmin",
          "type": "address"
        }
      ],
      "name": "AdminChanged",
      "type": "event"
    },
    {
      "anonymous": false,
      "inputs": [
        {
          "indexed": false,
          "internalType": "uint256",
          "name": "feeUsd",
          "type": "uint256"
        }
      ],
      "name": "ExchangeFee",
      "type": "event"
    },
    {
      "anonymous": false,
      "inputs": [
        {
          "indexed": false,
          "internalType": "address",
          "name": "user",
          "type": "address"
        },
        {
          "indexed": false,
          "internalType": "uint256",
          "name": "lUSDAmount",
          "type": "uint256"
        },
        {
          "indexed": false,
          "internalType": "uint256",
          "name": "linaRewards",
          "type": "uint256"
        }
      ],
      "name": "FeesClaimed",
      "type": "event"
    },
    {
      "anonymous": false,
      "inputs": [
        {
          "indexed": false,
          "internalType": "uint256",
          "name": "reward",
          "type": "uint256"
        }
      ],
      "name": "RewardCollateral",
      "type": "event"
    },
    {
      "anonymous": false,
      "inputs": [
        {
          "indexed": false,
          "internalType": "address",
          "name": "oldCandidate",
          "type": "address"
        },
        {
          "indexed": false,
          "internalType": "address",
          "name": "newCandidate",
          "type": "address"
        }
      ],
      "name": "candidateChanged",
      "type": "event"
    },
    {
      "anonymous": false,
      "inputs": [
        {
          "indexed": false,
          "internalType": "bytes32",
          "name": "name",
          "type": "bytes32"
        },
        {
          "indexed": false,
          "internalType": "address",
          "name": "addr",
          "type": "address"
        }
      ],
      "name": "updateCachedAddress",
      "type": "event"
    },
    {
      "inputs": [],
      "name": "FEE_DUMMY_ADDRESS",
      "outputs": [
        {
          "internalType": "address",
          "name": "",
          "type": "address"
        }
      ],
      "stateMutability": "view",
      "type": "function",
      "constant": true
    },
    {
      "inputs": [
        {
          "internalType": "address",
          "name": "_exchangeSystem",
          "type": "address"
        },
        {
          "internalType": "address",
          "name": "_rewardDistri",
          "type": "address"
        }
      ],
      "name": "Init",
      "outputs": [],
      "stateMutability": "nonpayable",
      "type": "function"
    },
    {
      "inputs": [],
      "name": "LockTime",
      "outputs": [
        {
          "internalType": "uint64",
          "name": "",
          "type": "uint64"
        }
      ],
      "stateMutability": "view",
      "type": "function",
      "constant": true
    },
    {
      "inputs": [],
      "name": "OnePeriodSecs",
      "outputs": [
        {
          "internalType": "uint256",
          "name": "",
          "type": "uint256"
        }
      ],
      "stateMutability": "view",
      "type": "function",
      "constant": true
    },
    {
      "inputs": [
        {
          "internalType": "address",
          "name": "user",
          "type": "address"
        },
        {
          "internalType": "uint256",
          "name": "debtProportion",
          "type": "uint256"
        },
        {
          "internalType": "uint256",
          "name": "debtFactor",
          "type": "uint256"
        }
      ],
      "name": "RecordUserDebt",
      "outputs": [],
      "stateMutability": "nonpayable",
      "type": "function"
    },
    {
      "inputs": [
        {
          "internalType": "uint256",
          "name": "reward",
          "type": "uint256"
        }
      ],
      "name": "addCollateralRewards",
      "outputs": [],
      "stateMutability": "nonpayable",
      "type": "function"
    },
    {
      "inputs": [
        {
          "internalType": "uint256",
          "name": "feeUsd",
          "type": "uint256"
        }
      ],
      "name": "addExchangeFee",
      "outputs": [],
      "stateMutability": "nonpayable",
      "type": "function"
    },
    {
      "inputs": [],
      "name": "admin",
      "outputs": [
        {
          "internalType": "address",
          "name": "",
          "type": "address"
        }
      ],
      "stateMutability": "view",
      "type": "function",
      "constant": true
    },
    {
      "inputs": [],
      "name": "becomeAdmin",
      "outputs": [],
      "stateMutability": "nonpayable",
      "type": "function"
    },
    {
      "inputs": [],
      "name": "candidate",
      "outputs": [
        {
          "internalType": "address",
          "name": "",
          "type": "address"
        }
      ],
      "stateMutability": "view",
      "type": "function",
      "constant": true
    },
    {
      "inputs": [],
      "name": "claimFees",
      "outputs": [
        {
          "internalType": "bool",
          "name": "",
          "type": "bool"
        }
      ],
      "stateMutability": "nonpayable",
      "type": "function"
    },
    {
      "inputs": [],
      "name": "collateralSystem",
      "outputs": [
        {
          "internalType": "contract LnCollateralSystem",
          "name": "",
          "type": "address"
        }
      ],
      "stateMutability": "view",
      "type": "function",
      "constant": true
    },
    {
      "inputs": [],
      "name": "curRewardPeriod",
      "outputs": [
        {
          "internalType": "uint256",
          "name": "id",
          "type": "uint256"
        },
        {
          "internalType": "uint256",
          "name": "startingDebtFactor",
          "type": "uint256"
        },
        {
          "internalType": "uint256",
          "name": "startTime",
          "type": "uint256"
        },
        {
          "internalType": "uint256",
          "name": "feesToDistribute",
          "type": "uint256"
        },
        {
          "internalType": "uint256",
          "name": "feesClaimed",
          "type": "uint256"
        },
        {
          "internalType": "uint256",
          "name": "rewardsToDistribute",
          "type": "uint256"
        },
        {
          "internalType": "uint256",
          "name": "rewardsClaimed",
          "type": "uint256"
        }
      ],
      "stateMutability": "view",
      "type": "function",
      "constant": true
    },
    {
      "inputs": [],
      "name": "debtSystem",
      "outputs": [
        {
          "internalType": "contract LnDebtSystem",
          "name": "",
          "type": "address"
        }
      ],
      "stateMutability": "view",
      "type": "function",
      "constant": true
    },
    {
      "inputs": [],
      "name": "exchangeSystemAddress",
      "outputs": [
        {
          "internalType": "address",
          "name": "",
          "type": "address"
        }
      ],
      "stateMutability": "view",
      "type": "function",
      "constant": true
    },
    {
      "inputs": [],
      "name": "feePeriodDuration",
      "outputs": [
        {
          "internalType": "uint256",
          "name": "",
          "type": "uint256"
        }
      ],
      "stateMutability": "view",
      "type": "function",
      "constant": true
    },
    {
      "inputs": [
        {
          "internalType": "address",
          "name": "user",
          "type": "address"
        }
      ],
      "name": "feesAvailable",
      "outputs": [
        {
          "internalType": "uint256",
          "name": "",
          "type": "uint256"
        },
        {
          "internalType": "uint256",
          "name": "",
          "type": "uint256"
        }
      ],
      "stateMutability": "view",
      "type": "function",
      "constant": true
    },
    {
      "inputs": [
        {
          "internalType": "address",
          "name": "account",
          "type": "address"
        }
      ],
      "name": "isFeesClaimable",
      "outputs": [
        {
          "internalType": "bool",
          "name": "feesClaimable",
          "type": "bool"
        }
      ],
      "stateMutability": "view",
      "type": "function",
      "constant": true
    },
    {
      "inputs": [],
      "name": "preRewardPeriod",
      "outputs": [
        {
          "internalType": "uint256",
          "name": "id",
          "type": "uint256"
        },
        {
          "internalType": "uint256",
          "name": "startingDebtFactor",
          "type": "uint256"
        },
        {
          "internalType": "uint256",
          "name": "startTime",
          "type": "uint256"
        },
        {
          "internalType": "uint256",
          "name": "feesToDistribute",
          "type": "uint256"
        },
        {
          "internalType": "uint256",
          "name": "feesClaimed",
          "type": "uint256"
        },
        {
          "internalType": "uint256",
          "name": "rewardsToDistribute",
          "type": "uint256"
        },
        {
          "internalType": "uint256",
          "name": "rewardsClaimed",
          "type": "uint256"
        }
      ],
      "stateMutability": "view",
      "type": "function",
      "constant": true
    },
    {
      "inputs": [
        {
          "internalType": "uint256",
          "name": "index",
          "type": "uint256"
        }
      ],
      "name": "recentFeePeriods",
      "outputs": [
        {
          "internalType": "uint256",
          "name": "id",
          "type": "uint256"
        },
        {
          "internalType": "uint256",
          "name": "startingDebtFactor",
          "type": "uint256"
        },
        {
          "internalType": "uint256",
          "name": "startTime",
          "type": "uint256"
        },
        {
          "internalType": "uint256",
          "name": "feesToDistribute",
          "type": "uint256"
        },
        {
          "internalType": "uint256",
          "name": "feesClaimed",
          "type": "uint256"
        },
        {
          "internalType": "uint256",
          "name": "rewardsToDistribute",
          "type": "uint256"
        },
        {
          "internalType": "uint256",
          "name": "rewardsClaimed",
          "type": "uint256"
        }
      ],
      "stateMutability": "view",
      "type": "function",
      "constant": true
    },
    {
      "inputs": [],
      "name": "rewardDistributer",
      "outputs": [
        {
          "internalType": "address",
          "name": "",
          "type": "address"
        }
      ],
      "stateMutability": "view",
      "type": "function",
      "constant": true
    },
    {
      "inputs": [],
      "name": "rewardLocker",
      "outputs": [
        {
          "internalType": "contract LnRewardLocker",
          "name": "",
          "type": "address"
        }
      ],
      "stateMutability": "view",
      "type": "function",
      "constant": true
    },
    {
      "inputs": [
        {
          "internalType": "address",
          "name": "_candidate",
          "type": "address"
        }
      ],
      "name": "setCandidate",
      "outputs": [],
      "stateMutability": "nonpayable",
      "type": "function"
    },
    {
      "inputs": [
        {
          "internalType": "address",
          "name": "_address",
          "type": "address"
        }
      ],
      "name": "setExchangeSystemAddress",
      "outputs": [],
      "stateMutability": "nonpayable",
      "type": "function"
    },
    {
      "inputs": [],
      "name": "switchPeriod",
      "outputs": [],
      "stateMutability": "nonpayable",
      "type": "function"
    },
    {
      "inputs": [
        {
          "internalType": "contract LnAddressStorage",
          "name": "_addressStorage",
          "type": "address"
        }
      ],
      "name": "updateAddressCache",
      "outputs": [],
      "stateMutability": "nonpayable",
      "type": "function"
    },
    {
      "inputs": [
        {
          "internalType": "address",
          "name": "",
          "type": "address"
        }
      ],
      "name": "userLastClaimedId",
      "outputs": [
        {
          "internalType": "uint256",
          "name": "",
          "type": "uint256"
        }
      ],
      "stateMutability": "view",
      "type": "function",
      "constant": true
    },
    {
      "inputs": [
        {
          "internalType": "address",
          "name": "",
          "type": "address"
        },
        {
          "internalType": "uint256",
          "name": "",
          "type": "uint256"
        }
      ],
      "name": "userPeriodDebt",
      "outputs": [
        {
          "internalType": "uint256",
          "name": "PeriodID",
          "type": "uint256"
        },
        {
          "internalType": "uint256",
          "name": "debtProportion",
          "type": "uint256"
        },
        {
          "internalType": "uint256",
          "name": "debtFactor",
          "type": "uint256"
        }
      ],
      "stateMutability": "view",
      "type": "function",
      "constant": true
    }
  ],
  "bytecode": "0x608060405262093a806010556301dfe200601160006101000a81548167ffffffffffffffff021916908367ffffffffffffffff16021790555034801561004457600080fd5b5060405161310c38038061310c8339818101604052602081101561006757600080fd5b81019080805190602001909291905050508080600073ffffffffffffffffffffffffffffffffffffffff168173ffffffffffffffffffffffffffffffffffffffff16141561011d576040517f08c379a00000000000000000000000000000000000000000000000000000000081526004018080602001828103825260198152602001807f61646d696e20616464726573732063616e6e6f7420626520300000000000000081525060200191505060405180910390fd5b806000806101000a81548173ffffffffffffffffffffffffffffffffffffffff021916908373ffffffffffffffffffffffffffffffffffffffff1602179055507f7e644d79422f17c01e4894b5f4f588d331ebfa28653d42ae832dc59e38c9798f600082604051808373ffffffffffffffffffffffffffffffffffffffff1681526020018273ffffffffffffffffffffffffffffffffffffffff1681526020019250505060405180910390a15050615460601081905550610e10601160006101000a81548167ffffffffffffffff021916908367ffffffffffffffff16021790555050612efd8061020f6000396000f3fe608060405234801561001057600080fd5b50600436106101c45760003560e01c806359a2f19f116100f95780638b519fd911610097578063bc02909111610071578063bc0290911461075a578063d294f093146107ca578063e7d7701b146107ea578063f851a4401461082e576101c4565b80638b519fd9146106ee578063b3f3e6731461071c578063bae747db14610726576101c4565b80636c8381f8116100d35780636c8381f8146105d2578063704d351214610606578063708d52101461065e5780637f86b71b146106a6576101c4565b806359a2f19f1461050657806359ed6005146105605780635a5f14c81461058e576101c4565b80633892601c116101665780634b86f75f116101405780634b86f75f146104585780634bcff4601461048c57806353d2341d146104aa57806354cf2d79146104de576101c4565b80633892601c146103545780633fcd22401461038857806345acd56f146103f4576101c4565b806322425fa4116101a257806322425fa4146102a057806325971dff146102be57806335e4a171146102c857806336babe7a14610320576101c4565b806307880b7f146101c95780630de586151461020d57806321f4808e1461026c575b600080fd5b61020b600480360360208110156101df57600080fd5b81019080803573ffffffffffffffffffffffffffffffffffffffff169060200190929190505050610862565b005b61024f6004803603602081101561022357600080fd5b81019080803573ffffffffffffffffffffffffffffffffffffffff1690602001909291905050506109ff565b604051808381526020018281526020019250505060405180910390f35b610274610d20565b604051808273ffffffffffffffffffffffffffffffffffffffff16815260200191505060405180910390f35b6102a8610d46565b6040518082815260200191505060405180910390f35b6102c6610d50565b005b61031e600480360360608110156102de57600080fd5b81019080803573ffffffffffffffffffffffffffffffffffffffff1690602001909291908035906020019092919080359060200190929190505050610f29565b005b610328611291565b604051808273ffffffffffffffffffffffffffffffffffffffff16815260200191505060405180910390f35b61035c6112b7565b604051808273ffffffffffffffffffffffffffffffffffffffff16815260200191505060405180910390f35b6103b46004803603602081101561039e57600080fd5b81019080803590602001909291905050506112dd565b6040518088815260200187815260200186815260200185815260200184815260200183815260200182815260200197505050505050505060405180910390f35b6104566004803603604081101561040a57600080fd5b81019080803573ffffffffffffffffffffffffffffffffffffffff169060200190929190803573ffffffffffffffffffffffffffffffffffffffff16906020019092919050505061140e565b005b610460611538565b604051808273ffffffffffffffffffffffffffffffffffffffff16815260200191505060405180910390f35b61049461155e565b6040518082815260200191505060405180910390f35b6104b2611564565b604051808273ffffffffffffffffffffffffffffffffffffffff16815260200191505060405180910390f35b6104e661158a565b604051808267ffffffffffffffff16815260200191505060405180910390f35b6105486004803603602081101561051c57600080fd5b81019080803573ffffffffffffffffffffffffffffffffffffffff1690602001909291905050506115a4565b60405180821515815260200191505060405180910390f35b61058c6004803603602081101561057657600080fd5b81019080803590602001909291905050506116dd565b005b6105d0600480360360208110156105a457600080fd5b81019080803573ffffffffffffffffffffffffffffffffffffffff1690602001909291905050506117fb565b005b6105da611f7b565b604051808273ffffffffffffffffffffffffffffffffffffffff16815260200191505060405180910390f35b6106486004803603602081101561061c57600080fd5b81019080803573ffffffffffffffffffffffffffffffffffffffff169060200190929190505050611fa1565b6040518082815260200191505060405180910390f35b610666611fb9565b6040518088815260200187815260200186815260200185815260200184815260200183815260200182815260200197505050505050505060405180910390f35b6106ae611fe9565b6040518088815260200187815260200186815260200185815260200184815260200183815260200182815260200197505050505050505060405180910390f35b61071a6004803603602081101561070457600080fd5b8101908080359060200190929190505050612019565b005b610724612137565b005b61072e612366565b604051808273ffffffffffffffffffffffffffffffffffffffff16815260200191505060405180910390f35b6107a66004803603604081101561077057600080fd5b81019080803573ffffffffffffffffffffffffffffffffffffffff1690602001909291908035906020019092919050505061236c565b60405180848152602001838152602001828152602001935050505060405180910390f35b6107d26123a6565b60405180821515815260200191505060405180910390f35b61082c6004803603602081101561080057600080fd5b81019080803573ffffffffffffffffffffffffffffffffffffffff169060200190929190505050612881565b005b610836612969565b604051808273ffffffffffffffffffffffffffffffffffffffff16815260200191505060405180910390f35b60008054906101000a900473ffffffffffffffffffffffffffffffffffffffff1673ffffffffffffffffffffffffffffffffffffffff163373ffffffffffffffffffffffffffffffffffffffff1614610906576040517f08c379a000000000000000000000000000000000000000000000000000000000815260040180806020018281038252602f815260200180612e99602f913960400191505060405180910390fd5b6000600160009054906101000a900473ffffffffffffffffffffffffffffffffffffffff16905081600160006101000a81548173ffffffffffffffffffffffffffffffffffffffff021916908373ffffffffffffffffffffffffffffffffffffffff1602179055507f0faed18be9e8f4d4c05dfbcc80ea2c97a0be729614d766827778f60890c02cab81600160009054906101000a900473ffffffffffffffffffffffffffffffffffffffff16604051808373ffffffffffffffffffffffffffffffffffffffff1681526020018273ffffffffffffffffffffffffffffffffffffffff1681526020019250505060405180910390a15050565b6000806000600960030154148015610a1c57506000600960050154145b15610a2d5760008091509150610d1b565b6000601360008573ffffffffffffffffffffffffffffffffffffffff1673ffffffffffffffffffffffffffffffffffffffff168152602001908152602001600020600160028110610a7a57fe5b6003020160000154601360008673ffffffffffffffffffffffffffffffffffffffff1673ffffffffffffffffffffffffffffffffffffffff168152602001908152602001600020600060028110610acd57fe5b60030201600001541015610ae057600190505b60005b601360008673ffffffffffffffffffffffffffffffffffffffff1673ffffffffffffffffffffffffffffffffffffffff1681526020019081526020016000205060028167ffffffffffffffff161015610bbd57600260000154601360008773ffffffffffffffffffffffffffffffffffffffff1673ffffffffffffffffffffffffffffffffffffffff1681526020019081526020016000208267ffffffffffffffff1660028110610b9057fe5b60030201600001541415610bb0578067ffffffffffffffff169150610bbd565b8080600101915050610ae3565b506000601360008673ffffffffffffffffffffffffffffffffffffffff1673ffffffffffffffffffffffffffffffffffffffff1681526020019081526020016000208260028110610c0a57fe5b600302016002015490506000601360008773ffffffffffffffffffffffffffffffffffffffff1673ffffffffffffffffffffffffffffffffffffffff1681526020019081526020016000208360028110610c6057fe5b600302016001015490506000821415610c825760008094509450505050610d1b565b600060026001015490506000610cb383610ca5868561298d90919063ffffffff16565b6129a990919063ffffffff16565b90506000610cdf610cda83610ccc6009600301546129c5565b6129a990919063ffffffff16565b6129eb565b90506000610d0b610d0684610cf86009600501546129c5565b6129a990919063ffffffff16565b6129eb565b9050818198509850505050505050505b915091565b601560009054906101000a900473ffffffffffffffffffffffffffffffffffffffff1681565b6000601054905090565b600160009054906101000a900473ffffffffffffffffffffffffffffffffffffffff1673ffffffffffffffffffffffffffffffffffffffff163373ffffffffffffffffffffffffffffffffffffffff1614610e13576040517f08c379a000000000000000000000000000000000000000000000000000000000815260040180806020018281038252601f8152602001807f4f6e6c792063616e6469646174652063616e206265636f6d652061646d696e0081525060200191505060405180910390fd5b60008060009054906101000a900473ffffffffffffffffffffffffffffffffffffffff169050600160009054906101000a900473ffffffffffffffffffffffffffffffffffffffff166000806101000a81548173ffffffffffffffffffffffffffffffffffffffff021916908373ffffffffffffffffffffffffffffffffffffffff1602179055507f7e644d79422f17c01e4894b5f4f588d331ebfa28653d42ae832dc59e38c9798f8160008054906101000a900473ffffffffffffffffffffffffffffffffffffffff16604051808373ffffffffffffffffffffffffffffffffffffffff1681526020018273ffffffffffffffffffffffffffffffffffffffff1681526020019250505060405180910390a150565b601460009054906101000a900473ffffffffffffffffffffffffffffffffffffffff1673ffffffffffffffffffffffffffffffffffffffff163373ffffffffffffffffffffffffffffffffffffffff1614610fec576040517f08c379a00000000000000000000000000000000000000000000000000000000081526004018080602001828103825260158152602001807f4f6e6c7920446562742073797374656d2063616c6c000000000000000000000081525060200191505060405180910390fd5b600060026000015490506000601360008673ffffffffffffffffffffffffffffffffffffffff1673ffffffffffffffffffffffffffffffffffffffff16815260200190815260200160002060016002811061104357fe5b6003020160000154601360008773ffffffffffffffffffffffffffffffffffffffff1673ffffffffffffffffffffffffffffffffffffffff16815260200190815260200160002060006002811061109657fe5b600302016000015411156110a957600190505b600081905060005b601360008873ffffffffffffffffffffffffffffffffffffffff1673ffffffffffffffffffffffffffffffffffffffff1681526020019081526020016000205060028167ffffffffffffffff1610156111865783601360008973ffffffffffffffffffffffffffffffffffffffff1673ffffffffffffffffffffffffffffffffffffffff1681526020019081526020016000208267ffffffffffffffff166002811061115957fe5b60030201600001541415611179578067ffffffffffffffff169150611186565b80806001019150506110b1565b5082601360008873ffffffffffffffffffffffffffffffffffffffff1673ffffffffffffffffffffffffffffffffffffffff16815260200190815260200160002082600281106111d257fe5b600302016000018190555084601360008873ffffffffffffffffffffffffffffffffffffffff1673ffffffffffffffffffffffffffffffffffffffff168152602001908152602001600020826002811061122857fe5b600302016001018190555083601360008873ffffffffffffffffffffffffffffffffffffffff1673ffffffffffffffffffffffffffffffffffffffff168152602001908152602001600020826002811061127e57fe5b6003020160020181905550505050505050565b601960009054906101000a900473ffffffffffffffffffffffffffffffffffffffff1681565b601660009054906101000a900473ffffffffffffffffffffffffffffffffffffffff1681565b6000806000806000806000600188111561130f5760008060008060008060009650965096509650965096509650611403565b611317612e16565b600089141561137a5760026040518060e001604052908160008201548152602001600182015481526020016002820154815260200160038201548152602001600482015481526020016005820154815260200160068201548152505090506113d0565b60096040518060e001604052908160008201548152602001600182015481526020016002820154815260200160038201548152602001600482015481526020016005820154815260200160068201548152505090505b806000015181602001518260400151836060015184608001518560a001518660c001519750975097509750975097509750505b919395979092949650565b60008054906101000a900473ffffffffffffffffffffffffffffffffffffffff1673ffffffffffffffffffffffffffffffffffffffff163373ffffffffffffffffffffffffffffffffffffffff16146114b2576040517f08c379a000000000000000000000000000000000000000000000000000000000815260040180806020018281038252602f815260200180612e99602f913960400191505060405180910390fd5b81601860006101000a81548173ffffffffffffffffffffffffffffffffffffffff021916908373ffffffffffffffffffffffffffffffffffffffff16021790555080601960006101000a81548173ffffffffffffffffffffffffffffffffffffffff021916908373ffffffffffffffffffffffffffffffffffffffff1602179055505050565b601460009054906101000a900473ffffffffffffffffffffffffffffffffffffffff1681565b60105481565b601860009054906101000a900473ffffffffffffffffffffffffffffffffffffffff1681565b601160009054906101000a900467ffffffffffffffff1681565b6000801515601560009054906101000a900473ffffffffffffffffffffffffffffffffffffffff1673ffffffffffffffffffffffffffffffffffffffff1663bc65d434846040518263ffffffff1660e01b8152600401808273ffffffffffffffffffffffffffffffffffffffff16815260200191505060206040518083038186803b15801561163257600080fd5b505afa158015611646573d6000803e3d6000fd5b505050506040513d602081101561165c57600080fd5b81019080805190602001909291905050501515141561167e57600090506116d8565b600960000154601260008473ffffffffffffffffffffffffffffffffffffffff1673ffffffffffffffffffffffffffffffffffffffff1681526020019081526020016000205414156116d357600090506116d8565b600190505b919050565b601860009054906101000a900473ffffffffffffffffffffffffffffffffffffffff1673ffffffffffffffffffffffffffffffffffffffff163373ffffffffffffffffffffffffffffffffffffffff16146117a0576040517f08c379a00000000000000000000000000000000000000000000000000000000081526004018080602001828103825260198152602001807f4f6e6c792045786368616e67652053797374656d2063616c6c0000000000000081525060200191505060405180910390fd5b6117b881600260030154612a3a90919063ffffffff16565b6002600301819055507f2346b504ea081713647f1908441e88428ad81a40c85a6e4a664cf0bf20b6a31a816040518082815260200191505060405180910390a150565b60008054906101000a900473ffffffffffffffffffffffffffffffffffffffff1673ffffffffffffffffffffffffffffffffffffffff163373ffffffffffffffffffffffffffffffffffffffff161461189f576040517f08c379a000000000000000000000000000000000000000000000000000000000815260040180806020018281038252602f815260200180612e99602f913960400191505060405180910390fd5b8073ffffffffffffffffffffffffffffffffffffffff1663768911da6040518163ffffffff1660e01b815260040180807f4c6e4465627453797374656d0000000000000000000000000000000000000000815250602001806020018281038252601e8152602001807f4c6e4465627453797374656d2061646472657373206e6f742076616c6964000081525060200191505060206040518083038186803b15801561194957600080fd5b505afa15801561195d573d6000803e3d6000fd5b505050506040513d602081101561197357600080fd5b8101908080519060200190929190505050601460006101000a81548173ffffffffffffffffffffffffffffffffffffffff021916908373ffffffffffffffffffffffffffffffffffffffff16021790555060008173ffffffffffffffffffffffffffffffffffffffff1663768911da6040518163ffffffff1660e01b815260040180807f4c6e436f6c6c61746572616c53797374656d00000000000000000000000000008152506020018060200182810382526024815260200180612e546024913960400191505060206040518083038186803b158015611a5357600080fd5b505afa158015611a67573d6000803e3d6000fd5b505050506040513d6020811015611a7d57600080fd5b8101908080519060200190929190505050905080601560006101000a81548173ffffffffffffffffffffffffffffffffffffffff021916908373ffffffffffffffffffffffffffffffffffffffff1602179055508173ffffffffffffffffffffffffffffffffffffffff1663768911da6040518163ffffffff1660e01b815260040180807f4c6e5265776172644c6f636b657200000000000000000000000000000000000081525060200180602001828103825260208152602001807f4c6e5265776172644c6f636b65722061646472657373206e6f742076616c696481525060200191505060206040518083038186803b158015611b7b57600080fd5b505afa158015611b8f573d6000803e3d6000fd5b505050506040513d6020811015611ba557600080fd5b8101908080519060200190929190505050601660006101000a81548173ffffffffffffffffffffffffffffffffffffffff021916908373ffffffffffffffffffffffffffffffffffffffff1602179055508173ffffffffffffffffffffffffffffffffffffffff1663768911da6040518163ffffffff1660e01b815260040180807f4c6e417373657453797374656d00000000000000000000000000000000000000815250602001806020018281038252601f8152602001807f4c6e417373657453797374656d2061646472657373206e6f742076616c69640081525060200191505060206040518083038186803b158015611ca057600080fd5b505afa158015611cb4573d6000803e3d6000fd5b505050506040513d6020811015611cca57600080fd5b8101908080519060200190929190505050601760006101000a81548173ffffffffffffffffffffffffffffffffffffffff021916908373ffffffffffffffffffffffffffffffffffffffff1602179055507f45a7f8d84f7ad724869d024abcaa743ae6aec455a969df76b5d1e9c5cac4d2ae601460009054906101000a900473ffffffffffffffffffffffffffffffffffffffff1660405180807f4c6e4465627453797374656d00000000000000000000000000000000000000008152506020018273ffffffffffffffffffffffffffffffffffffffff16815260200191505060405180910390a17f45a7f8d84f7ad724869d024abcaa743ae6aec455a969df76b5d1e9c5cac4d2ae601560009054906101000a900473ffffffffffffffffffffffffffffffffffffffff1660405180807f4c6e436f6c6c61746572616c53797374656d00000000000000000000000000008152506020018273ffffffffffffffffffffffffffffffffffffffff16815260200191505060405180910390a17f45a7f8d84f7ad724869d024abcaa743ae6aec455a969df76b5d1e9c5cac4d2ae601660009054906101000a900473ffffffffffffffffffffffffffffffffffffffff1660405180807f4c6e5265776172644c6f636b65720000000000000000000000000000000000008152506020018273ffffffffffffffffffffffffffffffffffffffff16815260200191505060405180910390a17f45a7f8d84f7ad724869d024abcaa743ae6aec455a969df76b5d1e9c5cac4d2ae601760009054906101000a900473ffffffffffffffffffffffffffffffffffffffff1660405180807f4c6e417373657453797374656d000000000000000000000000000000000000008152506020018273ffffffffffffffffffffffffffffffffffffffff16815260200191505060405180910390a15050565b600160009054906101000a900473ffffffffffffffffffffffffffffffffffffffff1681565b60126020528060005260406000206000915090505481565b60028060000154908060010154908060020154908060030154908060040154908060050154908060060154905087565b60098060000154908060010154908060020154908060030154908060040154908060050154908060060154905087565b601960009054906101000a900473ffffffffffffffffffffffffffffffffffffffff1673ffffffffffffffffffffffffffffffffffffffff163373ffffffffffffffffffffffffffffffffffffffff16146120dc576040517f08c379a000000000000000000000000000000000000000000000000000000000815260040180806020018281038252601c8152602001807f4f6e6c79205265776172642044697374726962757465722063616c6c0000000081525060200191505060405180910390fd5b6120f481600260050154612a3a90919063ffffffff16565b6002600501819055507f953cfafd534d5937356e70b7110370f0c59577ead2e8162eb4969201531c72c4816040518082815260200191505060405180910390a150565b6010546002800154014210156121b5576040517f08c379a00000000000000000000000000000000000000000000000000000000081526004018080602001828103825260178152602001807f49742773206e6f742074696d6520746f2073776974636800000000000000000081525060200191505060405180910390fd5b6002600001546009600001819055506002600101546009600101819055506002800154600960020181905550612215612201600960040154600960030154612ac290919063ffffffff16565b600260030154612a3a90919063ffffffff16565b600960030181905550600060096004018190555061225d612249600960060154600960050154612ac290919063ffffffff16565b600260050154612a3a90919063ffffffff16565b6009600501819055506000600960060181905550600160026000015401600260000181905550601460009054906101000a900473ffffffffffffffffffffffffffffffffffffffff1673ffffffffffffffffffffffffffffffffffffffff1663cb6a11056040518163ffffffff1660e01b815260040160206040518083038186803b1580156122eb57600080fd5b505afa1580156122ff573d6000803e3d6000fd5b505050506040513d602081101561231557600080fd5b81019080805190602001909291905050506002600101819055504260028001819055506000600260030181905550600060026004018190555060006002600501819055506000600260060181905550565b61204881565b6013602052816000526040600020816002811061238557fe5b60030201600091509150508060000154908060010154908060020154905083565b6000803390506123b5816115a4565b612427576040517f08c379a00000000000000000000000000000000000000000000000000000000081526004018080602001828103825260158152602001807f55736572206973206e6f7420636c61696d61626c65000000000000000000000081525060200191505060405180910390fd5b600960000154601260008373ffffffffffffffffffffffffffffffffffffffff1673ffffffffffffffffffffffffffffffffffffffff1681526020019081526020016000208190555060008061247c836109ff565b91509150600082118061248f5750600081115b612501576040517f08c379a00000000000000000000000000000000000000000000000000000000081526004018080602001828103825260108152602001807f4e6f7468696e6720746f20636c61696d0000000000000000000000000000000081525060200191505060405180910390fd5b600082111561272b576000601760009054906101000a900473ffffffffffffffffffffffffffffffffffffffff1673ffffffffffffffffffffffffffffffffffffffff1663768911da6040518163ffffffff1660e01b815260040180807f4c494e4100000000000000000000000000000000000000000000000000000000815250602001806020018281038252601b8152602001807f676574206c696e612061737365742061646472657373206661696c000000000081525060200191505060206040518083038186803b1580156125d857600080fd5b505afa1580156125ec573d6000803e3d6000fd5b505050506040513d602081101561260257600080fd5b810190808051906020019092919050505090508073ffffffffffffffffffffffffffffffffffffffff16639dc29fac612048856040518363ffffffff1660e01b8152600401808373ffffffffffffffffffffffffffffffffffffffff16815260200182815260200192505050600060405180830381600087803b15801561268857600080fd5b505af115801561269c573d6000803e3d6000fd5b505050508073ffffffffffffffffffffffffffffffffffffffff166340c10f1985856040518363ffffffff1660e01b8152600401808373ffffffffffffffffffffffffffffffffffffffff16815260200182815260200192505050600060405180830381600087803b15801561271157600080fd5b505af1158015612725573d6000803e3d6000fd5b50505050505b600081111561281a576000601160009054906101000a900467ffffffffffffffff1667ffffffffffffffff1642019050601660009054906101000a900473ffffffffffffffffffffffffffffffffffffffff1673ffffffffffffffffffffffffffffffffffffffff16639726065d8584846040518463ffffffff1660e01b8152600401808473ffffffffffffffffffffffffffffffffffffffff1681526020018381526020018267ffffffffffffffff1681526020019350505050600060405180830381600087803b15801561280057600080fd5b505af1158015612814573d6000803e3d6000fd5b50505050505b7f1ac537f0ad67b64ac68a04587ff3a4cb6977de22eb2c37ee560897a92c6d07c7838383604051808473ffffffffffffffffffffffffffffffffffffffff168152602001838152602001828152602001935050505060405180910390a16001935050505090565b60008054906101000a900473ffffffffffffffffffffffffffffffffffffffff1673ffffffffffffffffffffffffffffffffffffffff163373ffffffffffffffffffffffffffffffffffffffff1614612925576040517f08c379a000000000000000000000000000000000000000000000000000000000815260040180806020018281038252602f815260200180612e99602f913960400191505060405180910390fd5b80601860006101000a81548173ffffffffffffffffffffffffffffffffffffffff021916908373ffffffffffffffffffffffffffffffffffffffff16021790555050565b60008054906101000a900473ffffffffffffffffffffffffffffffffffffffff1681565b60006129a18383601b60ff16600a0a612b0c565b905092915050565b60006129bd8383601b60ff16600a0a612b67565b905092915050565b60006129e46012601b0360ff16600a0a83612bc090919063ffffffff16565b9050919050565b600080600a6012601b0360ff16600a0a81612a0257fe5b048381612a0b57fe5b0490506005600a8281612a1a57fe5b0610612a2757600a810190505b600a8181612a3157fe5b04915050919050565b600080828401905083811015612ab8576040517f08c379a000000000000000000000000000000000000000000000000000000000815260040180806020018281038252601b8152602001807f536166654d6174683a206164646974696f6e206f766572666c6f77000000000081525060200191505060405180910390fd5b8091505092915050565b6000612b0483836040518060400160405280601e81526020017f536166654d6174683a207375627472616374696f6e206f766572666c6f770000815250612c46565b905092915050565b600080612b3784612b29600a860288612bc090919063ffffffff16565b612d0690919063ffffffff16565b90506005600a8281612b4557fe5b0610612b5257600a810190505b600a8181612b5c57fe5b049150509392505050565b600080600a8381612b7457fe5b04612b888587612bc090919063ffffffff16565b81612b8f57fe5b0490506005600a8281612b9e57fe5b0610612bab57600a810190505b600a8181612bb557fe5b049150509392505050565b600080831415612bd35760009050612c40565b6000828402905082848281612be457fe5b0414612c3b576040517f08c379a0000000000000000000000000000000000000000000000000000000008152600401808060200182810382526021815260200180612e786021913960400191505060405180910390fd5b809150505b92915050565b6000838311158290612cf3576040517f08c379a00000000000000000000000000000000000000000000000000000000081526004018080602001828103825283818151815260200191508051906020019080838360005b83811015612cb8578082015181840152602081019050612c9d565b50505050905090810190601f168015612ce55780820380516001836020036101000a031916815260200191505b509250505060405180910390fd5b5060008385039050809150509392505050565b6000612d4883836040518060400160405280601a81526020017f536166654d6174683a206469766973696f6e206279207a65726f000000000000815250612d50565b905092915050565b60008083118290612dfc576040517f08c379a00000000000000000000000000000000000000000000000000000000081526004018080602001828103825283818151815260200191508051906020019080838360005b83811015612dc1578082015181840152602081019050612da6565b50505050905090810190601f168015612dee5780820380516001836020036101000a031916815260200191505b509250505060405180910390fd5b506000838581612e0857fe5b049050809150509392505050565b6040518060e0016040528060008152602001600081526020016000815260200160008152602001600081526020016000815260200160008152509056fe4c6e436f6c6c61746572616c53797374656d2061646472657373206e6f742076616c6964536166654d6174683a206d756c7469706c69636174696f6e206f766572666c6f774f6e6c792074686520636f6e74726163742061646d696e2063616e20706572666f726d207468697320616374696f6ea2646970667358221220ab857c35e0ab6d24c205ab7e4ddae4ea7529ffc2d597cc94bb33198b5db4203664736f6c634300060c0033",
  "immutableReferences": {},
  "source": "// SPDX-License-Identifier: MIT\r\npragma solidity ^0.6.12;\r\n\r\nimport \"./LnAdmin.sol\";\r\nimport \"@openzeppelin/contracts/math/SafeMath.sol\";\r\nimport \"./SafeDecimalMath.sol\";\r\nimport \"./LnAddressCache.sol\";\r\nimport \"./LnDebtSystem.sol\";\r\nimport \"./LnCollateralSystem.sol\";\r\nimport \"./LnRewardLocker.sol\";\r\nimport \"./LnAssetSystem.sol\";\r\nimport \"./LnAsset.sol\";\r\n\r\ncontract LnFeeSystem is LnAdmin, LnAddressCache {\r\n    using SafeMath for uint256;\r\n    using SafeDecimalMath for uint256;\r\n\r\n    address public constant FEE_DUMMY_ADDRESS = address(0x2048); \r\n\r\n    struct UserDebtData {\r\n        uint256 PeriodID; // Period id\r\n        uint256 debtProportion;\r\n        uint256 debtFactor; // PRECISE_UNIT\r\n    }\r\n\r\n    struct RewardPeriod {\r\n        uint256 id; // Period id\r\n        uint256 startingDebtFactor;\r\n        uint256 startTime;\r\n        uint256 feesToDistribute; // \r\n        uint256 feesClaimed; // \r\n        uint256 rewardsToDistribute; // \r\n        uint256 rewardsClaimed; // \r\n    }\r\n\r\n    RewardPeriod public curRewardPeriod;\r\n    RewardPeriod public preRewardPeriod;\r\n    uint256 public OnePeriodSecs = 1 weeks;\r\n    uint64 public LockTime = uint64(52 weeks);\r\n\r\n    mapping (address => uint256) public userLastClaimedId;\r\n\r\n    mapping (address => UserDebtData[2]) public userPeriodDebt; // one for current period, one for pre period\r\n\r\n    //\r\n    LnDebtSystem public debtSystem;\r\n    LnCollateralSystem public collateralSystem;\r\n    LnRewardLocker public rewardLocker;\r\n    LnAssetSystem mAssets;\r\n\r\n    address public exchangeSystemAddress;\r\n    address public rewardDistributer;\r\n\r\n    constructor(address _admin ) public LnAdmin(_admin ) {\r\n    }\r\n\r\n    // Note: before start run need call this func to init.\r\n    function Init(address _exchangeSystem, address _rewardDistri) public onlyAdmin {\r\n        exchangeSystemAddress = _exchangeSystem;\r\n        rewardDistributer = _rewardDistri;\r\n    }\r\n\r\n    function setExchangeSystemAddress(address _address) public onlyAdmin {\r\n        exchangeSystemAddress = _address;\r\n    }\r\n\r\n    modifier onlyExchanger {\r\n        require( (msg.sender == exchangeSystemAddress), \"Only Exchange System call\");\r\n        _;\r\n    }\r\n\r\n    modifier onlyDistributer {\r\n        require( (msg.sender == rewardDistributer), \"Only Reward Distributer call\");\r\n        _;\r\n    }\r\n\r\n    function addExchangeFee( uint feeUsd ) public onlyExchanger {\r\n        curRewardPeriod.feesToDistribute = curRewardPeriod.feesToDistribute.add(feeUsd);\r\n        emit ExchangeFee( feeUsd );\r\n    }\r\n\r\n    // TODO: call by contract or auto distribute?\r\n    function addCollateralRewards( uint reward) public onlyDistributer {\r\n        curRewardPeriod.rewardsToDistribute = curRewardPeriod.rewardsToDistribute.add(reward);\r\n        emit RewardCollateral(reward);\r\n    }\r\n\r\n    event ExchangeFee( uint feeUsd );\r\n    event RewardCollateral( uint reward );\r\n    event FeesClaimed(address user, uint lUSDAmount, uint linaRewards);\r\n\r\n    function updateAddressCache( LnAddressStorage _addressStorage ) onlyAdmin public override\r\n    {\r\n        debtSystem =      LnDebtSystem(     _addressStorage.getAddressWithRequire( \"LnDebtSystem\",      \"LnDebtSystem address not valid\" ));\r\n        address payable collateralAddress = payable(_addressStorage.getAddressWithRequire( \"LnCollateralSystem\",\"LnCollateralSystem address not valid\" ));\r\n        collateralSystem = LnCollateralSystem( collateralAddress );\r\n        rewardLocker =   LnRewardLocker(     _addressStorage.getAddressWithRequire( \"LnRewardLocker\",      \"LnRewardLocker address not valid\" ));\r\n        mAssets = LnAssetSystem(_addressStorage.getAddressWithRequire( \"LnAssetSystem\",      \"LnAssetSystem address not valid\" ));\r\n\r\n        emit updateCachedAddress( \"LnDebtSystem\",      address(debtSystem) );\r\n        emit updateCachedAddress( \"LnCollateralSystem\",address(collateralSystem) );\r\n        emit updateCachedAddress( \"LnRewardLocker\",address(rewardLocker) );\r\n        emit updateCachedAddress( \"LnAssetSystem\",address(mAssets) );\r\n     }\r\n\r\n    function switchPeriod() public {\r\n        require(now >= curRewardPeriod.startTime + OnePeriodSecs, \"It's not time to switch\");\r\n\r\n        preRewardPeriod.id = curRewardPeriod.id;\r\n        preRewardPeriod.startingDebtFactor = curRewardPeriod.startingDebtFactor;\r\n        preRewardPeriod.startTime = curRewardPeriod.startTime;\r\n        preRewardPeriod.feesToDistribute = curRewardPeriod.feesToDistribute.add( preRewardPeriod.feesToDistribute.sub(preRewardPeriod.feesClaimed) );\r\n        preRewardPeriod.feesClaimed = 0;\r\n        preRewardPeriod.rewardsToDistribute = curRewardPeriod.rewardsToDistribute.add( preRewardPeriod.rewardsToDistribute.sub(preRewardPeriod.rewardsClaimed) );\r\n        preRewardPeriod.rewardsClaimed = 0;\r\n        \r\n        curRewardPeriod.id = curRewardPeriod.id + 1;\r\n        curRewardPeriod.startingDebtFactor = debtSystem.LastSystemDebtFactor();\r\n        curRewardPeriod.startTime = now;\r\n        curRewardPeriod.feesToDistribute = 0;\r\n        curRewardPeriod.feesClaimed = 0;\r\n        curRewardPeriod.rewardsToDistribute = 0;\r\n        curRewardPeriod.rewardsClaimed = 0;\r\n    }\r\n\r\n    function feePeriodDuration() external view returns (uint) {\r\n        return OnePeriodSecs;\r\n    }\r\n\r\n    function recentFeePeriods(uint index) external view\r\n        returns (\r\n            uint256 id,\r\n            uint256 startingDebtFactor,\r\n            uint256 startTime,\r\n            uint256 feesToDistribute,\r\n            uint256 feesClaimed,\r\n            uint256 rewardsToDistribute,\r\n            uint256 rewardsClaimed\r\n        )\r\n    {\r\n        if (index > 1) {\r\n            return (0,0,0,0,0,0,0);\r\n        }\r\n        RewardPeriod memory rewardPd;\r\n        if (index == 0) {\r\n            rewardPd = curRewardPeriod;\r\n        } else {\r\n            rewardPd = preRewardPeriod;\r\n        }\r\n        return (\r\n            rewardPd.id,\r\n            rewardPd.startingDebtFactor,\r\n            rewardPd.startTime,\r\n            rewardPd.feesToDistribute,\r\n            rewardPd.feesClaimed,\r\n            rewardPd.rewardsToDistribute,\r\n            rewardPd.rewardsClaimed\r\n        );\r\n    }\r\n\r\n    modifier onlyDebtSystem() {\r\n        require(msg.sender == address(debtSystem), \"Only Debt system call\");\r\n        _;\r\n    }\r\n\r\n    // build record\r\n    function RecordUserDebt(address user, uint256 debtProportion, uint256 debtFactor) public onlyDebtSystem {\r\n        uint256 curId = curRewardPeriod.id;\r\n        uint256 minPos = 0;\r\n        if (userPeriodDebt[user][0].PeriodID > userPeriodDebt[user][1].PeriodID) {\r\n            minPos = 1;\r\n        }\r\n        uint256 pos = minPos;\r\n        for (uint64 i = 0; i < userPeriodDebt[user].length; i++) {\r\n            if (userPeriodDebt[user][i].PeriodID == curId) {\r\n                pos = i;\r\n                break;\r\n            }\r\n        }\r\n        userPeriodDebt[user][pos].PeriodID = curId;\r\n        userPeriodDebt[user][pos].debtProportion = debtProportion;\r\n        userPeriodDebt[user][pos].debtFactor = debtFactor;\r\n    }\r\n\r\n    function isFeesClaimable(address account) public view returns (bool feesClaimable) {\r\n        if (collateralSystem.IsSatisfyTargetRatio(account) == false) {\r\n            return false;\r\n        }\r\n\r\n        if (userLastClaimedId[account] == preRewardPeriod.id) {\r\n            return false;\r\n        }\r\n\r\n        // TODO: other condition?\r\n        return true;\r\n    }\r\n\r\n    // total fee and total reward\r\n    function feesAvailable(address user) public view returns (uint, uint) {\r\n        if (preRewardPeriod.feesToDistribute == 0 && preRewardPeriod.rewardsToDistribute == 0) {\r\n            return (0,0);\r\n        }\r\n        // close factor\r\n        uint256 pos = 0;\r\n        if (userPeriodDebt[user][0].PeriodID < userPeriodDebt[user][1].PeriodID) {\r\n            pos = 1;\r\n        }\r\n        for (uint64 i = 0; i < userPeriodDebt[user].length; i++) {\r\n            if (userPeriodDebt[user][i].PeriodID == curRewardPeriod.id) {\r\n                pos = i;\r\n                break;\r\n            }\r\n        }\r\n\r\n        uint256 debtFactor = userPeriodDebt[user][pos].debtFactor;\r\n        uint256 debtProportion = userPeriodDebt[user][pos].debtProportion;\r\n        if (debtFactor == 0) {\r\n            return (0,0);\r\n        }\r\n\r\n        uint256 lastPeriodDebtFactor = curRewardPeriod.startingDebtFactor;\r\n        uint256 userDebtProportion = lastPeriodDebtFactor\r\n                .divideDecimalRoundPrecise(debtFactor)\r\n                .multiplyDecimalRoundPrecise(debtProportion);\r\n\r\n        uint256 fee = preRewardPeriod.feesToDistribute\r\n                .decimalToPreciseDecimal()\r\n                .multiplyDecimalRoundPrecise(userDebtProportion)\r\n                .preciseDecimalToDecimal();\r\n\r\n        uint256 reward = preRewardPeriod.rewardsToDistribute\r\n                .decimalToPreciseDecimal()\r\n                .multiplyDecimalRoundPrecise(userDebtProportion)\r\n                .preciseDecimalToDecimal();\r\n        return (fee, reward);\r\n    }\r\n\r\n    // claim fee and reward.\r\n    function claimFees() external returns (bool) {\r\n        address user = msg.sender;\r\n        require( isFeesClaimable(user), \"User is not claimable\" );\r\n\r\n        userLastClaimedId[user] = preRewardPeriod.id;\r\n        // fee reward: mint lusd\r\n        // : rewardLocker.appendReward(use, reward, now + 1 years);\r\n        (uint256 fee, uint256 reward) = feesAvailable(user);\r\n        require(fee > 0 || reward > 0, \"Nothing to claim\");\r\n\r\n        if (fee > 0) {\r\n            LnAsset lusd = LnAsset( mAssets.getAddressWithRequire( \"LINA\", \"get lina asset address fail\" ));\r\n            lusd.burn( FEE_DUMMY_ADDRESS, fee );\r\n            lusd.mint(user, fee);\r\n        }\r\n\r\n        if (reward > 0) {\r\n            uint64 totime = uint64(now + LockTime);\r\n            rewardLocker.appendReward(user, reward, totime);\r\n        }\r\n        emit FeesClaimed(user, fee, reward);\r\n        return true;\r\n    }\r\n}\r\n\r\ncontract LnFeeSystemTest is LnFeeSystem {\r\n    constructor(address _admin ) public LnFeeSystem(_admin ) {\r\n        OnePeriodSecs = 6 hours;\r\n        LockTime = 1 hours;\r\n    }\r\n}\r\n",
  "sourcePath": "/mnt/d/working/linearFinance/smartcontracts/contracts/LnFeeSystem.sol",
  "compiler": {
    "name": "solc",
    "version": "0.6.12+commit.27d51765.Emscripten.clang"
  },
  "schemaVersion": "3.2.3",
  "updatedAt": "2020-10-15T10:03:05.991Z",
  "networkType": "ethereum",
  "devdoc": {
    "kind": "dev",
    "methods": {},
    "version": 1
  },
  "userdoc": {
    "kind": "user",
    "methods": {},
    "version": 1
  }
}