{
  "contractName": "LnFundVault",
  "abi": [
    {
      "inputs": [
        {
          "internalType": "address",
          "name": "_admin",
          "type": "address"
        },
        {
          "internalType": "uint256",
          "name": "fund",
          "type": "uint256"
        },
        {
          "internalType": "uint256",
          "name": "investNumb",
          "type": "uint256"
        },
        {
          "internalType": "address payable",
          "name": "_receive",
          "type": "address"
        }
      ],
      "stateMutability": "nonpayable",
      "type": "constructor"
    },
    {
      "anonymous": false,
      "inputs": [
        {
          "indexed": false,
          "internalType": "address",
          "name": "oldAdmin",
          "type": "address"
        },
        {
          "indexed": false,
          "internalType": "address",
          "name": "newAdmin",
          "type": "address"
        }
      ],
      "name": "AdminChanged",
      "type": "event"
    },
    {
      "anonymous": false,
      "inputs": [
        {
          "indexed": false,
          "internalType": "address",
          "name": "",
          "type": "address"
        },
        {
          "indexed": false,
          "internalType": "uint256",
          "name": "",
          "type": "uint256"
        }
      ],
      "name": "Claimed",
      "type": "event"
    },
    {
      "anonymous": false,
      "inputs": [
        {
          "indexed": false,
          "internalType": "address",
          "name": "",
          "type": "address"
        },
        {
          "indexed": false,
          "internalType": "uint256",
          "name": "",
          "type": "uint256"
        }
      ],
      "name": "ReceiveFund",
      "type": "event"
    },
    {
      "anonymous": false,
      "inputs": [
        {
          "indexed": false,
          "internalType": "address",
          "name": "oldCandidate",
          "type": "address"
        },
        {
          "indexed": false,
          "internalType": "address",
          "name": "newCandidate",
          "type": "address"
        }
      ],
      "name": "candidateChanged",
      "type": "event"
    },
    {
      "inputs": [],
      "name": "admin",
      "outputs": [
        {
          "internalType": "address",
          "name": "",
          "type": "address"
        }
      ],
      "stateMutability": "view",
      "type": "function"
    },
    {
      "inputs": [],
      "name": "becomeAdmin",
      "outputs": [],
      "stateMutability": "nonpayable",
      "type": "function"
    },
    {
      "inputs": [],
      "name": "candidate",
      "outputs": [
        {
          "internalType": "address",
          "name": "",
          "type": "address"
        }
      ],
      "stateMutability": "view",
      "type": "function"
    },
    {
      "inputs": [
        {
          "internalType": "address",
          "name": "_candidate",
          "type": "address"
        }
      ],
      "name": "setCandidate",
      "outputs": [],
      "stateMutability": "nonpayable",
      "type": "function"
    },
    {
      "stateMutability": "payable",
      "type": "receive"
    },
    {
      "inputs": [
        {
          "internalType": "uint256",
          "name": "iv",
          "type": "uint256"
        }
      ],
      "name": "SetFundValue",
      "outputs": [],
      "stateMutability": "nonpayable",
      "type": "function"
    },
    {
      "inputs": [
        {
          "internalType": "uint256",
          "name": "iv",
          "type": "uint256"
        }
      ],
      "name": "SetInvestNumb",
      "outputs": [],
      "stateMutability": "nonpayable",
      "type": "function"
    },
    {
      "inputs": [
        {
          "internalType": "uint256",
          "name": "iReceive",
          "type": "uint256"
        }
      ],
      "name": "claim",
      "outputs": [],
      "stateMutability": "nonpayable",
      "type": "function"
    }
  ],
  "bytecode": "0x608060405260006002556000600355600060055534801561001f57600080fd5b50604051610c48380380610c488339818101604052608081101561004257600080fd5b810190808051906020019092919080519060200190929190805190602001909291908051906020019092919050505083600073ffffffffffffffffffffffffffffffffffffffff168173ffffffffffffffffffffffffffffffffffffffff161415610115576040517f08c379a00000000000000000000000000000000000000000000000000000000081526004018080602001828103825260198152602001807f61646d696e20616464726573732063616e6e6f7420626520300000000000000081525060200191505060405180910390fd5b806000806101000a81548173ffffffffffffffffffffffffffffffffffffffff021916908373ffffffffffffffffffffffffffffffffffffffff1602179055507f7e644d79422f17c01e4894b5f4f588d331ebfa28653d42ae832dc59e38c9798f600082604051808373ffffffffffffffffffffffffffffffffffffffff1681526020018273ffffffffffffffffffffffffffffffffffffffff1681526020019250505060405180910390a150826002819055508160038190555080600460006101000a81548173ffffffffffffffffffffffffffffffffffffffff021916908373ffffffffffffffffffffffffffffffffffffffff16021790555050505050610a24806102246000396000f3fe6080604052600436106100745760003560e01c80636c8381f81161004e5780636c8381f814610232578063d40fac3d14610273578063d7a6f305146102ae578063f851a440146102e95761018a565b806307880b7f1461018f57806325971dff146101e0578063379607f5146101f75761018a565b3661018a57600254341461008757600080fd5b6000600660003373ffffffffffffffffffffffffffffffffffffffff1673ffffffffffffffffffffffffffffffffffffffff16815260200190815260200160002054146100d357600080fd5b600354600554106100e357600080fd5b34600660003373ffffffffffffffffffffffffffffffffffffffff1673ffffffffffffffffffffffffffffffffffffffff168152602001908152602001600020819055506001600554016005819055507f1bc4cdb9561c5e491b4fb9411ee5ada98a400faa380db2461b3b9548c2f5a91e3334604051808373ffffffffffffffffffffffffffffffffffffffff1681526020018281526020019250505060405180910390a1005b600080fd5b34801561019b57600080fd5b506101de600480360360208110156101b257600080fd5b81019080803573ffffffffffffffffffffffffffffffffffffffff16906020019092919050505061032a565b005b3480156101ec57600080fd5b506101f56104c7565b005b34801561020357600080fd5b506102306004803603602081101561021a57600080fd5b81019080803590602001909291905050506106a0565b005b34801561023e57600080fd5b50610247610819565b604051808273ffffffffffffffffffffffffffffffffffffffff16815260200191505060405180910390f35b34801561027f57600080fd5b506102ac6004803603602081101561029657600080fd5b810190808035906020019092919050505061083f565b005b3480156102ba57600080fd5b506102e7600480360360208110156102d157600080fd5b81019080803590602001909291905050506108ed565b005b3480156102f557600080fd5b506102fe61099b565b604051808273ffffffffffffffffffffffffffffffffffffffff16815260200191505060405180910390f35b60008054906101000a900473ffffffffffffffffffffffffffffffffffffffff1673ffffffffffffffffffffffffffffffffffffffff163373ffffffffffffffffffffffffffffffffffffffff16146103ce576040517f08c379a000000000000000000000000000000000000000000000000000000000815260040180806020018281038252602f8152602001806109c0602f913960400191505060405180910390fd5b6000600160009054906101000a900473ffffffffffffffffffffffffffffffffffffffff16905081600160006101000a81548173ffffffffffffffffffffffffffffffffffffffff021916908373ffffffffffffffffffffffffffffffffffffffff1602179055507f0faed18be9e8f4d4c05dfbcc80ea2c97a0be729614d766827778f60890c02cab81600160009054906101000a900473ffffffffffffffffffffffffffffffffffffffff16604051808373ffffffffffffffffffffffffffffffffffffffff1681526020018273ffffffffffffffffffffffffffffffffffffffff1681526020019250505060405180910390a15050565b600160009054906101000a900473ffffffffffffffffffffffffffffffffffffffff1673ffffffffffffffffffffffffffffffffffffffff163373ffffffffffffffffffffffffffffffffffffffff161461058a576040517f08c379a000000000000000000000000000000000000000000000000000000000815260040180806020018281038252601f8152602001807f4f6e6c792063616e6469646174652063616e206265636f6d652061646d696e0081525060200191505060405180910390fd5b60008060009054906101000a900473ffffffffffffffffffffffffffffffffffffffff169050600160009054906101000a900473ffffffffffffffffffffffffffffffffffffffff166000806101000a81548173ffffffffffffffffffffffffffffffffffffffff021916908373ffffffffffffffffffffffffffffffffffffffff1602179055507f7e644d79422f17c01e4894b5f4f588d331ebfa28653d42ae832dc59e38c9798f8160008054906101000a900473ffffffffffffffffffffffffffffffffffffffff16604051808373ffffffffffffffffffffffffffffffffffffffff1681526020018273ffffffffffffffffffffffffffffffffffffffff1681526020019250505060405180910390a150565b6000600460009054906101000a900473ffffffffffffffffffffffffffffffffffffffff1673ffffffffffffffffffffffffffffffffffffffff168260405180600001905060006040518083038185875af1925050503d8060008114610722576040519150601f19603f3d011682016040523d82523d6000602084013e610727565b606091505b505090508061079e576040517f08c379a00000000000000000000000000000000000000000000000000000000081526004018080602001828103825260108152602001807f5472616e73666572206661696c65642e0000000000000000000000000000000081525060200191505060405180910390fd5b7fd8138f8a3f377c5259ca548e70e4c2de94f129f5a11036a15b69513cba2b426a600460009054906101000a900473ffffffffffffffffffffffffffffffffffffffff1683604051808373ffffffffffffffffffffffffffffffffffffffff1681526020018281526020019250505060405180910390a15050565b600160009054906101000a900473ffffffffffffffffffffffffffffffffffffffff1681565b60008054906101000a900473ffffffffffffffffffffffffffffffffffffffff1673ffffffffffffffffffffffffffffffffffffffff163373ffffffffffffffffffffffffffffffffffffffff16146108e3576040517f08c379a000000000000000000000000000000000000000000000000000000000815260040180806020018281038252602f8152602001806109c0602f913960400191505060405180910390fd5b8060028190555050565b60008054906101000a900473ffffffffffffffffffffffffffffffffffffffff1673ffffffffffffffffffffffffffffffffffffffff163373ffffffffffffffffffffffffffffffffffffffff1614610991576040517f08c379a000000000000000000000000000000000000000000000000000000000815260040180806020018281038252602f8152602001806109c0602f913960400191505060405180910390fd5b8060038190555050565b60008054906101000a900473ffffffffffffffffffffffffffffffffffffffff168156fe4f6e6c792074686520636f6e74726163742061646d696e2063616e20706572666f726d207468697320616374696f6ea2646970667358221220dd222354f2b70f11ef41a9ebfa7a4a0f975f9f6f0f1c11c694d2962c5fe25c8d64736f6c634300060c0033",
  "immutableReferences": {},
  "source": "// SPDX-License-Identifier: MIT\r\npragma solidity ^0.6.12;\r\n\r\nimport \"./LnAdmin.sol\";\r\n\r\ncontract LnFundVault is LnAdmin {\r\n    uint private mFundValue = 0;\r\n    uint private mInvestNumb = 0;\r\n    address payable private mFundReceive;\r\n    uint private mCurInvest = 0;\r\n    mapping(address => uint) private receiveOf;\r\n\r\n\r\n    constructor(address _admin, uint fund, uint investNumb, address payable _receive ) public LnAdmin(_admin) {\r\n        mFundValue = fund;\r\n        mInvestNumb = investNumb;\r\n        mFundReceive = _receive;\r\n    }\r\n\r\n    function SetFundValue( uint iv ) public onlyAdmin {\r\n        mFundValue = iv;    \r\n    }\r\n\r\n    function SetInvestNumb( uint iv ) public onlyAdmin{\r\n        mInvestNumb = iv;\r\n    }\r\n\r\n    receive() external payable {\r\n        require(msg.value == mFundValue );\r\n        require( receiveOf[ msg.sender] == 0 );\r\n        require( mCurInvest < mInvestNumb );\r\n\r\n        receiveOf[ msg.sender ] = msg.value;\r\n        mCurInvest = mCurInvest + 1;\r\n        emit ReceiveFund( msg.sender, msg.value );\r\n    }\r\n\r\n    function claim( uint iReceive ) public {\r\n        (bool success, ) = mFundReceive.call{value:iReceive}(\"\");\r\n        require(success, \"Transfer failed.\");        \r\n        emit Claimed( mFundReceive, iReceive );\r\n    }\r\n\r\n    event ReceiveFund( address, uint );\r\n    event Claimed( address, uint );\r\n}\r\n\r\n\r\n",
  "sourcePath": "/mnt/d/working/linearFinance/LinearFinanceToken/contracts/LnFundVault.sol",
  "compiler": {
    "name": "solc",
    "version": "0.6.12+commit.27d51765.Emscripten.clang"
  },
  "schemaVersion": "3.2.3",
  "updatedAt": "2020-09-17T02:21:43.233Z",
  "devdoc": {
    "kind": "dev",
    "methods": {},
    "version": 1
  },
  "userdoc": {
    "kind": "user",
    "methods": {},
    "version": 1
  }
}