{
  "contractName": "LnLinearStakingStorage",
  "abi": [
    {
      "inputs": [
        {
          "internalType": "address",
          "name": "_admin",
          "type": "address"
        },
        {
          "internalType": "address",
          "name": "_accessCtrl",
          "type": "address"
        }
      ],
      "stateMutability": "nonpayable",
      "type": "constructor"
    },
    {
      "anonymous": false,
      "inputs": [
        {
          "indexed": false,
          "internalType": "address",
          "name": "oldAdmin",
          "type": "address"
        },
        {
          "indexed": false,
          "internalType": "address",
          "name": "newAdmin",
          "type": "address"
        }
      ],
      "name": "AdminChanged",
      "type": "event"
    },
    {
      "anonymous": false,
      "inputs": [
        {
          "indexed": false,
          "internalType": "address",
          "name": "oldCandidate",
          "type": "address"
        },
        {
          "indexed": false,
          "internalType": "address",
          "name": "newCandidate",
          "type": "address"
        }
      ],
      "name": "candidateChanged",
      "type": "event"
    },
    {
      "inputs": [],
      "name": "DATA_ACCESS_ROLE",
      "outputs": [
        {
          "internalType": "bytes32",
          "name": "",
          "type": "bytes32"
        }
      ],
      "stateMutability": "view",
      "type": "function",
      "constant": true
    },
    {
      "inputs": [],
      "name": "accessCtrl",
      "outputs": [
        {
          "internalType": "contract LnAccessControl",
          "name": "",
          "type": "address"
        }
      ],
      "stateMutability": "view",
      "type": "function",
      "constant": true
    },
    {
      "inputs": [],
      "name": "admin",
      "outputs": [
        {
          "internalType": "address",
          "name": "",
          "type": "address"
        }
      ],
      "stateMutability": "view",
      "type": "function",
      "constant": true
    },
    {
      "inputs": [],
      "name": "becomeAdmin",
      "outputs": [],
      "stateMutability": "nonpayable",
      "type": "function"
    },
    {
      "inputs": [],
      "name": "candidate",
      "outputs": [
        {
          "internalType": "address",
          "name": "",
          "type": "address"
        }
      ],
      "stateMutability": "view",
      "type": "function",
      "constant": true
    },
    {
      "inputs": [
        {
          "internalType": "address",
          "name": "_candidate",
          "type": "address"
        }
      ],
      "name": "setCandidate",
      "outputs": [],
      "stateMutability": "nonpayable",
      "type": "function"
    },
    {
      "inputs": [
        {
          "internalType": "address",
          "name": "",
          "type": "address"
        },
        {
          "internalType": "uint256",
          "name": "",
          "type": "uint256"
        }
      ],
      "name": "stakesdata",
      "outputs": [
        {
          "internalType": "uint256",
          "name": "amount",
          "type": "uint256"
        },
        {
          "internalType": "uint256",
          "name": "staketime",
          "type": "uint256"
        }
      ],
      "stateMutability": "view",
      "type": "function",
      "constant": true
    },
    {
      "inputs": [],
      "name": "stakingEndTime",
      "outputs": [
        {
          "internalType": "uint256",
          "name": "",
          "type": "uint256"
        }
      ],
      "stateMutability": "view",
      "type": "function",
      "constant": true
    },
    {
      "inputs": [],
      "name": "stakingStartTime",
      "outputs": [
        {
          "internalType": "uint256",
          "name": "",
          "type": "uint256"
        }
      ],
      "stateMutability": "view",
      "type": "function",
      "constant": true
    },
    {
      "inputs": [],
      "name": "totalWeekNumber",
      "outputs": [
        {
          "internalType": "uint256",
          "name": "",
          "type": "uint256"
        }
      ],
      "stateMutability": "view",
      "type": "function",
      "constant": true
    },
    {
      "inputs": [],
      "name": "weekRewardAmount",
      "outputs": [
        {
          "internalType": "uint256",
          "name": "",
          "type": "uint256"
        }
      ],
      "stateMutability": "view",
      "type": "function",
      "constant": true
    },
    {
      "inputs": [
        {
          "internalType": "uint256",
          "name": "",
          "type": "uint256"
        }
      ],
      "name": "weeksTotal",
      "outputs": [
        {
          "internalType": "uint256",
          "name": "",
          "type": "uint256"
        }
      ],
      "stateMutability": "view",
      "type": "function",
      "constant": true
    },
    {
      "inputs": [
        {
          "internalType": "address",
          "name": "_accessCtrl",
          "type": "address"
        }
      ],
      "name": "setAccessControl",
      "outputs": [],
      "stateMutability": "nonpayable",
      "type": "function"
    },
    {
      "inputs": [],
      "name": "weekTotalStaking",
      "outputs": [
        {
          "internalType": "uint256[]",
          "name": "",
          "type": "uint256[]"
        }
      ],
      "stateMutability": "view",
      "type": "function",
      "constant": true
    },
    {
      "inputs": [
        {
          "internalType": "address",
          "name": "account",
          "type": "address"
        }
      ],
      "name": "getStakesdataLength",
      "outputs": [
        {
          "internalType": "uint256",
          "name": "",
          "type": "uint256"
        }
      ],
      "stateMutability": "view",
      "type": "function",
      "constant": true
    },
    {
      "inputs": [
        {
          "internalType": "address",
          "name": "account",
          "type": "address"
        },
        {
          "internalType": "uint256",
          "name": "index",
          "type": "uint256"
        }
      ],
      "name": "getStakesDataByIndex",
      "outputs": [
        {
          "internalType": "uint256",
          "name": "",
          "type": "uint256"
        },
        {
          "internalType": "uint256",
          "name": "",
          "type": "uint256"
        }
      ],
      "stateMutability": "view",
      "type": "function",
      "constant": true
    },
    {
      "inputs": [
        {
          "internalType": "address",
          "name": "account",
          "type": "address"
        }
      ],
      "name": "stakingBalanceOf",
      "outputs": [
        {
          "internalType": "uint256",
          "name": "",
          "type": "uint256"
        }
      ],
      "stateMutability": "view",
      "type": "function",
      "constant": true
    },
    {
      "inputs": [],
      "name": "requireInStakingPeriod",
      "outputs": [],
      "stateMutability": "view",
      "type": "function",
      "constant": true
    },
    {
      "inputs": [],
      "name": "requireStakingEnd",
      "outputs": [],
      "stateMutability": "view",
      "type": "function",
      "constant": true
    },
    {
      "inputs": [
        {
          "internalType": "address",
          "name": "account",
          "type": "address"
        },
        {
          "internalType": "uint256",
          "name": "amount",
          "type": "uint256"
        },
        {
          "internalType": "uint256",
          "name": "staketime",
          "type": "uint256"
        }
      ],
      "name": "PushStakingData",
      "outputs": [],
      "stateMutability": "nonpayable",
      "type": "function"
    },
    {
      "inputs": [
        {
          "internalType": "address",
          "name": "account",
          "type": "address"
        },
        {
          "internalType": "uint256",
          "name": "index",
          "type": "uint256"
        },
        {
          "internalType": "uint256",
          "name": "amount",
          "type": "uint256"
        }
      ],
      "name": "StakingDataAdd",
      "outputs": [],
      "stateMutability": "nonpayable",
      "type": "function"
    },
    {
      "inputs": [
        {
          "internalType": "address",
          "name": "account",
          "type": "address"
        },
        {
          "internalType": "uint256",
          "name": "index",
          "type": "uint256"
        },
        {
          "internalType": "uint256",
          "name": "amount",
          "type": "uint256"
        }
      ],
      "name": "StakingDataSub",
      "outputs": [],
      "stateMutability": "nonpayable",
      "type": "function"
    },
    {
      "inputs": [
        {
          "internalType": "address",
          "name": "account",
          "type": "address"
        }
      ],
      "name": "DeleteStakesData",
      "outputs": [],
      "stateMutability": "nonpayable",
      "type": "function"
    },
    {
      "inputs": [
        {
          "internalType": "address",
          "name": "account",
          "type": "address"
        }
      ],
      "name": "PopStakesData",
      "outputs": [],
      "stateMutability": "nonpayable",
      "type": "function"
    },
    {
      "inputs": [
        {
          "internalType": "uint256",
          "name": "staketime",
          "type": "uint256"
        },
        {
          "internalType": "uint256",
          "name": "amount",
          "type": "uint256"
        }
      ],
      "name": "AddWeeksTotal",
      "outputs": [],
      "stateMutability": "nonpayable",
      "type": "function"
    },
    {
      "inputs": [
        {
          "internalType": "uint256",
          "name": "staketime",
          "type": "uint256"
        },
        {
          "internalType": "uint256",
          "name": "amount",
          "type": "uint256"
        }
      ],
      "name": "SubWeeksTotal",
      "outputs": [],
      "stateMutability": "nonpayable",
      "type": "function"
    },
    {
      "inputs": [
        {
          "internalType": "uint256",
          "name": "_weekRewardAmount",
          "type": "uint256"
        }
      ],
      "name": "setWeekRewardAmount",
      "outputs": [],
      "stateMutability": "nonpayable",
      "type": "function"
    },
    {
      "inputs": [
        {
          "internalType": "uint256",
          "name": "_stakingStartTime",
          "type": "uint256"
        },
        {
          "internalType": "uint256",
          "name": "_stakingEndTime",
          "type": "uint256"
        }
      ],
      "name": "setStakingPeriod",
      "outputs": [],
      "stateMutability": "nonpayable",
      "type": "function"
    }
  ],
  "bytecode": "0x6080604052635f631780600555635faceb8060065560086007556a0f8277896582678ac0000060085534801561003457600080fd5b506040516125c43803806125c48339818101604052604081101561005757600080fd5b81019080805190602001909291908051906020019092919050505081600073ffffffffffffffffffffffffffffffffffffffff168173ffffffffffffffffffffffffffffffffffffffff161415610116576040517f08c379a00000000000000000000000000000000000000000000000000000000081526004018080602001828103825260198152602001807f61646d696e20616464726573732063616e6e6f7420626520300000000000000081525060200191505060405180910390fd5b806000806101000a81548173ffffffffffffffffffffffffffffffffffffffff021916908373ffffffffffffffffffffffffffffffffffffffff1602179055507f7e644d79422f17c01e4894b5f4f588d331ebfa28653d42ae832dc59e38c9798f600082604051808373ffffffffffffffffffffffffffffffffffffffff1681526020018273ffffffffffffffffffffffffffffffffffffffff1681526020019250505060405180910390a15080600260006101000a81548173ffffffffffffffffffffffffffffffffffffffff021916908373ffffffffffffffffffffffffffffffffffffffff16021790555050506123af806102156000396000f3fe608060405234801561001057600080fd5b50600436106101c45760003560e01c80636abfd183116100f9578063b331714111610097578063fa732cc311610071578063fa732cc314610772578063fc13945114610790578063fe042f08146107e8578063fff9413c14610820576101c4565b8063b3317141146106ae578063d0755e88146106e6578063f851a4401461073e576101c4565b806381268c1b116100d357806381268c1b146106345780638ac334871461066857806398bd05d0146106865780639af9c59214610690576101c4565b80636abfd183146105795780636c8381f8146105975780637ee7b56a146105cb576101c4565b8063419894d411610166578063506a22e111610140578063506a22e114610448578063518bb20e146104a757806362e3efdd146104df5780636646a03514610537576101c4565b8063419894d41461038e57806342e10bc6146103ac57806344bc7da2146103f0576101c4565b806319129e5a116101a257806319129e5a14610293578063226cca73146102d757806325971dff146103405780632d185d841461034a576101c4565b8063016cda9a146101c957806307880b7f146101f75780630cf112661461023b575b600080fd5b6101f5600480360360208110156101df57600080fd5b810190808035906020019092919050505061082a565b005b6102396004803603602081101561020d57600080fd5b81019080803573ffffffffffffffffffffffffffffffffffffffff1690602001909291905050506108d8565b005b6102916004803603606081101561025157600080fd5b81019080803573ffffffffffffffffffffffffffffffffffffffff1690602001909291908035906020019092919080359060200190929190505050610a75565b005b6102d5600480360360208110156102a957600080fd5b81019080803573ffffffffffffffffffffffffffffffffffffffff169060200190929190505050610ca7565b005b610323600480360360408110156102ed57600080fd5b81019080803573ffffffffffffffffffffffffffffffffffffffff16906020019092919080359060200190929190505050610d8f565b604051808381526020018281526020019250505060405180910390f35b610348610dcd565b005b61038c6004803603602081101561036057600080fd5b81019080803573ffffffffffffffffffffffffffffffffffffffff169060200190929190505050610fa6565b005b610396611154565b6040518082815260200191505060405180910390f35b6103ee600480360360208110156103c257600080fd5b81019080803573ffffffffffffffffffffffffffffffffffffffff169060200190929190505050611178565b005b6104466004803603606081101561040657600080fd5b81019080803573ffffffffffffffffffffffffffffffffffffffff169060200190929190803590602001909291908035906020019092919050505061134c565b005b610450611550565b6040518080602001828103825283818151815260200191508051906020019060200280838360005b83811015610493578082015181840152602081019050610478565b505050509050019250505060405180910390f35b6104dd600480360360408110156104bd57600080fd5b810190808035906020019092919080359060200190929190505050611642565b005b610521600480360360208110156104f557600080fd5b81019080803573ffffffffffffffffffffffffffffffffffffffff169060200190929190505050611774565b6040518082815260200191505060405180910390f35b6105636004803603602081101561054d57600080fd5b8101908080359060200190929190505050611878565b6040518082815260200191505060405180910390f35b610581611890565b6040518082815260200191505060405180910390f35b61059f611896565b604051808273ffffffffffffffffffffffffffffffffffffffff16815260200191505060405180910390f35b610617600480360360408110156105e157600080fd5b81019080803573ffffffffffffffffffffffffffffffffffffffff169060200190929190803590602001909291905050506118bc565b604051808381526020018281526020019250505060405180910390f35b61063c611982565b604051808273ffffffffffffffffffffffffffffffffffffffff16815260200191505060405180910390f35b6106706119a8565b6040518082815260200191505060405180910390f35b61068e6119ae565b005b610698611a27565b6040518082815260200191505060405180910390f35b6106e4600480360360408110156106c457600080fd5b810190808035906020019092919080359060200190929190505050611a2d565b005b61073c600480360360608110156106fc57600080fd5b81019080803573ffffffffffffffffffffffffffffffffffffffff1690602001909291908035906020019092919080359060200190929190505050611bf4565b005b610746611e26565b604051808273ffffffffffffffffffffffffffffffffffffffff16815260200191505060405180910390f35b61077a611e4a565b6040518082815260200191505060405180910390f35b6107d2600480360360208110156107a657600080fd5b81019080803573ffffffffffffffffffffffffffffffffffffffff169060200190929190505050611e50565b6040518082815260200191505060405180910390f35b61081e600480360360408110156107fe57600080fd5b810190808035906020019092919080359060200190929190505050611e9c565b005b610828612063565b005b60008054906101000a900473ffffffffffffffffffffffffffffffffffffffff1673ffffffffffffffffffffffffffffffffffffffff163373ffffffffffffffffffffffffffffffffffffffff16146108ce576040517f08c379a000000000000000000000000000000000000000000000000000000000815260040180806020018281038252602f81526020018061234b602f913960400191505060405180910390fd5b8060088190555050565b60008054906101000a900473ffffffffffffffffffffffffffffffffffffffff1673ffffffffffffffffffffffffffffffffffffffff163373ffffffffffffffffffffffffffffffffffffffff161461097c576040517f08c379a000000000000000000000000000000000000000000000000000000000815260040180806020018281038252602f81526020018061234b602f913960400191505060405180910390fd5b6000600160009054906101000a900473ffffffffffffffffffffffffffffffffffffffff16905081600160006101000a81548173ffffffffffffffffffffffffffffffffffffffff021916908373ffffffffffffffffffffffffffffffffffffffff1602179055507f0faed18be9e8f4d4c05dfbcc80ea2c97a0be729614d766827778f60890c02cab81600160009054906101000a900473ffffffffffffffffffffffffffffffffffffffff16604051808373ffffffffffffffffffffffffffffffffffffffff1681526020018273ffffffffffffffffffffffffffffffffffffffff1681526020019250505060405180910390a15050565b33600260009054906101000a900473ffffffffffffffffffffffffffffffffffffffff1673ffffffffffffffffffffffffffffffffffffffff166391d148547f4c696e6561725374616b696e6753746f72616765000000000000000000000000836040518363ffffffff1660e01b8152600401808381526020018273ffffffffffffffffffffffffffffffffffffffff1681526020019250505060206040518083038186803b158015610b2757600080fd5b505afa158015610b3b573d6000803e3d6000fd5b505050506040513d6020811015610b5157600080fd5b8101908080519060200190929190505050610bd4576040517f08c379a00000000000000000000000000000000000000000000000000000000081526004018080602001828103825260208152602001807f4f6e6c79204c696e656172205374616b696e672053746f7261676520526f6c6581525060200191505060405180910390fd5b610c4282600360008773ffffffffffffffffffffffffffffffffffffffff1673ffffffffffffffffffffffffffffffffffffffff1681526020019081526020016000208581548110610c2257fe5b90600052602060002090600202016000015461215390919063ffffffff16565b600360008673ffffffffffffffffffffffffffffffffffffffff1673ffffffffffffffffffffffffffffffffffffffff1681526020019081526020016000208481548110610c8c57fe5b90600052602060002090600202016000018190555050505050565b60008054906101000a900473ffffffffffffffffffffffffffffffffffffffff1673ffffffffffffffffffffffffffffffffffffffff163373ffffffffffffffffffffffffffffffffffffffff1614610d4b576040517f08c379a000000000000000000000000000000000000000000000000000000000815260040180806020018281038252602f81526020018061234b602f913960400191505060405180910390fd5b80600260006101000a81548173ffffffffffffffffffffffffffffffffffffffff021916908373ffffffffffffffffffffffffffffffffffffffff16021790555050565b60036020528160005260406000208181548110610da857fe5b9060005260206000209060020201600091509150508060000154908060010154905082565b600160009054906101000a900473ffffffffffffffffffffffffffffffffffffffff1673ffffffffffffffffffffffffffffffffffffffff163373ffffffffffffffffffffffffffffffffffffffff1614610e90576040517f08c379a000000000000000000000000000000000000000000000000000000000815260040180806020018281038252601f8152602001807f4f6e6c792063616e6469646174652063616e206265636f6d652061646d696e0081525060200191505060405180910390fd5b60008060009054906101000a900473ffffffffffffffffffffffffffffffffffffffff169050600160009054906101000a900473ffffffffffffffffffffffffffffffffffffffff166000806101000a81548173ffffffffffffffffffffffffffffffffffffffff021916908373ffffffffffffffffffffffffffffffffffffffff1602179055507f7e644d79422f17c01e4894b5f4f588d331ebfa28653d42ae832dc59e38c9798f8160008054906101000a900473ffffffffffffffffffffffffffffffffffffffff16604051808373ffffffffffffffffffffffffffffffffffffffff1681526020018273ffffffffffffffffffffffffffffffffffffffff1681526020019250505060405180910390a150565b33600260009054906101000a900473ffffffffffffffffffffffffffffffffffffffff1673ffffffffffffffffffffffffffffffffffffffff166391d148547f4c696e6561725374616b696e6753746f72616765000000000000000000000000836040518363ffffffff1660e01b8152600401808381526020018273ffffffffffffffffffffffffffffffffffffffff1681526020019250505060206040518083038186803b15801561105857600080fd5b505afa15801561106c573d6000803e3d6000fd5b505050506040513d602081101561108257600080fd5b8101908080519060200190929190505050611105576040517f08c379a00000000000000000000000000000000000000000000000000000000081526004018080602001828103825260208152602001807f4f6e6c79204c696e656172205374616b696e672053746f7261676520526f6c6581525060200191505060405180910390fd5b600360008373ffffffffffffffffffffffffffffffffffffffff1673ffffffffffffffffffffffffffffffffffffffff168152602001908152602001600020600061115091906122e5565b5050565b7f4c696e6561725374616b696e6753746f7261676500000000000000000000000081565b33600260009054906101000a900473ffffffffffffffffffffffffffffffffffffffff1673ffffffffffffffffffffffffffffffffffffffff166391d148547f4c696e6561725374616b696e6753746f72616765000000000000000000000000836040518363ffffffff1660e01b8152600401808381526020018273ffffffffffffffffffffffffffffffffffffffff1681526020019250505060206040518083038186803b15801561122a57600080fd5b505afa15801561123e573d6000803e3d6000fd5b505050506040513d602081101561125457600080fd5b81019080805190602001909291905050506112d7576040517f08c379a00000000000000000000000000000000000000000000000000000000081526004018080602001828103825260208152602001807f4f6e6c79204c696e656172205374616b696e672053746f7261676520526f6c6581525060200191505060405180910390fd5b600360008373ffffffffffffffffffffffffffffffffffffffff1673ffffffffffffffffffffffffffffffffffffffff16815260200190815260200160002080548061131f57fe5b60019003818190600052602060002090600202016000808201600090556001820160009055505090555050565b33600260009054906101000a900473ffffffffffffffffffffffffffffffffffffffff1673ffffffffffffffffffffffffffffffffffffffff166391d148547f4c696e6561725374616b696e6753746f72616765000000000000000000000000836040518363ffffffff1660e01b8152600401808381526020018273ffffffffffffffffffffffffffffffffffffffff1681526020019250505060206040518083038186803b1580156113fe57600080fd5b505afa158015611412573d6000803e3d6000fd5b505050506040513d602081101561142857600080fd5b81019080805190602001909291905050506114ab576040517f08c379a00000000000000000000000000000000000000000000000000000000081526004018080602001828103825260208152602001807f4f6e6c79204c696e656172205374616b696e672053746f7261676520526f6c6581525060200191505060405180910390fd5b6114b3612309565b6040518060400160405280858152602001848152509050600360008673ffffffffffffffffffffffffffffffffffffffff1673ffffffffffffffffffffffffffffffffffffffff168152602001908152602001600020819080600181540180825580915050600190039060005260206000209060020201600090919091909150600082015181600001556020820151816001015550505050505050565b60608060075467ffffffffffffffff8111801561156c57600080fd5b5060405190808252806020026020018201604052801561159b5781602001602082028036833780820191505090505b50905060005b60075481101561163a5760006004600083815260200190815260200160002054905060008214156115ea57808383815181106115d957fe5b60200260200101818152505061162c565b611613818460018503815181106115fd57fe5b602002602001015161219d90919063ffffffff16565b83838151811061161f57fe5b6020026020010181815250505b5080806001019150506115a1565b508091505090565b60008054906101000a900473ffffffffffffffffffffffffffffffffffffffff1673ffffffffffffffffffffffffffffffffffffffff163373ffffffffffffffffffffffffffffffffffffffff16146116e6576040517f08c379a000000000000000000000000000000000000000000000000000000000815260040180806020018281038252602f81526020018061234b602f913960400191505060405180910390fd5b8181116116f257600080fd5b816005819055508060068190555062093a8061171b60055460065461215390919063ffffffff16565b8161172257fe5b04600781905550600062093a8061174660055460065461215390919063ffffffff16565b8161174d57fe5b061461177057611769600160075461219d90919063ffffffff16565b6007819055505b5050565b600080600090506060600360008573ffffffffffffffffffffffffffffffffffffffff1673ffffffffffffffffffffffffffffffffffffffff168152602001908152602001600020805480602002602001604051908101604052809291908181526020016000905b82821015611822578382906000526020600020906002020160405180604001604052908160008201548152602001600182015481525050815260200190600101906117dc565b50505050905060005b815181101561186d5761185e82828151811061184357fe5b6020026020010151600001518461219d90919063ffffffff16565b9250808060010191505061182b565b508192505050919050565b60046020528060005260406000206000915090505481565b60055481565b600160009054906101000a900473ffffffffffffffffffffffffffffffffffffffff1681565b600080600360008573ffffffffffffffffffffffffffffffffffffffff1673ffffffffffffffffffffffffffffffffffffffff168152602001908152602001600020838154811061190957fe5b906000526020600020906002020160000154600360008673ffffffffffffffffffffffffffffffffffffffff1673ffffffffffffffffffffffffffffffffffffffff168152602001908152602001600020848154811061196557fe5b906000526020600020906002020160010154915091509250929050565b600260009054906101000a900473ffffffffffffffffffffffffffffffffffffffff1681565b60065481565b6006544211611a25576040517f08c379a00000000000000000000000000000000000000000000000000000000081526004018080602001828103825260188152602001807f4e656564207761697420746f207374616b696e6720656e64000000000000000081525060200191505060405180910390fd5b565b60075481565b33600260009054906101000a900473ffffffffffffffffffffffffffffffffffffffff1673ffffffffffffffffffffffffffffffffffffffff166391d148547f4c696e6561725374616b696e6753746f72616765000000000000000000000000836040518363ffffffff1660e01b8152600401808381526020018273ffffffffffffffffffffffffffffffffffffffff1681526020019250505060206040518083038186803b158015611adf57600080fd5b505afa158015611af3573d6000803e3d6000fd5b505050506040513d6020811015611b0957600080fd5b8101908080519060200190929190505050611b8c576040517f08c379a00000000000000000000000000000000000000000000000000000000081526004018080602001828103825260208152602001807f4f6e6c79204c696e656172205374616b696e672053746f7261676520526f6c6581525060200191505060405180910390fd5b600062093a80611ba76005548661215390919063ffffffff16565b81611bae57fe5b049050611bd783600460008481526020019081526020016000205461215390919063ffffffff16565b600460008381526020019081526020016000208190555050505050565b33600260009054906101000a900473ffffffffffffffffffffffffffffffffffffffff1673ffffffffffffffffffffffffffffffffffffffff166391d148547f4c696e6561725374616b696e6753746f72616765000000000000000000000000836040518363ffffffff1660e01b8152600401808381526020018273ffffffffffffffffffffffffffffffffffffffff1681526020019250505060206040518083038186803b158015611ca657600080fd5b505afa158015611cba573d6000803e3d6000fd5b505050506040513d6020811015611cd057600080fd5b8101908080519060200190929190505050611d53576040517f08c379a00000000000000000000000000000000000000000000000000000000081526004018080602001828103825260208152602001807f4f6e6c79204c696e656172205374616b696e672053746f7261676520526f6c6581525060200191505060405180910390fd5b611dc182600360008773ffffffffffffffffffffffffffffffffffffffff1673ffffffffffffffffffffffffffffffffffffffff1681526020019081526020016000208581548110611da157fe5b90600052602060002090600202016000015461219d90919063ffffffff16565b600360008673ffffffffffffffffffffffffffffffffffffffff1673ffffffffffffffffffffffffffffffffffffffff1681526020019081526020016000208481548110611e0b57fe5b90600052602060002090600202016000018190555050505050565b60008054906101000a900473ffffffffffffffffffffffffffffffffffffffff1681565b60085481565b6000600360008373ffffffffffffffffffffffffffffffffffffffff1673ffffffffffffffffffffffffffffffffffffffff168152602001908152602001600020805490509050919050565b33600260009054906101000a900473ffffffffffffffffffffffffffffffffffffffff1673ffffffffffffffffffffffffffffffffffffffff166391d148547f4c696e6561725374616b696e6753746f72616765000000000000000000000000836040518363ffffffff1660e01b8152600401808381526020018273ffffffffffffffffffffffffffffffffffffffff1681526020019250505060206040518083038186803b158015611f4e57600080fd5b505afa158015611f62573d6000803e3d6000fd5b505050506040513d6020811015611f7857600080fd5b8101908080519060200190929190505050611ffb576040517f08c379a00000000000000000000000000000000000000000000000000000000081526004018080602001828103825260208152602001807f4f6e6c79204c696e656172205374616b696e672053746f7261676520526f6c6581525060200191505060405180910390fd5b600062093a806120166005548661215390919063ffffffff16565b8161201d57fe5b04905061204683600460008481526020019081526020016000205461219d90919063ffffffff16565b600460008381526020019081526020016000208190555050505050565b42600554106120da576040517f08c379a00000000000000000000000000000000000000000000000000000000081526004018080602001828103825260118152602001807f5374616b696e67206e6f7420737461727400000000000000000000000000000081525060200191505060405180910390fd5b6006544210612151576040517f08c379a00000000000000000000000000000000000000000000000000000000081526004018080602001828103825260168152602001807f5374616b696e672073746167652068617320656e642e0000000000000000000081525060200191505060405180910390fd5b565b600061219583836040518060400160405280601e81526020017f536166654d6174683a207375627472616374696f6e206f766572666c6f770000815250612225565b905092915050565b60008082840190508381101561221b576040517f08c379a000000000000000000000000000000000000000000000000000000000815260040180806020018281038252601b8152602001807f536166654d6174683a206164646974696f6e206f766572666c6f77000000000081525060200191505060405180910390fd5b8091505092915050565b60008383111582906122d2576040517f08c379a00000000000000000000000000000000000000000000000000000000081526004018080602001828103825283818151815260200191508051906020019080838360005b8381101561229757808201518184015260208101905061227c565b50505050905090810190601f1680156122c45780820380516001836020036101000a031916815260200191505b509250505060405180910390fd5b5060008385039050809150509392505050565b50805460008255600202906000526020600020908101906123069190612323565b50565b604051806040016040528060008152602001600081525090565b5b8082111561234657600080820160009055600182016000905550600201612324565b509056fe4f6e6c792074686520636f6e74726163742061646d696e2063616e20706572666f726d207468697320616374696f6ea2646970667358221220e5db7b19231b1d0919e54abe6b947ca00e5c758ca02212427bc23a2c0a32f90264736f6c634300060c0033",
  "immutableReferences": {},
  "source": "// SPDX-License-Identifier: MIT\r\npragma solidity ^0.6.12;\r\n\r\nimport \"./IERC20.sol\";\r\nimport \"./LnAdmin.sol\";\r\nimport \"./LnOperatorModifier.sol\";\r\nimport \"@openzeppelin/contracts/math/SafeMath.sol\";\r\nimport \"@openzeppelin/contracts/utils/Pausable.sol\";\r\nimport \"./LnAccessControl.sol\";\r\n\r\ninterface ILinearStaking {\r\n    function staking(uint256 amount) external returns (bool);\r\n    function cancelStaking(uint256 amount) external returns (bool);\r\n    function claim() external returns (bool);\r\n    function stakingBalanceOf(address account) external view returns(uint256);\r\n}\r\n\r\ncontract LnLinearStakingStorage is LnAdmin {\r\n    using SafeMath for uint256;\r\n\r\n    LnAccessControl public accessCtrl;\r\n\r\n    bytes32 public constant DATA_ACCESS_ROLE = \"LinearStakingStorage\";\r\n\r\n    struct StakingData {\r\n        uint256 amount;\r\n        uint256 staketime;\r\n    }\r\n\r\n    mapping (address => StakingData[]) public stakesdata;\r\n    mapping (uint256 => uint256) public weeksTotal; // week staking amount\r\n\r\n    uint256 public stakingStartTime = 1600329600; // TODO: UTC or UTC+8\r\n    uint256 public stakingEndTime = 1605168000;\r\n    uint256 public totalWeekNumber = 8;\r\n    uint256 public weekRewardAmount = 18750000e18;\r\n\r\n    constructor(address _admin, address _accessCtrl) public LnAdmin(_admin) {\r\n        accessCtrl = LnAccessControl(_accessCtrl);\r\n    }\r\n\r\n    modifier OnlyLinearStakingStorageRole(address _address) {\r\n        require(accessCtrl.hasRole(DATA_ACCESS_ROLE, _address), \"Only Linear Staking Storage Role\");\r\n        _;\r\n    }\r\n\r\n    function setAccessControl(address _accessCtrl) external onlyAdmin {\r\n        accessCtrl = LnAccessControl(_accessCtrl);\r\n    }\r\n\r\n    function weekTotalStaking() public view returns (uint256[] memory) {\r\n        uint256[] memory totals = new uint256[](totalWeekNumber);\r\n        for (uint256 i=0; i< totalWeekNumber; i++) {\r\n            uint256 delta = weeksTotal[i];\r\n            if (i == 0) {\r\n                totals[i] = delta;\r\n            } else {\r\n                \r\n                totals[i] = totals[i-1].add(delta);\r\n            }\r\n        }\r\n        return totals;\r\n    }\r\n\r\n    function getStakesdataLength(address account) external view returns(uint256) {\r\n        return stakesdata[account].length;\r\n    }\r\n\r\n    function getStakesDataByIndex(address account, uint256 index) external view returns(uint256, uint256) {\r\n        return (stakesdata[account][index].amount, stakesdata[account][index].staketime);\r\n    }\r\n\r\n    function stakingBalanceOf(address account) external view returns(uint256) {\r\n        uint256 total = 0;\r\n        StakingData[] memory stakes = stakesdata[account];\r\n        for (uint256 i=0; i < stakes.length; i++) {\r\n            total = total.add(stakes[i].amount);\r\n        }\r\n        return total;\r\n    }\r\n\r\n    function requireInStakingPeriod() external view {\r\n        require(stakingStartTime < block.timestamp, \"Staking not start\");\r\n        require(block.timestamp < stakingEndTime, \"Staking stage has end.\");\r\n    }\r\n\r\n    function requireStakingEnd() external view {\r\n        require(block.timestamp > stakingEndTime, \"Need wait to staking end\");\r\n    }\r\n\r\n    function PushStakingData(address account, uint256 amount, uint256 staketime) external OnlyLinearStakingStorageRole(msg.sender) {\r\n        LnLinearStakingStorage.StakingData memory data = LnLinearStakingStorage.StakingData({\r\n            amount: amount,\r\n            staketime: staketime\r\n        });\r\n        stakesdata[account].push(data);\r\n    }\r\n\r\n    function StakingDataAdd(address account, uint256 index, uint256 amount) external OnlyLinearStakingStorageRole(msg.sender) {\r\n        stakesdata[account][index].amount = stakesdata[account][index].amount.add(amount);\r\n    }\r\n\r\n    function StakingDataSub(address account, uint256 index, uint256 amount) external OnlyLinearStakingStorageRole(msg.sender) {\r\n        stakesdata[account][index].amount = stakesdata[account][index].amount.sub(amount);\r\n    }\r\n\r\n    function DeleteStakesData(address account) external OnlyLinearStakingStorageRole(msg.sender) {\r\n        delete stakesdata[account];\r\n    }\r\n\r\n    function PopStakesData(address account) external OnlyLinearStakingStorageRole(msg.sender) {\r\n        stakesdata[account].pop();\r\n    }\r\n\r\n    function AddWeeksTotal(uint256 staketime, uint256 amount) external OnlyLinearStakingStorageRole(msg.sender) {\r\n        uint256 weekNumber = staketime.sub(stakingStartTime) / 1 weeks;\r\n        weeksTotal[weekNumber] = weeksTotal[weekNumber].add(amount);\r\n    }\r\n\r\n    function SubWeeksTotal(uint256 staketime, uint256 amount) external OnlyLinearStakingStorageRole(msg.sender) {\r\n        uint256 weekNumber = staketime.sub(stakingStartTime) / 1 weeks;\r\n        weeksTotal[weekNumber] = weeksTotal[weekNumber].sub(amount);\r\n    }\r\n\r\n    function setWeekRewardAmount(uint256 _weekRewardAmount) external onlyAdmin {\r\n        weekRewardAmount = _weekRewardAmount;\r\n    }\r\n\r\n    function setStakingPeriod(uint _stakingStartTime, uint _stakingEndTime) external onlyAdmin {\r\n        require(_stakingEndTime > _stakingStartTime);\r\n\r\n        stakingStartTime = _stakingStartTime;\r\n        stakingEndTime = _stakingEndTime;\r\n\r\n        totalWeekNumber = stakingEndTime.sub(stakingStartTime) / 1 weeks;\r\n        if (stakingEndTime.sub(stakingStartTime) % 1 weeks != 0) {\r\n            totalWeekNumber = totalWeekNumber.add(1);\r\n        }\r\n    }\r\n}\r\n\r\ncontract LnLinearStaking is LnAdmin, Pausable, ILinearStaking {\r\n    using SafeMath for uint256;\r\n\r\n    IERC20 public linaToken; // lina token proxy address\r\n    LnLinearStakingStorage public stakingStorage;\r\n    \r\n    constructor(\r\n        address _admin,\r\n        address _linaToken,\r\n        address _storage\r\n    ) public LnAdmin(_admin) {\r\n        linaToken = IERC20(_linaToken);\r\n        stakingStorage = LnLinearStakingStorage(_storage);\r\n    }\r\n\r\n    function setLinaToken(address _linaToken) external onlyAdmin {\r\n        linaToken = IERC20(_linaToken);\r\n    }\r\n\r\n    function setPaused(bool _paused) external onlyAdmin {\r\n        if (_paused) {\r\n            _pause();\r\n        } else {\r\n            _unpause();\r\n        }\r\n    }\r\n\r\n    //////////////////////////////////////////////////////\r\n    event Staking(address indexed who, uint256 value, uint staketime);\r\n    event CancelStaking(address indexed who, uint256 value);\r\n    event Claim(address indexed who, uint256 rewardval, uint256 totalStaking);\r\n\r\n    uint256 public accountStakingListLimit = 50;\r\n    uint256 public minStakingAmount = 1e18; // 1 token\r\n    uint256 public constant PRECISION_UINT = 1e23;\r\n\r\n    function setLinaTokenAddress(address _token) external onlyAdmin {\r\n        linaToken = IERC20(_token);\r\n    }\r\n\r\n    function setStakingListLimit(uint256 _limit) external onlyAdmin {\r\n        accountStakingListLimit = _limit;\r\n    }\r\n\r\n    function setMinStakingAmount(uint256 _minStakingAmount) external onlyAdmin {\r\n        minStakingAmount = _minStakingAmount;\r\n    }\r\n\r\n    function stakingBalanceOf(address account) external override view returns(uint256) {\r\n        return stakingStorage.stakingBalanceOf(account);\r\n    }\r\n\r\n    function getStakesdataLength(address account) external view returns(uint256) {\r\n        return stakingStorage.getStakesdataLength(account);\r\n    }\r\n    //--------------------------------------------------------\r\n\r\n    function staking(uint256 amount) public whenNotPaused override returns (bool) {\r\n        stakingStorage.requireInStakingPeriod();\r\n\r\n        require(amount >= minStakingAmount, \"Staking amount too small.\");\r\n        require(stakingStorage.getStakesdataLength(msg.sender) < accountStakingListLimit, \"Staking list out of limit.\");\r\n\r\n        //linaToken.burn(msg.sender, amount);\r\n        linaToken.transferFrom(msg.sender, address(this), amount);\r\n     \r\n        stakingStorage.PushStakingData(msg.sender, amount, block.timestamp);\r\n        stakingStorage.AddWeeksTotal(block.timestamp, amount);\r\n\r\n        emit Staking(msg.sender, amount, block.timestamp);\r\n        return true;\r\n    }\r\n\r\n    function cancelStaking(uint256 amount) public whenNotPaused override returns (bool) {\r\n        stakingStorage.requireInStakingPeriod();\r\n\r\n        require(amount > 0, \"Invalid amount.\");\r\n\r\n        uint256 returnToken = amount;\r\n        for (uint256 i = stakingStorage.getStakesdataLength(msg.sender); i >= 1 ; i--) {\r\n            (uint256 stakingAmount, uint256 staketime) = stakingStorage.getStakesDataByIndex(msg.sender, i-1);\r\n            if (amount >= stakingAmount) {\r\n                amount = amount.sub(stakingAmount);\r\n                \r\n                stakingStorage.PopStakesData(msg.sender);\r\n                stakingStorage.SubWeeksTotal(staketime, stakingAmount);\r\n            } else {\r\n                stakingStorage.StakingDataSub(msg.sender, i-1, amount);\r\n                stakingStorage.SubWeeksTotal(staketime, amount);\r\n\r\n                amount = 0;\r\n            }\r\n            if (amount == 0) break;\r\n        }\r\n        require(amount == 0, \"Cancel amount too big then staked.\");\r\n\r\n        //linaToken.mint(msg.sender, returnToken);\r\n        linaToken.transfer(msg.sender, returnToken);\r\n\r\n        emit CancelStaking(msg.sender, returnToken);\r\n\r\n        return true;\r\n    }\r\n\r\n    // claim reward\r\n    // Note: token\r\n    function claim() public whenNotPaused override returns (bool) {\r\n        stakingStorage.requireStakingEnd();\r\n\r\n        require(stakingStorage.getStakesdataLength(msg.sender) > 0, \"Nothing to claim\");\r\n\r\n        uint256 totalWeekNumber = stakingStorage.totalWeekNumber();\r\n\r\n        uint256 totalStaking = 0;\r\n        uint256 totalReward = 0;\r\n\r\n        uint256[] memory finalTotals = stakingStorage.weekTotalStaking();\r\n        for (uint256 i=0; i < stakingStorage.getStakesdataLength(msg.sender); i++) {\r\n            (uint256 stakingAmount, uint256 staketime) = stakingStorage.getStakesDataByIndex(msg.sender, i);\r\n            uint256 stakedWeedNumber = staketime.sub(stakingStorage.stakingStartTime()) / 1 weeks;\r\n\r\n            totalStaking = totalStaking.add(stakingAmount);\r\n            \r\n            uint256 reward = 0;\r\n            for (uint256 j=stakedWeedNumber; j < totalWeekNumber; j++) {\r\n                reward = reward.add( stakingAmount.mul(PRECISION_UINT).div(finalTotals[j]) ); //move .mul(weekRewardAmount) to next line.\r\n            }\r\n            reward = reward.mul(stakingStorage.weekRewardAmount()).div(PRECISION_UINT);\r\n\r\n            totalReward = totalReward.add( reward );\r\n        }\r\n\r\n        stakingStorage.DeleteStakesData(msg.sender);\r\n        \r\n        //linaToken.mint(msg.sender, totalStaking.add(totalReward) );\r\n        linaToken.transfer(msg.sender, totalStaking.add(totalReward) );\r\n\r\n        emit Claim(msg.sender, totalReward, totalStaking);\r\n        return true;\r\n    }\r\n}",
  "sourcePath": "/mnt/d/working/linearFinance/LinearFinanceToken/contracts/LnLinearStaking.sol",
  "compiler": {
    "name": "solc",
    "version": "0.6.12+commit.27d51765.Emscripten.clang"
  },
  "schemaVersion": "3.2.3",
  "updatedAt": "2020-09-18T08:32:57.950Z",
  "networkType": "ethereum",
  "devdoc": {
    "kind": "dev",
    "methods": {},
    "version": 1
  },
  "userdoc": {
    "kind": "user",
    "methods": {},
    "version": 1
  }
}