{
  "contractName": "LnProxyBase",
  "abi": [
    {
      "inputs": [
        {
          "internalType": "address",
          "name": "_admin",
          "type": "address"
        }
      ],
      "stateMutability": "nonpayable",
      "type": "constructor"
    },
    {
      "anonymous": false,
      "inputs": [
        {
          "indexed": false,
          "internalType": "address",
          "name": "oldAdmin",
          "type": "address"
        },
        {
          "indexed": false,
          "internalType": "address",
          "name": "newAdmin",
          "type": "address"
        }
      ],
      "name": "AdminChanged",
      "type": "event"
    },
    {
      "anonymous": false,
      "inputs": [
        {
          "indexed": false,
          "internalType": "contract LnProxyImpl",
          "name": "newTarget",
          "type": "address"
        }
      ],
      "name": "TargetUpdated",
      "type": "event"
    },
    {
      "anonymous": false,
      "inputs": [
        {
          "indexed": false,
          "internalType": "address",
          "name": "oldCandidate",
          "type": "address"
        },
        {
          "indexed": false,
          "internalType": "address",
          "name": "newCandidate",
          "type": "address"
        }
      ],
      "name": "candidateChanged",
      "type": "event"
    },
    {
      "inputs": [],
      "name": "admin",
      "outputs": [
        {
          "internalType": "address",
          "name": "",
          "type": "address"
        }
      ],
      "stateMutability": "view",
      "type": "function"
    },
    {
      "inputs": [],
      "name": "becomeAdmin",
      "outputs": [],
      "stateMutability": "nonpayable",
      "type": "function"
    },
    {
      "inputs": [],
      "name": "candidate",
      "outputs": [
        {
          "internalType": "address",
          "name": "",
          "type": "address"
        }
      ],
      "stateMutability": "view",
      "type": "function"
    },
    {
      "inputs": [
        {
          "internalType": "address",
          "name": "_candidate",
          "type": "address"
        }
      ],
      "name": "setCandidate",
      "outputs": [],
      "stateMutability": "nonpayable",
      "type": "function"
    },
    {
      "inputs": [],
      "name": "target",
      "outputs": [
        {
          "internalType": "contract LnProxyImpl",
          "name": "",
          "type": "address"
        }
      ],
      "stateMutability": "view",
      "type": "function"
    },
    {
      "stateMutability": "payable",
      "type": "receive"
    },
    {
      "inputs": [
        {
          "internalType": "contract LnProxyImpl",
          "name": "_target",
          "type": "address"
        }
      ],
      "name": "setTarget",
      "outputs": [],
      "stateMutability": "nonpayable",
      "type": "function"
    },
    {
      "inputs": [
        {
          "internalType": "bytes",
          "name": "callData",
          "type": "bytes"
        }
      ],
      "name": "Log0",
      "outputs": [],
      "stateMutability": "nonpayable",
      "type": "function"
    },
    {
      "inputs": [
        {
          "internalType": "bytes",
          "name": "callData",
          "type": "bytes"
        },
        {
          "internalType": "bytes32",
          "name": "topic1",
          "type": "bytes32"
        }
      ],
      "name": "Log1",
      "outputs": [],
      "stateMutability": "nonpayable",
      "type": "function"
    },
    {
      "inputs": [
        {
          "internalType": "bytes",
          "name": "callData",
          "type": "bytes"
        },
        {
          "internalType": "bytes32",
          "name": "topic1",
          "type": "bytes32"
        },
        {
          "internalType": "bytes32",
          "name": "topic2",
          "type": "bytes32"
        }
      ],
      "name": "Log2",
      "outputs": [],
      "stateMutability": "nonpayable",
      "type": "function"
    },
    {
      "inputs": [
        {
          "internalType": "bytes",
          "name": "callData",
          "type": "bytes"
        },
        {
          "internalType": "bytes32",
          "name": "topic1",
          "type": "bytes32"
        },
        {
          "internalType": "bytes32",
          "name": "topic2",
          "type": "bytes32"
        },
        {
          "internalType": "bytes32",
          "name": "topic3",
          "type": "bytes32"
        }
      ],
      "name": "Log3",
      "outputs": [],
      "stateMutability": "nonpayable",
      "type": "function"
    },
    {
      "inputs": [
        {
          "internalType": "bytes",
          "name": "callData",
          "type": "bytes"
        },
        {
          "internalType": "bytes32",
          "name": "topic1",
          "type": "bytes32"
        },
        {
          "internalType": "bytes32",
          "name": "topic2",
          "type": "bytes32"
        },
        {
          "internalType": "bytes32",
          "name": "topic3",
          "type": "bytes32"
        },
        {
          "internalType": "bytes32",
          "name": "topic4",
          "type": "bytes32"
        }
      ],
      "name": "Log4",
      "outputs": [],
      "stateMutability": "nonpayable",
      "type": "function"
    }
  ],
  "bytecode": "0x608060405234801561001057600080fd5b506040516112c93803806112c98339818101604052602081101561003357600080fd5b810190808051906020019092919050505080600073ffffffffffffffffffffffffffffffffffffffff168173ffffffffffffffffffffffffffffffffffffffff1614156100e8576040517f08c379a00000000000000000000000000000000000000000000000000000000081526004018080602001828103825260198152602001807f61646d696e20616464726573732063616e6e6f7420626520300000000000000081525060200191505060405180910390fd5b806000806101000a81548173ffffffffffffffffffffffffffffffffffffffff021916908373ffffffffffffffffffffffffffffffffffffffff1602179055507f7e644d79422f17c01e4894b5f4f588d331ebfa28653d42ae832dc59e38c9798f600082604051808373ffffffffffffffffffffffffffffffffffffffff1681526020018273ffffffffffffffffffffffffffffffffffffffff1681526020019250505060405180910390a15050611124806101a56000396000f3fe6080604052600436106100a05760003560e01c8063a0e0048811610064578063a0e00488146102f2578063a8f56ef214610382578063ced7bc7014610430578063d4b83992146104d4578063db3dce3f14610515578063f851a440146105af5761016d565b806307880b7f146101725780630ba25f7d146101c357806325971dff146102495780636c8381f814610260578063776d1a01146102a15761016d565b3661016d57600260009054906101000a900473ffffffffffffffffffffffffffffffffffffffff1673ffffffffffffffffffffffffffffffffffffffff1663bc67f832336040518263ffffffff1660e01b8152600401808273ffffffffffffffffffffffffffffffffffffffff168152602001915050600060405180830381600087803b15801561013057600080fd5b505af1158015610144573d6000803e3d6000fd5b5050505060405136600082376000803683346002545af13d6000833e80610169573d82fd5b3d82f35b600080fd5b34801561017e57600080fd5b506101c16004803603602081101561019557600080fd5b81019080803573ffffffffffffffffffffffffffffffffffffffff1690602001909291905050506105f0565b005b3480156101cf57600080fd5b50610247600480360360208110156101e657600080fd5b810190808035906020019064010000000081111561020357600080fd5b82018360208201111561021557600080fd5b8035906020019184600183028401116401000000008311171561023757600080fd5b909192939192939050505061078d565b005b34801561025557600080fd5b5061025e6108ad565b005b34801561026c57600080fd5b50610275610a86565b604051808273ffffffffffffffffffffffffffffffffffffffff16815260200191505060405180910390f35b3480156102ad57600080fd5b506102f0600480360360208110156102c457600080fd5b81019080803573ffffffffffffffffffffffffffffffffffffffff169060200190929190505050610aac565b005b3480156102fe57600080fd5b506103806004803603604081101561031557600080fd5b810190808035906020019064010000000081111561033257600080fd5b82018360208201111561034457600080fd5b8035906020019184600183028401116401000000008311171561036657600080fd5b909192939192939080359060200190929190505050610be1565b005b34801561038e57600080fd5b5061042e600480360360a08110156103a557600080fd5b81019080803590602001906401000000008111156103c257600080fd5b8201836020820111156103d457600080fd5b803590602001918460018302840111640100000000831117156103f657600080fd5b909192939192939080359060200190929190803590602001909291908035906020019092919080359060200190929190505050610d03565b005b34801561043c57600080fd5b506104d26004803603608081101561045357600080fd5b810190808035906020019064010000000081111561047057600080fd5b82018360208201111561048257600080fd5b803590602001918460018302840111640100000000831117156104a457600080fd5b9091929391929390803590602001909291908035906020019092919080359060200190929190505050610e2b565b005b3480156104e057600080fd5b506104e9610f51565b604051808273ffffffffffffffffffffffffffffffffffffffff16815260200191505060405180910390f35b34801561052157600080fd5b506105ad6004803603606081101561053857600080fd5b810190808035906020019064010000000081111561055557600080fd5b82018360208201111561056757600080fd5b8035906020019184600183028401116401000000008311171561058957600080fd5b90919293919293908035906020019092919080359060200190929190505050610f77565b005b3480156105bb57600080fd5b506105c461109b565b604051808273ffffffffffffffffffffffffffffffffffffffff16815260200191505060405180910390f35b60008054906101000a900473ffffffffffffffffffffffffffffffffffffffff1673ffffffffffffffffffffffffffffffffffffffff163373ffffffffffffffffffffffffffffffffffffffff1614610694576040517f08c379a000000000000000000000000000000000000000000000000000000000815260040180806020018281038252602f8152602001806110c0602f913960400191505060405180910390fd5b6000600160009054906101000a900473ffffffffffffffffffffffffffffffffffffffff16905081600160006101000a81548173ffffffffffffffffffffffffffffffffffffffff021916908373ffffffffffffffffffffffffffffffffffffffff1602179055507f0faed18be9e8f4d4c05dfbcc80ea2c97a0be729614d766827778f60890c02cab81600160009054906101000a900473ffffffffffffffffffffffffffffffffffffffff16604051808373ffffffffffffffffffffffffffffffffffffffff1681526020018273ffffffffffffffffffffffffffffffffffffffff1681526020019250505060405180910390a15050565b600260009054906101000a900473ffffffffffffffffffffffffffffffffffffffff1673ffffffffffffffffffffffffffffffffffffffff163373ffffffffffffffffffffffffffffffffffffffff1614610850576040517f08c379a00000000000000000000000000000000000000000000000000000000081526004018080602001828103825260148152602001807f4d7573742062652070726f78792074617267657400000000000000000000000081525060200191505060405180910390fd5b6000828290509050606083838080601f016020809104026020016040519081016040528093929190818152602001838380828437600081840152601f19601f8201169050808301925050505050505090508160208201a050505050565b600160009054906101000a900473ffffffffffffffffffffffffffffffffffffffff1673ffffffffffffffffffffffffffffffffffffffff163373ffffffffffffffffffffffffffffffffffffffff1614610970576040517f08c379a000000000000000000000000000000000000000000000000000000000815260040180806020018281038252601f8152602001807f4f6e6c792063616e6469646174652063616e206265636f6d652061646d696e0081525060200191505060405180910390fd5b60008060009054906101000a900473ffffffffffffffffffffffffffffffffffffffff169050600160009054906101000a900473ffffffffffffffffffffffffffffffffffffffff166000806101000a81548173ffffffffffffffffffffffffffffffffffffffff021916908373ffffffffffffffffffffffffffffffffffffffff1602179055507f7e644d79422f17c01e4894b5f4f588d331ebfa28653d42ae832dc59e38c9798f8160008054906101000a900473ffffffffffffffffffffffffffffffffffffffff16604051808373ffffffffffffffffffffffffffffffffffffffff1681526020018273ffffffffffffffffffffffffffffffffffffffff1681526020019250505060405180910390a150565b600160009054906101000a900473ffffffffffffffffffffffffffffffffffffffff1681565b60008054906101000a900473ffffffffffffffffffffffffffffffffffffffff1673ffffffffffffffffffffffffffffffffffffffff163373ffffffffffffffffffffffffffffffffffffffff1614610b50576040517f08c379a000000000000000000000000000000000000000000000000000000000815260040180806020018281038252602f8152602001806110c0602f913960400191505060405180910390fd5b80600260006101000a81548173ffffffffffffffffffffffffffffffffffffffff021916908373ffffffffffffffffffffffffffffffffffffffff1602179055507f814250a3b8c79fcbe2ead2c131c952a278491c8f4322a79fe84b5040a810373e81604051808273ffffffffffffffffffffffffffffffffffffffff16815260200191505060405180910390a150565b600260009054906101000a900473ffffffffffffffffffffffffffffffffffffffff1673ffffffffffffffffffffffffffffffffffffffff163373ffffffffffffffffffffffffffffffffffffffff1614610ca4576040517f08c379a00000000000000000000000000000000000000000000000000000000081526004018080602001828103825260148152602001807f4d7573742062652070726f78792074617267657400000000000000000000000081525060200191505060405180910390fd5b6000838390509050606084848080601f016020809104026020016040519081016040528093929190818152602001838380828437600081840152601f19601f820116905080830192505050505050509050828260208301a15050505050565b600260009054906101000a900473ffffffffffffffffffffffffffffffffffffffff1673ffffffffffffffffffffffffffffffffffffffff163373ffffffffffffffffffffffffffffffffffffffff1614610dc6576040517f08c379a00000000000000000000000000000000000000000000000000000000081526004018080602001828103825260148152602001807f4d7573742062652070726f78792074617267657400000000000000000000000081525060200191505060405180910390fd5b6000868690509050606087878080601f016020809104026020016040519081016040528093929190818152602001838380828437600081840152601f19601f820116905080830192505050505050509050828486888560208601a45050505050505050565b600260009054906101000a900473ffffffffffffffffffffffffffffffffffffffff1673ffffffffffffffffffffffffffffffffffffffff163373ffffffffffffffffffffffffffffffffffffffff1614610eee576040517f08c379a00000000000000000000000000000000000000000000000000000000081526004018080602001828103825260148152602001807f4d7573742062652070726f78792074617267657400000000000000000000000081525060200191505060405180910390fd5b6000858590509050606086868080601f016020809104026020016040519081016040528093929190818152602001838380828437600081840152601f19601f8201169050808301925050505050505090508284868460208501a350505050505050565b600260009054906101000a900473ffffffffffffffffffffffffffffffffffffffff1681565b600260009054906101000a900473ffffffffffffffffffffffffffffffffffffffff1673ffffffffffffffffffffffffffffffffffffffff163373ffffffffffffffffffffffffffffffffffffffff161461103a576040517f08c379a00000000000000000000000000000000000000000000000000000000081526004018080602001828103825260148152602001807f4d7573742062652070726f78792074617267657400000000000000000000000081525060200191505060405180910390fd5b6000848490509050606085858080601f016020809104026020016040519081016040528093929190818152602001838380828437600081840152601f19601f82011690508083019250505050505050905082848360208401a2505050505050565b60008054906101000a900473ffffffffffffffffffffffffffffffffffffffff168156fe4f6e6c792074686520636f6e74726163742061646d696e2063616e20706572666f726d207468697320616374696f6ea2646970667358221220be6cad17660fd618ee47ac929161555240f949a51590a14159017272794182b664736f6c634300060c0033",
  "immutableReferences": {},
  "source": "// SPDX-License-Identifier: MIT\r\npragma solidity ^0.6.12;\r\n\r\nimport \"./LnAdmin.sol\";\r\n\r\ncontract LnProxyBase is LnAdmin {\r\n    LnProxyImpl public target;\r\n\r\n    constructor(address _admin) public LnAdmin(_admin) {}\r\n\r\n    function setTarget(LnProxyImpl _target) external onlyAdmin {\r\n        target = _target;\r\n        emit TargetUpdated(_target);\r\n    }\r\n\r\n    function Log0( bytes calldata callData ) external onlyTarget {\r\n        uint size = callData.length;\r\n        bytes memory _callData = callData;\r\n        assembly {\r\n            log0(add(_callData, 32), size)\r\n        }\r\n    }\r\n\r\n    function Log1( bytes calldata callData, bytes32 topic1 ) external onlyTarget {\r\n        uint size = callData.length;\r\n        bytes memory _callData = callData;\r\n        assembly {\r\n            log1(add(_callData, 32), size, topic1 )\r\n        }\r\n    }\r\n\r\n    function Log2( bytes calldata callData, bytes32 topic1, bytes32 topic2 ) external onlyTarget {\r\n        uint size = callData.length;\r\n        bytes memory _callData = callData;\r\n        assembly {\r\n            log2(add(_callData, 32), size, topic1, topic2 )\r\n        }\r\n    }\r\n\r\n    function Log3( bytes calldata callData, bytes32 topic1, bytes32 topic2, bytes32 topic3 ) external onlyTarget {\r\n        uint size = callData.length;\r\n        bytes memory _callData = callData;\r\n        assembly {\r\n            log3(add(_callData, 32), size, topic1, topic2, topic3 )\r\n        }\r\n    }\r\n\r\n    function Log4( bytes calldata callData, bytes32 topic1, bytes32 topic2, bytes32 topic3, bytes32 topic4 ) external onlyTarget {\r\n        uint size = callData.length;\r\n        bytes memory _callData = callData;\r\n        assembly {\r\n            log4(add(_callData, 32), size, topic1, topic2, topic3, topic4 )\r\n        }\r\n    }\r\n\r\n    //receive: It is executed on a call to the contract with empty calldata. This is the function that is executed on plain Ether transfers (e.g. via .send() or .transfer()).\r\n    //fallback: can only rely on 2300 gas being available,\r\n    receive() external payable {\r\n        target.setMessageSender(msg.sender);\r\n\r\n        assembly {\r\n            let free_ptr := mload(0x40)\r\n            calldatacopy(free_ptr, 0, calldatasize())\r\n\r\n            let result := call(gas(), sload(target_slot), callvalue(), free_ptr, calldatasize(), 0, 0)\r\n            returndatacopy(free_ptr, 0, returndatasize())\r\n\r\n            if iszero(result) {\r\n                revert(free_ptr, returndatasize())\r\n            }\r\n            return(free_ptr, returndatasize())\r\n        }\r\n    }\r\n\r\n    modifier onlyTarget {\r\n        require(LnProxyImpl(msg.sender) == target, \"Must be proxy target\");\r\n        _;\r\n    }\r\n\r\n    event TargetUpdated(LnProxyImpl newTarget);\r\n}\r\n\r\n\r\nabstract contract LnProxyImpl is LnAdmin {\r\n    \r\n    LnProxyBase public proxy;\r\n    LnProxyBase public integrationProxy;\r\n\r\n    address public messageSender;\r\n\r\n    constructor(address payable _proxy) internal {\r\n        \r\n        require(admin != address(0), \"Admin must be set\");\r\n\r\n        proxy = LnProxyBase(_proxy);\r\n        emit ProxyUpdated(_proxy);\r\n    }\r\n\r\n    function setProxy(address payable _proxy) external onlyAdmin {\r\n        proxy = LnProxyBase(_proxy);\r\n        emit ProxyUpdated(_proxy);\r\n    }\r\n\r\n    function setIntegrationProxy(address payable _integrationProxy) external onlyAdmin {\r\n        integrationProxy = LnProxyBase(_integrationProxy);\r\n    }\r\n\r\n    function setMessageSender(address sender) external onlyProxy {\r\n        messageSender = sender;\r\n    }\r\n\r\n    modifier onlyProxy {\r\n        require(LnProxyBase(msg.sender) == proxy || LnProxyBase(msg.sender) == integrationProxy, \"Only the proxy can call\");\r\n        _;\r\n    }\r\n\r\n    modifier optionalProxy {\r\n        if (LnProxyBase(msg.sender) != proxy && LnProxyBase(msg.sender) != integrationProxy && messageSender != msg.sender) {\r\n            messageSender = msg.sender;\r\n        }\r\n        _;\r\n    }\r\n\r\n    modifier optionalProxy_onlyAdmin {\r\n        if (LnProxyBase(msg.sender) != proxy && LnProxyBase(msg.sender) != integrationProxy && messageSender != msg.sender) {\r\n            messageSender = msg.sender;\r\n        }\r\n        require(messageSender == admin, \"only for admin\");\r\n        _;\r\n    }\r\n\r\n    event ProxyUpdated(address proxyAddress);\r\n}\r\n\r\n",
  "sourcePath": "/mnt/d/working/linearFinance/LinearFinanceToken/contracts/LnProxyImpl.sol",
  "compiler": {
    "name": "solc",
    "version": "0.6.12+commit.27d51765.Emscripten.clang"
  },
  "schemaVersion": "3.2.3",
  "updatedAt": "2020-09-10T08:49:07.598Z",
  "devdoc": {
    "kind": "dev",
    "methods": {},
    "version": 1
  },
  "userdoc": {
    "kind": "user",
    "methods": {},
    "version": 1
  }
}