{
  "contractName": "LnRewardCalculatorTest",
  "abi": [
    {
      "inputs": [
        {
          "internalType": "uint256",
          "name": "_rewardPerBlock",
          "type": "uint256"
        },
        {
          "internalType": "uint256",
          "name": "_startBlock",
          "type": "uint256"
        }
      ],
      "stateMutability": "nonpayable",
      "type": "constructor"
    },
    {
      "inputs": [],
      "name": "accReward",
      "outputs": [
        {
          "internalType": "uint256",
          "name": "",
          "type": "uint256"
        }
      ],
      "stateMutability": "view",
      "type": "function"
    },
    {
      "inputs": [],
      "name": "amount",
      "outputs": [
        {
          "internalType": "uint256",
          "name": "",
          "type": "uint256"
        }
      ],
      "stateMutability": "view",
      "type": "function"
    },
    {
      "inputs": [
        {
          "internalType": "address",
          "name": "_user",
          "type": "address"
        }
      ],
      "name": "amountOf",
      "outputs": [
        {
          "internalType": "uint256",
          "name": "",
          "type": "uint256"
        }
      ],
      "stateMutability": "view",
      "type": "function"
    },
    {
      "inputs": [],
      "name": "getPoolInfo",
      "outputs": [
        {
          "internalType": "uint256",
          "name": "",
          "type": "uint256"
        },
        {
          "internalType": "uint256",
          "name": "",
          "type": "uint256"
        },
        {
          "internalType": "uint256",
          "name": "",
          "type": "uint256"
        }
      ],
      "stateMutability": "view",
      "type": "function"
    },
    {
      "inputs": [
        {
          "internalType": "address",
          "name": "_user",
          "type": "address"
        }
      ],
      "name": "getUserInfo",
      "outputs": [
        {
          "internalType": "uint256",
          "name": "",
          "type": "uint256"
        },
        {
          "internalType": "uint256",
          "name": "",
          "type": "uint256"
        },
        {
          "internalType": "uint256",
          "name": "",
          "type": "uint256"
        }
      ],
      "stateMutability": "view",
      "type": "function"
    },
    {
      "inputs": [],
      "name": "mPoolInfo",
      "outputs": [
        {
          "internalType": "uint256",
          "name": "amount",
          "type": "uint256"
        },
        {
          "internalType": "uint256",
          "name": "lastRewardBlock",
          "type": "uint256"
        },
        {
          "internalType": "uint256",
          "name": "accRewardPerShare",
          "type": "uint256"
        }
      ],
      "stateMutability": "view",
      "type": "function"
    },
    {
      "inputs": [],
      "name": "remainReward",
      "outputs": [
        {
          "internalType": "uint256",
          "name": "",
          "type": "uint256"
        }
      ],
      "stateMutability": "view",
      "type": "function"
    },
    {
      "inputs": [
        {
          "internalType": "address",
          "name": "_user",
          "type": "address"
        }
      ],
      "name": "rewardOf",
      "outputs": [
        {
          "internalType": "uint256",
          "name": "",
          "type": "uint256"
        }
      ],
      "stateMutability": "view",
      "type": "function"
    },
    {
      "inputs": [],
      "name": "rewardPerBlock",
      "outputs": [
        {
          "internalType": "uint256",
          "name": "",
          "type": "uint256"
        }
      ],
      "stateMutability": "view",
      "type": "function"
    },
    {
      "inputs": [],
      "name": "startBlock",
      "outputs": [
        {
          "internalType": "uint256",
          "name": "",
          "type": "uint256"
        }
      ],
      "stateMutability": "view",
      "type": "function"
    },
    {
      "inputs": [
        {
          "internalType": "address",
          "name": "",
          "type": "address"
        }
      ],
      "name": "userInfo",
      "outputs": [
        {
          "internalType": "uint256",
          "name": "reward",
          "type": "uint256"
        },
        {
          "internalType": "uint256",
          "name": "amount",
          "type": "uint256"
        },
        {
          "internalType": "uint256",
          "name": "rewardDebt",
          "type": "uint256"
        }
      ],
      "stateMutability": "view",
      "type": "function"
    },
    {
      "inputs": [
        {
          "internalType": "uint256",
          "name": "curBlock",
          "type": "uint256"
        },
        {
          "internalType": "address",
          "name": "_addr",
          "type": "address"
        },
        {
          "internalType": "uint256",
          "name": "_amount",
          "type": "uint256"
        }
      ],
      "name": "deposit",
      "outputs": [],
      "stateMutability": "nonpayable",
      "type": "function"
    },
    {
      "inputs": [
        {
          "internalType": "uint256",
          "name": "curBlock",
          "type": "uint256"
        },
        {
          "internalType": "address",
          "name": "_addr",
          "type": "address"
        },
        {
          "internalType": "uint256",
          "name": "_amount",
          "type": "uint256"
        }
      ],
      "name": "withdraw",
      "outputs": [],
      "stateMutability": "nonpayable",
      "type": "function"
    },
    {
      "inputs": [
        {
          "internalType": "uint256",
          "name": "curBlock",
          "type": "uint256"
        },
        {
          "internalType": "address",
          "name": "_user",
          "type": "address"
        }
      ],
      "name": "calcReward",
      "outputs": [
        {
          "internalType": "uint256",
          "name": "",
          "type": "uint256"
        }
      ],
      "stateMutability": "view",
      "type": "function"
    }
  ],
  "bytecode": "0x608060405234801561001057600080fd5b506040516111c93803806111c98339818101604052604081101561003357600080fd5b8101908080519060200190929190805190602001909291905050508181816000819055508060058190555060055460018001819055505050505061114d8061007c6000396000f3fe608060405234801561001057600080fd5b50600436106100ea5760003560e01c80636386c1c71161008c57806399fb7a8f1161006657806399fb7a8f14610371578063aa8c217c1461039d578063bc157ac1146103bb578063e63697c814610413576100ea565b80636386c1c71461028b57806385461f69146102f15780638ae39cac14610353576100ea565b80631d62ebd9116100c85780631d62ebd9146101cb57806348cd4cb114610223578063562975cb1461024157806360246c881461025f576100ea565b806301608f5f146100ef5780631485ff78146101475780631959a00214610165575b600080fd5b6101316004803603602081101561010557600080fd5b81019080803573ffffffffffffffffffffffffffffffffffffffff16906020019092919050505061046b565b6040518082815260200191505060405180910390f35b61014f6104b7565b6040518082815260200191505060405180910390f35b6101a76004803603602081101561017b57600080fd5b81019080803573ffffffffffffffffffffffffffffffffffffffff1690602001909291905050506104bd565b60405180848152602001838152602001828152602001935050505060405180910390f35b61020d600480360360208110156101e157600080fd5b81019080803573ffffffffffffffffffffffffffffffffffffffff1690602001909291905050506104e7565b6040518082815260200191505060405180910390f35b61022b610533565b6040518082815260200191505060405180910390f35b610249610539565b6040518082815260200191505060405180910390f35b61026761053f565b60405180848152602001838152602001828152602001935050505060405180910390f35b6102cd600480360360208110156102a157600080fd5b81019080803573ffffffffffffffffffffffffffffffffffffffff169060200190929190505050610560565b60405180848152602001838152602001828152602001935050505060405180910390f35b61033d6004803603604081101561030757600080fd5b8101908080359060200190929190803573ffffffffffffffffffffffffffffffffffffffff16906020019092919050505061063b565b6040518082815260200191505060405180910390f35b61035b61064f565b6040518082815260200191505060405180910390f35b610379610655565b60405180848152602001838152602001828152602001935050505060405180910390f35b6103a561066d565b6040518082815260200191505060405180910390f35b610411600480360360608110156103d157600080fd5b8101908080359060200190929190803573ffffffffffffffffffffffffffffffffffffffff1690602001909291908035906020019092919050505061067a565b005b6104696004803603606081101561042957600080fd5b8101908080359060200190929190803573ffffffffffffffffffffffffffffffffffffffff1690602001909291908035906020019092919050505061068a565b005b6000600460008373ffffffffffffffffffffffffffffffffffffffff1673ffffffffffffffffffffffffffffffffffffffff168152602001908152602001600020600101549050919050565b60065481565b60046020528060005260406000206000915090508060000154908060010154908060020154905083565b6000600460008373ffffffffffffffffffffffffffffffffffffffff1673ffffffffffffffffffffffffffffffffffffffff168152602001908152602001600020600001549050919050565b60055481565b60075481565b60008060006001600001546001800154600160020154925092509250909192565b6000806000600460008573ffffffffffffffffffffffffffffffffffffffff1673ffffffffffffffffffffffffffffffffffffffff16815260200190815260200160002060000154600460008673ffffffffffffffffffffffffffffffffffffffff1673ffffffffffffffffffffffffffffffffffffffff16815260200190815260200160002060010154600460008773ffffffffffffffffffffffffffffffffffffffff1673ffffffffffffffffffffffffffffffffffffffff168152602001908152602001600020600201549250925092509193909250565b6000610647838361069a565b905092915050565b60005481565b60018060000154908060010154908060020154905083565b6000600160000154905090565b610685838383610866565b505050565b6106958383836109ef565b505050565b600080600190506000600460008573ffffffffffffffffffffffffffffffffffffffff1673ffffffffffffffffffffffffffffffffffffffff168152602001908152602001600020905060008260020154905060008360000154905083600101548711801561070a575060008114155b156107bf57600061075f85600101546040518060400160405280601881526020017f637220637572426c6f636b20737562206f766572666c6f7700000000000000008152508a610c189092919063ffffffff16565b9050600061077860005483610cd890919063ffffffff16565b90506107ba6107ab8461079d68056bc75e2d6310000085610cd890919063ffffffff16565b610d5e90919063ffffffff16565b85610da890919063ffffffff16565b935050505b600061084084600201546040518060400160405280601981526020017f6372206e657752657761726420737562206f766572666c6f770000000000000081525061083168056bc75e2d63100000610823888a60010154610cd890919063ffffffff16565b610d5e90919063ffffffff16565b610c189092919063ffffffff16565b9050610859846000015482610da890919063ffffffff16565b9550505050505092915050565b6000600190506000600460008573ffffffffffffffffffffffffffffffffffffffff1673ffffffffffffffffffffffffffffffffffffffff16815260200190815260200160002090506108b885610e30565b60008160010154111561096257600061094a82600201546040518060400160405280601d81526020017f5f6465706f7369742070656e64696e6720737562206f766572666c6f7700000081525061093b68056bc75e2d6310000061092d88600201548860010154610cd890919063ffffffff16565b610d5e90919063ffffffff16565b610c189092919063ffffffff16565b905060008111156109605761095f8282610f67565b5b505b60008311156109aa57610982838260010154610da890919063ffffffff16565b81600101819055506109a1838360000154610da890919063ffffffff16565b82600001819055505b6109e068056bc75e2d631000006109d284600201548460010154610cd890919063ffffffff16565b610d5e90919063ffffffff16565b81600201819055505050505050565b6000600190506000600460008573ffffffffffffffffffffffffffffffffffffffff1673ffffffffffffffffffffffffffffffffffffffff16815260200190815260200160002090508281600101541015610ab2576040517f08c379a00000000000000000000000000000000000000000000000000000000081526004018080602001828103825260138152602001807f5f77697468647261773a206e6f7420676f6f640000000000000000000000000081525060200191505060405180910390fd5b610abb85610e30565b6000610b4082600201546040518060400160405280601e81526020017f5f77697468647261772070656e64696e6720737562206f766572666c6f770000815250610b3168056bc75e2d63100000610b2388600201548860010154610cd890919063ffffffff16565b610d5e90919063ffffffff16565b610c189092919063ffffffff16565b90506000811115610b5657610b558282610f67565b5b6000841115610bd257610b90846040518060600160405280602281526020016110b3602291398460010154610c189092919063ffffffff16565b8260010181905550610bc9846040518060600160405280602281526020016110f6602291398560000154610c189092919063ffffffff16565b83600001819055505b610c0868056bc75e2d63100000610bfa85600201548560010154610cd890919063ffffffff16565b610d5e90919063ffffffff16565b8260020181905550505050505050565b6000838311158290610cc5576040517f08c379a00000000000000000000000000000000000000000000000000000000081526004018080602001828103825283818151815260200191508051906020019080838360005b83811015610c8a578082015181840152602081019050610c6f565b50505050905090810190601f168015610cb75780820380516001836020036101000a031916815260200191505b509250505060405180910390fd5b5060008385039050809150509392505050565b600080831415610ceb5760009050610d58565b6000828402905082848281610cfc57fe5b0414610d53576040517f08c379a00000000000000000000000000000000000000000000000000000000081526004018080602001828103825260218152602001806110d56021913960400191505060405180910390fd5b809150505b92915050565b6000610da083836040518060400160405280601a81526020017f536166654d6174683a206469766973696f6e206279207a65726f000000000000815250610fec565b905092915050565b600080828401905083811015610e26576040517f08c379a000000000000000000000000000000000000000000000000000000000815260040180806020018281038252601b8152602001807f536166654d6174683a206164646974696f6e206f766572666c6f77000000000081525060200191505060405180910390fd5b8091505092915050565b60006001905080600101548211610e475750610f64565b6000816000015490506000811415610e69578282600101819055505050610f64565b6000610eb983600101546040518060400160405280601d81526020017f5f75706461746520637572426c6f636b20737562206f766572666c6f7700000081525086610c189092919063ffffffff16565b90506000610ed260005483610cd890919063ffffffff16565b9050610ee981600654610da890919063ffffffff16565b600681905550610f0481600754610da890919063ffffffff16565b600781905550610f4e610f3b84610f2d68056bc75e2d6310000085610cd890919063ffffffff16565b610d5e90919063ffffffff16565b8560020154610da890919063ffffffff16565b8460020181905550848460010181905550505050505b50565b600654811115610f775760065490505b610fc3816040518060400160405280602081526020017f7265776172642072656d61696e52657761726420737562206f766572666c6f77815250600654610c189092919063ffffffff16565b600681905550610fe0818360000154610da890919063ffffffff16565b82600001819055505050565b60008083118290611098576040517f08c379a00000000000000000000000000000000000000000000000000000000081526004018080602001828103825283818151815260200191508051906020019080838360005b8381101561105d578082015181840152602081019050611042565b50505050905090810190601f16801561108a5780820380516001836020036101000a031916815260200191505b509250505060405180910390fd5b5060008385816110a457fe5b04905080915050939250505056fe5f776974686472617720757365722e616d6f756e7420737562206f766572666c6f77536166654d6174683a206d756c7469706c69636174696f6e206f766572666c6f775f776974686472617720706f6f6c2e616d6f756e7420737562206f766572666c6f77a264697066735822122025fc9590cf1a19b7c3f95f7df0f84e07df2678c90130bb3a6a6e2cadd49be19564736f6c634300060c0033",
  "immutableReferences": {},
  "source": "// SPDX-License-Identifier: MIT\r\npragma solidity ^0.6.12;\r\n\r\nimport \"./IERC20.sol\";\r\nimport \"./LnAdmin.sol\";\r\nimport \"./LnOperatorModifier.sol\";\r\nimport \"@openzeppelin/contracts/math/SafeMath.sol\";\r\nimport \"@openzeppelin/contracts/utils/Pausable.sol\";\r\nimport \"./LnAccessControl.sol\";\r\nimport \"./LnLinearStaking.sol\";\r\nimport \"./SafeDecimalMath.sol\";\r\n\r\n\r\ncontract LnRewardCalculator  {\r\n    using SafeMath for uint256;\r\n\r\n    struct UserInfo {\r\n        uint256 reward;\r\n        uint256 amount;     \r\n        uint256 rewardDebt; \r\n    }\r\n\r\n    struct PoolInfo {\r\n        uint256 amount;           \r\n        uint256 lastRewardBlock;  \r\n        uint256 accRewardPerShare;\r\n    }\r\n\r\n    uint256 public rewardPerBlock;\r\n\r\n    PoolInfo public mPoolInfo;\r\n    mapping (address => UserInfo) public userInfo;\r\n\r\n    uint256 public startBlock;\r\n    uint256 public remainReward;\r\n    uint256 public accReward;\r\n\r\n    constructor( uint256 _rewardPerBlock, uint256 _startBlock ) public {\r\n        rewardPerBlock = _rewardPerBlock;\r\n        startBlock = _startBlock;\r\n        mPoolInfo.lastRewardBlock = startBlock;\r\n    }\r\n\r\n\r\n    function _calcReward( uint256 curBlock, address _user) internal view returns (uint256) {\r\n        PoolInfo storage pool = mPoolInfo;\r\n        UserInfo storage user = userInfo[_user];\r\n        uint256 accRewardPerShare = pool.accRewardPerShare;\r\n        uint256 lpSupply = pool.amount;\r\n        if (curBlock > pool.lastRewardBlock && lpSupply != 0) {\r\n            uint256 multiplier = curBlock.sub( pool.lastRewardBlock, \"cr curBlock sub overflow\" );\r\n            uint256 curReward = multiplier.mul(rewardPerBlock);\r\n            accRewardPerShare = accRewardPerShare.add(curReward.mul(1e20).div(lpSupply));\r\n        }\r\n        uint newReward = user.amount.mul(accRewardPerShare).div(1e20).sub(user.rewardDebt, \"cr newReward sub overflow\");\r\n        return newReward.add( user.reward );\r\n    }\r\n\r\n\r\n    function rewardOf( address _user ) public view returns( uint256 ){\r\n        return userInfo[_user].reward;\r\n    }\r\n\r\n\r\n    function amount( ) public view returns( uint256 ){\r\n        return mPoolInfo.amount;\r\n    }\r\n\r\n    function amountOf( address _user ) public view returns( uint256 ){\r\n        return userInfo[_user].amount;\r\n    }\r\n\r\n    function getUserInfo(address _user) public view returns(uint256,uint256,uint256) {\r\n        return (userInfo[_user].reward, userInfo[_user].amount, userInfo[_user].rewardDebt);\r\n    }\r\n\r\n    function getPoolInfo() public view returns(uint256,uint256,uint256) {\r\n        return (mPoolInfo.amount, mPoolInfo.lastRewardBlock, mPoolInfo.accRewardPerShare);\r\n    }\r\n\r\n    function _update( uint256 curBlock ) internal {\r\n        PoolInfo storage pool = mPoolInfo;\r\n        if (curBlock <= pool.lastRewardBlock) {\r\n            return;\r\n        }\r\n        uint256 lpSupply = pool.amount;\r\n        if (lpSupply == 0) {\r\n            pool.lastRewardBlock = curBlock;\r\n            return;\r\n        }\r\n        uint256 multiplier = curBlock.sub( pool.lastRewardBlock, \"_update curBlock sub overflow\" );\r\n        uint256 curReward = multiplier.mul(rewardPerBlock);\r\n        \r\n        remainReward = remainReward.add( curReward );\r\n        accReward = accReward.add( curReward );\r\n\r\n        pool.accRewardPerShare = pool.accRewardPerShare.add(curReward.mul(1e20).div(lpSupply));\r\n        pool.lastRewardBlock = curBlock;\r\n    }\r\n\r\n    function _deposit( uint256 curBlock, address _addr, uint256 _amount) internal {\r\n        PoolInfo storage pool = mPoolInfo;\r\n        UserInfo storage user = userInfo[ _addr];\r\n        _update( curBlock );\r\n        if (user.amount > 0) {\r\n            uint256 pending = user.amount.mul(pool.accRewardPerShare).div(1e20).sub(user.rewardDebt, \"_deposit pending sub overflow\");\r\n            if(pending > 0) {\r\n                reward( user, pending );\r\n            }\r\n        }\r\n        if(_amount > 0) {\r\n            user.amount = user.amount.add(_amount);\r\n            pool.amount = pool.amount.add(_amount);\r\n        }\r\n        user.rewardDebt = user.amount.mul(pool.accRewardPerShare).div(1e20);\r\n    }\r\n\r\n    function _withdraw( uint256 curBlock, address _addr, uint256 _amount) internal {\r\n        PoolInfo storage pool = mPoolInfo;\r\n        UserInfo storage user = userInfo[_addr];\r\n        require(user.amount >= _amount, \"_withdraw: not good\");\r\n        _update( curBlock );\r\n        uint256 pending = user.amount.mul(pool.accRewardPerShare).div(1e20).sub(user.rewardDebt, \"_withdraw pending sub overflow\");\r\n        if(pending > 0) {\r\n            reward( user, pending );\r\n        }\r\n        if(_amount > 0) {\r\n            user.amount = user.amount.sub(_amount, \"_withdraw user.amount sub overflow\");\r\n            pool.amount = pool.amount.sub(_amount, \"_withdraw pool.amount sub overflow\");\r\n        }\r\n        user.rewardDebt = user.amount.mul(pool.accRewardPerShare).div(1e20);\r\n    }\r\n\r\n    function reward( UserInfo storage user, uint256 _amount) internal {\r\n        if (_amount > remainReward) {\r\n            _amount = remainReward;\r\n        }\r\n        remainReward = remainReward.sub( _amount, \"reward remainReward sub overflow\");\r\n        user.reward = user.reward.add( _amount );\r\n    }\r\n\r\n    function _claim( address _addr ) internal {\r\n        UserInfo storage user = userInfo[_addr];\r\n        if( user.reward > 0 )\r\n        {\r\n            user.reward = 0;\r\n        }\r\n    }\r\n\r\n}\r\n\r\ncontract LnRewardCalculatorTest is LnRewardCalculator{\r\n    constructor( uint256 _rewardPerBlock, uint256 _startBlock ) public \r\n        LnRewardCalculator( _rewardPerBlock, _startBlock ) {\r\n    }\r\n\r\n    function deposit( uint256 curBlock, address _addr, uint256 _amount) public {\r\n        _deposit( curBlock, _addr, _amount );\r\n    }\r\n\r\n    function withdraw( uint256 curBlock, address _addr, uint256 _amount) public {\r\n        _withdraw( curBlock, _addr, _amount );\r\n    }\r\n    function calcReward( uint256 curBlock, address _user) public view returns (uint256) {\r\n        return _calcReward( curBlock, _user);\r\n    }\r\n\r\n}\r\n\r\n\r\ncontract LnSimpleStaking is LnAdmin, Pausable, ILinearStaking, LnRewardCalculator {\r\n    using SafeMath for uint256;\r\n    using SafeDecimalMath for uint256;\r\n\r\n    IERC20 public linaToken; // lina token proxy address\r\n    LnLinearStakingStorage public stakingStorage;\r\n    uint256 public mEndBlock;\r\n    address public mOldStaking;\r\n    uint256 public mOldAmount;\r\n    uint256 public mWidthdrawRewardFromOldStaking;\r\n\r\n    uint256 public claimRewardLockTime = 1620806400; // 2021-5-12\r\n\r\n    address public mTargetAddress;\r\n    uint256 public mTransLockTime;\r\n\r\n    mapping (address => uint ) public mOldReward;\r\n\r\n    constructor(\r\n        address _admin,\r\n        address _linaToken,\r\n        address _storage, uint256 _rewardPerBlock, uint256 _startBlock, uint256 _endBlock ) \r\n            public LnAdmin(_admin) LnRewardCalculator(_rewardPerBlock, _startBlock ){\r\n        linaToken = IERC20(_linaToken);\r\n        stakingStorage = LnLinearStakingStorage(_storage);\r\n        mEndBlock = _endBlock;\r\n    }\r\n\r\n    function setLinaToken(address _linaToken) external onlyAdmin {\r\n        linaToken = IERC20(_linaToken);\r\n    }\r\n\r\n    function setPaused(bool _paused) external onlyAdmin {\r\n        if (_paused) {\r\n            _pause();\r\n        } else {\r\n            _unpause();\r\n        }\r\n    }\r\n\r\n    //////////////////////////////////////////////////////\r\n    event Staking(address indexed who, uint256 value, uint staketime);\r\n    event CancelStaking(address indexed who, uint256 value);\r\n    event Claim(address indexed who, uint256 rewardval, uint256 totalStaking);\r\n    event TransLock(address target, uint256 time);\r\n\r\n    uint256 public accountStakingListLimit = 50;\r\n    uint256 public minStakingAmount = 1e18; // 1 token\r\n    uint256 public constant PRECISION_UINT = 1e23;\r\n\r\n    function setStakingListLimit(uint256 _limit) external onlyAdmin {\r\n        accountStakingListLimit = _limit;\r\n    }\r\n\r\n    function setMinStakingAmount(uint256 _minStakingAmount) external onlyAdmin {\r\n        minStakingAmount = _minStakingAmount;\r\n    }\r\n\r\n    function stakingBalanceOf(address account) external override view returns(uint256) {\r\n        uint256 stakingBalance = super.amountOf(account).add( stakingStorage.stakingBalanceOf(account) );\r\n        return stakingBalance;\r\n    }\r\n\r\n    function getStakesdataLength(address account) external view returns(uint256) {\r\n        return stakingStorage.getStakesdataLength(account);\r\n    }\r\n    //--------------------------------------------------------\r\n\r\n    function migrationsOldStaking( address contractAddr, uint amount, uint blockNb ) public onlyAdmin {\r\n        super._deposit( blockNb, contractAddr, amount );\r\n        mOldStaking = contractAddr;\r\n        mOldAmount = amount;\r\n    }\r\n\r\n\r\n    function staking(uint256 amount) public whenNotPaused override returns (bool) {\r\n        stakingStorage.requireInStakingPeriod();\r\n\r\n        require(amount >= minStakingAmount, \"Staking amount too small.\");\r\n        //require(stakingStorage.getStakesdataLength(msg.sender) < accountStakingListLimit, \"Staking list out of limit.\");\r\n\r\n        linaToken.transferFrom(msg.sender, address(this), amount);\r\n     \r\n        uint256 blockNb = block.number;\r\n        if (blockNb > mEndBlock) {\r\n            blockNb = mEndBlock;\r\n        }\r\n        super._deposit( blockNb, msg.sender, amount );\r\n\r\n        emit Staking(msg.sender, amount, block.timestamp);\r\n\r\n        return true;\r\n    }\r\n\r\n    function _widthdrawFromOldStaking( address _addr, uint amount ) internal {\r\n        uint256 blockNb = block.number;\r\n        if (blockNb > mEndBlock) {\r\n            blockNb = mEndBlock;\r\n        }\r\n        \r\n        uint oldStakingAmount = super.amountOf( mOldStaking );\r\n        super._withdraw( blockNb, mOldStaking, amount );\r\n        // sub already withraw reward, then cal portion \r\n        uint reward = super.rewardOf( mOldStaking).sub( mWidthdrawRewardFromOldStaking, \"_widthdrawFromOldStaking reward sub overflow\" )\r\n            .mul( amount ).mul(1e20).div( oldStakingAmount ).div(1e20);\r\n        mWidthdrawRewardFromOldStaking = mWidthdrawRewardFromOldStaking.add( reward );\r\n        mOldReward[ _addr ] = mOldReward[_addr].add( reward );\r\n    }\r\n\r\n    function _cancelStaking(address user, uint256 amount) internal {\r\n        uint256 blockNb = block.number;\r\n        if (blockNb > mEndBlock) {\r\n            blockNb = mEndBlock;\r\n        }\r\n\r\n        uint256 returnAmount = amount;\r\n        uint256 newAmount = super.amountOf(user);\r\n        if (newAmount >= amount) {\r\n            super._withdraw( blockNb, user, amount );\r\n            amount = 0;\r\n        } else {\r\n            if (newAmount > 0) {\r\n                super._withdraw( blockNb, user, newAmount );\r\n                amount = amount.sub(newAmount, \"_cancelStaking amount sub overflow\");\r\n            }\r\n            \r\n            for (uint256 i = stakingStorage.getStakesdataLength(user); i >= 1 ; i--) {\r\n                (uint256 stakingAmount, uint256 staketime) = stakingStorage.getStakesDataByIndex(user, i-1);\r\n                if (amount >= stakingAmount) {\r\n                    amount = amount.sub(stakingAmount, \"_cancelStaking amount sub overflow\");\r\n                    \r\n                    stakingStorage.PopStakesData(user);\r\n                    stakingStorage.SubWeeksTotal(staketime, stakingAmount);\r\n                    _widthdrawFromOldStaking( user, stakingAmount );\r\n\r\n                } else {\r\n                    stakingStorage.StakingDataSub(user, i-1, amount);\r\n                    stakingStorage.SubWeeksTotal(staketime, amount);\r\n                    _widthdrawFromOldStaking( user, amount );\r\n\r\n                    amount = 0;\r\n                }\r\n                if (amount == 0) break;\r\n            }\r\n        }\r\n\r\n        // cancel as many as possible, not fail, that waste gas\r\n        //require(amount == 0, \"Cancel amount too big then staked.\");\r\n        \r\n        linaToken.transfer(msg.sender, returnAmount.sub(amount));\r\n    }\r\n\r\n    function cancelStaking(uint256 amount) public whenNotPaused override returns (bool) {\r\n        //stakingStorage.requireInStakingPeriod();\r\n\r\n        require(amount > 0, \"Invalid amount.\");\r\n\r\n        _cancelStaking(msg.sender, amount);\r\n\r\n        emit CancelStaking(msg.sender, amount);\r\n\r\n        return true;\r\n    }\r\n\r\n    function getTotalReward( uint blockNb, address _user ) public view returns ( uint256 total ){\r\n        if( blockNb > mEndBlock ){\r\n            blockNb = mEndBlock;\r\n        }\r\n        \r\n        // \r\n        // 1,cancel\r\n        // 2,\r\n        // 3\r\n        total = mOldReward[ _user ];\r\n        uint iMyOldStaking = 0;\r\n        for (uint256 i=0; i < stakingStorage.getStakesdataLength( _user ); i++) {\r\n            (uint256 stakingAmount, ) = stakingStorage.getStakesDataByIndex( _user, i);\r\n            iMyOldStaking = iMyOldStaking.add( stakingAmount );\r\n        }\r\n        if( iMyOldStaking > 0 ){\r\n            uint oldStakingAmount = super.amountOf( mOldStaking );\r\n            uint iReward2 = super._calcReward( blockNb, mOldStaking).sub( mWidthdrawRewardFromOldStaking, \"getTotalReward iReward2 sub overflow\" )\r\n                .mul( iMyOldStaking ).div( oldStakingAmount );\r\n            total = total.add( iReward2 );\r\n        }\r\n\r\n        uint256 reward3 = super._calcReward( blockNb, _user );\r\n        total = total.add( reward3 );\r\n    }\r\n\r\n\r\n    // claim reward\r\n    // Note: token\r\n    function claim() public whenNotPaused override returns (bool) {\r\n        //stakingStorage.requireStakingEnd();\r\n        require(block.timestamp > claimRewardLockTime, \"Not time to claim reward\");\r\n\r\n        uint iMyOldStaking = stakingStorage.stakingBalanceOf( msg.sender );\r\n        uint iAmount = super.amountOf( msg.sender );\r\n        _cancelStaking( msg.sender, iMyOldStaking.add( iAmount ));\r\n\r\n        uint iReward = getTotalReward( mEndBlock, msg.sender );\r\n\r\n        _claim( msg.sender );\r\n        mOldReward[ msg.sender ] = 0;\r\n        linaToken.transfer(msg.sender, iReward );\r\n\r\n        emit Claim(msg.sender, iReward, iMyOldStaking.add( iAmount ));\r\n        return true;\r\n    }\r\n\r\n    function setRewardLockTime(uint256 newtime) public onlyAdmin {\r\n        claimRewardLockTime = newtime;\r\n    }\r\n\r\n    function calcReward( uint256 curBlock, address _user) public view returns (uint256) {\r\n        return _calcReward( curBlock, _user);\r\n    }\r\n\r\n    function setTransLock(address target, uint256 locktime) public onlyAdmin {\r\n        require(locktime >= now + 2 days, \"locktime need larger than cur time 2 days\");\r\n        mTargetAddress = target;\r\n        mTransLockTime = locktime;\r\n\r\n        emit TransLock(mTargetAddress, mTransLockTime);\r\n    }\r\n\r\n    function transTokens(uint256 amount) public onlyAdmin {\r\n        require(mTransLockTime > 0, \"mTransLockTime not set\");\r\n        require(now > mTransLockTime, \"Pls wait to unlock time\");\r\n        linaToken.transfer(mTargetAddress, amount);\r\n    }\r\n}\r\n\r\ncontract HelperPushStakingData is LnAdmin {\r\n\r\n    constructor(address _admin) public LnAdmin(_admin) {\r\n\r\n    }\r\n\r\n    function pushStakingData(address _storage, address[] calldata account, uint256[] calldata amount, uint256[] calldata staketime) external {\r\n        require(account.length > 0, \"array length zero\");\r\n        require(account.length == amount.length, \"array length not eq\");\r\n        require(account.length == staketime.length, \"array length not eq\");\r\n\r\n        LnLinearStakingStorage stakingStorage = LnLinearStakingStorage(_storage);\r\n        for (uint256 i=0; i<account.length; i++) {\r\n            stakingStorage.PushStakingData(account[i], amount[i], staketime[i]);\r\n            stakingStorage.AddWeeksTotal(staketime[i], amount[i]);\r\n        }\r\n    }\r\n\r\n    //unstaking.\r\n}\r\n\r\n\r\n\r\ncontract MultiSigForTransferFunds {\r\n    mapping (address => uint ) public mAdmins;\r\n    uint public mConfirmNumb;\r\n    uint public mProposalNumb;\r\n    uint public mAmount;\r\n    LnSimpleStaking public mStaking;\r\n    address[] public mAdminArr;\r\n    uint public mTransLockTime;\r\n\r\n    constructor(address[] memory _addr, uint iConfirmNumb,  LnSimpleStaking _staking ) public {\r\n        for( uint i = 0; i < _addr.length; ++i ){\r\n            mAdmins[ _addr[i] ] = 1;\r\n        }\r\n        mConfirmNumb = iConfirmNumb;\r\n        mProposalNumb = 0;\r\n        mStaking = _staking;\r\n        mAdminArr = _addr;\r\n    }\r\n\r\n    function becomeAdmin(address target) external {\r\n        LnAdmin(target).becomeAdmin();\r\n    }\r\n\r\n    function setTransLock(address target, uint256 locktime, uint amount ) public {\r\n        require( mAdmins[ msg.sender] == 1, \"not in admin list or set state\" );\r\n        _reset();\r\n        mStaking.setTransLock( target, locktime );\r\n        mAmount = amount;\r\n        mProposalNumb = 1;\r\n        mAdmins[ msg.sender] = 2; // \r\n\r\n        mTransLockTime = locktime;\r\n    }\r\n\r\n    // call this when the locktime expired\r\n    function confirmTransfer() public {\r\n        require( mAdmins[ msg.sender] == 1, \"not in admin list or set state\" );\r\n        mProposalNumb = mProposalNumb + 1;\r\n        mAdmins[ msg.sender ] = 2;\r\n    }\r\n\r\n    function doTransfer() public {\r\n        require(mTransLockTime > 0, \"mTransLockTime not set\");\r\n        require(now > mTransLockTime, \"Pls wait to unlock time\");\r\n        require(mProposalNumb >= mConfirmNumb, \"need more confirm\");\r\n\r\n        _reset();\r\n        mStaking.transTokens( mAmount );\r\n    }\r\n\r\n\r\n    function _reset() internal {\r\n        mProposalNumb = 0; \r\n        mTransLockTime = 0;\r\n        // reset\r\n        for( uint i = 0; i < mAdminArr.length; ++i ){\r\n            mAdmins[ mAdminArr[i]] = 1;\r\n        }\r\n    }\r\n}\r\n",
  "sourcePath": "/mnt/d/working/linearFinance/smartcontracts/contracts/LnSimpleStaking.sol",
  "compiler": {
    "name": "solc",
    "version": "0.6.12+commit.27d51765.Emscripten.clang"
  },
  "schemaVersion": "3.2.3",
  "updatedAt": "2020-10-28T03:26:12.336Z",
  "devdoc": {
    "kind": "dev",
    "methods": {},
    "version": 1
  },
  "userdoc": {
    "kind": "user",
    "methods": {},
    "version": 1
  }
}