{
  "contractName": "LnSimpleStaking",
  "abi": [
    {
      "inputs": [
        {
          "internalType": "address",
          "name": "_admin",
          "type": "address"
        },
        {
          "internalType": "address",
          "name": "_linaToken",
          "type": "address"
        },
        {
          "internalType": "address",
          "name": "_storage",
          "type": "address"
        },
        {
          "internalType": "uint256",
          "name": "_rewardPerBlock",
          "type": "uint256"
        },
        {
          "internalType": "uint256",
          "name": "_startBlock",
          "type": "uint256"
        },
        {
          "internalType": "uint256",
          "name": "_endBlock",
          "type": "uint256"
        }
      ],
      "stateMutability": "nonpayable",
      "type": "constructor"
    },
    {
      "anonymous": false,
      "inputs": [
        {
          "indexed": false,
          "internalType": "address",
          "name": "oldAdmin",
          "type": "address"
        },
        {
          "indexed": false,
          "internalType": "address",
          "name": "newAdmin",
          "type": "address"
        }
      ],
      "name": "AdminChanged",
      "type": "event"
    },
    {
      "anonymous": false,
      "inputs": [
        {
          "indexed": true,
          "internalType": "address",
          "name": "who",
          "type": "address"
        },
        {
          "indexed": false,
          "internalType": "uint256",
          "name": "value",
          "type": "uint256"
        }
      ],
      "name": "CancelStaking",
      "type": "event"
    },
    {
      "anonymous": false,
      "inputs": [
        {
          "indexed": true,
          "internalType": "address",
          "name": "who",
          "type": "address"
        },
        {
          "indexed": false,
          "internalType": "uint256",
          "name": "rewardval",
          "type": "uint256"
        },
        {
          "indexed": false,
          "internalType": "uint256",
          "name": "totalStaking",
          "type": "uint256"
        }
      ],
      "name": "Claim",
      "type": "event"
    },
    {
      "anonymous": false,
      "inputs": [
        {
          "indexed": false,
          "internalType": "address",
          "name": "account",
          "type": "address"
        }
      ],
      "name": "Paused",
      "type": "event"
    },
    {
      "anonymous": false,
      "inputs": [
        {
          "indexed": true,
          "internalType": "address",
          "name": "who",
          "type": "address"
        },
        {
          "indexed": false,
          "internalType": "uint256",
          "name": "value",
          "type": "uint256"
        },
        {
          "indexed": false,
          "internalType": "uint256",
          "name": "staketime",
          "type": "uint256"
        }
      ],
      "name": "Staking",
      "type": "event"
    },
    {
      "anonymous": false,
      "inputs": [
        {
          "indexed": false,
          "internalType": "address",
          "name": "target",
          "type": "address"
        },
        {
          "indexed": false,
          "internalType": "uint256",
          "name": "time",
          "type": "uint256"
        }
      ],
      "name": "TransLock",
      "type": "event"
    },
    {
      "anonymous": false,
      "inputs": [
        {
          "indexed": false,
          "internalType": "address",
          "name": "account",
          "type": "address"
        }
      ],
      "name": "Unpaused",
      "type": "event"
    },
    {
      "anonymous": false,
      "inputs": [
        {
          "indexed": false,
          "internalType": "address",
          "name": "oldCandidate",
          "type": "address"
        },
        {
          "indexed": false,
          "internalType": "address",
          "name": "newCandidate",
          "type": "address"
        }
      ],
      "name": "candidateChanged",
      "type": "event"
    },
    {
      "inputs": [],
      "name": "PRECISION_UINT",
      "outputs": [
        {
          "internalType": "uint256",
          "name": "",
          "type": "uint256"
        }
      ],
      "stateMutability": "view",
      "type": "function"
    },
    {
      "inputs": [],
      "name": "accReward",
      "outputs": [
        {
          "internalType": "uint256",
          "name": "",
          "type": "uint256"
        }
      ],
      "stateMutability": "view",
      "type": "function"
    },
    {
      "inputs": [],
      "name": "accountStakingListLimit",
      "outputs": [
        {
          "internalType": "uint256",
          "name": "",
          "type": "uint256"
        }
      ],
      "stateMutability": "view",
      "type": "function"
    },
    {
      "inputs": [],
      "name": "admin",
      "outputs": [
        {
          "internalType": "address",
          "name": "",
          "type": "address"
        }
      ],
      "stateMutability": "view",
      "type": "function"
    },
    {
      "inputs": [],
      "name": "amount",
      "outputs": [
        {
          "internalType": "uint256",
          "name": "",
          "type": "uint256"
        }
      ],
      "stateMutability": "view",
      "type": "function"
    },
    {
      "inputs": [
        {
          "internalType": "address",
          "name": "_user",
          "type": "address"
        }
      ],
      "name": "amountOf",
      "outputs": [
        {
          "internalType": "uint256",
          "name": "",
          "type": "uint256"
        }
      ],
      "stateMutability": "view",
      "type": "function"
    },
    {
      "inputs": [],
      "name": "becomeAdmin",
      "outputs": [],
      "stateMutability": "nonpayable",
      "type": "function"
    },
    {
      "inputs": [],
      "name": "candidate",
      "outputs": [
        {
          "internalType": "address",
          "name": "",
          "type": "address"
        }
      ],
      "stateMutability": "view",
      "type": "function"
    },
    {
      "inputs": [],
      "name": "claimRewardLockTime",
      "outputs": [
        {
          "internalType": "uint256",
          "name": "",
          "type": "uint256"
        }
      ],
      "stateMutability": "view",
      "type": "function"
    },
    {
      "inputs": [],
      "name": "getPoolInfo",
      "outputs": [
        {
          "internalType": "uint256",
          "name": "",
          "type": "uint256"
        },
        {
          "internalType": "uint256",
          "name": "",
          "type": "uint256"
        },
        {
          "internalType": "uint256",
          "name": "",
          "type": "uint256"
        }
      ],
      "stateMutability": "view",
      "type": "function"
    },
    {
      "inputs": [
        {
          "internalType": "address",
          "name": "_user",
          "type": "address"
        }
      ],
      "name": "getUserInfo",
      "outputs": [
        {
          "internalType": "uint256",
          "name": "",
          "type": "uint256"
        },
        {
          "internalType": "uint256",
          "name": "",
          "type": "uint256"
        },
        {
          "internalType": "uint256",
          "name": "",
          "type": "uint256"
        }
      ],
      "stateMutability": "view",
      "type": "function"
    },
    {
      "inputs": [],
      "name": "linaToken",
      "outputs": [
        {
          "internalType": "contract IERC20",
          "name": "",
          "type": "address"
        }
      ],
      "stateMutability": "view",
      "type": "function"
    },
    {
      "inputs": [],
      "name": "mEndBlock",
      "outputs": [
        {
          "internalType": "uint256",
          "name": "",
          "type": "uint256"
        }
      ],
      "stateMutability": "view",
      "type": "function"
    },
    {
      "inputs": [],
      "name": "mOldAmount",
      "outputs": [
        {
          "internalType": "uint256",
          "name": "",
          "type": "uint256"
        }
      ],
      "stateMutability": "view",
      "type": "function"
    },
    {
      "inputs": [
        {
          "internalType": "address",
          "name": "",
          "type": "address"
        }
      ],
      "name": "mOldReward",
      "outputs": [
        {
          "internalType": "uint256",
          "name": "",
          "type": "uint256"
        }
      ],
      "stateMutability": "view",
      "type": "function"
    },
    {
      "inputs": [],
      "name": "mOldStaking",
      "outputs": [
        {
          "internalType": "address",
          "name": "",
          "type": "address"
        }
      ],
      "stateMutability": "view",
      "type": "function"
    },
    {
      "inputs": [],
      "name": "mPoolInfo",
      "outputs": [
        {
          "internalType": "uint256",
          "name": "amount",
          "type": "uint256"
        },
        {
          "internalType": "uint256",
          "name": "lastRewardBlock",
          "type": "uint256"
        },
        {
          "internalType": "uint256",
          "name": "accRewardPerShare",
          "type": "uint256"
        }
      ],
      "stateMutability": "view",
      "type": "function"
    },
    {
      "inputs": [],
      "name": "mTargetAddress",
      "outputs": [
        {
          "internalType": "address",
          "name": "",
          "type": "address"
        }
      ],
      "stateMutability": "view",
      "type": "function"
    },
    {
      "inputs": [],
      "name": "mTransLockTime",
      "outputs": [
        {
          "internalType": "uint256",
          "name": "",
          "type": "uint256"
        }
      ],
      "stateMutability": "view",
      "type": "function"
    },
    {
      "inputs": [],
      "name": "mWidthdrawRewardFromOldStaking",
      "outputs": [
        {
          "internalType": "uint256",
          "name": "",
          "type": "uint256"
        }
      ],
      "stateMutability": "view",
      "type": "function"
    },
    {
      "inputs": [],
      "name": "minStakingAmount",
      "outputs": [
        {
          "internalType": "uint256",
          "name": "",
          "type": "uint256"
        }
      ],
      "stateMutability": "view",
      "type": "function"
    },
    {
      "inputs": [],
      "name": "paused",
      "outputs": [
        {
          "internalType": "bool",
          "name": "",
          "type": "bool"
        }
      ],
      "stateMutability": "view",
      "type": "function"
    },
    {
      "inputs": [],
      "name": "remainReward",
      "outputs": [
        {
          "internalType": "uint256",
          "name": "",
          "type": "uint256"
        }
      ],
      "stateMutability": "view",
      "type": "function"
    },
    {
      "inputs": [
        {
          "internalType": "address",
          "name": "_user",
          "type": "address"
        }
      ],
      "name": "rewardOf",
      "outputs": [
        {
          "internalType": "uint256",
          "name": "",
          "type": "uint256"
        }
      ],
      "stateMutability": "view",
      "type": "function"
    },
    {
      "inputs": [],
      "name": "rewardPerBlock",
      "outputs": [
        {
          "internalType": "uint256",
          "name": "",
          "type": "uint256"
        }
      ],
      "stateMutability": "view",
      "type": "function"
    },
    {
      "inputs": [
        {
          "internalType": "address",
          "name": "_candidate",
          "type": "address"
        }
      ],
      "name": "setCandidate",
      "outputs": [],
      "stateMutability": "nonpayable",
      "type": "function"
    },
    {
      "inputs": [],
      "name": "stakingStorage",
      "outputs": [
        {
          "internalType": "contract LnLinearStakingStorage",
          "name": "",
          "type": "address"
        }
      ],
      "stateMutability": "view",
      "type": "function"
    },
    {
      "inputs": [],
      "name": "startBlock",
      "outputs": [
        {
          "internalType": "uint256",
          "name": "",
          "type": "uint256"
        }
      ],
      "stateMutability": "view",
      "type": "function"
    },
    {
      "inputs": [
        {
          "internalType": "address",
          "name": "",
          "type": "address"
        }
      ],
      "name": "userInfo",
      "outputs": [
        {
          "internalType": "uint256",
          "name": "reward",
          "type": "uint256"
        },
        {
          "internalType": "uint256",
          "name": "amount",
          "type": "uint256"
        },
        {
          "internalType": "uint256",
          "name": "rewardDebt",
          "type": "uint256"
        }
      ],
      "stateMutability": "view",
      "type": "function"
    },
    {
      "inputs": [
        {
          "internalType": "address",
          "name": "_linaToken",
          "type": "address"
        }
      ],
      "name": "setLinaToken",
      "outputs": [],
      "stateMutability": "nonpayable",
      "type": "function"
    },
    {
      "inputs": [
        {
          "internalType": "bool",
          "name": "_paused",
          "type": "bool"
        }
      ],
      "name": "setPaused",
      "outputs": [],
      "stateMutability": "nonpayable",
      "type": "function"
    },
    {
      "inputs": [
        {
          "internalType": "uint256",
          "name": "_limit",
          "type": "uint256"
        }
      ],
      "name": "setStakingListLimit",
      "outputs": [],
      "stateMutability": "nonpayable",
      "type": "function"
    },
    {
      "inputs": [
        {
          "internalType": "uint256",
          "name": "_minStakingAmount",
          "type": "uint256"
        }
      ],
      "name": "setMinStakingAmount",
      "outputs": [],
      "stateMutability": "nonpayable",
      "type": "function"
    },
    {
      "inputs": [
        {
          "internalType": "address",
          "name": "account",
          "type": "address"
        }
      ],
      "name": "stakingBalanceOf",
      "outputs": [
        {
          "internalType": "uint256",
          "name": "",
          "type": "uint256"
        }
      ],
      "stateMutability": "view",
      "type": "function"
    },
    {
      "inputs": [
        {
          "internalType": "address",
          "name": "account",
          "type": "address"
        }
      ],
      "name": "getStakesdataLength",
      "outputs": [
        {
          "internalType": "uint256",
          "name": "",
          "type": "uint256"
        }
      ],
      "stateMutability": "view",
      "type": "function"
    },
    {
      "inputs": [
        {
          "internalType": "address",
          "name": "contractAddr",
          "type": "address"
        },
        {
          "internalType": "uint256",
          "name": "amount",
          "type": "uint256"
        },
        {
          "internalType": "uint256",
          "name": "blockNb",
          "type": "uint256"
        }
      ],
      "name": "migrationsOldStaking",
      "outputs": [],
      "stateMutability": "nonpayable",
      "type": "function"
    },
    {
      "inputs": [
        {
          "internalType": "uint256",
          "name": "amount",
          "type": "uint256"
        }
      ],
      "name": "staking",
      "outputs": [
        {
          "internalType": "bool",
          "name": "",
          "type": "bool"
        }
      ],
      "stateMutability": "nonpayable",
      "type": "function"
    },
    {
      "inputs": [
        {
          "internalType": "uint256",
          "name": "amount",
          "type": "uint256"
        }
      ],
      "name": "cancelStaking",
      "outputs": [
        {
          "internalType": "bool",
          "name": "",
          "type": "bool"
        }
      ],
      "stateMutability": "nonpayable",
      "type": "function"
    },
    {
      "inputs": [
        {
          "internalType": "uint256",
          "name": "blockNb",
          "type": "uint256"
        },
        {
          "internalType": "address",
          "name": "_user",
          "type": "address"
        }
      ],
      "name": "getTotalReward",
      "outputs": [
        {
          "internalType": "uint256",
          "name": "total",
          "type": "uint256"
        }
      ],
      "stateMutability": "view",
      "type": "function"
    },
    {
      "inputs": [],
      "name": "claim",
      "outputs": [
        {
          "internalType": "bool",
          "name": "",
          "type": "bool"
        }
      ],
      "stateMutability": "nonpayable",
      "type": "function"
    },
    {
      "inputs": [
        {
          "internalType": "uint256",
          "name": "newtime",
          "type": "uint256"
        }
      ],
      "name": "setRewardLockTime",
      "outputs": [],
      "stateMutability": "nonpayable",
      "type": "function"
    },
    {
      "inputs": [
        {
          "internalType": "uint256",
          "name": "curBlock",
          "type": "uint256"
        },
        {
          "internalType": "address",
          "name": "_user",
          "type": "address"
        }
      ],
      "name": "calcReward",
      "outputs": [
        {
          "internalType": "uint256",
          "name": "",
          "type": "uint256"
        }
      ],
      "stateMutability": "view",
      "type": "function"
    },
    {
      "inputs": [
        {
          "internalType": "address",
          "name": "target",
          "type": "address"
        },
        {
          "internalType": "uint256",
          "name": "locktime",
          "type": "uint256"
        }
      ],
      "name": "setTransLock",
      "outputs": [],
      "stateMutability": "nonpayable",
      "type": "function"
    },
    {
      "inputs": [
        {
          "internalType": "uint256",
          "name": "amount",
          "type": "uint256"
        }
      ],
      "name": "transTokens",
      "outputs": [],
      "stateMutability": "nonpayable",
      "type": "function"
    }
  ],
  "bytecode": "0x608060405263609b8b006010556032601455670de0b6b3a764000060155534801561002957600080fd5b50604051620040fa380380620040fa833981810160405260c081101561004e57600080fd5b81019080805190602001909291908051906020019092919080519060200190929190805190602001909291908051906020019092919080519060200190929190505050828287600073ffffffffffffffffffffffffffffffffffffffff168173ffffffffffffffffffffffffffffffffffffffff161415610137576040517f08c379a00000000000000000000000000000000000000000000000000000000081526004018080602001828103825260198152602001807f61646d696e20616464726573732063616e6e6f7420626520300000000000000081525060200191505060405180910390fd5b806000806101000a81548173ffffffffffffffffffffffffffffffffffffffff021916908373ffffffffffffffffffffffffffffffffffffffff1602179055507f7e644d79422f17c01e4894b5f4f588d331ebfa28653d42ae832dc59e38c9798f600082604051808373ffffffffffffffffffffffffffffffffffffffff1681526020018273ffffffffffffffffffffffffffffffffffffffff1681526020019250505060405180910390a1506000600160146101000a81548160ff0219169083151502179055508160028190555080600781905550600754600360010181905550505084600a60006101000a81548173ffffffffffffffffffffffffffffffffffffffff021916908373ffffffffffffffffffffffffffffffffffffffff16021790555083600b60006101000a81548173ffffffffffffffffffffffffffffffffffffffff021916908373ffffffffffffffffffffffffffffffffffffffff16021790555080600c81905550505050505050613e4080620002ba6000396000f3fe608060405234801561001057600080fd5b50600436106102745760003560e01c80636a8ab29611610151578063aa8c217c116100c3578063dd3bf57411610087578063dd3bf57414610aa5578063eb016e6414610ad9578063f851a44014610af7578063f873ccb514610b2b578063fc13945114610b49578063fea8079314610ba157610274565b8063aa8c217c146109d3578063b518a00e146109f1578063bb4f191214610a25578063c0e1f29614610a53578063d4d12d6414610a7157610274565b80638ae39cac116101155780638ae39cac146108b157806392fe2d6d146108cf578063957c12ed146108ed57806399fb7a8f146109455780639ab0388b14610971578063a16bd312146109b557610274565b80636a8ab296146107a15780636c8381f8146107cf578063758a993214610803578063804598271461082157806385461f691461084f57610274565b806332eec36a116101ea5780635c975abb116101ae5780635c975abb1461061b57806360246c881461063b578063612d669e1461066757806362e3efdd146106955780636386c1c7146106ed57806369e0bb421461075357610274565b806332eec36a14610523578063378341991461056757806348cd4cb1146105bf5780634e71d92d146105dd578063562975cb146105fd57610274565b80631d62ebd91161023c5780631d62ebd9146103c95780631dbb2a2214610421578063222bebd91461046557806324c208501461049957806325971dff146104fb57806325c065b11461050557610274565b806301608f5f1461027957806307880b7f146102d15780631485ff781461031557806316c38b3c146103335780631959a00214610363575b600080fd5b6102bb6004803603602081101561028f57600080fd5b81019080803573ffffffffffffffffffffffffffffffffffffffff169060200190929190505050610bbf565b6040518082815260200191505060405180910390f35b610313600480360360208110156102e757600080fd5b81019080803573ffffffffffffffffffffffffffffffffffffffff169060200190929190505050610c0b565b005b61031d610da8565b6040518082815260200191505060405180910390f35b6103616004803603602081101561034957600080fd5b81019080803515159060200190929190505050610dae565b005b6103a56004803603602081101561037957600080fd5b81019080803573ffffffffffffffffffffffffffffffffffffffff169060200190929190505050610e71565b60405180848152602001838152602001828152602001935050505060405180910390f35b61040b600480360360208110156103df57600080fd5b81019080803573ffffffffffffffffffffffffffffffffffffffff169060200190929190505050610e9b565b6040518082815260200191505060405180910390f35b61044d6004803603602081101561043757600080fd5b8101908080359060200190929190505050610ee7565b60405180821515815260200191505060405180910390f35b61046d6111d1565b604051808273ffffffffffffffffffffffffffffffffffffffff16815260200191505060405180910390f35b6104e5600480360360408110156104af57600080fd5b8101908080359060200190929190803573ffffffffffffffffffffffffffffffffffffffff1690602001909291905050506111f7565b6040518082815260200191505060405180910390f35b610503611515565b005b61050d6116ee565b6040518082815260200191505060405180910390f35b6105656004803603602081101561053957600080fd5b81019080803573ffffffffffffffffffffffffffffffffffffffff1690602001909291905050506116f4565b005b6105a96004803603602081101561057d57600080fd5b81019080803573ffffffffffffffffffffffffffffffffffffffff1690602001909291905050506117dc565b6040518082815260200191505060405180910390f35b6105c76117f4565b6040518082815260200191505060405180910390f35b6105e56117fa565b60405180821515815260200191505060405180910390f35b610605611b86565b6040518082815260200191505060405180910390f35b610623611b8c565b60405180821515815260200191505060405180910390f35b610643611ba3565b60405180848152602001838152602001828152602001935050505060405180910390f35b6106936004803603602081101561067d57600080fd5b8101908080359060200190929190505050611bc5565b005b6106d7600480360360208110156106ab57600080fd5b81019080803573ffffffffffffffffffffffffffffffffffffffff169060200190929190505050611c73565b6040518082815260200191505060405180910390f35b61072f6004803603602081101561070357600080fd5b81019080803573ffffffffffffffffffffffffffffffffffffffff169060200190929190505050611d5f565b60405180848152602001838152602001828152602001935050505060405180910390f35b61079f6004803603604081101561076957600080fd5b81019080803573ffffffffffffffffffffffffffffffffffffffff16906020019092919080359060200190929190505050611e3a565b005b6107cd600480360360208110156107b757600080fd5b8101908080359060200190929190505050612001565b005b6107d76120af565b604051808273ffffffffffffffffffffffffffffffffffffffff16815260200191505060405180910390f35b61080b6120d5565b6040518082815260200191505060405180910390f35b61084d6004803603602081101561083757600080fd5b81019080803590602001909291905050506120db565b005b61089b6004803603604081101561086557600080fd5b8101908080359060200190929190803573ffffffffffffffffffffffffffffffffffffffff169060200190929190505050612362565b6040518082815260200191505060405180910390f35b6108b9612376565b6040518082815260200191505060405180910390f35b6108d761237c565b6040518082815260200191505060405180910390f35b6109436004803603606081101561090357600080fd5b81019080803573ffffffffffffffffffffffffffffffffffffffff1690602001909291908035906020019092919080359060200190929190505050612382565b005b61094d61247e565b60405180848152602001838152602001828152602001935050505060405180910390f35b61099d6004803603602081101561098757600080fd5b8101908080359060200190929190505050612496565b60405180821515815260200191505060405180910390f35b6109bd6125f2565b6040518082815260200191505060405180910390f35b6109db6125f8565b6040518082815260200191505060405180910390f35b6109f9612605565b604051808273ffffffffffffffffffffffffffffffffffffffff16815260200191505060405180910390f35b610a5160048036036020811015610a3b57600080fd5b810190808035906020019092919050505061262b565b005b610a5b6126d9565b6040518082815260200191505060405180910390f35b610a796126e7565b604051808273ffffffffffffffffffffffffffffffffffffffff16815260200191505060405180910390f35b610aad61270d565b604051808273ffffffffffffffffffffffffffffffffffffffff16815260200191505060405180910390f35b610ae1612733565b6040518082815260200191505060405180910390f35b610aff612739565b604051808273ffffffffffffffffffffffffffffffffffffffff16815260200191505060405180910390f35b610b3361275d565b6040518082815260200191505060405180910390f35b610b8b60048036036020811015610b5f57600080fd5b81019080803573ffffffffffffffffffffffffffffffffffffffff169060200190929190505050612763565b6040518082815260200191505060405180910390f35b610ba9612830565b6040518082815260200191505060405180910390f35b6000600660008373ffffffffffffffffffffffffffffffffffffffff1673ffffffffffffffffffffffffffffffffffffffff168152602001908152602001600020600101549050919050565b60008054906101000a900473ffffffffffffffffffffffffffffffffffffffff1673ffffffffffffffffffffffffffffffffffffffff163373ffffffffffffffffffffffffffffffffffffffff1614610caf576040517f08c379a000000000000000000000000000000000000000000000000000000000815260040180806020018281038252602f815260200180613dba602f913960400191505060405180910390fd5b6000600160009054906101000a900473ffffffffffffffffffffffffffffffffffffffff16905081600160006101000a81548173ffffffffffffffffffffffffffffffffffffffff021916908373ffffffffffffffffffffffffffffffffffffffff1602179055507f0faed18be9e8f4d4c05dfbcc80ea2c97a0be729614d766827778f60890c02cab81600160009054906101000a900473ffffffffffffffffffffffffffffffffffffffff16604051808373ffffffffffffffffffffffffffffffffffffffff1681526020018273ffffffffffffffffffffffffffffffffffffffff1681526020019250505060405180910390a15050565b60085481565b60008054906101000a900473ffffffffffffffffffffffffffffffffffffffff1673ffffffffffffffffffffffffffffffffffffffff163373ffffffffffffffffffffffffffffffffffffffff1614610e52576040517f08c379a000000000000000000000000000000000000000000000000000000000815260040180806020018281038252602f815260200180613dba602f913960400191505060405180910390fd5b8015610e6557610e60612836565b610e6e565b610e6d612929565b5b50565b60066020528060005260406000206000915090508060000154908060010154908060020154905083565b6000600660008373ffffffffffffffffffffffffffffffffffffffff1673ffffffffffffffffffffffffffffffffffffffff168152602001908152602001600020600001549050919050565b6000600160149054906101000a900460ff1615610f6c576040517f08c379a00000000000000000000000000000000000000000000000000000000081526004018080602001828103825260108152602001807f5061757361626c653a207061757365640000000000000000000000000000000081525060200191505060405180910390fd5b600b60009054906101000a900473ffffffffffffffffffffffffffffffffffffffff1673ffffffffffffffffffffffffffffffffffffffff1663fff9413c6040518163ffffffff1660e01b815260040160006040518083038186803b158015610fd457600080fd5b505afa158015610fe8573d6000803e3d6000fd5b50505050601554821015611064576040517f08c379a00000000000000000000000000000000000000000000000000000000081526004018080602001828103825260198152602001807f5374616b696e6720616d6f756e7420746f6f20736d616c6c2e0000000000000081525060200191505060405180910390fd5b600a60009054906101000a900473ffffffffffffffffffffffffffffffffffffffff1673ffffffffffffffffffffffffffffffffffffffff166323b872dd3330856040518463ffffffff1660e01b8152600401808473ffffffffffffffffffffffffffffffffffffffff1681526020018373ffffffffffffffffffffffffffffffffffffffff1681526020018281526020019350505050602060405180830381600087803b15801561111557600080fd5b505af1158015611129573d6000803e3d6000fd5b505050506040513d602081101561113f57600080fd5b8101908080519060200190929190505050506000439050600c5481111561116657600c5490505b611171813385612a1c565b3373ffffffffffffffffffffffffffffffffffffffff167fa7cce4e8ff59a515dccbee3a6382e94deb1db79bdb43cf35a51251d41ea395f08442604051808381526020018281526020019250505060405180910390a26001915050919050565b600a60009054906101000a900473ffffffffffffffffffffffffffffffffffffffff1681565b6000600c5483111561120957600c5492505b601360008373ffffffffffffffffffffffffffffffffffffffff1673ffffffffffffffffffffffffffffffffffffffff1681526020019081526020016000205490506000805b600b60009054906101000a900473ffffffffffffffffffffffffffffffffffffffff1673ffffffffffffffffffffffffffffffffffffffff1663fc139451856040518263ffffffff1660e01b8152600401808273ffffffffffffffffffffffffffffffffffffffff16815260200191505060206040518083038186803b1580156112d857600080fd5b505afa1580156112ec573d6000803e3d6000fd5b505050506040513d602081101561130257600080fd5b8101908080519060200190929190505050811015611417576000600b60009054906101000a900473ffffffffffffffffffffffffffffffffffffffff1673ffffffffffffffffffffffffffffffffffffffff16637ee7b56a86846040518363ffffffff1660e01b8152600401808373ffffffffffffffffffffffffffffffffffffffff16815260200182815260200192505050604080518083038186803b1580156113ac57600080fd5b505afa1580156113c0573d6000803e3d6000fd5b505050506040513d60408110156113d657600080fd5b8101908080519060200190929190805190602001909291905050505090506114078184612ba590919063ffffffff16565b925050808060010191505061124f565b5060008111156114ea57600061144e600d60009054906101000a900473ffffffffffffffffffffffffffffffffffffffff16610bbf565b905060006114d0826114c2856114b4600f54604051806060016040528060248152602001613d4c602491396114a58d600d60009054906101000a900473ffffffffffffffffffffffffffffffffffffffff16612c2d565b612df99092919063ffffffff16565b612eb990919063ffffffff16565b612f3f90919063ffffffff16565b90506114e58185612ba590919063ffffffff16565b935050505b60006114f68585612c2d565b905061150b8184612ba590919063ffffffff16565b9250505092915050565b600160009054906101000a900473ffffffffffffffffffffffffffffffffffffffff1673ffffffffffffffffffffffffffffffffffffffff163373ffffffffffffffffffffffffffffffffffffffff16146115d8576040517f08c379a000000000000000000000000000000000000000000000000000000000815260040180806020018281038252601f8152602001807f4f6e6c792063616e6469646174652063616e206265636f6d652061646d696e0081525060200191505060405180910390fd5b60008060009054906101000a900473ffffffffffffffffffffffffffffffffffffffff169050600160009054906101000a900473ffffffffffffffffffffffffffffffffffffffff166000806101000a81548173ffffffffffffffffffffffffffffffffffffffff021916908373ffffffffffffffffffffffffffffffffffffffff1602179055507f7e644d79422f17c01e4894b5f4f588d331ebfa28653d42ae832dc59e38c9798f8160008054906101000a900473ffffffffffffffffffffffffffffffffffffffff16604051808373ffffffffffffffffffffffffffffffffffffffff1681526020018273ffffffffffffffffffffffffffffffffffffffff1681526020019250505060405180910390a150565b60155481565b60008054906101000a900473ffffffffffffffffffffffffffffffffffffffff1673ffffffffffffffffffffffffffffffffffffffff163373ffffffffffffffffffffffffffffffffffffffff1614611798576040517f08c379a000000000000000000000000000000000000000000000000000000000815260040180806020018281038252602f815260200180613dba602f913960400191505060405180910390fd5b80600a60006101000a81548173ffffffffffffffffffffffffffffffffffffffff021916908373ffffffffffffffffffffffffffffffffffffffff16021790555050565b60136020528060005260406000206000915090505481565b60075481565b6000600160149054906101000a900460ff161561187f576040517f08c379a00000000000000000000000000000000000000000000000000000000081526004018080602001828103825260108152602001807f5061757361626c653a207061757365640000000000000000000000000000000081525060200191505060405180910390fd5b60105442116118f6576040517f08c379a00000000000000000000000000000000000000000000000000000000081526004018080602001828103825260188152602001807f4e6f742074696d6520746f20636c61696d20726577617264000000000000000081525060200191505060405180910390fd5b6000600b60009054906101000a900473ffffffffffffffffffffffffffffffffffffffff1673ffffffffffffffffffffffffffffffffffffffff166362e3efdd336040518263ffffffff1660e01b8152600401808273ffffffffffffffffffffffffffffffffffffffff16815260200191505060206040518083038186803b15801561198157600080fd5b505afa158015611995573d6000803e3d6000fd5b505050506040513d60208110156119ab57600080fd5b8101908080519060200190929190505050905060006119c933610bbf565b90506119e7336119e28385612ba590919063ffffffff16565b612f89565b60006119f5600c54336111f7565b9050611a00336135a0565b6000601360003373ffffffffffffffffffffffffffffffffffffffff1673ffffffffffffffffffffffffffffffffffffffff16815260200190815260200160002081905550600a60009054906101000a900473ffffffffffffffffffffffffffffffffffffffff1673ffffffffffffffffffffffffffffffffffffffff1663a9059cbb33836040518363ffffffff1660e01b8152600401808373ffffffffffffffffffffffffffffffffffffffff16815260200182815260200192505050602060405180830381600087803b158015611ad857600080fd5b505af1158015611aec573d6000803e3d6000fd5b505050506040513d6020811015611b0257600080fd5b8101908080519060200190929190505050503373ffffffffffffffffffffffffffffffffffffffff167f34fcbac0073d7c3d388e51312faf357774904998eeb8fca628b9e6f65ee1cbf782611b608587612ba590919063ffffffff16565b604051808381526020018281526020019250505060405180910390a26001935050505090565b60095481565b6000600160149054906101000a900460ff16905090565b6000806000600360000154600360010154600360020154925092509250909192565b60008054906101000a900473ffffffffffffffffffffffffffffffffffffffff1673ffffffffffffffffffffffffffffffffffffffff163373ffffffffffffffffffffffffffffffffffffffff1614611c69576040517f08c379a000000000000000000000000000000000000000000000000000000000815260040180806020018281038252602f815260200180613dba602f913960400191505060405180910390fd5b8060158190555050565b600080611d54600b60009054906101000a900473ffffffffffffffffffffffffffffffffffffffff1673ffffffffffffffffffffffffffffffffffffffff166362e3efdd856040518263ffffffff1660e01b8152600401808273ffffffffffffffffffffffffffffffffffffffff16815260200191505060206040518083038186803b158015611d0257600080fd5b505afa158015611d16573d6000803e3d6000fd5b505050506040513d6020811015611d2c57600080fd5b8101908080519060200190929190505050611d4685610bbf565b612ba590919063ffffffff16565b905080915050919050565b6000806000600660008573ffffffffffffffffffffffffffffffffffffffff1673ffffffffffffffffffffffffffffffffffffffff16815260200190815260200160002060000154600660008673ffffffffffffffffffffffffffffffffffffffff1673ffffffffffffffffffffffffffffffffffffffff16815260200190815260200160002060010154600660008773ffffffffffffffffffffffffffffffffffffffff1673ffffffffffffffffffffffffffffffffffffffff168152602001908152602001600020600201549250925092509193909250565b60008054906101000a900473ffffffffffffffffffffffffffffffffffffffff1673ffffffffffffffffffffffffffffffffffffffff163373ffffffffffffffffffffffffffffffffffffffff1614611ede576040517f08c379a000000000000000000000000000000000000000000000000000000000815260040180806020018281038252602f815260200180613dba602f913960400191505060405180910390fd5b6202a3004201811015611f3c576040517f08c379a0000000000000000000000000000000000000000000000000000000008152600401808060200182810382526029815260200180613d916029913960400191505060405180910390fd5b81601160006101000a81548173ffffffffffffffffffffffffffffffffffffffff021916908373ffffffffffffffffffffffffffffffffffffffff160217905550806012819055507f19d2731b142d93a696d42170ea6dc53aa87024a1f79e9628658547a2d6fad2e6601160009054906101000a900473ffffffffffffffffffffffffffffffffffffffff16601254604051808373ffffffffffffffffffffffffffffffffffffffff1681526020018281526020019250505060405180910390a15050565b60008054906101000a900473ffffffffffffffffffffffffffffffffffffffff1673ffffffffffffffffffffffffffffffffffffffff163373ffffffffffffffffffffffffffffffffffffffff16146120a5576040517f08c379a000000000000000000000000000000000000000000000000000000000815260040180806020018281038252602f815260200180613dba602f913960400191505060405180910390fd5b8060148190555050565b600160009054906101000a900473ffffffffffffffffffffffffffffffffffffffff1681565b600f5481565b60008054906101000a900473ffffffffffffffffffffffffffffffffffffffff1673ffffffffffffffffffffffffffffffffffffffff163373ffffffffffffffffffffffffffffffffffffffff161461217f576040517f08c379a000000000000000000000000000000000000000000000000000000000815260040180806020018281038252602f815260200180613dba602f913960400191505060405180910390fd5b6000601254116121f7576040517f08c379a00000000000000000000000000000000000000000000000000000000081526004018080602001828103825260168152602001807f6d5472616e734c6f636b54696d65206e6f74207365740000000000000000000081525060200191505060405180910390fd5b601254421161226e576040517f08c379a00000000000000000000000000000000000000000000000000000000081526004018080602001828103825260178152602001807f506c73207761697420746f20756e6c6f636b2074696d6500000000000000000081525060200191505060405180910390fd5b600a60009054906101000a900473ffffffffffffffffffffffffffffffffffffffff1673ffffffffffffffffffffffffffffffffffffffff1663a9059cbb601160009054906101000a900473ffffffffffffffffffffffffffffffffffffffff16836040518363ffffffff1660e01b8152600401808373ffffffffffffffffffffffffffffffffffffffff16815260200182815260200192505050602060405180830381600087803b15801561232357600080fd5b505af1158015612337573d6000803e3d6000fd5b505050506040513d602081101561234d57600080fd5b81019080805190602001909291905050505050565b600061236e8383612c2d565b905092915050565b60025481565b600e5481565b60008054906101000a900473ffffffffffffffffffffffffffffffffffffffff1673ffffffffffffffffffffffffffffffffffffffff163373ffffffffffffffffffffffffffffffffffffffff1614612426576040517f08c379a000000000000000000000000000000000000000000000000000000000815260040180806020018281038252602f815260200180613dba602f913960400191505060405180910390fd5b612431818484612a1c565b82600d60006101000a81548173ffffffffffffffffffffffffffffffffffffffff021916908373ffffffffffffffffffffffffffffffffffffffff16021790555081600e81905550505050565b60038060000154908060010154908060020154905083565b6000600160149054906101000a900460ff161561251b576040517f08c379a00000000000000000000000000000000000000000000000000000000081526004018080602001828103825260108152602001807f5061757361626c653a207061757365640000000000000000000000000000000081525060200191505060405180910390fd5b60008211612591576040517f08c379a000000000000000000000000000000000000000000000000000000000815260040180806020018281038252600f8152602001807f496e76616c696420616d6f756e742e000000000000000000000000000000000081525060200191505060405180910390fd5b61259b3383612f89565b3373ffffffffffffffffffffffffffffffffffffffff167fcac6a9d108b4882699e5afc7402d86f41e4bae2981b76023107009d1fc2b11a3836040518082815260200191505060405180910390a260019050919050565b60105481565b6000600360000154905090565b600b60009054906101000a900473ffffffffffffffffffffffffffffffffffffffff1681565b60008054906101000a900473ffffffffffffffffffffffffffffffffffffffff1673ffffffffffffffffffffffffffffffffffffffff163373ffffffffffffffffffffffffffffffffffffffff16146126cf576040517f08c379a000000000000000000000000000000000000000000000000000000000815260040180806020018281038252602f815260200180613dba602f913960400191505060405180910390fd5b8060108190555050565b69152d02c7e14af680000081565b600d60009054906101000a900473ffffffffffffffffffffffffffffffffffffffff1681565b601160009054906101000a900473ffffffffffffffffffffffffffffffffffffffff1681565b600c5481565b60008054906101000a900473ffffffffffffffffffffffffffffffffffffffff1681565b60145481565b6000600b60009054906101000a900473ffffffffffffffffffffffffffffffffffffffff1673ffffffffffffffffffffffffffffffffffffffff1663fc139451836040518263ffffffff1660e01b8152600401808273ffffffffffffffffffffffffffffffffffffffff16815260200191505060206040518083038186803b1580156127ee57600080fd5b505afa158015612802573d6000803e3d6000fd5b505050506040513d602081101561281857600080fd5b81019080805190602001909291905050509050919050565b60125481565b600160149054906101000a900460ff16156128b9576040517f08c379a00000000000000000000000000000000000000000000000000000000081526004018080602001828103825260108152602001807f5061757361626c653a207061757365640000000000000000000000000000000081525060200191505060405180910390fd5b60018060146101000a81548160ff0219169083151502179055507f62e78cea01bee320cd4e420270b5ea74000d11b0c9f74754ebdbfc544b05a2586128fc6135ff565b604051808273ffffffffffffffffffffffffffffffffffffffff16815260200191505060405180910390a1565b600160149054906101000a900460ff166129ab576040517f08c379a00000000000000000000000000000000000000000000000000000000081526004018080602001828103825260148152602001807f5061757361626c653a206e6f742070617573656400000000000000000000000081525060200191505060405180910390fd5b6000600160146101000a81548160ff0219169083151502179055507f5db9ee0a495bf2e6ff9c91a7834c1ba4fdd244a5e8aa4e537bd38aeae4b073aa6129ef6135ff565b604051808273ffffffffffffffffffffffffffffffffffffffff16815260200191505060405180910390a1565b6000600390506000600660008573ffffffffffffffffffffffffffffffffffffffff1673ffffffffffffffffffffffffffffffffffffffff1681526020019081526020016000209050612a6e85613607565b600081600101541115612b18576000612b0082600201546040518060400160405280601d81526020017f5f6465706f7369742070656e64696e6720737562206f766572666c6f77000000815250612af168056bc75e2d63100000612ae388600201548860010154612eb990919063ffffffff16565b612f3f90919063ffffffff16565b612df99092919063ffffffff16565b90506000811115612b1657612b15828261373e565b5b505b6000831115612b6057612b38838260010154612ba590919063ffffffff16565b8160010181905550612b57838360000154612ba590919063ffffffff16565b82600001819055505b612b9668056bc75e2d63100000612b8884600201548460010154612eb990919063ffffffff16565b612f3f90919063ffffffff16565b81600201819055505050505050565b600080828401905083811015612c23576040517f08c379a000000000000000000000000000000000000000000000000000000000815260040180806020018281038252601b8152602001807f536166654d6174683a206164646974696f6e206f766572666c6f77000000000081525060200191505060405180910390fd5b8091505092915050565b600080600390506000600660008573ffffffffffffffffffffffffffffffffffffffff1673ffffffffffffffffffffffffffffffffffffffff1681526020019081526020016000209050600082600201549050600083600001549050836001015487118015612c9d575060008114155b15612d52576000612cf285600101546040518060400160405280601881526020017f637220637572426c6f636b20737562206f766572666c6f7700000000000000008152508a612df99092919063ffffffff16565b90506000612d0b60025483612eb990919063ffffffff16565b9050612d4d612d3e84612d3068056bc75e2d6310000085612eb990919063ffffffff16565b612f3f90919063ffffffff16565b85612ba590919063ffffffff16565b935050505b6000612dd384600201546040518060400160405280601981526020017f6372206e657752657761726420737562206f766572666c6f7700000000000000815250612dc468056bc75e2d63100000612db6888a60010154612eb990919063ffffffff16565b612f3f90919063ffffffff16565b612df99092919063ffffffff16565b9050612dec846000015482612ba590919063ffffffff16565b9550505050505092915050565b6000838311158290612ea6576040517f08c379a00000000000000000000000000000000000000000000000000000000081526004018080602001828103825283818151815260200191508051906020019080838360005b83811015612e6b578082015181840152602081019050612e50565b50505050905090810190601f168015612e985780820380516001836020036101000a031916815260200191505b509250505060405180910390fd5b5060008385039050809150509392505050565b600080831415612ecc5760009050612f39565b6000828402905082848281612edd57fe5b0414612f34576040517f08c379a0000000000000000000000000000000000000000000000000000000008152600401808060200182810382526021815260200180613d706021913960400191505060405180910390fd5b809150505b92915050565b6000612f8183836040518060400160405280601a81526020017f536166654d6174683a206469766973696f6e206279207a65726f0000000000008152506137c3565b905092915050565b6000439050600c54811115612f9e57600c5490505b60008290506000612fae85610bbf565b9050838110612fcb57612fc2838686613889565b600093506134b8565b600081111561300f57612fdf838683613889565b61300c81604051806060016040528060228152602001613cdc6022913986612df99092919063ffffffff16565b93505b6000600b60009054906101000a900473ffffffffffffffffffffffffffffffffffffffff1673ffffffffffffffffffffffffffffffffffffffff1663fc139451876040518263ffffffff1660e01b8152600401808273ffffffffffffffffffffffffffffffffffffffff16815260200191505060206040518083038186803b15801561309a57600080fd5b505afa1580156130ae573d6000803e3d6000fd5b505050506040513d60208110156130c457600080fd5b810190808051906020019092919050505090505b600181106134b657600080600b60009054906101000a900473ffffffffffffffffffffffffffffffffffffffff1673ffffffffffffffffffffffffffffffffffffffff16637ee7b56a89600186036040518363ffffffff1660e01b8152600401808373ffffffffffffffffffffffffffffffffffffffff16815260200182815260200192505050604080518083038186803b15801561317657600080fd5b505afa15801561318a573d6000803e3d6000fd5b505050506040513d60408110156131a057600080fd5b8101908080519060200190929190805190602001909291905050509150915081871061333c576131f382604051806060016040528060228152602001613cdc6022913989612df99092919063ffffffff16565b9650600b60009054906101000a900473ffffffffffffffffffffffffffffffffffffffff1673ffffffffffffffffffffffffffffffffffffffff166342e10bc6896040518263ffffffff1660e01b8152600401808273ffffffffffffffffffffffffffffffffffffffff168152602001915050600060405180830381600087803b15801561328057600080fd5b505af1158015613294573d6000803e3d6000fd5b50505050600b60009054906101000a900473ffffffffffffffffffffffffffffffffffffffff1673ffffffffffffffffffffffffffffffffffffffff1663b331714182846040518363ffffffff1660e01b81526004018083815260200182815260200192505050600060405180830381600087803b15801561331557600080fd5b505af1158015613329573d6000803e3d6000fd5b505050506133378883613ab2565b613496565b600b60009054906101000a900473ffffffffffffffffffffffffffffffffffffffff1673ffffffffffffffffffffffffffffffffffffffff16630cf1126689600186038a6040518463ffffffff1660e01b8152600401808473ffffffffffffffffffffffffffffffffffffffff1681526020018381526020018281526020019350505050600060405180830381600087803b1580156133da57600080fd5b505af11580156133ee573d6000803e3d6000fd5b50505050600b60009054906101000a900473ffffffffffffffffffffffffffffffffffffffff1673ffffffffffffffffffffffffffffffffffffffff1663b331714182896040518363ffffffff1660e01b81526004018083815260200182815260200192505050600060405180830381600087803b15801561346f57600080fd5b505af1158015613483573d6000803e3d6000fd5b505050506134918888613ab2565b600096505b60008714156134a65750506134b6565b50508080600190039150506130d8565b505b600a60009054906101000a900473ffffffffffffffffffffffffffffffffffffffff1673ffffffffffffffffffffffffffffffffffffffff1663a9059cbb3361350a8786613c9190919063ffffffff16565b6040518363ffffffff1660e01b8152600401808373ffffffffffffffffffffffffffffffffffffffff16815260200182815260200192505050602060405180830381600087803b15801561355d57600080fd5b505af1158015613571573d6000803e3d6000fd5b505050506040513d602081101561358757600080fd5b8101908080519060200190929190505050505050505050565b6000600660008373ffffffffffffffffffffffffffffffffffffffff1673ffffffffffffffffffffffffffffffffffffffff16815260200190815260200160002090506000816000015411156135fb57600081600001819055505b5050565b600033905090565b6000600390508060010154821161361e575061373b565b600081600001549050600081141561364057828260010181905550505061373b565b600061369083600101546040518060400160405280601d81526020017f5f75706461746520637572426c6f636b20737562206f766572666c6f7700000081525086612df99092919063ffffffff16565b905060006136a960025483612eb990919063ffffffff16565b90506136c081600854612ba590919063ffffffff16565b6008819055506136db81600954612ba590919063ffffffff16565b6009819055506137256137128461370468056bc75e2d6310000085612eb990919063ffffffff16565b612f3f90919063ffffffff16565b8560020154612ba590919063ffffffff16565b8460020181905550848460010181905550505050505b50565b60085481111561374e5760085490505b61379a816040518060400160405280602081526020017f7265776172642072656d61696e52657761726420737562206f766572666c6f77815250600854612df99092919063ffffffff16565b6008819055506137b7818360000154612ba590919063ffffffff16565b82600001819055505050565b6000808311829061386f576040517f08c379a00000000000000000000000000000000000000000000000000000000081526004018080602001828103825283818151815260200191508051906020019080838360005b83811015613834578082015181840152602081019050613819565b50505050905090810190601f1680156138615780820380516001836020036101000a031916815260200191505b509250505060405180910390fd5b50600083858161387b57fe5b049050809150509392505050565b6000600390506000600660008573ffffffffffffffffffffffffffffffffffffffff1673ffffffffffffffffffffffffffffffffffffffff1681526020019081526020016000209050828160010154101561394c576040517f08c379a00000000000000000000000000000000000000000000000000000000081526004018080602001828103825260138152602001807f5f77697468647261773a206e6f7420676f6f640000000000000000000000000081525060200191505060405180910390fd5b61395585613607565b60006139da82600201546040518060400160405280601e81526020017f5f77697468647261772070656e64696e6720737562206f766572666c6f7700008152506139cb68056bc75e2d631000006139bd88600201548860010154612eb990919063ffffffff16565b612f3f90919063ffffffff16565b612df99092919063ffffffff16565b905060008111156139f0576139ef828261373e565b5b6000841115613a6c57613a2a84604051806060016040528060228152602001613d2a602291398460010154612df99092919063ffffffff16565b8260010181905550613a6384604051806060016040528060228152602001613de9602291398560000154612df99092919063ffffffff16565b83600001819055505b613aa268056bc75e2d63100000613a9485600201548560010154612eb990919063ffffffff16565b612f3f90919063ffffffff16565b8260020181905550505050505050565b6000439050600c54811115613ac757600c5490505b6000613af4600d60009054906101000a900473ffffffffffffffffffffffffffffffffffffffff16610bbf565b9050613b2382600d60009054906101000a900473ffffffffffffffffffffffffffffffffffffffff1685613889565b6000613bd868056bc75e2d63100000613bca84613bbc68056bc75e2d63100000613bae8a613ba0600f546040518060600160405280602c8152602001613cfe602c9139613b91600d60009054906101000a900473ffffffffffffffffffffffffffffffffffffffff16610e9b565b612df99092919063ffffffff16565b612eb990919063ffffffff16565b612eb990919063ffffffff16565b612f3f90919063ffffffff16565b612f3f90919063ffffffff16565b9050613bef81600f54612ba590919063ffffffff16565b600f81905550613c4781601360008873ffffffffffffffffffffffffffffffffffffffff1673ffffffffffffffffffffffffffffffffffffffff16815260200190815260200160002054612ba590919063ffffffff16565b601360008773ffffffffffffffffffffffffffffffffffffffff1673ffffffffffffffffffffffffffffffffffffffff168152602001908152602001600020819055505050505050565b6000613cd383836040518060400160405280601e81526020017f536166654d6174683a207375627472616374696f6e206f766572666c6f770000815250612df9565b90509291505056fe5f63616e63656c5374616b696e6720616d6f756e7420737562206f766572666c6f775f77696474686472617746726f6d4f6c645374616b696e672072657761726420737562206f766572666c6f775f776974686472617720757365722e616d6f756e7420737562206f766572666c6f77676574546f74616c52657761726420695265776172643220737562206f766572666c6f77536166654d6174683a206d756c7469706c69636174696f6e206f766572666c6f776c6f636b74696d65206e656564206c6172676572207468616e206375722074696d65203220646179734f6e6c792074686520636f6e74726163742061646d696e2063616e20706572666f726d207468697320616374696f6e5f776974686472617720706f6f6c2e616d6f756e7420737562206f766572666c6f77a2646970667358221220c168b374fd3b2b20105e29036e92431f1bad1a6f5aff5b656ff657ab5278194764736f6c634300060c0033",
  "immutableReferences": {},
  "source": "// SPDX-License-Identifier: MIT\npragma solidity ^0.6.12;\n\nimport \"./IERC20.sol\";\nimport \"./LnAdmin.sol\";\nimport \"./LnOperatorModifier.sol\";\nimport \"@openzeppelin/contracts/math/SafeMath.sol\";\nimport \"@openzeppelin/contracts/utils/Pausable.sol\";\nimport \"./LnAccessControl.sol\";\nimport \"./LnLinearStaking.sol\";\nimport \"./SafeDecimalMath.sol\";\n\n\ncontract LnRewardCalculator  {\n    using SafeMath for uint256;\n\n    struct UserInfo {\n        uint256 reward;\n        uint256 amount;     \n        uint256 rewardDebt; \n    }\n\n    struct PoolInfo {\n        uint256 amount;           \n        uint256 lastRewardBlock;  \n        uint256 accRewardPerShare;\n    }\n\n    uint256 public rewardPerBlock;\n\n    PoolInfo public mPoolInfo;\n    mapping (address => UserInfo) public userInfo;\n\n    uint256 public startBlock;\n    uint256 public remainReward;\n    uint256 public accReward;\n\n    constructor( uint256 _rewardPerBlock, uint256 _startBlock ) public {\n        rewardPerBlock = _rewardPerBlock;\n        startBlock = _startBlock;\n        mPoolInfo.lastRewardBlock = startBlock;\n    }\n\n\n    function _calcReward( uint256 curBlock, address _user) internal view returns (uint256) {\n        PoolInfo storage pool = mPoolInfo;\n        UserInfo storage user = userInfo[_user];\n        uint256 accRewardPerShare = pool.accRewardPerShare;\n        uint256 lpSupply = pool.amount;\n        if (curBlock > pool.lastRewardBlock && lpSupply != 0) {\n            uint256 multiplier = curBlock.sub( pool.lastRewardBlock, \"cr curBlock sub overflow\" );\n            uint256 curReward = multiplier.mul(rewardPerBlock);\n            accRewardPerShare = accRewardPerShare.add(curReward.mul(1e20).div(lpSupply));\n        }\n        uint newReward = user.amount.mul(accRewardPerShare).div(1e20).sub(user.rewardDebt, \"cr newReward sub overflow\");\n        return newReward.add( user.reward );\n    }\n\n\n    function rewardOf( address _user ) public view returns( uint256 ){\n        return userInfo[_user].reward;\n    }\n\n\n    function amount( ) public view returns( uint256 ){\n        return mPoolInfo.amount;\n    }\n\n    function amountOf( address _user ) public view returns( uint256 ){\n        return userInfo[_user].amount;\n    }\n\n    function getUserInfo(address _user) public view returns(uint256,uint256,uint256) {\n        return (userInfo[_user].reward, userInfo[_user].amount, userInfo[_user].rewardDebt);\n    }\n\n    function getPoolInfo() public view returns(uint256,uint256,uint256) {\n        return (mPoolInfo.amount, mPoolInfo.lastRewardBlock, mPoolInfo.accRewardPerShare);\n    }\n\n    function _update( uint256 curBlock ) internal {\n        PoolInfo storage pool = mPoolInfo;\n        if (curBlock <= pool.lastRewardBlock) {\n            return;\n        }\n        uint256 lpSupply = pool.amount;\n        if (lpSupply == 0) {\n            pool.lastRewardBlock = curBlock;\n            return;\n        }\n        uint256 multiplier = curBlock.sub( pool.lastRewardBlock, \"_update curBlock sub overflow\" );\n        uint256 curReward = multiplier.mul(rewardPerBlock);\n        \n        remainReward = remainReward.add( curReward );\n        accReward = accReward.add( curReward );\n\n        pool.accRewardPerShare = pool.accRewardPerShare.add(curReward.mul(1e20).div(lpSupply));\n        pool.lastRewardBlock = curBlock;\n    }\n\n    function _deposit( uint256 curBlock, address _addr, uint256 _amount) internal {\n        PoolInfo storage pool = mPoolInfo;\n        UserInfo storage user = userInfo[ _addr];\n        _update( curBlock );\n        if (user.amount > 0) {\n            uint256 pending = user.amount.mul(pool.accRewardPerShare).div(1e20).sub(user.rewardDebt, \"_deposit pending sub overflow\");\n            if(pending > 0) {\n                reward( user, pending );\n            }\n        }\n        if(_amount > 0) {\n            user.amount = user.amount.add(_amount);\n            pool.amount = pool.amount.add(_amount);\n        }\n        user.rewardDebt = user.amount.mul(pool.accRewardPerShare).div(1e20);\n    }\n\n    function _withdraw( uint256 curBlock, address _addr, uint256 _amount) internal {\n        PoolInfo storage pool = mPoolInfo;\n        UserInfo storage user = userInfo[_addr];\n        require(user.amount >= _amount, \"_withdraw: not good\");\n        _update( curBlock );\n        uint256 pending = user.amount.mul(pool.accRewardPerShare).div(1e20).sub(user.rewardDebt, \"_withdraw pending sub overflow\");\n        if(pending > 0) {\n            reward( user, pending );\n        }\n        if(_amount > 0) {\n            user.amount = user.amount.sub(_amount, \"_withdraw user.amount sub overflow\");\n            pool.amount = pool.amount.sub(_amount, \"_withdraw pool.amount sub overflow\");\n        }\n        user.rewardDebt = user.amount.mul(pool.accRewardPerShare).div(1e20);\n    }\n\n    function reward( UserInfo storage user, uint256 _amount) internal {\n        if (_amount > remainReward) {\n            _amount = remainReward;\n        }\n        remainReward = remainReward.sub( _amount, \"reward remainReward sub overflow\");\n        user.reward = user.reward.add( _amount );\n    }\n\n    function _claim( address _addr ) internal {\n        UserInfo storage user = userInfo[_addr];\n        if( user.reward > 0 )\n        {\n            user.reward = 0;\n        }\n    }\n\n}\n\ncontract LnRewardCalculatorTest is LnRewardCalculator{\n    constructor( uint256 _rewardPerBlock, uint256 _startBlock ) public \n        LnRewardCalculator( _rewardPerBlock, _startBlock ) {\n    }\n\n    function deposit( uint256 curBlock, address _addr, uint256 _amount) public {\n        _deposit( curBlock, _addr, _amount );\n    }\n\n    function withdraw( uint256 curBlock, address _addr, uint256 _amount) public {\n        _withdraw( curBlock, _addr, _amount );\n    }\n    function calcReward( uint256 curBlock, address _user) public view returns (uint256) {\n        return _calcReward( curBlock, _user);\n    }\n\n}\n\n\ncontract LnSimpleStaking is LnAdmin, Pausable, ILinearStaking, LnRewardCalculator {\n    using SafeMath for uint256;\n    using SafeDecimalMath for uint256;\n\n    IERC20 public linaToken; // lina token proxy address\n    LnLinearStakingStorage public stakingStorage;\n    uint256 public mEndBlock;\n    address public mOldStaking;\n    uint256 public mOldAmount;\n    uint256 public mWidthdrawRewardFromOldStaking;\n\n    uint256 public claimRewardLockTime = 1620806400; // 2021-5-12\n\n    address public mTargetAddress;\n    uint256 public mTransLockTime;\n\n    mapping (address => uint ) public mOldReward;\n\n    constructor(\n        address _admin,\n        address _linaToken,\n        address _storage, uint256 _rewardPerBlock, uint256 _startBlock, uint256 _endBlock ) \n            public LnAdmin(_admin) LnRewardCalculator(_rewardPerBlock, _startBlock ){\n        linaToken = IERC20(_linaToken);\n        stakingStorage = LnLinearStakingStorage(_storage);\n        mEndBlock = _endBlock;\n    }\n\n    function setLinaToken(address _linaToken) external onlyAdmin {\n        linaToken = IERC20(_linaToken);\n    }\n\n    function setPaused(bool _paused) external onlyAdmin {\n        if (_paused) {\n            _pause();\n        } else {\n            _unpause();\n        }\n    }\n\n    //////////////////////////////////////////////////////\n    event Staking(address indexed who, uint256 value, uint staketime);\n    event CancelStaking(address indexed who, uint256 value);\n    event Claim(address indexed who, uint256 rewardval, uint256 totalStaking);\n    event TransLock(address target, uint256 time);\n\n    uint256 public accountStakingListLimit = 50;\n    uint256 public minStakingAmount = 1e18; // 1 token\n    uint256 public constant PRECISION_UINT = 1e23;\n\n    function setStakingListLimit(uint256 _limit) external onlyAdmin {\n        accountStakingListLimit = _limit;\n    }\n\n    function setMinStakingAmount(uint256 _minStakingAmount) external onlyAdmin {\n        minStakingAmount = _minStakingAmount;\n    }\n\n    function stakingBalanceOf(address account) external override view returns(uint256) {\n        uint256 stakingBalance = super.amountOf(account).add( stakingStorage.stakingBalanceOf(account) );\n        return stakingBalance;\n    }\n\n    function getStakesdataLength(address account) external view returns(uint256) {\n        return stakingStorage.getStakesdataLength(account);\n    }\n    //--------------------------------------------------------\n\n    function migrationsOldStaking( address contractAddr, uint amount, uint blockNb ) public onlyAdmin {\n        super._deposit( blockNb, contractAddr, amount );\n        mOldStaking = contractAddr;\n        mOldAmount = amount;\n    }\n\n\n    function staking(uint256 amount) public whenNotPaused override returns (bool) {\n        stakingStorage.requireInStakingPeriod();\n\n        require(amount >= minStakingAmount, \"Staking amount too small.\");\n        //require(stakingStorage.getStakesdataLength(msg.sender) < accountStakingListLimit, \"Staking list out of limit.\");\n\n        linaToken.transferFrom(msg.sender, address(this), amount);\n     \n        uint256 blockNb = block.number;\n        if (blockNb > mEndBlock) {\n            blockNb = mEndBlock;\n        }\n        super._deposit( blockNb, msg.sender, amount );\n\n        emit Staking(msg.sender, amount, block.timestamp);\n\n        return true;\n    }\n\n    function _widthdrawFromOldStaking( address _addr, uint amount ) internal {\n        uint256 blockNb = block.number;\n        if (blockNb > mEndBlock) {\n            blockNb = mEndBlock;\n        }\n        \n        uint oldStakingAmount = super.amountOf( mOldStaking );\n        super._withdraw( blockNb, mOldStaking, amount );\n        // sub already withraw reward, then cal portion \n        uint reward = super.rewardOf( mOldStaking).sub( mWidthdrawRewardFromOldStaking, \"_widthdrawFromOldStaking reward sub overflow\" )\n            .mul( amount ).mul(1e20).div( oldStakingAmount ).div(1e20);\n        mWidthdrawRewardFromOldStaking = mWidthdrawRewardFromOldStaking.add( reward );\n        mOldReward[ _addr ] = mOldReward[_addr].add( reward );\n    }\n\n    function _cancelStaking(address user, uint256 amount) internal {\n        uint256 blockNb = block.number;\n        if (blockNb > mEndBlock) {\n            blockNb = mEndBlock;\n        }\n\n        uint256 returnAmount = amount;\n        uint256 newAmount = super.amountOf(user);\n        if (newAmount >= amount) {\n            super._withdraw( blockNb, user, amount );\n            amount = 0;\n        } else {\n            if (newAmount > 0) {\n                super._withdraw( blockNb, user, newAmount );\n                amount = amount.sub(newAmount, \"_cancelStaking amount sub overflow\");\n            }\n            \n            for (uint256 i = stakingStorage.getStakesdataLength(user); i >= 1 ; i--) {\n                (uint256 stakingAmount, uint256 staketime) = stakingStorage.getStakesDataByIndex(user, i-1);\n                if (amount >= stakingAmount) {\n                    amount = amount.sub(stakingAmount, \"_cancelStaking amount sub overflow\");\n                    \n                    stakingStorage.PopStakesData(user);\n                    stakingStorage.SubWeeksTotal(staketime, stakingAmount);\n                    _widthdrawFromOldStaking( user, stakingAmount );\n\n                } else {\n                    stakingStorage.StakingDataSub(user, i-1, amount);\n                    stakingStorage.SubWeeksTotal(staketime, amount);\n                    _widthdrawFromOldStaking( user, amount );\n\n                    amount = 0;\n                }\n                if (amount == 0) break;\n            }\n        }\n\n        // cancel as many as possible, not fail, that waste gas\n        //require(amount == 0, \"Cancel amount too big then staked.\");\n        \n        linaToken.transfer(msg.sender, returnAmount.sub(amount));\n    }\n\n    function cancelStaking(uint256 amount) public whenNotPaused override returns (bool) {\n        //stakingStorage.requireInStakingPeriod();\n\n        require(amount > 0, \"Invalid amount.\");\n\n        _cancelStaking(msg.sender, amount);\n\n        emit CancelStaking(msg.sender, amount);\n\n        return true;\n    }\n\n    function getTotalReward( uint blockNb, address _user ) public view returns ( uint256 total ){\n        if( blockNb > mEndBlock ){\n            blockNb = mEndBlock;\n        }\n        \n        // \n        // 1,cancel\n        // 2,\n        // 3\n        total = mOldReward[ _user ];\n        uint iMyOldStaking = 0;\n        for (uint256 i=0; i < stakingStorage.getStakesdataLength( _user ); i++) {\n            (uint256 stakingAmount, ) = stakingStorage.getStakesDataByIndex( _user, i);\n            iMyOldStaking = iMyOldStaking.add( stakingAmount );\n        }\n        if( iMyOldStaking > 0 ){\n            uint oldStakingAmount = super.amountOf( mOldStaking );\n            uint iReward2 = super._calcReward( blockNb, mOldStaking).sub( mWidthdrawRewardFromOldStaking, \"getTotalReward iReward2 sub overflow\" )\n                .mul( iMyOldStaking ).div( oldStakingAmount );\n            total = total.add( iReward2 );\n        }\n\n        uint256 reward3 = super._calcReward( blockNb, _user );\n        total = total.add( reward3 );\n    }\n\n\n    // claim reward\n    // Note: token\n    function claim() public whenNotPaused override returns (bool) {\n        //stakingStorage.requireStakingEnd();\n        require(block.timestamp > claimRewardLockTime, \"Not time to claim reward\");\n\n        uint iMyOldStaking = stakingStorage.stakingBalanceOf( msg.sender );\n        uint iAmount = super.amountOf( msg.sender );\n        _cancelStaking( msg.sender, iMyOldStaking.add( iAmount ));\n\n        uint iReward = getTotalReward( mEndBlock, msg.sender );\n\n        _claim( msg.sender );\n        mOldReward[ msg.sender ] = 0;\n        linaToken.transfer(msg.sender, iReward );\n\n        emit Claim(msg.sender, iReward, iMyOldStaking.add( iAmount ));\n        return true;\n    }\n\n    function setRewardLockTime(uint256 newtime) public onlyAdmin {\n        claimRewardLockTime = newtime;\n    }\n\n    function calcReward( uint256 curBlock, address _user) public view returns (uint256) {\n        return _calcReward( curBlock, _user);\n    }\n\n    function setTransLock(address target, uint256 locktime) public onlyAdmin {\n        require(locktime >= now + 2 days, \"locktime need larger than cur time 2 days\");\n        mTargetAddress = target;\n        mTransLockTime = locktime;\n\n        emit TransLock(mTargetAddress, mTransLockTime);\n    }\n\n    function transTokens(uint256 amount) public onlyAdmin {\n        require(mTransLockTime > 0, \"mTransLockTime not set\");\n        require(now > mTransLockTime, \"Pls wait to unlock time\");\n        linaToken.transfer(mTargetAddress, amount);\n    }\n}\n\ncontract HelperPushStakingData is LnAdmin {\n\n    constructor(address _admin) public LnAdmin(_admin) {\n\n    }\n\n    function pushStakingData(address _storage, address[] calldata account, uint256[] calldata amount, uint256[] calldata staketime) external {\n        require(account.length > 0, \"array length zero\");\n        require(account.length == amount.length, \"array length not eq\");\n        require(account.length == staketime.length, \"array length not eq\");\n\n        LnLinearStakingStorage stakingStorage = LnLinearStakingStorage(_storage);\n        for (uint256 i=0; i<account.length; i++) {\n            stakingStorage.PushStakingData(account[i], amount[i], staketime[i]);\n            stakingStorage.AddWeeksTotal(staketime[i], amount[i]);\n        }\n    }\n\n    //unstaking.\n}\n\n\n\ncontract MultiSigForTransferFunds {\n    mapping (address => uint ) public mAdmins;\n    uint public mConfirmNumb;\n    uint public mProposalNumb;\n    uint public mAmount;\n    LnSimpleStaking public mStaking;\n    address[] public mAdminArr;\n    uint public mTransLockTime;\n\n    constructor(address[] memory _addr, uint iConfirmNumb,  LnSimpleStaking _staking ) public {\n        for( uint i = 0; i < _addr.length; ++i ){\n            mAdmins[ _addr[i] ] = 1;\n        }\n        mConfirmNumb = iConfirmNumb;\n        mProposalNumb = 0;\n        mStaking = _staking;\n        mAdminArr = _addr;\n    }\n\n    function becomeAdmin(address target) external {\n        LnAdmin(target).becomeAdmin();\n    }\n\n    function setTransLock(address target, uint256 locktime, uint amount ) public {\n        require( mAdmins[ msg.sender] == 1, \"not in admin list or set state\" );\n        _reset();\n        mStaking.setTransLock( target, locktime );\n        mAmount = amount;\n        mProposalNumb = 1;\n        mAdmins[ msg.sender] = 2; // \n\n        mTransLockTime = locktime;\n    }\n\n    // call this when the locktime expired\n    function confirmTransfer() public {\n        require( mAdmins[ msg.sender] == 1, \"not in admin list or set state\" );\n        mProposalNumb = mProposalNumb + 1;\n        mAdmins[ msg.sender ] = 2;\n    }\n\n    function doTransfer() public {\n        require(mTransLockTime > 0, \"mTransLockTime not set\");\n        require(now > mTransLockTime, \"Pls wait to unlock time\");\n        require(mProposalNumb >= mConfirmNumb, \"need more confirm\");\n\n        _reset();\n        mStaking.transTokens( mAmount );\n    }\n\n\n    function _reset() internal {\n        mProposalNumb = 0; \n        mTransLockTime = 0;\n        // reset\n        for( uint i = 0; i < mAdminArr.length; ++i ){\n            mAdmins[ mAdminArr[i]] = 1;\n        }\n    }\n}\n",
  "sourcePath": "/Users/michael/Linear-finance/Linear/contracts/LnSimpleStaking.sol",
  "compiler": {
    "name": "solc",
    "version": "0.6.12+commit.27d51765.Emscripten.clang"
  },
  "schemaVersion": "3.3.1",
  "updatedAt": "2020-10-27T11:04:12.778Z",
  "devdoc": {
    "kind": "dev",
    "methods": {
      "paused()": {
        "details": "Returns true if the contract is paused, and false otherwise."
      }
    },
    "version": 1
  },
  "userdoc": {
    "kind": "user",
    "methods": {},
    "version": 1
  }
}