{
  "contractName": "LnSimpleStaking",
  "abi": [
    {
      "inputs": [
        {
          "internalType": "address",
          "name": "_admin",
          "type": "address"
        },
        {
          "internalType": "address",
          "name": "_linaToken",
          "type": "address"
        },
        {
          "internalType": "address",
          "name": "_storage",
          "type": "address"
        },
        {
          "internalType": "uint256",
          "name": "_rewardPerBlock",
          "type": "uint256"
        },
        {
          "internalType": "uint256",
          "name": "_startBlock",
          "type": "uint256"
        },
        {
          "internalType": "uint256",
          "name": "_endBlock",
          "type": "uint256"
        }
      ],
      "stateMutability": "nonpayable",
      "type": "constructor"
    },
    {
      "anonymous": false,
      "inputs": [
        {
          "indexed": false,
          "internalType": "address",
          "name": "oldAdmin",
          "type": "address"
        },
        {
          "indexed": false,
          "internalType": "address",
          "name": "newAdmin",
          "type": "address"
        }
      ],
      "name": "AdminChanged",
      "type": "event"
    },
    {
      "anonymous": false,
      "inputs": [
        {
          "indexed": true,
          "internalType": "address",
          "name": "who",
          "type": "address"
        },
        {
          "indexed": false,
          "internalType": "uint256",
          "name": "value",
          "type": "uint256"
        }
      ],
      "name": "CancelStaking",
      "type": "event"
    },
    {
      "anonymous": false,
      "inputs": [
        {
          "indexed": true,
          "internalType": "address",
          "name": "who",
          "type": "address"
        },
        {
          "indexed": false,
          "internalType": "uint256",
          "name": "rewardval",
          "type": "uint256"
        },
        {
          "indexed": false,
          "internalType": "uint256",
          "name": "totalStaking",
          "type": "uint256"
        }
      ],
      "name": "Claim",
      "type": "event"
    },
    {
      "anonymous": false,
      "inputs": [
        {
          "indexed": false,
          "internalType": "address",
          "name": "account",
          "type": "address"
        }
      ],
      "name": "Paused",
      "type": "event"
    },
    {
      "anonymous": false,
      "inputs": [
        {
          "indexed": true,
          "internalType": "address",
          "name": "who",
          "type": "address"
        },
        {
          "indexed": false,
          "internalType": "uint256",
          "name": "value",
          "type": "uint256"
        },
        {
          "indexed": false,
          "internalType": "uint256",
          "name": "staketime",
          "type": "uint256"
        }
      ],
      "name": "Staking",
      "type": "event"
    },
    {
      "anonymous": false,
      "inputs": [
        {
          "indexed": false,
          "internalType": "address",
          "name": "account",
          "type": "address"
        }
      ],
      "name": "Unpaused",
      "type": "event"
    },
    {
      "anonymous": false,
      "inputs": [
        {
          "indexed": false,
          "internalType": "address",
          "name": "oldCandidate",
          "type": "address"
        },
        {
          "indexed": false,
          "internalType": "address",
          "name": "newCandidate",
          "type": "address"
        }
      ],
      "name": "candidateChanged",
      "type": "event"
    },
    {
      "inputs": [],
      "name": "PRECISION_UINT",
      "outputs": [
        {
          "internalType": "uint256",
          "name": "",
          "type": "uint256"
        }
      ],
      "stateMutability": "view",
      "type": "function",
      "constant": true
    },
    {
      "inputs": [],
      "name": "accReward",
      "outputs": [
        {
          "internalType": "uint256",
          "name": "",
          "type": "uint256"
        }
      ],
      "stateMutability": "view",
      "type": "function",
      "constant": true
    },
    {
      "inputs": [],
      "name": "accountStakingListLimit",
      "outputs": [
        {
          "internalType": "uint256",
          "name": "",
          "type": "uint256"
        }
      ],
      "stateMutability": "view",
      "type": "function",
      "constant": true
    },
    {
      "inputs": [],
      "name": "admin",
      "outputs": [
        {
          "internalType": "address",
          "name": "",
          "type": "address"
        }
      ],
      "stateMutability": "view",
      "type": "function",
      "constant": true
    },
    {
      "inputs": [],
      "name": "amount",
      "outputs": [
        {
          "internalType": "uint256",
          "name": "",
          "type": "uint256"
        }
      ],
      "stateMutability": "view",
      "type": "function",
      "constant": true
    },
    {
      "inputs": [
        {
          "internalType": "address",
          "name": "_user",
          "type": "address"
        }
      ],
      "name": "amountOf",
      "outputs": [
        {
          "internalType": "uint256",
          "name": "",
          "type": "uint256"
        }
      ],
      "stateMutability": "view",
      "type": "function",
      "constant": true
    },
    {
      "inputs": [],
      "name": "becomeAdmin",
      "outputs": [],
      "stateMutability": "nonpayable",
      "type": "function"
    },
    {
      "inputs": [],
      "name": "candidate",
      "outputs": [
        {
          "internalType": "address",
          "name": "",
          "type": "address"
        }
      ],
      "stateMutability": "view",
      "type": "function",
      "constant": true
    },
    {
      "inputs": [],
      "name": "claimRewardLockTime",
      "outputs": [
        {
          "internalType": "uint256",
          "name": "",
          "type": "uint256"
        }
      ],
      "stateMutability": "view",
      "type": "function",
      "constant": true
    },
    {
      "inputs": [],
      "name": "getPoolInfo",
      "outputs": [
        {
          "internalType": "uint256",
          "name": "",
          "type": "uint256"
        },
        {
          "internalType": "uint256",
          "name": "",
          "type": "uint256"
        },
        {
          "internalType": "uint256",
          "name": "",
          "type": "uint256"
        }
      ],
      "stateMutability": "view",
      "type": "function",
      "constant": true
    },
    {
      "inputs": [
        {
          "internalType": "address",
          "name": "_user",
          "type": "address"
        }
      ],
      "name": "getUserInfo",
      "outputs": [
        {
          "internalType": "uint256",
          "name": "",
          "type": "uint256"
        },
        {
          "internalType": "uint256",
          "name": "",
          "type": "uint256"
        },
        {
          "internalType": "uint256",
          "name": "",
          "type": "uint256"
        }
      ],
      "stateMutability": "view",
      "type": "function",
      "constant": true
    },
    {
      "inputs": [],
      "name": "linaToken",
      "outputs": [
        {
          "internalType": "contract IERC20",
          "name": "",
          "type": "address"
        }
      ],
      "stateMutability": "view",
      "type": "function",
      "constant": true
    },
    {
      "inputs": [],
      "name": "mEndBlock",
      "outputs": [
        {
          "internalType": "uint256",
          "name": "",
          "type": "uint256"
        }
      ],
      "stateMutability": "view",
      "type": "function",
      "constant": true
    },
    {
      "inputs": [],
      "name": "mOldAmount",
      "outputs": [
        {
          "internalType": "uint256",
          "name": "",
          "type": "uint256"
        }
      ],
      "stateMutability": "view",
      "type": "function",
      "constant": true
    },
    {
      "inputs": [
        {
          "internalType": "address",
          "name": "",
          "type": "address"
        }
      ],
      "name": "mOldReward",
      "outputs": [
        {
          "internalType": "uint256",
          "name": "",
          "type": "uint256"
        }
      ],
      "stateMutability": "view",
      "type": "function",
      "constant": true
    },
    {
      "inputs": [],
      "name": "mOldStaking",
      "outputs": [
        {
          "internalType": "address",
          "name": "",
          "type": "address"
        }
      ],
      "stateMutability": "view",
      "type": "function",
      "constant": true
    },
    {
      "inputs": [],
      "name": "mPoolInfo",
      "outputs": [
        {
          "internalType": "uint256",
          "name": "amount",
          "type": "uint256"
        },
        {
          "internalType": "uint256",
          "name": "lastRewardBlock",
          "type": "uint256"
        },
        {
          "internalType": "uint256",
          "name": "accRewardPerShare",
          "type": "uint256"
        }
      ],
      "stateMutability": "view",
      "type": "function",
      "constant": true
    },
    {
      "inputs": [],
      "name": "mWidthdrawRewardFromOldStaking",
      "outputs": [
        {
          "internalType": "uint256",
          "name": "",
          "type": "uint256"
        }
      ],
      "stateMutability": "view",
      "type": "function",
      "constant": true
    },
    {
      "inputs": [],
      "name": "minStakingAmount",
      "outputs": [
        {
          "internalType": "uint256",
          "name": "",
          "type": "uint256"
        }
      ],
      "stateMutability": "view",
      "type": "function",
      "constant": true
    },
    {
      "inputs": [],
      "name": "paused",
      "outputs": [
        {
          "internalType": "bool",
          "name": "",
          "type": "bool"
        }
      ],
      "stateMutability": "view",
      "type": "function",
      "constant": true
    },
    {
      "inputs": [],
      "name": "remainReward",
      "outputs": [
        {
          "internalType": "uint256",
          "name": "",
          "type": "uint256"
        }
      ],
      "stateMutability": "view",
      "type": "function",
      "constant": true
    },
    {
      "inputs": [
        {
          "internalType": "address",
          "name": "_user",
          "type": "address"
        }
      ],
      "name": "rewardOf",
      "outputs": [
        {
          "internalType": "uint256",
          "name": "",
          "type": "uint256"
        }
      ],
      "stateMutability": "view",
      "type": "function",
      "constant": true
    },
    {
      "inputs": [],
      "name": "rewardPerBlock",
      "outputs": [
        {
          "internalType": "uint256",
          "name": "",
          "type": "uint256"
        }
      ],
      "stateMutability": "view",
      "type": "function",
      "constant": true
    },
    {
      "inputs": [
        {
          "internalType": "address",
          "name": "_candidate",
          "type": "address"
        }
      ],
      "name": "setCandidate",
      "outputs": [],
      "stateMutability": "nonpayable",
      "type": "function"
    },
    {
      "inputs": [],
      "name": "stakingStorage",
      "outputs": [
        {
          "internalType": "contract LnLinearStakingStorage",
          "name": "",
          "type": "address"
        }
      ],
      "stateMutability": "view",
      "type": "function",
      "constant": true
    },
    {
      "inputs": [],
      "name": "startBlock",
      "outputs": [
        {
          "internalType": "uint256",
          "name": "",
          "type": "uint256"
        }
      ],
      "stateMutability": "view",
      "type": "function",
      "constant": true
    },
    {
      "inputs": [
        {
          "internalType": "address",
          "name": "",
          "type": "address"
        }
      ],
      "name": "userInfo",
      "outputs": [
        {
          "internalType": "uint256",
          "name": "reward",
          "type": "uint256"
        },
        {
          "internalType": "uint256",
          "name": "amount",
          "type": "uint256"
        },
        {
          "internalType": "uint256",
          "name": "rewardDebt",
          "type": "uint256"
        }
      ],
      "stateMutability": "view",
      "type": "function",
      "constant": true
    },
    {
      "inputs": [
        {
          "internalType": "address",
          "name": "_linaToken",
          "type": "address"
        }
      ],
      "name": "setLinaToken",
      "outputs": [],
      "stateMutability": "nonpayable",
      "type": "function"
    },
    {
      "inputs": [
        {
          "internalType": "bool",
          "name": "_paused",
          "type": "bool"
        }
      ],
      "name": "setPaused",
      "outputs": [],
      "stateMutability": "nonpayable",
      "type": "function"
    },
    {
      "inputs": [
        {
          "internalType": "address",
          "name": "_token",
          "type": "address"
        }
      ],
      "name": "setLinaTokenAddress",
      "outputs": [],
      "stateMutability": "nonpayable",
      "type": "function"
    },
    {
      "inputs": [
        {
          "internalType": "uint256",
          "name": "_limit",
          "type": "uint256"
        }
      ],
      "name": "setStakingListLimit",
      "outputs": [],
      "stateMutability": "nonpayable",
      "type": "function"
    },
    {
      "inputs": [
        {
          "internalType": "uint256",
          "name": "_minStakingAmount",
          "type": "uint256"
        }
      ],
      "name": "setMinStakingAmount",
      "outputs": [],
      "stateMutability": "nonpayable",
      "type": "function"
    },
    {
      "inputs": [
        {
          "internalType": "address",
          "name": "account",
          "type": "address"
        }
      ],
      "name": "stakingBalanceOf",
      "outputs": [
        {
          "internalType": "uint256",
          "name": "",
          "type": "uint256"
        }
      ],
      "stateMutability": "view",
      "type": "function",
      "constant": true
    },
    {
      "inputs": [
        {
          "internalType": "address",
          "name": "account",
          "type": "address"
        }
      ],
      "name": "getStakesdataLength",
      "outputs": [
        {
          "internalType": "uint256",
          "name": "",
          "type": "uint256"
        }
      ],
      "stateMutability": "view",
      "type": "function",
      "constant": true
    },
    {
      "inputs": [
        {
          "internalType": "address",
          "name": "contractAddr",
          "type": "address"
        },
        {
          "internalType": "uint256",
          "name": "amount",
          "type": "uint256"
        },
        {
          "internalType": "uint256",
          "name": "blockNb",
          "type": "uint256"
        }
      ],
      "name": "migrationsOldStaking",
      "outputs": [],
      "stateMutability": "nonpayable",
      "type": "function"
    },
    {
      "inputs": [
        {
          "internalType": "uint256",
          "name": "amount",
          "type": "uint256"
        }
      ],
      "name": "staking",
      "outputs": [
        {
          "internalType": "bool",
          "name": "",
          "type": "bool"
        }
      ],
      "stateMutability": "nonpayable",
      "type": "function"
    },
    {
      "inputs": [
        {
          "internalType": "uint256",
          "name": "amount",
          "type": "uint256"
        }
      ],
      "name": "cancelStaking",
      "outputs": [
        {
          "internalType": "bool",
          "name": "",
          "type": "bool"
        }
      ],
      "stateMutability": "nonpayable",
      "type": "function"
    },
    {
      "inputs": [
        {
          "internalType": "uint256",
          "name": "blockNb",
          "type": "uint256"
        },
        {
          "internalType": "address",
          "name": "_user",
          "type": "address"
        }
      ],
      "name": "getTotalReward",
      "outputs": [
        {
          "internalType": "uint256",
          "name": "total",
          "type": "uint256"
        }
      ],
      "stateMutability": "view",
      "type": "function",
      "constant": true
    },
    {
      "inputs": [],
      "name": "claim",
      "outputs": [
        {
          "internalType": "bool",
          "name": "",
          "type": "bool"
        }
      ],
      "stateMutability": "nonpayable",
      "type": "function"
    },
    {
      "inputs": [
        {
          "internalType": "uint256",
          "name": "newtime",
          "type": "uint256"
        }
      ],
      "name": "setRewardLockTime",
      "outputs": [],
      "stateMutability": "nonpayable",
      "type": "function"
    },
    {
      "inputs": [
        {
          "internalType": "uint256",
          "name": "curBlock",
          "type": "uint256"
        },
        {
          "internalType": "address",
          "name": "_user",
          "type": "address"
        }
      ],
      "name": "calcReward",
      "outputs": [
        {
          "internalType": "uint256",
          "name": "",
          "type": "uint256"
        }
      ],
      "stateMutability": "view",
      "type": "function",
      "constant": true
    }
  ],
  "bytecode": "0x608060405263609b8b006010556032601255670de0b6b3a764000060135534801561002957600080fd5b5060405162003c9438038062003c94833981810160405260c081101561004e57600080fd5b81019080805190602001909291908051906020019092919080519060200190929190805190602001909291908051906020019092919080519060200190929190505050828287600073ffffffffffffffffffffffffffffffffffffffff168173ffffffffffffffffffffffffffffffffffffffff161415610137576040517f08c379a00000000000000000000000000000000000000000000000000000000081526004018080602001828103825260198152602001807f61646d696e20616464726573732063616e6e6f7420626520300000000000000081525060200191505060405180910390fd5b806000806101000a81548173ffffffffffffffffffffffffffffffffffffffff021916908373ffffffffffffffffffffffffffffffffffffffff1602179055507f7e644d79422f17c01e4894b5f4f588d331ebfa28653d42ae832dc59e38c9798f600082604051808373ffffffffffffffffffffffffffffffffffffffff1681526020018273ffffffffffffffffffffffffffffffffffffffff1681526020019250505060405180910390a1506000600160146101000a81548160ff0219169083151502179055508160028190555080600781905550600754600360010181905550505084600a60006101000a81548173ffffffffffffffffffffffffffffffffffffffff021916908373ffffffffffffffffffffffffffffffffffffffff16021790555083600b60006101000a81548173ffffffffffffffffffffffffffffffffffffffff021916908373ffffffffffffffffffffffffffffffffffffffff16021790555080600c819055505050505050506139da80620002ba6000396000f3fe608060405234801561001057600080fd5b50600436106102535760003560e01c80636386c1c7116101465780639ab0388b116100c3578063c0e1f29611610087578063c0e1f296146109fa578063d4d12d6414610a18578063eb016e6414610a4c578063f851a44014610a6a578063f873ccb514610a9e578063fc13945114610abc57610253565b80639ab0388b14610918578063a16bd3121461095c578063aa8c217c1461097a578063b518a00e14610998578063bb4f1912146109cc57610253565b806385461f691161010a57806385461f69146107f65780638ae39cac1461085857806392fe2d6d14610876578063957c12ed1461089457806399fb7a8f146108ec57610253565b80636386c1c7146106cc5780636a8ab296146107325780636c8381f814610760578063758a99321461079457806379d5c0dd146107b257610253565b806325c065b1116101d4578063562975cb11610198578063562975cb146105dc5780635c975abb146105fa57806360246c881461061a578063612d669e1461064657806362e3efdd1461067457610253565b806325c065b1146104e457806332eec36a14610502578063378341991461054657806348cd4cb11461059e5780634e71d92d146105bc57610253565b80631d62ebd91161021b5780631d62ebd9146103a85780631dbb2a2214610400578063222bebd91461044457806324c208501461047857806325971dff146104da57610253565b806301608f5f1461025857806307880b7f146102b05780631485ff78146102f457806316c38b3c146103125780631959a00214610342575b600080fd5b61029a6004803603602081101561026e57600080fd5b81019080803573ffffffffffffffffffffffffffffffffffffffff169060200190929190505050610b14565b6040518082815260200191505060405180910390f35b6102f2600480360360208110156102c657600080fd5b81019080803573ffffffffffffffffffffffffffffffffffffffff169060200190929190505050610b60565b005b6102fc610cfd565b6040518082815260200191505060405180910390f35b6103406004803603602081101561032857600080fd5b81019080803515159060200190929190505050610d03565b005b6103846004803603602081101561035857600080fd5b81019080803573ffffffffffffffffffffffffffffffffffffffff169060200190929190505050610dc6565b60405180848152602001838152602001828152602001935050505060405180910390f35b6103ea600480360360208110156103be57600080fd5b81019080803573ffffffffffffffffffffffffffffffffffffffff169060200190929190505050610df0565b6040518082815260200191505060405180910390f35b61042c6004803603602081101561041657600080fd5b8101908080359060200190929190505050610e3c565b60405180821515815260200191505060405180910390f35b61044c611126565b604051808273ffffffffffffffffffffffffffffffffffffffff16815260200191505060405180910390f35b6104c46004803603604081101561048e57600080fd5b8101908080359060200190929190803573ffffffffffffffffffffffffffffffffffffffff16906020019092919050505061114c565b6040518082815260200191505060405180910390f35b6104e261146a565b005b6104ec611643565b6040518082815260200191505060405180910390f35b6105446004803603602081101561051857600080fd5b81019080803573ffffffffffffffffffffffffffffffffffffffff169060200190929190505050611649565b005b6105886004803603602081101561055c57600080fd5b81019080803573ffffffffffffffffffffffffffffffffffffffff169060200190929190505050611731565b6040518082815260200191505060405180910390f35b6105a6611749565b6040518082815260200191505060405180910390f35b6105c461174f565b60405180821515815260200191505060405180910390f35b6105e4611adb565b6040518082815260200191505060405180910390f35b610602611ae1565b60405180821515815260200191505060405180910390f35b610622611af8565b60405180848152602001838152602001828152602001935050505060405180910390f35b6106726004803603602081101561065c57600080fd5b8101908080359060200190929190505050611b1a565b005b6106b66004803603602081101561068a57600080fd5b81019080803573ffffffffffffffffffffffffffffffffffffffff169060200190929190505050611bc8565b6040518082815260200191505060405180910390f35b61070e600480360360208110156106e257600080fd5b81019080803573ffffffffffffffffffffffffffffffffffffffff169060200190929190505050611cb4565b60405180848152602001838152602001828152602001935050505060405180910390f35b61075e6004803603602081101561074857600080fd5b8101908080359060200190929190505050611d8f565b005b610768611e3d565b604051808273ffffffffffffffffffffffffffffffffffffffff16815260200191505060405180910390f35b61079c611e63565b6040518082815260200191505060405180910390f35b6107f4600480360360208110156107c857600080fd5b81019080803573ffffffffffffffffffffffffffffffffffffffff169060200190929190505050611e69565b005b6108426004803603604081101561080c57600080fd5b8101908080359060200190929190803573ffffffffffffffffffffffffffffffffffffffff169060200190929190505050611f51565b6040518082815260200191505060405180910390f35b610860611f65565b6040518082815260200191505060405180910390f35b61087e611f6b565b6040518082815260200191505060405180910390f35b6108ea600480360360608110156108aa57600080fd5b81019080803573ffffffffffffffffffffffffffffffffffffffff1690602001909291908035906020019092919080359060200190929190505050611f71565b005b6108f461206d565b60405180848152602001838152602001828152602001935050505060405180910390f35b6109446004803603602081101561092e57600080fd5b8101908080359060200190929190505050612085565b60405180821515815260200191505060405180910390f35b6109646121e1565b6040518082815260200191505060405180910390f35b6109826121e7565b6040518082815260200191505060405180910390f35b6109a06121f4565b604051808273ffffffffffffffffffffffffffffffffffffffff16815260200191505060405180910390f35b6109f8600480360360208110156109e257600080fd5b810190808035906020019092919050505061221a565b005b610a026122c8565b6040518082815260200191505060405180910390f35b610a206122d6565b604051808273ffffffffffffffffffffffffffffffffffffffff16815260200191505060405180910390f35b610a546122fc565b6040518082815260200191505060405180910390f35b610a72612302565b604051808273ffffffffffffffffffffffffffffffffffffffff16815260200191505060405180910390f35b610aa6612326565b6040518082815260200191505060405180910390f35b610afe60048036036020811015610ad257600080fd5b81019080803573ffffffffffffffffffffffffffffffffffffffff16906020019092919050505061232c565b6040518082815260200191505060405180910390f35b6000600660008373ffffffffffffffffffffffffffffffffffffffff1673ffffffffffffffffffffffffffffffffffffffff168152602001908152602001600020600101549050919050565b60008054906101000a900473ffffffffffffffffffffffffffffffffffffffff1673ffffffffffffffffffffffffffffffffffffffff163373ffffffffffffffffffffffffffffffffffffffff1614610c04576040517f08c379a000000000000000000000000000000000000000000000000000000000815260040180806020018281038252602f815260200180613954602f913960400191505060405180910390fd5b6000600160009054906101000a900473ffffffffffffffffffffffffffffffffffffffff16905081600160006101000a81548173ffffffffffffffffffffffffffffffffffffffff021916908373ffffffffffffffffffffffffffffffffffffffff1602179055507f0faed18be9e8f4d4c05dfbcc80ea2c97a0be729614d766827778f60890c02cab81600160009054906101000a900473ffffffffffffffffffffffffffffffffffffffff16604051808373ffffffffffffffffffffffffffffffffffffffff1681526020018273ffffffffffffffffffffffffffffffffffffffff1681526020019250505060405180910390a15050565b60085481565b60008054906101000a900473ffffffffffffffffffffffffffffffffffffffff1673ffffffffffffffffffffffffffffffffffffffff163373ffffffffffffffffffffffffffffffffffffffff1614610da7576040517f08c379a000000000000000000000000000000000000000000000000000000000815260040180806020018281038252602f815260200180613954602f913960400191505060405180910390fd5b8015610dba57610db56123f9565b610dc3565b610dc26124ec565b5b50565b60066020528060005260406000206000915090508060000154908060010154908060020154905083565b6000600660008373ffffffffffffffffffffffffffffffffffffffff1673ffffffffffffffffffffffffffffffffffffffff168152602001908152602001600020600001549050919050565b6000600160149054906101000a900460ff1615610ec1576040517f08c379a00000000000000000000000000000000000000000000000000000000081526004018080602001828103825260108152602001807f5061757361626c653a207061757365640000000000000000000000000000000081525060200191505060405180910390fd5b600b60009054906101000a900473ffffffffffffffffffffffffffffffffffffffff1673ffffffffffffffffffffffffffffffffffffffff1663fff9413c6040518163ffffffff1660e01b815260040160006040518083038186803b158015610f2957600080fd5b505afa158015610f3d573d6000803e3d6000fd5b50505050601354821015610fb9576040517f08c379a00000000000000000000000000000000000000000000000000000000081526004018080602001828103825260198152602001807f5374616b696e6720616d6f756e7420746f6f20736d616c6c2e0000000000000081525060200191505060405180910390fd5b600a60009054906101000a900473ffffffffffffffffffffffffffffffffffffffff1673ffffffffffffffffffffffffffffffffffffffff166323b872dd3330856040518463ffffffff1660e01b8152600401808473ffffffffffffffffffffffffffffffffffffffff1681526020018373ffffffffffffffffffffffffffffffffffffffff1681526020018281526020019350505050602060405180830381600087803b15801561106a57600080fd5b505af115801561107e573d6000803e3d6000fd5b505050506040513d602081101561109457600080fd5b8101908080519060200190929190505050506000439050600c548111156110bb57600c5490505b6110c68133856125df565b3373ffffffffffffffffffffffffffffffffffffffff167fa7cce4e8ff59a515dccbee3a6382e94deb1db79bdb43cf35a51251d41ea395f08442604051808381526020018281526020019250505060405180910390a26001915050919050565b600a60009054906101000a900473ffffffffffffffffffffffffffffffffffffffff1681565b6000600c5483111561115e57600c5492505b601160008373ffffffffffffffffffffffffffffffffffffffff1673ffffffffffffffffffffffffffffffffffffffff1681526020019081526020016000205490506000805b600b60009054906101000a900473ffffffffffffffffffffffffffffffffffffffff1673ffffffffffffffffffffffffffffffffffffffff1663fc139451856040518263ffffffff1660e01b8152600401808273ffffffffffffffffffffffffffffffffffffffff16815260200191505060206040518083038186803b15801561122d57600080fd5b505afa158015611241573d6000803e3d6000fd5b505050506040513d602081101561125757600080fd5b810190808051906020019092919050505081101561136c576000600b60009054906101000a900473ffffffffffffffffffffffffffffffffffffffff1673ffffffffffffffffffffffffffffffffffffffff16637ee7b56a86846040518363ffffffff1660e01b8152600401808373ffffffffffffffffffffffffffffffffffffffff16815260200182815260200192505050604080518083038186803b15801561130157600080fd5b505afa158015611315573d6000803e3d6000fd5b505050506040513d604081101561132b57600080fd5b81019080805190602001909291908051906020019092919050505050905061135c818461276890919063ffffffff16565b92505080806001019150506111a4565b50600081111561143f5760006113a3600d60009054906101000a900473ffffffffffffffffffffffffffffffffffffffff16610b14565b905060006114258261141785611409600f5460405180606001604052806024815260200161390f602491396113fa8d600d60009054906101000a900473ffffffffffffffffffffffffffffffffffffffff166127f0565b6129bc9092919063ffffffff16565b612a7c90919063ffffffff16565b612b0290919063ffffffff16565b905061143a818561276890919063ffffffff16565b935050505b600061144b85856127f0565b9050611460818461276890919063ffffffff16565b9250505092915050565b600160009054906101000a900473ffffffffffffffffffffffffffffffffffffffff1673ffffffffffffffffffffffffffffffffffffffff163373ffffffffffffffffffffffffffffffffffffffff161461152d576040517f08c379a000000000000000000000000000000000000000000000000000000000815260040180806020018281038252601f8152602001807f4f6e6c792063616e6469646174652063616e206265636f6d652061646d696e0081525060200191505060405180910390fd5b60008060009054906101000a900473ffffffffffffffffffffffffffffffffffffffff169050600160009054906101000a900473ffffffffffffffffffffffffffffffffffffffff166000806101000a81548173ffffffffffffffffffffffffffffffffffffffff021916908373ffffffffffffffffffffffffffffffffffffffff1602179055507f7e644d79422f17c01e4894b5f4f588d331ebfa28653d42ae832dc59e38c9798f8160008054906101000a900473ffffffffffffffffffffffffffffffffffffffff16604051808373ffffffffffffffffffffffffffffffffffffffff1681526020018273ffffffffffffffffffffffffffffffffffffffff1681526020019250505060405180910390a150565b60135481565b60008054906101000a900473ffffffffffffffffffffffffffffffffffffffff1673ffffffffffffffffffffffffffffffffffffffff163373ffffffffffffffffffffffffffffffffffffffff16146116ed576040517f08c379a000000000000000000000000000000000000000000000000000000000815260040180806020018281038252602f815260200180613954602f913960400191505060405180910390fd5b80600a60006101000a81548173ffffffffffffffffffffffffffffffffffffffff021916908373ffffffffffffffffffffffffffffffffffffffff16021790555050565b60116020528060005260406000206000915090505481565b60075481565b6000600160149054906101000a900460ff16156117d4576040517f08c379a00000000000000000000000000000000000000000000000000000000081526004018080602001828103825260108152602001807f5061757361626c653a207061757365640000000000000000000000000000000081525060200191505060405180910390fd5b601054421161184b576040517f08c379a00000000000000000000000000000000000000000000000000000000081526004018080602001828103825260188152602001807f4e6f742074696d6520746f20636c61696d20726577617264000000000000000081525060200191505060405180910390fd5b6000600b60009054906101000a900473ffffffffffffffffffffffffffffffffffffffff1673ffffffffffffffffffffffffffffffffffffffff166362e3efdd336040518263ffffffff1660e01b8152600401808273ffffffffffffffffffffffffffffffffffffffff16815260200191505060206040518083038186803b1580156118d657600080fd5b505afa1580156118ea573d6000803e3d6000fd5b505050506040513d602081101561190057600080fd5b81019080805190602001909291905050509050600061191e33610b14565b905061193c33611937838561276890919063ffffffff16565b612b4c565b600061194a600c543361114c565b905061195533613163565b6000601160003373ffffffffffffffffffffffffffffffffffffffff1673ffffffffffffffffffffffffffffffffffffffff16815260200190815260200160002081905550600a60009054906101000a900473ffffffffffffffffffffffffffffffffffffffff1673ffffffffffffffffffffffffffffffffffffffff1663a9059cbb33836040518363ffffffff1660e01b8152600401808373ffffffffffffffffffffffffffffffffffffffff16815260200182815260200192505050602060405180830381600087803b158015611a2d57600080fd5b505af1158015611a41573d6000803e3d6000fd5b505050506040513d6020811015611a5757600080fd5b8101908080519060200190929190505050503373ffffffffffffffffffffffffffffffffffffffff167f34fcbac0073d7c3d388e51312faf357774904998eeb8fca628b9e6f65ee1cbf782611ab5858761276890919063ffffffff16565b604051808381526020018281526020019250505060405180910390a26001935050505090565b60095481565b6000600160149054906101000a900460ff16905090565b6000806000600360000154600360010154600360020154925092509250909192565b60008054906101000a900473ffffffffffffffffffffffffffffffffffffffff1673ffffffffffffffffffffffffffffffffffffffff163373ffffffffffffffffffffffffffffffffffffffff1614611bbe576040517f08c379a000000000000000000000000000000000000000000000000000000000815260040180806020018281038252602f815260200180613954602f913960400191505060405180910390fd5b8060138190555050565b600080611ca9600b60009054906101000a900473ffffffffffffffffffffffffffffffffffffffff1673ffffffffffffffffffffffffffffffffffffffff166362e3efdd856040518263ffffffff1660e01b8152600401808273ffffffffffffffffffffffffffffffffffffffff16815260200191505060206040518083038186803b158015611c5757600080fd5b505afa158015611c6b573d6000803e3d6000fd5b505050506040513d6020811015611c8157600080fd5b8101908080519060200190929190505050611c9b85610b14565b61276890919063ffffffff16565b905080915050919050565b6000806000600660008573ffffffffffffffffffffffffffffffffffffffff1673ffffffffffffffffffffffffffffffffffffffff16815260200190815260200160002060000154600660008673ffffffffffffffffffffffffffffffffffffffff1673ffffffffffffffffffffffffffffffffffffffff16815260200190815260200160002060010154600660008773ffffffffffffffffffffffffffffffffffffffff1673ffffffffffffffffffffffffffffffffffffffff168152602001908152602001600020600201549250925092509193909250565b60008054906101000a900473ffffffffffffffffffffffffffffffffffffffff1673ffffffffffffffffffffffffffffffffffffffff163373ffffffffffffffffffffffffffffffffffffffff1614611e33576040517f08c379a000000000000000000000000000000000000000000000000000000000815260040180806020018281038252602f815260200180613954602f913960400191505060405180910390fd5b8060128190555050565b600160009054906101000a900473ffffffffffffffffffffffffffffffffffffffff1681565b600f5481565b60008054906101000a900473ffffffffffffffffffffffffffffffffffffffff1673ffffffffffffffffffffffffffffffffffffffff163373ffffffffffffffffffffffffffffffffffffffff1614611f0d576040517f08c379a000000000000000000000000000000000000000000000000000000000815260040180806020018281038252602f815260200180613954602f913960400191505060405180910390fd5b80600a60006101000a81548173ffffffffffffffffffffffffffffffffffffffff021916908373ffffffffffffffffffffffffffffffffffffffff16021790555050565b6000611f5d83836127f0565b905092915050565b60025481565b600e5481565b60008054906101000a900473ffffffffffffffffffffffffffffffffffffffff1673ffffffffffffffffffffffffffffffffffffffff163373ffffffffffffffffffffffffffffffffffffffff1614612015576040517f08c379a000000000000000000000000000000000000000000000000000000000815260040180806020018281038252602f815260200180613954602f913960400191505060405180910390fd5b6120208184846125df565b82600d60006101000a81548173ffffffffffffffffffffffffffffffffffffffff021916908373ffffffffffffffffffffffffffffffffffffffff16021790555081600e81905550505050565b60038060000154908060010154908060020154905083565b6000600160149054906101000a900460ff161561210a576040517f08c379a00000000000000000000000000000000000000000000000000000000081526004018080602001828103825260108152602001807f5061757361626c653a207061757365640000000000000000000000000000000081525060200191505060405180910390fd5b60008211612180576040517f08c379a000000000000000000000000000000000000000000000000000000000815260040180806020018281038252600f8152602001807f496e76616c696420616d6f756e742e000000000000000000000000000000000081525060200191505060405180910390fd5b61218a3383612b4c565b3373ffffffffffffffffffffffffffffffffffffffff167fcac6a9d108b4882699e5afc7402d86f41e4bae2981b76023107009d1fc2b11a3836040518082815260200191505060405180910390a260019050919050565b60105481565b6000600360000154905090565b600b60009054906101000a900473ffffffffffffffffffffffffffffffffffffffff1681565b60008054906101000a900473ffffffffffffffffffffffffffffffffffffffff1673ffffffffffffffffffffffffffffffffffffffff163373ffffffffffffffffffffffffffffffffffffffff16146122be576040517f08c379a000000000000000000000000000000000000000000000000000000000815260040180806020018281038252602f815260200180613954602f913960400191505060405180910390fd5b8060108190555050565b69152d02c7e14af680000081565b600d60009054906101000a900473ffffffffffffffffffffffffffffffffffffffff1681565b600c5481565b60008054906101000a900473ffffffffffffffffffffffffffffffffffffffff1681565b60125481565b6000600b60009054906101000a900473ffffffffffffffffffffffffffffffffffffffff1673ffffffffffffffffffffffffffffffffffffffff1663fc139451836040518263ffffffff1660e01b8152600401808273ffffffffffffffffffffffffffffffffffffffff16815260200191505060206040518083038186803b1580156123b757600080fd5b505afa1580156123cb573d6000803e3d6000fd5b505050506040513d60208110156123e157600080fd5b81019080805190602001909291905050509050919050565b600160149054906101000a900460ff161561247c576040517f08c379a00000000000000000000000000000000000000000000000000000000081526004018080602001828103825260108152602001807f5061757361626c653a207061757365640000000000000000000000000000000081525060200191505060405180910390fd5b60018060146101000a81548160ff0219169083151502179055507f62e78cea01bee320cd4e420270b5ea74000d11b0c9f74754ebdbfc544b05a2586124bf6131c2565b604051808273ffffffffffffffffffffffffffffffffffffffff16815260200191505060405180910390a1565b600160149054906101000a900460ff1661256e576040517f08c379a00000000000000000000000000000000000000000000000000000000081526004018080602001828103825260148152602001807f5061757361626c653a206e6f742070617573656400000000000000000000000081525060200191505060405180910390fd5b6000600160146101000a81548160ff0219169083151502179055507f5db9ee0a495bf2e6ff9c91a7834c1ba4fdd244a5e8aa4e537bd38aeae4b073aa6125b26131c2565b604051808273ffffffffffffffffffffffffffffffffffffffff16815260200191505060405180910390a1565b6000600390506000600660008573ffffffffffffffffffffffffffffffffffffffff1673ffffffffffffffffffffffffffffffffffffffff1681526020019081526020016000209050612631856131ca565b6000816001015411156126db5760006126c382600201546040518060400160405280601d81526020017f5f6465706f7369742070656e64696e6720737562206f766572666c6f770000008152506126b468056bc75e2d631000006126a688600201548860010154612a7c90919063ffffffff16565b612b0290919063ffffffff16565b6129bc9092919063ffffffff16565b905060008111156126d9576126d88282613301565b5b505b6000831115612723576126fb83826001015461276890919063ffffffff16565b816001018190555061271a83836000015461276890919063ffffffff16565b82600001819055505b61275968056bc75e2d6310000061274b84600201548460010154612a7c90919063ffffffff16565b612b0290919063ffffffff16565b81600201819055505050505050565b6000808284019050838110156127e6576040517f08c379a000000000000000000000000000000000000000000000000000000000815260040180806020018281038252601b8152602001807f536166654d6174683a206164646974696f6e206f766572666c6f77000000000081525060200191505060405180910390fd5b8091505092915050565b600080600390506000600660008573ffffffffffffffffffffffffffffffffffffffff1673ffffffffffffffffffffffffffffffffffffffff1681526020019081526020016000209050600082600201549050600083600001549050836001015487118015612860575060008114155b156129155760006128b585600101546040518060400160405280601881526020017f637220637572426c6f636b20737562206f766572666c6f7700000000000000008152508a6129bc9092919063ffffffff16565b905060006128ce60025483612a7c90919063ffffffff16565b9050612910612901846128f368056bc75e2d6310000085612a7c90919063ffffffff16565b612b0290919063ffffffff16565b8561276890919063ffffffff16565b935050505b600061299684600201546040518060400160405280601981526020017f6372206e657752657761726420737562206f766572666c6f770000000000000081525061298768056bc75e2d63100000612979888a60010154612a7c90919063ffffffff16565b612b0290919063ffffffff16565b6129bc9092919063ffffffff16565b90506129af84600001548261276890919063ffffffff16565b9550505050505092915050565b6000838311158290612a69576040517f08c379a00000000000000000000000000000000000000000000000000000000081526004018080602001828103825283818151815260200191508051906020019080838360005b83811015612a2e578082015181840152602081019050612a13565b50505050905090810190601f168015612a5b5780820380516001836020036101000a031916815260200191505b509250505060405180910390fd5b5060008385039050809150509392505050565b600080831415612a8f5760009050612afc565b6000828402905082848281612aa057fe5b0414612af7576040517f08c379a00000000000000000000000000000000000000000000000000000000081526004018080602001828103825260218152602001806139336021913960400191505060405180910390fd5b809150505b92915050565b6000612b4483836040518060400160405280601a81526020017f536166654d6174683a206469766973696f6e206279207a65726f000000000000815250613386565b905092915050565b6000439050600c54811115612b6157600c5490505b60008290506000612b7185610b14565b9050838110612b8e57612b8583868661344c565b6000935061307b565b6000811115612bd257612ba283868361344c565b612bcf8160405180606001604052806022815260200161389f60229139866129bc9092919063ffffffff16565b93505b6000600b60009054906101000a900473ffffffffffffffffffffffffffffffffffffffff1673ffffffffffffffffffffffffffffffffffffffff1663fc139451876040518263ffffffff1660e01b8152600401808273ffffffffffffffffffffffffffffffffffffffff16815260200191505060206040518083038186803b158015612c5d57600080fd5b505afa158015612c71573d6000803e3d6000fd5b505050506040513d6020811015612c8757600080fd5b810190808051906020019092919050505090505b6001811061307957600080600b60009054906101000a900473ffffffffffffffffffffffffffffffffffffffff1673ffffffffffffffffffffffffffffffffffffffff16637ee7b56a89600186036040518363ffffffff1660e01b8152600401808373ffffffffffffffffffffffffffffffffffffffff16815260200182815260200192505050604080518083038186803b158015612d3957600080fd5b505afa158015612d4d573d6000803e3d6000fd5b505050506040513d6040811015612d6357600080fd5b81019080805190602001909291908051906020019092919050505091509150818710612eff57612db68260405180606001604052806022815260200161389f60229139896129bc9092919063ffffffff16565b9650600b60009054906101000a900473ffffffffffffffffffffffffffffffffffffffff1673ffffffffffffffffffffffffffffffffffffffff166342e10bc6896040518263ffffffff1660e01b8152600401808273ffffffffffffffffffffffffffffffffffffffff168152602001915050600060405180830381600087803b158015612e4357600080fd5b505af1158015612e57573d6000803e3d6000fd5b50505050600b60009054906101000a900473ffffffffffffffffffffffffffffffffffffffff1673ffffffffffffffffffffffffffffffffffffffff1663b331714182846040518363ffffffff1660e01b81526004018083815260200182815260200192505050600060405180830381600087803b158015612ed857600080fd5b505af1158015612eec573d6000803e3d6000fd5b50505050612efa8883613675565b613059565b600b60009054906101000a900473ffffffffffffffffffffffffffffffffffffffff1673ffffffffffffffffffffffffffffffffffffffff16630cf1126689600186038a6040518463ffffffff1660e01b8152600401808473ffffffffffffffffffffffffffffffffffffffff1681526020018381526020018281526020019350505050600060405180830381600087803b158015612f9d57600080fd5b505af1158015612fb1573d6000803e3d6000fd5b50505050600b60009054906101000a900473ffffffffffffffffffffffffffffffffffffffff1673ffffffffffffffffffffffffffffffffffffffff1663b331714182896040518363ffffffff1660e01b81526004018083815260200182815260200192505050600060405180830381600087803b15801561303257600080fd5b505af1158015613046573d6000803e3d6000fd5b505050506130548888613675565b600096505b6000871415613069575050613079565b5050808060019003915050612c9b565b505b600a60009054906101000a900473ffffffffffffffffffffffffffffffffffffffff1673ffffffffffffffffffffffffffffffffffffffff1663a9059cbb336130cd878661385490919063ffffffff16565b6040518363ffffffff1660e01b8152600401808373ffffffffffffffffffffffffffffffffffffffff16815260200182815260200192505050602060405180830381600087803b15801561312057600080fd5b505af1158015613134573d6000803e3d6000fd5b505050506040513d602081101561314a57600080fd5b8101908080519060200190929190505050505050505050565b6000600660008373ffffffffffffffffffffffffffffffffffffffff1673ffffffffffffffffffffffffffffffffffffffff16815260200190815260200160002090506000816000015411156131be57600081600001819055505b5050565b600033905090565b600060039050806001015482116131e157506132fe565b60008160000154905060008114156132035782826001018190555050506132fe565b600061325383600101546040518060400160405280601d81526020017f5f75706461746520637572426c6f636b20737562206f766572666c6f77000000815250866129bc9092919063ffffffff16565b9050600061326c60025483612a7c90919063ffffffff16565b90506132838160085461276890919063ffffffff16565b60088190555061329e8160095461276890919063ffffffff16565b6009819055506132e86132d5846132c768056bc75e2d6310000085612a7c90919063ffffffff16565b612b0290919063ffffffff16565b856002015461276890919063ffffffff16565b8460020181905550848460010181905550505050505b50565b6008548111156133115760085490505b61335d816040518060400160405280602081526020017f7265776172642072656d61696e52657761726420737562206f766572666c6f778152506008546129bc9092919063ffffffff16565b60088190555061337a81836000015461276890919063ffffffff16565b82600001819055505050565b60008083118290613432576040517f08c379a00000000000000000000000000000000000000000000000000000000081526004018080602001828103825283818151815260200191508051906020019080838360005b838110156133f75780820151818401526020810190506133dc565b50505050905090810190601f1680156134245780820380516001836020036101000a031916815260200191505b509250505060405180910390fd5b50600083858161343e57fe5b049050809150509392505050565b6000600390506000600660008573ffffffffffffffffffffffffffffffffffffffff1673ffffffffffffffffffffffffffffffffffffffff1681526020019081526020016000209050828160010154101561350f576040517f08c379a00000000000000000000000000000000000000000000000000000000081526004018080602001828103825260138152602001807f5f77697468647261773a206e6f7420676f6f640000000000000000000000000081525060200191505060405180910390fd5b613518856131ca565b600061359d82600201546040518060400160405280601e81526020017f5f77697468647261772070656e64696e6720737562206f766572666c6f77000081525061358e68056bc75e2d6310000061358088600201548860010154612a7c90919063ffffffff16565b612b0290919063ffffffff16565b6129bc9092919063ffffffff16565b905060008111156135b3576135b28282613301565b5b600084111561362f576135ed846040518060600160405280602281526020016138ed6022913984600101546129bc9092919063ffffffff16565b8260010181905550613626846040518060600160405280602281526020016139836022913985600001546129bc9092919063ffffffff16565b83600001819055505b61366568056bc75e2d6310000061365785600201548560010154612a7c90919063ffffffff16565b612b0290919063ffffffff16565b8260020181905550505050505050565b6000439050600c5481111561368a57600c5490505b60006136b7600d60009054906101000a900473ffffffffffffffffffffffffffffffffffffffff16610b14565b90506136e682600d60009054906101000a900473ffffffffffffffffffffffffffffffffffffffff168561344c565b600061379b68056bc75e2d6310000061378d8461377f68056bc75e2d631000006137718a613763600f546040518060600160405280602c81526020016138c1602c9139613754600d60009054906101000a900473ffffffffffffffffffffffffffffffffffffffff16610df0565b6129bc9092919063ffffffff16565b612a7c90919063ffffffff16565b612a7c90919063ffffffff16565b612b0290919063ffffffff16565b612b0290919063ffffffff16565b90506137b281600f5461276890919063ffffffff16565b600f8190555061380a81601160008873ffffffffffffffffffffffffffffffffffffffff1673ffffffffffffffffffffffffffffffffffffffff1681526020019081526020016000205461276890919063ffffffff16565b601160008773ffffffffffffffffffffffffffffffffffffffff1673ffffffffffffffffffffffffffffffffffffffff168152602001908152602001600020819055505050505050565b600061389683836040518060400160405280601e81526020017f536166654d6174683a207375627472616374696f6e206f766572666c6f7700008152506129bc565b90509291505056fe5f63616e63656c5374616b696e6720616d6f756e7420737562206f766572666c6f775f77696474686472617746726f6d4f6c645374616b696e672072657761726420737562206f766572666c6f775f776974686472617720757365722e616d6f756e7420737562206f766572666c6f77676574546f74616c52657761726420695265776172643220737562206f766572666c6f77536166654d6174683a206d756c7469706c69636174696f6e206f766572666c6f774f6e6c792074686520636f6e74726163742061646d696e2063616e20706572666f726d207468697320616374696f6e5f776974686472617720706f6f6c2e616d6f756e7420737562206f766572666c6f77a2646970667358221220125efc83f8d24d6c3aa682d93091b2656841c4b47169a7d250800c940d385c9064736f6c634300060c0033",
  "immutableReferences": {},
  "source": "// SPDX-License-Identifier: MIT\r\npragma solidity ^0.6.12;\r\n\r\nimport \"./IERC20.sol\";\r\nimport \"./LnAdmin.sol\";\r\nimport \"./LnOperatorModifier.sol\";\r\nimport \"@openzeppelin/contracts/math/SafeMath.sol\";\r\nimport \"@openzeppelin/contracts/utils/Pausable.sol\";\r\nimport \"./LnAccessControl.sol\";\r\nimport \"./LnLinearStaking.sol\";\r\nimport \"./SafeDecimalMath.sol\";\r\n\r\n\r\ncontract LnRewardCalculator  {\r\n    using SafeMath for uint256;\r\n\r\n    struct UserInfo {\r\n        uint256 reward;\r\n        uint256 amount;     \r\n        uint256 rewardDebt; \r\n    }\r\n\r\n    struct PoolInfo {\r\n        uint256 amount;           \r\n        uint256 lastRewardBlock;  \r\n        uint256 accRewardPerShare;\r\n    }\r\n\r\n    uint256 public rewardPerBlock;\r\n\r\n    PoolInfo public mPoolInfo;\r\n    mapping (address => UserInfo) public userInfo;\r\n\r\n    uint256 public startBlock;\r\n    uint256 public remainReward;\r\n    uint256 public accReward;\r\n\r\n    constructor( uint256 _rewardPerBlock, uint256 _startBlock ) public {\r\n        rewardPerBlock = _rewardPerBlock;\r\n        startBlock = _startBlock;\r\n        mPoolInfo.lastRewardBlock = startBlock;\r\n    }\r\n\r\n\r\n    function _calcReward( uint256 curBlock, address _user) internal view returns (uint256) {\r\n        PoolInfo storage pool = mPoolInfo;\r\n        UserInfo storage user = userInfo[_user];\r\n        uint256 accRewardPerShare = pool.accRewardPerShare;\r\n        uint256 lpSupply = pool.amount;\r\n        if (curBlock > pool.lastRewardBlock && lpSupply != 0) {\r\n            uint256 multiplier = curBlock.sub( pool.lastRewardBlock, \"cr curBlock sub overflow\" );\r\n            uint256 curReward = multiplier.mul(rewardPerBlock);\r\n            accRewardPerShare = accRewardPerShare.add(curReward.mul(1e20).div(lpSupply));\r\n        }\r\n        uint newReward = user.amount.mul(accRewardPerShare).div(1e20).sub(user.rewardDebt, \"cr newReward sub overflow\");\r\n        return newReward.add( user.reward );\r\n    }\r\n\r\n\r\n    function rewardOf( address _user ) public view returns( uint256 ){\r\n        return userInfo[_user].reward;\r\n    }\r\n\r\n\r\n    function amount( ) public view returns( uint256 ){\r\n        return mPoolInfo.amount;\r\n    }\r\n\r\n    function amountOf( address _user ) public view returns( uint256 ){\r\n        return userInfo[_user].amount;\r\n    }\r\n\r\n    function getUserInfo(address _user) public view returns(uint256,uint256,uint256) {\r\n        return (userInfo[_user].reward, userInfo[_user].amount, userInfo[_user].rewardDebt);\r\n    }\r\n\r\n    function getPoolInfo() public view returns(uint256,uint256,uint256) {\r\n        return (mPoolInfo.amount, mPoolInfo.lastRewardBlock, mPoolInfo.accRewardPerShare);\r\n    }\r\n\r\n    function _update( uint256 curBlock ) internal {\r\n        PoolInfo storage pool = mPoolInfo;\r\n        if (curBlock <= pool.lastRewardBlock) {\r\n            return;\r\n        }\r\n        uint256 lpSupply = pool.amount;\r\n        if (lpSupply == 0) {\r\n            pool.lastRewardBlock = curBlock;\r\n            return;\r\n        }\r\n        uint256 multiplier = curBlock.sub( pool.lastRewardBlock, \"_update curBlock sub overflow\" );\r\n        uint256 curReward = multiplier.mul(rewardPerBlock);\r\n        \r\n        remainReward = remainReward.add( curReward );\r\n        accReward = accReward.add( curReward );\r\n\r\n        pool.accRewardPerShare = pool.accRewardPerShare.add(curReward.mul(1e20).div(lpSupply));\r\n        pool.lastRewardBlock = curBlock;\r\n    }\r\n\r\n    function _deposit( uint256 curBlock, address _addr, uint256 _amount) internal {\r\n        PoolInfo storage pool = mPoolInfo;\r\n        UserInfo storage user = userInfo[ _addr];\r\n        _update( curBlock );\r\n        if (user.amount > 0) {\r\n            uint256 pending = user.amount.mul(pool.accRewardPerShare).div(1e20).sub(user.rewardDebt, \"_deposit pending sub overflow\");\r\n            if(pending > 0) {\r\n                reward( user, pending );\r\n            }\r\n        }\r\n        if(_amount > 0) {\r\n            user.amount = user.amount.add(_amount);\r\n            pool.amount = pool.amount.add(_amount);\r\n        }\r\n        user.rewardDebt = user.amount.mul(pool.accRewardPerShare).div(1e20);\r\n    }\r\n\r\n    function _withdraw( uint256 curBlock, address _addr, uint256 _amount) internal {\r\n        PoolInfo storage pool = mPoolInfo;\r\n        UserInfo storage user = userInfo[_addr];\r\n        require(user.amount >= _amount, \"_withdraw: not good\");\r\n        _update( curBlock );\r\n        uint256 pending = user.amount.mul(pool.accRewardPerShare).div(1e20).sub(user.rewardDebt, \"_withdraw pending sub overflow\");\r\n        if(pending > 0) {\r\n            reward( user, pending );\r\n        }\r\n        if(_amount > 0) {\r\n            user.amount = user.amount.sub(_amount, \"_withdraw user.amount sub overflow\");\r\n            pool.amount = pool.amount.sub(_amount, \"_withdraw pool.amount sub overflow\");\r\n        }\r\n        user.rewardDebt = user.amount.mul(pool.accRewardPerShare).div(1e20);\r\n    }\r\n\r\n    function reward( UserInfo storage user, uint256 _amount) internal {\r\n        if (_amount > remainReward) {\r\n            _amount = remainReward;\r\n        }\r\n        remainReward = remainReward.sub( _amount, \"reward remainReward sub overflow\");\r\n        user.reward = user.reward.add( _amount );\r\n    }\r\n\r\n    function _claim( address _addr ) internal {\r\n        UserInfo storage user = userInfo[_addr];\r\n        if( user.reward > 0 )\r\n        {\r\n            user.reward = 0;\r\n        }\r\n    }\r\n\r\n}\r\n\r\ncontract LnRewardCalculatorTest is LnRewardCalculator{\r\n    constructor( uint256 _rewardPerBlock, uint256 _startBlock ) public \r\n        LnRewardCalculator( _rewardPerBlock, _startBlock ) {\r\n    }\r\n\r\n    function deposit( uint256 curBlock, address _addr, uint256 _amount) public {\r\n        _deposit( curBlock, _addr, _amount );\r\n    }\r\n\r\n    function withdraw( uint256 curBlock, address _addr, uint256 _amount) public {\r\n        _withdraw( curBlock, _addr, _amount );\r\n    }\r\n    function calcReward( uint256 curBlock, address _user) public view returns (uint256) {\r\n        return _calcReward( curBlock, _user);\r\n    }\r\n\r\n}\r\n\r\n\r\ncontract LnSimpleStaking is LnAdmin, Pausable, ILinearStaking, LnRewardCalculator {\r\n    using SafeMath for uint256;\r\n    using SafeDecimalMath for uint256;\r\n\r\n    IERC20 public linaToken; // lina token proxy address\r\n    LnLinearStakingStorage public stakingStorage;\r\n    uint256 public mEndBlock;\r\n    address public mOldStaking;\r\n    uint256 public mOldAmount;\r\n    uint256 public mWidthdrawRewardFromOldStaking;\r\n\r\n    uint256 public claimRewardLockTime = 1620806400; // 2021-5-12\r\n\r\n    mapping (address => uint ) public mOldReward;\r\n\r\n    constructor(\r\n        address _admin,\r\n        address _linaToken,\r\n        address _storage, uint256 _rewardPerBlock, uint256 _startBlock, uint256 _endBlock ) \r\n            public LnAdmin(_admin) LnRewardCalculator(_rewardPerBlock, _startBlock ){\r\n        linaToken = IERC20(_linaToken);\r\n        stakingStorage = LnLinearStakingStorage(_storage);\r\n        mEndBlock = _endBlock;\r\n    }\r\n\r\n    function setLinaToken(address _linaToken) external onlyAdmin {\r\n        linaToken = IERC20(_linaToken);\r\n    }\r\n\r\n    function setPaused(bool _paused) external onlyAdmin {\r\n        if (_paused) {\r\n            _pause();\r\n        } else {\r\n            _unpause();\r\n        }\r\n    }\r\n\r\n    //////////////////////////////////////////////////////\r\n    event Staking(address indexed who, uint256 value, uint staketime);\r\n    event CancelStaking(address indexed who, uint256 value);\r\n    event Claim(address indexed who, uint256 rewardval, uint256 totalStaking);\r\n\r\n    uint256 public accountStakingListLimit = 50;\r\n    uint256 public minStakingAmount = 1e18; // 1 token\r\n    uint256 public constant PRECISION_UINT = 1e23;\r\n\r\n    function setLinaTokenAddress(address _token) external onlyAdmin {\r\n        linaToken = IERC20(_token);\r\n    }\r\n\r\n    function setStakingListLimit(uint256 _limit) external onlyAdmin {\r\n        accountStakingListLimit = _limit;\r\n    }\r\n\r\n    function setMinStakingAmount(uint256 _minStakingAmount) external onlyAdmin {\r\n        minStakingAmount = _minStakingAmount;\r\n    }\r\n\r\n    function stakingBalanceOf(address account) external override view returns(uint256) {\r\n        uint256 stakingBalance = super.amountOf(account).add( stakingStorage.stakingBalanceOf(account) );\r\n        return stakingBalance;\r\n    }\r\n\r\n    function getStakesdataLength(address account) external view returns(uint256) {\r\n        return stakingStorage.getStakesdataLength(account);\r\n    }\r\n    //--------------------------------------------------------\r\n\r\n    function migrationsOldStaking( address contractAddr, uint amount, uint blockNb ) public onlyAdmin {\r\n        super._deposit( blockNb, contractAddr, amount );\r\n        mOldStaking = contractAddr;\r\n        mOldAmount = amount;\r\n    }\r\n\r\n\r\n    function staking(uint256 amount) public whenNotPaused override returns (bool) {\r\n        stakingStorage.requireInStakingPeriod();\r\n\r\n        require(amount >= minStakingAmount, \"Staking amount too small.\");\r\n        //require(stakingStorage.getStakesdataLength(msg.sender) < accountStakingListLimit, \"Staking list out of limit.\");\r\n\r\n        linaToken.transferFrom(msg.sender, address(this), amount);\r\n     \r\n        uint256 blockNb = block.number;\r\n        if (blockNb > mEndBlock) {\r\n            blockNb = mEndBlock;\r\n        }\r\n        super._deposit( blockNb, msg.sender, amount );\r\n\r\n        emit Staking(msg.sender, amount, block.timestamp);\r\n\r\n        return true;\r\n    }\r\n\r\n    function _widthdrawFromOldStaking( address _addr, uint amount ) internal {\r\n        uint256 blockNb = block.number;\r\n        if (blockNb > mEndBlock) {\r\n            blockNb = mEndBlock;\r\n        }\r\n        \r\n        uint oldStakingAmount = super.amountOf( mOldStaking );\r\n        super._withdraw( blockNb, mOldStaking, amount );\r\n        // sub already withraw reward, then cal portion \r\n        uint reward = super.rewardOf( mOldStaking).sub( mWidthdrawRewardFromOldStaking, \"_widthdrawFromOldStaking reward sub overflow\" )\r\n            .mul( amount ).mul(1e20).div( oldStakingAmount ).div(1e20);\r\n        mWidthdrawRewardFromOldStaking = mWidthdrawRewardFromOldStaking.add( reward );\r\n        mOldReward[ _addr ] = mOldReward[_addr].add( reward );\r\n    }\r\n\r\n    function _cancelStaking(address user, uint256 amount) internal {\r\n        uint256 blockNb = block.number;\r\n        if (blockNb > mEndBlock) {\r\n            blockNb = mEndBlock;\r\n        }\r\n\r\n        uint256 returnAmount = amount;\r\n        uint256 newAmount = super.amountOf(user);\r\n        if (newAmount >= amount) {\r\n            super._withdraw( blockNb, user, amount );\r\n            amount = 0;\r\n        } else {\r\n            if (newAmount > 0) {\r\n                super._withdraw( blockNb, user, newAmount );\r\n                amount = amount.sub(newAmount, \"_cancelStaking amount sub overflow\");\r\n            }\r\n            \r\n            for (uint256 i = stakingStorage.getStakesdataLength(user); i >= 1 ; i--) {\r\n                (uint256 stakingAmount, uint256 staketime) = stakingStorage.getStakesDataByIndex(user, i-1);\r\n                if (amount >= stakingAmount) {\r\n                    amount = amount.sub(stakingAmount, \"_cancelStaking amount sub overflow\");\r\n                    \r\n                    stakingStorage.PopStakesData(user);\r\n                    stakingStorage.SubWeeksTotal(staketime, stakingAmount);\r\n                    _widthdrawFromOldStaking( user, stakingAmount );\r\n\r\n                } else {\r\n                    stakingStorage.StakingDataSub(user, i-1, amount);\r\n                    stakingStorage.SubWeeksTotal(staketime, amount);\r\n                    _widthdrawFromOldStaking( user, amount );\r\n\r\n                    amount = 0;\r\n                }\r\n                if (amount == 0) break;\r\n            }\r\n        }\r\n\r\n        // cancel as many as possible, not fail, that waste gas\r\n        //require(amount == 0, \"Cancel amount too big then staked.\");\r\n        \r\n        linaToken.transfer(msg.sender, returnAmount.sub(amount));\r\n    }\r\n\r\n    function cancelStaking(uint256 amount) public whenNotPaused override returns (bool) {\r\n        //stakingStorage.requireInStakingPeriod();\r\n\r\n        require(amount > 0, \"Invalid amount.\");\r\n\r\n        _cancelStaking(msg.sender, amount);\r\n\r\n        emit CancelStaking(msg.sender, amount);\r\n\r\n        return true;\r\n    }\r\n\r\n    function getTotalReward( uint blockNb, address _user ) public view returns ( uint256 total ){\r\n        if( blockNb > mEndBlock ){\r\n            blockNb = mEndBlock;\r\n        }\r\n        \r\n        // \r\n        // 1,cancel\r\n        // 2,\r\n        // 3\r\n        total = mOldReward[ _user ];\r\n        uint iMyOldStaking = 0;\r\n        for (uint256 i=0; i < stakingStorage.getStakesdataLength( _user ); i++) {\r\n            (uint256 stakingAmount, ) = stakingStorage.getStakesDataByIndex( _user, i);\r\n            iMyOldStaking = iMyOldStaking.add( stakingAmount );\r\n        }\r\n        if( iMyOldStaking > 0 ){\r\n            uint oldStakingAmount = super.amountOf( mOldStaking );\r\n            uint iReward2 = super._calcReward( blockNb, mOldStaking).sub( mWidthdrawRewardFromOldStaking, \"getTotalReward iReward2 sub overflow\" )\r\n                .mul( iMyOldStaking ).div( oldStakingAmount );\r\n            total = total.add( iReward2 );\r\n        }\r\n\r\n        uint256 reward3 = super._calcReward( blockNb, _user );\r\n        total = total.add( reward3 );\r\n    }\r\n\r\n\r\n    // claim reward\r\n    // Note: token\r\n    function claim() public whenNotPaused override returns (bool) {\r\n        //stakingStorage.requireStakingEnd();\r\n        require(block.timestamp > claimRewardLockTime, \"Not time to claim reward\");\r\n\r\n        uint iMyOldStaking = stakingStorage.stakingBalanceOf( msg.sender );\r\n        uint iAmount = super.amountOf( msg.sender );\r\n        _cancelStaking( msg.sender, iMyOldStaking.add( iAmount ));\r\n\r\n        uint iReward = getTotalReward( mEndBlock, msg.sender );\r\n\r\n        _claim( msg.sender );\r\n        mOldReward[ msg.sender ] = 0;\r\n        linaToken.transfer(msg.sender, iReward );\r\n\r\n        emit Claim(msg.sender, iReward, iMyOldStaking.add( iAmount ));\r\n        return true;\r\n    }\r\n\r\n    function setRewardLockTime(uint256 newtime) public onlyAdmin {\r\n        claimRewardLockTime = newtime;\r\n    }\r\n\r\n    function calcReward( uint256 curBlock, address _user) public view returns (uint256) {\r\n        return _calcReward( curBlock, _user);\r\n    }\r\n}\r\n\r\ncontract HelperPushStakingData is LnAdmin {\r\n\r\n    constructor(address _admin) public LnAdmin(_admin) {\r\n\r\n    }\r\n\r\n    function pushStakingData(address _storage, address[] calldata account, uint256[] calldata amount, uint256[] calldata staketime) external {\r\n        require(account.length > 0, \"array length zero\");\r\n        require(account.length == amount.length, \"array length not eq\");\r\n        require(account.length == staketime.length, \"array length not eq\");\r\n\r\n        LnLinearStakingStorage stakingStorage = LnLinearStakingStorage(_storage);\r\n        for (uint256 i=0; i<account.length; i++) {\r\n            stakingStorage.PushStakingData(account[i], amount[i], staketime[i]);\r\n            stakingStorage.AddWeeksTotal(staketime[i], amount[i]);\r\n        }\r\n    }\r\n\r\n    //unstaking.\r\n}\r\n",
  "sourcePath": "/mnt/d/working/linearFinance/LinearFinanceToken/contracts/LnSimpleStaking.sol",
  "compiler": {
    "name": "solc",
    "version": "0.6.12+commit.27d51765.Emscripten.clang"
  },
  "schemaVersion": "3.2.3",
  "updatedAt": "2020-09-22T09:50:02.978Z",
  "networkType": "ethereum",
  "devdoc": {
    "kind": "dev",
    "methods": {
      "paused()": {
        "details": "Returns true if the contract is paused, and false otherwise."
      }
    },
    "version": 1
  },
  "userdoc": {
    "kind": "user",
    "methods": {},
    "version": 1
  }
}