{
  "contractName": "SafeDecimalMath",
  "abi": [
    {
      "inputs": [],
      "name": "PRECISE_UNIT",
      "outputs": [
        {
          "internalType": "uint256",
          "name": "",
          "type": "uint256"
        }
      ],
      "stateMutability": "view",
      "type": "function",
      "constant": true
    },
    {
      "inputs": [],
      "name": "UNIT",
      "outputs": [
        {
          "internalType": "uint256",
          "name": "",
          "type": "uint256"
        }
      ],
      "stateMutability": "view",
      "type": "function",
      "constant": true
    },
    {
      "inputs": [],
      "name": "decimals",
      "outputs": [
        {
          "internalType": "uint8",
          "name": "",
          "type": "uint8"
        }
      ],
      "stateMutability": "view",
      "type": "function",
      "constant": true
    },
    {
      "inputs": [],
      "name": "highPrecisionDecimals",
      "outputs": [
        {
          "internalType": "uint8",
          "name": "",
          "type": "uint8"
        }
      ],
      "stateMutability": "view",
      "type": "function",
      "constant": true
    },
    {
      "inputs": [],
      "name": "unit",
      "outputs": [
        {
          "internalType": "uint256",
          "name": "",
          "type": "uint256"
        }
      ],
      "stateMutability": "pure",
      "type": "function",
      "constant": true
    },
    {
      "inputs": [],
      "name": "preciseUnit",
      "outputs": [
        {
          "internalType": "uint256",
          "name": "",
          "type": "uint256"
        }
      ],
      "stateMutability": "pure",
      "type": "function",
      "constant": true
    }
  ],
  "bytecode": "0x61019f610026600b82828239805160001a60731461001957fe5b30600052607381538281f3fe730000000000000000000000000000000000000000301460806040526004361061006c5760003560e01c8063313ce56714610071578063864029e714610092578063907af6c0146100b05780639d8e2177146100ce578063d5e5e6e6146100ec578063def4419d1461010a575b600080fd5b61007961012b565b604051808260ff16815260200191505060405180910390f35b61009a610130565b6040518082815260200191505060405180910390f35b6100b861013b565b6040518082815260200191505060405180910390f35b6100d661014a565b6040518082815260200191505060405180910390f35b6100f4610155565b6040518082815260200191505060405180910390f35b610112610164565b604051808260ff16815260200191505060405180910390f35b601281565b601b60ff16600a0a81565b6000601260ff16600a0a905090565b601260ff16600a0a81565b6000601b60ff16600a0a905090565b601b8156fea26469706673582212208971c236562cc023a6252aec00f8832854e5981d18f4dd49bf6cb99d0e6de2fc64736f6c634300060c0033",
  "immutableReferences": {},
  "source": "// SPDX-License-Identifier: MIT\npragma solidity ^0.6.12;\n\nimport \"@openzeppelin/contracts/math/SafeMath.sol\";\n\nlibrary SafeDecimalMath {\n    using SafeMath for uint;\n\n    uint8 public constant decimals = 18;\n    uint8 public constant highPrecisionDecimals = 27;\n\n    uint public constant UNIT = 10**uint(decimals);\n\n    uint public constant PRECISE_UNIT = 10**uint(highPrecisionDecimals);\n    uint private constant UNIT_TO_HIGH_PRECISION_CONVERSION_FACTOR = 10**uint(highPrecisionDecimals - decimals);\n\n    function unit() external pure returns (uint) {\n        return UNIT;\n    }\n\n    function preciseUnit() external pure returns (uint) {\n        return PRECISE_UNIT;\n    }\n\n    function multiplyDecimal(uint x, uint y) internal pure returns (uint) {\n        \n        return x.mul(y) / UNIT;\n    }\n\n    function _multiplyDecimalRound(\n        uint x,\n        uint y,\n        uint precisionUnit\n    ) private pure returns (uint) {\n        \n        uint quotientTimesTen = x.mul(y) / (precisionUnit / 10);\n\n        if (quotientTimesTen % 10 >= 5) {\n            quotientTimesTen += 10;\n        }\n\n        return quotientTimesTen / 10;\n    }\n\n    function multiplyDecimalRoundPrecise(uint x, uint y) internal pure returns (uint) {\n        return _multiplyDecimalRound(x, y, PRECISE_UNIT);\n    }\n\n    function multiplyDecimalRound(uint x, uint y) internal pure returns (uint) {\n        return _multiplyDecimalRound(x, y, UNIT);\n    }\n\n    function divideDecimal(uint x, uint y) internal pure returns (uint) {\n        \n        return x.mul(UNIT).div(y);\n    }\n\n    function _divideDecimalRound(\n        uint x,\n        uint y,\n        uint precisionUnit\n    ) private pure returns (uint) {\n        uint resultTimesTen = x.mul(precisionUnit * 10).div(y);\n\n        if (resultTimesTen % 10 >= 5) {\n            resultTimesTen += 10;\n        }\n\n        return resultTimesTen / 10;\n    }\n\n    function divideDecimalRound(uint x, uint y) internal pure returns (uint) {\n        return _divideDecimalRound(x, y, UNIT);\n    }\n\n    function divideDecimalRoundPrecise(uint x, uint y) internal pure returns (uint) {\n        return _divideDecimalRound(x, y, PRECISE_UNIT);\n    }\n\n    function decimalToPreciseDecimal(uint i) internal pure returns (uint) {\n        return i.mul(UNIT_TO_HIGH_PRECISION_CONVERSION_FACTOR);\n    }\n\n    function preciseDecimalToDecimal(uint i) internal pure returns (uint) {\n        uint quotientTimesTen = i / (UNIT_TO_HIGH_PRECISION_CONVERSION_FACTOR / 10);\n\n        if (quotientTimesTen % 10 >= 5) {\n            quotientTimesTen += 10;\n        }\n\n        return quotientTimesTen / 10;\n    }\n}\n\n",
  "sourcePath": "/Users/michael/Linear-finance/Linear/contracts/SafeDecimalMath.sol",
  "compiler": {
    "name": "solc",
    "version": "0.6.12+commit.27d51765.Emscripten.clang"
  },
  "schemaVersion": "3.3.1",
  "updatedAt": "2020-10-27T11:04:29.331Z",
  "networkType": "ethereum",
  "devdoc": {
    "kind": "dev",
    "methods": {},
    "version": 1
  },
  "userdoc": {
    "kind": "user",
    "methods": {},
    "version": 1
  }
}