{
  "contractName": "SafeDecimalMath",
  "abi": [
    {
      "inputs": [],
      "name": "PRECISE_UNIT",
      "outputs": [
        {
          "internalType": "uint256",
          "name": "",
          "type": "uint256"
        }
      ],
      "stateMutability": "view",
      "type": "function"
    },
    {
      "inputs": [],
      "name": "UNIT",
      "outputs": [
        {
          "internalType": "uint256",
          "name": "",
          "type": "uint256"
        }
      ],
      "stateMutability": "view",
      "type": "function"
    },
    {
      "inputs": [],
      "name": "decimals",
      "outputs": [
        {
          "internalType": "uint8",
          "name": "",
          "type": "uint8"
        }
      ],
      "stateMutability": "view",
      "type": "function"
    },
    {
      "inputs": [],
      "name": "highPrecisionDecimals",
      "outputs": [
        {
          "internalType": "uint8",
          "name": "",
          "type": "uint8"
        }
      ],
      "stateMutability": "view",
      "type": "function"
    },
    {
      "inputs": [],
      "name": "unit",
      "outputs": [
        {
          "internalType": "uint256",
          "name": "",
          "type": "uint256"
        }
      ],
      "stateMutability": "pure",
      "type": "function"
    },
    {
      "inputs": [],
      "name": "preciseUnit",
      "outputs": [
        {
          "internalType": "uint256",
          "name": "",
          "type": "uint256"
        }
      ],
      "stateMutability": "pure",
      "type": "function"
    }
  ],
  "bytecode": "0x61019f610026600b82828239805160001a60731461001957fe5b30600052607381538281f3fe730000000000000000000000000000000000000000301460806040526004361061006c5760003560e01c8063313ce56714610071578063864029e714610092578063907af6c0146100b05780639d8e2177146100ce578063d5e5e6e6146100ec578063def4419d1461010a575b600080fd5b61007961012b565b604051808260ff16815260200191505060405180910390f35b61009a610130565b6040518082815260200191505060405180910390f35b6100b861013b565b6040518082815260200191505060405180910390f35b6100d661014a565b6040518082815260200191505060405180910390f35b6100f4610155565b6040518082815260200191505060405180910390f35b610112610164565b604051808260ff16815260200191505060405180910390f35b601281565b601b60ff16600a0a81565b6000601260ff16600a0a905090565b601260ff16600a0a81565b6000601b60ff16600a0a905090565b601b8156fea26469706673582212204de9c3cd58bca6df918ed0f30a550affce5b27b58c19b6e288df43c259f4055c64736f6c634300060c0033",
  "immutableReferences": {},
  "source": "// SPDX-License-Identifier: MIT\r\npragma solidity ^0.6.12;\r\n\r\nimport \"@openzeppelin/contracts/math/SafeMath.sol\";\r\n\r\nlibrary SafeDecimalMath {\r\n    using SafeMath for uint;\r\n\r\n    uint8 public constant decimals = 18;\r\n    uint8 public constant highPrecisionDecimals = 27;\r\n\r\n    uint public constant UNIT = 10**uint(decimals);\r\n\r\n    uint public constant PRECISE_UNIT = 10**uint(highPrecisionDecimals);\r\n    uint private constant UNIT_TO_HIGH_PRECISION_CONVERSION_FACTOR = 10**uint(highPrecisionDecimals - decimals);\r\n\r\n    function unit() external pure returns (uint) {\r\n        return UNIT;\r\n    }\r\n\r\n    function preciseUnit() external pure returns (uint) {\r\n        return PRECISE_UNIT;\r\n    }\r\n\r\n    function multiplyDecimal(uint x, uint y) internal pure returns (uint) {\r\n        \r\n        return x.mul(y) / UNIT;\r\n    }\r\n\r\n    function _multiplyDecimalRound(\r\n        uint x,\r\n        uint y,\r\n        uint precisionUnit\r\n    ) private pure returns (uint) {\r\n        \r\n        uint quotientTimesTen = x.mul(y) / (precisionUnit / 10);\r\n\r\n        if (quotientTimesTen % 10 >= 5) {\r\n            quotientTimesTen += 10;\r\n        }\r\n\r\n        return quotientTimesTen / 10;\r\n    }\r\n\r\n    function multiplyDecimalRoundPrecise(uint x, uint y) internal pure returns (uint) {\r\n        return _multiplyDecimalRound(x, y, PRECISE_UNIT);\r\n    }\r\n\r\n    function multiplyDecimalRound(uint x, uint y) internal pure returns (uint) {\r\n        return _multiplyDecimalRound(x, y, UNIT);\r\n    }\r\n\r\n    function divideDecimal(uint x, uint y) internal pure returns (uint) {\r\n        \r\n        return x.mul(UNIT).div(y);\r\n    }\r\n\r\n    function _divideDecimalRound(\r\n        uint x,\r\n        uint y,\r\n        uint precisionUnit\r\n    ) private pure returns (uint) {\r\n        uint resultTimesTen = x.mul(precisionUnit * 10).div(y);\r\n\r\n        if (resultTimesTen % 10 >= 5) {\r\n            resultTimesTen += 10;\r\n        }\r\n\r\n        return resultTimesTen / 10;\r\n    }\r\n\r\n    function divideDecimalRound(uint x, uint y) internal pure returns (uint) {\r\n        return _divideDecimalRound(x, y, UNIT);\r\n    }\r\n\r\n    function divideDecimalRoundPrecise(uint x, uint y) internal pure returns (uint) {\r\n        return _divideDecimalRound(x, y, PRECISE_UNIT);\r\n    }\r\n\r\n    function decimalToPreciseDecimal(uint i) internal pure returns (uint) {\r\n        return i.mul(UNIT_TO_HIGH_PRECISION_CONVERSION_FACTOR);\r\n    }\r\n\r\n    function preciseDecimalToDecimal(uint i) internal pure returns (uint) {\r\n        uint quotientTimesTen = i / (UNIT_TO_HIGH_PRECISION_CONVERSION_FACTOR / 10);\r\n\r\n        if (quotientTimesTen % 10 >= 5) {\r\n            quotientTimesTen += 10;\r\n        }\r\n\r\n        return quotientTimesTen / 10;\r\n    }\r\n}\r\n\r\n",
  "sourcePath": "/mnt/d/working/linearFinance/smartcontracts/contracts/SafeDecimalMath.sol",
  "compiler": {
    "name": "solc",
    "version": "0.6.12+commit.27d51765.Emscripten.clang"
  },
  "schemaVersion": "3.2.3",
  "updatedAt": "2020-10-13T11:14:13.922Z",
  "networkType": "ethereum",
  "devdoc": {
    "kind": "dev",
    "methods": {},
    "version": 1
  },
  "userdoc": {
    "kind": "user",
    "methods": {},
    "version": 1
  }
}