{
  "contractName": "TestOracle",
  "abi": [
    {
      "inputs": [],
      "stateMutability": "nonpayable",
      "type": "constructor"
    },
    {
      "inputs": [
        {
          "internalType": "uint256",
          "name": "",
          "type": "uint256"
        }
      ],
      "name": "entries",
      "outputs": [
        {
          "internalType": "int256",
          "name": "answer",
          "type": "int256"
        },
        {
          "internalType": "uint256",
          "name": "timestamp",
          "type": "uint256"
        }
      ],
      "stateMutability": "view",
      "type": "function"
    },
    {
      "inputs": [],
      "name": "roundId",
      "outputs": [
        {
          "internalType": "uint256",
          "name": "",
          "type": "uint256"
        }
      ],
      "stateMutability": "view",
      "type": "function"
    },
    {
      "inputs": [
        {
          "internalType": "int256",
          "name": "answer",
          "type": "int256"
        },
        {
          "internalType": "uint256",
          "name": "timestamp",
          "type": "uint256"
        }
      ],
      "name": "setLatestAnswer",
      "outputs": [],
      "stateMutability": "nonpayable",
      "type": "function"
    },
    {
      "inputs": [],
      "name": "latestAnswer",
      "outputs": [
        {
          "internalType": "int256",
          "name": "",
          "type": "int256"
        }
      ],
      "stateMutability": "view",
      "type": "function"
    },
    {
      "inputs": [],
      "name": "latestTimestamp",
      "outputs": [
        {
          "internalType": "uint256",
          "name": "",
          "type": "uint256"
        }
      ],
      "stateMutability": "view",
      "type": "function"
    },
    {
      "inputs": [],
      "name": "latestRound",
      "outputs": [
        {
          "internalType": "uint256",
          "name": "",
          "type": "uint256"
        }
      ],
      "stateMutability": "view",
      "type": "function"
    },
    {
      "inputs": [
        {
          "internalType": "uint256",
          "name": "_roundId",
          "type": "uint256"
        }
      ],
      "name": "getAnswer",
      "outputs": [
        {
          "internalType": "int256",
          "name": "",
          "type": "int256"
        }
      ],
      "stateMutability": "view",
      "type": "function"
    },
    {
      "inputs": [
        {
          "internalType": "uint256",
          "name": "_roundId",
          "type": "uint256"
        }
      ],
      "name": "getTimestamp",
      "outputs": [
        {
          "internalType": "uint256",
          "name": "",
          "type": "uint256"
        }
      ],
      "stateMutability": "view",
      "type": "function"
    }
  ],
  "bytecode": "0x60806040526000805534801561001457600080fd5b50610336806100246000396000f3fe608060405234801561001057600080fd5b50600436106100885760003560e01c8063b30906d41161005b578063b30906d414610105578063b5ab58dc1461014e578063b633620c14610190578063e9c58f85146101d257610088565b806350d25bcd1461008d578063668a0f02146100ab5780638205bf6a146100c95780638cd221c9146100e7575b600080fd5b61009561020a565b6040518082815260200191505060405180910390f35b6100b3610221565b6040518082815260200191505060405180910390f35b6100d161022a565b6040518082815260200191505060405180910390f35b6100ef610241565b6040518082815260200191505060405180910390f35b6101316004803603602081101561011b57600080fd5b8101908080359060200190929190505050610247565b604051808381526020018281526020019250505060405180910390f35b61017a6004803603602081101561016457600080fd5b810190808035906020019092919050505061026b565b6040518082815260200191505060405180910390f35b6101bc600480360360208110156101a657600080fd5b810190808035906020019092919050505061028b565b6040518082815260200191505060405180910390f35b610208600480360360408110156101e857600080fd5b8101908080359060200190929190803590602001909291905050506102ab565b005b600061021c610217610221565b61026b565b905090565b60008054905090565b600061023c610237610221565b61028b565b905090565b60005481565b60016020528060005260406000206000915090508060000154908060010154905082565b600060016000838152602001908152602001600020600001549050919050565b600060016000838152602001908152602001600020600101549050919050565b600080815480929190600101919050555060405180604001604052808381526020018281525060016000805481526020019081526020016000206000820151816000015560208201518160010155905050505056fea264697066735822122021f55622388391fa9d94af041751744c1bf7f0b9b903599923df026bf0c0b1a664736f6c634300060c0033",
  "immutableReferences": {},
  "source": "// SPDX-License-Identifier: MIT\r\npragma solidity ^0.6.12;\r\n\r\nimport \"./LnDefaultPrices.sol\";\r\n\r\n// chain link Oracle interface\r\ninterface OracleInterface {\r\n    function latestAnswer() external view returns (int256);\r\n\r\n    function latestTimestamp() external view returns (uint256);\r\n\r\n    function latestRound() external view returns (uint256);\r\n\r\n    function getAnswer(uint256 roundId) external view returns (int256);\r\n\r\n    function getTimestamp(uint256 roundId) external view returns (uint256);\r\n}\r\n\r\n\r\n\r\n\r\n\r\ncontract LnChainLinkPrices is LnDefaultPrices {\r\n    mapping(bytes32 => OracleInterface) public mOracles;\r\n\r\n    bytes32[] public mOracleArray;\r\n\r\n    constructor( address _admin, address _oracle, bytes32[] memory _currencies, uint[] memory _prices ) public LnDefaultPrices( _admin, _oracle, _currencies,  _prices ) {\r\n    }\r\n\r\n    function addOracle(bytes32 currencyKey, address OracleAddress) external onlyAdmin {\r\n        OracleInterface Oracle = OracleInterface(OracleAddress);\r\n        require(Oracle.latestTimestamp() >= 0, \"time stamp error\");\r\n        if (address(mOracles[currencyKey]) == address(0)) {\r\n            mOracleArray.push(currencyKey);\r\n        }\r\n        mOracles[currencyKey] = Oracle;\r\n        emit OracleAdded(currencyKey, address(Oracle));\r\n    }\r\n\r\n    function removeOracle(bytes32 currencyKey) external onlyAdmin {\r\n        address Oracle = address(mOracles[currencyKey]);\r\n        require(Oracle != address(0), \"Oracle is not exists\");\r\n        delete mOracles[currencyKey];\r\n\r\n        bool wasRemoved = removeFromArray(currencyKey, mOracleArray);\r\n\r\n        if (wasRemoved) {\r\n            emit OracleRemoved(currencyKey, Oracle);\r\n        }\r\n    }\r\n\r\n    function _getPriceData(bytes32 currencyName) internal view override returns (PriceData memory) {\r\n        if (address(mOracles[currencyName]) != address(0)) {\r\n            OracleInterface Oracle = mOracles[currencyName];\r\n            PriceData memory priceAndTime;\r\n            priceAndTime.mPrice = uint216(Oracle.latestAnswer() * 1e10);\r\n            priceAndTime.mTime = uint40(Oracle.latestTimestamp());\r\n            return priceAndTime;\r\n        } else {\r\n            return super._getPriceData( currencyName );\r\n        }\r\n    }  \r\n\r\n    function removeFromArray(bytes32 entry, bytes32[] storage array) internal returns (bool) {\r\n        for (uint i = 0; i < array.length; i++) {\r\n            if (array[i] == entry) {\r\n                delete array[i];\r\n                array[i] = array[array.length - 1];\r\n                array.pop();\r\n                return true;\r\n            }\r\n        }\r\n        return false;\r\n    }\r\n\r\n\r\n    event OracleAdded(bytes32 currencyKey, address Oracle);\r\n    event OracleRemoved(bytes32 currencyKey, address Oracle);\r\n}\r\n\r\n\r\n// test Oracle, for test stub\r\ncontract TestOracle is OracleInterface {\r\n    uint public roundId = 0;\r\n\r\n    struct Entry {\r\n        int256 answer;\r\n        uint256 timestamp;\r\n    }\r\n\r\n    mapping(uint => Entry) public entries;\r\n\r\n    constructor() public {}\r\n\r\n    function setLatestAnswer(int256 answer, uint256 timestamp) external {\r\n        roundId++;\r\n        entries[roundId] = Entry({answer: answer, timestamp: timestamp});\r\n    }\r\n\r\n    function latestAnswer() external view override returns (int256) {\r\n        return getAnswer(latestRound());\r\n    }\r\n\r\n    function latestTimestamp() external view override returns (uint256) {\r\n        return getTimestamp(latestRound());\r\n    }\r\n\r\n    function latestRound() public view override returns (uint256) {\r\n        return roundId;\r\n    }\r\n\r\n    function getAnswer(uint256 _roundId) public view override returns (int256) {\r\n        return entries[_roundId].answer;\r\n    }\r\n\r\n    function getTimestamp(uint256 _roundId) public view override returns (uint256) {\r\n        return entries[_roundId].timestamp;\r\n    }\r\n}",
  "sourcePath": "/mnt/d/working/linearFinance/smartcontracts/contracts/LnChainLinkPrices.sol",
  "compiler": {
    "name": "solc",
    "version": "0.6.12+commit.27d51765.Emscripten.clang"
  },
  "schemaVersion": "3.2.3",
  "updatedAt": "2020-10-27T06:25:07.520Z",
  "devdoc": {
    "kind": "dev",
    "methods": {},
    "version": 1
  },
  "userdoc": {
    "kind": "user",
    "methods": {},
    "version": 1
  }
}