{
  "contractName": "LinearFinance",
  "abi": [
    {
      "inputs": [
        {
          "internalType": "address payable",
          "name": "_proxy",
          "type": "address"
        },
        {
          "internalType": "contract LnTokenStorage",
          "name": "_tokenStorage",
          "type": "address"
        },
        {
          "internalType": "address",
          "name": "_admin",
          "type": "address"
        },
        {
          "internalType": "uint256",
          "name": "_totalSupply",
          "type": "uint256"
        }
      ],
      "stateMutability": "nonpayable",
      "type": "constructor"
    },
    {
      "anonymous": false,
      "inputs": [
        {
          "indexed": false,
          "internalType": "address",
          "name": "oldAdmin",
          "type": "address"
        },
        {
          "indexed": false,
          "internalType": "address",
          "name": "newAdmin",
          "type": "address"
        }
      ],
      "name": "AdminChanged",
      "type": "event"
    },
    {
      "anonymous": false,
      "inputs": [
        {
          "indexed": true,
          "internalType": "address",
          "name": "owner",
          "type": "address"
        },
        {
          "indexed": true,
          "internalType": "address",
          "name": "spender",
          "type": "address"
        },
        {
          "indexed": false,
          "internalType": "uint256",
          "name": "value",
          "type": "uint256"
        }
      ],
      "name": "Approval",
      "type": "event"
    },
    {
      "anonymous": false,
      "inputs": [
        {
          "indexed": false,
          "internalType": "bool",
          "name": "isPaused",
          "type": "bool"
        }
      ],
      "name": "PauseChanged",
      "type": "event"
    },
    {
      "anonymous": false,
      "inputs": [
        {
          "indexed": false,
          "internalType": "address",
          "name": "proxyAddress",
          "type": "address"
        }
      ],
      "name": "ProxyUpdated",
      "type": "event"
    },
    {
      "anonymous": false,
      "inputs": [
        {
          "indexed": false,
          "internalType": "address",
          "name": "newTokenStorage",
          "type": "address"
        }
      ],
      "name": "TokenStorageUpdated",
      "type": "event"
    },
    {
      "anonymous": false,
      "inputs": [
        {
          "indexed": true,
          "internalType": "address",
          "name": "from",
          "type": "address"
        },
        {
          "indexed": true,
          "internalType": "address",
          "name": "to",
          "type": "address"
        },
        {
          "indexed": false,
          "internalType": "uint256",
          "name": "value",
          "type": "uint256"
        }
      ],
      "name": "Transfer",
      "type": "event"
    },
    {
      "anonymous": false,
      "inputs": [
        {
          "indexed": false,
          "internalType": "address",
          "name": "oldCandidate",
          "type": "address"
        },
        {
          "indexed": false,
          "internalType": "address",
          "name": "newCandidate",
          "type": "address"
        }
      ],
      "name": "candidateChanged",
      "type": "event"
    },
    {
      "inputs": [],
      "name": "DECIMALS",
      "outputs": [
        {
          "internalType": "uint8",
          "name": "",
          "type": "uint8"
        }
      ],
      "stateMutability": "view",
      "type": "function",
      "constant": true
    },
    {
      "inputs": [],
      "name": "TOKEN_NAME",
      "outputs": [
        {
          "internalType": "string",
          "name": "",
          "type": "string"
        }
      ],
      "stateMutability": "view",
      "type": "function",
      "constant": true
    },
    {
      "inputs": [],
      "name": "TOKEN_SYMBOL",
      "outputs": [
        {
          "internalType": "string",
          "name": "",
          "type": "string"
        }
      ],
      "stateMutability": "view",
      "type": "function",
      "constant": true
    },
    {
      "inputs": [],
      "name": "admin",
      "outputs": [
        {
          "internalType": "address",
          "name": "",
          "type": "address"
        }
      ],
      "stateMutability": "view",
      "type": "function",
      "constant": true
    },
    {
      "inputs": [
        {
          "internalType": "address",
          "name": "owner",
          "type": "address"
        },
        {
          "internalType": "address",
          "name": "spender",
          "type": "address"
        }
      ],
      "name": "allowance",
      "outputs": [
        {
          "internalType": "uint256",
          "name": "",
          "type": "uint256"
        }
      ],
      "stateMutability": "view",
      "type": "function",
      "constant": true
    },
    {
      "inputs": [
        {
          "internalType": "address",
          "name": "spender",
          "type": "address"
        },
        {
          "internalType": "uint256",
          "name": "value",
          "type": "uint256"
        }
      ],
      "name": "approve",
      "outputs": [
        {
          "internalType": "bool",
          "name": "",
          "type": "bool"
        }
      ],
      "stateMutability": "nonpayable",
      "type": "function"
    },
    {
      "inputs": [
        {
          "internalType": "address",
          "name": "account",
          "type": "address"
        }
      ],
      "name": "balanceOf",
      "outputs": [
        {
          "internalType": "uint256",
          "name": "",
          "type": "uint256"
        }
      ],
      "stateMutability": "view",
      "type": "function",
      "constant": true
    },
    {
      "inputs": [],
      "name": "becomeAdmin",
      "outputs": [],
      "stateMutability": "nonpayable",
      "type": "function"
    },
    {
      "inputs": [],
      "name": "candidate",
      "outputs": [
        {
          "internalType": "address",
          "name": "",
          "type": "address"
        }
      ],
      "stateMutability": "view",
      "type": "function",
      "constant": true
    },
    {
      "inputs": [],
      "name": "decimals",
      "outputs": [
        {
          "internalType": "uint8",
          "name": "",
          "type": "uint8"
        }
      ],
      "stateMutability": "view",
      "type": "function",
      "constant": true
    },
    {
      "inputs": [],
      "name": "integrationProxy",
      "outputs": [
        {
          "internalType": "contract LnProxyBase",
          "name": "",
          "type": "address"
        }
      ],
      "stateMutability": "view",
      "type": "function",
      "constant": true
    },
    {
      "inputs": [],
      "name": "messageSender",
      "outputs": [
        {
          "internalType": "address",
          "name": "",
          "type": "address"
        }
      ],
      "stateMutability": "view",
      "type": "function",
      "constant": true
    },
    {
      "inputs": [],
      "name": "name",
      "outputs": [
        {
          "internalType": "string",
          "name": "",
          "type": "string"
        }
      ],
      "stateMutability": "view",
      "type": "function",
      "constant": true
    },
    {
      "inputs": [],
      "name": "paused",
      "outputs": [
        {
          "internalType": "bool",
          "name": "",
          "type": "bool"
        }
      ],
      "stateMutability": "view",
      "type": "function",
      "constant": true
    },
    {
      "inputs": [],
      "name": "proxy",
      "outputs": [
        {
          "internalType": "contract LnProxyBase",
          "name": "",
          "type": "address"
        }
      ],
      "stateMutability": "view",
      "type": "function",
      "constant": true
    },
    {
      "inputs": [
        {
          "internalType": "address",
          "name": "_candidate",
          "type": "address"
        }
      ],
      "name": "setCandidate",
      "outputs": [],
      "stateMutability": "nonpayable",
      "type": "function"
    },
    {
      "inputs": [
        {
          "internalType": "address payable",
          "name": "_integrationProxy",
          "type": "address"
        }
      ],
      "name": "setIntegrationProxy",
      "outputs": [],
      "stateMutability": "nonpayable",
      "type": "function"
    },
    {
      "inputs": [
        {
          "internalType": "address",
          "name": "sender",
          "type": "address"
        }
      ],
      "name": "setMessageSender",
      "outputs": [],
      "stateMutability": "nonpayable",
      "type": "function"
    },
    {
      "inputs": [
        {
          "internalType": "address payable",
          "name": "_proxy",
          "type": "address"
        }
      ],
      "name": "setProxy",
      "outputs": [],
      "stateMutability": "nonpayable",
      "type": "function"
    },
    {
      "inputs": [
        {
          "internalType": "contract LnTokenStorage",
          "name": "_tokenStorage",
          "type": "address"
        }
      ],
      "name": "setTokenStorage",
      "outputs": [],
      "stateMutability": "nonpayable",
      "type": "function"
    },
    {
      "inputs": [],
      "name": "symbol",
      "outputs": [
        {
          "internalType": "string",
          "name": "",
          "type": "string"
        }
      ],
      "stateMutability": "view",
      "type": "function",
      "constant": true
    },
    {
      "inputs": [],
      "name": "tokenStorage",
      "outputs": [
        {
          "internalType": "contract LnTokenStorage",
          "name": "",
          "type": "address"
        }
      ],
      "stateMutability": "view",
      "type": "function",
      "constant": true
    },
    {
      "inputs": [],
      "name": "totalSupply",
      "outputs": [
        {
          "internalType": "uint256",
          "name": "",
          "type": "uint256"
        }
      ],
      "stateMutability": "view",
      "type": "function",
      "constant": true
    },
    {
      "inputs": [
        {
          "internalType": "address",
          "name": "to",
          "type": "address"
        },
        {
          "internalType": "uint256",
          "name": "value",
          "type": "uint256"
        }
      ],
      "name": "transfer",
      "outputs": [
        {
          "internalType": "bool",
          "name": "",
          "type": "bool"
        }
      ],
      "stateMutability": "nonpayable",
      "type": "function"
    },
    {
      "inputs": [
        {
          "internalType": "address",
          "name": "from",
          "type": "address"
        },
        {
          "internalType": "address",
          "name": "to",
          "type": "address"
        },
        {
          "internalType": "uint256",
          "name": "value",
          "type": "uint256"
        }
      ],
      "name": "transferFrom",
      "outputs": [
        {
          "internalType": "bool",
          "name": "",
          "type": "bool"
        }
      ],
      "stateMutability": "nonpayable",
      "type": "function"
    },
    {
      "inputs": [
        {
          "internalType": "address",
          "name": "account",
          "type": "address"
        },
        {
          "internalType": "uint256",
          "name": "amount",
          "type": "uint256"
        }
      ],
      "name": "mint",
      "outputs": [],
      "stateMutability": "nonpayable",
      "type": "function"
    },
    {
      "inputs": [
        {
          "internalType": "bool",
          "name": "_paused",
          "type": "bool"
        }
      ],
      "name": "setPaused",
      "outputs": [],
      "stateMutability": "nonpayable",
      "type": "function"
    }
  ],
  "bytecode": "0x60806040526000600960016101000a81548160ff0219169083151502179055503480156200002c57600080fd5b506040516200330f3803806200330f833981810160405260808110156200005257600080fd5b810190808051906020019092919080519060200190929190805190602001909291908051906020019092919050505083836040518060400160405280600c81526020017f4c696e65617220546f6b656e00000000000000000000000000000000000000008152506040518060400160405280600481526020017f4c494e4100000000000000000000000000000000000000000000000000000000815250846012878681600073ffffffffffffffffffffffffffffffffffffffff168173ffffffffffffffffffffffffffffffffffffffff16141562000199576040517f08c379a00000000000000000000000000000000000000000000000000000000081526004018080602001828103825260198152602001807f61646d696e20616464726573732063616e6e6f7420626520300000000000000081525060200191505060405180910390fd5b806000806101000a81548173ffffffffffffffffffffffffffffffffffffffff021916908373ffffffffffffffffffffffffffffffffffffffff1602179055507f7e644d79422f17c01e4894b5f4f588d331ebfa28653d42ae832dc59e38c9798f600082604051808373ffffffffffffffffffffffffffffffffffffffff1681526020018273ffffffffffffffffffffffffffffffffffffffff1681526020019250505060405180910390a150600073ffffffffffffffffffffffffffffffffffffffff1660008054906101000a900473ffffffffffffffffffffffffffffffffffffffff1673ffffffffffffffffffffffffffffffffffffffff1614156200030a576040517f08c379a00000000000000000000000000000000000000000000000000000000081526004018080602001828103825260118152602001807f41646d696e206d7573742062652073657400000000000000000000000000000081525060200191505060405180910390fd5b80600260006101000a81548173ffffffffffffffffffffffffffffffffffffffff021916908373ffffffffffffffffffffffffffffffffffffffff1602179055507ffc80377ca9c49cc11ae6982f390a42db976d5530af7c43889264b13fbbd7c57e81604051808273ffffffffffffffffffffffffffffffffffffffff16815260200191505060405180910390a15085600560006101000a81548173ffffffffffffffffffffffffffffffffffffffff021916908373ffffffffffffffffffffffffffffffffffffffff1602179055508460069080519060200190620003f29291906200043f565b5083600790805190602001906200040b9291906200043f565b508260088190555081600960006101000a81548160ff021916908360ff1602179055505050505050505050505050620004e5565b828054600181600116156101000203166002900490600052602060002090601f016020900481019282601f106200048257805160ff1916838001178555620004b3565b82800160010185558215620004b3579182015b82811115620004b257825182559160200191906001019062000495565b5b509050620004c29190620004c6565b5090565b5b80821115620004e1576000816000905550600101620004c7565b5090565b612e1a80620004f56000396000f3fe608060405234801561001057600080fd5b50600436106101a95760003560e01c80635c975abb116100f9578063b199efb511610097578063d67bdd2511610071578063d67bdd2514610856578063dd62ed3e1461088a578063ec55688914610902578063f851a44014610936576101a9565b8063b199efb51461079a578063b262b9ae146107ce578063bc67f83214610812576101a9565b806395d89b41116100d357806395d89b411461063b57806397107d6d146106be5780639cbdaeb614610702578063a9059cbb14610736576101a9565b80635c975abb1461058f5780636c8381f8146105af57806370a08231146105e3576101a9565b806318821400116101665780632a905318116101405780632a9053181461047c5780632e0f2625146104ff578063313ce5671461052057806340c10f1914610541576101a9565b8063188214001461036b57806323b872dd146103ee57806325971dff14610472576101a9565b806306fdde03146101ae57806307880b7f14610231578063095ea7b314610275578063131b0ae7146102d957806316c38b3c1461031d57806318160ddd1461034d575b600080fd5b6101b661096a565b6040518080602001828103825283818151815260200191508051906020019080838360005b838110156101f65780820151818401526020810190506101db565b50505050905090810190601f1680156102235780820380516001836020036101000a031916815260200191505b509250505060405180910390f35b6102736004803603602081101561024757600080fd5b81019080803573ffffffffffffffffffffffffffffffffffffffff169060200190929190505050610a08565b005b6102c16004803603604081101561028b57600080fd5b81019080803573ffffffffffffffffffffffffffffffffffffffff16906020019092919080359060200190929190505050610ba5565b60405180821515815260200191505060405180910390f35b61031b600480360360208110156102ef57600080fd5b81019080803573ffffffffffffffffffffffffffffffffffffffff169060200190929190505050610dfa565b005b61034b6004803603602081101561033357600080fd5b81019080803515159060200190929190505050610ee2565b005b61035561100c565b6040518082815260200191505060405180910390f35b610373611012565b6040518080602001828103825283818151815260200191508051906020019080838360005b838110156103b3578082015181840152602081019050610398565b50505050905090810190601f1680156103e05780820380516001836020036101000a031916815260200191505b509250505060405180910390f35b61045a6004803603606081101561040457600080fd5b81019080803573ffffffffffffffffffffffffffffffffffffffff169060200190929190803573ffffffffffffffffffffffffffffffffffffffff1690602001909291908035906020019092919050505061104b565b60405180821515815260200191505060405180910390f35b61047a6111d1565b005b6104846113aa565b6040518080602001828103825283818151815260200191508051906020019080838360005b838110156104c45780820151818401526020810190506104a9565b50505050905090810190601f1680156104f15780820380516001836020036101000a031916815260200191505b509250505060405180910390f35b6105076113e3565b604051808260ff16815260200191505060405180910390f35b6105286113e8565b604051808260ff16815260200191505060405180910390f35b61058d6004803603604081101561055757600080fd5b81019080803573ffffffffffffffffffffffffffffffffffffffff169060200190929190803590602001909291905050506113fb565b005b6105976114ad565b60405180821515815260200191505060405180910390f35b6105b76114c0565b604051808273ffffffffffffffffffffffffffffffffffffffff16815260200191505060405180910390f35b610625600480360360208110156105f957600080fd5b81019080803573ffffffffffffffffffffffffffffffffffffffff1690602001909291905050506114e6565b6040518082815260200191505060405180910390f35b6106436115b3565b6040518080602001828103825283818151815260200191508051906020019080838360005b83811015610683578082015181840152602081019050610668565b50505050905090810190601f1680156106b05780820380516001836020036101000a031916815260200191505b509250505060405180910390f35b610700600480360360208110156106d457600080fd5b81019080803573ffffffffffffffffffffffffffffffffffffffff169060200190929190505050611651565b005b61070a611786565b604051808273ffffffffffffffffffffffffffffffffffffffff16815260200191505060405180910390f35b6107826004803603604081101561074c57600080fd5b81019080803573ffffffffffffffffffffffffffffffffffffffff169060200190929190803590602001909291905050506117ac565b60405180821515815260200191505060405180910390f35b6107a2611933565b604051808273ffffffffffffffffffffffffffffffffffffffff16815260200191505060405180910390f35b610810600480360360208110156107e457600080fd5b81019080803573ffffffffffffffffffffffffffffffffffffffff169060200190929190505050611959565b005b6108546004803603602081101561082857600080fd5b81019080803573ffffffffffffffffffffffffffffffffffffffff169060200190929190505050611bf8565b005b61085e611d57565b604051808273ffffffffffffffffffffffffffffffffffffffff16815260200191505060405180910390f35b6108ec600480360360408110156108a057600080fd5b81019080803573ffffffffffffffffffffffffffffffffffffffff169060200190929190803573ffffffffffffffffffffffffffffffffffffffff169060200190929190505050611d7d565b6040518082815260200191505060405180910390f35b61090a611e69565b604051808273ffffffffffffffffffffffffffffffffffffffff16815260200191505060405180910390f35b61093e611e8f565b604051808273ffffffffffffffffffffffffffffffffffffffff16815260200191505060405180910390f35b60068054600181600116156101000203166002900480601f016020809104026020016040519081016040528092919081815260200182805460018160011615610100020316600290048015610a005780601f106109d557610100808354040283529160200191610a00565b820191906000526020600020905b8154815290600101906020018083116109e357829003601f168201915b505050505081565b60008054906101000a900473ffffffffffffffffffffffffffffffffffffffff1673ffffffffffffffffffffffffffffffffffffffff163373ffffffffffffffffffffffffffffffffffffffff1614610aac576040517f08c379a000000000000000000000000000000000000000000000000000000000815260040180806020018281038252602f815260200180612d8c602f913960400191505060405180910390fd5b6000600160009054906101000a900473ffffffffffffffffffffffffffffffffffffffff16905081600160006101000a81548173ffffffffffffffffffffffffffffffffffffffff021916908373ffffffffffffffffffffffffffffffffffffffff1602179055507f0faed18be9e8f4d4c05dfbcc80ea2c97a0be729614d766827778f60890c02cab81600160009054906101000a900473ffffffffffffffffffffffffffffffffffffffff16604051808373ffffffffffffffffffffffffffffffffffffffff1681526020018273ffffffffffffffffffffffffffffffffffffffff1681526020019250505060405180910390a15050565b6000600260009054906101000a900473ffffffffffffffffffffffffffffffffffffffff1673ffffffffffffffffffffffffffffffffffffffff163373ffffffffffffffffffffffffffffffffffffffff1614158015610c535750600360009054906101000a900473ffffffffffffffffffffffffffffffffffffffff1673ffffffffffffffffffffffffffffffffffffffff163373ffffffffffffffffffffffffffffffffffffffff1614155b8015610cad57503373ffffffffffffffffffffffffffffffffffffffff16600460009054906101000a900473ffffffffffffffffffffffffffffffffffffffff1673ffffffffffffffffffffffffffffffffffffffff1614155b15610cf45733600460006101000a81548173ffffffffffffffffffffffffffffffffffffffff021916908373ffffffffffffffffffffffffffffffffffffffff1602179055505b6000600460009054906101000a900473ffffffffffffffffffffffffffffffffffffffff169050600560009054906101000a900473ffffffffffffffffffffffffffffffffffffffff1673ffffffffffffffffffffffffffffffffffffffff1663da46098c8286866040518463ffffffff1660e01b8152600401808473ffffffffffffffffffffffffffffffffffffffff1681526020018373ffffffffffffffffffffffffffffffffffffffff1681526020018281526020019350505050600060405180830381600087803b158015610dcc57600080fd5b505af1158015610de0573d6000803e3d6000fd5b50505050610def818585611eb3565b600191505092915050565b60008054906101000a900473ffffffffffffffffffffffffffffffffffffffff1673ffffffffffffffffffffffffffffffffffffffff163373ffffffffffffffffffffffffffffffffffffffff1614610e9e576040517f08c379a000000000000000000000000000000000000000000000000000000000815260040180806020018281038252602f815260200180612d8c602f913960400191505060405180910390fd5b80600360006101000a81548173ffffffffffffffffffffffffffffffffffffffff021916908373ffffffffffffffffffffffffffffffffffffffff16021790555050565b60008054906101000a900473ffffffffffffffffffffffffffffffffffffffff1673ffffffffffffffffffffffffffffffffffffffff163373ffffffffffffffffffffffffffffffffffffffff1614610f86576040517f08c379a000000000000000000000000000000000000000000000000000000000815260040180806020018281038252602f815260200180612d8c602f913960400191505060405180910390fd5b600960019054906101000a900460ff1615158115151415610fa657611009565b80600960016101000a81548160ff0219169083151502179055507f8fb6c181ee25a520cf3dd6565006ef91229fcfe5a989566c2a3b8c115570cec5600960019054906101000a900460ff1660405180821515815260200191505060405180910390a15b50565b60085481565b6040518060400160405280600c81526020017f4c696e65617220546f6b656e000000000000000000000000000000000000000081525081565b6000600260009054906101000a900473ffffffffffffffffffffffffffffffffffffffff1673ffffffffffffffffffffffffffffffffffffffff163373ffffffffffffffffffffffffffffffffffffffff16141580156110f95750600360009054906101000a900473ffffffffffffffffffffffffffffffffffffffff1673ffffffffffffffffffffffffffffffffffffffff163373ffffffffffffffffffffffffffffffffffffffff1614155b801561115357503373ffffffffffffffffffffffffffffffffffffffff16600460009054906101000a900473ffffffffffffffffffffffffffffffffffffffff1673ffffffffffffffffffffffffffffffffffffffff1614155b1561119a5733600460006101000a81548173ffffffffffffffffffffffffffffffffffffffff021916908373ffffffffffffffffffffffffffffffffffffffff1602179055505b6111c8600460009054906101000a900473ffffffffffffffffffffffffffffffffffffffff16858585612011565b90509392505050565b600160009054906101000a900473ffffffffffffffffffffffffffffffffffffffff1673ffffffffffffffffffffffffffffffffffffffff163373ffffffffffffffffffffffffffffffffffffffff1614611294576040517f08c379a000000000000000000000000000000000000000000000000000000000815260040180806020018281038252601f8152602001807f4f6e6c792063616e6469646174652063616e206265636f6d652061646d696e0081525060200191505060405180910390fd5b60008060009054906101000a900473ffffffffffffffffffffffffffffffffffffffff169050600160009054906101000a900473ffffffffffffffffffffffffffffffffffffffff166000806101000a81548173ffffffffffffffffffffffffffffffffffffffff021916908373ffffffffffffffffffffffffffffffffffffffff1602179055507f7e644d79422f17c01e4894b5f4f588d331ebfa28653d42ae832dc59e38c9798f8160008054906101000a900473ffffffffffffffffffffffffffffffffffffffff16604051808373ffffffffffffffffffffffffffffffffffffffff1681526020018273ffffffffffffffffffffffffffffffffffffffff1681526020019250505060405180910390a150565b6040518060400160405280600481526020017f4c494e410000000000000000000000000000000000000000000000000000000081525081565b601281565b600960009054906101000a900460ff1681565b60008054906101000a900473ffffffffffffffffffffffffffffffffffffffff1673ffffffffffffffffffffffffffffffffffffffff163373ffffffffffffffffffffffffffffffffffffffff161461149f576040517f08c379a000000000000000000000000000000000000000000000000000000000815260040180806020018281038252602f815260200180612d8c602f913960400191505060405180910390fd5b6114a982826121e4565b5050565b600960019054906101000a900460ff1681565b600160009054906101000a900473ffffffffffffffffffffffffffffffffffffffff1681565b6000600560009054906101000a900473ffffffffffffffffffffffffffffffffffffffff1673ffffffffffffffffffffffffffffffffffffffff166370a08231836040518263ffffffff1660e01b8152600401808273ffffffffffffffffffffffffffffffffffffffff16815260200191505060206040518083038186803b15801561157157600080fd5b505afa158015611585573d6000803e3d6000fd5b505050506040513d602081101561159b57600080fd5b81019080805190602001909291905050509050919050565b60078054600181600116156101000203166002900480601f0160208091040260200160405190810160405280929190818152602001828054600181600116156101000203166002900480156116495780601f1061161e57610100808354040283529160200191611649565b820191906000526020600020905b81548152906001019060200180831161162c57829003601f168201915b505050505081565b60008054906101000a900473ffffffffffffffffffffffffffffffffffffffff1673ffffffffffffffffffffffffffffffffffffffff163373ffffffffffffffffffffffffffffffffffffffff16146116f5576040517f08c379a000000000000000000000000000000000000000000000000000000000815260040180806020018281038252602f815260200180612d8c602f913960400191505060405180910390fd5b80600260006101000a81548173ffffffffffffffffffffffffffffffffffffffff021916908373ffffffffffffffffffffffffffffffffffffffff1602179055507ffc80377ca9c49cc11ae6982f390a42db976d5530af7c43889264b13fbbd7c57e81604051808273ffffffffffffffffffffffffffffffffffffffff16815260200191505060405180910390a150565b600360009054906101000a900473ffffffffffffffffffffffffffffffffffffffff1681565b6000600260009054906101000a900473ffffffffffffffffffffffffffffffffffffffff1673ffffffffffffffffffffffffffffffffffffffff163373ffffffffffffffffffffffffffffffffffffffff161415801561185a5750600360009054906101000a900473ffffffffffffffffffffffffffffffffffffffff1673ffffffffffffffffffffffffffffffffffffffff163373ffffffffffffffffffffffffffffffffffffffff1614155b80156118b457503373ffffffffffffffffffffffffffffffffffffffff16600460009054906101000a900473ffffffffffffffffffffffffffffffffffffffff1673ffffffffffffffffffffffffffffffffffffffff1614155b156118fb5733600460006101000a81548173ffffffffffffffffffffffffffffffffffffffff021916908373ffffffffffffffffffffffffffffffffffffffff1602179055505b611928600460009054906101000a900473ffffffffffffffffffffffffffffffffffffffff16848461243e565b506001905092915050565b600560009054906101000a900473ffffffffffffffffffffffffffffffffffffffff1681565b600260009054906101000a900473ffffffffffffffffffffffffffffffffffffffff1673ffffffffffffffffffffffffffffffffffffffff163373ffffffffffffffffffffffffffffffffffffffff1614158015611a055750600360009054906101000a900473ffffffffffffffffffffffffffffffffffffffff1673ffffffffffffffffffffffffffffffffffffffff163373ffffffffffffffffffffffffffffffffffffffff1614155b8015611a5f57503373ffffffffffffffffffffffffffffffffffffffff16600460009054906101000a900473ffffffffffffffffffffffffffffffffffffffff1673ffffffffffffffffffffffffffffffffffffffff1614155b15611aa65733600460006101000a81548173ffffffffffffffffffffffffffffffffffffffff021916908373ffffffffffffffffffffffffffffffffffffffff1602179055505b60008054906101000a900473ffffffffffffffffffffffffffffffffffffffff1673ffffffffffffffffffffffffffffffffffffffff16600460009054906101000a900473ffffffffffffffffffffffffffffffffffffffff1673ffffffffffffffffffffffffffffffffffffffff1614611b89576040517f08c379a000000000000000000000000000000000000000000000000000000000815260040180806020018281038252600e8152602001807f6f6e6c7920666f722061646d696e00000000000000000000000000000000000081525060200191505060405180910390fd5b80600560006101000a81548173ffffffffffffffffffffffffffffffffffffffff021916908373ffffffffffffffffffffffffffffffffffffffff160217905550611bf5600560009054906101000a900473ffffffffffffffffffffffffffffffffffffffff16612454565b50565b600260009054906101000a900473ffffffffffffffffffffffffffffffffffffffff1673ffffffffffffffffffffffffffffffffffffffff163373ffffffffffffffffffffffffffffffffffffffff161480611ca15750600360009054906101000a900473ffffffffffffffffffffffffffffffffffffffff1673ffffffffffffffffffffffffffffffffffffffff163373ffffffffffffffffffffffffffffffffffffffff16145b611d13576040517f08c379a00000000000000000000000000000000000000000000000000000000081526004018080602001828103825260178152602001807f4f6e6c79207468652070726f78792063616e2063616c6c00000000000000000081525060200191505060405180910390fd5b80600460006101000a81548173ffffffffffffffffffffffffffffffffffffffff021916908373ffffffffffffffffffffffffffffffffffffffff16021790555050565b600460009054906101000a900473ffffffffffffffffffffffffffffffffffffffff1681565b6000600560009054906101000a900473ffffffffffffffffffffffffffffffffffffffff1673ffffffffffffffffffffffffffffffffffffffff1663dd62ed3e84846040518363ffffffff1660e01b8152600401808373ffffffffffffffffffffffffffffffffffffffff1681526020018273ffffffffffffffffffffffffffffffffffffffff1681526020019250505060206040518083038186803b158015611e2657600080fd5b505afa158015611e3a573d6000803e3d6000fd5b505050506040513d6020811015611e5057600080fd5b8101908080519060200190929190505050905092915050565b600260009054906101000a900473ffffffffffffffffffffffffffffffffffffffff1681565b60008054906101000a900473ffffffffffffffffffffffffffffffffffffffff1681565b600260009054906101000a900473ffffffffffffffffffffffffffffffffffffffff1673ffffffffffffffffffffffffffffffffffffffff1663ced7bc7082604051602001808281526020019150506040516020818303038152906040527f8c5be1e5ebec7d5bd14f71427d1e84f3dd0314c0f7b2291e5b200ac8c7c3b925611f3b876125a6565b611f44876125a6565b6040518563ffffffff1660e01b81526004018080602001858152602001848152602001838152602001828103825286818151815260200191508051906020019080838360005b83811015611fa5578082015181840152602081019050611f8a565b50505050905090810190601f168015611fd25780820380516001836020036101000a031916815260200191505b5095505050505050600060405180830381600087803b158015611ff457600080fd5b505af1158015612008573d6000803e3d6000fd5b50505050505050565b6000600560009054906101000a900473ffffffffffffffffffffffffffffffffffffffff1673ffffffffffffffffffffffffffffffffffffffff1663da46098c858761214786600560009054906101000a900473ffffffffffffffffffffffffffffffffffffffff1673ffffffffffffffffffffffffffffffffffffffff1663dd62ed3e8b8d6040518363ffffffff1660e01b8152600401808373ffffffffffffffffffffffffffffffffffffffff1681526020018273ffffffffffffffffffffffffffffffffffffffff1681526020019250505060206040518083038186803b1580156120fe57600080fd5b505afa158015612112573d6000803e3d6000fd5b505050506040513d602081101561212857600080fd5b81019080805190602001909291905050506125c990919063ffffffff16565b6040518463ffffffff1660e01b8152600401808473ffffffffffffffffffffffffffffffffffffffff1681526020018373ffffffffffffffffffffffffffffffffffffffff1681526020018281526020019350505050600060405180830381600087803b1580156121b757600080fd5b505af11580156121cb573d6000803e3d6000fd5b505050506121da848484612613565b9050949350505050565b600073ffffffffffffffffffffffffffffffffffffffff168273ffffffffffffffffffffffffffffffffffffffff161415612287576040517f08c379a000000000000000000000000000000000000000000000000000000000815260040180806020018281038252601f8152602001807f45524332303a206d696e7420746f20746865207a65726f20616464726573730081525060200191505060405180910390fd5b61229360008383612a6a565b600560009054906101000a900473ffffffffffffffffffffffffffffffffffffffff1673ffffffffffffffffffffffffffffffffffffffff1663b46310f6836123a884600560009054906101000a900473ffffffffffffffffffffffffffffffffffffffff1673ffffffffffffffffffffffffffffffffffffffff166370a08231886040518263ffffffff1660e01b8152600401808273ffffffffffffffffffffffffffffffffffffffff16815260200191505060206040518083038186803b15801561235f57600080fd5b505afa158015612373573d6000803e3d6000fd5b505050506040513d602081101561238957600080fd5b8101908080519060200190929190505050612ae090919063ffffffff16565b6040518363ffffffff1660e01b8152600401808373ffffffffffffffffffffffffffffffffffffffff16815260200182815260200192505050600060405180830381600087803b1580156123fb57600080fd5b505af115801561240f573d6000803e3d6000fd5b5050505061242881600854612ae090919063ffffffff16565b60088190555061243a60008383612b68565b5050565b600061244b848484612613565b90509392505050565b600260009054906101000a900473ffffffffffffffffffffffffffffffffffffffff1673ffffffffffffffffffffffffffffffffffffffff1663a0e0048882604051602001808273ffffffffffffffffffffffffffffffffffffffff1681526020019150506040516020818303038152906040527fc6672d9c346511086ff7307e0a33f90d8d8cbef0f7ef2442bd7ca2b5cb14ced36040518363ffffffff1660e01b81526004018080602001838152602001828103825284818151815260200191508051906020019080838360005b8381101561253e578082015181840152602081019050612523565b50505050905090810190601f16801561256b5780820380516001836020036101000a031916815260200191505b509350505050600060405180830381600087803b15801561258b57600080fd5b505af115801561259f573d6000803e3d6000fd5b5050505050565b60008173ffffffffffffffffffffffffffffffffffffffff1660001b9050919050565b600061260b83836040518060400160405280601e81526020017f536166654d6174683a207375627472616374696f6e206f766572666c6f770000815250612cc6565b905092915050565b60008073ffffffffffffffffffffffffffffffffffffffff168373ffffffffffffffffffffffffffffffffffffffff161415801561267d57503073ffffffffffffffffffffffffffffffffffffffff168373ffffffffffffffffffffffffffffffffffffffff1614155b80156126d75750600260009054906101000a900473ffffffffffffffffffffffffffffffffffffffff1673ffffffffffffffffffffffffffffffffffffffff168373ffffffffffffffffffffffffffffffffffffffff1614155b612749576040517f08c379a000000000000000000000000000000000000000000000000000000000815260040180806020018281038252601f8152602001807f43616e6e6f74207472616e7366657220746f207468697320616464726573730081525060200191505060405180910390fd5b612754848484612a6a565b600560009054906101000a900473ffffffffffffffffffffffffffffffffffffffff1673ffffffffffffffffffffffffffffffffffffffff1663b46310f68561286985600560009054906101000a900473ffffffffffffffffffffffffffffffffffffffff1673ffffffffffffffffffffffffffffffffffffffff166370a082318a6040518263ffffffff1660e01b8152600401808273ffffffffffffffffffffffffffffffffffffffff16815260200191505060206040518083038186803b15801561282057600080fd5b505afa158015612834573d6000803e3d6000fd5b505050506040513d602081101561284a57600080fd5b81019080805190602001909291905050506125c990919063ffffffff16565b6040518363ffffffff1660e01b8152600401808373ffffffffffffffffffffffffffffffffffffffff16815260200182815260200192505050600060405180830381600087803b1580156128bc57600080fd5b505af11580156128d0573d6000803e3d6000fd5b50505050600560009054906101000a900473ffffffffffffffffffffffffffffffffffffffff1673ffffffffffffffffffffffffffffffffffffffff1663b46310f6846129e985600560009054906101000a900473ffffffffffffffffffffffffffffffffffffffff1673ffffffffffffffffffffffffffffffffffffffff166370a08231896040518263ffffffff1660e01b8152600401808273ffffffffffffffffffffffffffffffffffffffff16815260200191505060206040518083038186803b1580156129a057600080fd5b505afa1580156129b4573d6000803e3d6000fd5b505050506040513d60208110156129ca57600080fd5b8101908080519060200190929190505050612ae090919063ffffffff16565b6040518363ffffffff1660e01b8152600401808373ffffffffffffffffffffffffffffffffffffffff16815260200182815260200192505050600060405180830381600087803b158015612a3c57600080fd5b505af1158015612a50573d6000803e3d6000fd5b50505050612a5f848484612b68565b600190509392505050565b612a75838383612d86565b600960019054906101000a900460ff1615612adb576040517f08c379a000000000000000000000000000000000000000000000000000000000815260040180806020018281038252602a815260200180612dbb602a913960400191505060405180910390fd5b505050565b600080828401905083811015612b5e576040517f08c379a000000000000000000000000000000000000000000000000000000000815260040180806020018281038252601b8152602001807f536166654d6174683a206164646974696f6e206f766572666c6f77000000000081525060200191505060405180910390fd5b8091505092915050565b600260009054906101000a900473ffffffffffffffffffffffffffffffffffffffff1673ffffffffffffffffffffffffffffffffffffffff1663ced7bc7082604051602001808281526020019150506040516020818303038152906040527fddf252ad1be2c89b69c2b068fc378daa952ba7f163c4a11628f55a4df523b3ef612bf0876125a6565b612bf9876125a6565b6040518563ffffffff1660e01b81526004018080602001858152602001848152602001838152602001828103825286818151815260200191508051906020019080838360005b83811015612c5a578082015181840152602081019050612c3f565b50505050905090810190601f168015612c875780820380516001836020036101000a031916815260200191505b5095505050505050600060405180830381600087803b158015612ca957600080fd5b505af1158015612cbd573d6000803e3d6000fd5b50505050505050565b6000838311158290612d73576040517f08c379a00000000000000000000000000000000000000000000000000000000081526004018080602001828103825283818151815260200191508051906020019080838360005b83811015612d38578082015181840152602081019050612d1d565b50505050905090810190601f168015612d655780820380516001836020036101000a031916815260200191505b509250505060405180910390fd5b5060008385039050809150509392505050565b50505056fe4f6e6c792074686520636f6e74726163742061646d696e2063616e20706572666f726d207468697320616374696f6e45524332305061757361626c653a20746f6b656e207472616e73666572207768696c6520706175736564a2646970667358221220fe165fd8cf87fcce88f44e833c03ad0f0465c11e8b7620c25921b6fea9605b7b64736f6c634300060c0033",
  "immutableReferences": {},
  "source": "// SPDX-License-Identifier: MIT\r\npragma solidity ^0.6.12;\r\n\r\nimport \"./LnAdmin.sol\";\r\nimport \"./LnTokenStorage.sol\";\r\nimport \"./LnErc20Handler.sol\";\r\nimport \"./LnOperatorModifier.sol\";\r\nimport \"@openzeppelin/contracts/math/SafeMath.sol\";\r\nimport \"@openzeppelin/contracts/utils/Pausable.sol\";\r\n\r\ncontract LinearFinance is LnErc20Handler {\r\n    \r\n    string public constant TOKEN_NAME = \"Linear Token\";\r\n    string public constant TOKEN_SYMBOL = \"LINA\";\r\n    uint8 public constant DECIMALS = 18;\r\n\r\n    constructor(\r\n        address payable _proxy,\r\n        LnTokenStorage _tokenStorage,\r\n        address _admin,\r\n        uint _totalSupply\r\n    )\r\n        public\r\n        LnErc20Handler(_proxy, _tokenStorage, TOKEN_NAME, TOKEN_SYMBOL, _totalSupply, DECIMALS, _admin)\r\n    {\r\n    }\r\n    \r\n    //\r\n    function _mint(address account, uint256 amount) private  {\r\n        require(account != address(0), \"ERC20: mint to the zero address\");\r\n        _beforeTokenTransfer(address(0), account, amount);\r\n\r\n        tokenStorage.setBalanceOf(account, tokenStorage.balanceOf(account).add(amount));\r\n        totalSupply = totalSupply.add(amount);\r\n\r\n        emitTransfer(address(0), account, amount);\r\n    }\r\n\r\n    function mint(address account, uint256 amount) external onlyAdmin {\r\n        _mint(account, amount);\r\n    }\r\n\r\n   function _burn(address account, uint256 amount) private {\r\n        require(account != address(0), \"ERC20: burn from the zero address\");\r\n        _beforeTokenTransfer(account, address(0), amount);\r\n\r\n        tokenStorage.setBalanceOf(account, tokenStorage.balanceOf(account).sub(amount));\r\n        totalSupply = totalSupply.sub(amount);\r\n        emitTransfer(account, address(0), amount);\r\n    }\r\n\r\n    //function burn(address account, uint256 amount) external onlyAdmin {\r\n    //    _burn(account, amount);\r\n    //}\r\n\r\n    function _beforeTokenTransfer(address from, address to, uint256 amount) internal override {\r\n        super._beforeTokenTransfer(from, to, amount);\r\n\r\n        require(!paused, \"ERC20Pausable: token transfer while paused\");\r\n    }\r\n\r\n    ////////////////////////////////////////////////////// paused\r\n    bool public paused = false;\r\n    modifier notPaused {\r\n        require(!paused, \"This action cannot be performed while the contract is paused\");\r\n        _;\r\n    }\r\n    function setPaused(bool _paused) external onlyAdmin {\r\n        if (_paused == paused) {\r\n            return;\r\n        }\r\n        paused = _paused;\r\n        emit PauseChanged(paused);\r\n    }\r\n\r\n    //////////////////////////////////////////////////////\r\n    event PauseChanged(bool isPaused);\r\n}\r\n",
  "sourcePath": "/mnt/d/working/linearFinance/LinearFinanceToken/contracts/LinearFinanceToken.sol",
  "compiler": {
    "name": "solc",
    "version": "0.6.12+commit.27d51765.Emscripten.clang"
  },
  "schemaVersion": "3.2.3",
  "updatedAt": "2020-09-16T16:27:10.914Z",
  "networkType": "ethereum",
  "devdoc": {
    "kind": "dev",
    "methods": {},
    "version": 1
  },
  "userdoc": {
    "kind": "user",
    "methods": {},
    "version": 1
  }
}