{
  "contractName": "LnFeeSystemTest",
  "abi": [
    {
      "inputs": [
        {
          "internalType": "address",
          "name": "_admin",
          "type": "address"
        }
      ],
      "stateMutability": "nonpayable",
      "type": "constructor"
    },
    {
      "anonymous": false,
      "inputs": [
        {
          "indexed": false,
          "internalType": "address",
          "name": "oldAdmin",
          "type": "address"
        },
        {
          "indexed": false,
          "internalType": "address",
          "name": "newAdmin",
          "type": "address"
        }
      ],
      "name": "AdminChanged",
      "type": "event"
    },
    {
      "anonymous": false,
      "inputs": [
        {
          "indexed": false,
          "internalType": "uint256",
          "name": "feeUsd",
          "type": "uint256"
        }
      ],
      "name": "ExchangeFee",
      "type": "event"
    },
    {
      "anonymous": false,
      "inputs": [
        {
          "indexed": false,
          "internalType": "address",
          "name": "user",
          "type": "address"
        },
        {
          "indexed": false,
          "internalType": "uint256",
          "name": "lUSDAmount",
          "type": "uint256"
        },
        {
          "indexed": false,
          "internalType": "uint256",
          "name": "linaRewards",
          "type": "uint256"
        }
      ],
      "name": "FeesClaimed",
      "type": "event"
    },
    {
      "anonymous": false,
      "inputs": [
        {
          "indexed": false,
          "internalType": "uint256",
          "name": "reward",
          "type": "uint256"
        }
      ],
      "name": "RewardCollateral",
      "type": "event"
    },
    {
      "anonymous": false,
      "inputs": [
        {
          "indexed": false,
          "internalType": "address",
          "name": "oldCandidate",
          "type": "address"
        },
        {
          "indexed": false,
          "internalType": "address",
          "name": "newCandidate",
          "type": "address"
        }
      ],
      "name": "candidateChanged",
      "type": "event"
    },
    {
      "anonymous": false,
      "inputs": [
        {
          "indexed": false,
          "internalType": "bytes32",
          "name": "name",
          "type": "bytes32"
        },
        {
          "indexed": false,
          "internalType": "address",
          "name": "addr",
          "type": "address"
        }
      ],
      "name": "updateCachedAddress",
      "type": "event"
    },
    {
      "inputs": [],
      "name": "FEE_DUMMY_ADDRESS",
      "outputs": [
        {
          "internalType": "address",
          "name": "",
          "type": "address"
        }
      ],
      "stateMutability": "view",
      "type": "function"
    },
    {
      "inputs": [
        {
          "internalType": "address",
          "name": "_exchangeSystem",
          "type": "address"
        },
        {
          "internalType": "address",
          "name": "_rewardDistri",
          "type": "address"
        }
      ],
      "name": "Init",
      "outputs": [],
      "stateMutability": "nonpayable",
      "type": "function"
    },
    {
      "inputs": [],
      "name": "OnePeriodSecs",
      "outputs": [
        {
          "internalType": "uint256",
          "name": "",
          "type": "uint256"
        }
      ],
      "stateMutability": "view",
      "type": "function"
    },
    {
      "inputs": [
        {
          "internalType": "address",
          "name": "user",
          "type": "address"
        },
        {
          "internalType": "uint256",
          "name": "debtProportion",
          "type": "uint256"
        },
        {
          "internalType": "uint256",
          "name": "debtFactor",
          "type": "uint256"
        }
      ],
      "name": "RecordUserDebt",
      "outputs": [],
      "stateMutability": "nonpayable",
      "type": "function"
    },
    {
      "inputs": [
        {
          "internalType": "uint256",
          "name": "reward",
          "type": "uint256"
        }
      ],
      "name": "addCollateralRewards",
      "outputs": [],
      "stateMutability": "nonpayable",
      "type": "function"
    },
    {
      "inputs": [
        {
          "internalType": "uint256",
          "name": "feeUsd",
          "type": "uint256"
        }
      ],
      "name": "addExchangeFee",
      "outputs": [],
      "stateMutability": "nonpayable",
      "type": "function"
    },
    {
      "inputs": [],
      "name": "admin",
      "outputs": [
        {
          "internalType": "address",
          "name": "",
          "type": "address"
        }
      ],
      "stateMutability": "view",
      "type": "function"
    },
    {
      "inputs": [],
      "name": "becomeAdmin",
      "outputs": [],
      "stateMutability": "nonpayable",
      "type": "function"
    },
    {
      "inputs": [],
      "name": "candidate",
      "outputs": [
        {
          "internalType": "address",
          "name": "",
          "type": "address"
        }
      ],
      "stateMutability": "view",
      "type": "function"
    },
    {
      "inputs": [],
      "name": "claimFees",
      "outputs": [
        {
          "internalType": "bool",
          "name": "",
          "type": "bool"
        }
      ],
      "stateMutability": "nonpayable",
      "type": "function"
    },
    {
      "inputs": [],
      "name": "collateralSystem",
      "outputs": [
        {
          "internalType": "contract LnCollateralSystem",
          "name": "",
          "type": "address"
        }
      ],
      "stateMutability": "view",
      "type": "function"
    },
    {
      "inputs": [],
      "name": "curRewardPeriod",
      "outputs": [
        {
          "internalType": "uint256",
          "name": "id",
          "type": "uint256"
        },
        {
          "internalType": "uint256",
          "name": "startingDebtFactor",
          "type": "uint256"
        },
        {
          "internalType": "uint256",
          "name": "startTime",
          "type": "uint256"
        },
        {
          "internalType": "uint256",
          "name": "feesToDistribute",
          "type": "uint256"
        },
        {
          "internalType": "uint256",
          "name": "feesClaimed",
          "type": "uint256"
        },
        {
          "internalType": "uint256",
          "name": "rewardsToDistribute",
          "type": "uint256"
        },
        {
          "internalType": "uint256",
          "name": "rewardsClaimed",
          "type": "uint256"
        }
      ],
      "stateMutability": "view",
      "type": "function"
    },
    {
      "inputs": [],
      "name": "debtSystem",
      "outputs": [
        {
          "internalType": "contract LnDebtSystem",
          "name": "",
          "type": "address"
        }
      ],
      "stateMutability": "view",
      "type": "function"
    },
    {
      "inputs": [],
      "name": "exchangeSystemAddress",
      "outputs": [
        {
          "internalType": "address",
          "name": "",
          "type": "address"
        }
      ],
      "stateMutability": "view",
      "type": "function"
    },
    {
      "inputs": [],
      "name": "feePeriodDuration",
      "outputs": [
        {
          "internalType": "uint256",
          "name": "",
          "type": "uint256"
        }
      ],
      "stateMutability": "view",
      "type": "function"
    },
    {
      "inputs": [
        {
          "internalType": "address",
          "name": "user",
          "type": "address"
        }
      ],
      "name": "feesAvailable",
      "outputs": [
        {
          "internalType": "uint256",
          "name": "",
          "type": "uint256"
        },
        {
          "internalType": "uint256",
          "name": "",
          "type": "uint256"
        }
      ],
      "stateMutability": "view",
      "type": "function"
    },
    {
      "inputs": [
        {
          "internalType": "address",
          "name": "account",
          "type": "address"
        }
      ],
      "name": "isFeesClaimable",
      "outputs": [
        {
          "internalType": "bool",
          "name": "feesClaimable",
          "type": "bool"
        }
      ],
      "stateMutability": "view",
      "type": "function"
    },
    {
      "inputs": [],
      "name": "preRewardPeriod",
      "outputs": [
        {
          "internalType": "uint256",
          "name": "id",
          "type": "uint256"
        },
        {
          "internalType": "uint256",
          "name": "startingDebtFactor",
          "type": "uint256"
        },
        {
          "internalType": "uint256",
          "name": "startTime",
          "type": "uint256"
        },
        {
          "internalType": "uint256",
          "name": "feesToDistribute",
          "type": "uint256"
        },
        {
          "internalType": "uint256",
          "name": "feesClaimed",
          "type": "uint256"
        },
        {
          "internalType": "uint256",
          "name": "rewardsToDistribute",
          "type": "uint256"
        },
        {
          "internalType": "uint256",
          "name": "rewardsClaimed",
          "type": "uint256"
        }
      ],
      "stateMutability": "view",
      "type": "function"
    },
    {
      "inputs": [
        {
          "internalType": "uint256",
          "name": "index",
          "type": "uint256"
        }
      ],
      "name": "recentFeePeriods",
      "outputs": [
        {
          "internalType": "uint256",
          "name": "id",
          "type": "uint256"
        },
        {
          "internalType": "uint256",
          "name": "startingDebtFactor",
          "type": "uint256"
        },
        {
          "internalType": "uint256",
          "name": "startTime",
          "type": "uint256"
        },
        {
          "internalType": "uint256",
          "name": "feesToDistribute",
          "type": "uint256"
        },
        {
          "internalType": "uint256",
          "name": "feesClaimed",
          "type": "uint256"
        },
        {
          "internalType": "uint256",
          "name": "rewardsToDistribute",
          "type": "uint256"
        },
        {
          "internalType": "uint256",
          "name": "rewardsClaimed",
          "type": "uint256"
        }
      ],
      "stateMutability": "view",
      "type": "function"
    },
    {
      "inputs": [],
      "name": "rewardDistributer",
      "outputs": [
        {
          "internalType": "address",
          "name": "",
          "type": "address"
        }
      ],
      "stateMutability": "view",
      "type": "function"
    },
    {
      "inputs": [],
      "name": "rewardLocker",
      "outputs": [
        {
          "internalType": "contract LnRewardLocker",
          "name": "",
          "type": "address"
        }
      ],
      "stateMutability": "view",
      "type": "function"
    },
    {
      "inputs": [
        {
          "internalType": "address",
          "name": "_candidate",
          "type": "address"
        }
      ],
      "name": "setCandidate",
      "outputs": [],
      "stateMutability": "nonpayable",
      "type": "function"
    },
    {
      "inputs": [
        {
          "internalType": "address",
          "name": "_address",
          "type": "address"
        }
      ],
      "name": "setExchangeSystemAddress",
      "outputs": [],
      "stateMutability": "nonpayable",
      "type": "function"
    },
    {
      "inputs": [],
      "name": "switchPeriod",
      "outputs": [],
      "stateMutability": "nonpayable",
      "type": "function"
    },
    {
      "inputs": [
        {
          "internalType": "contract LnAddressStorage",
          "name": "_addressStorage",
          "type": "address"
        }
      ],
      "name": "updateAddressCache",
      "outputs": [],
      "stateMutability": "nonpayable",
      "type": "function"
    },
    {
      "inputs": [
        {
          "internalType": "address",
          "name": "",
          "type": "address"
        }
      ],
      "name": "userLastClaimedId",
      "outputs": [
        {
          "internalType": "uint256",
          "name": "",
          "type": "uint256"
        }
      ],
      "stateMutability": "view",
      "type": "function"
    },
    {
      "inputs": [
        {
          "internalType": "address",
          "name": "",
          "type": "address"
        },
        {
          "internalType": "uint256",
          "name": "",
          "type": "uint256"
        }
      ],
      "name": "userPeriodDebt",
      "outputs": [
        {
          "internalType": "uint256",
          "name": "PeriodID",
          "type": "uint256"
        },
        {
          "internalType": "uint256",
          "name": "debtProportion",
          "type": "uint256"
        },
        {
          "internalType": "uint256",
          "name": "debtFactor",
          "type": "uint256"
        }
      ],
      "stateMutability": "view",
      "type": "function"
    }
  ],
  "bytecode": "0x608060405262093a8060105534801561001757600080fd5b506040516130453803806130458339818101604052602081101561003a57600080fd5b81019080805190602001909291905050508080600073ffffffffffffffffffffffffffffffffffffffff168173ffffffffffffffffffffffffffffffffffffffff1614156100f0576040517f08c379a00000000000000000000000000000000000000000000000000000000081526004018080602001828103825260198152602001807f61646d696e20616464726573732063616e6e6f7420626520300000000000000081525060200191505060405180910390fd5b806000806101000a81548173ffffffffffffffffffffffffffffffffffffffff021916908373ffffffffffffffffffffffffffffffffffffffff1602179055507f7e644d79422f17c01e4894b5f4f588d331ebfa28653d42ae832dc59e38c9798f600082604051808373ffffffffffffffffffffffffffffffffffffffff1681526020018273ffffffffffffffffffffffffffffffffffffffff1681526020019250505060405180910390a1505061546060108190555050612e8e806101b76000396000f3fe608060405234801561001057600080fd5b50600436106101a95760003560e01c806359a2f19f116100f95780638b519fd911610097578063bc02909111610071578063bc02909114610717578063d294f09314610787578063e7d7701b146107a7578063f851a440146107eb576101a9565b80638b519fd9146106ab578063b3f3e673146106d9578063bae747db146106e3576101a9565b80636c8381f8116100d35780636c8381f81461058f578063704d3512146105c3578063708d52101461061b5780637f86b71b14610663576101a9565b806359a2f19f146104c357806359ed60051461051d5780635a5f14c81461054b576101a9565b806336babe7a1161016657806345acd56f1161014057806345acd56f146103d95780634b86f75f1461043d5780634bcff4601461047157806353d2341d1461048f576101a9565b806336babe7a146103055780633892601c146103395780633fcd22401461036d576101a9565b806307880b7f146101ae5780630de58615146101f257806321f4808e1461025157806322425fa41461028557806325971dff146102a357806335e4a171146102ad575b600080fd5b6101f0600480360360208110156101c457600080fd5b81019080803573ffffffffffffffffffffffffffffffffffffffff16906020019092919050505061081f565b005b6102346004803603602081101561020857600080fd5b81019080803573ffffffffffffffffffffffffffffffffffffffff1690602001909291905050506109bc565b604051808381526020018281526020019250505060405180910390f35b610259610cdd565b604051808273ffffffffffffffffffffffffffffffffffffffff16815260200191505060405180910390f35b61028d610d03565b6040518082815260200191505060405180910390f35b6102ab610d0d565b005b610303600480360360608110156102c357600080fd5b81019080803573ffffffffffffffffffffffffffffffffffffffff1690602001909291908035906020019092919080359060200190929190505050610ee6565b005b61030d61124e565b604051808273ffffffffffffffffffffffffffffffffffffffff16815260200191505060405180910390f35b610341611274565b604051808273ffffffffffffffffffffffffffffffffffffffff16815260200191505060405180910390f35b6103996004803603602081101561038357600080fd5b810190808035906020019092919050505061129a565b6040518088815260200187815260200186815260200185815260200184815260200183815260200182815260200197505050505050505060405180910390f35b61043b600480360360408110156103ef57600080fd5b81019080803573ffffffffffffffffffffffffffffffffffffffff169060200190929190803573ffffffffffffffffffffffffffffffffffffffff1690602001909291905050506113cb565b005b6104456114f5565b604051808273ffffffffffffffffffffffffffffffffffffffff16815260200191505060405180910390f35b61047961151b565b6040518082815260200191505060405180910390f35b610497611521565b604051808273ffffffffffffffffffffffffffffffffffffffff16815260200191505060405180910390f35b610505600480360360208110156104d957600080fd5b81019080803573ffffffffffffffffffffffffffffffffffffffff169060200190929190505050611547565b60405180821515815260200191505060405180910390f35b6105496004803603602081101561053357600080fd5b8101908080359060200190929190505050611680565b005b61058d6004803603602081101561056157600080fd5b81019080803573ffffffffffffffffffffffffffffffffffffffff16906020019092919050505061179e565b005b610597611f1e565b604051808273ffffffffffffffffffffffffffffffffffffffff16815260200191505060405180910390f35b610605600480360360208110156105d957600080fd5b81019080803573ffffffffffffffffffffffffffffffffffffffff169060200190929190505050611f44565b6040518082815260200191505060405180910390f35b610623611f5c565b6040518088815260200187815260200186815260200185815260200184815260200183815260200182815260200197505050505050505060405180910390f35b61066b611f8c565b6040518088815260200187815260200186815260200185815260200184815260200183815260200182815260200197505050505050505060405180910390f35b6106d7600480360360208110156106c157600080fd5b8101908080359060200190929190505050611fbc565b005b6106e16120da565b005b6106eb612309565b604051808273ffffffffffffffffffffffffffffffffffffffff16815260200191505060405180910390f35b6107636004803603604081101561072d57600080fd5b81019080803573ffffffffffffffffffffffffffffffffffffffff1690602001909291908035906020019092919050505061230f565b60405180848152602001838152602001828152602001935050505060405180910390f35b61078f612349565b60405180821515815260200191505060405180910390f35b6107e9600480360360208110156107bd57600080fd5b81019080803573ffffffffffffffffffffffffffffffffffffffff169060200190929190505050612812565b005b6107f36128fa565b604051808273ffffffffffffffffffffffffffffffffffffffff16815260200191505060405180910390f35b60008054906101000a900473ffffffffffffffffffffffffffffffffffffffff1673ffffffffffffffffffffffffffffffffffffffff163373ffffffffffffffffffffffffffffffffffffffff16146108c3576040517f08c379a000000000000000000000000000000000000000000000000000000000815260040180806020018281038252602f815260200180612e2a602f913960400191505060405180910390fd5b6000600160009054906101000a900473ffffffffffffffffffffffffffffffffffffffff16905081600160006101000a81548173ffffffffffffffffffffffffffffffffffffffff021916908373ffffffffffffffffffffffffffffffffffffffff1602179055507f0faed18be9e8f4d4c05dfbcc80ea2c97a0be729614d766827778f60890c02cab81600160009054906101000a900473ffffffffffffffffffffffffffffffffffffffff16604051808373ffffffffffffffffffffffffffffffffffffffff1681526020018273ffffffffffffffffffffffffffffffffffffffff1681526020019250505060405180910390a15050565b60008060006009600301541480156109d957506000600960050154145b156109ea5760008091509150610cd8565b6000601260008573ffffffffffffffffffffffffffffffffffffffff1673ffffffffffffffffffffffffffffffffffffffff168152602001908152602001600020600160028110610a3757fe5b6003020160000154601260008673ffffffffffffffffffffffffffffffffffffffff1673ffffffffffffffffffffffffffffffffffffffff168152602001908152602001600020600060028110610a8a57fe5b60030201600001541015610a9d57600190505b60005b601260008673ffffffffffffffffffffffffffffffffffffffff1673ffffffffffffffffffffffffffffffffffffffff1681526020019081526020016000205060028167ffffffffffffffff161015610b7a57600260000154601260008773ffffffffffffffffffffffffffffffffffffffff1673ffffffffffffffffffffffffffffffffffffffff1681526020019081526020016000208267ffffffffffffffff1660028110610b4d57fe5b60030201600001541415610b6d578067ffffffffffffffff169150610b7a565b8080600101915050610aa0565b506000601260008673ffffffffffffffffffffffffffffffffffffffff1673ffffffffffffffffffffffffffffffffffffffff1681526020019081526020016000208260028110610bc757fe5b600302016002015490506000601260008773ffffffffffffffffffffffffffffffffffffffff1673ffffffffffffffffffffffffffffffffffffffff1681526020019081526020016000208360028110610c1d57fe5b600302016001015490506000821415610c3f5760008094509450505050610cd8565b600060026001015490506000610c7083610c62868561291e90919063ffffffff16565b61293a90919063ffffffff16565b90506000610c9c610c9783610c89600960030154612956565b61293a90919063ffffffff16565b61297c565b90506000610cc8610cc384610cb5600960050154612956565b61293a90919063ffffffff16565b61297c565b9050818198509850505050505050505b915091565b601460009054906101000a900473ffffffffffffffffffffffffffffffffffffffff1681565b6000601054905090565b600160009054906101000a900473ffffffffffffffffffffffffffffffffffffffff1673ffffffffffffffffffffffffffffffffffffffff163373ffffffffffffffffffffffffffffffffffffffff1614610dd0576040517f08c379a000000000000000000000000000000000000000000000000000000000815260040180806020018281038252601f8152602001807f4f6e6c792063616e6469646174652063616e206265636f6d652061646d696e0081525060200191505060405180910390fd5b60008060009054906101000a900473ffffffffffffffffffffffffffffffffffffffff169050600160009054906101000a900473ffffffffffffffffffffffffffffffffffffffff166000806101000a81548173ffffffffffffffffffffffffffffffffffffffff021916908373ffffffffffffffffffffffffffffffffffffffff1602179055507f7e644d79422f17c01e4894b5f4f588d331ebfa28653d42ae832dc59e38c9798f8160008054906101000a900473ffffffffffffffffffffffffffffffffffffffff16604051808373ffffffffffffffffffffffffffffffffffffffff1681526020018273ffffffffffffffffffffffffffffffffffffffff1681526020019250505060405180910390a150565b601360009054906101000a900473ffffffffffffffffffffffffffffffffffffffff1673ffffffffffffffffffffffffffffffffffffffff163373ffffffffffffffffffffffffffffffffffffffff1614610fa9576040517f08c379a00000000000000000000000000000000000000000000000000000000081526004018080602001828103825260158152602001807f4f6e6c7920446562742073797374656d2063616c6c000000000000000000000081525060200191505060405180910390fd5b600060026000015490506000601260008673ffffffffffffffffffffffffffffffffffffffff1673ffffffffffffffffffffffffffffffffffffffff16815260200190815260200160002060016002811061100057fe5b6003020160000154601260008773ffffffffffffffffffffffffffffffffffffffff1673ffffffffffffffffffffffffffffffffffffffff16815260200190815260200160002060006002811061105357fe5b6003020160000154111561106657600190505b600081905060005b601260008873ffffffffffffffffffffffffffffffffffffffff1673ffffffffffffffffffffffffffffffffffffffff1681526020019081526020016000205060028167ffffffffffffffff1610156111435783601260008973ffffffffffffffffffffffffffffffffffffffff1673ffffffffffffffffffffffffffffffffffffffff1681526020019081526020016000208267ffffffffffffffff166002811061111657fe5b60030201600001541415611136578067ffffffffffffffff169150611143565b808060010191505061106e565b5082601260008873ffffffffffffffffffffffffffffffffffffffff1673ffffffffffffffffffffffffffffffffffffffff168152602001908152602001600020826002811061118f57fe5b600302016000018190555084601260008873ffffffffffffffffffffffffffffffffffffffff1673ffffffffffffffffffffffffffffffffffffffff16815260200190815260200160002082600281106111e557fe5b600302016001018190555083601260008873ffffffffffffffffffffffffffffffffffffffff1673ffffffffffffffffffffffffffffffffffffffff168152602001908152602001600020826002811061123b57fe5b6003020160020181905550505050505050565b601860009054906101000a900473ffffffffffffffffffffffffffffffffffffffff1681565b601560009054906101000a900473ffffffffffffffffffffffffffffffffffffffff1681565b600080600080600080600060018811156112cc57600080600080600080600096509650965096509650965096506113c0565b6112d4612da7565b60008914156113375760026040518060e0016040529081600082015481526020016001820154815260200160028201548152602001600382015481526020016004820154815260200160058201548152602001600682015481525050905061138d565b60096040518060e001604052908160008201548152602001600182015481526020016002820154815260200160038201548152602001600482015481526020016005820154815260200160068201548152505090505b806000015181602001518260400151836060015184608001518560a001518660c001519750975097509750975097509750505b919395979092949650565b60008054906101000a900473ffffffffffffffffffffffffffffffffffffffff1673ffffffffffffffffffffffffffffffffffffffff163373ffffffffffffffffffffffffffffffffffffffff161461146f576040517f08c379a000000000000000000000000000000000000000000000000000000000815260040180806020018281038252602f815260200180612e2a602f913960400191505060405180910390fd5b81601760006101000a81548173ffffffffffffffffffffffffffffffffffffffff021916908373ffffffffffffffffffffffffffffffffffffffff16021790555080601860006101000a81548173ffffffffffffffffffffffffffffffffffffffff021916908373ffffffffffffffffffffffffffffffffffffffff1602179055505050565b601360009054906101000a900473ffffffffffffffffffffffffffffffffffffffff1681565b60105481565b601760009054906101000a900473ffffffffffffffffffffffffffffffffffffffff1681565b6000801515601460009054906101000a900473ffffffffffffffffffffffffffffffffffffffff1673ffffffffffffffffffffffffffffffffffffffff1663bc65d434846040518263ffffffff1660e01b8152600401808273ffffffffffffffffffffffffffffffffffffffff16815260200191505060206040518083038186803b1580156115d557600080fd5b505afa1580156115e9573d6000803e3d6000fd5b505050506040513d60208110156115ff57600080fd5b810190808051906020019092919050505015151415611621576000905061167b565b600960000154601160008473ffffffffffffffffffffffffffffffffffffffff1673ffffffffffffffffffffffffffffffffffffffff168152602001908152602001600020541415611676576000905061167b565b600190505b919050565b601760009054906101000a900473ffffffffffffffffffffffffffffffffffffffff1673ffffffffffffffffffffffffffffffffffffffff163373ffffffffffffffffffffffffffffffffffffffff1614611743576040517f08c379a00000000000000000000000000000000000000000000000000000000081526004018080602001828103825260198152602001807f4f6e6c792045786368616e67652053797374656d2063616c6c0000000000000081525060200191505060405180910390fd5b61175b816002600301546129cb90919063ffffffff16565b6002600301819055507f2346b504ea081713647f1908441e88428ad81a40c85a6e4a664cf0bf20b6a31a816040518082815260200191505060405180910390a150565b60008054906101000a900473ffffffffffffffffffffffffffffffffffffffff1673ffffffffffffffffffffffffffffffffffffffff163373ffffffffffffffffffffffffffffffffffffffff1614611842576040517f08c379a000000000000000000000000000000000000000000000000000000000815260040180806020018281038252602f815260200180612e2a602f913960400191505060405180910390fd5b8073ffffffffffffffffffffffffffffffffffffffff1663768911da6040518163ffffffff1660e01b815260040180807f4c6e4465627453797374656d0000000000000000000000000000000000000000815250602001806020018281038252601e8152602001807f4c6e4465627453797374656d2061646472657373206e6f742076616c6964000081525060200191505060206040518083038186803b1580156118ec57600080fd5b505afa158015611900573d6000803e3d6000fd5b505050506040513d602081101561191657600080fd5b8101908080519060200190929190505050601360006101000a81548173ffffffffffffffffffffffffffffffffffffffff021916908373ffffffffffffffffffffffffffffffffffffffff16021790555060008173ffffffffffffffffffffffffffffffffffffffff1663768911da6040518163ffffffff1660e01b815260040180807f4c6e436f6c6c61746572616c53797374656d00000000000000000000000000008152506020018060200182810382526024815260200180612de56024913960400191505060206040518083038186803b1580156119f657600080fd5b505afa158015611a0a573d6000803e3d6000fd5b505050506040513d6020811015611a2057600080fd5b8101908080519060200190929190505050905080601460006101000a81548173ffffffffffffffffffffffffffffffffffffffff021916908373ffffffffffffffffffffffffffffffffffffffff1602179055508173ffffffffffffffffffffffffffffffffffffffff1663768911da6040518163ffffffff1660e01b815260040180807f4c6e5265776172644c6f636b657200000000000000000000000000000000000081525060200180602001828103825260208152602001807f4c6e5265776172644c6f636b65722061646472657373206e6f742076616c696481525060200191505060206040518083038186803b158015611b1e57600080fd5b505afa158015611b32573d6000803e3d6000fd5b505050506040513d6020811015611b4857600080fd5b8101908080519060200190929190505050601560006101000a81548173ffffffffffffffffffffffffffffffffffffffff021916908373ffffffffffffffffffffffffffffffffffffffff1602179055508173ffffffffffffffffffffffffffffffffffffffff1663768911da6040518163ffffffff1660e01b815260040180807f4c6e417373657453797374656d00000000000000000000000000000000000000815250602001806020018281038252601f8152602001807f4c6e417373657453797374656d2061646472657373206e6f742076616c69640081525060200191505060206040518083038186803b158015611c4357600080fd5b505afa158015611c57573d6000803e3d6000fd5b505050506040513d6020811015611c6d57600080fd5b8101908080519060200190929190505050601660006101000a81548173ffffffffffffffffffffffffffffffffffffffff021916908373ffffffffffffffffffffffffffffffffffffffff1602179055507f45a7f8d84f7ad724869d024abcaa743ae6aec455a969df76b5d1e9c5cac4d2ae601360009054906101000a900473ffffffffffffffffffffffffffffffffffffffff1660405180807f4c6e4465627453797374656d00000000000000000000000000000000000000008152506020018273ffffffffffffffffffffffffffffffffffffffff16815260200191505060405180910390a17f45a7f8d84f7ad724869d024abcaa743ae6aec455a969df76b5d1e9c5cac4d2ae601460009054906101000a900473ffffffffffffffffffffffffffffffffffffffff1660405180807f4c6e436f6c6c61746572616c53797374656d00000000000000000000000000008152506020018273ffffffffffffffffffffffffffffffffffffffff16815260200191505060405180910390a17f45a7f8d84f7ad724869d024abcaa743ae6aec455a969df76b5d1e9c5cac4d2ae601560009054906101000a900473ffffffffffffffffffffffffffffffffffffffff1660405180807f4c6e5265776172644c6f636b65720000000000000000000000000000000000008152506020018273ffffffffffffffffffffffffffffffffffffffff16815260200191505060405180910390a17f45a7f8d84f7ad724869d024abcaa743ae6aec455a969df76b5d1e9c5cac4d2ae601660009054906101000a900473ffffffffffffffffffffffffffffffffffffffff1660405180807f4c6e417373657453797374656d000000000000000000000000000000000000008152506020018273ffffffffffffffffffffffffffffffffffffffff16815260200191505060405180910390a15050565b600160009054906101000a900473ffffffffffffffffffffffffffffffffffffffff1681565b60116020528060005260406000206000915090505481565b60028060000154908060010154908060020154908060030154908060040154908060050154908060060154905087565b60098060000154908060010154908060020154908060030154908060040154908060050154908060060154905087565b601860009054906101000a900473ffffffffffffffffffffffffffffffffffffffff1673ffffffffffffffffffffffffffffffffffffffff163373ffffffffffffffffffffffffffffffffffffffff161461207f576040517f08c379a000000000000000000000000000000000000000000000000000000000815260040180806020018281038252601c8152602001807f4f6e6c79205265776172642044697374726962757465722063616c6c0000000081525060200191505060405180910390fd5b612097816002600501546129cb90919063ffffffff16565b6002600501819055507f953cfafd534d5937356e70b7110370f0c59577ead2e8162eb4969201531c72c4816040518082815260200191505060405180910390a150565b601054600280015401421015612158576040517f08c379a00000000000000000000000000000000000000000000000000000000081526004018080602001828103825260178152602001807f49742773206e6f742074696d6520746f2073776974636800000000000000000081525060200191505060405180910390fd5b60026000015460096000018190555060026001015460096001018190555060028001546009600201819055506121b86121a4600960040154600960030154612a5390919063ffffffff16565b6002600301546129cb90919063ffffffff16565b60096003018190555060006009600401819055506122006121ec600960060154600960050154612a5390919063ffffffff16565b6002600501546129cb90919063ffffffff16565b6009600501819055506000600960060181905550600160026000015401600260000181905550601360009054906101000a900473ffffffffffffffffffffffffffffffffffffffff1673ffffffffffffffffffffffffffffffffffffffff1663cb6a11056040518163ffffffff1660e01b815260040160206040518083038186803b15801561228e57600080fd5b505afa1580156122a2573d6000803e3d6000fd5b505050506040513d60208110156122b857600080fd5b81019080805190602001909291905050506002600101819055504260028001819055506000600260030181905550600060026004018190555060006002600501819055506000600260060181905550565b61204881565b6012602052816000526040600020816002811061232857fe5b60030201600091509150508060000154908060010154908060020154905083565b60008033905061235881611547565b6123ca576040517f08c379a00000000000000000000000000000000000000000000000000000000081526004018080602001828103825260158152602001807f55736572206973206e6f7420636c61696d61626c65000000000000000000000081525060200191505060405180910390fd5b600960000154601160008373ffffffffffffffffffffffffffffffffffffffff1673ffffffffffffffffffffffffffffffffffffffff1681526020019081526020016000208190555060008061241f836109bc565b9150915060008211806124325750600081115b6124a4576040517f08c379a00000000000000000000000000000000000000000000000000000000081526004018080602001828103825260108152602001807f4e6f7468696e6720746f20636c61696d0000000000000000000000000000000081525060200191505060405180910390fd5b60008211156126ce576000601660009054906101000a900473ffffffffffffffffffffffffffffffffffffffff1673ffffffffffffffffffffffffffffffffffffffff1663768911da6040518163ffffffff1660e01b815260040180807f4c494e4100000000000000000000000000000000000000000000000000000000815250602001806020018281038252601b8152602001807f676574206c696e612061737365742061646472657373206661696c000000000081525060200191505060206040518083038186803b15801561257b57600080fd5b505afa15801561258f573d6000803e3d6000fd5b505050506040513d60208110156125a557600080fd5b810190808051906020019092919050505090508073ffffffffffffffffffffffffffffffffffffffff16639dc29fac612048856040518363ffffffff1660e01b8152600401808373ffffffffffffffffffffffffffffffffffffffff16815260200182815260200192505050600060405180830381600087803b15801561262b57600080fd5b505af115801561263f573d6000803e3d6000fd5b505050508073ffffffffffffffffffffffffffffffffffffffff166340c10f1985856040518363ffffffff1660e01b8152600401808373ffffffffffffffffffffffffffffffffffffffff16815260200182815260200192505050600060405180830381600087803b1580156126b457600080fd5b505af11580156126c8573d6000803e3d6000fd5b50505050505b60008111156127ab5760006301dfe20067ffffffffffffffff1642019050601560009054906101000a900473ffffffffffffffffffffffffffffffffffffffff1673ffffffffffffffffffffffffffffffffffffffff16639726065d8584846040518463ffffffff1660e01b8152600401808473ffffffffffffffffffffffffffffffffffffffff1681526020018381526020018267ffffffffffffffff1681526020019350505050600060405180830381600087803b15801561279157600080fd5b505af11580156127a5573d6000803e3d6000fd5b50505050505b7f1ac537f0ad67b64ac68a04587ff3a4cb6977de22eb2c37ee560897a92c6d07c7838383604051808473ffffffffffffffffffffffffffffffffffffffff168152602001838152602001828152602001935050505060405180910390a16001935050505090565b60008054906101000a900473ffffffffffffffffffffffffffffffffffffffff1673ffffffffffffffffffffffffffffffffffffffff163373ffffffffffffffffffffffffffffffffffffffff16146128b6576040517f08c379a000000000000000000000000000000000000000000000000000000000815260040180806020018281038252602f815260200180612e2a602f913960400191505060405180910390fd5b80601760006101000a81548173ffffffffffffffffffffffffffffffffffffffff021916908373ffffffffffffffffffffffffffffffffffffffff16021790555050565b60008054906101000a900473ffffffffffffffffffffffffffffffffffffffff1681565b60006129328383601b60ff16600a0a612a9d565b905092915050565b600061294e8383601b60ff16600a0a612af8565b905092915050565b60006129756012601b0360ff16600a0a83612b5190919063ffffffff16565b9050919050565b600080600a6012601b0360ff16600a0a8161299357fe5b04838161299c57fe5b0490506005600a82816129ab57fe5b06106129b857600a810190505b600a81816129c257fe5b04915050919050565b600080828401905083811015612a49576040517f08c379a000000000000000000000000000000000000000000000000000000000815260040180806020018281038252601b8152602001807f536166654d6174683a206164646974696f6e206f766572666c6f77000000000081525060200191505060405180910390fd5b8091505092915050565b6000612a9583836040518060400160405280601e81526020017f536166654d6174683a207375627472616374696f6e206f766572666c6f770000815250612bd7565b905092915050565b600080612ac884612aba600a860288612b5190919063ffffffff16565b612c9790919063ffffffff16565b90506005600a8281612ad657fe5b0610612ae357600a810190505b600a8181612aed57fe5b049150509392505050565b600080600a8381612b0557fe5b04612b198587612b5190919063ffffffff16565b81612b2057fe5b0490506005600a8281612b2f57fe5b0610612b3c57600a810190505b600a8181612b4657fe5b049150509392505050565b600080831415612b645760009050612bd1565b6000828402905082848281612b7557fe5b0414612bcc576040517f08c379a0000000000000000000000000000000000000000000000000000000008152600401808060200182810382526021815260200180612e096021913960400191505060405180910390fd5b809150505b92915050565b6000838311158290612c84576040517f08c379a00000000000000000000000000000000000000000000000000000000081526004018080602001828103825283818151815260200191508051906020019080838360005b83811015612c49578082015181840152602081019050612c2e565b50505050905090810190601f168015612c765780820380516001836020036101000a031916815260200191505b509250505060405180910390fd5b5060008385039050809150509392505050565b6000612cd983836040518060400160405280601a81526020017f536166654d6174683a206469766973696f6e206279207a65726f000000000000815250612ce1565b905092915050565b60008083118290612d8d576040517f08c379a00000000000000000000000000000000000000000000000000000000081526004018080602001828103825283818151815260200191508051906020019080838360005b83811015612d52578082015181840152602081019050612d37565b50505050905090810190601f168015612d7f5780820380516001836020036101000a031916815260200191505b509250505060405180910390fd5b506000838581612d9957fe5b049050809150509392505050565b6040518060e0016040528060008152602001600081526020016000815260200160008152602001600081526020016000815260200160008152509056fe4c6e436f6c6c61746572616c53797374656d2061646472657373206e6f742076616c6964536166654d6174683a206d756c7469706c69636174696f6e206f766572666c6f774f6e6c792074686520636f6e74726163742061646d696e2063616e20706572666f726d207468697320616374696f6ea2646970667358221220e6175ea061198ee0ecba40cd2baf92156fded390d3a0e255162d6db825d853ba64736f6c634300060c0033",
  "immutableReferences": {},
  "source": "// SPDX-License-Identifier: MIT\r\npragma solidity ^0.6.12;\r\n\r\nimport \"./LnAdmin.sol\";\r\nimport \"@openzeppelin/contracts/math/SafeMath.sol\";\r\nimport \"./SafeDecimalMath.sol\";\r\nimport \"./LnAddressCache.sol\";\r\nimport \"./LnDebtSystem.sol\";\r\nimport \"./LnCollateralSystem.sol\";\r\nimport \"./LnRewardLocker.sol\";\r\nimport \"./LnAssetSystem.sol\";\r\nimport \"./LnAsset.sol\";\r\n\r\ncontract LnFeeSystem is LnAdmin, LnAddressCache {\r\n    using SafeMath for uint256;\r\n    using SafeDecimalMath for uint256;\r\n\r\n    address public constant FEE_DUMMY_ADDRESS = address(0x2048); \r\n\r\n    struct UserDebtData {\r\n        uint256 PeriodID; // Period id\r\n        uint256 debtProportion;\r\n        uint256 debtFactor; // PRECISE_UNIT\r\n    }\r\n\r\n    struct RewardPeriod {\r\n        uint256 id; // Period id\r\n        uint256 startingDebtFactor;\r\n        uint256 startTime;\r\n        uint256 feesToDistribute; // \r\n        uint256 feesClaimed; // \r\n        uint256 rewardsToDistribute; // \r\n        uint256 rewardsClaimed; // \r\n    }\r\n\r\n    RewardPeriod public curRewardPeriod;\r\n    RewardPeriod public preRewardPeriod;\r\n    uint256 public OnePeriodSecs = 1 weeks;\r\n\r\n    mapping (address => uint256) public userLastClaimedId;\r\n\r\n    mapping (address => UserDebtData[2]) public userPeriodDebt; // one for current period, one for pre period\r\n\r\n    //\r\n    LnDebtSystem public debtSystem;\r\n    LnCollateralSystem public collateralSystem;\r\n    LnRewardLocker public rewardLocker;\r\n    LnAssetSystem mAssets;\r\n\r\n    address public exchangeSystemAddress;\r\n    address public rewardDistributer;\r\n\r\n    constructor(address _admin ) public LnAdmin(_admin ) {\r\n    }\r\n\r\n    // Note: before start run need call this func to init.\r\n    function Init(address _exchangeSystem, address _rewardDistri) public onlyAdmin {\r\n        exchangeSystemAddress = _exchangeSystem;\r\n        rewardDistributer = _rewardDistri;\r\n    }\r\n\r\n    function setExchangeSystemAddress(address _address) public onlyAdmin {\r\n        exchangeSystemAddress = _address;\r\n    }\r\n\r\n    modifier onlyExchanger {\r\n        require( (msg.sender == exchangeSystemAddress), \"Only Exchange System call\");\r\n        _;\r\n    }\r\n\r\n    modifier onlyDistributer {\r\n        require( (msg.sender == rewardDistributer), \"Only Reward Distributer call\");\r\n        _;\r\n    }\r\n\r\n    function addExchangeFee( uint feeUsd ) public onlyExchanger {\r\n        curRewardPeriod.feesToDistribute = curRewardPeriod.feesToDistribute.add(feeUsd);\r\n        emit ExchangeFee( feeUsd );\r\n    }\r\n\r\n    // TODO: call by contract or auto distribute?\r\n    function addCollateralRewards( uint reward) public onlyDistributer {\r\n        curRewardPeriod.rewardsToDistribute = curRewardPeriod.rewardsToDistribute.add(reward);\r\n        emit RewardCollateral(reward);\r\n    }\r\n\r\n    event ExchangeFee( uint feeUsd );\r\n    event RewardCollateral( uint reward );\r\n    event FeesClaimed(address user, uint lUSDAmount, uint linaRewards);\r\n\r\n    function updateAddressCache( LnAddressStorage _addressStorage ) onlyAdmin public override\r\n    {\r\n        debtSystem =      LnDebtSystem(     _addressStorage.getAddressWithRequire( \"LnDebtSystem\",      \"LnDebtSystem address not valid\" ));\r\n        address payable collateralAddress = payable(_addressStorage.getAddressWithRequire( \"LnCollateralSystem\",\"LnCollateralSystem address not valid\" ));\r\n        collateralSystem = LnCollateralSystem( collateralAddress );\r\n        rewardLocker =   LnRewardLocker(     _addressStorage.getAddressWithRequire( \"LnRewardLocker\",      \"LnRewardLocker address not valid\" ));\r\n        mAssets = LnAssetSystem(_addressStorage.getAddressWithRequire( \"LnAssetSystem\",      \"LnAssetSystem address not valid\" ));\r\n\r\n        emit updateCachedAddress( \"LnDebtSystem\",      address(debtSystem) );\r\n        emit updateCachedAddress( \"LnCollateralSystem\",address(collateralSystem) );\r\n        emit updateCachedAddress( \"LnRewardLocker\",address(rewardLocker) );\r\n        emit updateCachedAddress( \"LnAssetSystem\",address(mAssets) );\r\n     }\r\n\r\n    function switchPeriod() public {\r\n        require(now >= curRewardPeriod.startTime + OnePeriodSecs, \"It's not time to switch\");\r\n\r\n        preRewardPeriod.id = curRewardPeriod.id;\r\n        preRewardPeriod.startingDebtFactor = curRewardPeriod.startingDebtFactor;\r\n        preRewardPeriod.startTime = curRewardPeriod.startTime;\r\n        preRewardPeriod.feesToDistribute = curRewardPeriod.feesToDistribute.add( preRewardPeriod.feesToDistribute.sub(preRewardPeriod.feesClaimed) );\r\n        preRewardPeriod.feesClaimed = 0;\r\n        preRewardPeriod.rewardsToDistribute = curRewardPeriod.rewardsToDistribute.add( preRewardPeriod.rewardsToDistribute.sub(preRewardPeriod.rewardsClaimed) );\r\n        preRewardPeriod.rewardsClaimed = 0;\r\n        \r\n        curRewardPeriod.id = curRewardPeriod.id + 1;\r\n        curRewardPeriod.startingDebtFactor = debtSystem.LastSystemDebtFactor();\r\n        curRewardPeriod.startTime = now;\r\n        curRewardPeriod.feesToDistribute = 0;\r\n        curRewardPeriod.feesClaimed = 0;\r\n        curRewardPeriod.rewardsToDistribute = 0;\r\n        curRewardPeriod.rewardsClaimed = 0;\r\n    }\r\n\r\n    function feePeriodDuration() external view returns (uint) {\r\n        return OnePeriodSecs;\r\n    }\r\n\r\n    function recentFeePeriods(uint index) external view\r\n        returns (\r\n            uint256 id,\r\n            uint256 startingDebtFactor,\r\n            uint256 startTime,\r\n            uint256 feesToDistribute,\r\n            uint256 feesClaimed,\r\n            uint256 rewardsToDistribute,\r\n            uint256 rewardsClaimed\r\n        )\r\n    {\r\n        if (index > 1) {\r\n            return (0,0,0,0,0,0,0);\r\n        }\r\n        RewardPeriod memory rewardPd;\r\n        if (index == 0) {\r\n            rewardPd = curRewardPeriod;\r\n        } else {\r\n            rewardPd = preRewardPeriod;\r\n        }\r\n        return (\r\n            rewardPd.id,\r\n            rewardPd.startingDebtFactor,\r\n            rewardPd.startTime,\r\n            rewardPd.feesToDistribute,\r\n            rewardPd.feesClaimed,\r\n            rewardPd.rewardsToDistribute,\r\n            rewardPd.rewardsClaimed\r\n        );\r\n    }\r\n\r\n    modifier onlyDebtSystem() {\r\n        require(msg.sender == address(debtSystem), \"Only Debt system call\");\r\n        _;\r\n    }\r\n\r\n    // build record\r\n    function RecordUserDebt(address user, uint256 debtProportion, uint256 debtFactor) public onlyDebtSystem {\r\n        uint256 curId = curRewardPeriod.id;\r\n        uint256 minPos = 0;\r\n        if (userPeriodDebt[user][0].PeriodID > userPeriodDebt[user][1].PeriodID) {\r\n            minPos = 1;\r\n        }\r\n        uint256 pos = minPos;\r\n        for (uint64 i = 0; i < userPeriodDebt[user].length; i++) {\r\n            if (userPeriodDebt[user][i].PeriodID == curId) {\r\n                pos = i;\r\n                break;\r\n            }\r\n        }\r\n        userPeriodDebt[user][pos].PeriodID = curId;\r\n        userPeriodDebt[user][pos].debtProportion = debtProportion;\r\n        userPeriodDebt[user][pos].debtFactor = debtFactor;\r\n    }\r\n\r\n    function isFeesClaimable(address account) public view returns (bool feesClaimable) {\r\n        if (collateralSystem.IsSatisfyTargetRatio(account) == false) {\r\n            return false;\r\n        }\r\n\r\n        if (userLastClaimedId[account] == preRewardPeriod.id) {\r\n            return false;\r\n        }\r\n\r\n        // TODO: other condition?\r\n        return true;\r\n    }\r\n\r\n    // total fee and total reward\r\n    function feesAvailable(address user) public view returns (uint, uint) {\r\n        if (preRewardPeriod.feesToDistribute == 0 && preRewardPeriod.rewardsToDistribute == 0) {\r\n            return (0,0);\r\n        }\r\n        // close factor\r\n        uint256 pos = 0;\r\n        if (userPeriodDebt[user][0].PeriodID < userPeriodDebt[user][1].PeriodID) {\r\n            pos = 1;\r\n        }\r\n        for (uint64 i = 0; i < userPeriodDebt[user].length; i++) {\r\n            if (userPeriodDebt[user][i].PeriodID == curRewardPeriod.id) {\r\n                pos = i;\r\n                break;\r\n            }\r\n        }\r\n\r\n        uint256 debtFactor = userPeriodDebt[user][pos].debtFactor;\r\n        uint256 debtProportion = userPeriodDebt[user][pos].debtProportion;\r\n        if (debtFactor == 0) {\r\n            return (0,0);\r\n        }\r\n\r\n        uint256 lastPeriodDebtFactor = curRewardPeriod.startingDebtFactor;\r\n        uint256 userDebtProportion = lastPeriodDebtFactor\r\n                .divideDecimalRoundPrecise(debtFactor)\r\n                .multiplyDecimalRoundPrecise(debtProportion);\r\n\r\n        uint256 fee = preRewardPeriod.feesToDistribute\r\n                .decimalToPreciseDecimal()\r\n                .multiplyDecimalRoundPrecise(userDebtProportion)\r\n                .preciseDecimalToDecimal();\r\n\r\n        uint256 reward = preRewardPeriod.rewardsToDistribute\r\n                .decimalToPreciseDecimal()\r\n                .multiplyDecimalRoundPrecise(userDebtProportion)\r\n                .preciseDecimalToDecimal();\r\n        return (fee, reward);\r\n    }\r\n\r\n    // claim fee and reward.\r\n    function claimFees() external returns (bool) {\r\n        address user = msg.sender;\r\n        require( isFeesClaimable(user), \"User is not claimable\" );\r\n\r\n        userLastClaimedId[user] = preRewardPeriod.id;\r\n        // fee reward: mint lusd\r\n        // : rewardLocker.appendReward(use, reward, now + 1 years);\r\n        (uint256 fee, uint256 reward) = feesAvailable(user);\r\n        require(fee > 0 || reward > 0, \"Nothing to claim\");\r\n\r\n        if (fee > 0) {\r\n            LnAsset lusd = LnAsset( mAssets.getAddressWithRequire( \"LINA\", \"get lina asset address fail\" ));\r\n            lusd.burn( FEE_DUMMY_ADDRESS, fee );\r\n            lusd.mint(user, fee);\r\n        }\r\n\r\n        if (reward > 0) {\r\n            uint64 totime = uint64(now + uint64(52 weeks));\r\n            rewardLocker.appendReward(user, reward, totime);\r\n        }\r\n        emit FeesClaimed(user, fee, reward);\r\n        return true;\r\n    }\r\n}\r\n\r\ncontract LnFeeSystemTest is LnFeeSystem {\r\n    constructor(address _admin ) public LnFeeSystem(_admin ) {\r\n        OnePeriodSecs = 6 hours;\r\n    }\r\n}\r\n",
  "sourcePath": "/mnt/d/working/linearFinance/smartcontracts/contracts/LnFeeSystem.sol",
  "compiler": {
    "name": "solc",
    "version": "0.6.12+commit.27d51765.Emscripten.clang"
  },
  "schemaVersion": "3.2.3",
  "updatedAt": "2020-10-14T10:53:55.434Z",
  "devdoc": {
    "kind": "dev",
    "methods": {},
    "version": 1
  },
  "userdoc": {
    "kind": "user",
    "methods": {},
    "version": 1
  }
}