{
  "contractName": "LnLinearStaking",
  "abi": [
    {
      "inputs": [
        {
          "internalType": "address",
          "name": "_admin",
          "type": "address"
        },
        {
          "internalType": "address",
          "name": "_linaToken",
          "type": "address"
        },
        {
          "internalType": "address",
          "name": "_storage",
          "type": "address"
        }
      ],
      "stateMutability": "nonpayable",
      "type": "constructor"
    },
    {
      "anonymous": false,
      "inputs": [
        {
          "indexed": false,
          "internalType": "address",
          "name": "oldAdmin",
          "type": "address"
        },
        {
          "indexed": false,
          "internalType": "address",
          "name": "newAdmin",
          "type": "address"
        }
      ],
      "name": "AdminChanged",
      "type": "event"
    },
    {
      "anonymous": false,
      "inputs": [
        {
          "indexed": true,
          "internalType": "address",
          "name": "who",
          "type": "address"
        },
        {
          "indexed": false,
          "internalType": "uint256",
          "name": "value",
          "type": "uint256"
        }
      ],
      "name": "CancelStaking",
      "type": "event"
    },
    {
      "anonymous": false,
      "inputs": [
        {
          "indexed": true,
          "internalType": "address",
          "name": "who",
          "type": "address"
        },
        {
          "indexed": false,
          "internalType": "uint256",
          "name": "rewardval",
          "type": "uint256"
        },
        {
          "indexed": false,
          "internalType": "uint256",
          "name": "totalStaking",
          "type": "uint256"
        }
      ],
      "name": "Claim",
      "type": "event"
    },
    {
      "anonymous": false,
      "inputs": [
        {
          "indexed": false,
          "internalType": "address",
          "name": "account",
          "type": "address"
        }
      ],
      "name": "Paused",
      "type": "event"
    },
    {
      "anonymous": false,
      "inputs": [
        {
          "indexed": true,
          "internalType": "address",
          "name": "who",
          "type": "address"
        },
        {
          "indexed": false,
          "internalType": "uint256",
          "name": "value",
          "type": "uint256"
        },
        {
          "indexed": false,
          "internalType": "uint256",
          "name": "staketime",
          "type": "uint256"
        }
      ],
      "name": "Staking",
      "type": "event"
    },
    {
      "anonymous": false,
      "inputs": [
        {
          "indexed": false,
          "internalType": "address",
          "name": "account",
          "type": "address"
        }
      ],
      "name": "Unpaused",
      "type": "event"
    },
    {
      "anonymous": false,
      "inputs": [
        {
          "indexed": false,
          "internalType": "address",
          "name": "oldCandidate",
          "type": "address"
        },
        {
          "indexed": false,
          "internalType": "address",
          "name": "newCandidate",
          "type": "address"
        }
      ],
      "name": "candidateChanged",
      "type": "event"
    },
    {
      "inputs": [],
      "name": "PRECISION_UINT",
      "outputs": [
        {
          "internalType": "uint256",
          "name": "",
          "type": "uint256"
        }
      ],
      "stateMutability": "view",
      "type": "function"
    },
    {
      "inputs": [],
      "name": "accountStakingListLimit",
      "outputs": [
        {
          "internalType": "uint256",
          "name": "",
          "type": "uint256"
        }
      ],
      "stateMutability": "view",
      "type": "function"
    },
    {
      "inputs": [],
      "name": "admin",
      "outputs": [
        {
          "internalType": "address",
          "name": "",
          "type": "address"
        }
      ],
      "stateMutability": "view",
      "type": "function"
    },
    {
      "inputs": [],
      "name": "becomeAdmin",
      "outputs": [],
      "stateMutability": "nonpayable",
      "type": "function"
    },
    {
      "inputs": [],
      "name": "candidate",
      "outputs": [
        {
          "internalType": "address",
          "name": "",
          "type": "address"
        }
      ],
      "stateMutability": "view",
      "type": "function"
    },
    {
      "inputs": [],
      "name": "linaToken",
      "outputs": [
        {
          "internalType": "contract IERC20",
          "name": "",
          "type": "address"
        }
      ],
      "stateMutability": "view",
      "type": "function"
    },
    {
      "inputs": [],
      "name": "minStakingAmount",
      "outputs": [
        {
          "internalType": "uint256",
          "name": "",
          "type": "uint256"
        }
      ],
      "stateMutability": "view",
      "type": "function"
    },
    {
      "inputs": [],
      "name": "paused",
      "outputs": [
        {
          "internalType": "bool",
          "name": "",
          "type": "bool"
        }
      ],
      "stateMutability": "view",
      "type": "function"
    },
    {
      "inputs": [
        {
          "internalType": "address",
          "name": "_candidate",
          "type": "address"
        }
      ],
      "name": "setCandidate",
      "outputs": [],
      "stateMutability": "nonpayable",
      "type": "function"
    },
    {
      "inputs": [],
      "name": "stakingStorage",
      "outputs": [
        {
          "internalType": "contract LnLinearStakingStorage",
          "name": "",
          "type": "address"
        }
      ],
      "stateMutability": "view",
      "type": "function"
    },
    {
      "inputs": [
        {
          "internalType": "address",
          "name": "_linaToken",
          "type": "address"
        }
      ],
      "name": "setLinaToken",
      "outputs": [],
      "stateMutability": "nonpayable",
      "type": "function"
    },
    {
      "inputs": [
        {
          "internalType": "bool",
          "name": "_paused",
          "type": "bool"
        }
      ],
      "name": "setPaused",
      "outputs": [],
      "stateMutability": "nonpayable",
      "type": "function"
    },
    {
      "inputs": [
        {
          "internalType": "address",
          "name": "_token",
          "type": "address"
        }
      ],
      "name": "setLinaTokenAddress",
      "outputs": [],
      "stateMutability": "nonpayable",
      "type": "function"
    },
    {
      "inputs": [
        {
          "internalType": "uint256",
          "name": "_limit",
          "type": "uint256"
        }
      ],
      "name": "setStakingListLimit",
      "outputs": [],
      "stateMutability": "nonpayable",
      "type": "function"
    },
    {
      "inputs": [
        {
          "internalType": "uint256",
          "name": "_minStakingAmount",
          "type": "uint256"
        }
      ],
      "name": "setMinStakingAmount",
      "outputs": [],
      "stateMutability": "nonpayable",
      "type": "function"
    },
    {
      "inputs": [
        {
          "internalType": "address",
          "name": "account",
          "type": "address"
        }
      ],
      "name": "stakingBalanceOf",
      "outputs": [
        {
          "internalType": "uint256",
          "name": "",
          "type": "uint256"
        }
      ],
      "stateMutability": "view",
      "type": "function"
    },
    {
      "inputs": [
        {
          "internalType": "address",
          "name": "account",
          "type": "address"
        }
      ],
      "name": "getStakesdataLength",
      "outputs": [
        {
          "internalType": "uint256",
          "name": "",
          "type": "uint256"
        }
      ],
      "stateMutability": "view",
      "type": "function"
    },
    {
      "inputs": [
        {
          "internalType": "uint256",
          "name": "amount",
          "type": "uint256"
        }
      ],
      "name": "staking",
      "outputs": [
        {
          "internalType": "bool",
          "name": "",
          "type": "bool"
        }
      ],
      "stateMutability": "nonpayable",
      "type": "function"
    },
    {
      "inputs": [
        {
          "internalType": "uint256",
          "name": "amount",
          "type": "uint256"
        }
      ],
      "name": "cancelStaking",
      "outputs": [
        {
          "internalType": "bool",
          "name": "",
          "type": "bool"
        }
      ],
      "stateMutability": "nonpayable",
      "type": "function"
    },
    {
      "inputs": [],
      "name": "claim",
      "outputs": [
        {
          "internalType": "bool",
          "name": "",
          "type": "bool"
        }
      ],
      "stateMutability": "nonpayable",
      "type": "function"
    }
  ],
  "bytecode": "0x60806040526032600455670de0b6b3a764000060055534801561002157600080fd5b50604051612e0a380380612e0a8339818101604052606081101561004457600080fd5b8101908080519060200190929190805190602001909291908051906020019092919050505082600073ffffffffffffffffffffffffffffffffffffffff168173ffffffffffffffffffffffffffffffffffffffff16141561010d576040517f08c379a00000000000000000000000000000000000000000000000000000000081526004018080602001828103825260198152602001807f61646d696e20616464726573732063616e6e6f7420626520300000000000000081525060200191505060405180910390fd5b806000806101000a81548173ffffffffffffffffffffffffffffffffffffffff021916908373ffffffffffffffffffffffffffffffffffffffff1602179055507f7e644d79422f17c01e4894b5f4f588d331ebfa28653d42ae832dc59e38c9798f600082604051808373ffffffffffffffffffffffffffffffffffffffff1681526020018273ffffffffffffffffffffffffffffffffffffffff1681526020019250505060405180910390a1506000600160146101000a81548160ff02191690831515021790555081600260006101000a81548173ffffffffffffffffffffffffffffffffffffffff021916908373ffffffffffffffffffffffffffffffffffffffff16021790555080600360006101000a81548173ffffffffffffffffffffffffffffffffffffffff021916908373ffffffffffffffffffffffffffffffffffffffff160217905550505050612ba1806102696000396000f3fe608060405234801561001057600080fd5b506004361061012c5760003560e01c806362e3efdd116100ad578063b518a00e11610071578063b518a00e14610439578063c0e1f2961461046d578063f851a4401461048b578063f873ccb5146104bf578063fc139451146104dd5761012c565b806362e3efdd146102f75780636a8ab2961461034f5780636c8381f81461037d57806379d5c0dd146103b15780639ab0388b146103f55761012c565b806325c065b1116100f457806325c065b11461022757806332eec36a146102455780634e71d92d146102895780635c975abb146102a9578063612d669e146102c95761012c565b806307880b7f1461013157806316c38b3c146101755780631dbb2a22146101a5578063222bebd9146101e957806325971dff1461021d575b600080fd5b6101736004803603602081101561014757600080fd5b81019080803573ffffffffffffffffffffffffffffffffffffffff169060200190929190505050610535565b005b6101a36004803603602081101561018b57600080fd5b810190808035151590602001909291905050506106d2565b005b6101d1600480360360208110156101bb57600080fd5b8101908080359060200190929190505050610795565b60405180821515815260200191505060405180910390f35b6101f1610ce0565b604051808273ffffffffffffffffffffffffffffffffffffffff16815260200191505060405180910390f35b610225610d06565b005b61022f610edf565b6040518082815260200191505060405180910390f35b6102876004803603602081101561025b57600080fd5b81019080803573ffffffffffffffffffffffffffffffffffffffff169060200190929190505050610ee5565b005b610291610fcd565b60405180821515815260200191505060405180910390f35b6102b1611a03565b60405180821515815260200191505060405180910390f35b6102f5600480360360208110156102df57600080fd5b8101908080359060200190929190505050611a1a565b005b6103396004803603602081101561030d57600080fd5b81019080803573ffffffffffffffffffffffffffffffffffffffff169060200190929190505050611ac8565b6040518082815260200191505060405180910390f35b61037b6004803603602081101561036557600080fd5b8101908080359060200190929190505050611b95565b005b610385611c43565b604051808273ffffffffffffffffffffffffffffffffffffffff16815260200191505060405180910390f35b6103f3600480360360208110156103c757600080fd5b81019080803573ffffffffffffffffffffffffffffffffffffffff169060200190929190505050611c69565b005b6104216004803603602081101561040b57600080fd5b8101908080359060200190929190505050611d51565b60405180821515815260200191505060405180910390f35b610441612502565b604051808273ffffffffffffffffffffffffffffffffffffffff16815260200191505060405180910390f35b610475612528565b6040518082815260200191505060405180910390f35b610493612536565b604051808273ffffffffffffffffffffffffffffffffffffffff16815260200191505060405180910390f35b6104c761255a565b6040518082815260200191505060405180910390f35b61051f600480360360208110156104f357600080fd5b81019080803573ffffffffffffffffffffffffffffffffffffffff169060200190929190505050612560565b6040518082815260200191505060405180910390f35b60008054906101000a900473ffffffffffffffffffffffffffffffffffffffff1673ffffffffffffffffffffffffffffffffffffffff163373ffffffffffffffffffffffffffffffffffffffff16146105d9576040517f08c379a000000000000000000000000000000000000000000000000000000000815260040180806020018281038252602f815260200180612b1b602f913960400191505060405180910390fd5b6000600160009054906101000a900473ffffffffffffffffffffffffffffffffffffffff16905081600160006101000a81548173ffffffffffffffffffffffffffffffffffffffff021916908373ffffffffffffffffffffffffffffffffffffffff1602179055507f0faed18be9e8f4d4c05dfbcc80ea2c97a0be729614d766827778f60890c02cab81600160009054906101000a900473ffffffffffffffffffffffffffffffffffffffff16604051808373ffffffffffffffffffffffffffffffffffffffff1681526020018273ffffffffffffffffffffffffffffffffffffffff1681526020019250505060405180910390a15050565b60008054906101000a900473ffffffffffffffffffffffffffffffffffffffff1673ffffffffffffffffffffffffffffffffffffffff163373ffffffffffffffffffffffffffffffffffffffff1614610776576040517f08c379a000000000000000000000000000000000000000000000000000000000815260040180806020018281038252602f815260200180612b1b602f913960400191505060405180910390fd5b80156107895761078461262d565b610792565b610791612720565b5b50565b6000600160149054906101000a900460ff161561081a576040517f08c379a00000000000000000000000000000000000000000000000000000000081526004018080602001828103825260108152602001807f5061757361626c653a207061757365640000000000000000000000000000000081525060200191505060405180910390fd5b600360009054906101000a900473ffffffffffffffffffffffffffffffffffffffff1673ffffffffffffffffffffffffffffffffffffffff1663fff9413c6040518163ffffffff1660e01b815260040160006040518083038186803b15801561088257600080fd5b505afa158015610896573d6000803e3d6000fd5b50505050600554821015610912576040517f08c379a00000000000000000000000000000000000000000000000000000000081526004018080602001828103825260198152602001807f5374616b696e6720616d6f756e7420746f6f20736d616c6c2e0000000000000081525060200191505060405180910390fd5b600454600360009054906101000a900473ffffffffffffffffffffffffffffffffffffffff1673ffffffffffffffffffffffffffffffffffffffff1663fc139451336040518263ffffffff1660e01b8152600401808273ffffffffffffffffffffffffffffffffffffffff16815260200191505060206040518083038186803b15801561099e57600080fd5b505afa1580156109b2573d6000803e3d6000fd5b505050506040513d60208110156109c857600080fd5b810190808051906020019092919050505010610a4c576040517f08c379a000000000000000000000000000000000000000000000000000000000815260040180806020018281038252601a8152602001807f5374616b696e67206c697374206f7574206f66206c696d69742e00000000000081525060200191505060405180910390fd5b600260009054906101000a900473ffffffffffffffffffffffffffffffffffffffff1673ffffffffffffffffffffffffffffffffffffffff166323b872dd3330856040518463ffffffff1660e01b8152600401808473ffffffffffffffffffffffffffffffffffffffff1681526020018373ffffffffffffffffffffffffffffffffffffffff1681526020018281526020019350505050602060405180830381600087803b158015610afd57600080fd5b505af1158015610b11573d6000803e3d6000fd5b505050506040513d6020811015610b2757600080fd5b810190808051906020019092919050505050600360009054906101000a900473ffffffffffffffffffffffffffffffffffffffff1673ffffffffffffffffffffffffffffffffffffffff166344bc7da23384426040518463ffffffff1660e01b8152600401808473ffffffffffffffffffffffffffffffffffffffff1681526020018381526020018281526020019350505050600060405180830381600087803b158015610bd457600080fd5b505af1158015610be8573d6000803e3d6000fd5b50505050600360009054906101000a900473ffffffffffffffffffffffffffffffffffffffff1673ffffffffffffffffffffffffffffffffffffffff1663fe042f0842846040518363ffffffff1660e01b81526004018083815260200182815260200192505050600060405180830381600087803b158015610c6957600080fd5b505af1158015610c7d573d6000803e3d6000fd5b505050503373ffffffffffffffffffffffffffffffffffffffff167fa7cce4e8ff59a515dccbee3a6382e94deb1db79bdb43cf35a51251d41ea395f08342604051808381526020018281526020019250505060405180910390a260019050919050565b600260009054906101000a900473ffffffffffffffffffffffffffffffffffffffff1681565b600160009054906101000a900473ffffffffffffffffffffffffffffffffffffffff1673ffffffffffffffffffffffffffffffffffffffff163373ffffffffffffffffffffffffffffffffffffffff1614610dc9576040517f08c379a000000000000000000000000000000000000000000000000000000000815260040180806020018281038252601f8152602001807f4f6e6c792063616e6469646174652063616e206265636f6d652061646d696e0081525060200191505060405180910390fd5b60008060009054906101000a900473ffffffffffffffffffffffffffffffffffffffff169050600160009054906101000a900473ffffffffffffffffffffffffffffffffffffffff166000806101000a81548173ffffffffffffffffffffffffffffffffffffffff021916908373ffffffffffffffffffffffffffffffffffffffff1602179055507f7e644d79422f17c01e4894b5f4f588d331ebfa28653d42ae832dc59e38c9798f8160008054906101000a900473ffffffffffffffffffffffffffffffffffffffff16604051808373ffffffffffffffffffffffffffffffffffffffff1681526020018273ffffffffffffffffffffffffffffffffffffffff1681526020019250505060405180910390a150565b60055481565b60008054906101000a900473ffffffffffffffffffffffffffffffffffffffff1673ffffffffffffffffffffffffffffffffffffffff163373ffffffffffffffffffffffffffffffffffffffff1614610f89576040517f08c379a000000000000000000000000000000000000000000000000000000000815260040180806020018281038252602f815260200180612b1b602f913960400191505060405180910390fd5b80600260006101000a81548173ffffffffffffffffffffffffffffffffffffffff021916908373ffffffffffffffffffffffffffffffffffffffff16021790555050565b6000600160149054906101000a900460ff1615611052576040517f08c379a00000000000000000000000000000000000000000000000000000000081526004018080602001828103825260108152602001807f5061757361626c653a207061757365640000000000000000000000000000000081525060200191505060405180910390fd5b600360009054906101000a900473ffffffffffffffffffffffffffffffffffffffff1673ffffffffffffffffffffffffffffffffffffffff166398bd05d06040518163ffffffff1660e01b815260040160006040518083038186803b1580156110ba57600080fd5b505afa1580156110ce573d6000803e3d6000fd5b505050506000600360009054906101000a900473ffffffffffffffffffffffffffffffffffffffff1673ffffffffffffffffffffffffffffffffffffffff1663fc139451336040518263ffffffff1660e01b8152600401808273ffffffffffffffffffffffffffffffffffffffff16815260200191505060206040518083038186803b15801561115d57600080fd5b505afa158015611171573d6000803e3d6000fd5b505050506040513d602081101561118757600080fd5b81019080805190602001909291905050501161120b576040517f08c379a00000000000000000000000000000000000000000000000000000000081526004018080602001828103825260108152602001807f4e6f7468696e6720746f20636c61696d0000000000000000000000000000000081525060200191505060405180910390fd5b6000600360009054906101000a900473ffffffffffffffffffffffffffffffffffffffff1673ffffffffffffffffffffffffffffffffffffffff16639af9c5926040518163ffffffff1660e01b815260040160206040518083038186803b15801561127557600080fd5b505afa158015611289573d6000803e3d6000fd5b505050506040513d602081101561129f57600080fd5b810190808051906020019092919050505090506000806060600360009054906101000a900473ffffffffffffffffffffffffffffffffffffffff1673ffffffffffffffffffffffffffffffffffffffff1663506a22e16040518163ffffffff1660e01b815260040160006040518083038186803b15801561131f57600080fd5b505afa158015611333573d6000803e3d6000fd5b505050506040513d6000823e3d601f19601f82011682018060405250602081101561135d57600080fd5b810190808051604051939291908464010000000082111561137d57600080fd5b8382019150602082018581111561139357600080fd5b82518660208202830111640100000000821117156113b057600080fd5b8083526020830192505050908051906020019060200280838360005b838110156113e75780820151818401526020810190506113cc565b50505050905001604052505050905060005b600360009054906101000a900473ffffffffffffffffffffffffffffffffffffffff1673ffffffffffffffffffffffffffffffffffffffff1663fc139451336040518263ffffffff1660e01b8152600401808273ffffffffffffffffffffffffffffffffffffffff16815260200191505060206040518083038186803b15801561148257600080fd5b505afa158015611496573d6000803e3d6000fd5b505050506040513d60208110156114ac57600080fd5b810190808051906020019092919050505081101561181d57600080600360009054906101000a900473ffffffffffffffffffffffffffffffffffffffff1673ffffffffffffffffffffffffffffffffffffffff16637ee7b56a33856040518363ffffffff1660e01b8152600401808373ffffffffffffffffffffffffffffffffffffffff16815260200182815260200192505050604080518083038186803b15801561155757600080fd5b505afa15801561156b573d6000803e3d6000fd5b505050506040513d604081101561158157600080fd5b81019080805190602001909291908051906020019092919050505091509150600062093a80611692600360009054906101000a900473ffffffffffffffffffffffffffffffffffffffff1673ffffffffffffffffffffffffffffffffffffffff16636abfd1836040518163ffffffff1660e01b815260040160206040518083038186803b15801561161157600080fd5b505afa158015611625573d6000803e3d6000fd5b505050506040513d602081101561163b57600080fd5b81019080805190602001909291905050506040518060400160405280601281526020017f636c61696d20737562206f766572666c6f770000000000000000000000000000815250856128139092919063ffffffff16565b8161169957fe5b0490506116af83886128d390919063ffffffff16565b96506000808290505b89811015611723576117146117058883815181106116d257fe5b60200260200101516116f769152d02c7e14af68000008961295b90919063ffffffff16565b6129e190919063ffffffff16565b836128d390919063ffffffff16565b915080806001019150506116b8565b506117f569152d02c7e14af68000006117e7600360009054906101000a900473ffffffffffffffffffffffffffffffffffffffff1673ffffffffffffffffffffffffffffffffffffffff1663fa732cc36040518163ffffffff1660e01b815260040160206040518083038186803b15801561179d57600080fd5b505afa1580156117b1573d6000803e3d6000fd5b505050506040513d60208110156117c757600080fd5b81019080805190602001909291905050508461295b90919063ffffffff16565b6129e190919063ffffffff16565b905061180a81886128d390919063ffffffff16565b96505050505080806001019150506113f9565b50600360009054906101000a900473ffffffffffffffffffffffffffffffffffffffff1673ffffffffffffffffffffffffffffffffffffffff16632d185d84336040518263ffffffff1660e01b8152600401808273ffffffffffffffffffffffffffffffffffffffff168152602001915050600060405180830381600087803b1580156118a957600080fd5b505af11580156118bd573d6000803e3d6000fd5b50505050600260009054906101000a900473ffffffffffffffffffffffffffffffffffffffff1673ffffffffffffffffffffffffffffffffffffffff1663a9059cbb3361191385876128d390919063ffffffff16565b6040518363ffffffff1660e01b8152600401808373ffffffffffffffffffffffffffffffffffffffff16815260200182815260200192505050602060405180830381600087803b15801561196657600080fd5b505af115801561197a573d6000803e3d6000fd5b505050506040513d602081101561199057600080fd5b8101908080519060200190929190505050503373ffffffffffffffffffffffffffffffffffffffff167f34fcbac0073d7c3d388e51312faf357774904998eeb8fca628b9e6f65ee1cbf78385604051808381526020018281526020019250505060405180910390a2600194505050505090565b6000600160149054906101000a900460ff16905090565b60008054906101000a900473ffffffffffffffffffffffffffffffffffffffff1673ffffffffffffffffffffffffffffffffffffffff163373ffffffffffffffffffffffffffffffffffffffff1614611abe576040517f08c379a000000000000000000000000000000000000000000000000000000000815260040180806020018281038252602f815260200180612b1b602f913960400191505060405180910390fd5b8060058190555050565b6000600360009054906101000a900473ffffffffffffffffffffffffffffffffffffffff1673ffffffffffffffffffffffffffffffffffffffff166362e3efdd836040518263ffffffff1660e01b8152600401808273ffffffffffffffffffffffffffffffffffffffff16815260200191505060206040518083038186803b158015611b5357600080fd5b505afa158015611b67573d6000803e3d6000fd5b505050506040513d6020811015611b7d57600080fd5b81019080805190602001909291905050509050919050565b60008054906101000a900473ffffffffffffffffffffffffffffffffffffffff1673ffffffffffffffffffffffffffffffffffffffff163373ffffffffffffffffffffffffffffffffffffffff1614611c39576040517f08c379a000000000000000000000000000000000000000000000000000000000815260040180806020018281038252602f815260200180612b1b602f913960400191505060405180910390fd5b8060048190555050565b600160009054906101000a900473ffffffffffffffffffffffffffffffffffffffff1681565b60008054906101000a900473ffffffffffffffffffffffffffffffffffffffff1673ffffffffffffffffffffffffffffffffffffffff163373ffffffffffffffffffffffffffffffffffffffff1614611d0d576040517f08c379a000000000000000000000000000000000000000000000000000000000815260040180806020018281038252602f815260200180612b1b602f913960400191505060405180910390fd5b80600260006101000a81548173ffffffffffffffffffffffffffffffffffffffff021916908373ffffffffffffffffffffffffffffffffffffffff16021790555050565b6000600160149054906101000a900460ff1615611dd6576040517f08c379a00000000000000000000000000000000000000000000000000000000081526004018080602001828103825260108152602001807f5061757361626c653a207061757365640000000000000000000000000000000081525060200191505060405180910390fd5b600360009054906101000a900473ffffffffffffffffffffffffffffffffffffffff1673ffffffffffffffffffffffffffffffffffffffff1663fff9413c6040518163ffffffff1660e01b815260040160006040518083038186803b158015611e3e57600080fd5b505afa158015611e52573d6000803e3d6000fd5b5050505060008211611ecc576040517f08c379a000000000000000000000000000000000000000000000000000000000815260040180806020018281038252600f8152602001807f496e76616c696420616d6f756e742e000000000000000000000000000000000081525060200191505060405180910390fd5b60008290506000600360009054906101000a900473ffffffffffffffffffffffffffffffffffffffff1673ffffffffffffffffffffffffffffffffffffffff1663fc139451336040518263ffffffff1660e01b8152600401808273ffffffffffffffffffffffffffffffffffffffff16815260200191505060206040518083038186803b158015611f5c57600080fd5b505afa158015611f70573d6000803e3d6000fd5b505050506040513d6020811015611f8657600080fd5b810190808051906020019092919050505090505b6001811061238157600080600360009054906101000a900473ffffffffffffffffffffffffffffffffffffffff1673ffffffffffffffffffffffffffffffffffffffff16637ee7b56a33600186036040518363ffffffff1660e01b8152600401808373ffffffffffffffffffffffffffffffffffffffff16815260200182815260200192505050604080518083038186803b15801561203857600080fd5b505afa15801561204c573d6000803e3d6000fd5b505050506040513d604081101561206257600080fd5b81019080805190602001909291908051906020019092919050505091509150818610612211576120d2826040518060400160405280601a81526020017f63616e63656c5374616b696e6720737562206f766572666c6f77000000000000815250886128139092919063ffffffff16565b9550600360009054906101000a900473ffffffffffffffffffffffffffffffffffffffff1673ffffffffffffffffffffffffffffffffffffffff166342e10bc6336040518263ffffffff1660e01b8152600401808273ffffffffffffffffffffffffffffffffffffffff168152602001915050600060405180830381600087803b15801561215f57600080fd5b505af1158015612173573d6000803e3d6000fd5b50505050600360009054906101000a900473ffffffffffffffffffffffffffffffffffffffff1673ffffffffffffffffffffffffffffffffffffffff1663b331714182846040518363ffffffff1660e01b81526004018083815260200182815260200192505050600060405180830381600087803b1580156121f457600080fd5b505af1158015612208573d6000803e3d6000fd5b50505050612361565b600360009054906101000a900473ffffffffffffffffffffffffffffffffffffffff1673ffffffffffffffffffffffffffffffffffffffff16630cf112663360018603896040518463ffffffff1660e01b8152600401808473ffffffffffffffffffffffffffffffffffffffff1681526020018381526020018281526020019350505050600060405180830381600087803b1580156122af57600080fd5b505af11580156122c3573d6000803e3d6000fd5b50505050600360009054906101000a900473ffffffffffffffffffffffffffffffffffffffff1673ffffffffffffffffffffffffffffffffffffffff1663b331714182886040518363ffffffff1660e01b81526004018083815260200182815260200192505050600060405180830381600087803b15801561234457600080fd5b505af1158015612358573d6000803e3d6000fd5b50505050600095505b6000861415612371575050612381565b5050808060019003915050611f9a565b50600083146123db576040517f08c379a0000000000000000000000000000000000000000000000000000000008152600401808060200182810382526022815260200180612b4a6022913960400191505060405180910390fd5b600260009054906101000a900473ffffffffffffffffffffffffffffffffffffffff1673ffffffffffffffffffffffffffffffffffffffff1663a9059cbb33836040518363ffffffff1660e01b8152600401808373ffffffffffffffffffffffffffffffffffffffff16815260200182815260200192505050602060405180830381600087803b15801561246e57600080fd5b505af1158015612482573d6000803e3d6000fd5b505050506040513d602081101561249857600080fd5b8101908080519060200190929190505050503373ffffffffffffffffffffffffffffffffffffffff167fcac6a9d108b4882699e5afc7402d86f41e4bae2981b76023107009d1fc2b11a3826040518082815260200191505060405180910390a26001915050919050565b600360009054906101000a900473ffffffffffffffffffffffffffffffffffffffff1681565b69152d02c7e14af680000081565b60008054906101000a900473ffffffffffffffffffffffffffffffffffffffff1681565b60045481565b6000600360009054906101000a900473ffffffffffffffffffffffffffffffffffffffff1673ffffffffffffffffffffffffffffffffffffffff1663fc139451836040518263ffffffff1660e01b8152600401808273ffffffffffffffffffffffffffffffffffffffff16815260200191505060206040518083038186803b1580156125eb57600080fd5b505afa1580156125ff573d6000803e3d6000fd5b505050506040513d602081101561261557600080fd5b81019080805190602001909291905050509050919050565b600160149054906101000a900460ff16156126b0576040517f08c379a00000000000000000000000000000000000000000000000000000000081526004018080602001828103825260108152602001807f5061757361626c653a207061757365640000000000000000000000000000000081525060200191505060405180910390fd5b60018060146101000a81548160ff0219169083151502179055507f62e78cea01bee320cd4e420270b5ea74000d11b0c9f74754ebdbfc544b05a2586126f3612a2b565b604051808273ffffffffffffffffffffffffffffffffffffffff16815260200191505060405180910390a1565b600160149054906101000a900460ff166127a2576040517f08c379a00000000000000000000000000000000000000000000000000000000081526004018080602001828103825260148152602001807f5061757361626c653a206e6f742070617573656400000000000000000000000081525060200191505060405180910390fd5b6000600160146101000a81548160ff0219169083151502179055507f5db9ee0a495bf2e6ff9c91a7834c1ba4fdd244a5e8aa4e537bd38aeae4b073aa6127e6612a2b565b604051808273ffffffffffffffffffffffffffffffffffffffff16815260200191505060405180910390a1565b60008383111582906128c0576040517f08c379a00000000000000000000000000000000000000000000000000000000081526004018080602001828103825283818151815260200191508051906020019080838360005b8381101561288557808201518184015260208101905061286a565b50505050905090810190601f1680156128b25780820380516001836020036101000a031916815260200191505b509250505060405180910390fd5b5060008385039050809150509392505050565b600080828401905083811015612951576040517f08c379a000000000000000000000000000000000000000000000000000000000815260040180806020018281038252601b8152602001807f536166654d6174683a206164646974696f6e206f766572666c6f77000000000081525060200191505060405180910390fd5b8091505092915050565b60008083141561296e57600090506129db565b600082840290508284828161297f57fe5b04146129d6576040517f08c379a0000000000000000000000000000000000000000000000000000000008152600401808060200182810382526021815260200180612afa6021913960400191505060405180910390fd5b809150505b92915050565b6000612a2383836040518060400160405280601a81526020017f536166654d6174683a206469766973696f6e206279207a65726f000000000000815250612a33565b905092915050565b600033905090565b60008083118290612adf576040517f08c379a00000000000000000000000000000000000000000000000000000000081526004018080602001828103825283818151815260200191508051906020019080838360005b83811015612aa4578082015181840152602081019050612a89565b50505050905090810190601f168015612ad15780820380516001836020036101000a031916815260200191505b509250505060405180910390fd5b506000838581612aeb57fe5b04905080915050939250505056fe536166654d6174683a206d756c7469706c69636174696f6e206f766572666c6f774f6e6c792074686520636f6e74726163742061646d696e2063616e20706572666f726d207468697320616374696f6e43616e63656c20616d6f756e7420746f6f20626967207468656e207374616b65642ea26469706673582212204c9fee8256765e3c84accdd00fe5ca11402386df5c38abc6dcd70e1114c9e5f964736f6c634300060c0033",
  "immutableReferences": {},
  "source": "// SPDX-License-Identifier: MIT\r\npragma solidity ^0.6.12;\r\n\r\nimport \"./IERC20.sol\";\r\nimport \"./LnAdmin.sol\";\r\nimport \"./LnOperatorModifier.sol\";\r\nimport \"@openzeppelin/contracts/math/SafeMath.sol\";\r\nimport \"@openzeppelin/contracts/utils/Pausable.sol\";\r\nimport \"./LnAccessControl.sol\";\r\n\r\ninterface ILinearStaking {\r\n    function staking(uint256 amount) external returns (bool);\r\n    function cancelStaking(uint256 amount) external returns (bool);\r\n    function claim() external returns (bool);\r\n    function stakingBalanceOf(address account) external view returns(uint256);\r\n}\r\n\r\ncontract LnLinearStakingStorage is LnAdmin {\r\n    using SafeMath for uint256;\r\n\r\n    LnAccessControl public accessCtrl;\r\n\r\n    bytes32 public constant DATA_ACCESS_ROLE = \"LinearStakingStorage\";\r\n\r\n    struct StakingData {\r\n        uint256 amount;\r\n        uint256 staketime;\r\n    }\r\n\r\n    mapping (address => StakingData[]) public stakesdata;\r\n    mapping (uint256 => uint256) public weeksTotal; // week staking amount\r\n\r\n    uint256 public stakingStartTime = 1600329600; // TODO: UTC or UTC+8\r\n    uint256 public stakingEndTime = 1605168000;\r\n    uint256 public totalWeekNumber = 8;\r\n    uint256 public weekRewardAmount = 18750000e18;\r\n\r\n    constructor(address _admin, address _accessCtrl) public LnAdmin(_admin) {\r\n        accessCtrl = LnAccessControl(_accessCtrl);\r\n    }\r\n\r\n    modifier OnlyLinearStakingStorageRole(address _address) {\r\n        require(accessCtrl.hasRole(DATA_ACCESS_ROLE, _address), \"Only Linear Staking Storage Role\");\r\n        _;\r\n    }\r\n\r\n    function setAccessControl(address _accessCtrl) external onlyAdmin {\r\n        accessCtrl = LnAccessControl(_accessCtrl);\r\n    }\r\n\r\n    function weekTotalStaking() public view returns (uint256[] memory) {\r\n        uint256[] memory totals = new uint256[](totalWeekNumber);\r\n        for (uint256 i=0; i< totalWeekNumber; i++) {\r\n            uint256 delta = weeksTotal[i];\r\n            if (i == 0) {\r\n                totals[i] = delta;\r\n            } else {\r\n                \r\n                totals[i] = totals[i-1].add(delta);\r\n            }\r\n        }\r\n        return totals;\r\n    }\r\n\r\n    function getStakesdataLength(address account) external view returns(uint256) {\r\n        return stakesdata[account].length;\r\n    }\r\n\r\n    function getStakesDataByIndex(address account, uint256 index) external view returns(uint256, uint256) {\r\n        return (stakesdata[account][index].amount, stakesdata[account][index].staketime);\r\n    }\r\n\r\n    function stakingBalanceOf(address account) external view returns(uint256) {\r\n        uint256 total = 0;\r\n        StakingData[] memory stakes = stakesdata[account];\r\n        for (uint256 i=0; i < stakes.length; i++) {\r\n            total = total.add(stakes[i].amount);\r\n        }\r\n        return total;\r\n    }\r\n\r\n    function requireInStakingPeriod() external view {\r\n        require(stakingStartTime < block.timestamp, \"Staking not start\");\r\n        require(block.timestamp < stakingEndTime, \"Staking stage has end.\");\r\n    }\r\n\r\n    function requireStakingEnd() external view {\r\n        require(block.timestamp > stakingEndTime, \"Need wait to staking end\");\r\n    }\r\n\r\n    function PushStakingData(address account, uint256 amount, uint256 staketime) external OnlyLinearStakingStorageRole(msg.sender) {\r\n        LnLinearStakingStorage.StakingData memory data = LnLinearStakingStorage.StakingData({\r\n            amount: amount,\r\n            staketime: staketime\r\n        });\r\n        stakesdata[account].push(data);\r\n    }\r\n\r\n    function StakingDataAdd(address account, uint256 index, uint256 amount) external OnlyLinearStakingStorageRole(msg.sender) {\r\n        stakesdata[account][index].amount = stakesdata[account][index].amount.add(amount);\r\n    }\r\n\r\n    function StakingDataSub(address account, uint256 index, uint256 amount) external OnlyLinearStakingStorageRole(msg.sender) {\r\n        stakesdata[account][index].amount = stakesdata[account][index].amount.sub(amount, \"StakingDataSub sub overflow\");\r\n    }\r\n\r\n    function DeleteStakesData(address account) external OnlyLinearStakingStorageRole(msg.sender) {\r\n        delete stakesdata[account];\r\n    }\r\n\r\n    function PopStakesData(address account) external OnlyLinearStakingStorageRole(msg.sender) {\r\n        stakesdata[account].pop();\r\n    }\r\n\r\n    function AddWeeksTotal(uint256 staketime, uint256 amount) external OnlyLinearStakingStorageRole(msg.sender) {\r\n        uint256 weekNumber = staketime.sub(stakingStartTime, \"AddWeeksTotal sub overflow\") / 1 weeks;\r\n        weeksTotal[weekNumber] = weeksTotal[weekNumber].add(amount);\r\n    }\r\n\r\n    function SubWeeksTotal(uint256 staketime, uint256 amount) external OnlyLinearStakingStorageRole(msg.sender) {\r\n        uint256 weekNumber = staketime.sub(stakingStartTime, \"SubWeeksTotal weekNumber sub overflow\") / 1 weeks;\r\n        weeksTotal[weekNumber] = weeksTotal[weekNumber].sub(amount, \"SubWeeksTotal weeksTotal sub overflow\");\r\n    }\r\n\r\n    function setWeekRewardAmount(uint256 _weekRewardAmount) external onlyAdmin {\r\n        weekRewardAmount = _weekRewardAmount;\r\n    }\r\n\r\n    function setStakingPeriod(uint _stakingStartTime, uint _stakingEndTime) external onlyAdmin {\r\n        require(_stakingEndTime > _stakingStartTime);\r\n\r\n        stakingStartTime = _stakingStartTime;\r\n        stakingEndTime = _stakingEndTime;\r\n\r\n        totalWeekNumber = stakingEndTime.sub(stakingStartTime, \"setStakingPeriod totalWeekNumber sub overflow\") / 1 weeks;\r\n        if (stakingEndTime.sub(stakingStartTime, \"setStakingPeriod stakingEndTime sub overflow\") % 1 weeks != 0) {\r\n            totalWeekNumber = totalWeekNumber.add(1);\r\n        }\r\n    }\r\n}\r\n\r\ncontract LnLinearStaking is LnAdmin, Pausable, ILinearStaking {\r\n    using SafeMath for uint256;\r\n\r\n    IERC20 public linaToken; // lina token proxy address\r\n    LnLinearStakingStorage public stakingStorage;\r\n    \r\n    constructor(\r\n        address _admin,\r\n        address _linaToken,\r\n        address _storage\r\n    ) public LnAdmin(_admin) {\r\n        linaToken = IERC20(_linaToken);\r\n        stakingStorage = LnLinearStakingStorage(_storage);\r\n    }\r\n\r\n    function setLinaToken(address _linaToken) external onlyAdmin {\r\n        linaToken = IERC20(_linaToken);\r\n    }\r\n\r\n    function setPaused(bool _paused) external onlyAdmin {\r\n        if (_paused) {\r\n            _pause();\r\n        } else {\r\n            _unpause();\r\n        }\r\n    }\r\n\r\n    //////////////////////////////////////////////////////\r\n    event Staking(address indexed who, uint256 value, uint staketime);\r\n    event CancelStaking(address indexed who, uint256 value);\r\n    event Claim(address indexed who, uint256 rewardval, uint256 totalStaking);\r\n\r\n    uint256 public accountStakingListLimit = 50;\r\n    uint256 public minStakingAmount = 1e18; // 1 token\r\n    uint256 public constant PRECISION_UINT = 1e23;\r\n\r\n    function setLinaTokenAddress(address _token) external onlyAdmin {\r\n        linaToken = IERC20(_token);\r\n    }\r\n\r\n    function setStakingListLimit(uint256 _limit) external onlyAdmin {\r\n        accountStakingListLimit = _limit;\r\n    }\r\n\r\n    function setMinStakingAmount(uint256 _minStakingAmount) external onlyAdmin {\r\n        minStakingAmount = _minStakingAmount;\r\n    }\r\n\r\n    function stakingBalanceOf(address account) external override view returns(uint256) {\r\n        return stakingStorage.stakingBalanceOf(account);\r\n    }\r\n\r\n    function getStakesdataLength(address account) external view returns(uint256) {\r\n        return stakingStorage.getStakesdataLength(account);\r\n    }\r\n    //--------------------------------------------------------\r\n\r\n    function staking(uint256 amount) public whenNotPaused override returns (bool) {\r\n        stakingStorage.requireInStakingPeriod();\r\n\r\n        require(amount >= minStakingAmount, \"Staking amount too small.\");\r\n        require(stakingStorage.getStakesdataLength(msg.sender) < accountStakingListLimit, \"Staking list out of limit.\");\r\n\r\n        //linaToken.burn(msg.sender, amount);\r\n        linaToken.transferFrom(msg.sender, address(this), amount);\r\n     \r\n        stakingStorage.PushStakingData(msg.sender, amount, block.timestamp);\r\n        stakingStorage.AddWeeksTotal(block.timestamp, amount);\r\n\r\n        emit Staking(msg.sender, amount, block.timestamp);\r\n        return true;\r\n    }\r\n\r\n    function cancelStaking(uint256 amount) public whenNotPaused override returns (bool) {\r\n        stakingStorage.requireInStakingPeriod();\r\n\r\n        require(amount > 0, \"Invalid amount.\");\r\n\r\n        uint256 returnToken = amount;\r\n        for (uint256 i = stakingStorage.getStakesdataLength(msg.sender); i >= 1 ; i--) {\r\n            (uint256 stakingAmount, uint256 staketime) = stakingStorage.getStakesDataByIndex(msg.sender, i-1);\r\n            if (amount >= stakingAmount) {\r\n                amount = amount.sub(stakingAmount, \"cancelStaking sub overflow\");\r\n                \r\n                stakingStorage.PopStakesData(msg.sender);\r\n                stakingStorage.SubWeeksTotal(staketime, stakingAmount);\r\n            } else {\r\n                stakingStorage.StakingDataSub(msg.sender, i-1, amount);\r\n                stakingStorage.SubWeeksTotal(staketime, amount);\r\n\r\n                amount = 0;\r\n            }\r\n            if (amount == 0) break;\r\n        }\r\n        require(amount == 0, \"Cancel amount too big then staked.\");\r\n\r\n        //linaToken.mint(msg.sender, returnToken);\r\n        linaToken.transfer(msg.sender, returnToken);\r\n\r\n        emit CancelStaking(msg.sender, returnToken);\r\n\r\n        return true;\r\n    }\r\n\r\n    // claim reward\r\n    // Note: token\r\n    function claim() public whenNotPaused override returns (bool) {\r\n        stakingStorage.requireStakingEnd();\r\n\r\n        require(stakingStorage.getStakesdataLength(msg.sender) > 0, \"Nothing to claim\");\r\n\r\n        uint256 totalWeekNumber = stakingStorage.totalWeekNumber();\r\n\r\n        uint256 totalStaking = 0;\r\n        uint256 totalReward = 0;\r\n\r\n        uint256[] memory finalTotals = stakingStorage.weekTotalStaking();\r\n        for (uint256 i=0; i < stakingStorage.getStakesdataLength(msg.sender); i++) {\r\n            (uint256 stakingAmount, uint256 staketime) = stakingStorage.getStakesDataByIndex(msg.sender, i);\r\n            uint256 stakedWeedNumber = staketime.sub(stakingStorage.stakingStartTime(), \"claim sub overflow\") / 1 weeks;\r\n\r\n            totalStaking = totalStaking.add(stakingAmount);\r\n            \r\n            uint256 reward = 0;\r\n            for (uint256 j=stakedWeedNumber; j < totalWeekNumber; j++) {\r\n                reward = reward.add( stakingAmount.mul(PRECISION_UINT).div(finalTotals[j]) ); //move .mul(weekRewardAmount) to next line.\r\n            }\r\n            reward = reward.mul(stakingStorage.weekRewardAmount()).div(PRECISION_UINT);\r\n\r\n            totalReward = totalReward.add( reward );\r\n        }\r\n\r\n        stakingStorage.DeleteStakesData(msg.sender);\r\n        \r\n        //linaToken.mint(msg.sender, totalStaking.add(totalReward) );\r\n        linaToken.transfer(msg.sender, totalStaking.add(totalReward) );\r\n\r\n        emit Claim(msg.sender, totalReward, totalStaking);\r\n        return true;\r\n    }\r\n}",
  "sourcePath": "/mnt/d/working/linearFinance/smartcontracts/contracts/LnLinearStaking.sol",
  "compiler": {
    "name": "solc",
    "version": "0.6.12+commit.27d51765.Emscripten.clang"
  },
  "schemaVersion": "3.2.3",
  "updatedAt": "2020-10-06T01:27:58.847Z",
  "devdoc": {
    "kind": "dev",
    "methods": {
      "paused()": {
        "details": "Returns true if the contract is paused, and false otherwise."
      }
    },
    "version": 1
  },
  "userdoc": {
    "kind": "user",
    "methods": {},
    "version": 1
  }
}