{
  "contractName": "LnRewardLocker",
  "abi": [
    {
      "inputs": [
        {
          "internalType": "address",
          "name": "_admin",
          "type": "address"
        },
        {
          "internalType": "address",
          "name": "linaAddress",
          "type": "address"
        }
      ],
      "stateMutability": "nonpayable",
      "type": "constructor"
    },
    {
      "anonymous": false,
      "inputs": [
        {
          "indexed": false,
          "internalType": "address",
          "name": "oldAdmin",
          "type": "address"
        },
        {
          "indexed": false,
          "internalType": "address",
          "name": "newAdmin",
          "type": "address"
        }
      ],
      "name": "AdminChanged",
      "type": "event"
    },
    {
      "anonymous": false,
      "inputs": [
        {
          "indexed": false,
          "internalType": "address",
          "name": "user",
          "type": "address"
        },
        {
          "indexed": false,
          "internalType": "uint256",
          "name": "amount",
          "type": "uint256"
        },
        {
          "indexed": false,
          "internalType": "uint64",
          "name": "lockTo",
          "type": "uint64"
        }
      ],
      "name": "AppendReward",
      "type": "event"
    },
    {
      "anonymous": false,
      "inputs": [
        {
          "indexed": false,
          "internalType": "address",
          "name": "user",
          "type": "address"
        },
        {
          "indexed": false,
          "internalType": "uint256",
          "name": "amount",
          "type": "uint256"
        }
      ],
      "name": "ClaimLog",
      "type": "event"
    },
    {
      "anonymous": false,
      "inputs": [
        {
          "indexed": false,
          "internalType": "address",
          "name": "oldCandidate",
          "type": "address"
        },
        {
          "indexed": false,
          "internalType": "address",
          "name": "newCandidate",
          "type": "address"
        }
      ],
      "name": "candidateChanged",
      "type": "event"
    },
    {
      "inputs": [],
      "name": "admin",
      "outputs": [
        {
          "internalType": "address",
          "name": "",
          "type": "address"
        }
      ],
      "stateMutability": "view",
      "type": "function"
    },
    {
      "inputs": [
        {
          "internalType": "address",
          "name": "",
          "type": "address"
        }
      ],
      "name": "balanceOf",
      "outputs": [
        {
          "internalType": "uint256",
          "name": "",
          "type": "uint256"
        }
      ],
      "stateMutability": "view",
      "type": "function"
    },
    {
      "inputs": [],
      "name": "becomeAdmin",
      "outputs": [],
      "stateMutability": "nonpayable",
      "type": "function"
    },
    {
      "inputs": [],
      "name": "candidate",
      "outputs": [
        {
          "internalType": "address",
          "name": "",
          "type": "address"
        }
      ],
      "stateMutability": "view",
      "type": "function"
    },
    {
      "inputs": [],
      "name": "linaToken",
      "outputs": [
        {
          "internalType": "contract IERC20",
          "name": "",
          "type": "address"
        }
      ],
      "stateMutability": "view",
      "type": "function"
    },
    {
      "inputs": [],
      "name": "maxRewardArrayLen",
      "outputs": [
        {
          "internalType": "uint256",
          "name": "",
          "type": "uint256"
        }
      ],
      "stateMutability": "view",
      "type": "function"
    },
    {
      "inputs": [
        {
          "internalType": "address",
          "name": "_candidate",
          "type": "address"
        }
      ],
      "name": "setCandidate",
      "outputs": [],
      "stateMutability": "nonpayable",
      "type": "function"
    },
    {
      "inputs": [],
      "name": "totalNeedToReward",
      "outputs": [
        {
          "internalType": "uint256",
          "name": "",
          "type": "uint256"
        }
      ],
      "stateMutability": "view",
      "type": "function"
    },
    {
      "inputs": [
        {
          "internalType": "address",
          "name": "",
          "type": "address"
        },
        {
          "internalType": "uint256",
          "name": "",
          "type": "uint256"
        }
      ],
      "name": "userRewards",
      "outputs": [
        {
          "internalType": "uint64",
          "name": "lockToTime",
          "type": "uint64"
        },
        {
          "internalType": "uint256",
          "name": "amount",
          "type": "uint256"
        }
      ],
      "stateMutability": "view",
      "type": "function"
    },
    {
      "inputs": [
        {
          "internalType": "address",
          "name": "_token",
          "type": "address"
        }
      ],
      "name": "setLinaAddress",
      "outputs": [],
      "stateMutability": "nonpayable",
      "type": "function"
    },
    {
      "inputs": [
        {
          "internalType": "address",
          "name": "_feeSysAddr",
          "type": "address"
        }
      ],
      "name": "Init",
      "outputs": [],
      "stateMutability": "nonpayable",
      "type": "function"
    },
    {
      "inputs": [
        {
          "internalType": "address",
          "name": "_user",
          "type": "address"
        },
        {
          "internalType": "uint256",
          "name": "_amount",
          "type": "uint256"
        },
        {
          "internalType": "uint64",
          "name": "_lockTo",
          "type": "uint64"
        }
      ],
      "name": "appendReward",
      "outputs": [],
      "stateMutability": "nonpayable",
      "type": "function"
    },
    {
      "inputs": [
        {
          "internalType": "address",
          "name": "_user",
          "type": "address"
        }
      ],
      "name": "Slimming",
      "outputs": [],
      "stateMutability": "nonpayable",
      "type": "function"
    },
    {
      "inputs": [],
      "name": "ClaimMaxable",
      "outputs": [],
      "stateMutability": "nonpayable",
      "type": "function"
    },
    {
      "inputs": [
        {
          "internalType": "uint256",
          "name": "_amount",
          "type": "uint256"
        }
      ],
      "name": "Claim",
      "outputs": [],
      "stateMutability": "nonpayable",
      "type": "function"
    }
  ],
  "bytecode": "0x608060405234801561001057600080fd5b50604051611c60380380611c608339818101604052604081101561003357600080fd5b81019080805190602001909291908051906020019092919050505081600073ffffffffffffffffffffffffffffffffffffffff168173ffffffffffffffffffffffffffffffffffffffff1614156100f2576040517f08c379a00000000000000000000000000000000000000000000000000000000081526004018080602001828103825260198152602001807f61646d696e20616464726573732063616e6e6f7420626520300000000000000081525060200191505060405180910390fd5b806000806101000a81548173ffffffffffffffffffffffffffffffffffffffff021916908373ffffffffffffffffffffffffffffffffffffffff1602179055507f7e644d79422f17c01e4894b5f4f588d331ebfa28653d42ae832dc59e38c9798f600082604051808373ffffffffffffffffffffffffffffffffffffffff1681526020018273ffffffffffffffffffffffffffffffffffffffff1681526020019250505060405180910390a15080600660006101000a81548173ffffffffffffffffffffffffffffffffffffffff021916908373ffffffffffffffffffffffffffffffffffffffff1602179055505050611a6f806101f16000396000f3fe608060405234801561001057600080fd5b50600436106100f55760003560e01c806363c2a20a116100975780639726065d116100665780639726065d14610359578063d76dd31d146103bb578063efd01329146103d9578063f851a4401461041d576100f5565b806363c2a20a1461022c5780636c8381f81461029f57806370a08231146102d35780637bb2b3c11461032b576100f5565b80633c38d967116100d35780633c38d9671461017c5780634bcdd174146101c05780634f8cfde3146101de5780635787299e14610222576100f5565b806307880b7f146100fa578063222bebd91461013e57806325971dff14610172575b600080fd5b61013c6004803603602081101561011057600080fd5b81019080803573ffffffffffffffffffffffffffffffffffffffff169060200190929190505050610451565b005b6101466105ee565b604051808273ffffffffffffffffffffffffffffffffffffffff16815260200191505060405180910390f35b61017a610614565b005b6101be6004803603602081101561019257600080fd5b81019080803573ffffffffffffffffffffffffffffffffffffffff1690602001909291905050506107ed565b005b6101c86108d5565b6040518082815260200191505060405180910390f35b610220600480360360208110156101f457600080fd5b81019080803573ffffffffffffffffffffffffffffffffffffffff1690602001909291905050506108db565b005b61022a6109c3565b005b6102786004803603604081101561024257600080fd5b81019080803573ffffffffffffffffffffffffffffffffffffffff16906020019092919080359060200190929190505050610a3a565b604051808367ffffffffffffffff1681526020018281526020019250505060405180910390f35b6102a7610a8c565b604051808273ffffffffffffffffffffffffffffffffffffffff16815260200191505060405180910390f35b610315600480360360208110156102e957600080fd5b81019080803573ffffffffffffffffffffffffffffffffffffffff169060200190929190505050610ab2565b6040518082815260200191505060405180910390f35b6103576004803603602081101561034157600080fd5b8101908080359060200190929190505050610aca565b005b6103b96004803603606081101561036f57600080fd5b81019080803573ffffffffffffffffffffffffffffffffffffffff16906020019092919080359060200190929190803567ffffffffffffffff169060200190929190505050610bb8565b005b6103c361108e565b6040518082815260200191505060405180910390f35b61041b600480360360208110156103ef57600080fd5b81019080803573ffffffffffffffffffffffffffffffffffffffff169060200190929190505050611093565b005b610425611589565b604051808273ffffffffffffffffffffffffffffffffffffffff16815260200191505060405180910390f35b60008054906101000a900473ffffffffffffffffffffffffffffffffffffffff1673ffffffffffffffffffffffffffffffffffffffff163373ffffffffffffffffffffffffffffffffffffffff16146104f5576040517f08c379a000000000000000000000000000000000000000000000000000000000815260040180806020018281038252602f815260200180611a0b602f913960400191505060405180910390fd5b6000600160009054906101000a900473ffffffffffffffffffffffffffffffffffffffff16905081600160006101000a81548173ffffffffffffffffffffffffffffffffffffffff021916908373ffffffffffffffffffffffffffffffffffffffff1602179055507f0faed18be9e8f4d4c05dfbcc80ea2c97a0be729614d766827778f60890c02cab81600160009054906101000a900473ffffffffffffffffffffffffffffffffffffffff16604051808373ffffffffffffffffffffffffffffffffffffffff1681526020018273ffffffffffffffffffffffffffffffffffffffff1681526020019250505060405180910390a15050565b600660009054906101000a900473ffffffffffffffffffffffffffffffffffffffff1681565b600160009054906101000a900473ffffffffffffffffffffffffffffffffffffffff1673ffffffffffffffffffffffffffffffffffffffff163373ffffffffffffffffffffffffffffffffffffffff16146106d7576040517f08c379a000000000000000000000000000000000000000000000000000000000815260040180806020018281038252601f8152602001807f4f6e6c792063616e6469646174652063616e206265636f6d652061646d696e0081525060200191505060405180910390fd5b60008060009054906101000a900473ffffffffffffffffffffffffffffffffffffffff169050600160009054906101000a900473ffffffffffffffffffffffffffffffffffffffff166000806101000a81548173ffffffffffffffffffffffffffffffffffffffff021916908373ffffffffffffffffffffffffffffffffffffffff1602179055507f7e644d79422f17c01e4894b5f4f588d331ebfa28653d42ae832dc59e38c9798f8160008054906101000a900473ffffffffffffffffffffffffffffffffffffffff16604051808373ffffffffffffffffffffffffffffffffffffffff1681526020018273ffffffffffffffffffffffffffffffffffffffff1681526020019250505060405180910390a150565b60008054906101000a900473ffffffffffffffffffffffffffffffffffffffff1673ffffffffffffffffffffffffffffffffffffffff163373ffffffffffffffffffffffffffffffffffffffff1614610891576040517f08c379a000000000000000000000000000000000000000000000000000000000815260040180806020018281038252602f815260200180611a0b602f913960400191505060405180910390fd5b80600660006101000a81548173ffffffffffffffffffffffffffffffffffffffff021916908373ffffffffffffffffffffffffffffffffffffffff16021790555050565b60045481565b60008054906101000a900473ffffffffffffffffffffffffffffffffffffffff1673ffffffffffffffffffffffffffffffffffffffff163373ffffffffffffffffffffffffffffffffffffffff161461097f576040517f08c379a000000000000000000000000000000000000000000000000000000000815260040180806020018281038252602f815260200180611a0b602f913960400191505060405180910390fd5b80600560006101000a81548173ffffffffffffffffffffffffffffffffffffffff021916908373ffffffffffffffffffffffffffffffffffffffff16021790555050565b60003390506109d181611093565b610a3781600260008473ffffffffffffffffffffffffffffffffffffffff1673ffffffffffffffffffffffffffffffffffffffff168152602001908152602001600020600081548110610a2057fe5b9060005260206000209060020201600101546115ad565b50565b60026020528160005260406000208181548110610a5357fe5b9060005260206000209060020201600091509150508060000160009054906101000a900467ffffffffffffffff16908060010154905082565b600160009054906101000a900473ffffffffffffffffffffffffffffffffffffffff1681565b60036020528060005260406000206000915090505481565b6000339050610ad881611093565b600260008273ffffffffffffffffffffffffffffffffffffffff1673ffffffffffffffffffffffffffffffffffffffff168152602001908152602001600020600081548110610b2357fe5b906000526020600020906002020160010154821115610baa576040517f08c379a00000000000000000000000000000000000000000000000000000000081526004018080602001828103825260148152602001807f436c61696d20616d6f756e7420696e76616c696400000000000000000000000081525060200191505060405180910390fd5b610bb481836115ad565b5050565b600560009054906101000a900473ffffffffffffffffffffffffffffffffffffffff1673ffffffffffffffffffffffffffffffffffffffff163373ffffffffffffffffffffffffffffffffffffffff1614610c7b576040517f08c379a00000000000000000000000000000000000000000000000000000000081526004018080602001828103825260148152602001807f4f6e6c79204665652053797374656d2063616c6c00000000000000000000000081525060200191505060405180910390fd5b6064600260008573ffffffffffffffffffffffffffffffffffffffff1673ffffffffffffffffffffffffffffffffffffffff1681526020019081526020016000208054905010610ccf57610cce83611093565b5b6064600260008573ffffffffffffffffffffffffffffffffffffffff1673ffffffffffffffffffffffffffffffffffffffff168152602001908152602001600020805490501115610d88576040517f08c379a00000000000000000000000000000000000000000000000000000000081526004018080602001828103825260118152602001807f75736572206172726179206f7574206f6600000000000000000000000000000081525060200191505060405180910390fd5b6000600260008573ffffffffffffffffffffffffffffffffffffffff1673ffffffffffffffffffffffffffffffffffffffff168152602001908152602001600020805490501415610ea457610ddb6119e6565b6040518060400160405280600067ffffffffffffffff16815260200160008152509050600260008573ffffffffffffffffffffffffffffffffffffffff1673ffffffffffffffffffffffffffffffffffffffff16815260200190815260200160002081908060018154018082558091505060019003906000526020600020906002020160009091909190915060008201518160000160006101000a81548167ffffffffffffffff021916908367ffffffffffffffff160217905550602082015181600101555050505b610eac6119e6565b60405180604001604052808367ffffffffffffffff168152602001848152509050600260008573ffffffffffffffffffffffffffffffffffffffff1673ffffffffffffffffffffffffffffffffffffffff16815260200190815260200160002081908060018154018082558091505060019003906000526020600020906002020160009091909190915060008201518160000160006101000a81548167ffffffffffffffff021916908367ffffffffffffffff160217905550602082015181600101555050610fc383600360008773ffffffffffffffffffffffffffffffffffffffff1673ffffffffffffffffffffffffffffffffffffffff1681526020019081526020016000205461185490919063ffffffff16565b600360008673ffffffffffffffffffffffffffffffffffffffff1673ffffffffffffffffffffffffffffffffffffffff1681526020019081526020016000208190555061101b8360045461185490919063ffffffff16565b6004819055507ff43bc8cd025b5c3919676da8b8aaa88c6cea44d68f229b3906b5fad9c0bef5df848484604051808473ffffffffffffffffffffffffffffffffffffffff1681526020018381526020018267ffffffffffffffff168152602001935050505060405180910390a150505050565b606481565b6001600260008373ffffffffffffffffffffffffffffffffffffffff1673ffffffffffffffffffffffffffffffffffffffff168152602001908152602001600020805490501161114b576040517f08c379a00000000000000000000000000000000000000000000000000000000081526004018080602001828103825260148152602001807f6e6f74206461746120746f20736c696d6d696e6700000000000000000000000081525060200191505060405180910390fd5b6000600260008373ffffffffffffffffffffffffffffffffffffffff1673ffffffffffffffffffffffffffffffffffffffff16815260200190815260200160002060008154811061119857fe5b906000526020600020906002020190506000600190505b600260008473ffffffffffffffffffffffffffffffffffffffff1673ffffffffffffffffffffffffffffffffffffffff1681526020019081526020016000208054905081101561158457600260008473ffffffffffffffffffffffffffffffffffffffff1673ffffffffffffffffffffffffffffffffffffffff168152602001908152602001600020818154811061124357fe5b906000526020600020906002020160000160009054906101000a900467ffffffffffffffff1667ffffffffffffffff164210611576576112eb600260008573ffffffffffffffffffffffffffffffffffffffff1673ffffffffffffffffffffffffffffffffffffffff16815260200190815260200160002082815481106112c657fe5b906000526020600020906002020160010154836001015461185490919063ffffffff16565b82600101819055506000600260008573ffffffffffffffffffffffffffffffffffffffff1673ffffffffffffffffffffffffffffffffffffffff168152602001908152602001600020805490509050600260008573ffffffffffffffffffffffffffffffffffffffff1673ffffffffffffffffffffffffffffffffffffffff168152602001908152602001600020600182038154811061138757fe5b906000526020600020906002020160000160009054906101000a900467ffffffffffffffff16600260008673ffffffffffffffffffffffffffffffffffffffff1673ffffffffffffffffffffffffffffffffffffffff16815260200190815260200160002083815481106113f757fe5b906000526020600020906002020160000160006101000a81548167ffffffffffffffff021916908367ffffffffffffffff160217905550600260008573ffffffffffffffffffffffffffffffffffffffff1673ffffffffffffffffffffffffffffffffffffffff168152602001908152602001600020600182038154811061147b57fe5b906000526020600020906002020160010154600260008673ffffffffffffffffffffffffffffffffffffffff1673ffffffffffffffffffffffffffffffffffffffff16815260200190815260200160002083815481106114d757fe5b906000526020600020906002020160010181905550600260008573ffffffffffffffffffffffffffffffffffffffff1673ffffffffffffffffffffffffffffffffffffffff16815260200190815260200160002080548061153457fe5b6001900381819060005260206000209060020201600080820160006101000a81549067ffffffffffffffff02191690556001820160009055505090555061157f565b80806001019150505b6111af565b505050565b60008054906101000a900473ffffffffffffffffffffffffffffffffffffffff1681565b61161c81600260008573ffffffffffffffffffffffffffffffffffffffff1673ffffffffffffffffffffffffffffffffffffffff1681526020019081526020016000206000815481106115fc57fe5b9060005260206000209060020201600101546118dc90919063ffffffff16565b600260008473ffffffffffffffffffffffffffffffffffffffff1673ffffffffffffffffffffffffffffffffffffffff16815260200190815260200160002060008154811061166757fe5b9060005260206000209060020201600101819055506116ce81600360008573ffffffffffffffffffffffffffffffffffffffff1673ffffffffffffffffffffffffffffffffffffffff168152602001908152602001600020546118dc90919063ffffffff16565b600360008473ffffffffffffffffffffffffffffffffffffffff1673ffffffffffffffffffffffffffffffffffffffff16815260200190815260200160002081905550611726816004546118dc90919063ffffffff16565b600481905550600660009054906101000a900473ffffffffffffffffffffffffffffffffffffffff1673ffffffffffffffffffffffffffffffffffffffff1663a9059cbb83836040518363ffffffff1660e01b8152600401808373ffffffffffffffffffffffffffffffffffffffff16815260200182815260200192505050602060405180830381600087803b1580156117bf57600080fd5b505af11580156117d3573d6000803e3d6000fd5b505050506040513d60208110156117e957600080fd5b8101908080519060200190929190505050507f876e7403ba1832693ff0840c1a33698d242cd37d46f73cdc3362c2f8ab52025a8282604051808373ffffffffffffffffffffffffffffffffffffffff1681526020018281526020019250505060405180910390a15050565b6000808284019050838110156118d2576040517f08c379a000000000000000000000000000000000000000000000000000000000815260040180806020018281038252601b8152602001807f536166654d6174683a206164646974696f6e206f766572666c6f77000000000081525060200191505060405180910390fd5b8091505092915050565b600061191e83836040518060400160405280601e81526020017f536166654d6174683a207375627472616374696f6e206f766572666c6f770000815250611926565b905092915050565b60008383111582906119d3576040517f08c379a00000000000000000000000000000000000000000000000000000000081526004018080602001828103825283818151815260200191508051906020019080838360005b8381101561199857808201518184015260208101905061197d565b50505050905090810190601f1680156119c55780820380516001836020036101000a031916815260200191505b509250505060405180910390fd5b5060008385039050809150509392505050565b6040518060400160405280600067ffffffffffffffff16815260200160008152509056fe4f6e6c792074686520636f6e74726163742061646d696e2063616e20706572666f726d207468697320616374696f6ea26469706673582212206cba4a74d59e7d7b467588503b125fcb4b883c463af86f337b2d427c4b74773d64736f6c634300060c0033",
  "immutableReferences": {},
  "source": "// SPDX-License-Identifier: MIT\r\npragma solidity ^0.6.12;\r\n\r\nimport \"./IERC20.sol\";\r\nimport \"./LnAdmin.sol\";\r\nimport \"@openzeppelin/contracts/math/SafeMath.sol\";\r\n\r\n// Reward Distributor\r\ncontract LnRewardLocker is LnAdmin {\r\n    using SafeMath for uint256;\r\n\r\n    struct RewardData{\r\n        uint64 lockToTime;\r\n        uint256 amount;\r\n    }\r\n\r\n    mapping (address => RewardData[]) public userRewards; // RewardData[0] is claimable\r\n    mapping (address => uint256) public balanceOf;\r\n    uint256 public totalNeedToReward;\r\n\r\n    uint256 public constant maxRewardArrayLen = 100;\r\n\r\n    address feeSysAddr;\r\n    IERC20 public linaToken;\r\n\r\n    constructor(address _admin, address linaAddress) public LnAdmin(_admin ) {\r\n        linaToken = IERC20(linaAddress);\r\n    }\r\n\r\n    function setLinaAddress(address _token) external onlyAdmin {\r\n        linaToken = IERC20(_token);\r\n    }\r\n\r\n    function Init(address _feeSysAddr) external onlyAdmin {\r\n        feeSysAddr = _feeSysAddr;\r\n    }\r\n\r\n    modifier onlyFeeSys() {\r\n        require( (msg.sender == feeSysAddr), \"Only Fee System call\");\r\n        _;\r\n    }\r\n\r\n    function appendReward(address _user, uint256 _amount, uint64 _lockTo) external onlyFeeSys {\r\n        if (userRewards[_user].length >= maxRewardArrayLen) {\r\n            Slimming(_user);\r\n        }\r\n\r\n        require(userRewards[_user].length <= maxRewardArrayLen, \"user array out of\");\r\n        // init cliamable\r\n        if (userRewards[_user].length == 0) {\r\n            RewardData memory data = RewardData( {\r\n                lockToTime: 0,\r\n                amount: 0\r\n            });\r\n            userRewards[_user].push(data);\r\n        }\r\n        \r\n        // append new reward\r\n        RewardData memory data = RewardData( {\r\n            lockToTime: _lockTo,\r\n            amount: _amount\r\n        });\r\n        userRewards[_user].push(data);\r\n\r\n        balanceOf[_user] = balanceOf[_user].add(_amount);\r\n        totalNeedToReward = totalNeedToReward.add(_amount);\r\n\r\n        emit AppendReward(_user, _amount, _lockTo);\r\n    }\r\n\r\n    // move claimable to RewardData[0]\r\n    function Slimming(address _user) public {\r\n        require(userRewards[_user].length > 1, \"not data to slimming\");\r\n        RewardData storage claimable = userRewards[_user][0];\r\n        for (uint256 i=1; i<userRewards[_user].length; ) {\r\n            if (now >= userRewards[_user][i].lockToTime) {\r\n                claimable.amount = claimable.amount.add(userRewards[_user][i].amount);\r\n\r\n                //swap last to current position\r\n                uint256 len = userRewards[_user].length;\r\n                userRewards[_user][i].lockToTime = userRewards[_user][len-1].lockToTime;\r\n                userRewards[_user][i].amount = userRewards[_user][len-1].amount;\r\n                userRewards[_user].pop();// delete last one\r\n            } else {\r\n                i++;\r\n            }\r\n        }\r\n    }\r\n\r\n    // if lock lina is collateral, claimable need calc to fix target ratio\r\n    function ClaimMaxable() public {\r\n        address user = msg.sender;\r\n        Slimming(user);\r\n        _claim(user, userRewards[user][0].amount);\r\n    }\r\n\r\n    function _claim(address _user, uint256 _amount) internal {\r\n        userRewards[_user][0].amount = userRewards[_user][0].amount.sub(_amount);\r\n\r\n        balanceOf[_user] = balanceOf[_user].sub(_amount);\r\n        totalNeedToReward = totalNeedToReward.sub(_amount);\r\n        \r\n        linaToken.transfer(_user, _amount);\r\n        emit ClaimLog(_user, _amount);\r\n    }\r\n\r\n    function Claim(uint256 _amount) public {\r\n        address user = msg.sender;\r\n        Slimming(user);\r\n        require( _amount <= userRewards[user][0].amount, \"Claim amount invalid\");\r\n        _claim(user, _amount);\r\n    }\r\n\r\n    event AppendReward(address user, uint256 amount, uint64 lockTo);\r\n    event ClaimLog(address user, uint256 amount);\r\n}\r\n\r\n",
  "sourcePath": "/mnt/d/working/linearFinance/smartcontracts/contracts/LnRewardLocker.sol",
  "compiler": {
    "name": "solc",
    "version": "0.6.12+commit.27d51765.Emscripten.clang"
  },
  "schemaVersion": "3.2.3",
  "updatedAt": "2020-10-14T10:53:55.451Z",
  "devdoc": {
    "kind": "dev",
    "methods": {},
    "version": 1
  },
  "userdoc": {
    "kind": "user",
    "methods": {},
    "version": 1
  }
}