{
  "contractName": "LnTokenLocker",
  "abi": [
    {
      "inputs": [
        {
          "internalType": "address",
          "name": "_token",
          "type": "address"
        },
        {
          "internalType": "address",
          "name": "_admin",
          "type": "address"
        }
      ],
      "stateMutability": "nonpayable",
      "type": "constructor"
    },
    {
      "anonymous": false,
      "inputs": [
        {
          "indexed": false,
          "internalType": "address",
          "name": "oldAdmin",
          "type": "address"
        },
        {
          "indexed": false,
          "internalType": "address",
          "name": "newAdmin",
          "type": "address"
        }
      ],
      "name": "AdminChanged",
      "type": "event"
    },
    {
      "anonymous": false,
      "inputs": [
        {
          "indexed": false,
          "internalType": "address",
          "name": "account",
          "type": "address"
        }
      ],
      "name": "Paused",
      "type": "event"
    },
    {
      "anonymous": false,
      "inputs": [
        {
          "indexed": false,
          "internalType": "address",
          "name": "account",
          "type": "address"
        }
      ],
      "name": "Unpaused",
      "type": "event"
    },
    {
      "anonymous": false,
      "inputs": [
        {
          "indexed": false,
          "internalType": "address",
          "name": "oldCandidate",
          "type": "address"
        },
        {
          "indexed": false,
          "internalType": "address",
          "name": "newCandidate",
          "type": "address"
        }
      ],
      "name": "candidateChanged",
      "type": "event"
    },
    {
      "inputs": [],
      "name": "admin",
      "outputs": [
        {
          "internalType": "address",
          "name": "",
          "type": "address"
        }
      ],
      "stateMutability": "view",
      "type": "function"
    },
    {
      "inputs": [],
      "name": "becomeAdmin",
      "outputs": [],
      "stateMutability": "nonpayable",
      "type": "function"
    },
    {
      "inputs": [],
      "name": "candidate",
      "outputs": [
        {
          "internalType": "address",
          "name": "",
          "type": "address"
        }
      ],
      "stateMutability": "view",
      "type": "function"
    },
    {
      "inputs": [
        {
          "internalType": "address",
          "name": "",
          "type": "address"
        }
      ],
      "name": "lockData",
      "outputs": [
        {
          "internalType": "uint256",
          "name": "amount",
          "type": "uint256"
        },
        {
          "internalType": "uint256",
          "name": "lockTimestamp",
          "type": "uint256"
        },
        {
          "internalType": "uint256",
          "name": "lockDays",
          "type": "uint256"
        },
        {
          "internalType": "uint256",
          "name": "claimedAmount",
          "type": "uint256"
        }
      ],
      "stateMutability": "view",
      "type": "function"
    },
    {
      "inputs": [],
      "name": "paused",
      "outputs": [
        {
          "internalType": "bool",
          "name": "",
          "type": "bool"
        }
      ],
      "stateMutability": "view",
      "type": "function"
    },
    {
      "inputs": [
        {
          "internalType": "address",
          "name": "_candidate",
          "type": "address"
        }
      ],
      "name": "setCandidate",
      "outputs": [],
      "stateMutability": "nonpayable",
      "type": "function"
    },
    {
      "inputs": [
        {
          "internalType": "address[]",
          "name": "_users",
          "type": "address[]"
        },
        {
          "internalType": "uint256[]",
          "name": "_amounts",
          "type": "uint256[]"
        },
        {
          "internalType": "uint256[]",
          "name": "_lockdays",
          "type": "uint256[]"
        }
      ],
      "name": "sendLockTokenMany",
      "outputs": [],
      "stateMutability": "nonpayable",
      "type": "function"
    },
    {
      "inputs": [
        {
          "internalType": "address",
          "name": "_user",
          "type": "address"
        },
        {
          "internalType": "uint256",
          "name": "_amount",
          "type": "uint256"
        },
        {
          "internalType": "uint256",
          "name": "_lockdays",
          "type": "uint256"
        }
      ],
      "name": "sendLockToken",
      "outputs": [
        {
          "internalType": "bool",
          "name": "",
          "type": "bool"
        }
      ],
      "stateMutability": "nonpayable",
      "type": "function"
    },
    {
      "inputs": [
        {
          "internalType": "uint256",
          "name": "_amount",
          "type": "uint256"
        }
      ],
      "name": "claimToken",
      "outputs": [
        {
          "internalType": "uint256",
          "name": "",
          "type": "uint256"
        }
      ],
      "stateMutability": "nonpayable",
      "type": "function"
    }
  ],
  "bytecode": "0x608060405234801561001057600080fd5b506040516118483803806118488339818101604052604081101561003357600080fd5b81019080805190602001909291908051906020019092919050505080600073ffffffffffffffffffffffffffffffffffffffff168173ffffffffffffffffffffffffffffffffffffffff1614156100f2576040517f08c379a00000000000000000000000000000000000000000000000000000000081526004018080602001828103825260198152602001807f61646d696e20616464726573732063616e6e6f7420626520300000000000000081525060200191505060405180910390fd5b806000806101000a81548173ffffffffffffffffffffffffffffffffffffffff021916908373ffffffffffffffffffffffffffffffffffffffff1602179055507f7e644d79422f17c01e4894b5f4f588d331ebfa28653d42ae832dc59e38c9798f600082604051808373ffffffffffffffffffffffffffffffffffffffff1681526020018273ffffffffffffffffffffffffffffffffffffffff1681526020019250505060405180910390a1506000600160146101000a81548160ff02191690831515021790555081600260006101000a81548173ffffffffffffffffffffffffffffffffffffffff021916908373ffffffffffffffffffffffffffffffffffffffff160217905550505061163c8061020c6000396000f3fe608060405234801561001057600080fd5b50600436106100935760003560e01c8063a9e7c2e511610066578063a9e7c2e51461013a578063db722af81461017c578063e8345bd1146101ea578063e8be97a614610257578063f851a4401461037a57610093565b806307880b7f1461009857806325971dff146100dc5780635c975abb146100e65780636c8381f814610106575b600080fd5b6100da600480360360208110156100ae57600080fd5b81019080803573ffffffffffffffffffffffffffffffffffffffff1690602001909291905050506103ae565b005b6100e461054b565b005b6100ee610724565b60405180821515815260200191505060405180910390f35b61010e61073b565b604051808273ffffffffffffffffffffffffffffffffffffffff16815260200191505060405180910390f35b6101666004803603602081101561015057600080fd5b8101908080359060200190929190505050610761565b6040518082815260200191505060405180910390f35b6101d26004803603606081101561019257600080fd5b81019080803573ffffffffffffffffffffffffffffffffffffffff1690602001909291908035906020019092919080359060200190929190505050610d0e565b60405180821515815260200191505060405180910390f35b61022c6004803603602081101561020057600080fd5b81019080803573ffffffffffffffffffffffffffffffffffffffff169060200190929190505050610ffc565b6040518085815260200184815260200183815260200182815260200194505050505060405180910390f35b6103786004803603606081101561026d57600080fd5b810190808035906020019064010000000081111561028a57600080fd5b82018360208201111561029c57600080fd5b803590602001918460208302840111640100000000831117156102be57600080fd5b9091929391929390803590602001906401000000008111156102df57600080fd5b8201836020820111156102f157600080fd5b8035906020019184602083028401116401000000008311171561031357600080fd5b90919293919293908035906020019064010000000081111561033457600080fd5b82018360208201111561034657600080fd5b8035906020019184602083028401116401000000008311171561036857600080fd5b909192939192939050505061102c565b005b610382611242565b604051808273ffffffffffffffffffffffffffffffffffffffff16815260200191505060405180910390f35b60008054906101000a900473ffffffffffffffffffffffffffffffffffffffff1673ffffffffffffffffffffffffffffffffffffffff163373ffffffffffffffffffffffffffffffffffffffff1614610452576040517f08c379a000000000000000000000000000000000000000000000000000000000815260040180806020018281038252602f8152602001806115d8602f913960400191505060405180910390fd5b6000600160009054906101000a900473ffffffffffffffffffffffffffffffffffffffff16905081600160006101000a81548173ffffffffffffffffffffffffffffffffffffffff021916908373ffffffffffffffffffffffffffffffffffffffff1602179055507f0faed18be9e8f4d4c05dfbcc80ea2c97a0be729614d766827778f60890c02cab81600160009054906101000a900473ffffffffffffffffffffffffffffffffffffffff16604051808373ffffffffffffffffffffffffffffffffffffffff1681526020018273ffffffffffffffffffffffffffffffffffffffff1681526020019250505060405180910390a15050565b600160009054906101000a900473ffffffffffffffffffffffffffffffffffffffff1673ffffffffffffffffffffffffffffffffffffffff163373ffffffffffffffffffffffffffffffffffffffff161461060e576040517f08c379a000000000000000000000000000000000000000000000000000000000815260040180806020018281038252601f8152602001807f4f6e6c792063616e6469646174652063616e206265636f6d652061646d696e0081525060200191505060405180910390fd5b60008060009054906101000a900473ffffffffffffffffffffffffffffffffffffffff169050600160009054906101000a900473ffffffffffffffffffffffffffffffffffffffff166000806101000a81548173ffffffffffffffffffffffffffffffffffffffff021916908373ffffffffffffffffffffffffffffffffffffffff1602179055507f7e644d79422f17c01e4894b5f4f588d331ebfa28653d42ae832dc59e38c9798f8160008054906101000a900473ffffffffffffffffffffffffffffffffffffffff16604051808373ffffffffffffffffffffffffffffffffffffffff1681526020018273ffffffffffffffffffffffffffffffffffffffff1681526020019250505060405180910390a150565b6000600160149054906101000a900460ff16905090565b600160009054906101000a900473ffffffffffffffffffffffffffffffffffffffff1681565b60008082116107d8576040517f08c379a00000000000000000000000000000000000000000000000000000000081526004018080602001828103825260188152602001807f496e76616c696420706172616d6574657220616d6f756e74000000000000000081525060200191505060405180910390fd5b60003390506000600360008373ffffffffffffffffffffffffffffffffffffffff1673ffffffffffffffffffffffffffffffffffffffff1681526020019081526020016000206000015411610895576040517f08c379a00000000000000000000000000000000000000000000000000000000081526004018080602001828103825260168152602001807f4e6f206c6f636b20746f6b656e20746f20636c61696d0000000000000000000081525060200191505060405180910390fd5b6000610901620151806108f3600360008673ffffffffffffffffffffffffffffffffffffffff1673ffffffffffffffffffffffffffffffffffffffff168152602001908152602001600020600101544261126690919063ffffffff16565b6112b090919063ffffffff16565b905060008111610979576040517f08c379a000000000000000000000000000000000000000000000000000000000815260040180806020018281038252601e8152602001807f6e656564207761697420666f72206f6e6520646179206174206c65617374000081525060200191505060405180910390fd5b6000600360008473ffffffffffffffffffffffffffffffffffffffff1673ffffffffffffffffffffffffffffffffffffffff168152602001908152602001600020600201548210610a0e57600360008473ffffffffffffffffffffffffffffffffffffffff1673ffffffffffffffffffffffffffffffffffffffff168152602001908152602001600020600001549050610aba565b610ab782610aa9600360008773ffffffffffffffffffffffffffffffffffffffff1673ffffffffffffffffffffffffffffffffffffffff16815260200190815260200160002060020154600360008873ffffffffffffffffffffffffffffffffffffffff1673ffffffffffffffffffffffffffffffffffffffff168152602001908152602001600020600001546112b090919063ffffffff16565b6112fa90919063ffffffff16565b90505b610b0f600360008573ffffffffffffffffffffffffffffffffffffffff1673ffffffffffffffffffffffffffffffffffffffff168152602001908152602001600020600301548261126690919063ffffffff16565b905060008111610b87576040517f08c379a00000000000000000000000000000000000000000000000000000000081526004018080602001828103825260138152602001807f6e6f7420617661696c61626c6520636c61696d0000000000000000000000000081525060200191505060405180910390fd5b600085905081861115610b98578190505b610bed81600360008773ffffffffffffffffffffffffffffffffffffffff1673ffffffffffffffffffffffffffffffffffffffff1681526020019081526020016000206003015461138090919063ffffffff16565b600360008673ffffffffffffffffffffffffffffffffffffffff1673ffffffffffffffffffffffffffffffffffffffff16815260200190815260200160002060030181905550600260009054906101000a900473ffffffffffffffffffffffffffffffffffffffff1673ffffffffffffffffffffffffffffffffffffffff1663a9059cbb85836040518363ffffffff1660e01b8152600401808373ffffffffffffffffffffffffffffffffffffffff16815260200182815260200192505050602060405180830381600087803b158015610cc657600080fd5b505af1158015610cda573d6000803e3d6000fd5b505050506040513d6020811015610cf057600080fd5b81019080805190602001909291905050505080945050505050919050565b60008060009054906101000a900473ffffffffffffffffffffffffffffffffffffffff1673ffffffffffffffffffffffffffffffffffffffff163373ffffffffffffffffffffffffffffffffffffffff1614610db5576040517f08c379a000000000000000000000000000000000000000000000000000000000815260040180806020018281038252602f8152602001806115d8602f913960400191505060405180910390fd5b60008311610e2b576040517f08c379a00000000000000000000000000000000000000000000000000000000081526004018080602001828103825260138152602001807f616d6f756e742063616e206e6f74207a65726f0000000000000000000000000081525060200191505060405180910390fd5b6000600360008673ffffffffffffffffffffffffffffffffffffffff1673ffffffffffffffffffffffffffffffffffffffff1681526020019081526020016000206000015414610ee3576040517f08c379a00000000000000000000000000000000000000000000000000000000081526004018080602001828103825260178152602001807f74686973206164647265737320686173206c6f636b656400000000000000000081525060200191505060405180910390fd5b60008211610f59576040517f08c379a000000000000000000000000000000000000000000000000000000000815260040180806020018281038252601d8152602001807f6c6f636b2064617973206e656564206d6f7265207468616e207a65726f00000081525060200191505060405180910390fd5b610f6161158e565b60405180608001604052808581526020014281526020018481526020016000815250905080600360008773ffffffffffffffffffffffffffffffffffffffff1673ffffffffffffffffffffffffffffffffffffffff1681526020019081526020016000206000820151816000015560208201518160010155604082015181600201556060820151816003015590505060019150509392505050565b60036020528060005260406000206000915090508060000154908060010154908060020154908060030154905084565b60008054906101000a900473ffffffffffffffffffffffffffffffffffffffff1673ffffffffffffffffffffffffffffffffffffffff163373ffffffffffffffffffffffffffffffffffffffff16146110d0576040517f08c379a000000000000000000000000000000000000000000000000000000000815260040180806020018281038252602f8152602001806115d8602f913960400191505060405180910390fd5b83839050868690501461114b576040517f08c379a00000000000000000000000000000000000000000000000000000000081526004018080602001828103825260138152602001807f6172726179206c656e677468206e6f742065710000000000000000000000000081525060200191505060405180910390fd5b8181905086869050146111c6576040517f08c379a00000000000000000000000000000000000000000000000000000000081526004018080602001828103825260138152602001807f6172726179206c656e677468206e6f742065710000000000000000000000000081525060200191505060405180910390fd5b60005b868690508110156112395761122b8787838181106111e357fe5b9050602002013573ffffffffffffffffffffffffffffffffffffffff1686868481811061120c57fe5b9050602002013585858581811061121f57fe5b90506020020135610d0e565b5080806001019150506111c9565b50505050505050565b60008054906101000a900473ffffffffffffffffffffffffffffffffffffffff1681565b60006112a883836040518060400160405280601e81526020017f536166654d6174683a207375627472616374696f6e206f766572666c6f770000815250611408565b905092915050565b60006112f283836040518060400160405280601a81526020017f536166654d6174683a206469766973696f6e206279207a65726f0000000000008152506114c8565b905092915050565b60008083141561130d576000905061137a565b600082840290508284828161131e57fe5b0414611375576040517f08c379a00000000000000000000000000000000000000000000000000000000081526004018080602001828103825260218152602001806115b76021913960400191505060405180910390fd5b809150505b92915050565b6000808284019050838110156113fe576040517f08c379a000000000000000000000000000000000000000000000000000000000815260040180806020018281038252601b8152602001807f536166654d6174683a206164646974696f6e206f766572666c6f77000000000081525060200191505060405180910390fd5b8091505092915050565b60008383111582906114b5576040517f08c379a00000000000000000000000000000000000000000000000000000000081526004018080602001828103825283818151815260200191508051906020019080838360005b8381101561147a57808201518184015260208101905061145f565b50505050905090810190601f1680156114a75780820380516001836020036101000a031916815260200191505b509250505060405180910390fd5b5060008385039050809150509392505050565b60008083118290611574576040517f08c379a00000000000000000000000000000000000000000000000000000000081526004018080602001828103825283818151815260200191508051906020019080838360005b8381101561153957808201518184015260208101905061151e565b50505050905090810190601f1680156115665780820380516001836020036101000a031916815260200191505b509250505060405180910390fd5b50600083858161158057fe5b049050809150509392505050565b604051806080016040528060008152602001600081526020016000815260200160008152509056fe536166654d6174683a206d756c7469706c69636174696f6e206f766572666c6f774f6e6c792074686520636f6e74726163742061646d696e2063616e20706572666f726d207468697320616374696f6ea264697066735822122090c453f1a809c42f8c8804e9dcb0aebaa02260082d1e29bf85a6febbbcb1576964736f6c634300060c0033",
  "immutableReferences": {},
  "source": "// SPDX-License-Identifier: MIT\r\npragma solidity ^0.6.12;\r\n\r\nimport \"./IERC20.sol\";\r\nimport \"./LnAdmin.sol\";\r\nimport \"./SafeDecimalMath.sol\";\r\nimport \"@openzeppelin/contracts/math/SafeMath.sol\";\r\nimport \"@openzeppelin/contracts/utils/Pausable.sol\";\r\nimport \"@openzeppelin/contracts/utils/Address.sol\";\r\n\r\n// approve\r\ncontract LnTokenLocker is LnAdmin, Pausable {\r\n    using SafeMath for uint;\r\n\r\n    IERC20 private token;\r\n    struct LockInfo {\r\n        uint256 amount;\r\n        uint256 lockTimestamp; // lock time at block.timestamp\r\n        uint256 lockDays;\r\n        uint256 claimedAmount;\r\n    }\r\n    mapping (address => LockInfo) public lockData;\r\n    \r\n    constructor(address _token, address _admin) public LnAdmin(_admin) {\r\n        token = IERC20(_token);\r\n    }\r\n    \r\n    function sendLockTokenMany(address[] calldata _users, uint256[] calldata _amounts, uint256[] calldata _lockdays) external onlyAdmin {\r\n        require(_users.length == _amounts.length, \"array length not eq\");\r\n        require(_users.length == _lockdays.length, \"array length not eq\");\r\n        for (uint256 i=0; i < _users.length; i++) {\r\n            sendLockToken(_users[i], _amounts[i], _lockdays[i]);\r\n        }\r\n    }\r\n\r\n    // 1. msg.sender/admin approve many token to this contract\r\n    function sendLockToken(address _user, uint256 _amount, uint256 _lockdays) public onlyAdmin returns (bool) {\r\n        require(_amount > 0, \"amount can not zero\");\r\n        require(lockData[_user].amount == 0, \"this address has locked\");\r\n        require(_lockdays > 0, \"lock days need more than zero\");\r\n        \r\n        LockInfo memory lockinfo = LockInfo({\r\n            amount:_amount,\r\n            lockTimestamp:block.timestamp,\r\n            lockDays:_lockdays,\r\n            claimedAmount:0\r\n        });\r\n\r\n        lockData[_user] = lockinfo;\r\n        return true;\r\n    }\r\n    \r\n    function claimToken(uint256 _amount) external returns (uint256) {\r\n        require(_amount > 0, \"Invalid parameter amount\");\r\n        address _user = msg.sender;\r\n        require(lockData[_user].amount > 0, \"No lock token to claim\");\r\n\r\n        uint256 passdays = block.timestamp.sub(lockData[_user].lockTimestamp).div(1 days);\r\n        require(passdays > 0, \"need wait for one day at least\");\r\n\r\n        uint256 available = 0;\r\n        if (passdays >= lockData[_user].lockDays) {\r\n            available = lockData[_user].amount;\r\n        } else {\r\n            available = lockData[_user].amount.div(lockData[_user].lockDays).mul(passdays);\r\n        }\r\n        available = available.sub(lockData[_user].claimedAmount);\r\n        require(available > 0, \"not available claim\");\r\n        //require(_amount <= available, \"insufficient available\");\r\n        uint256 claim = _amount;\r\n        if (_amount > available) { // claim as much as possible\r\n            claim = available;\r\n        }\r\n\r\n        lockData[_user].claimedAmount = lockData[_user].claimedAmount.add(claim);\r\n\r\n        token.transfer(_user, claim);\r\n\r\n        return claim;\r\n    }\r\n}\r\n\r\n\r\n\r\ncontract LnTokenCliffLocker is LnAdmin, Pausable {\r\n    using SafeMath for uint;\r\n\r\n    IERC20 private token;\r\n    struct LockInfo {\r\n        uint256 amount;\r\n        uint256 lockTimestamp; // lock time at block.timestamp\r\n        uint256 claimedAmount;\r\n    }\r\n    mapping (address => LockInfo) public lockData;\r\n    \r\n    constructor(address _token, address _admin) public LnAdmin(_admin) {\r\n        token = IERC20(_token);\r\n    }\r\n    \r\n    function sendLockTokenMany(address[] calldata _users, uint256[] calldata _amounts, uint256[] calldata _locktimes) external onlyAdmin {\r\n        require(_users.length == _amounts.length, \"array length not eq\");\r\n        require(_users.length == _locktimes.length, \"array length not eq\");\r\n        for (uint256 i=0; i < _users.length; i++) {\r\n            sendLockToken(_users[i], _amounts[i], _locktimes[i]);\r\n        }\r\n    }\r\n\r\n    function avaible(address _user ) external view returns( uint256 ){\r\n        require(lockData[_user].amount > 0, \"No lock token to claim\");\r\n        if( now < lockData[_user].lockTimestamp ){\r\n            return 0;\r\n        }\r\n\r\n        uint256 available = 0;\r\n        available = lockData[_user].amount;\r\n        available = available.sub(lockData[_user].claimedAmount);\r\n        return available;\r\n    }\r\n\r\n    // 1. msg.sender/admin approve many token to this contract\r\n    function sendLockToken(address _user, uint256 _amount, uint256 _locktimes ) public onlyAdmin returns (bool) {\r\n        require(_amount > 0, \"amount can not zero\");\r\n        require(lockData[_user].amount == 0, \"this address has locked\");\r\n        require(_locktimes > 0, \"lock days need more than zero\");\r\n        \r\n        LockInfo memory lockinfo = LockInfo({\r\n            amount:_amount,\r\n            lockTimestamp:_locktimes,\r\n            claimedAmount:0\r\n        });\r\n\r\n        lockData[_user] = lockinfo;\r\n        return true;\r\n    }\r\n    \r\n    function claimToken(uint256 _amount) external returns (uint256) {\r\n        require(_amount > 0, \"Invalid parameter amount\");\r\n        address _user = msg.sender;\r\n        require(lockData[_user].amount > 0, \"No lock token to claim\");\r\n        require( now >= lockData[_user].lockTimestamp, \"Not time to claim\" );\r\n\r\n        uint256 available = 0;\r\n        available = lockData[_user].amount;\r\n        available = available.sub(lockData[_user].claimedAmount);\r\n        require(available > 0, \"not available claim\");\r\n\r\n        uint256 claim = _amount;\r\n        if (_amount > available) { // claim as much as possible\r\n            claim = available;\r\n        }\r\n\r\n        lockData[_user].claimedAmount = lockData[_user].claimedAmount.add(claim);\r\n\r\n        token.transfer(_user, claim);\r\n\r\n        return claim;\r\n    }\r\n}\r\n\r\n",
  "sourcePath": "/mnt/d/working/linearFinance/smartcontracts/contracts/LnTokenLocker.sol",
  "compiler": {
    "name": "solc",
    "version": "0.6.12+commit.27d51765.Emscripten.clang"
  },
  "schemaVersion": "3.2.3",
  "updatedAt": "2020-10-06T01:27:59.188Z",
  "devdoc": {
    "kind": "dev",
    "methods": {
      "paused()": {
        "details": "Returns true if the contract is paused, and false otherwise."
      }
    },
    "version": 1
  },
  "userdoc": {
    "kind": "user",
    "methods": {},
    "version": 1
  }
}